{
	"data": {
		"bytecode": {
			"linkReferences": {},
			"object": "608060405234801561001057600080fd5b506001600081905580546001600160a01b03191633179055606460035560156005908155603c600255600655614c1e8061004b6000396000f3fe608060405234801561001057600080fd5b506004361061014d5760003560e01c8063a8ca5bc0116100c3578063c588569f1161007c578063c588569f1461033d578063cf74505d14610350578063d392341f14610359578063d449a8321461037a578063dcb3fc9b1461039f578063f8a646e0146103b257600080fd5b8063a8ca5bc014610299578063ac0c379c146102db578063ae7dba70146102ee578063b3d0bc941461030e578063b6d9d45114610317578063c571049b1461032a57600080fd5b806367592fea1161011557806367592fea146101d95780636c7dcc821461021f5780636d577ec2146102325780638da5cb5b1461024557806391a79ed914610270578063942b281c1461027957600080fd5b80631dbc1c5f14610152578063370ca6c5146101785780633d19da45146101985780633d4aa9f1146101a157806348515f32146101c4575b600080fd5b610165610160366004614498565b6103bb565b6040519081526020015b60405180910390f35b61018b610186366004614498565b61041c565b60405161016f91906144cb565b61016560065481565b6101b46101af366004614498565b6106e1565b604051901515815260200161016f565b6101d76101d236600461456c565b61075d565b005b6101ec6101e73660046145af565b610d22565b604080516001600160601b039586168152938516602085015291841691830191909152909116606082015260800161016f565b6101b461022d366004614603565b610e27565b6101d7610240366004614603565b610eda565b600154610258906001600160a01b031681565b6040516001600160a01b03909116815260200161016f565b61016560025481565b61028c610287366004614603565b611274565b60405161016f9190614652565b6102ac6102a7366004614498565b6113cc565b6040805162ffffff9586168152938516602085015291841691830191909152909116606082015260800161016f565b6102ac6102e9366004614498565b611455565b6103016102fc366004614498565b6114e5565b60405161016f919061469b565b61016560035481565b6101d7610325366004614498565b61183a565b6101d761033836600461456c565b611c26565b6101ec61034b366004614498565b61209f565b61016560055481565b61036c610367366004614498565b61212a565b60405161016f9291906147d8565b61038d6103883660046147fd565b61233d565b60405160ff909116815260200161016f565b6101ec6103ad366004614498565b6123a5565b61016560045481565b6000806000836001600160a01b0316856001600160a01b0316116103e05784846103e3565b83855b6001600160a01b03918216600090815260076020908152604080832093909416825291909152206006015462ffffff1695945050505050565b6060600080836001600160a01b0316856001600160a01b031611610441578484610444565b83855b6001600160a01b038083166000818152600760209081526040808320858716845290915281209496509294509088161461048e5760078201546301000000900462ffffff16610499565b600782015462ffffff165b90506000846001600160a01b0316886001600160a01b0316146104bf57826003016104c4565b826002015b90506000856001600160a01b0316896001600160a01b0316036104eb5750601183015460ff165b846001600160a01b0316896001600160a01b03160361051357506011830154610100900460ff165b815467ffffffffffffffff81111561052d5761052d614818565b60405190808252806020026020018201604052801561058657816020015b6040805160a08101825260008082526020808301829052928201819052606082018190526080820152825260001990920191018161054b5790505b50965060005b825462ffffff8516146106d2576000838562ffffff16815481106105b2576105b261482e565b600091825260208083206040805160c081018252600290940290910180546001600160a01b0380821686526001600160601b03600160a01b90920482168686015260019092015462ffffff808216878601526301000000820481166060880152600160301b820481166080880152600160481b90910490911660a08087019190915283519081018452908b16815284519091169281019290925291935090810161065d86600a61493e565b846020015161066c919061494d565b6001600160601b03168152602001836060015162ffffff168152602001836080015162ffffff168152509050808a84815181106106ab576106ab61482e565b60200260200101819052508160600151955082806106c890614978565b935050505061058c565b87525094979650505050505050565b6000806000836001600160a01b0316856001600160a01b031611610706578484610709565b83855b6001600160a01b038083166000908152600760209081526040808320938516835292905220600254600882015493955091935091610750906001600160601b031642614991565b1193505050505b92915050565b816001600160a01b0316836001600160a01b0316036107c35760405162461bcd60e51b815260206004820152601a60248201527f4173736574732063616e206e6f74206265207468652073616d6500000000000060448201526064015b60405180910390fd5b60006107ce8461233d565b6107d990600a61493e565b90506108098433612710600354866001600160601b03166107fa91906149a4565b61080491906149d1565b61242d565b6108415760405162461bcd60e51b815260206004820152600960248201526810ba3930b739b332b960b91b60448201526064016107ba565b806001600160601b0316826001600160601b0316101561088f5760405162461bcd60e51b815260206004820152600960248201526810b6b4b727b93232b960b91b60448201526064016107ba565b600080846001600160a01b0316866001600160a01b0316116108b25785856108b5565b84865b6001600160a01b03808316600081815260076020908152604080832085871684529091528120949650929450908916146108f257816005016108f7565b816004015b90506000846001600160a01b0316896001600160a01b03161461092a576007830154600160a81b900462ffffff1661093c565b6007830154600160901b900462ffffff165b905060006040518060c00160405280336001600160a01b03168152602001888a61096691906149e5565b6001600160601b0316815262ffffff84166020820152845460409091019061098f906001614a0b565b62ffffff90811682526001600160a01b03808a1660008181526007602090815260408083208d86168452825280832060060154909516908601529290930191909152919250908b1603610ac957825460078501805462ffffff909216600160901b0262ffffff60901b19909216919091179055610a0c87896149e5565b600a85018054600090610a299084906001600160601b0316614a2e565b82546001600160601b039182166101009390930a928302919092021990911617905550600c8401805462ffffff600160301b90910416906006610a6b83614a4e565b91906101000a81548162ffffff021916908362ffffff1602179055505060055484600c0160000160069054906101000a900462ffffff1662ffffff1610610ac45760405162461bcd60e51b81526004016107ba90614a70565b610bb8565b825460078501805462ffffff909216600160a81b0262ffffff60a81b19909216919091179055610af987896149e5565b600a85018054600c90610b1d908490600160601b90046001600160601b0316614a2e565b82546001600160601b039182166101009390930a928302919092021990911617905550600c8401805462ffffff600160481b90910416906009610b5f83614a4e565b91906101000a81548162ffffff021916908362ffffff1602179055505060055484600c0160000160099054906101000a900462ffffff1662ffffff1610610bb85760405162461bcd60e51b81526004016107ba90614a70565b601184015460ff16600003610be757610bd08661233d565b60118501805460ff191660ff929092169190911790555b6011840154610100900460ff16600003610c2157610c048561233d565b8460110160016101000a81548160ff021916908360ff1602179055505b82546001818101855560008581526020908190208451918501516001600160601b03908116600160a01b026001600160a01b039093169290921760029094020192835560408085015193830180546060870151608088015160a0890151909516600160481b02600160481b600160a81b031962ffffff968716600160301b0216600160301b600160a81b031992871663010000000265ffffffffffff1990941696909816959095179190911716949094179190911790925590517fdf2066748acf7c9c7245addd0d003c9b501f033b47306ec70401bbc1efaf0aa691610d0e918d918d9133918e91614ab8565b60405180910390a150505050505050505050565b600080600080856001600160601b0316886001600160601b03161115610db157610d4c8689614af4565b9750876001600160601b0316856001600160601b031611610d7657610d718587614a2e565b610d80565b610d808887614a2e565b935085915060009250876001600160601b0316856001600160601b031611610da85784610daa565b875b9050610e1c565b610dbb8887614af4565b9550879350856001600160601b0316876001600160601b031611610de857610de38789614a2e565b610df2565b610df28689614a2e565b9150856001600160601b0316876001600160601b031611610e135786610e15565b855b9250600090505b945094509450949050565b60006001600160a01b0380841690851611818082610e46578686610e49565b85875b6001600160a01b038083166000908152600760209081526040808320938516835292905220919350915083610eae5762ffffff86166000908152600d8201602052604090205415610ea1576001945050505050610ed3565b6000945050505050610ed3565b62ffffff86166000908152600f8201602052604090205415610ea15760019450505050505b9392505050565b610ee26124d8565b6001600160a01b038083169084161160008082610f00578585610f03565b84865b6001600160a01b03808316600090815260076020908152604080832093851683529290529081206006810154939550919350909162ffffff169085610ffd575060048201600d83016000610f58846001614a0b565b62ffffff9081168252602080830193909352604091820160009081208054600181018255908252848220600a8083049091018054919092066003026101000a80850219909116938d16908102939093179055908152600e860190925290205460ff1615610fd75760405162461bcd60e51b81526004016107ba90614b14565b62ffffff87166000908152600e840160205260409020805460ff191660011790556110b4565b5060058201600f83016000611013846001614a0b565b62ffffff9081168252602080830193909352604091820160009081208054600181018255908252848220600a8083049091018054919092066003026101000a80850219909116938d169081029390931790559081526010860190925290205460ff16156110925760405162461bcd60e51b81526004016107ba90614b14565b62ffffff871660009081526010840160205260409020805460ff191660011790555b808762ffffff16815481106110cb576110cb61482e565b600091825260208220600290910201546001600160601b03600160a01b9091041690036111735760405162461bcd60e51b815260206004820152604a60248201527f496e76616c69642063616e63656c6174696f6e2e204f7264657220686173206160448201527f6c7265616479206265656e2072656d6f7665642066726f6d2074686520616374606482015269697665204d616b65727360b01b608482015260a4016107ba565b808762ffffff168154811061118a5761118a61482e565b60009182526020909120600290910201546001600160a01b031633146112115760405162461bcd60e51b815260206004820152603660248201527f4f6e6c79207468652077616c6c6574207468617420706c616365642074686973604482015275081bdc99195c8818d85b881dda5d1a191c985dc81a5d60521b60648201526084016107ba565b604080516001600160a01b038b811682528a16602082015262ffffff89168183015290517fdc7de9c05fe619dbe535ea93f115df58dd7d0adcb1fc10b8289e7ced1a71358f9181900360600190a150505050505061126f6001600055565b505050565b60606001600160a01b038084169085161160008082611294578686611297565b85875b6001600160a01b03808316600090815260076020908152604080832093851683529290522091935091508361135c5762ffffff86166000908152600d820160209081526040918290208054835181840281018401909452808452909183018282801561134c57602002820191906000526020600020906000905b82829054906101000a900462ffffff1662ffffff16815260200190600301906020826002010492830192600103820291508084116113115790505b5050505050945050505050610ed3565b62ffffff86166000908152600f820160209081526040918290208054835181840281018401909452808452909183018282801561134c576000918252602091829020805462ffffff1684529082028301929091600391018084116113115790505050505050945050505050610ed3565b600080600080600080866001600160a01b0316886001600160a01b0316116113f55787876113f8565b86885b6001600160a01b0391821660009081526007602081815260408084209490951683529290925291909120015462ffffff8082169a600160601b830482169a506301000000830482169950600160781b909204169650945050505050565b600080600080600080866001600160a01b0316886001600160a01b03161161147e578787611481565b86885b6001600160a01b0391821660009081526007602081815260408084209590941683529390935220015462ffffff600160301b820481169750600160901b820481169650600160481b820481169550600160a81b909104169250505092959194509250565b6060600080836001600160a01b0316856001600160a01b03161161150a57848461150d565b83855b6001600160a01b0380831660008181526007602090815260408083208587168452909152812094965092945090881614611557576007820154600160481b900462ffffff16611569565b6007820154600160301b900462ffffff165b90506000846001600160a01b0316886001600160a01b03161461159c576007830154600160a81b900462ffffff166115ae565b6007830154600160901b900462ffffff165b90506000856001600160a01b0316896001600160a01b0316146115d457836005016115d9565b836004015b805490915067ffffffffffffffff8111156115f6576115f6614818565b60405190808252806020026020018201604052801561165d57816020015b6040805160e08101825260008082526020808301829052928201819052606082018190526080820181905260a0820181905260c082015282526000199092019101816116145790505b509650600080876001600160a01b03168b6001600160a01b0316036116865750601185015460ff165b866001600160a01b03168b6001600160a01b0316036116ae57506011850154610100900460ff165b8362ffffff168562ffffff16111580156116cd5750825462ffffff8616105b1561182a576000838662ffffff16815481106116eb576116eb61482e565b600091825260208083206040805160c081018252600290940290910180546001600160a01b0380821686526001600160601b03600160a01b90920482168686015260019092015462ffffff808216878601526301000000820481166060880152600160301b820481166080880152600160481b90910490911660a0860152825160e081018452908c16815284519091169281019290925291935090810161179385600a61493e565b84602001516117a2919061494d565b6001600160601b03168152602001836040015162ffffff168152602001836060015162ffffff1681526020018360a001516001600160601b03168152602001836080015162ffffff168152509050808b85815181106118035761180361482e565b602002602001018190525081606001519650838061182090614978565b94505050506116ae565b5087525094979650505050505050565b6118426124d8565b6000806000806000856001600160a01b0316876001600160a01b03161161186a57868661186d565b85875b6001600160a01b0380831660009081526007602090815260408083209385168352929052206002546008820154939550919350916118b4906001600160601b031642614991565b1161191c5760405162461bcd60e51b815260206004820152603260248201527f796f75206d7573742077616974206d6f72652074696d65206265666f72652063604482015271185b1b1a5b99c81d1a1a5cc81b595d1a1bd960721b60648201526084016107ba565b6009810154600b820154600091829182918291611957916001600160601b038082169280821692600160601b90819004831692910416610d22565b9350935093509350826001600160601b03166000148061197e57506001600160601b038116155b6119ca5760405162461bcd60e51b815260206004820152601860248201527f43616e206e6f7420626f7468206265206e6f6e2d7a65726f000000000000000060448201526064016107ba565b6119d48c8c612502565b6001600160601b03831615611a41576011850154611a039084908990899060ff80821691610100900416612915565b9950611a0f8a83614af4565b9150611a1d84838989612eac565b90995097506001600160601b038a1615611a3c57611a3c8a8789613319565b611ab7565b6001600160601b03811615611aa8576011850154611a6f90829088908a9060ff610100820481169116612915565b9950611a7b8a85614af4565b9350611a898483888a612eac565b90995097506001600160601b038a1615611a3c57611a3c8a8888613319565b611ab48483888a612eac565b50505b600080611ac48e8e6139e3565b6009890180546001600160601b03808416600160601b9081026001600160c01b03199384168388161717909355600a8c0154600b8d018054858304841690950294909316911617919091179055600c890180549294509092508c91600090611b3290849062ffffff16614b67565b92506101000a81548162ffffff021916908362ffffff1602179055508987600c0160000160038282829054906101000a900462ffffff16611b739190614b67565b82546101009290920a62ffffff8181021990931691831602179091556006890154604051911681526001600160a01b038a811692508b16907f7b5e572d4197e10e590b08b790c705a488c2a9aa7591726b55de089d1f66159f9060200160405180910390a360068701805462ffffff16906000611bef83614a4e565b91906101000a81548162ffffff021916908362ffffff16021790555050505050505050505050505050611c226001600055565b5050565b816001600160a01b0316836001600160a01b031603611c875760405162461bcd60e51b815260206004820152601a60248201527f4173736574732063616e206e6f74206265207468652073616d6500000000000060448201526064016107ba565b6000611c928461233d565b611c9d90600a61493e565b9050611cb38433846001600160601b031661242d565b611ceb5760405162461bcd60e51b815260206004820152600960248201526810ba3930b739b332b960b91b60448201526064016107ba565b806001600160601b0316826001600160601b03161015611d395760405162461bcd60e51b815260206004820152600960248201526810b6b4b727b93232b960b91b60448201526064016107ba565b600080846001600160a01b0316866001600160a01b031611611d5c578585611d5f565b84865b6001600160a01b0380831660008181526007602090815260408083208587168452909152812094965092945090891614611d9c5781600301611da1565b816002015b90506000846001600160a01b0316896001600160a01b031614611dd4576007830154600160781b900462ffffff16611de6565b6007830154600160601b900462ffffff165b905060006040518060c00160405280336001600160a01b03168152602001888a611e1091906149e5565b6001600160601b0316815262ffffff841660208201528454604090910190611e39906001614a0b565b62ffffff90811682526001600160a01b03808a166000908152600760209081526040808320938c1683529281528282206006015490931692840192909252909101819052601186015491925060ff9091169003611eb057611e998661233d565b60118501805460ff191660ff929092169190911790555b6011840154610100900460ff16600003611eea57611ecd8561233d565b8460110160016101000a81548160ff021916908360ff1602179055505b856001600160a01b03168a6001600160a01b031603611f5b57825460078501805462ffffff60601b1916600160601b62ffffff93841602179055600c85018054909116906000611f3983614a4e565b91906101000a81548162ffffff021916908362ffffff16021790555050611fb6565b825460078501805462ffffff60781b1916600160781b62ffffff93841602179055600c8501805463010000009004909116906003611f9883614a4e565b91906101000a81548162ffffff021916908362ffffff160217905550505b825460018181018555600085815260208082208551918601516001600160601b03908116600160a01b026001600160a01b03909316929092176002909502019384556040808601519490930180546060870151608088015160a0890151909416600160481b02600160481b600160a81b031962ffffff958616600160301b0216600160301b600160a81b031992861663010000000265ffffffffffff19909416959098169490941791909117169490941717909255517fdf2066748acf7c9c7245addd0d003c9b501f033b47306ec70401bbc1efaf0aa691610d0e918d918d9133918e91614ab8565b600080600080600080866001600160a01b0316886001600160a01b0316116120c85787876120cb565b86885b6001600160a01b03918216600090815260076020908152604080832093909416825291909152206009810154600b909101546001600160601b038083169b8183169b50600160601b9384900482169a5092909104169650945050505050565b606080600080846001600160a01b0316866001600160a01b031611612150578585612153565b84865b6001600160a01b0380831660008181526007602090815260408083208587168452909152902093955091935088161461218f5780600301612194565b806002015b805480602002602001604051908101604052809291908181526020016000905b8282101561224a5760008481526020908190206040805160c0810182526002860290920180546001600160a01b03811684526001600160601b03600160a01b90910481168486015260019182015462ffffff808216948601949094526301000000810484166060860152600160301b81049093166080850152600160481b90920490911660a083015290835290920191016121b4565b505050509450826001600160a01b0316876001600160a01b0316146122725780600501612277565b806004015b805480602002602001604051908101604052809291908181526020016000905b8282101561232d5760008481526020908190206040805160c0810182526002860290920180546001600160a01b03811684526001600160601b03600160a01b90910481168486015260019182015462ffffff808216948601949094526301000000810484166060860152600160301b81049093166080850152600160481b90920490911660a08301529083529092019101612297565b5050505093505050509250929050565b600080829050806001600160a01b031663313ce5676040518163ffffffff1660e01b8152600401602060405180830381865afa158015612381573d6000803e3d6000fd5b505050506040513d601f19601f82011682018060405250810190610ed39190614b83565b600080600080600080866001600160a01b0316886001600160a01b0316116123ce5787876123d1565b86885b6001600160a01b0391821660009081526007602090815260408083209390941682529190915220600c015462ffffff8082169a600160301b830482169a506301000000830482169950600160481b909204169650945050505050565b604080516001600160a01b038481166024830152306044830152606480830185905283518084039091018152608490920183526020820180516001600160e01b03166323b872dd60e01b179052915160009286169161248b91614ba6565b6000604051808303816000865af19150503d80600081146124c8576040519150601f19603f3d011682016040523d82523d6000602084013e6124cd565b606091505b509095945050505050565b6002600054036124fb57604051633ee5aeb560e01b815260040160405180910390fd5b6002600055565b600080826001600160a01b0316846001600160a01b031611612525578383612528565b82845b6001600160a01b03808316600090815260076020908152604080832093851683529290522060068101549294509092509062ffffff16612569848483610e27565b1561274a5762ffffff81166000908152600d830160209081526040808320805482518185028101850190935280835291929091908301828280156125f657602002820191906000526020600020906000905b82829054906101000a900462ffffff1662ffffff16815260200190600301906020826002010492830192600103820291508084116125bb5790505b5050505050905060005b815181101561274757600082828151811061261d5761261d61482e565b602002602001015190506000856004018262ffffff16815481106126435761264361482e565b60009182526020918290206040805160c081018252600290930290910180546001600160a01b03811684526001600160601b03600160a01b909104811694840185905260019091015462ffffff808216938501939093526301000000810483166060850152600160301b81049092166080840152600160481b9091041660a08201529150156127325780516003546011880154612722928b92909161271091906126f19060ff16600a61493e565b86602001516001600160601b031661270991906149a4565b61271391906149a4565b61271d91906149d1565b613cfa565b61273288888462ffffff16613d8e565b5050808061273f90614978565b915050612600565b50505b612755838583610e27565b1561290d5762ffffff81166000908152600f830160209081526040808320805482518185028101850190935280835291929091908301828280156127e257602002820191906000526020600020906000905b82829054906101000a900462ffffff1662ffffff16815260200190600301906020826002010492830192600103820291508084116127a75790505b5050505050905060005b815181101561290a5760008282815181106128095761280961482e565b602002602001015190506000856005018262ffffff168154811061282f5761282f61482e565b60009182526020918290206040805160c081018252600290930290910180546001600160a01b03811684526001600160601b03600160a01b909104811694840185905260019091015462ffffff808216938501939093526301000000810483166060850152600160301b81049092166080840152600160481b9091041660a08201529150156128f5576128e58782600001516127106003548a60110160019054906101000a900460ff16600a6126f1919061493e565b6128f587898462ffffff16613d8e565b5050808061290290614978565b9150506127ec565b50505b505050505050565b600080846001600160a01b0316866001600160a01b0316101561295d57506001600160a01b038086166000908152600760209081526040808320938816835292905220612984565b506001600160a01b0380851660009081526007602090815260408083209389168352929052205b6000806000806000896001600160a01b03168b6001600160a01b0316116129c3576007860154600160301b900462ffffff1694506004860193506129dd565b6007860154600160481b900462ffffff1694506005860193505b835462ffffff861690036129fb575060009550612ea3945050505050565b6001600160601b038c1615612e60578b6001600160601b0316848662ffffff1681548110612a2b57612a2b61482e565b6000918252602090912060029091020154600160a01b90046001600160601b031610612a57578b612a90565b838562ffffff1681548110612a6e57612a6e61482e565b6000918252602090912060029091020154600160a01b90046001600160601b03165b9250838562ffffff1681548110612aa957612aa961482e565b600091825260209091206002909102015484546001600160a01b039091169250849062ffffff8716908110612ae057612ae061482e565b6000918252602082206001600290920201015462ffffff6301000000909104169150612b258c84612b128d600a61493e565b610804906001600160601b0389166149a4565b90508015612c9d576001600160a01b03808c16908d167f4b7f19d9174e11be363f3a433c1271169ef5cd1bc751b2acc24995ac7a3ce49d85612b688e600a61493e565b612b7b906001600160601b038a166149a4565b612b868f600a61493e565b8a8c62ffffff1681548110612b9d57612b9d61482e565b6000918252602090912060029091020154612bc89190600160a01b90046001600160601b03166149a4565b60068d0154604080516001600160a01b03909516855260208501939093529183015262ffffff808c16606084015216608082015260a00160405180910390a3612c2a8b84612c178c600a61493e565b61271d906001600160601b0389166149a4565b83858762ffffff1681548110612c4257612c4261482e565b906000526020600020906002020160010160098282829054906101000a90046001600160601b0316612c749190614a2e565b92506101000a8154816001600160601b0302191690836001600160601b03160217905550612e4b565b6001600160a01b03808c16908d167f4e4c59f9ca650e07ad9ac7ab7aa462822ce1e811dbfc21cabe92ac41b923066f85612cd88e600a61493e565b612ceb906001600160601b038a166149a4565b612cf68f600a61493e565b8a8c62ffffff1681548110612d0d57612d0d61482e565b6000918252602090912060029091020154612d389190600160a01b90046001600160601b03166149a4565b60068d0154604080516001600160a01b03909516855260208501939093529183015262ffffff808c16606084015216608082015260a00160405180910390a3600154600354612de0918e916001600160a01b039091169061271090612d9e8f600a61493e565b8a8c62ffffff1681548110612db557612db561482e565b60009182526020909120600290910201546127099190600160a01b90046001600160601b03166149a4565b612dea8489614a2e565b9750612dfc8c8c8862ffffff16613d8e565b6000858762ffffff1681548110612e1557612e1561482e565b906000526020600020906002020160000160146101000a8154816001600160601b0302191690836001600160601b031602179055505b612e55848e614af4565b9c50819550506129fb565b6040516001600160601b03881681527f2a27502c345a4cd966daa061d5537f54cd60d2d20b73680b3bf195c91e806a4b9060200160405180910390a15050505050505b95945050505050565b600080600080846001600160a01b0316866001600160a01b031611612ed2578585612ed5565b84865b6001600160a01b038083166000908152600760208181526040808420948616845293905291812091820154600283018054959750939550919362ffffff9092169291839003612f2757600097506130d9565b818362ffffff1681548110612f3e57612f3e61482e565b906000526020600020906002020190505b80546001600160601b03600160a01b9091048116908d16106130275780546011850154612fb39187916001600160a01b0390911690612f9790610100900460ff16600a61493e565b845461271d9190600160a01b90046001600160601b03166149a4565b8054612fcf90600160a01b90046001600160601b03168d614af4565b60018201548354919d506301000000900462ffffff169350831461301557818362ffffff16815481106130045761300461482e565b906000526020600020906002020190505b8761301f81614a4e565b985050612f4f565b6001600160601b038c16156130c357805460118501546130769187916001600160a01b039091169061306290610100900460ff16600a61493e565b8f6001600160601b031661271d91906149a4565b80548c90829060149061309a908490600160a01b90046001600160601b0316614af4565b92506101000a8154816001600160601b0302191690836001600160601b0316021790555060009b505b60078401805462ffffff191662ffffff85161790555b6007840154600385018054630100000090920462ffffff1694509250839003613105576000965061329a565b818362ffffff168154811061311c5761311c61482e565b906000526020600020906002020190505b80546001600160601b03600160a01b9091048116908c16106131e457805460118501546131709188916001600160a01b0390911690612f979060ff16600a61493e565b805461318c90600160a01b90046001600160601b03168c614af4565b60018201548354919c506301000000900462ffffff16935083146131d257818362ffffff16815481106131c1576131c161482e565b906000526020600020906002020190505b866131dc81614a4e565b97505061312d565b6001600160601b038b161561327b578054601185015461322e9188916001600160a01b039091169061321a9060ff16600a61493e565b8e6001600160601b031661271d91906149a4565b80548b908290601490613252908490600160a01b90046001600160601b0316614af4565b92506101000a8154816001600160601b0302191690836001600160601b0316021790555060009a505b60078401805465ffffff0000001916630100000062ffffff8616021790555b60405162ffffff891681527f2a27502c345a4cd966daa061d5537f54cd60d2d20b73680b3bf195c91e806a4b9060200160405180910390a160405162ffffff881681527f2a27502c345a4cd966daa061d5537f54cd60d2d20b73680b3bf195c91e806a4b9060200160405180910390a150505050505094509492505050565b6001600160a01b03808216908316116000808261333757848461333a565b83855b6001600160a01b038083166000908152600760209081526040808320938516835292905290812092945090925080808080808961339557600787015462ffffff8082169750600289019550600160601b9091041691506133bb565b600787015462ffffff6301000000820481169750600389019550600160781b9091041691505b8594505b835462ffffff8716148015906134105750838662ffffff16815481106133e7576133e761482e565b60009182526020909120600290910201546001600160601b03600160a01b9091048116908e1610155b156134eb576006870154845462ffffff9182169186919089169081106134385761343861482e565b906000526020600020906002020160010160066101000a81548162ffffff021916908362ffffff160217905550838662ffffff168154811061347c5761347c61482e565b60009182526020909120600290910201546134a790600160a01b90046001600160601b03168e614af4565b9c50859050838662ffffff16815481106134c3576134c361482e565b906000526020600020906002020160010160039054906101000a900462ffffff1695506133bf565b6001600160601b038d161561356b57600192508c848762ffffff16815481106135165761351661482e565b600091825260209091206002909102018054601490613546908490600160a01b90046001600160601b0316614af4565b92506101000a8154816001600160601b0302191690836001600160601b031602179055505b8562ffffff168562ffffff16141580156135bb575083548462ffffff83168281106135985761359861482e565b60009182526020909120600290910201600101546301000000900462ffffff1614155b1561370a57896135df5760078701805462ffffff191662ffffff88161790556135fe565b60078701805465ffffff0000001916630100000062ffffff8916021790555b84848362ffffff16815481106136165761361661482e565b906000526020600020906002020160010160036101000a81548162ffffff021916908362ffffff16021790555081848662ffffff168154811061365b5761365b61482e565b60009182526020909120600290910201600101805462ffffff191662ffffff928316179055845490859083168281106136965761369661482e565b906000526020600020906002020160010160036101000a81548162ffffff021916908362ffffff160217905550896136eb5760078701805462ffffff60601b1916600160601b62ffffff84160217905561370a565b60078701805462ffffff60781b1916600160781b62ffffff8416021790555b82156139d45760006040518060c00160405280868962ffffff16815481106137345761373461482e565b906000526020600020906002020160000160009054906101000a90046001600160a01b03166001600160a01b031681526020018f6001600160601b031681526020018462ffffff168152602001868054905060016137929190614a0b565b62ffffff908116825260068b0154166020820152600060409091015290508a6138c357845460078901805462ffffff60601b1916600160601b62ffffff938416021790556002808a01805460018181018355600092835260208084208751918801516001600160a01b03909216600160a01b6001600160601b039384160217939095029094019182556040860151910180546060870151608088015160a089015194881665ffffffffffff199093169290921763010000009188169190910217600160301b600160a81b031916600160301b91871691909102600160481b600160a81b03191617600160481b929094169190910292909217909155600c8a01805490921691906138a183614a4e565b91906101000a81548162ffffff021916908362ffffff160217905550506139d2565b845460078901805462ffffff60781b1916600160781b62ffffff938416021790556003808a0180546001818101835560009283526020928390208651938701516001600160a01b03909416600160a01b6001600160601b0395861602176002909302019182556040860151910180546060870151608088015160a089015194881665ffffffffffff19909316929092176301000000918816820217600160301b600160a81b031916600160301b92881692909202600160481b600160a81b03191691909117600160481b939094169290920292909217909155600c8b0180549190910490921691906139b483614a4e565b91906101000a81548162ffffff021916908362ffffff160217905550505b505b50505050505050505050505050565b6000806001600160a01b0380841690851611818082613a03578686613a06565b85875b6001600160a01b0380831660009081526007602081815260408084209486168452939052918120600681015492810154949650929450919262ffffff918216929116600284015b805462ffffff83161015613b72576000818362ffffff1681548110613a7457613a7461482e565b60009182526020918290206040805160c081018252600290930290910180546001600160a01b03811684526001600160601b03600160a01b9091048116948401949094526001015462ffffff808216928401929092526301000000810482166060840152600160301b8104821660808401819052600160481b90910490931660a0830152600654919350871691613b0b9190614bd5565b1015613b535780516011870154613b44918a91613b2c9060ff16600a61493e565b84602001516001600160601b031661271d91906149a4565b80606001519250829350613b6c565b6020810151613b62908c614a2e565b9a50806060015192505b50613a4d565b62ffffff831615613b935760078501805462ffffff191662ffffff85161790555b50505060078201546000906301000000900462ffffff16600384015b805462ffffff83161015613cc1576000818362ffffff1681548110613bd657613bd661482e565b60009182526020918290206040805160c081018252600290930290910180546001600160a01b03811684526001600160601b03600160a01b9091048116948401949094526001015462ffffff808216928401929092526301000000810482166060840152600160301b8104821660808401819052600160481b90910490931660a0830152600654919350871691613c6d9190614bd5565b1015613ca25780516011870154613c93918991613b2c90610100900460ff16600a61493e565b80606001519250829350613cbb565b6020810151613cb1908b614a2e565b9950806060015192505b50613baf565b62ffffff831615613ceb5760078501805465ffffff0000001916630100000062ffffff8616021790555b50505050505050509250929050565b604080516001600160a01b038481166024830152604480830185905283518084039091018152606490920183526020820180516001600160e01b031663a9059cbb60e01b179052915191851691613d519190614ba6565b6000604051808303816000865af19150503d806000811461290d576040519150601f19603f3d011682016040523d82523d6000602084013e61290d565b600080836001600160a01b0316856001600160a01b031611613db1578484613db4565b83855b6001600160a01b03808316600081815260076020908152604080832085871684529091528120949650929450878216918916918211929114613e06576007830154600160481b900462ffffff16613e18565b6007830154600160301b900462ffffff165b90506000856001600160a01b0316896001600160a01b031614613e4b576007840154600160a81b900462ffffff16613e5d565b6007840154600160901b900462ffffff165b90506000866001600160a01b03168a6001600160a01b031614613e835784600501613e88565b846004015b905083613f4357808881548110613ea157613ea161482e565b60009182526020822060029091020154600a870180546001600160601b03600160a01b9093048316939192613ed891859116614af4565b92506101000a8154816001600160601b0302191690836001600160601b03160217905550600185600c0160000160068282829054906101000a900462ffffff16613f229190614b67565b92506101000a81548162ffffff021916908362ffffff160217905550613ffc565b808881548110613f5557613f5561482e565b6000918252602090912060029091020154600a860180546001600160601b03600160a01b909304831692600c91613f95918591600160601b900416614af4565b92506101000a8154816001600160601b0302191690836001600160601b03160217905550600185600c0160000160098282829054906101000a900462ffffff16613fdf9190614b67565b92506101000a81548162ffffff021916908362ffffff1602179055505b8262ffffff168803614180578162ffffff1688146140be578088815481106140265761402661482e565b906000526020600020906002020160010160039054906101000a900462ffffff1681828a8154811061405a5761405a61482e565b906000526020600020906002020160010160039054906101000a900462ffffff1662ffffff16815481106140905761409061482e565b906000526020600020906002020160010160006101000a81548162ffffff021916908362ffffff1602179055505b866001600160a01b03168a6001600160a01b03160361412d578088815481106140e9576140e961482e565b600091825260209091206002909102016001015460078601805468ffffff0000000000001916630100000090920462ffffff16600160301b02919091179055614427565b80888154811061413f5761413f61482e565b600091825260209091206002909102016001015460078601805462ffffff60481b1916630100000090920462ffffff16600160481b02919091179055614427565b8162ffffff1688036142de5780888154811061419e5761419e61482e565b906000526020600020906002020160010160039054906101000a900462ffffff1681828a815481106141d2576141d261482e565b6000918252602090912060016002909202010154815462ffffff9091169081106141fe576141fe61482e565b906000526020600020906002020160010160036101000a81548162ffffff021916908362ffffff160217905550866001600160a01b03168a6001600160a01b031603614291578088815481106142565761425661482e565b600091825260209091206002909102016001015460078601805462ffffff60901b191662ffffff909216600160901b02919091179055614427565b8088815481106142a3576142a361482e565b600091825260209091206002909102016001015460078601805462ffffff60481b191662ffffff909216600160481b02919091179055614427565b8088815481106142f0576142f061482e565b906000526020600020906002020160010160039054906101000a900462ffffff1681828a815481106143245761432461482e565b6000918252602090912060016002909202010154815462ffffff9091169081106143505761435061482e565b906000526020600020906002020160010160036101000a81548162ffffff021916908362ffffff16021790555080888154811061438f5761438f61482e565b906000526020600020906002020160010160009054906101000a900462ffffff1681828a815481106143c3576143c361482e565b906000526020600020906002020160010160039054906101000a900462ffffff1662ffffff16815481106143f9576143f961482e565b906000526020600020906002020160010160006101000a81548162ffffff021916908362ffffff1602179055505b600081898154811061443b5761443b61482e565b906000526020600020906002020160000160146101000a8154816001600160601b0302191690836001600160601b0316021790555050505050505050505050565b80356001600160a01b038116811461449357600080fd5b919050565b600080604083850312156144ab57600080fd5b6144b48361447c565b91506144c26020840161447c565b90509250929050565b602080825282518282018190526000919060409081850190868401855b82811015614548578151805162ffffff9081168652878201516001600160a01b031688870152868201516001600160601b031687870152606080830151821690870152608091820151169085015260a090930192908501906001016144e8565b5091979650505050505050565b80356001600160601b038116811461449357600080fd5b60008060006060848603121561458157600080fd5b61458a8461447c565b92506145986020850161447c565b91506145a660408501614555565b90509250925092565b600080600080608085870312156145c557600080fd5b6145ce85614555565b93506145dc60208601614555565b92506145ea60408601614555565b91506145f860608601614555565b905092959194509250565b60008060006060848603121561461857600080fd5b6146218461447c565b925061462f6020850161447c565b9150604084013562ffffff8116811461464757600080fd5b809150509250925092565b6020808252825182820181905260009190848201906040850190845b8181101561468f57835162ffffff168352928401929184019160010161466e565b50909695505050505050565b602080825282518282018190526000919060409081850190868401855b82811015614548578151805162ffffff9081168652878201516001600160a01b031688870152868201516001600160601b0316878701526060808301518216908701526080808301519091169086015260a080820151614722828801826001600160601b03169052565b505060c09081015162ffffff169085015260e090930192908501906001016146b8565b600081518084526020808501945080840160005b838110156147cd57815180516001600160a01b03168852838101516001600160601b03908116858a015260408083015162ffffff908116918b01919091526060808401518216908b0152608080840151909116908a015260a091820151169088015260c09096019590820190600101614759565b509495945050505050565b6040815260006147eb6040830185614745565b8281036020840152612ea38185614745565b60006020828403121561480f57600080fd5b610ed38261447c565b634e487b7160e01b600052604160045260246000fd5b634e487b7160e01b600052603260045260246000fd5b634e487b7160e01b600052601160045260246000fd5b600181815b8085111561489557816000190482111561487b5761487b614844565b8085161561488857918102915b93841c939080029061485f565b509250929050565b6000826148ac57506001610757565b816148b957506000610757565b81600181146148cf57600281146148d9576148f5565b6001915050610757565b60ff8411156148ea576148ea614844565b50506001821b610757565b5060208310610133831016604e8410600b8410161715614918575081810a610757565b614922838361485a565b806000190482111561493657614936614844565b029392505050565b6000610ed360ff84168361489d565b6001600160601b0381811683821602808216919082811461497057614970614844565b505092915050565b60006001820161498a5761498a614844565b5060010190565b8181038181111561075757610757614844565b808202811582820484141761075757610757614844565b634e487b7160e01b600052601260045260246000fd5b6000826149e0576149e06149bb565b500490565b60006001600160601b03808416806149ff576149ff6149bb565b92169190910492915050565b62ffffff818116838216019080821115614a2757614a27614844565b5092915050565b6001600160601b03818116838216019080821115614a2757614a27614844565b600062ffffff808316818103614a6657614a66614844565b6001019392505050565b60208082526028908201527f43616e206e6f7420706c6163652074686174206d616e79206f726465727320706040820152670cae440cae0dec6d60c31b606082015260800190565b6001600160a01b03958616815293851660208501529190931660408301526001600160601b039092166060820152901515608082015260a00190565b6001600160601b03828116828216039080821115614a2757614a27614844565b60208082526033908201527f4e6f20646f75626c652063616e63656c6174696f6e732e204f72646572206973604082015272081b585c9ad95908185cc818d85b98d95b1959606a1b606082015260800190565b62ffffff828116828216039080821115614a2757614a27614844565b600060208284031215614b9557600080fd5b815160ff81168114610ed357600080fd5b6000825160005b81811015614bc75760208186018101518583015201614bad565b506000920191825250919050565b808201808211156107575761075761484456fea264697066735822122065605566c9502fcab9c080b769b537cf5df63d07aa2d5ddeaf8d9c622ea7890064736f6c63430008120033",
			"opcodes": "PUSH1 0x80 PUSH1 0x40 MSTORE CALLVALUE DUP1 ISZERO PUSH2 0x10 JUMPI PUSH1 0x0 DUP1 REVERT JUMPDEST POP PUSH1 0x1 PUSH1 0x0 DUP2 SWAP1 SSTORE DUP1 SLOAD PUSH1 0x1 PUSH1 0x1 PUSH1 0xA0 SHL SUB NOT AND CALLER OR SWAP1 SSTORE PUSH1 0x64 PUSH1 0x3 SSTORE PUSH1 0x15 PUSH1 0x5 SWAP1 DUP2 SSTORE PUSH1 0x3C PUSH1 0x2 SSTORE PUSH1 0x6 SSTORE PUSH2 0x4C1E DUP1 PUSH2 0x4B PUSH1 0x0 CODECOPY PUSH1 0x0 RETURN INVALID PUSH1 0x80 PUSH1 0x40 MSTORE CALLVALUE DUP1 ISZERO PUSH2 0x10 JUMPI PUSH1 0x0 DUP1 REVERT JUMPDEST POP PUSH1 0x4 CALLDATASIZE LT PUSH2 0x14D JUMPI PUSH1 0x0 CALLDATALOAD PUSH1 0xE0 SHR DUP1 PUSH4 0xA8CA5BC0 GT PUSH2 0xC3 JUMPI DUP1 PUSH4 0xC588569F GT PUSH2 0x7C JUMPI DUP1 PUSH4 0xC588569F EQ PUSH2 0x33D JUMPI DUP1 PUSH4 0xCF74505D EQ PUSH2 0x350 JUMPI DUP1 PUSH4 0xD392341F EQ PUSH2 0x359 JUMPI DUP1 PUSH4 0xD449A832 EQ PUSH2 0x37A JUMPI DUP1 PUSH4 0xDCB3FC9B EQ PUSH2 0x39F JUMPI DUP1 PUSH4 0xF8A646E0 EQ PUSH2 0x3B2 JUMPI PUSH1 0x0 DUP1 REVERT JUMPDEST DUP1 PUSH4 0xA8CA5BC0 EQ PUSH2 0x299 JUMPI DUP1 PUSH4 0xAC0C379C EQ PUSH2 0x2DB JUMPI DUP1 PUSH4 0xAE7DBA70 EQ PUSH2 0x2EE JUMPI DUP1 PUSH4 0xB3D0BC94 EQ PUSH2 0x30E JUMPI DUP1 PUSH4 0xB6D9D451 EQ PUSH2 0x317 JUMPI DUP1 PUSH4 0xC571049B EQ PUSH2 0x32A JUMPI PUSH1 0x0 DUP1 REVERT JUMPDEST DUP1 PUSH4 0x67592FEA GT PUSH2 0x115 JUMPI DUP1 PUSH4 0x67592FEA EQ PUSH2 0x1D9 JUMPI DUP1 PUSH4 0x6C7DCC82 EQ PUSH2 0x21F JUMPI DUP1 PUSH4 0x6D577EC2 EQ PUSH2 0x232 JUMPI DUP1 PUSH4 0x8DA5CB5B EQ PUSH2 0x245 JUMPI DUP1 PUSH4 0x91A79ED9 EQ PUSH2 0x270 JUMPI DUP1 PUSH4 0x942B281C EQ PUSH2 0x279 JUMPI PUSH1 0x0 DUP1 REVERT JUMPDEST DUP1 PUSH4 0x1DBC1C5F EQ PUSH2 0x152 JUMPI DUP1 PUSH4 0x370CA6C5 EQ PUSH2 0x178 JUMPI DUP1 PUSH4 0x3D19DA45 EQ PUSH2 0x198 JUMPI DUP1 PUSH4 0x3D4AA9F1 EQ PUSH2 0x1A1 JUMPI DUP1 PUSH4 0x48515F32 EQ PUSH2 0x1C4 JUMPI JUMPDEST PUSH1 0x0 DUP1 REVERT JUMPDEST PUSH2 0x165 PUSH2 0x160 CALLDATASIZE PUSH1 0x4 PUSH2 0x4498 JUMP JUMPDEST PUSH2 0x3BB JUMP JUMPDEST PUSH1 0x40 MLOAD SWAP1 DUP2 MSTORE PUSH1 0x20 ADD JUMPDEST PUSH1 0x40 MLOAD DUP1 SWAP2 SUB SWAP1 RETURN JUMPDEST PUSH2 0x18B PUSH2 0x186 CALLDATASIZE PUSH1 0x4 PUSH2 0x4498 JUMP JUMPDEST PUSH2 0x41C JUMP JUMPDEST PUSH1 0x40 MLOAD PUSH2 0x16F SWAP2 SWAP1 PUSH2 0x44CB JUMP JUMPDEST PUSH2 0x165 PUSH1 0x6 SLOAD DUP2 JUMP JUMPDEST PUSH2 0x1B4 PUSH2 0x1AF CALLDATASIZE PUSH1 0x4 PUSH2 0x4498 JUMP JUMPDEST PUSH2 0x6E1 JUMP JUMPDEST PUSH1 0x40 MLOAD SWAP1 ISZERO ISZERO DUP2 MSTORE PUSH1 0x20 ADD PUSH2 0x16F JUMP JUMPDEST PUSH2 0x1D7 PUSH2 0x1D2 CALLDATASIZE PUSH1 0x4 PUSH2 0x456C JUMP JUMPDEST PUSH2 0x75D JUMP JUMPDEST STOP JUMPDEST PUSH2 0x1EC PUSH2 0x1E7 CALLDATASIZE PUSH1 0x4 PUSH2 0x45AF JUMP JUMPDEST PUSH2 0xD22 JUMP JUMPDEST PUSH1 0x40 DUP1 MLOAD PUSH1 0x1 PUSH1 0x1 PUSH1 0x60 SHL SUB SWAP6 DUP7 AND DUP2 MSTORE SWAP4 DUP6 AND PUSH1 0x20 DUP6 ADD MSTORE SWAP2 DUP5 AND SWAP2 DUP4 ADD SWAP2 SWAP1 SWAP2 MSTORE SWAP1 SWAP2 AND PUSH1 0x60 DUP3 ADD MSTORE PUSH1 0x80 ADD PUSH2 0x16F JUMP JUMPDEST PUSH2 0x1B4 PUSH2 0x22D CALLDATASIZE PUSH1 0x4 PUSH2 0x4603 JUMP JUMPDEST PUSH2 0xE27 JUMP JUMPDEST PUSH2 0x1D7 PUSH2 0x240 CALLDATASIZE PUSH1 0x4 PUSH2 0x4603 JUMP JUMPDEST PUSH2 0xEDA JUMP JUMPDEST PUSH1 0x1 SLOAD PUSH2 0x258 SWAP1 PUSH1 0x1 PUSH1 0x1 PUSH1 0xA0 SHL SUB AND DUP2 JUMP JUMPDEST PUSH1 0x40 MLOAD PUSH1 0x1 PUSH1 0x1 PUSH1 0xA0 SHL SUB SWAP1 SWAP2 AND DUP2 MSTORE PUSH1 0x20 ADD PUSH2 0x16F JUMP JUMPDEST PUSH2 0x165 PUSH1 0x2 SLOAD DUP2 JUMP JUMPDEST PUSH2 0x28C PUSH2 0x287 CALLDATASIZE PUSH1 0x4 PUSH2 0x4603 JUMP JUMPDEST PUSH2 0x1274 JUMP JUMPDEST PUSH1 0x40 MLOAD PUSH2 0x16F SWAP2 SWAP1 PUSH2 0x4652 JUMP JUMPDEST PUSH2 0x2AC PUSH2 0x2A7 CALLDATASIZE PUSH1 0x4 PUSH2 0x4498 JUMP JUMPDEST PUSH2 0x13CC JUMP JUMPDEST PUSH1 0x40 DUP1 MLOAD PUSH3 0xFFFFFF SWAP6 DUP7 AND DUP2 MSTORE SWAP4 DUP6 AND PUSH1 0x20 DUP6 ADD MSTORE SWAP2 DUP5 AND SWAP2 DUP4 ADD SWAP2 SWAP1 SWAP2 MSTORE SWAP1 SWAP2 AND PUSH1 0x60 DUP3 ADD MSTORE PUSH1 0x80 ADD PUSH2 0x16F JUMP JUMPDEST PUSH2 0x2AC PUSH2 0x2E9 CALLDATASIZE PUSH1 0x4 PUSH2 0x4498 JUMP JUMPDEST PUSH2 0x1455 JUMP JUMPDEST PUSH2 0x301 PUSH2 0x2FC CALLDATASIZE PUSH1 0x4 PUSH2 0x4498 JUMP JUMPDEST PUSH2 0x14E5 JUMP JUMPDEST PUSH1 0x40 MLOAD PUSH2 0x16F SWAP2 SWAP1 PUSH2 0x469B JUMP JUMPDEST PUSH2 0x165 PUSH1 0x3 SLOAD DUP2 JUMP JUMPDEST PUSH2 0x1D7 PUSH2 0x325 CALLDATASIZE PUSH1 0x4 PUSH2 0x4498 JUMP JUMPDEST PUSH2 0x183A JUMP JUMPDEST PUSH2 0x1D7 PUSH2 0x338 CALLDATASIZE PUSH1 0x4 PUSH2 0x456C JUMP JUMPDEST PUSH2 0x1C26 JUMP JUMPDEST PUSH2 0x1EC PUSH2 0x34B CALLDATASIZE PUSH1 0x4 PUSH2 0x4498 JUMP JUMPDEST PUSH2 0x209F JUMP JUMPDEST PUSH2 0x165 PUSH1 0x5 SLOAD DUP2 JUMP JUMPDEST PUSH2 0x36C PUSH2 0x367 CALLDATASIZE PUSH1 0x4 PUSH2 0x4498 JUMP JUMPDEST PUSH2 0x212A JUMP JUMPDEST PUSH1 0x40 MLOAD PUSH2 0x16F SWAP3 SWAP2 SWAP1 PUSH2 0x47D8 JUMP JUMPDEST PUSH2 0x38D PUSH2 0x388 CALLDATASIZE PUSH1 0x4 PUSH2 0x47FD JUMP JUMPDEST PUSH2 0x233D JUMP JUMPDEST PUSH1 0x40 MLOAD PUSH1 0xFF SWAP1 SWAP2 AND DUP2 MSTORE PUSH1 0x20 ADD PUSH2 0x16F JUMP JUMPDEST PUSH2 0x1EC PUSH2 0x3AD CALLDATASIZE PUSH1 0x4 PUSH2 0x4498 JUMP JUMPDEST PUSH2 0x23A5 JUMP JUMPDEST PUSH2 0x165 PUSH1 0x4 SLOAD DUP2 JUMP JUMPDEST PUSH1 0x0 DUP1 PUSH1 0x0 DUP4 PUSH1 0x1 PUSH1 0x1 PUSH1 0xA0 SHL SUB AND DUP6 PUSH1 0x1 PUSH1 0x1 PUSH1 0xA0 SHL SUB AND GT PUSH2 0x3E0 JUMPI DUP5 DUP5 PUSH2 0x3E3 JUMP JUMPDEST DUP4 DUP6 JUMPDEST PUSH1 0x1 PUSH1 0x1 PUSH1 0xA0 SHL SUB SWAP2 DUP3 AND PUSH1 0x0 SWAP1 DUP2 MSTORE PUSH1 0x7 PUSH1 0x20 SWAP1 DUP2 MSTORE PUSH1 0x40 DUP1 DUP4 KECCAK256 SWAP4 SWAP1 SWAP5 AND DUP3 MSTORE SWAP2 SWAP1 SWAP2 MSTORE KECCAK256 PUSH1 0x6 ADD SLOAD PUSH3 0xFFFFFF AND SWAP6 SWAP5 POP POP POP POP POP JUMP JUMPDEST PUSH1 0x60 PUSH1 0x0 DUP1 DUP4 PUSH1 0x1 PUSH1 0x1 PUSH1 0xA0 SHL SUB AND DUP6 PUSH1 0x1 PUSH1 0x1 PUSH1 0xA0 SHL SUB AND GT PUSH2 0x441 JUMPI DUP5 DUP5 PUSH2 0x444 JUMP JUMPDEST DUP4 DUP6 JUMPDEST PUSH1 0x1 PUSH1 0x1 PUSH1 0xA0 SHL SUB DUP1 DUP4 AND PUSH1 0x0 DUP2 DUP2 MSTORE PUSH1 0x7 PUSH1 0x20 SWAP1 DUP2 MSTORE PUSH1 0x40 DUP1 DUP4 KECCAK256 DUP6 DUP8 AND DUP5 MSTORE SWAP1 SWAP2 MSTORE DUP2 KECCAK256 SWAP5 SWAP7 POP SWAP3 SWAP5 POP SWAP1 DUP9 AND EQ PUSH2 0x48E JUMPI PUSH1 0x7 DUP3 ADD SLOAD PUSH4 0x1000000 SWAP1 DIV PUSH3 0xFFFFFF AND PUSH2 0x499 JUMP JUMPDEST PUSH1 0x7 DUP3 ADD SLOAD PUSH3 0xFFFFFF AND JUMPDEST SWAP1 POP PUSH1 0x0 DUP5 PUSH1 0x1 PUSH1 0x1 PUSH1 0xA0 SHL SUB AND DUP9 PUSH1 0x1 PUSH1 0x1 PUSH1 0xA0 SHL SUB AND EQ PUSH2 0x4BF JUMPI DUP3 PUSH1 0x3 ADD PUSH2 0x4C4 JUMP JUMPDEST DUP3 PUSH1 0x2 ADD JUMPDEST SWAP1 POP PUSH1 0x0 DUP6 PUSH1 0x1 PUSH1 0x1 PUSH1 0xA0 SHL SUB AND DUP10 PUSH1 0x1 PUSH1 0x1 PUSH1 0xA0 SHL SUB AND SUB PUSH2 0x4EB JUMPI POP PUSH1 0x11 DUP4 ADD SLOAD PUSH1 0xFF AND JUMPDEST DUP5 PUSH1 0x1 PUSH1 0x1 PUSH1 0xA0 SHL SUB AND DUP10 PUSH1 0x1 PUSH1 0x1 PUSH1 0xA0 SHL SUB AND SUB PUSH2 0x513 JUMPI POP PUSH1 0x11 DUP4 ADD SLOAD PUSH2 0x100 SWAP1 DIV PUSH1 0xFF AND JUMPDEST DUP2 SLOAD PUSH8 0xFFFFFFFFFFFFFFFF DUP2 GT ISZERO PUSH2 0x52D JUMPI PUSH2 0x52D PUSH2 0x4818 JUMP JUMPDEST PUSH1 0x40 MLOAD SWAP1 DUP1 DUP3 MSTORE DUP1 PUSH1 0x20 MUL PUSH1 0x20 ADD DUP3 ADD PUSH1 0x40 MSTORE DUP1 ISZERO PUSH2 0x586 JUMPI DUP2 PUSH1 0x20 ADD JUMPDEST PUSH1 0x40 DUP1 MLOAD PUSH1 0xA0 DUP2 ADD DUP3 MSTORE PUSH1 0x0 DUP1 DUP3 MSTORE PUSH1 0x20 DUP1 DUP4 ADD DUP3 SWAP1 MSTORE SWAP3 DUP3 ADD DUP2 SWAP1 MSTORE PUSH1 0x60 DUP3 ADD DUP2 SWAP1 MSTORE PUSH1 0x80 DUP3 ADD MSTORE DUP3 MSTORE PUSH1 0x0 NOT SWAP1 SWAP3 ADD SWAP2 ADD DUP2 PUSH2 0x54B JUMPI SWAP1 POP JUMPDEST POP SWAP7 POP PUSH1 0x0 JUMPDEST DUP3 SLOAD PUSH3 0xFFFFFF DUP6 AND EQ PUSH2 0x6D2 JUMPI PUSH1 0x0 DUP4 DUP6 PUSH3 0xFFFFFF AND DUP2 SLOAD DUP2 LT PUSH2 0x5B2 JUMPI PUSH2 0x5B2 PUSH2 0x482E JUMP JUMPDEST PUSH1 0x0 SWAP2 DUP3 MSTORE PUSH1 0x20 DUP1 DUP4 KECCAK256 PUSH1 0x40 DUP1 MLOAD PUSH1 0xC0 DUP2 ADD DUP3 MSTORE PUSH1 0x2 SWAP1 SWAP5 MUL SWAP1 SWAP2 ADD DUP1 SLOAD PUSH1 0x1 PUSH1 0x1 PUSH1 0xA0 SHL SUB DUP1 DUP3 AND DUP7 MSTORE PUSH1 0x1 PUSH1 0x1 PUSH1 0x60 SHL SUB PUSH1 0x1 PUSH1 0xA0 SHL SWAP1 SWAP3 DIV DUP3 AND DUP7 DUP7 ADD MSTORE PUSH1 0x1 SWAP1 SWAP3 ADD SLOAD PUSH3 0xFFFFFF DUP1 DUP3 AND DUP8 DUP7 ADD MSTORE PUSH4 0x1000000 DUP3 DIV DUP2 AND PUSH1 0x60 DUP9 ADD MSTORE PUSH1 0x1 PUSH1 0x30 SHL DUP3 DIV DUP2 AND PUSH1 0x80 DUP9 ADD MSTORE PUSH1 0x1 PUSH1 0x48 SHL SWAP1 SWAP2 DIV SWAP1 SWAP2 AND PUSH1 0xA0 DUP1 DUP8 ADD SWAP2 SWAP1 SWAP2 MSTORE DUP4 MLOAD SWAP1 DUP2 ADD DUP5 MSTORE SWAP1 DUP12 AND DUP2 MSTORE DUP5 MLOAD SWAP1 SWAP2 AND SWAP3 DUP2 ADD SWAP3 SWAP1 SWAP3 MSTORE SWAP2 SWAP4 POP SWAP1 DUP2 ADD PUSH2 0x65D DUP7 PUSH1 0xA PUSH2 0x493E JUMP JUMPDEST DUP5 PUSH1 0x20 ADD MLOAD PUSH2 0x66C SWAP2 SWAP1 PUSH2 0x494D JUMP JUMPDEST PUSH1 0x1 PUSH1 0x1 PUSH1 0x60 SHL SUB AND DUP2 MSTORE PUSH1 0x20 ADD DUP4 PUSH1 0x60 ADD MLOAD PUSH3 0xFFFFFF AND DUP2 MSTORE PUSH1 0x20 ADD DUP4 PUSH1 0x80 ADD MLOAD PUSH3 0xFFFFFF AND DUP2 MSTORE POP SWAP1 POP DUP1 DUP11 DUP5 DUP2 MLOAD DUP2 LT PUSH2 0x6AB JUMPI PUSH2 0x6AB PUSH2 0x482E JUMP JUMPDEST PUSH1 0x20 MUL PUSH1 0x20 ADD ADD DUP2 SWAP1 MSTORE POP DUP2 PUSH1 0x60 ADD MLOAD SWAP6 POP DUP3 DUP1 PUSH2 0x6C8 SWAP1 PUSH2 0x4978 JUMP JUMPDEST SWAP4 POP POP POP POP PUSH2 0x58C JUMP JUMPDEST DUP8 MSTORE POP SWAP5 SWAP8 SWAP7 POP POP POP POP POP POP POP JUMP JUMPDEST PUSH1 0x0 DUP1 PUSH1 0x0 DUP4 PUSH1 0x1 PUSH1 0x1 PUSH1 0xA0 SHL SUB AND DUP6 PUSH1 0x1 PUSH1 0x1 PUSH1 0xA0 SHL SUB AND GT PUSH2 0x706 JUMPI DUP5 DUP5 PUSH2 0x709 JUMP JUMPDEST DUP4 DUP6 JUMPDEST PUSH1 0x1 PUSH1 0x1 PUSH1 0xA0 SHL SUB DUP1 DUP4 AND PUSH1 0x0 SWAP1 DUP2 MSTORE PUSH1 0x7 PUSH1 0x20 SWAP1 DUP2 MSTORE PUSH1 0x40 DUP1 DUP4 KECCAK256 SWAP4 DUP6 AND DUP4 MSTORE SWAP3 SWAP1 MSTORE KECCAK256 PUSH1 0x2 SLOAD PUSH1 0x8 DUP3 ADD SLOAD SWAP4 SWAP6 POP SWAP2 SWAP4 POP SWAP2 PUSH2 0x750 SWAP1 PUSH1 0x1 PUSH1 0x1 PUSH1 0x60 SHL SUB AND TIMESTAMP PUSH2 0x4991 JUMP JUMPDEST GT SWAP4 POP POP POP POP JUMPDEST SWAP3 SWAP2 POP POP JUMP JUMPDEST DUP2 PUSH1 0x1 PUSH1 0x1 PUSH1 0xA0 SHL SUB AND DUP4 PUSH1 0x1 PUSH1 0x1 PUSH1 0xA0 SHL SUB AND SUB PUSH2 0x7C3 JUMPI PUSH1 0x40 MLOAD PUSH3 0x461BCD PUSH1 0xE5 SHL DUP2 MSTORE PUSH1 0x20 PUSH1 0x4 DUP3 ADD MSTORE PUSH1 0x1A PUSH1 0x24 DUP3 ADD MSTORE PUSH32 0x4173736574732063616E206E6F74206265207468652073616D65000000000000 PUSH1 0x44 DUP3 ADD MSTORE PUSH1 0x64 ADD JUMPDEST PUSH1 0x40 MLOAD DUP1 SWAP2 SUB SWAP1 REVERT JUMPDEST PUSH1 0x0 PUSH2 0x7CE DUP5 PUSH2 0x233D JUMP JUMPDEST PUSH2 0x7D9 SWAP1 PUSH1 0xA PUSH2 0x493E JUMP JUMPDEST SWAP1 POP PUSH2 0x809 DUP5 CALLER PUSH2 0x2710 PUSH1 0x3 SLOAD DUP7 PUSH1 0x1 PUSH1 0x1 PUSH1 0x60 SHL SUB AND PUSH2 0x7FA SWAP2 SWAP1 PUSH2 0x49A4 JUMP JUMPDEST PUSH2 0x804 SWAP2 SWAP1 PUSH2 0x49D1 JUMP JUMPDEST PUSH2 0x242D JUMP JUMPDEST PUSH2 0x841 JUMPI PUSH1 0x40 MLOAD PUSH3 0x461BCD PUSH1 0xE5 SHL DUP2 MSTORE PUSH1 0x20 PUSH1 0x4 DUP3 ADD MSTORE PUSH1 0x9 PUSH1 0x24 DUP3 ADD MSTORE PUSH9 0x10BA3930B739B332B9 PUSH1 0xB9 SHL PUSH1 0x44 DUP3 ADD MSTORE PUSH1 0x64 ADD PUSH2 0x7BA JUMP JUMPDEST DUP1 PUSH1 0x1 PUSH1 0x1 PUSH1 0x60 SHL SUB AND DUP3 PUSH1 0x1 PUSH1 0x1 PUSH1 0x60 SHL SUB AND LT ISZERO PUSH2 0x88F JUMPI PUSH1 0x40 MLOAD PUSH3 0x461BCD PUSH1 0xE5 SHL DUP2 MSTORE PUSH1 0x20 PUSH1 0x4 DUP3 ADD MSTORE PUSH1 0x9 PUSH1 0x24 DUP3 ADD MSTORE PUSH9 0x10B6B4B727B93232B9 PUSH1 0xB9 SHL PUSH1 0x44 DUP3 ADD MSTORE PUSH1 0x64 ADD PUSH2 0x7BA JUMP JUMPDEST PUSH1 0x0 DUP1 DUP5 PUSH1 0x1 PUSH1 0x1 PUSH1 0xA0 SHL SUB AND DUP7 PUSH1 0x1 PUSH1 0x1 PUSH1 0xA0 SHL SUB AND GT PUSH2 0x8B2 JUMPI DUP6 DUP6 PUSH2 0x8B5 JUMP JUMPDEST DUP5 DUP7 JUMPDEST PUSH1 0x1 PUSH1 0x1 PUSH1 0xA0 SHL SUB DUP1 DUP4 AND PUSH1 0x0 DUP2 DUP2 MSTORE PUSH1 0x7 PUSH1 0x20 SWAP1 DUP2 MSTORE PUSH1 0x40 DUP1 DUP4 KECCAK256 DUP6 DUP8 AND DUP5 MSTORE SWAP1 SWAP2 MSTORE DUP2 KECCAK256 SWAP5 SWAP7 POP SWAP3 SWAP5 POP SWAP1 DUP10 AND EQ PUSH2 0x8F2 JUMPI DUP2 PUSH1 0x5 ADD PUSH2 0x8F7 JUMP JUMPDEST DUP2 PUSH1 0x4 ADD JUMPDEST SWAP1 POP PUSH1 0x0 DUP5 PUSH1 0x1 PUSH1 0x1 PUSH1 0xA0 SHL SUB AND DUP10 PUSH1 0x1 PUSH1 0x1 PUSH1 0xA0 SHL SUB AND EQ PUSH2 0x92A JUMPI PUSH1 0x7 DUP4 ADD SLOAD PUSH1 0x1 PUSH1 0xA8 SHL SWAP1 DIV PUSH3 0xFFFFFF AND PUSH2 0x93C JUMP JUMPDEST PUSH1 0x7 DUP4 ADD SLOAD PUSH1 0x1 PUSH1 0x90 SHL SWAP1 DIV PUSH3 0xFFFFFF AND JUMPDEST SWAP1 POP PUSH1 0x0 PUSH1 0x40 MLOAD DUP1 PUSH1 0xC0 ADD PUSH1 0x40 MSTORE DUP1 CALLER PUSH1 0x1 PUSH1 0x1 PUSH1 0xA0 SHL SUB AND DUP2 MSTORE PUSH1 0x20 ADD DUP9 DUP11 PUSH2 0x966 SWAP2 SWAP1 PUSH2 0x49E5 JUMP JUMPDEST PUSH1 0x1 PUSH1 0x1 PUSH1 0x60 SHL SUB AND DUP2 MSTORE PUSH3 0xFFFFFF DUP5 AND PUSH1 0x20 DUP3 ADD MSTORE DUP5 SLOAD PUSH1 0x40 SWAP1 SWAP2 ADD SWAP1 PUSH2 0x98F SWAP1 PUSH1 0x1 PUSH2 0x4A0B JUMP JUMPDEST PUSH3 0xFFFFFF SWAP1 DUP2 AND DUP3 MSTORE PUSH1 0x1 PUSH1 0x1 PUSH1 0xA0 SHL SUB DUP1 DUP11 AND PUSH1 0x0 DUP2 DUP2 MSTORE PUSH1 0x7 PUSH1 0x20 SWAP1 DUP2 MSTORE PUSH1 0x40 DUP1 DUP4 KECCAK256 DUP14 DUP7 AND DUP5 MSTORE DUP3 MSTORE DUP1 DUP4 KECCAK256 PUSH1 0x6 ADD SLOAD SWAP1 SWAP6 AND SWAP1 DUP7 ADD MSTORE SWAP3 SWAP1 SWAP4 ADD SWAP2 SWAP1 SWAP2 MSTORE SWAP2 SWAP3 POP SWAP1 DUP12 AND SUB PUSH2 0xAC9 JUMPI DUP3 SLOAD PUSH1 0x7 DUP6 ADD DUP1 SLOAD PUSH3 0xFFFFFF SWAP1 SWAP3 AND PUSH1 0x1 PUSH1 0x90 SHL MUL PUSH3 0xFFFFFF PUSH1 0x90 SHL NOT SWAP1 SWAP3 AND SWAP2 SWAP1 SWAP2 OR SWAP1 SSTORE PUSH2 0xA0C DUP8 DUP10 PUSH2 0x49E5 JUMP JUMPDEST PUSH1 0xA DUP6 ADD DUP1 SLOAD PUSH1 0x0 SWAP1 PUSH2 0xA29 SWAP1 DUP5 SWAP1 PUSH1 0x1 PUSH1 0x1 PUSH1 0x60 SHL SUB AND PUSH2 0x4A2E JUMP JUMPDEST DUP3 SLOAD PUSH1 0x1 PUSH1 0x1 PUSH1 0x60 SHL SUB SWAP2 DUP3 AND PUSH2 0x100 SWAP4 SWAP1 SWAP4 EXP SWAP3 DUP4 MUL SWAP2 SWAP1 SWAP3 MUL NOT SWAP1 SWAP2 AND OR SWAP1 SSTORE POP PUSH1 0xC DUP5 ADD DUP1 SLOAD PUSH3 0xFFFFFF PUSH1 0x1 PUSH1 0x30 SHL SWAP1 SWAP2 DIV AND SWAP1 PUSH1 0x6 PUSH2 0xA6B DUP4 PUSH2 0x4A4E JUMP JUMPDEST SWAP2 SWAP1 PUSH2 0x100 EXP DUP2 SLOAD DUP2 PUSH3 0xFFFFFF MUL NOT AND SWAP1 DUP4 PUSH3 0xFFFFFF AND MUL OR SWAP1 SSTORE POP POP PUSH1 0x5 SLOAD DUP5 PUSH1 0xC ADD PUSH1 0x0 ADD PUSH1 0x6 SWAP1 SLOAD SWAP1 PUSH2 0x100 EXP SWAP1 DIV PUSH3 0xFFFFFF AND PUSH3 0xFFFFFF AND LT PUSH2 0xAC4 JUMPI PUSH1 0x40 MLOAD PUSH3 0x461BCD PUSH1 0xE5 SHL DUP2 MSTORE PUSH1 0x4 ADD PUSH2 0x7BA SWAP1 PUSH2 0x4A70 JUMP JUMPDEST PUSH2 0xBB8 JUMP JUMPDEST DUP3 SLOAD PUSH1 0x7 DUP6 ADD DUP1 SLOAD PUSH3 0xFFFFFF SWAP1 SWAP3 AND PUSH1 0x1 PUSH1 0xA8 SHL MUL PUSH3 0xFFFFFF PUSH1 0xA8 SHL NOT SWAP1 SWAP3 AND SWAP2 SWAP1 SWAP2 OR SWAP1 SSTORE PUSH2 0xAF9 DUP8 DUP10 PUSH2 0x49E5 JUMP JUMPDEST PUSH1 0xA DUP6 ADD DUP1 SLOAD PUSH1 0xC SWAP1 PUSH2 0xB1D SWAP1 DUP5 SWAP1 PUSH1 0x1 PUSH1 0x60 SHL SWAP1 DIV PUSH1 0x1 PUSH1 0x1 PUSH1 0x60 SHL SUB AND PUSH2 0x4A2E JUMP JUMPDEST DUP3 SLOAD PUSH1 0x1 PUSH1 0x1 PUSH1 0x60 SHL SUB SWAP2 DUP3 AND PUSH2 0x100 SWAP4 SWAP1 SWAP4 EXP SWAP3 DUP4 MUL SWAP2 SWAP1 SWAP3 MUL NOT SWAP1 SWAP2 AND OR SWAP1 SSTORE POP PUSH1 0xC DUP5 ADD DUP1 SLOAD PUSH3 0xFFFFFF PUSH1 0x1 PUSH1 0x48 SHL SWAP1 SWAP2 DIV AND SWAP1 PUSH1 0x9 PUSH2 0xB5F DUP4 PUSH2 0x4A4E JUMP JUMPDEST SWAP2 SWAP1 PUSH2 0x100 EXP DUP2 SLOAD DUP2 PUSH3 0xFFFFFF MUL NOT AND SWAP1 DUP4 PUSH3 0xFFFFFF AND MUL OR SWAP1 SSTORE POP POP PUSH1 0x5 SLOAD DUP5 PUSH1 0xC ADD PUSH1 0x0 ADD PUSH1 0x9 SWAP1 SLOAD SWAP1 PUSH2 0x100 EXP SWAP1 DIV PUSH3 0xFFFFFF AND PUSH3 0xFFFFFF AND LT PUSH2 0xBB8 JUMPI PUSH1 0x40 MLOAD PUSH3 0x461BCD PUSH1 0xE5 SHL DUP2 MSTORE PUSH1 0x4 ADD PUSH2 0x7BA SWAP1 PUSH2 0x4A70 JUMP JUMPDEST PUSH1 0x11 DUP5 ADD SLOAD PUSH1 0xFF AND PUSH1 0x0 SUB PUSH2 0xBE7 JUMPI PUSH2 0xBD0 DUP7 PUSH2 0x233D JUMP JUMPDEST PUSH1 0x11 DUP6 ADD DUP1 SLOAD PUSH1 0xFF NOT AND PUSH1 0xFF SWAP3 SWAP1 SWAP3 AND SWAP2 SWAP1 SWAP2 OR SWAP1 SSTORE JUMPDEST PUSH1 0x11 DUP5 ADD SLOAD PUSH2 0x100 SWAP1 DIV PUSH1 0xFF AND PUSH1 0x0 SUB PUSH2 0xC21 JUMPI PUSH2 0xC04 DUP6 PUSH2 0x233D JUMP JUMPDEST DUP5 PUSH1 0x11 ADD PUSH1 0x1 PUSH2 0x100 EXP DUP2 SLOAD DUP2 PUSH1 0xFF MUL NOT AND SWAP1 DUP4 PUSH1 0xFF AND MUL OR SWAP1 SSTORE POP JUMPDEST DUP3 SLOAD PUSH1 0x1 DUP2 DUP2 ADD DUP6 SSTORE PUSH1 0x0 DUP6 DUP2 MSTORE PUSH1 0x20 SWAP1 DUP2 SWAP1 KECCAK256 DUP5 MLOAD SWAP2 DUP6 ADD MLOAD PUSH1 0x1 PUSH1 0x1 PUSH1 0x60 SHL SUB SWAP1 DUP2 AND PUSH1 0x1 PUSH1 0xA0 SHL MUL PUSH1 0x1 PUSH1 0x1 PUSH1 0xA0 SHL SUB SWAP1 SWAP4 AND SWAP3 SWAP1 SWAP3 OR PUSH1 0x2 SWAP1 SWAP5 MUL ADD SWAP3 DUP4 SSTORE PUSH1 0x40 DUP1 DUP6 ADD MLOAD SWAP4 DUP4 ADD DUP1 SLOAD PUSH1 0x60 DUP8 ADD MLOAD PUSH1 0x80 DUP9 ADD MLOAD PUSH1 0xA0 DUP10 ADD MLOAD SWAP1 SWAP6 AND PUSH1 0x1 PUSH1 0x48 SHL MUL PUSH1 0x1 PUSH1 0x48 SHL PUSH1 0x1 PUSH1 0xA8 SHL SUB NOT PUSH3 0xFFFFFF SWAP7 DUP8 AND PUSH1 0x1 PUSH1 0x30 SHL MUL AND PUSH1 0x1 PUSH1 0x30 SHL PUSH1 0x1 PUSH1 0xA8 SHL SUB NOT SWAP3 DUP8 AND PUSH4 0x1000000 MUL PUSH6 0xFFFFFFFFFFFF NOT SWAP1 SWAP5 AND SWAP7 SWAP1 SWAP9 AND SWAP6 SWAP1 SWAP6 OR SWAP2 SWAP1 SWAP2 OR AND SWAP5 SWAP1 SWAP5 OR SWAP2 SWAP1 SWAP2 OR SWAP1 SWAP3 SSTORE SWAP1 MLOAD PUSH32 0xDF2066748ACF7C9C7245ADDD0D003C9B501F033B47306EC70401BBC1EFAF0AA6 SWAP2 PUSH2 0xD0E SWAP2 DUP14 SWAP2 DUP14 SWAP2 CALLER SWAP2 DUP15 SWAP2 PUSH2 0x4AB8 JUMP JUMPDEST PUSH1 0x40 MLOAD DUP1 SWAP2 SUB SWAP1 LOG1 POP POP POP POP POP POP POP POP POP POP JUMP JUMPDEST PUSH1 0x0 DUP1 PUSH1 0x0 DUP1 DUP6 PUSH1 0x1 PUSH1 0x1 PUSH1 0x60 SHL SUB AND DUP9 PUSH1 0x1 PUSH1 0x1 PUSH1 0x60 SHL SUB AND GT ISZERO PUSH2 0xDB1 JUMPI PUSH2 0xD4C DUP7 DUP10 PUSH2 0x4AF4 JUMP JUMPDEST SWAP8 POP DUP8 PUSH1 0x1 PUSH1 0x1 PUSH1 0x60 SHL SUB AND DUP6 PUSH1 0x1 PUSH1 0x1 PUSH1 0x60 SHL SUB AND GT PUSH2 0xD76 JUMPI PUSH2 0xD71 DUP6 DUP8 PUSH2 0x4A2E JUMP JUMPDEST PUSH2 0xD80 JUMP JUMPDEST PUSH2 0xD80 DUP9 DUP8 PUSH2 0x4A2E JUMP JUMPDEST SWAP4 POP DUP6 SWAP2 POP PUSH1 0x0 SWAP3 POP DUP8 PUSH1 0x1 PUSH1 0x1 PUSH1 0x60 SHL SUB AND DUP6 PUSH1 0x1 PUSH1 0x1 PUSH1 0x60 SHL SUB AND GT PUSH2 0xDA8 JUMPI DUP5 PUSH2 0xDAA JUMP JUMPDEST DUP8 JUMPDEST SWAP1 POP PUSH2 0xE1C JUMP JUMPDEST PUSH2 0xDBB DUP9 DUP8 PUSH2 0x4AF4 JUMP JUMPDEST SWAP6 POP DUP8 SWAP4 POP DUP6 PUSH1 0x1 PUSH1 0x1 PUSH1 0x60 SHL SUB AND DUP8 PUSH1 0x1 PUSH1 0x1 PUSH1 0x60 SHL SUB AND GT PUSH2 0xDE8 JUMPI PUSH2 0xDE3 DUP8 DUP10 PUSH2 0x4A2E JUMP JUMPDEST PUSH2 0xDF2 JUMP JUMPDEST PUSH2 0xDF2 DUP7 DUP10 PUSH2 0x4A2E JUMP JUMPDEST SWAP2 POP DUP6 PUSH1 0x1 PUSH1 0x1 PUSH1 0x60 SHL SUB AND DUP8 PUSH1 0x1 PUSH1 0x1 PUSH1 0x60 SHL SUB AND GT PUSH2 0xE13 JUMPI DUP7 PUSH2 0xE15 JUMP JUMPDEST DUP6 JUMPDEST SWAP3 POP PUSH1 0x0 SWAP1 POP JUMPDEST SWAP5 POP SWAP5 POP SWAP5 POP SWAP5 SWAP1 POP JUMP JUMPDEST PUSH1 0x0 PUSH1 0x1 PUSH1 0x1 PUSH1 0xA0 SHL SUB DUP1 DUP5 AND SWAP1 DUP6 AND GT DUP2 DUP1 DUP3 PUSH2 0xE46 JUMPI DUP7 DUP7 PUSH2 0xE49 JUMP JUMPDEST DUP6 DUP8 JUMPDEST PUSH1 0x1 PUSH1 0x1 PUSH1 0xA0 SHL SUB DUP1 DUP4 AND PUSH1 0x0 SWAP1 DUP2 MSTORE PUSH1 0x7 PUSH1 0x20 SWAP1 DUP2 MSTORE PUSH1 0x40 DUP1 DUP4 KECCAK256 SWAP4 DUP6 AND DUP4 MSTORE SWAP3 SWAP1 MSTORE KECCAK256 SWAP2 SWAP4 POP SWAP2 POP DUP4 PUSH2 0xEAE JUMPI PUSH3 0xFFFFFF DUP7 AND PUSH1 0x0 SWAP1 DUP2 MSTORE PUSH1 0xD DUP3 ADD PUSH1 0x20 MSTORE PUSH1 0x40 SWAP1 KECCAK256 SLOAD ISZERO PUSH2 0xEA1 JUMPI PUSH1 0x1 SWAP5 POP POP POP POP POP PUSH2 0xED3 JUMP JUMPDEST PUSH1 0x0 SWAP5 POP POP POP POP POP PUSH2 0xED3 JUMP JUMPDEST PUSH3 0xFFFFFF DUP7 AND PUSH1 0x0 SWAP1 DUP2 MSTORE PUSH1 0xF DUP3 ADD PUSH1 0x20 MSTORE PUSH1 0x40 SWAP1 KECCAK256 SLOAD ISZERO PUSH2 0xEA1 JUMPI PUSH1 0x1 SWAP5 POP POP POP POP POP JUMPDEST SWAP4 SWAP3 POP POP POP JUMP JUMPDEST PUSH2 0xEE2 PUSH2 0x24D8 JUMP JUMPDEST PUSH1 0x1 PUSH1 0x1 PUSH1 0xA0 SHL SUB DUP1 DUP4 AND SWAP1 DUP5 AND GT PUSH1 0x0 DUP1 DUP3 PUSH2 0xF00 JUMPI DUP6 DUP6 PUSH2 0xF03 JUMP JUMPDEST DUP5 DUP7 JUMPDEST PUSH1 0x1 PUSH1 0x1 PUSH1 0xA0 SHL SUB DUP1 DUP4 AND PUSH1 0x0 SWAP1 DUP2 MSTORE PUSH1 0x7 PUSH1 0x20 SWAP1 DUP2 MSTORE PUSH1 0x40 DUP1 DUP4 KECCAK256 SWAP4 DUP6 AND DUP4 MSTORE SWAP3 SWAP1 MSTORE SWAP1 DUP2 KECCAK256 PUSH1 0x6 DUP2 ADD SLOAD SWAP4 SWAP6 POP SWAP2 SWAP4 POP SWAP1 SWAP2 PUSH3 0xFFFFFF AND SWAP1 DUP6 PUSH2 0xFFD JUMPI POP PUSH1 0x4 DUP3 ADD PUSH1 0xD DUP4 ADD PUSH1 0x0 PUSH2 0xF58 DUP5 PUSH1 0x1 PUSH2 0x4A0B JUMP JUMPDEST PUSH3 0xFFFFFF SWAP1 DUP2 AND DUP3 MSTORE PUSH1 0x20 DUP1 DUP4 ADD SWAP4 SWAP1 SWAP4 MSTORE PUSH1 0x40 SWAP2 DUP3 ADD PUSH1 0x0 SWAP1 DUP2 KECCAK256 DUP1 SLOAD PUSH1 0x1 DUP2 ADD DUP3 SSTORE SWAP1 DUP3 MSTORE DUP5 DUP3 KECCAK256 PUSH1 0xA DUP1 DUP4 DIV SWAP1 SWAP2 ADD DUP1 SLOAD SWAP2 SWAP1 SWAP3 MOD PUSH1 0x3 MUL PUSH2 0x100 EXP DUP1 DUP6 MUL NOT SWAP1 SWAP2 AND SWAP4 DUP14 AND SWAP1 DUP2 MUL SWAP4 SWAP1 SWAP4 OR SWAP1 SSTORE SWAP1 DUP2 MSTORE PUSH1 0xE DUP7 ADD SWAP1 SWAP3 MSTORE SWAP1 KECCAK256 SLOAD PUSH1 0xFF AND ISZERO PUSH2 0xFD7 JUMPI PUSH1 0x40 MLOAD PUSH3 0x461BCD PUSH1 0xE5 SHL DUP2 MSTORE PUSH1 0x4 ADD PUSH2 0x7BA SWAP1 PUSH2 0x4B14 JUMP JUMPDEST PUSH3 0xFFFFFF DUP8 AND PUSH1 0x0 SWAP1 DUP2 MSTORE PUSH1 0xE DUP5 ADD PUSH1 0x20 MSTORE PUSH1 0x40 SWAP1 KECCAK256 DUP1 SLOAD PUSH1 0xFF NOT AND PUSH1 0x1 OR SWAP1 SSTORE PUSH2 0x10B4 JUMP JUMPDEST POP PUSH1 0x5 DUP3 ADD PUSH1 0xF DUP4 ADD PUSH1 0x0 PUSH2 0x1013 DUP5 PUSH1 0x1 PUSH2 0x4A0B JUMP JUMPDEST PUSH3 0xFFFFFF SWAP1 DUP2 AND DUP3 MSTORE PUSH1 0x20 DUP1 DUP4 ADD SWAP4 SWAP1 SWAP4 MSTORE PUSH1 0x40 SWAP2 DUP3 ADD PUSH1 0x0 SWAP1 DUP2 KECCAK256 DUP1 SLOAD PUSH1 0x1 DUP2 ADD DUP3 SSTORE SWAP1 DUP3 MSTORE DUP5 DUP3 KECCAK256 PUSH1 0xA DUP1 DUP4 DIV SWAP1 SWAP2 ADD DUP1 SLOAD SWAP2 SWAP1 SWAP3 MOD PUSH1 0x3 MUL PUSH2 0x100 EXP DUP1 DUP6 MUL NOT SWAP1 SWAP2 AND SWAP4 DUP14 AND SWAP1 DUP2 MUL SWAP4 SWAP1 SWAP4 OR SWAP1 SSTORE SWAP1 DUP2 MSTORE PUSH1 0x10 DUP7 ADD SWAP1 SWAP3 MSTORE SWAP1 KECCAK256 SLOAD PUSH1 0xFF AND ISZERO PUSH2 0x1092 JUMPI PUSH1 0x40 MLOAD PUSH3 0x461BCD PUSH1 0xE5 SHL DUP2 MSTORE PUSH1 0x4 ADD PUSH2 0x7BA SWAP1 PUSH2 0x4B14 JUMP JUMPDEST PUSH3 0xFFFFFF DUP8 AND PUSH1 0x0 SWAP1 DUP2 MSTORE PUSH1 0x10 DUP5 ADD PUSH1 0x20 MSTORE PUSH1 0x40 SWAP1 KECCAK256 DUP1 SLOAD PUSH1 0xFF NOT AND PUSH1 0x1 OR SWAP1 SSTORE JUMPDEST DUP1 DUP8 PUSH3 0xFFFFFF AND DUP2 SLOAD DUP2 LT PUSH2 0x10CB JUMPI PUSH2 0x10CB PUSH2 0x482E JUMP JUMPDEST PUSH1 0x0 SWAP2 DUP3 MSTORE PUSH1 0x20 DUP3 KECCAK256 PUSH1 0x2 SWAP1 SWAP2 MUL ADD SLOAD PUSH1 0x1 PUSH1 0x1 PUSH1 0x60 SHL SUB PUSH1 0x1 PUSH1 0xA0 SHL SWAP1 SWAP2 DIV AND SWAP1 SUB PUSH2 0x1173 JUMPI PUSH1 0x40 MLOAD PUSH3 0x461BCD PUSH1 0xE5 SHL DUP2 MSTORE PUSH1 0x20 PUSH1 0x4 DUP3 ADD MSTORE PUSH1 0x4A PUSH1 0x24 DUP3 ADD MSTORE PUSH32 0x496E76616C69642063616E63656C6174696F6E2E204F72646572206861732061 PUSH1 0x44 DUP3 ADD MSTORE PUSH32 0x6C7265616479206265656E2072656D6F7665642066726F6D2074686520616374 PUSH1 0x64 DUP3 ADD MSTORE PUSH10 0x697665204D616B657273 PUSH1 0xB0 SHL PUSH1 0x84 DUP3 ADD MSTORE PUSH1 0xA4 ADD PUSH2 0x7BA JUMP JUMPDEST DUP1 DUP8 PUSH3 0xFFFFFF AND DUP2 SLOAD DUP2 LT PUSH2 0x118A JUMPI PUSH2 0x118A PUSH2 0x482E JUMP JUMPDEST PUSH1 0x0 SWAP2 DUP3 MSTORE PUSH1 0x20 SWAP1 SWAP2 KECCAK256 PUSH1 0x2 SWAP1 SWAP2 MUL ADD SLOAD PUSH1 0x1 PUSH1 0x1 PUSH1 0xA0 SHL SUB AND CALLER EQ PUSH2 0x1211 JUMPI PUSH1 0x40 MLOAD PUSH3 0x461BCD PUSH1 0xE5 SHL DUP2 MSTORE PUSH1 0x20 PUSH1 0x4 DUP3 ADD MSTORE PUSH1 0x36 PUSH1 0x24 DUP3 ADD MSTORE PUSH32 0x4F6E6C79207468652077616C6C6574207468617420706C616365642074686973 PUSH1 0x44 DUP3 ADD MSTORE PUSH22 0x81BDC99195C8818D85B881DDA5D1A191C985DC81A5D PUSH1 0x52 SHL PUSH1 0x64 DUP3 ADD MSTORE PUSH1 0x84 ADD PUSH2 0x7BA JUMP JUMPDEST PUSH1 0x40 DUP1 MLOAD PUSH1 0x1 PUSH1 0x1 PUSH1 0xA0 SHL SUB DUP12 DUP2 AND DUP3 MSTORE DUP11 AND PUSH1 0x20 DUP3 ADD MSTORE PUSH3 0xFFFFFF DUP10 AND DUP2 DUP4 ADD MSTORE SWAP1 MLOAD PUSH32 0xDC7DE9C05FE619DBE535EA93F115DF58DD7D0ADCB1FC10B8289E7CED1A71358F SWAP2 DUP2 SWAP1 SUB PUSH1 0x60 ADD SWAP1 LOG1 POP POP POP POP POP POP PUSH2 0x126F PUSH1 0x1 PUSH1 0x0 SSTORE JUMP JUMPDEST POP POP POP JUMP JUMPDEST PUSH1 0x60 PUSH1 0x1 PUSH1 0x1 PUSH1 0xA0 SHL SUB DUP1 DUP5 AND SWAP1 DUP6 AND GT PUSH1 0x0 DUP1 DUP3 PUSH2 0x1294 JUMPI DUP7 DUP7 PUSH2 0x1297 JUMP JUMPDEST DUP6 DUP8 JUMPDEST PUSH1 0x1 PUSH1 0x1 PUSH1 0xA0 SHL SUB DUP1 DUP4 AND PUSH1 0x0 SWAP1 DUP2 MSTORE PUSH1 0x7 PUSH1 0x20 SWAP1 DUP2 MSTORE PUSH1 0x40 DUP1 DUP4 KECCAK256 SWAP4 DUP6 AND DUP4 MSTORE SWAP3 SWAP1 MSTORE KECCAK256 SWAP2 SWAP4 POP SWAP2 POP DUP4 PUSH2 0x135C JUMPI PUSH3 0xFFFFFF DUP7 AND PUSH1 0x0 SWAP1 DUP2 MSTORE PUSH1 0xD DUP3 ADD PUSH1 0x20 SWAP1 DUP2 MSTORE PUSH1 0x40 SWAP2 DUP3 SWAP1 KECCAK256 DUP1 SLOAD DUP4 MLOAD DUP2 DUP5 MUL DUP2 ADD DUP5 ADD SWAP1 SWAP5 MSTORE DUP1 DUP5 MSTORE SWAP1 SWAP2 DUP4 ADD DUP3 DUP3 DUP1 ISZERO PUSH2 0x134C JUMPI PUSH1 0x20 MUL DUP3 ADD SWAP2 SWAP1 PUSH1 0x0 MSTORE PUSH1 0x20 PUSH1 0x0 KECCAK256 SWAP1 PUSH1 0x0 SWAP1 JUMPDEST DUP3 DUP3 SWAP1 SLOAD SWAP1 PUSH2 0x100 EXP SWAP1 DIV PUSH3 0xFFFFFF AND PUSH3 0xFFFFFF AND DUP2 MSTORE PUSH1 0x20 ADD SWAP1 PUSH1 0x3 ADD SWAP1 PUSH1 0x20 DUP3 PUSH1 0x2 ADD DIV SWAP3 DUP4 ADD SWAP3 PUSH1 0x1 SUB DUP3 MUL SWAP2 POP DUP1 DUP5 GT PUSH2 0x1311 JUMPI SWAP1 POP JUMPDEST POP POP POP POP POP SWAP5 POP POP POP POP POP PUSH2 0xED3 JUMP JUMPDEST PUSH3 0xFFFFFF DUP7 AND PUSH1 0x0 SWAP1 DUP2 MSTORE PUSH1 0xF DUP3 ADD PUSH1 0x20 SWAP1 DUP2 MSTORE PUSH1 0x40 SWAP2 DUP3 SWAP1 KECCAK256 DUP1 SLOAD DUP4 MLOAD DUP2 DUP5 MUL DUP2 ADD DUP5 ADD SWAP1 SWAP5 MSTORE DUP1 DUP5 MSTORE SWAP1 SWAP2 DUP4 ADD DUP3 DUP3 DUP1 ISZERO PUSH2 0x134C JUMPI PUSH1 0x0 SWAP2 DUP3 MSTORE PUSH1 0x20 SWAP2 DUP3 SWAP1 KECCAK256 DUP1 SLOAD PUSH3 0xFFFFFF AND DUP5 MSTORE SWAP1 DUP3 MUL DUP4 ADD SWAP3 SWAP1 SWAP2 PUSH1 0x3 SWAP2 ADD DUP1 DUP5 GT PUSH2 0x1311 JUMPI SWAP1 POP POP POP POP POP POP SWAP5 POP POP POP POP POP PUSH2 0xED3 JUMP JUMPDEST PUSH1 0x0 DUP1 PUSH1 0x0 DUP1 PUSH1 0x0 DUP1 DUP7 PUSH1 0x1 PUSH1 0x1 PUSH1 0xA0 SHL SUB AND DUP9 PUSH1 0x1 PUSH1 0x1 PUSH1 0xA0 SHL SUB AND GT PUSH2 0x13F5 JUMPI DUP8 DUP8 PUSH2 0x13F8 JUMP JUMPDEST DUP7 DUP9 JUMPDEST PUSH1 0x1 PUSH1 0x1 PUSH1 0xA0 SHL SUB SWAP2 DUP3 AND PUSH1 0x0 SWAP1 DUP2 MSTORE PUSH1 0x7 PUSH1 0x20 DUP2 DUP2 MSTORE PUSH1 0x40 DUP1 DUP5 KECCAK256 SWAP5 SWAP1 SWAP6 AND DUP4 MSTORE SWAP3 SWAP1 SWAP3 MSTORE SWAP2 SWAP1 SWAP2 KECCAK256 ADD SLOAD PUSH3 0xFFFFFF DUP1 DUP3 AND SWAP11 PUSH1 0x1 PUSH1 0x60 SHL DUP4 DIV DUP3 AND SWAP11 POP PUSH4 0x1000000 DUP4 DIV DUP3 AND SWAP10 POP PUSH1 0x1 PUSH1 0x78 SHL SWAP1 SWAP3 DIV AND SWAP7 POP SWAP5 POP POP POP POP POP JUMP JUMPDEST PUSH1 0x0 DUP1 PUSH1 0x0 DUP1 PUSH1 0x0 DUP1 DUP7 PUSH1 0x1 PUSH1 0x1 PUSH1 0xA0 SHL SUB AND DUP9 PUSH1 0x1 PUSH1 0x1 PUSH1 0xA0 SHL SUB AND GT PUSH2 0x147E JUMPI DUP8 DUP8 PUSH2 0x1481 JUMP JUMPDEST DUP7 DUP9 JUMPDEST PUSH1 0x1 PUSH1 0x1 PUSH1 0xA0 SHL SUB SWAP2 DUP3 AND PUSH1 0x0 SWAP1 DUP2 MSTORE PUSH1 0x7 PUSH1 0x20 DUP2 DUP2 MSTORE PUSH1 0x40 DUP1 DUP5 KECCAK256 SWAP6 SWAP1 SWAP5 AND DUP4 MSTORE SWAP4 SWAP1 SWAP4 MSTORE KECCAK256 ADD SLOAD PUSH3 0xFFFFFF PUSH1 0x1 PUSH1 0x30 SHL DUP3 DIV DUP2 AND SWAP8 POP PUSH1 0x1 PUSH1 0x90 SHL DUP3 DIV DUP2 AND SWAP7 POP PUSH1 0x1 PUSH1 0x48 SHL DUP3 DIV DUP2 AND SWAP6 POP PUSH1 0x1 PUSH1 0xA8 SHL SWAP1 SWAP2 DIV AND SWAP3 POP POP POP SWAP3 SWAP6 SWAP2 SWAP5 POP SWAP3 POP JUMP JUMPDEST PUSH1 0x60 PUSH1 0x0 DUP1 DUP4 PUSH1 0x1 PUSH1 0x1 PUSH1 0xA0 SHL SUB AND DUP6 PUSH1 0x1 PUSH1 0x1 PUSH1 0xA0 SHL SUB AND GT PUSH2 0x150A JUMPI DUP5 DUP5 PUSH2 0x150D JUMP JUMPDEST DUP4 DUP6 JUMPDEST PUSH1 0x1 PUSH1 0x1 PUSH1 0xA0 SHL SUB DUP1 DUP4 AND PUSH1 0x0 DUP2 DUP2 MSTORE PUSH1 0x7 PUSH1 0x20 SWAP1 DUP2 MSTORE PUSH1 0x40 DUP1 DUP4 KECCAK256 DUP6 DUP8 AND DUP5 MSTORE SWAP1 SWAP2 MSTORE DUP2 KECCAK256 SWAP5 SWAP7 POP SWAP3 SWAP5 POP SWAP1 DUP9 AND EQ PUSH2 0x1557 JUMPI PUSH1 0x7 DUP3 ADD SLOAD PUSH1 0x1 PUSH1 0x48 SHL SWAP1 DIV PUSH3 0xFFFFFF AND PUSH2 0x1569 JUMP JUMPDEST PUSH1 0x7 DUP3 ADD SLOAD PUSH1 0x1 PUSH1 0x30 SHL SWAP1 DIV PUSH3 0xFFFFFF AND JUMPDEST SWAP1 POP PUSH1 0x0 DUP5 PUSH1 0x1 PUSH1 0x1 PUSH1 0xA0 SHL SUB AND DUP9 PUSH1 0x1 PUSH1 0x1 PUSH1 0xA0 SHL SUB AND EQ PUSH2 0x159C JUMPI PUSH1 0x7 DUP4 ADD SLOAD PUSH1 0x1 PUSH1 0xA8 SHL SWAP1 DIV PUSH3 0xFFFFFF AND PUSH2 0x15AE JUMP JUMPDEST PUSH1 0x7 DUP4 ADD SLOAD PUSH1 0x1 PUSH1 0x90 SHL SWAP1 DIV PUSH3 0xFFFFFF AND JUMPDEST SWAP1 POP PUSH1 0x0 DUP6 PUSH1 0x1 PUSH1 0x1 PUSH1 0xA0 SHL SUB AND DUP10 PUSH1 0x1 PUSH1 0x1 PUSH1 0xA0 SHL SUB AND EQ PUSH2 0x15D4 JUMPI DUP4 PUSH1 0x5 ADD PUSH2 0x15D9 JUMP JUMPDEST DUP4 PUSH1 0x4 ADD JUMPDEST DUP1 SLOAD SWAP1 SWAP2 POP PUSH8 0xFFFFFFFFFFFFFFFF DUP2 GT ISZERO PUSH2 0x15F6 JUMPI PUSH2 0x15F6 PUSH2 0x4818 JUMP JUMPDEST PUSH1 0x40 MLOAD SWAP1 DUP1 DUP3 MSTORE DUP1 PUSH1 0x20 MUL PUSH1 0x20 ADD DUP3 ADD PUSH1 0x40 MSTORE DUP1 ISZERO PUSH2 0x165D JUMPI DUP2 PUSH1 0x20 ADD JUMPDEST PUSH1 0x40 DUP1 MLOAD PUSH1 0xE0 DUP2 ADD DUP3 MSTORE PUSH1 0x0 DUP1 DUP3 MSTORE PUSH1 0x20 DUP1 DUP4 ADD DUP3 SWAP1 MSTORE SWAP3 DUP3 ADD DUP2 SWAP1 MSTORE PUSH1 0x60 DUP3 ADD DUP2 SWAP1 MSTORE PUSH1 0x80 DUP3 ADD DUP2 SWAP1 MSTORE PUSH1 0xA0 DUP3 ADD DUP2 SWAP1 MSTORE PUSH1 0xC0 DUP3 ADD MSTORE DUP3 MSTORE PUSH1 0x0 NOT SWAP1 SWAP3 ADD SWAP2 ADD DUP2 PUSH2 0x1614 JUMPI SWAP1 POP JUMPDEST POP SWAP7 POP PUSH1 0x0 DUP1 DUP8 PUSH1 0x1 PUSH1 0x1 PUSH1 0xA0 SHL SUB AND DUP12 PUSH1 0x1 PUSH1 0x1 PUSH1 0xA0 SHL SUB AND SUB PUSH2 0x1686 JUMPI POP PUSH1 0x11 DUP6 ADD SLOAD PUSH1 0xFF AND JUMPDEST DUP7 PUSH1 0x1 PUSH1 0x1 PUSH1 0xA0 SHL SUB AND DUP12 PUSH1 0x1 PUSH1 0x1 PUSH1 0xA0 SHL SUB AND SUB PUSH2 0x16AE JUMPI POP PUSH1 0x11 DUP6 ADD SLOAD PUSH2 0x100 SWAP1 DIV PUSH1 0xFF AND JUMPDEST DUP4 PUSH3 0xFFFFFF AND DUP6 PUSH3 0xFFFFFF AND GT ISZERO DUP1 ISZERO PUSH2 0x16CD JUMPI POP DUP3 SLOAD PUSH3 0xFFFFFF DUP7 AND LT JUMPDEST ISZERO PUSH2 0x182A JUMPI PUSH1 0x0 DUP4 DUP7 PUSH3 0xFFFFFF AND DUP2 SLOAD DUP2 LT PUSH2 0x16EB JUMPI PUSH2 0x16EB PUSH2 0x482E JUMP JUMPDEST PUSH1 0x0 SWAP2 DUP3 MSTORE PUSH1 0x20 DUP1 DUP4 KECCAK256 PUSH1 0x40 DUP1 MLOAD PUSH1 0xC0 DUP2 ADD DUP3 MSTORE PUSH1 0x2 SWAP1 SWAP5 MUL SWAP1 SWAP2 ADD DUP1 SLOAD PUSH1 0x1 PUSH1 0x1 PUSH1 0xA0 SHL SUB DUP1 DUP3 AND DUP7 MSTORE PUSH1 0x1 PUSH1 0x1 PUSH1 0x60 SHL SUB PUSH1 0x1 PUSH1 0xA0 SHL SWAP1 SWAP3 DIV DUP3 AND DUP7 DUP7 ADD MSTORE PUSH1 0x1 SWAP1 SWAP3 ADD SLOAD PUSH3 0xFFFFFF DUP1 DUP3 AND DUP8 DUP7 ADD MSTORE PUSH4 0x1000000 DUP3 DIV DUP2 AND PUSH1 0x60 DUP9 ADD MSTORE PUSH1 0x1 PUSH1 0x30 SHL DUP3 DIV DUP2 AND PUSH1 0x80 DUP9 ADD MSTORE PUSH1 0x1 PUSH1 0x48 SHL SWAP1 SWAP2 DIV SWAP1 SWAP2 AND PUSH1 0xA0 DUP7 ADD MSTORE DUP3 MLOAD PUSH1 0xE0 DUP2 ADD DUP5 MSTORE SWAP1 DUP13 AND DUP2 MSTORE DUP5 MLOAD SWAP1 SWAP2 AND SWAP3 DUP2 ADD SWAP3 SWAP1 SWAP3 MSTORE SWAP2 SWAP4 POP SWAP1 DUP2 ADD PUSH2 0x1793 DUP6 PUSH1 0xA PUSH2 0x493E JUMP JUMPDEST DUP5 PUSH1 0x20 ADD MLOAD PUSH2 0x17A2 SWAP2 SWAP1 PUSH2 0x494D JUMP JUMPDEST PUSH1 0x1 PUSH1 0x1 PUSH1 0x60 SHL SUB AND DUP2 MSTORE PUSH1 0x20 ADD DUP4 PUSH1 0x40 ADD MLOAD PUSH3 0xFFFFFF AND DUP2 MSTORE PUSH1 0x20 ADD DUP4 PUSH1 0x60 ADD MLOAD PUSH3 0xFFFFFF AND DUP2 MSTORE PUSH1 0x20 ADD DUP4 PUSH1 0xA0 ADD MLOAD PUSH1 0x1 PUSH1 0x1 PUSH1 0x60 SHL SUB AND DUP2 MSTORE PUSH1 0x20 ADD DUP4 PUSH1 0x80 ADD MLOAD PUSH3 0xFFFFFF AND DUP2 MSTORE POP SWAP1 POP DUP1 DUP12 DUP6 DUP2 MLOAD DUP2 LT PUSH2 0x1803 JUMPI PUSH2 0x1803 PUSH2 0x482E JUMP JUMPDEST PUSH1 0x20 MUL PUSH1 0x20 ADD ADD DUP2 SWAP1 MSTORE POP DUP2 PUSH1 0x60 ADD MLOAD SWAP7 POP DUP4 DUP1 PUSH2 0x1820 SWAP1 PUSH2 0x4978 JUMP JUMPDEST SWAP5 POP POP POP POP PUSH2 0x16AE JUMP JUMPDEST POP DUP8 MSTORE POP SWAP5 SWAP8 SWAP7 POP POP POP POP POP POP POP JUMP JUMPDEST PUSH2 0x1842 PUSH2 0x24D8 JUMP JUMPDEST PUSH1 0x0 DUP1 PUSH1 0x0 DUP1 PUSH1 0x0 DUP6 PUSH1 0x1 PUSH1 0x1 PUSH1 0xA0 SHL SUB AND DUP8 PUSH1 0x1 PUSH1 0x1 PUSH1 0xA0 SHL SUB AND GT PUSH2 0x186A JUMPI DUP7 DUP7 PUSH2 0x186D JUMP JUMPDEST DUP6 DUP8 JUMPDEST PUSH1 0x1 PUSH1 0x1 PUSH1 0xA0 SHL SUB DUP1 DUP4 AND PUSH1 0x0 SWAP1 DUP2 MSTORE PUSH1 0x7 PUSH1 0x20 SWAP1 DUP2 MSTORE PUSH1 0x40 DUP1 DUP4 KECCAK256 SWAP4 DUP6 AND DUP4 MSTORE SWAP3 SWAP1 MSTORE KECCAK256 PUSH1 0x2 SLOAD PUSH1 0x8 DUP3 ADD SLOAD SWAP4 SWAP6 POP SWAP2 SWAP4 POP SWAP2 PUSH2 0x18B4 SWAP1 PUSH1 0x1 PUSH1 0x1 PUSH1 0x60 SHL SUB AND TIMESTAMP PUSH2 0x4991 JUMP JUMPDEST GT PUSH2 0x191C JUMPI PUSH1 0x40 MLOAD PUSH3 0x461BCD PUSH1 0xE5 SHL DUP2 MSTORE PUSH1 0x20 PUSH1 0x4 DUP3 ADD MSTORE PUSH1 0x32 PUSH1 0x24 DUP3 ADD MSTORE PUSH32 0x796F75206D7573742077616974206D6F72652074696D65206265666F72652063 PUSH1 0x44 DUP3 ADD MSTORE PUSH18 0x185B1B1A5B99C81D1A1A5CC81B595D1A1BD9 PUSH1 0x72 SHL PUSH1 0x64 DUP3 ADD MSTORE PUSH1 0x84 ADD PUSH2 0x7BA JUMP JUMPDEST PUSH1 0x9 DUP2 ADD SLOAD PUSH1 0xB DUP3 ADD SLOAD PUSH1 0x0 SWAP2 DUP3 SWAP2 DUP3 SWAP2 DUP3 SWAP2 PUSH2 0x1957 SWAP2 PUSH1 0x1 PUSH1 0x1 PUSH1 0x60 SHL SUB DUP1 DUP3 AND SWAP3 DUP1 DUP3 AND SWAP3 PUSH1 0x1 PUSH1 0x60 SHL SWAP1 DUP2 SWAP1 DIV DUP4 AND SWAP3 SWAP2 DIV AND PUSH2 0xD22 JUMP JUMPDEST SWAP4 POP SWAP4 POP SWAP4 POP SWAP4 POP DUP3 PUSH1 0x1 PUSH1 0x1 PUSH1 0x60 SHL SUB AND PUSH1 0x0 EQ DUP1 PUSH2 0x197E JUMPI POP PUSH1 0x1 PUSH1 0x1 PUSH1 0x60 SHL SUB DUP2 AND ISZERO JUMPDEST PUSH2 0x19CA JUMPI PUSH1 0x40 MLOAD PUSH3 0x461BCD PUSH1 0xE5 SHL DUP2 MSTORE PUSH1 0x20 PUSH1 0x4 DUP3 ADD MSTORE PUSH1 0x18 PUSH1 0x24 DUP3 ADD MSTORE PUSH32 0x43616E206E6F7420626F7468206265206E6F6E2D7A65726F0000000000000000 PUSH1 0x44 DUP3 ADD MSTORE PUSH1 0x64 ADD PUSH2 0x7BA JUMP JUMPDEST PUSH2 0x19D4 DUP13 DUP13 PUSH2 0x2502 JUMP JUMPDEST PUSH1 0x1 PUSH1 0x1 PUSH1 0x60 SHL SUB DUP4 AND ISZERO PUSH2 0x1A41 JUMPI PUSH1 0x11 DUP6 ADD SLOAD PUSH2 0x1A03 SWAP1 DUP5 SWAP1 DUP10 SWAP1 DUP10 SWAP1 PUSH1 0xFF DUP1 DUP3 AND SWAP2 PUSH2 0x100 SWAP1 DIV AND PUSH2 0x2915 JUMP JUMPDEST SWAP10 POP PUSH2 0x1A0F DUP11 DUP4 PUSH2 0x4AF4 JUMP JUMPDEST SWAP2 POP PUSH2 0x1A1D DUP5 DUP4 DUP10 DUP10 PUSH2 0x2EAC JUMP JUMPDEST SWAP1 SWAP10 POP SWAP8 POP PUSH1 0x1 PUSH1 0x1 PUSH1 0x60 SHL SUB DUP11 AND ISZERO PUSH2 0x1A3C JUMPI PUSH2 0x1A3C DUP11 DUP8 DUP10 PUSH2 0x3319 JUMP JUMPDEST PUSH2 0x1AB7 JUMP JUMPDEST PUSH1 0x1 PUSH1 0x1 PUSH1 0x60 SHL SUB DUP2 AND ISZERO PUSH2 0x1AA8 JUMPI PUSH1 0x11 DUP6 ADD SLOAD PUSH2 0x1A6F SWAP1 DUP3 SWAP1 DUP9 SWAP1 DUP11 SWAP1 PUSH1 0xFF PUSH2 0x100 DUP3 DIV DUP2 AND SWAP2 AND PUSH2 0x2915 JUMP JUMPDEST SWAP10 POP PUSH2 0x1A7B DUP11 DUP6 PUSH2 0x4AF4 JUMP JUMPDEST SWAP4 POP PUSH2 0x1A89 DUP5 DUP4 DUP9 DUP11 PUSH2 0x2EAC JUMP JUMPDEST SWAP1 SWAP10 POP SWAP8 POP PUSH1 0x1 PUSH1 0x1 PUSH1 0x60 SHL SUB DUP11 AND ISZERO PUSH2 0x1A3C JUMPI PUSH2 0x1A3C DUP11 DUP9 DUP9 PUSH2 0x3319 JUMP JUMPDEST PUSH2 0x1AB4 DUP5 DUP4 DUP9 DUP11 PUSH2 0x2EAC JUMP JUMPDEST POP POP JUMPDEST PUSH1 0x0 DUP1 PUSH2 0x1AC4 DUP15 DUP15 PUSH2 0x39E3 JUMP JUMPDEST PUSH1 0x9 DUP10 ADD DUP1 SLOAD PUSH1 0x1 PUSH1 0x1 PUSH1 0x60 SHL SUB DUP1 DUP5 AND PUSH1 0x1 PUSH1 0x60 SHL SWAP1 DUP2 MUL PUSH1 0x1 PUSH1 0x1 PUSH1 0xC0 SHL SUB NOT SWAP4 DUP5 AND DUP4 DUP9 AND OR OR SWAP1 SWAP4 SSTORE PUSH1 0xA DUP13 ADD SLOAD PUSH1 0xB DUP14 ADD DUP1 SLOAD DUP6 DUP4 DIV DUP5 AND SWAP1 SWAP6 MUL SWAP5 SWAP1 SWAP4 AND SWAP2 AND OR SWAP2 SWAP1 SWAP2 OR SWAP1 SSTORE PUSH1 0xC DUP10 ADD DUP1 SLOAD SWAP3 SWAP5 POP SWAP1 SWAP3 POP DUP13 SWAP2 PUSH1 0x0 SWAP1 PUSH2 0x1B32 SWAP1 DUP5 SWAP1 PUSH3 0xFFFFFF AND PUSH2 0x4B67 JUMP JUMPDEST SWAP3 POP PUSH2 0x100 EXP DUP2 SLOAD DUP2 PUSH3 0xFFFFFF MUL NOT AND SWAP1 DUP4 PUSH3 0xFFFFFF AND MUL OR SWAP1 SSTORE POP DUP10 DUP8 PUSH1 0xC ADD PUSH1 0x0 ADD PUSH1 0x3 DUP3 DUP3 DUP3 SWAP1 SLOAD SWAP1 PUSH2 0x100 EXP SWAP1 DIV PUSH3 0xFFFFFF AND PUSH2 0x1B73 SWAP2 SWAP1 PUSH2 0x4B67 JUMP JUMPDEST DUP3 SLOAD PUSH2 0x100 SWAP3 SWAP1 SWAP3 EXP PUSH3 0xFFFFFF DUP2 DUP2 MUL NOT SWAP1 SWAP4 AND SWAP2 DUP4 AND MUL OR SWAP1 SWAP2 SSTORE PUSH1 0x6 DUP10 ADD SLOAD PUSH1 0x40 MLOAD SWAP2 AND DUP2 MSTORE PUSH1 0x1 PUSH1 0x1 PUSH1 0xA0 SHL SUB DUP11 DUP2 AND SWAP3 POP DUP12 AND SWAP1 PUSH32 0x7B5E572D4197E10E590B08B790C705A488C2A9AA7591726B55DE089D1F66159F SWAP1 PUSH1 0x20 ADD PUSH1 0x40 MLOAD DUP1 SWAP2 SUB SWAP1 LOG3 PUSH1 0x6 DUP8 ADD DUP1 SLOAD PUSH3 0xFFFFFF AND SWAP1 PUSH1 0x0 PUSH2 0x1BEF DUP4 PUSH2 0x4A4E JUMP JUMPDEST SWAP2 SWAP1 PUSH2 0x100 EXP DUP2 SLOAD DUP2 PUSH3 0xFFFFFF MUL NOT AND SWAP1 DUP4 PUSH3 0xFFFFFF AND MUL OR SWAP1 SSTORE POP POP POP POP POP POP POP POP POP POP POP POP POP POP PUSH2 0x1C22 PUSH1 0x1 PUSH1 0x0 SSTORE JUMP JUMPDEST POP POP JUMP JUMPDEST DUP2 PUSH1 0x1 PUSH1 0x1 PUSH1 0xA0 SHL SUB AND DUP4 PUSH1 0x1 PUSH1 0x1 PUSH1 0xA0 SHL SUB AND SUB PUSH2 0x1C87 JUMPI PUSH1 0x40 MLOAD PUSH3 0x461BCD PUSH1 0xE5 SHL DUP2 MSTORE PUSH1 0x20 PUSH1 0x4 DUP3 ADD MSTORE PUSH1 0x1A PUSH1 0x24 DUP3 ADD MSTORE PUSH32 0x4173736574732063616E206E6F74206265207468652073616D65000000000000 PUSH1 0x44 DUP3 ADD MSTORE PUSH1 0x64 ADD PUSH2 0x7BA JUMP JUMPDEST PUSH1 0x0 PUSH2 0x1C92 DUP5 PUSH2 0x233D JUMP JUMPDEST PUSH2 0x1C9D SWAP1 PUSH1 0xA PUSH2 0x493E JUMP JUMPDEST SWAP1 POP PUSH2 0x1CB3 DUP5 CALLER DUP5 PUSH1 0x1 PUSH1 0x1 PUSH1 0x60 SHL SUB AND PUSH2 0x242D JUMP JUMPDEST PUSH2 0x1CEB JUMPI PUSH1 0x40 MLOAD PUSH3 0x461BCD PUSH1 0xE5 SHL DUP2 MSTORE PUSH1 0x20 PUSH1 0x4 DUP3 ADD MSTORE PUSH1 0x9 PUSH1 0x24 DUP3 ADD MSTORE PUSH9 0x10BA3930B739B332B9 PUSH1 0xB9 SHL PUSH1 0x44 DUP3 ADD MSTORE PUSH1 0x64 ADD PUSH2 0x7BA JUMP JUMPDEST DUP1 PUSH1 0x1 PUSH1 0x1 PUSH1 0x60 SHL SUB AND DUP3 PUSH1 0x1 PUSH1 0x1 PUSH1 0x60 SHL SUB AND LT ISZERO PUSH2 0x1D39 JUMPI PUSH1 0x40 MLOAD PUSH3 0x461BCD PUSH1 0xE5 SHL DUP2 MSTORE PUSH1 0x20 PUSH1 0x4 DUP3 ADD MSTORE PUSH1 0x9 PUSH1 0x24 DUP3 ADD MSTORE PUSH9 0x10B6B4B727B93232B9 PUSH1 0xB9 SHL PUSH1 0x44 DUP3 ADD MSTORE PUSH1 0x64 ADD PUSH2 0x7BA JUMP JUMPDEST PUSH1 0x0 DUP1 DUP5 PUSH1 0x1 PUSH1 0x1 PUSH1 0xA0 SHL SUB AND DUP7 PUSH1 0x1 PUSH1 0x1 PUSH1 0xA0 SHL SUB AND GT PUSH2 0x1D5C JUMPI DUP6 DUP6 PUSH2 0x1D5F JUMP JUMPDEST DUP5 DUP7 JUMPDEST PUSH1 0x1 PUSH1 0x1 PUSH1 0xA0 SHL SUB DUP1 DUP4 AND PUSH1 0x0 DUP2 DUP2 MSTORE PUSH1 0x7 PUSH1 0x20 SWAP1 DUP2 MSTORE PUSH1 0x40 DUP1 DUP4 KECCAK256 DUP6 DUP8 AND DUP5 MSTORE SWAP1 SWAP2 MSTORE DUP2 KECCAK256 SWAP5 SWAP7 POP SWAP3 SWAP5 POP SWAP1 DUP10 AND EQ PUSH2 0x1D9C JUMPI DUP2 PUSH1 0x3 ADD PUSH2 0x1DA1 JUMP JUMPDEST DUP2 PUSH1 0x2 ADD JUMPDEST SWAP1 POP PUSH1 0x0 DUP5 PUSH1 0x1 PUSH1 0x1 PUSH1 0xA0 SHL SUB AND DUP10 PUSH1 0x1 PUSH1 0x1 PUSH1 0xA0 SHL SUB AND EQ PUSH2 0x1DD4 JUMPI PUSH1 0x7 DUP4 ADD SLOAD PUSH1 0x1 PUSH1 0x78 SHL SWAP1 DIV PUSH3 0xFFFFFF AND PUSH2 0x1DE6 JUMP JUMPDEST PUSH1 0x7 DUP4 ADD SLOAD PUSH1 0x1 PUSH1 0x60 SHL SWAP1 DIV PUSH3 0xFFFFFF AND JUMPDEST SWAP1 POP PUSH1 0x0 PUSH1 0x40 MLOAD DUP1 PUSH1 0xC0 ADD PUSH1 0x40 MSTORE DUP1 CALLER PUSH1 0x1 PUSH1 0x1 PUSH1 0xA0 SHL SUB AND DUP2 MSTORE PUSH1 0x20 ADD DUP9 DUP11 PUSH2 0x1E10 SWAP2 SWAP1 PUSH2 0x49E5 JUMP JUMPDEST PUSH1 0x1 PUSH1 0x1 PUSH1 0x60 SHL SUB AND DUP2 MSTORE PUSH3 0xFFFFFF DUP5 AND PUSH1 0x20 DUP3 ADD MSTORE DUP5 SLOAD PUSH1 0x40 SWAP1 SWAP2 ADD SWAP1 PUSH2 0x1E39 SWAP1 PUSH1 0x1 PUSH2 0x4A0B JUMP JUMPDEST PUSH3 0xFFFFFF SWAP1 DUP2 AND DUP3 MSTORE PUSH1 0x1 PUSH1 0x1 PUSH1 0xA0 SHL SUB DUP1 DUP11 AND PUSH1 0x0 SWAP1 DUP2 MSTORE PUSH1 0x7 PUSH1 0x20 SWAP1 DUP2 MSTORE PUSH1 0x40 DUP1 DUP4 KECCAK256 SWAP4 DUP13 AND DUP4 MSTORE SWAP3 DUP2 MSTORE DUP3 DUP3 KECCAK256 PUSH1 0x6 ADD SLOAD SWAP1 SWAP4 AND SWAP3 DUP5 ADD SWAP3 SWAP1 SWAP3 MSTORE SWAP1 SWAP2 ADD DUP2 SWAP1 MSTORE PUSH1 0x11 DUP7 ADD SLOAD SWAP2 SWAP3 POP PUSH1 0xFF SWAP1 SWAP2 AND SWAP1 SUB PUSH2 0x1EB0 JUMPI PUSH2 0x1E99 DUP7 PUSH2 0x233D JUMP JUMPDEST PUSH1 0x11 DUP6 ADD DUP1 SLOAD PUSH1 0xFF NOT AND PUSH1 0xFF SWAP3 SWAP1 SWAP3 AND SWAP2 SWAP1 SWAP2 OR SWAP1 SSTORE JUMPDEST PUSH1 0x11 DUP5 ADD SLOAD PUSH2 0x100 SWAP1 DIV PUSH1 0xFF AND PUSH1 0x0 SUB PUSH2 0x1EEA JUMPI PUSH2 0x1ECD DUP6 PUSH2 0x233D JUMP JUMPDEST DUP5 PUSH1 0x11 ADD PUSH1 0x1 PUSH2 0x100 EXP DUP2 SLOAD DUP2 PUSH1 0xFF MUL NOT AND SWAP1 DUP4 PUSH1 0xFF AND MUL OR SWAP1 SSTORE POP JUMPDEST DUP6 PUSH1 0x1 PUSH1 0x1 PUSH1 0xA0 SHL SUB AND DUP11 PUSH1 0x1 PUSH1 0x1 PUSH1 0xA0 SHL SUB AND SUB PUSH2 0x1F5B JUMPI DUP3 SLOAD PUSH1 0x7 DUP6 ADD DUP1 SLOAD PUSH3 0xFFFFFF PUSH1 0x60 SHL NOT AND PUSH1 0x1 PUSH1 0x60 SHL PUSH3 0xFFFFFF SWAP4 DUP5 AND MUL OR SWAP1 SSTORE PUSH1 0xC DUP6 ADD DUP1 SLOAD SWAP1 SWAP2 AND SWAP1 PUSH1 0x0 PUSH2 0x1F39 DUP4 PUSH2 0x4A4E JUMP JUMPDEST SWAP2 SWAP1 PUSH2 0x100 EXP DUP2 SLOAD DUP2 PUSH3 0xFFFFFF MUL NOT AND SWAP1 DUP4 PUSH3 0xFFFFFF AND MUL OR SWAP1 SSTORE POP POP PUSH2 0x1FB6 JUMP JUMPDEST DUP3 SLOAD PUSH1 0x7 DUP6 ADD DUP1 SLOAD PUSH3 0xFFFFFF PUSH1 0x78 SHL NOT AND PUSH1 0x1 PUSH1 0x78 SHL PUSH3 0xFFFFFF SWAP4 DUP5 AND MUL OR SWAP1 SSTORE PUSH1 0xC DUP6 ADD DUP1 SLOAD PUSH4 0x1000000 SWAP1 DIV SWAP1 SWAP2 AND SWAP1 PUSH1 0x3 PUSH2 0x1F98 DUP4 PUSH2 0x4A4E JUMP JUMPDEST SWAP2 SWAP1 PUSH2 0x100 EXP DUP2 SLOAD DUP2 PUSH3 0xFFFFFF MUL NOT AND SWAP1 DUP4 PUSH3 0xFFFFFF AND MUL OR SWAP1 SSTORE POP POP JUMPDEST DUP3 SLOAD PUSH1 0x1 DUP2 DUP2 ADD DUP6 SSTORE PUSH1 0x0 DUP6 DUP2 MSTORE PUSH1 0x20 DUP1 DUP3 KECCAK256 DUP6 MLOAD SWAP2 DUP7 ADD MLOAD PUSH1 0x1 PUSH1 0x1 PUSH1 0x60 SHL SUB SWAP1 DUP2 AND PUSH1 0x1 PUSH1 0xA0 SHL MUL PUSH1 0x1 PUSH1 0x1 PUSH1 0xA0 SHL SUB SWAP1 SWAP4 AND SWAP3 SWAP1 SWAP3 OR PUSH1 0x2 SWAP1 SWAP6 MUL ADD SWAP4 DUP5 SSTORE PUSH1 0x40 DUP1 DUP7 ADD MLOAD SWAP5 SWAP1 SWAP4 ADD DUP1 SLOAD PUSH1 0x60 DUP8 ADD MLOAD PUSH1 0x80 DUP9 ADD MLOAD PUSH1 0xA0 DUP10 ADD MLOAD SWAP1 SWAP5 AND PUSH1 0x1 PUSH1 0x48 SHL MUL PUSH1 0x1 PUSH1 0x48 SHL PUSH1 0x1 PUSH1 0xA8 SHL SUB NOT PUSH3 0xFFFFFF SWAP6 DUP7 AND PUSH1 0x1 PUSH1 0x30 SHL MUL AND PUSH1 0x1 PUSH1 0x30 SHL PUSH1 0x1 PUSH1 0xA8 SHL SUB NOT SWAP3 DUP7 AND PUSH4 0x1000000 MUL PUSH6 0xFFFFFFFFFFFF NOT SWAP1 SWAP5 AND SWAP6 SWAP1 SWAP9 AND SWAP5 SWAP1 SWAP5 OR SWAP2 SWAP1 SWAP2 OR AND SWAP5 SWAP1 SWAP5 OR OR SWAP1 SWAP3 SSTORE MLOAD PUSH32 0xDF2066748ACF7C9C7245ADDD0D003C9B501F033B47306EC70401BBC1EFAF0AA6 SWAP2 PUSH2 0xD0E SWAP2 DUP14 SWAP2 DUP14 SWAP2 CALLER SWAP2 DUP15 SWAP2 PUSH2 0x4AB8 JUMP JUMPDEST PUSH1 0x0 DUP1 PUSH1 0x0 DUP1 PUSH1 0x0 DUP1 DUP7 PUSH1 0x1 PUSH1 0x1 PUSH1 0xA0 SHL SUB AND DUP9 PUSH1 0x1 PUSH1 0x1 PUSH1 0xA0 SHL SUB AND GT PUSH2 0x20C8 JUMPI DUP8 DUP8 PUSH2 0x20CB JUMP JUMPDEST DUP7 DUP9 JUMPDEST PUSH1 0x1 PUSH1 0x1 PUSH1 0xA0 SHL SUB SWAP2 DUP3 AND PUSH1 0x0 SWAP1 DUP2 MSTORE PUSH1 0x7 PUSH1 0x20 SWAP1 DUP2 MSTORE PUSH1 0x40 DUP1 DUP4 KECCAK256 SWAP4 SWAP1 SWAP5 AND DUP3 MSTORE SWAP2 SWAP1 SWAP2 MSTORE KECCAK256 PUSH1 0x9 DUP2 ADD SLOAD PUSH1 0xB SWAP1 SWAP2 ADD SLOAD PUSH1 0x1 PUSH1 0x1 PUSH1 0x60 SHL SUB DUP1 DUP4 AND SWAP12 DUP2 DUP4 AND SWAP12 POP PUSH1 0x1 PUSH1 0x60 SHL SWAP4 DUP5 SWAP1 DIV DUP3 AND SWAP11 POP SWAP3 SWAP1 SWAP2 DIV AND SWAP7 POP SWAP5 POP POP POP POP POP JUMP JUMPDEST PUSH1 0x60 DUP1 PUSH1 0x0 DUP1 DUP5 PUSH1 0x1 PUSH1 0x1 PUSH1 0xA0 SHL SUB AND DUP7 PUSH1 0x1 PUSH1 0x1 PUSH1 0xA0 SHL SUB AND GT PUSH2 0x2150 JUMPI DUP6 DUP6 PUSH2 0x2153 JUMP JUMPDEST DUP5 DUP7 JUMPDEST PUSH1 0x1 PUSH1 0x1 PUSH1 0xA0 SHL SUB DUP1 DUP4 AND PUSH1 0x0 DUP2 DUP2 MSTORE PUSH1 0x7 PUSH1 0x20 SWAP1 DUP2 MSTORE PUSH1 0x40 DUP1 DUP4 KECCAK256 DUP6 DUP8 AND DUP5 MSTORE SWAP1 SWAP2 MSTORE SWAP1 KECCAK256 SWAP4 SWAP6 POP SWAP2 SWAP4 POP DUP9 AND EQ PUSH2 0x218F JUMPI DUP1 PUSH1 0x3 ADD PUSH2 0x2194 JUMP JUMPDEST DUP1 PUSH1 0x2 ADD JUMPDEST DUP1 SLOAD DUP1 PUSH1 0x20 MUL PUSH1 0x20 ADD PUSH1 0x40 MLOAD SWAP1 DUP2 ADD PUSH1 0x40 MSTORE DUP1 SWAP3 SWAP2 SWAP1 DUP2 DUP2 MSTORE PUSH1 0x20 ADD PUSH1 0x0 SWAP1 JUMPDEST DUP3 DUP3 LT ISZERO PUSH2 0x224A JUMPI PUSH1 0x0 DUP5 DUP2 MSTORE PUSH1 0x20 SWAP1 DUP2 SWAP1 KECCAK256 PUSH1 0x40 DUP1 MLOAD PUSH1 0xC0 DUP2 ADD DUP3 MSTORE PUSH1 0x2 DUP7 MUL SWAP1 SWAP3 ADD DUP1 SLOAD PUSH1 0x1 PUSH1 0x1 PUSH1 0xA0 SHL SUB DUP2 AND DUP5 MSTORE PUSH1 0x1 PUSH1 0x1 PUSH1 0x60 SHL SUB PUSH1 0x1 PUSH1 0xA0 SHL SWAP1 SWAP2 DIV DUP2 AND DUP5 DUP7 ADD MSTORE PUSH1 0x1 SWAP2 DUP3 ADD SLOAD PUSH3 0xFFFFFF DUP1 DUP3 AND SWAP5 DUP7 ADD SWAP5 SWAP1 SWAP5 MSTORE PUSH4 0x1000000 DUP2 DIV DUP5 AND PUSH1 0x60 DUP7 ADD MSTORE PUSH1 0x1 PUSH1 0x30 SHL DUP2 DIV SWAP1 SWAP4 AND PUSH1 0x80 DUP6 ADD MSTORE PUSH1 0x1 PUSH1 0x48 SHL SWAP1 SWAP3 DIV SWAP1 SWAP2 AND PUSH1 0xA0 DUP4 ADD MSTORE SWAP1 DUP4 MSTORE SWAP1 SWAP3 ADD SWAP2 ADD PUSH2 0x21B4 JUMP JUMPDEST POP POP POP POP SWAP5 POP DUP3 PUSH1 0x1 PUSH1 0x1 PUSH1 0xA0 SHL SUB AND DUP8 PUSH1 0x1 PUSH1 0x1 PUSH1 0xA0 SHL SUB AND EQ PUSH2 0x2272 JUMPI DUP1 PUSH1 0x5 ADD PUSH2 0x2277 JUMP JUMPDEST DUP1 PUSH1 0x4 ADD JUMPDEST DUP1 SLOAD DUP1 PUSH1 0x20 MUL PUSH1 0x20 ADD PUSH1 0x40 MLOAD SWAP1 DUP2 ADD PUSH1 0x40 MSTORE DUP1 SWAP3 SWAP2 SWAP1 DUP2 DUP2 MSTORE PUSH1 0x20 ADD PUSH1 0x0 SWAP1 JUMPDEST DUP3 DUP3 LT ISZERO PUSH2 0x232D JUMPI PUSH1 0x0 DUP5 DUP2 MSTORE PUSH1 0x20 SWAP1 DUP2 SWAP1 KECCAK256 PUSH1 0x40 DUP1 MLOAD PUSH1 0xC0 DUP2 ADD DUP3 MSTORE PUSH1 0x2 DUP7 MUL SWAP1 SWAP3 ADD DUP1 SLOAD PUSH1 0x1 PUSH1 0x1 PUSH1 0xA0 SHL SUB DUP2 AND DUP5 MSTORE PUSH1 0x1 PUSH1 0x1 PUSH1 0x60 SHL SUB PUSH1 0x1 PUSH1 0xA0 SHL SWAP1 SWAP2 DIV DUP2 AND DUP5 DUP7 ADD MSTORE PUSH1 0x1 SWAP2 DUP3 ADD SLOAD PUSH3 0xFFFFFF DUP1 DUP3 AND SWAP5 DUP7 ADD SWAP5 SWAP1 SWAP5 MSTORE PUSH4 0x1000000 DUP2 DIV DUP5 AND PUSH1 0x60 DUP7 ADD MSTORE PUSH1 0x1 PUSH1 0x30 SHL DUP2 DIV SWAP1 SWAP4 AND PUSH1 0x80 DUP6 ADD MSTORE PUSH1 0x1 PUSH1 0x48 SHL SWAP1 SWAP3 DIV SWAP1 SWAP2 AND PUSH1 0xA0 DUP4 ADD MSTORE SWAP1 DUP4 MSTORE SWAP1 SWAP3 ADD SWAP2 ADD PUSH2 0x2297 JUMP JUMPDEST POP POP POP POP SWAP4 POP POP POP POP SWAP3 POP SWAP3 SWAP1 POP JUMP JUMPDEST PUSH1 0x0 DUP1 DUP3 SWAP1 POP DUP1 PUSH1 0x1 PUSH1 0x1 PUSH1 0xA0 SHL SUB AND PUSH4 0x313CE567 PUSH1 0x40 MLOAD DUP2 PUSH4 0xFFFFFFFF AND PUSH1 0xE0 SHL DUP2 MSTORE PUSH1 0x4 ADD PUSH1 0x20 PUSH1 0x40 MLOAD DUP1 DUP4 SUB DUP2 DUP7 GAS STATICCALL ISZERO DUP1 ISZERO PUSH2 0x2381 JUMPI RETURNDATASIZE PUSH1 0x0 DUP1 RETURNDATACOPY RETURNDATASIZE PUSH1 0x0 REVERT JUMPDEST POP POP POP POP PUSH1 0x40 MLOAD RETURNDATASIZE PUSH1 0x1F NOT PUSH1 0x1F DUP3 ADD AND DUP3 ADD DUP1 PUSH1 0x40 MSTORE POP DUP2 ADD SWAP1 PUSH2 0xED3 SWAP2 SWAP1 PUSH2 0x4B83 JUMP JUMPDEST PUSH1 0x0 DUP1 PUSH1 0x0 DUP1 PUSH1 0x0 DUP1 DUP7 PUSH1 0x1 PUSH1 0x1 PUSH1 0xA0 SHL SUB AND DUP9 PUSH1 0x1 PUSH1 0x1 PUSH1 0xA0 SHL SUB AND GT PUSH2 0x23CE JUMPI DUP8 DUP8 PUSH2 0x23D1 JUMP JUMPDEST DUP7 DUP9 JUMPDEST PUSH1 0x1 PUSH1 0x1 PUSH1 0xA0 SHL SUB SWAP2 DUP3 AND PUSH1 0x0 SWAP1 DUP2 MSTORE PUSH1 0x7 PUSH1 0x20 SWAP1 DUP2 MSTORE PUSH1 0x40 DUP1 DUP4 KECCAK256 SWAP4 SWAP1 SWAP5 AND DUP3 MSTORE SWAP2 SWAP1 SWAP2 MSTORE KECCAK256 PUSH1 0xC ADD SLOAD PUSH3 0xFFFFFF DUP1 DUP3 AND SWAP11 PUSH1 0x1 PUSH1 0x30 SHL DUP4 DIV DUP3 AND SWAP11 POP PUSH4 0x1000000 DUP4 DIV DUP3 AND SWAP10 POP PUSH1 0x1 PUSH1 0x48 SHL SWAP1 SWAP3 DIV AND SWAP7 POP SWAP5 POP POP POP POP POP JUMP JUMPDEST PUSH1 0x40 DUP1 MLOAD PUSH1 0x1 PUSH1 0x1 PUSH1 0xA0 SHL SUB DUP5 DUP2 AND PUSH1 0x24 DUP4 ADD MSTORE ADDRESS PUSH1 0x44 DUP4 ADD MSTORE PUSH1 0x64 DUP1 DUP4 ADD DUP6 SWAP1 MSTORE DUP4 MLOAD DUP1 DUP5 SUB SWAP1 SWAP2 ADD DUP2 MSTORE PUSH1 0x84 SWAP1 SWAP3 ADD DUP4 MSTORE PUSH1 0x20 DUP3 ADD DUP1 MLOAD PUSH1 0x1 PUSH1 0x1 PUSH1 0xE0 SHL SUB AND PUSH4 0x23B872DD PUSH1 0xE0 SHL OR SWAP1 MSTORE SWAP2 MLOAD PUSH1 0x0 SWAP3 DUP7 AND SWAP2 PUSH2 0x248B SWAP2 PUSH2 0x4BA6 JUMP JUMPDEST PUSH1 0x0 PUSH1 0x40 MLOAD DUP1 DUP4 SUB DUP2 PUSH1 0x0 DUP7 GAS CALL SWAP2 POP POP RETURNDATASIZE DUP1 PUSH1 0x0 DUP2 EQ PUSH2 0x24C8 JUMPI PUSH1 0x40 MLOAD SWAP2 POP PUSH1 0x1F NOT PUSH1 0x3F RETURNDATASIZE ADD AND DUP3 ADD PUSH1 0x40 MSTORE RETURNDATASIZE DUP3 MSTORE RETURNDATASIZE PUSH1 0x0 PUSH1 0x20 DUP5 ADD RETURNDATACOPY PUSH2 0x24CD JUMP JUMPDEST PUSH1 0x60 SWAP2 POP JUMPDEST POP SWAP1 SWAP6 SWAP5 POP POP POP POP POP JUMP JUMPDEST PUSH1 0x2 PUSH1 0x0 SLOAD SUB PUSH2 0x24FB JUMPI PUSH1 0x40 MLOAD PUSH4 0x3EE5AEB5 PUSH1 0xE0 SHL DUP2 MSTORE PUSH1 0x4 ADD PUSH1 0x40 MLOAD DUP1 SWAP2 SUB SWAP1 REVERT JUMPDEST PUSH1 0x2 PUSH1 0x0 SSTORE JUMP JUMPDEST PUSH1 0x0 DUP1 DUP3 PUSH1 0x1 PUSH1 0x1 PUSH1 0xA0 SHL SUB AND DUP5 PUSH1 0x1 PUSH1 0x1 PUSH1 0xA0 SHL SUB AND GT PUSH2 0x2525 JUMPI DUP4 DUP4 PUSH2 0x2528 JUMP JUMPDEST DUP3 DUP5 JUMPDEST PUSH1 0x1 PUSH1 0x1 PUSH1 0xA0 SHL SUB DUP1 DUP4 AND PUSH1 0x0 SWAP1 DUP2 MSTORE PUSH1 0x7 PUSH1 0x20 SWAP1 DUP2 MSTORE PUSH1 0x40 DUP1 DUP4 KECCAK256 SWAP4 DUP6 AND DUP4 MSTORE SWAP3 SWAP1 MSTORE KECCAK256 PUSH1 0x6 DUP2 ADD SLOAD SWAP3 SWAP5 POP SWAP1 SWAP3 POP SWAP1 PUSH3 0xFFFFFF AND PUSH2 0x2569 DUP5 DUP5 DUP4 PUSH2 0xE27 JUMP JUMPDEST ISZERO PUSH2 0x274A JUMPI PUSH3 0xFFFFFF DUP2 AND PUSH1 0x0 SWAP1 DUP2 MSTORE PUSH1 0xD DUP4 ADD PUSH1 0x20 SWAP1 DUP2 MSTORE PUSH1 0x40 DUP1 DUP4 KECCAK256 DUP1 SLOAD DUP3 MLOAD DUP2 DUP6 MUL DUP2 ADD DUP6 ADD SWAP1 SWAP4 MSTORE DUP1 DUP4 MSTORE SWAP2 SWAP3 SWAP1 SWAP2 SWAP1 DUP4 ADD DUP3 DUP3 DUP1 ISZERO PUSH2 0x25F6 JUMPI PUSH1 0x20 MUL DUP3 ADD SWAP2 SWAP1 PUSH1 0x0 MSTORE PUSH1 0x20 PUSH1 0x0 KECCAK256 SWAP1 PUSH1 0x0 SWAP1 JUMPDEST DUP3 DUP3 SWAP1 SLOAD SWAP1 PUSH2 0x100 EXP SWAP1 DIV PUSH3 0xFFFFFF AND PUSH3 0xFFFFFF AND DUP2 MSTORE PUSH1 0x20 ADD SWAP1 PUSH1 0x3 ADD SWAP1 PUSH1 0x20 DUP3 PUSH1 0x2 ADD DIV SWAP3 DUP4 ADD SWAP3 PUSH1 0x1 SUB DUP3 MUL SWAP2 POP DUP1 DUP5 GT PUSH2 0x25BB JUMPI SWAP1 POP JUMPDEST POP POP POP POP POP SWAP1 POP PUSH1 0x0 JUMPDEST DUP2 MLOAD DUP2 LT ISZERO PUSH2 0x2747 JUMPI PUSH1 0x0 DUP3 DUP3 DUP2 MLOAD DUP2 LT PUSH2 0x261D JUMPI PUSH2 0x261D PUSH2 0x482E JUMP JUMPDEST PUSH1 0x20 MUL PUSH1 0x20 ADD ADD MLOAD SWAP1 POP PUSH1 0x0 DUP6 PUSH1 0x4 ADD DUP3 PUSH3 0xFFFFFF AND DUP2 SLOAD DUP2 LT PUSH2 0x2643 JUMPI PUSH2 0x2643 PUSH2 0x482E JUMP JUMPDEST PUSH1 0x0 SWAP2 DUP3 MSTORE PUSH1 0x20 SWAP2 DUP3 SWAP1 KECCAK256 PUSH1 0x40 DUP1 MLOAD PUSH1 0xC0 DUP2 ADD DUP3 MSTORE PUSH1 0x2 SWAP1 SWAP4 MUL SWAP1 SWAP2 ADD DUP1 SLOAD PUSH1 0x1 PUSH1 0x1 PUSH1 0xA0 SHL SUB DUP2 AND DUP5 MSTORE PUSH1 0x1 PUSH1 0x1 PUSH1 0x60 SHL SUB PUSH1 0x1 PUSH1 0xA0 SHL SWAP1 SWAP2 DIV DUP2 AND SWAP5 DUP5 ADD DUP6 SWAP1 MSTORE PUSH1 0x1 SWAP1 SWAP2 ADD SLOAD PUSH3 0xFFFFFF DUP1 DUP3 AND SWAP4 DUP6 ADD SWAP4 SWAP1 SWAP4 MSTORE PUSH4 0x1000000 DUP2 DIV DUP4 AND PUSH1 0x60 DUP6 ADD MSTORE PUSH1 0x1 PUSH1 0x30 SHL DUP2 DIV SWAP1 SWAP3 AND PUSH1 0x80 DUP5 ADD MSTORE PUSH1 0x1 PUSH1 0x48 SHL SWAP1 SWAP2 DIV AND PUSH1 0xA0 DUP3 ADD MSTORE SWAP2 POP ISZERO PUSH2 0x2732 JUMPI DUP1 MLOAD PUSH1 0x3 SLOAD PUSH1 0x11 DUP9 ADD SLOAD PUSH2 0x2722 SWAP3 DUP12 SWAP3 SWAP1 SWAP2 PUSH2 0x2710 SWAP2 SWAP1 PUSH2 0x26F1 SWAP1 PUSH1 0xFF AND PUSH1 0xA PUSH2 0x493E JUMP JUMPDEST DUP7 PUSH1 0x20 ADD MLOAD PUSH1 0x1 PUSH1 0x1 PUSH1 0x60 SHL SUB AND PUSH2 0x2709 SWAP2 SWAP1 PUSH2 0x49A4 JUMP JUMPDEST PUSH2 0x2713 SWAP2 SWAP1 PUSH2 0x49A4 JUMP JUMPDEST PUSH2 0x271D SWAP2 SWAP1 PUSH2 0x49D1 JUMP JUMPDEST PUSH2 0x3CFA JUMP JUMPDEST PUSH2 0x2732 DUP9 DUP9 DUP5 PUSH3 0xFFFFFF AND PUSH2 0x3D8E JUMP JUMPDEST POP POP DUP1 DUP1 PUSH2 0x273F SWAP1 PUSH2 0x4978 JUMP JUMPDEST SWAP2 POP POP PUSH2 0x2600 JUMP JUMPDEST POP POP JUMPDEST PUSH2 0x2755 DUP4 DUP6 DUP4 PUSH2 0xE27 JUMP JUMPDEST ISZERO PUSH2 0x290D JUMPI PUSH3 0xFFFFFF DUP2 AND PUSH1 0x0 SWAP1 DUP2 MSTORE PUSH1 0xF DUP4 ADD PUSH1 0x20 SWAP1 DUP2 MSTORE PUSH1 0x40 DUP1 DUP4 KECCAK256 DUP1 SLOAD DUP3 MLOAD DUP2 DUP6 MUL DUP2 ADD DUP6 ADD SWAP1 SWAP4 MSTORE DUP1 DUP4 MSTORE SWAP2 SWAP3 SWAP1 SWAP2 SWAP1 DUP4 ADD DUP3 DUP3 DUP1 ISZERO PUSH2 0x27E2 JUMPI PUSH1 0x20 MUL DUP3 ADD SWAP2 SWAP1 PUSH1 0x0 MSTORE PUSH1 0x20 PUSH1 0x0 KECCAK256 SWAP1 PUSH1 0x0 SWAP1 JUMPDEST DUP3 DUP3 SWAP1 SLOAD SWAP1 PUSH2 0x100 EXP SWAP1 DIV PUSH3 0xFFFFFF AND PUSH3 0xFFFFFF AND DUP2 MSTORE PUSH1 0x20 ADD SWAP1 PUSH1 0x3 ADD SWAP1 PUSH1 0x20 DUP3 PUSH1 0x2 ADD DIV SWAP3 DUP4 ADD SWAP3 PUSH1 0x1 SUB DUP3 MUL SWAP2 POP DUP1 DUP5 GT PUSH2 0x27A7 JUMPI SWAP1 POP JUMPDEST POP POP POP POP POP SWAP1 POP PUSH1 0x0 JUMPDEST DUP2 MLOAD DUP2 LT ISZERO PUSH2 0x290A JUMPI PUSH1 0x0 DUP3 DUP3 DUP2 MLOAD DUP2 LT PUSH2 0x2809 JUMPI PUSH2 0x2809 PUSH2 0x482E JUMP JUMPDEST PUSH1 0x20 MUL PUSH1 0x20 ADD ADD MLOAD SWAP1 POP PUSH1 0x0 DUP6 PUSH1 0x5 ADD DUP3 PUSH3 0xFFFFFF AND DUP2 SLOAD DUP2 LT PUSH2 0x282F JUMPI PUSH2 0x282F PUSH2 0x482E JUMP JUMPDEST PUSH1 0x0 SWAP2 DUP3 MSTORE PUSH1 0x20 SWAP2 DUP3 SWAP1 KECCAK256 PUSH1 0x40 DUP1 MLOAD PUSH1 0xC0 DUP2 ADD DUP3 MSTORE PUSH1 0x2 SWAP1 SWAP4 MUL SWAP1 SWAP2 ADD DUP1 SLOAD PUSH1 0x1 PUSH1 0x1 PUSH1 0xA0 SHL SUB DUP2 AND DUP5 MSTORE PUSH1 0x1 PUSH1 0x1 PUSH1 0x60 SHL SUB PUSH1 0x1 PUSH1 0xA0 SHL SWAP1 SWAP2 DIV DUP2 AND SWAP5 DUP5 ADD DUP6 SWAP1 MSTORE PUSH1 0x1 SWAP1 SWAP2 ADD SLOAD PUSH3 0xFFFFFF DUP1 DUP3 AND SWAP4 DUP6 ADD SWAP4 SWAP1 SWAP4 MSTORE PUSH4 0x1000000 DUP2 DIV DUP4 AND PUSH1 0x60 DUP6 ADD MSTORE PUSH1 0x1 PUSH1 0x30 SHL DUP2 DIV SWAP1 SWAP3 AND PUSH1 0x80 DUP5 ADD MSTORE PUSH1 0x1 PUSH1 0x48 SHL SWAP1 SWAP2 DIV AND PUSH1 0xA0 DUP3 ADD MSTORE SWAP2 POP ISZERO PUSH2 0x28F5 JUMPI PUSH2 0x28E5 DUP8 DUP3 PUSH1 0x0 ADD MLOAD PUSH2 0x2710 PUSH1 0x3 SLOAD DUP11 PUSH1 0x11 ADD PUSH1 0x1 SWAP1 SLOAD SWAP1 PUSH2 0x100 EXP SWAP1 DIV PUSH1 0xFF AND PUSH1 0xA PUSH2 0x26F1 SWAP2 SWAP1 PUSH2 0x493E JUMP JUMPDEST PUSH2 0x28F5 DUP8 DUP10 DUP5 PUSH3 0xFFFFFF AND PUSH2 0x3D8E JUMP JUMPDEST POP POP DUP1 DUP1 PUSH2 0x2902 SWAP1 PUSH2 0x4978 JUMP JUMPDEST SWAP2 POP POP PUSH2 0x27EC JUMP JUMPDEST POP POP JUMPDEST POP POP POP POP POP POP JUMP JUMPDEST PUSH1 0x0 DUP1 DUP5 PUSH1 0x1 PUSH1 0x1 PUSH1 0xA0 SHL SUB AND DUP7 PUSH1 0x1 PUSH1 0x1 PUSH1 0xA0 SHL SUB AND LT ISZERO PUSH2 0x295D JUMPI POP PUSH1 0x1 PUSH1 0x1 PUSH1 0xA0 SHL SUB DUP1 DUP7 AND PUSH1 0x0 SWAP1 DUP2 MSTORE PUSH1 0x7 PUSH1 0x20 SWAP1 DUP2 MSTORE PUSH1 0x40 DUP1 DUP4 KECCAK256 SWAP4 DUP9 AND DUP4 MSTORE SWAP3 SWAP1 MSTORE KECCAK256 PUSH2 0x2984 JUMP JUMPDEST POP PUSH1 0x1 PUSH1 0x1 PUSH1 0xA0 SHL SUB DUP1 DUP6 AND PUSH1 0x0 SWAP1 DUP2 MSTORE PUSH1 0x7 PUSH1 0x20 SWAP1 DUP2 MSTORE PUSH1 0x40 DUP1 DUP4 KECCAK256 SWAP4 DUP10 AND DUP4 MSTORE SWAP3 SWAP1 MSTORE KECCAK256 JUMPDEST PUSH1 0x0 DUP1 PUSH1 0x0 DUP1 PUSH1 0x0 DUP10 PUSH1 0x1 PUSH1 0x1 PUSH1 0xA0 SHL SUB AND DUP12 PUSH1 0x1 PUSH1 0x1 PUSH1 0xA0 SHL SUB AND GT PUSH2 0x29C3 JUMPI PUSH1 0x7 DUP7 ADD SLOAD PUSH1 0x1 PUSH1 0x30 SHL SWAP1 DIV PUSH3 0xFFFFFF AND SWAP5 POP PUSH1 0x4 DUP7 ADD SWAP4 POP PUSH2 0x29DD JUMP JUMPDEST PUSH1 0x7 DUP7 ADD SLOAD PUSH1 0x1 PUSH1 0x48 SHL SWAP1 DIV PUSH3 0xFFFFFF AND SWAP5 POP PUSH1 0x5 DUP7 ADD SWAP4 POP JUMPDEST DUP4 SLOAD PUSH3 0xFFFFFF DUP7 AND SWAP1 SUB PUSH2 0x29FB JUMPI POP PUSH1 0x0 SWAP6 POP PUSH2 0x2EA3 SWAP5 POP POP POP POP POP JUMP JUMPDEST PUSH1 0x1 PUSH1 0x1 PUSH1 0x60 SHL SUB DUP13 AND ISZERO PUSH2 0x2E60 JUMPI DUP12 PUSH1 0x1 PUSH1 0x1 PUSH1 0x60 SHL SUB AND DUP5 DUP7 PUSH3 0xFFFFFF AND DUP2 SLOAD DUP2 LT PUSH2 0x2A2B JUMPI PUSH2 0x2A2B PUSH2 0x482E JUMP JUMPDEST PUSH1 0x0 SWAP2 DUP3 MSTORE PUSH1 0x20 SWAP1 SWAP2 KECCAK256 PUSH1 0x2 SWAP1 SWAP2 MUL ADD SLOAD PUSH1 0x1 PUSH1 0xA0 SHL SWAP1 DIV PUSH1 0x1 PUSH1 0x1 PUSH1 0x60 SHL SUB AND LT PUSH2 0x2A57 JUMPI DUP12 PUSH2 0x2A90 JUMP JUMPDEST DUP4 DUP6 PUSH3 0xFFFFFF AND DUP2 SLOAD DUP2 LT PUSH2 0x2A6E JUMPI PUSH2 0x2A6E PUSH2 0x482E JUMP JUMPDEST PUSH1 0x0 SWAP2 DUP3 MSTORE PUSH1 0x20 SWAP1 SWAP2 KECCAK256 PUSH1 0x2 SWAP1 SWAP2 MUL ADD SLOAD PUSH1 0x1 PUSH1 0xA0 SHL SWAP1 DIV PUSH1 0x1 PUSH1 0x1 PUSH1 0x60 SHL SUB AND JUMPDEST SWAP3 POP DUP4 DUP6 PUSH3 0xFFFFFF AND DUP2 SLOAD DUP2 LT PUSH2 0x2AA9 JUMPI PUSH2 0x2AA9 PUSH2 0x482E JUMP JUMPDEST PUSH1 0x0 SWAP2 DUP3 MSTORE PUSH1 0x20 SWAP1 SWAP2 KECCAK256 PUSH1 0x2 SWAP1 SWAP2 MUL ADD SLOAD DUP5 SLOAD PUSH1 0x1 PUSH1 0x1 PUSH1 0xA0 SHL SUB SWAP1 SWAP2 AND SWAP3 POP DUP5 SWAP1 PUSH3 0xFFFFFF DUP8 AND SWAP1 DUP2 LT PUSH2 0x2AE0 JUMPI PUSH2 0x2AE0 PUSH2 0x482E JUMP JUMPDEST PUSH1 0x0 SWAP2 DUP3 MSTORE PUSH1 0x20 DUP3 KECCAK256 PUSH1 0x1 PUSH1 0x2 SWAP1 SWAP3 MUL ADD ADD SLOAD PUSH3 0xFFFFFF PUSH4 0x1000000 SWAP1 SWAP2 DIV AND SWAP2 POP PUSH2 0x2B25 DUP13 DUP5 PUSH2 0x2B12 DUP14 PUSH1 0xA PUSH2 0x493E JUMP JUMPDEST PUSH2 0x804 SWAP1 PUSH1 0x1 PUSH1 0x1 PUSH1 0x60 SHL SUB DUP10 AND PUSH2 0x49A4 JUMP JUMPDEST SWAP1 POP DUP1 ISZERO PUSH2 0x2C9D JUMPI PUSH1 0x1 PUSH1 0x1 PUSH1 0xA0 SHL SUB DUP1 DUP13 AND SWAP1 DUP14 AND PUSH32 0x4B7F19D9174E11BE363F3A433C1271169EF5CD1BC751B2ACC24995AC7A3CE49D DUP6 PUSH2 0x2B68 DUP15 PUSH1 0xA PUSH2 0x493E JUMP JUMPDEST PUSH2 0x2B7B SWAP1 PUSH1 0x1 PUSH1 0x1 PUSH1 0x60 SHL SUB DUP11 AND PUSH2 0x49A4 JUMP JUMPDEST PUSH2 0x2B86 DUP16 PUSH1 0xA PUSH2 0x493E JUMP JUMPDEST DUP11 DUP13 PUSH3 0xFFFFFF AND DUP2 SLOAD DUP2 LT PUSH2 0x2B9D JUMPI PUSH2 0x2B9D PUSH2 0x482E JUMP JUMPDEST PUSH1 0x0 SWAP2 DUP3 MSTORE PUSH1 0x20 SWAP1 SWAP2 KECCAK256 PUSH1 0x2 SWAP1 SWAP2 MUL ADD SLOAD PUSH2 0x2BC8 SWAP2 SWAP1 PUSH1 0x1 PUSH1 0xA0 SHL SWAP1 DIV PUSH1 0x1 PUSH1 0x1 PUSH1 0x60 SHL SUB AND PUSH2 0x49A4 JUMP JUMPDEST PUSH1 0x6 DUP14 ADD SLOAD PUSH1 0x40 DUP1 MLOAD PUSH1 0x1 PUSH1 0x1 PUSH1 0xA0 SHL SUB SWAP1 SWAP6 AND DUP6 MSTORE PUSH1 0x20 DUP6 ADD SWAP4 SWAP1 SWAP4 MSTORE SWAP2 DUP4 ADD MSTORE PUSH3 0xFFFFFF DUP1 DUP13 AND PUSH1 0x60 DUP5 ADD MSTORE AND PUSH1 0x80 DUP3 ADD MSTORE PUSH1 0xA0 ADD PUSH1 0x40 MLOAD DUP1 SWAP2 SUB SWAP1 LOG3 PUSH2 0x2C2A DUP12 DUP5 PUSH2 0x2C17 DUP13 PUSH1 0xA PUSH2 0x493E JUMP JUMPDEST PUSH2 0x271D SWAP1 PUSH1 0x1 PUSH1 0x1 PUSH1 0x60 SHL SUB DUP10 AND PUSH2 0x49A4 JUMP JUMPDEST DUP4 DUP6 DUP8 PUSH3 0xFFFFFF AND DUP2 SLOAD DUP2 LT PUSH2 0x2C42 JUMPI PUSH2 0x2C42 PUSH2 0x482E JUMP JUMPDEST SWAP1 PUSH1 0x0 MSTORE PUSH1 0x20 PUSH1 0x0 KECCAK256 SWAP1 PUSH1 0x2 MUL ADD PUSH1 0x1 ADD PUSH1 0x9 DUP3 DUP3 DUP3 SWAP1 SLOAD SWAP1 PUSH2 0x100 EXP SWAP1 DIV PUSH1 0x1 PUSH1 0x1 PUSH1 0x60 SHL SUB AND PUSH2 0x2C74 SWAP2 SWAP1 PUSH2 0x4A2E JUMP JUMPDEST SWAP3 POP PUSH2 0x100 EXP DUP2 SLOAD DUP2 PUSH1 0x1 PUSH1 0x1 PUSH1 0x60 SHL SUB MUL NOT AND SWAP1 DUP4 PUSH1 0x1 PUSH1 0x1 PUSH1 0x60 SHL SUB AND MUL OR SWAP1 SSTORE POP PUSH2 0x2E4B JUMP JUMPDEST PUSH1 0x1 PUSH1 0x1 PUSH1 0xA0 SHL SUB DUP1 DUP13 AND SWAP1 DUP14 AND PUSH32 0x4E4C59F9CA650E07AD9AC7AB7AA462822CE1E811DBFC21CABE92AC41B923066F DUP6 PUSH2 0x2CD8 DUP15 PUSH1 0xA PUSH2 0x493E JUMP JUMPDEST PUSH2 0x2CEB SWAP1 PUSH1 0x1 PUSH1 0x1 PUSH1 0x60 SHL SUB DUP11 AND PUSH2 0x49A4 JUMP JUMPDEST PUSH2 0x2CF6 DUP16 PUSH1 0xA PUSH2 0x493E JUMP JUMPDEST DUP11 DUP13 PUSH3 0xFFFFFF AND DUP2 SLOAD DUP2 LT PUSH2 0x2D0D JUMPI PUSH2 0x2D0D PUSH2 0x482E JUMP JUMPDEST PUSH1 0x0 SWAP2 DUP3 MSTORE PUSH1 0x20 SWAP1 SWAP2 KECCAK256 PUSH1 0x2 SWAP1 SWAP2 MUL ADD SLOAD PUSH2 0x2D38 SWAP2 SWAP1 PUSH1 0x1 PUSH1 0xA0 SHL SWAP1 DIV PUSH1 0x1 PUSH1 0x1 PUSH1 0x60 SHL SUB AND PUSH2 0x49A4 JUMP JUMPDEST PUSH1 0x6 DUP14 ADD SLOAD PUSH1 0x40 DUP1 MLOAD PUSH1 0x1 PUSH1 0x1 PUSH1 0xA0 SHL SUB SWAP1 SWAP6 AND DUP6 MSTORE PUSH1 0x20 DUP6 ADD SWAP4 SWAP1 SWAP4 MSTORE SWAP2 DUP4 ADD MSTORE PUSH3 0xFFFFFF DUP1 DUP13 AND PUSH1 0x60 DUP5 ADD MSTORE AND PUSH1 0x80 DUP3 ADD MSTORE PUSH1 0xA0 ADD PUSH1 0x40 MLOAD DUP1 SWAP2 SUB SWAP1 LOG3 PUSH1 0x1 SLOAD PUSH1 0x3 SLOAD PUSH2 0x2DE0 SWAP2 DUP15 SWAP2 PUSH1 0x1 PUSH1 0x1 PUSH1 0xA0 SHL SUB SWAP1 SWAP2 AND SWAP1 PUSH2 0x2710 SWAP1 PUSH2 0x2D9E DUP16 PUSH1 0xA PUSH2 0x493E JUMP JUMPDEST DUP11 DUP13 PUSH3 0xFFFFFF AND DUP2 SLOAD DUP2 LT PUSH2 0x2DB5 JUMPI PUSH2 0x2DB5 PUSH2 0x482E JUMP JUMPDEST PUSH1 0x0 SWAP2 DUP3 MSTORE PUSH1 0x20 SWAP1 SWAP2 KECCAK256 PUSH1 0x2 SWAP1 SWAP2 MUL ADD SLOAD PUSH2 0x2709 SWAP2 SWAP1 PUSH1 0x1 PUSH1 0xA0 SHL SWAP1 DIV PUSH1 0x1 PUSH1 0x1 PUSH1 0x60 SHL SUB AND PUSH2 0x49A4 JUMP JUMPDEST PUSH2 0x2DEA DUP5 DUP10 PUSH2 0x4A2E JUMP JUMPDEST SWAP8 POP PUSH2 0x2DFC DUP13 DUP13 DUP9 PUSH3 0xFFFFFF AND PUSH2 0x3D8E JUMP JUMPDEST PUSH1 0x0 DUP6 DUP8 PUSH3 0xFFFFFF AND DUP2 SLOAD DUP2 LT PUSH2 0x2E15 JUMPI PUSH2 0x2E15 PUSH2 0x482E JUMP JUMPDEST SWAP1 PUSH1 0x0 MSTORE PUSH1 0x20 PUSH1 0x0 KECCAK256 SWAP1 PUSH1 0x2 MUL ADD PUSH1 0x0 ADD PUSH1 0x14 PUSH2 0x100 EXP DUP2 SLOAD DUP2 PUSH1 0x1 PUSH1 0x1 PUSH1 0x60 SHL SUB MUL NOT AND SWAP1 DUP4 PUSH1 0x1 PUSH1 0x1 PUSH1 0x60 SHL SUB AND MUL OR SWAP1 SSTORE POP JUMPDEST PUSH2 0x2E55 DUP5 DUP15 PUSH2 0x4AF4 JUMP JUMPDEST SWAP13 POP DUP2 SWAP6 POP POP PUSH2 0x29FB JUMP JUMPDEST PUSH1 0x40 MLOAD PUSH1 0x1 PUSH1 0x1 PUSH1 0x60 SHL SUB DUP9 AND DUP2 MSTORE PUSH32 0x2A27502C345A4CD966DAA061D5537F54CD60D2D20B73680B3BF195C91E806A4B SWAP1 PUSH1 0x20 ADD PUSH1 0x40 MLOAD DUP1 SWAP2 SUB SWAP1 LOG1 POP POP POP POP POP POP JUMPDEST SWAP6 SWAP5 POP POP POP POP POP JUMP JUMPDEST PUSH1 0x0 DUP1 PUSH1 0x0 DUP1 DUP5 PUSH1 0x1 PUSH1 0x1 PUSH1 0xA0 SHL SUB AND DUP7 PUSH1 0x1 PUSH1 0x1 PUSH1 0xA0 SHL SUB AND GT PUSH2 0x2ED2 JUMPI DUP6 DUP6 PUSH2 0x2ED5 JUMP JUMPDEST DUP5 DUP7 JUMPDEST PUSH1 0x1 PUSH1 0x1 PUSH1 0xA0 SHL SUB DUP1 DUP4 AND PUSH1 0x0 SWAP1 DUP2 MSTORE PUSH1 0x7 PUSH1 0x20 DUP2 DUP2 MSTORE PUSH1 0x40 DUP1 DUP5 KECCAK256 SWAP5 DUP7 AND DUP5 MSTORE SWAP4 SWAP1 MSTORE SWAP2 DUP2 KECCAK256 SWAP2 DUP3 ADD SLOAD PUSH1 0x2 DUP4 ADD DUP1 SLOAD SWAP6 SWAP8 POP SWAP4 SWAP6 POP SWAP2 SWAP4 PUSH3 0xFFFFFF SWAP1 SWAP3 AND SWAP3 SWAP2 DUP4 SWAP1 SUB PUSH2 0x2F27 JUMPI PUSH1 0x0 SWAP8 POP PUSH2 0x30D9 JUMP JUMPDEST DUP2 DUP4 PUSH3 0xFFFFFF AND DUP2 SLOAD DUP2 LT PUSH2 0x2F3E JUMPI PUSH2 0x2F3E PUSH2 0x482E JUMP JUMPDEST SWAP1 PUSH1 0x0 MSTORE PUSH1 0x20 PUSH1 0x0 KECCAK256 SWAP1 PUSH1 0x2 MUL ADD SWAP1 POP JUMPDEST DUP1 SLOAD PUSH1 0x1 PUSH1 0x1 PUSH1 0x60 SHL SUB PUSH1 0x1 PUSH1 0xA0 SHL SWAP1 SWAP2 DIV DUP2 AND SWAP1 DUP14 AND LT PUSH2 0x3027 JUMPI DUP1 SLOAD PUSH1 0x11 DUP6 ADD SLOAD PUSH2 0x2FB3 SWAP2 DUP8 SWAP2 PUSH1 0x1 PUSH1 0x1 PUSH1 0xA0 SHL SUB SWAP1 SWAP2 AND SWAP1 PUSH2 0x2F97 SWAP1 PUSH2 0x100 SWAP1 DIV PUSH1 0xFF AND PUSH1 0xA PUSH2 0x493E JUMP JUMPDEST DUP5 SLOAD PUSH2 0x271D SWAP2 SWAP1 PUSH1 0x1 PUSH1 0xA0 SHL SWAP1 DIV PUSH1 0x1 PUSH1 0x1 PUSH1 0x60 SHL SUB AND PUSH2 0x49A4 JUMP JUMPDEST DUP1 SLOAD PUSH2 0x2FCF SWAP1 PUSH1 0x1 PUSH1 0xA0 SHL SWAP1 DIV PUSH1 0x1 PUSH1 0x1 PUSH1 0x60 SHL SUB AND DUP14 PUSH2 0x4AF4 JUMP JUMPDEST PUSH1 0x1 DUP3 ADD SLOAD DUP4 SLOAD SWAP2 SWAP14 POP PUSH4 0x1000000 SWAP1 DIV PUSH3 0xFFFFFF AND SWAP4 POP DUP4 EQ PUSH2 0x3015 JUMPI DUP2 DUP4 PUSH3 0xFFFFFF AND DUP2 SLOAD DUP2 LT PUSH2 0x3004 JUMPI PUSH2 0x3004 PUSH2 0x482E JUMP JUMPDEST SWAP1 PUSH1 0x0 MSTORE PUSH1 0x20 PUSH1 0x0 KECCAK256 SWAP1 PUSH1 0x2 MUL ADD SWAP1 POP JUMPDEST DUP8 PUSH2 0x301F DUP2 PUSH2 0x4A4E JUMP JUMPDEST SWAP9 POP POP PUSH2 0x2F4F JUMP JUMPDEST PUSH1 0x1 PUSH1 0x1 PUSH1 0x60 SHL SUB DUP13 AND ISZERO PUSH2 0x30C3 JUMPI DUP1 SLOAD PUSH1 0x11 DUP6 ADD SLOAD PUSH2 0x3076 SWAP2 DUP8 SWAP2 PUSH1 0x1 PUSH1 0x1 PUSH1 0xA0 SHL SUB SWAP1 SWAP2 AND SWAP1 PUSH2 0x3062 SWAP1 PUSH2 0x100 SWAP1 DIV PUSH1 0xFF AND PUSH1 0xA PUSH2 0x493E JUMP JUMPDEST DUP16 PUSH1 0x1 PUSH1 0x1 PUSH1 0x60 SHL SUB AND PUSH2 0x271D SWAP2 SWAP1 PUSH2 0x49A4 JUMP JUMPDEST DUP1 SLOAD DUP13 SWAP1 DUP3 SWAP1 PUSH1 0x14 SWAP1 PUSH2 0x309A SWAP1 DUP5 SWAP1 PUSH1 0x1 PUSH1 0xA0 SHL SWAP1 DIV PUSH1 0x1 PUSH1 0x1 PUSH1 0x60 SHL SUB AND PUSH2 0x4AF4 JUMP JUMPDEST SWAP3 POP PUSH2 0x100 EXP DUP2 SLOAD DUP2 PUSH1 0x1 PUSH1 0x1 PUSH1 0x60 SHL SUB MUL NOT AND SWAP1 DUP4 PUSH1 0x1 PUSH1 0x1 PUSH1 0x60 SHL SUB AND MUL OR SWAP1 SSTORE POP PUSH1 0x0 SWAP12 POP JUMPDEST PUSH1 0x7 DUP5 ADD DUP1 SLOAD PUSH3 0xFFFFFF NOT AND PUSH3 0xFFFFFF DUP6 AND OR SWAP1 SSTORE JUMPDEST PUSH1 0x7 DUP5 ADD SLOAD PUSH1 0x3 DUP6 ADD DUP1 SLOAD PUSH4 0x1000000 SWAP1 SWAP3 DIV PUSH3 0xFFFFFF AND SWAP5 POP SWAP3 POP DUP4 SWAP1 SUB PUSH2 0x3105 JUMPI PUSH1 0x0 SWAP7 POP PUSH2 0x329A JUMP JUMPDEST DUP2 DUP4 PUSH3 0xFFFFFF AND DUP2 SLOAD DUP2 LT PUSH2 0x311C JUMPI PUSH2 0x311C PUSH2 0x482E JUMP JUMPDEST SWAP1 PUSH1 0x0 MSTORE PUSH1 0x20 PUSH1 0x0 KECCAK256 SWAP1 PUSH1 0x2 MUL ADD SWAP1 POP JUMPDEST DUP1 SLOAD PUSH1 0x1 PUSH1 0x1 PUSH1 0x60 SHL SUB PUSH1 0x1 PUSH1 0xA0 SHL SWAP1 SWAP2 DIV DUP2 AND SWAP1 DUP13 AND LT PUSH2 0x31E4 JUMPI DUP1 SLOAD PUSH1 0x11 DUP6 ADD SLOAD PUSH2 0x3170 SWAP2 DUP9 SWAP2 PUSH1 0x1 PUSH1 0x1 PUSH1 0xA0 SHL SUB SWAP1 SWAP2 AND SWAP1 PUSH2 0x2F97 SWAP1 PUSH1 0xFF AND PUSH1 0xA PUSH2 0x493E JUMP JUMPDEST DUP1 SLOAD PUSH2 0x318C SWAP1 PUSH1 0x1 PUSH1 0xA0 SHL SWAP1 DIV PUSH1 0x1 PUSH1 0x1 PUSH1 0x60 SHL SUB AND DUP13 PUSH2 0x4AF4 JUMP JUMPDEST PUSH1 0x1 DUP3 ADD SLOAD DUP4 SLOAD SWAP2 SWAP13 POP PUSH4 0x1000000 SWAP1 DIV PUSH3 0xFFFFFF AND SWAP4 POP DUP4 EQ PUSH2 0x31D2 JUMPI DUP2 DUP4 PUSH3 0xFFFFFF AND DUP2 SLOAD DUP2 LT PUSH2 0x31C1 JUMPI PUSH2 0x31C1 PUSH2 0x482E JUMP JUMPDEST SWAP1 PUSH1 0x0 MSTORE PUSH1 0x20 PUSH1 0x0 KECCAK256 SWAP1 PUSH1 0x2 MUL ADD SWAP1 POP JUMPDEST DUP7 PUSH2 0x31DC DUP2 PUSH2 0x4A4E JUMP JUMPDEST SWAP8 POP POP PUSH2 0x312D JUMP JUMPDEST PUSH1 0x1 PUSH1 0x1 PUSH1 0x60 SHL SUB DUP12 AND ISZERO PUSH2 0x327B JUMPI DUP1 SLOAD PUSH1 0x11 DUP6 ADD SLOAD PUSH2 0x322E SWAP2 DUP9 SWAP2 PUSH1 0x1 PUSH1 0x1 PUSH1 0xA0 SHL SUB SWAP1 SWAP2 AND SWAP1 PUSH2 0x321A SWAP1 PUSH1 0xFF AND PUSH1 0xA PUSH2 0x493E JUMP JUMPDEST DUP15 PUSH1 0x1 PUSH1 0x1 PUSH1 0x60 SHL SUB AND PUSH2 0x271D SWAP2 SWAP1 PUSH2 0x49A4 JUMP JUMPDEST DUP1 SLOAD DUP12 SWAP1 DUP3 SWAP1 PUSH1 0x14 SWAP1 PUSH2 0x3252 SWAP1 DUP5 SWAP1 PUSH1 0x1 PUSH1 0xA0 SHL SWAP1 DIV PUSH1 0x1 PUSH1 0x1 PUSH1 0x60 SHL SUB AND PUSH2 0x4AF4 JUMP JUMPDEST SWAP3 POP PUSH2 0x100 EXP DUP2 SLOAD DUP2 PUSH1 0x1 PUSH1 0x1 PUSH1 0x60 SHL SUB MUL NOT AND SWAP1 DUP4 PUSH1 0x1 PUSH1 0x1 PUSH1 0x60 SHL SUB AND MUL OR SWAP1 SSTORE POP PUSH1 0x0 SWAP11 POP JUMPDEST PUSH1 0x7 DUP5 ADD DUP1 SLOAD PUSH6 0xFFFFFF000000 NOT AND PUSH4 0x1000000 PUSH3 0xFFFFFF DUP7 AND MUL OR SWAP1 SSTORE JUMPDEST PUSH1 0x40 MLOAD PUSH3 0xFFFFFF DUP10 AND DUP2 MSTORE PUSH32 0x2A27502C345A4CD966DAA061D5537F54CD60D2D20B73680B3BF195C91E806A4B SWAP1 PUSH1 0x20 ADD PUSH1 0x40 MLOAD DUP1 SWAP2 SUB SWAP1 LOG1 PUSH1 0x40 MLOAD PUSH3 0xFFFFFF DUP9 AND DUP2 MSTORE PUSH32 0x2A27502C345A4CD966DAA061D5537F54CD60D2D20B73680B3BF195C91E806A4B SWAP1 PUSH1 0x20 ADD PUSH1 0x40 MLOAD DUP1 SWAP2 SUB SWAP1 LOG1 POP POP POP POP POP POP SWAP5 POP SWAP5 SWAP3 POP POP POP JUMP JUMPDEST PUSH1 0x1 PUSH1 0x1 PUSH1 0xA0 SHL SUB DUP1 DUP3 AND SWAP1 DUP4 AND GT PUSH1 0x0 DUP1 DUP3 PUSH2 0x3337 JUMPI DUP5 DUP5 PUSH2 0x333A JUMP JUMPDEST DUP4 DUP6 JUMPDEST PUSH1 0x1 PUSH1 0x1 PUSH1 0xA0 SHL SUB DUP1 DUP4 AND PUSH1 0x0 SWAP1 DUP2 MSTORE PUSH1 0x7 PUSH1 0x20 SWAP1 DUP2 MSTORE PUSH1 0x40 DUP1 DUP4 KECCAK256 SWAP4 DUP6 AND DUP4 MSTORE SWAP3 SWAP1 MSTORE SWAP1 DUP2 KECCAK256 SWAP3 SWAP5 POP SWAP1 SWAP3 POP DUP1 DUP1 DUP1 DUP1 DUP1 DUP10 PUSH2 0x3395 JUMPI PUSH1 0x7 DUP8 ADD SLOAD PUSH3 0xFFFFFF DUP1 DUP3 AND SWAP8 POP PUSH1 0x2 DUP10 ADD SWAP6 POP PUSH1 0x1 PUSH1 0x60 SHL SWAP1 SWAP2 DIV AND SWAP2 POP PUSH2 0x33BB JUMP JUMPDEST PUSH1 0x7 DUP8 ADD SLOAD PUSH3 0xFFFFFF PUSH4 0x1000000 DUP3 DIV DUP2 AND SWAP8 POP PUSH1 0x3 DUP10 ADD SWAP6 POP PUSH1 0x1 PUSH1 0x78 SHL SWAP1 SWAP2 DIV AND SWAP2 POP JUMPDEST DUP6 SWAP5 POP JUMPDEST DUP4 SLOAD PUSH3 0xFFFFFF DUP8 AND EQ DUP1 ISZERO SWAP1 PUSH2 0x3410 JUMPI POP DUP4 DUP7 PUSH3 0xFFFFFF AND DUP2 SLOAD DUP2 LT PUSH2 0x33E7 JUMPI PUSH2 0x33E7 PUSH2 0x482E JUMP JUMPDEST PUSH1 0x0 SWAP2 DUP3 MSTORE PUSH1 0x20 SWAP1 SWAP2 KECCAK256 PUSH1 0x2 SWAP1 SWAP2 MUL ADD SLOAD PUSH1 0x1 PUSH1 0x1 PUSH1 0x60 SHL SUB PUSH1 0x1 PUSH1 0xA0 SHL SWAP1 SWAP2 DIV DUP2 AND SWAP1 DUP15 AND LT ISZERO JUMPDEST ISZERO PUSH2 0x34EB JUMPI PUSH1 0x6 DUP8 ADD SLOAD DUP5 SLOAD PUSH3 0xFFFFFF SWAP2 DUP3 AND SWAP2 DUP7 SWAP2 SWAP1 DUP10 AND SWAP1 DUP2 LT PUSH2 0x3438 JUMPI PUSH2 0x3438 PUSH2 0x482E JUMP JUMPDEST SWAP1 PUSH1 0x0 MSTORE PUSH1 0x20 PUSH1 0x0 KECCAK256 SWAP1 PUSH1 0x2 MUL ADD PUSH1 0x1 ADD PUSH1 0x6 PUSH2 0x100 EXP DUP2 SLOAD DUP2 PUSH3 0xFFFFFF MUL NOT AND SWAP1 DUP4 PUSH3 0xFFFFFF AND MUL OR SWAP1 SSTORE POP DUP4 DUP7 PUSH3 0xFFFFFF AND DUP2 SLOAD DUP2 LT PUSH2 0x347C JUMPI PUSH2 0x347C PUSH2 0x482E JUMP JUMPDEST PUSH1 0x0 SWAP2 DUP3 MSTORE PUSH1 0x20 SWAP1 SWAP2 KECCAK256 PUSH1 0x2 SWAP1 SWAP2 MUL ADD SLOAD PUSH2 0x34A7 SWAP1 PUSH1 0x1 PUSH1 0xA0 SHL SWAP1 DIV PUSH1 0x1 PUSH1 0x1 PUSH1 0x60 SHL SUB AND DUP15 PUSH2 0x4AF4 JUMP JUMPDEST SWAP13 POP DUP6 SWAP1 POP DUP4 DUP7 PUSH3 0xFFFFFF AND DUP2 SLOAD DUP2 LT PUSH2 0x34C3 JUMPI PUSH2 0x34C3 PUSH2 0x482E JUMP JUMPDEST SWAP1 PUSH1 0x0 MSTORE PUSH1 0x20 PUSH1 0x0 KECCAK256 SWAP1 PUSH1 0x2 MUL ADD PUSH1 0x1 ADD PUSH1 0x3 SWAP1 SLOAD SWAP1 PUSH2 0x100 EXP SWAP1 DIV PUSH3 0xFFFFFF AND SWAP6 POP PUSH2 0x33BF JUMP JUMPDEST PUSH1 0x1 PUSH1 0x1 PUSH1 0x60 SHL SUB DUP14 AND ISZERO PUSH2 0x356B JUMPI PUSH1 0x1 SWAP3 POP DUP13 DUP5 DUP8 PUSH3 0xFFFFFF AND DUP2 SLOAD DUP2 LT PUSH2 0x3516 JUMPI PUSH2 0x3516 PUSH2 0x482E JUMP JUMPDEST PUSH1 0x0 SWAP2 DUP3 MSTORE PUSH1 0x20 SWAP1 SWAP2 KECCAK256 PUSH1 0x2 SWAP1 SWAP2 MUL ADD DUP1 SLOAD PUSH1 0x14 SWAP1 PUSH2 0x3546 SWAP1 DUP5 SWAP1 PUSH1 0x1 PUSH1 0xA0 SHL SWAP1 DIV PUSH1 0x1 PUSH1 0x1 PUSH1 0x60 SHL SUB AND PUSH2 0x4AF4 JUMP JUMPDEST SWAP3 POP PUSH2 0x100 EXP DUP2 SLOAD DUP2 PUSH1 0x1 PUSH1 0x1 PUSH1 0x60 SHL SUB MUL NOT AND SWAP1 DUP4 PUSH1 0x1 PUSH1 0x1 PUSH1 0x60 SHL SUB AND MUL OR SWAP1 SSTORE POP JUMPDEST DUP6 PUSH3 0xFFFFFF AND DUP6 PUSH3 0xFFFFFF AND EQ ISZERO DUP1 ISZERO PUSH2 0x35BB JUMPI POP DUP4 SLOAD DUP5 PUSH3 0xFFFFFF DUP4 AND DUP3 DUP2 LT PUSH2 0x3598 JUMPI PUSH2 0x3598 PUSH2 0x482E JUMP JUMPDEST PUSH1 0x0 SWAP2 DUP3 MSTORE PUSH1 0x20 SWAP1 SWAP2 KECCAK256 PUSH1 0x2 SWAP1 SWAP2 MUL ADD PUSH1 0x1 ADD SLOAD PUSH4 0x1000000 SWAP1 DIV PUSH3 0xFFFFFF AND EQ ISZERO JUMPDEST ISZERO PUSH2 0x370A JUMPI DUP10 PUSH2 0x35DF JUMPI PUSH1 0x7 DUP8 ADD DUP1 SLOAD PUSH3 0xFFFFFF NOT AND PUSH3 0xFFFFFF DUP9 AND OR SWAP1 SSTORE PUSH2 0x35FE JUMP JUMPDEST PUSH1 0x7 DUP8 ADD DUP1 SLOAD PUSH6 0xFFFFFF000000 NOT AND PUSH4 0x1000000 PUSH3 0xFFFFFF DUP10 AND MUL OR SWAP1 SSTORE JUMPDEST DUP5 DUP5 DUP4 PUSH3 0xFFFFFF AND DUP2 SLOAD DUP2 LT PUSH2 0x3616 JUMPI PUSH2 0x3616 PUSH2 0x482E JUMP JUMPDEST SWAP1 PUSH1 0x0 MSTORE PUSH1 0x20 PUSH1 0x0 KECCAK256 SWAP1 PUSH1 0x2 MUL ADD PUSH1 0x1 ADD PUSH1 0x3 PUSH2 0x100 EXP DUP2 SLOAD DUP2 PUSH3 0xFFFFFF MUL NOT AND SWAP1 DUP4 PUSH3 0xFFFFFF AND MUL OR SWAP1 SSTORE POP DUP2 DUP5 DUP7 PUSH3 0xFFFFFF AND DUP2 SLOAD DUP2 LT PUSH2 0x365B JUMPI PUSH2 0x365B PUSH2 0x482E JUMP JUMPDEST PUSH1 0x0 SWAP2 DUP3 MSTORE PUSH1 0x20 SWAP1 SWAP2 KECCAK256 PUSH1 0x2 SWAP1 SWAP2 MUL ADD PUSH1 0x1 ADD DUP1 SLOAD PUSH3 0xFFFFFF NOT AND PUSH3 0xFFFFFF SWAP3 DUP4 AND OR SWAP1 SSTORE DUP5 SLOAD SWAP1 DUP6 SWAP1 DUP4 AND DUP3 DUP2 LT PUSH2 0x3696 JUMPI PUSH2 0x3696 PUSH2 0x482E JUMP JUMPDEST SWAP1 PUSH1 0x0 MSTORE PUSH1 0x20 PUSH1 0x0 KECCAK256 SWAP1 PUSH1 0x2 MUL ADD PUSH1 0x1 ADD PUSH1 0x3 PUSH2 0x100 EXP DUP2 SLOAD DUP2 PUSH3 0xFFFFFF MUL NOT AND SWAP1 DUP4 PUSH3 0xFFFFFF AND MUL OR SWAP1 SSTORE POP DUP10 PUSH2 0x36EB JUMPI PUSH1 0x7 DUP8 ADD DUP1 SLOAD PUSH3 0xFFFFFF PUSH1 0x60 SHL NOT AND PUSH1 0x1 PUSH1 0x60 SHL PUSH3 0xFFFFFF DUP5 AND MUL OR SWAP1 SSTORE PUSH2 0x370A JUMP JUMPDEST PUSH1 0x7 DUP8 ADD DUP1 SLOAD PUSH3 0xFFFFFF PUSH1 0x78 SHL NOT AND PUSH1 0x1 PUSH1 0x78 SHL PUSH3 0xFFFFFF DUP5 AND MUL OR SWAP1 SSTORE JUMPDEST DUP3 ISZERO PUSH2 0x39D4 JUMPI PUSH1 0x0 PUSH1 0x40 MLOAD DUP1 PUSH1 0xC0 ADD PUSH1 0x40 MSTORE DUP1 DUP7 DUP10 PUSH3 0xFFFFFF AND DUP2 SLOAD DUP2 LT PUSH2 0x3734 JUMPI PUSH2 0x3734 PUSH2 0x482E JUMP JUMPDEST SWAP1 PUSH1 0x0 MSTORE PUSH1 0x20 PUSH1 0x0 KECCAK256 SWAP1 PUSH1 0x2 MUL ADD PUSH1 0x0 ADD PUSH1 0x0 SWAP1 SLOAD SWAP1 PUSH2 0x100 EXP SWAP1 DIV PUSH1 0x1 PUSH1 0x1 PUSH1 0xA0 SHL SUB AND PUSH1 0x1 PUSH1 0x1 PUSH1 0xA0 SHL SUB AND DUP2 MSTORE PUSH1 0x20 ADD DUP16 PUSH1 0x1 PUSH1 0x1 PUSH1 0x60 SHL SUB AND DUP2 MSTORE PUSH1 0x20 ADD DUP5 PUSH3 0xFFFFFF AND DUP2 MSTORE PUSH1 0x20 ADD DUP7 DUP1 SLOAD SWAP1 POP PUSH1 0x1 PUSH2 0x3792 SWAP2 SWAP1 PUSH2 0x4A0B JUMP JUMPDEST PUSH3 0xFFFFFF SWAP1 DUP2 AND DUP3 MSTORE PUSH1 0x6 DUP12 ADD SLOAD AND PUSH1 0x20 DUP3 ADD MSTORE PUSH1 0x0 PUSH1 0x40 SWAP1 SWAP2 ADD MSTORE SWAP1 POP DUP11 PUSH2 0x38C3 JUMPI DUP5 SLOAD PUSH1 0x7 DUP10 ADD DUP1 SLOAD PUSH3 0xFFFFFF PUSH1 0x60 SHL NOT AND PUSH1 0x1 PUSH1 0x60 SHL PUSH3 0xFFFFFF SWAP4 DUP5 AND MUL OR SWAP1 SSTORE PUSH1 0x2 DUP1 DUP11 ADD DUP1 SLOAD PUSH1 0x1 DUP2 DUP2 ADD DUP4 SSTORE PUSH1 0x0 SWAP3 DUP4 MSTORE PUSH1 0x20 DUP1 DUP5 KECCAK256 DUP8 MLOAD SWAP2 DUP9 ADD MLOAD PUSH1 0x1 PUSH1 0x1 PUSH1 0xA0 SHL SUB SWAP1 SWAP3 AND PUSH1 0x1 PUSH1 0xA0 SHL PUSH1 0x1 PUSH1 0x1 PUSH1 0x60 SHL SUB SWAP4 DUP5 AND MUL OR SWAP4 SWAP1 SWAP6 MUL SWAP1 SWAP5 ADD SWAP2 DUP3 SSTORE PUSH1 0x40 DUP7 ADD MLOAD SWAP2 ADD DUP1 SLOAD PUSH1 0x60 DUP8 ADD MLOAD PUSH1 0x80 DUP9 ADD MLOAD PUSH1 0xA0 DUP10 ADD MLOAD SWAP5 DUP9 AND PUSH6 0xFFFFFFFFFFFF NOT SWAP1 SWAP4 AND SWAP3 SWAP1 SWAP3 OR PUSH4 0x1000000 SWAP2 DUP9 AND SWAP2 SWAP1 SWAP2 MUL OR PUSH1 0x1 PUSH1 0x30 SHL PUSH1 0x1 PUSH1 0xA8 SHL SUB NOT AND PUSH1 0x1 PUSH1 0x30 SHL SWAP2 DUP8 AND SWAP2 SWAP1 SWAP2 MUL PUSH1 0x1 PUSH1 0x48 SHL PUSH1 0x1 PUSH1 0xA8 SHL SUB NOT AND OR PUSH1 0x1 PUSH1 0x48 SHL SWAP3 SWAP1 SWAP5 AND SWAP2 SWAP1 SWAP2 MUL SWAP3 SWAP1 SWAP3 OR SWAP1 SWAP2 SSTORE PUSH1 0xC DUP11 ADD DUP1 SLOAD SWAP1 SWAP3 AND SWAP2 SWAP1 PUSH2 0x38A1 DUP4 PUSH2 0x4A4E JUMP JUMPDEST SWAP2 SWAP1 PUSH2 0x100 EXP DUP2 SLOAD DUP2 PUSH3 0xFFFFFF MUL NOT AND SWAP1 DUP4 PUSH3 0xFFFFFF AND MUL OR SWAP1 SSTORE POP POP PUSH2 0x39D2 JUMP JUMPDEST DUP5 SLOAD PUSH1 0x7 DUP10 ADD DUP1 SLOAD PUSH3 0xFFFFFF PUSH1 0x78 SHL NOT AND PUSH1 0x1 PUSH1 0x78 SHL PUSH3 0xFFFFFF SWAP4 DUP5 AND MUL OR SWAP1 SSTORE PUSH1 0x3 DUP1 DUP11 ADD DUP1 SLOAD PUSH1 0x1 DUP2 DUP2 ADD DUP4 SSTORE PUSH1 0x0 SWAP3 DUP4 MSTORE PUSH1 0x20 SWAP3 DUP4 SWAP1 KECCAK256 DUP7 MLOAD SWAP4 DUP8 ADD MLOAD PUSH1 0x1 PUSH1 0x1 PUSH1 0xA0 SHL SUB SWAP1 SWAP5 AND PUSH1 0x1 PUSH1 0xA0 SHL PUSH1 0x1 PUSH1 0x1 PUSH1 0x60 SHL SUB SWAP6 DUP7 AND MUL OR PUSH1 0x2 SWAP1 SWAP4 MUL ADD SWAP2 DUP3 SSTORE PUSH1 0x40 DUP7 ADD MLOAD SWAP2 ADD DUP1 SLOAD PUSH1 0x60 DUP8 ADD MLOAD PUSH1 0x80 DUP9 ADD MLOAD PUSH1 0xA0 DUP10 ADD MLOAD SWAP5 DUP9 AND PUSH6 0xFFFFFFFFFFFF NOT SWAP1 SWAP4 AND SWAP3 SWAP1 SWAP3 OR PUSH4 0x1000000 SWAP2 DUP9 AND DUP3 MUL OR PUSH1 0x1 PUSH1 0x30 SHL PUSH1 0x1 PUSH1 0xA8 SHL SUB NOT AND PUSH1 0x1 PUSH1 0x30 SHL SWAP3 DUP9 AND SWAP3 SWAP1 SWAP3 MUL PUSH1 0x1 PUSH1 0x48 SHL PUSH1 0x1 PUSH1 0xA8 SHL SUB NOT AND SWAP2 SWAP1 SWAP2 OR PUSH1 0x1 PUSH1 0x48 SHL SWAP4 SWAP1 SWAP5 AND SWAP3 SWAP1 SWAP3 MUL SWAP3 SWAP1 SWAP3 OR SWAP1 SWAP2 SSTORE PUSH1 0xC DUP12 ADD DUP1 SLOAD SWAP2 SWAP1 SWAP2 DIV SWAP1 SWAP3 AND SWAP2 SWAP1 PUSH2 0x39B4 DUP4 PUSH2 0x4A4E JUMP JUMPDEST SWAP2 SWAP1 PUSH2 0x100 EXP DUP2 SLOAD DUP2 PUSH3 0xFFFFFF MUL NOT AND SWAP1 DUP4 PUSH3 0xFFFFFF AND MUL OR SWAP1 SSTORE POP POP JUMPDEST POP JUMPDEST POP POP POP POP POP POP POP POP POP POP POP POP POP JUMP JUMPDEST PUSH1 0x0 DUP1 PUSH1 0x1 PUSH1 0x1 PUSH1 0xA0 SHL SUB DUP1 DUP5 AND SWAP1 DUP6 AND GT DUP2 DUP1 DUP3 PUSH2 0x3A03 JUMPI DUP7 DUP7 PUSH2 0x3A06 JUMP JUMPDEST DUP6 DUP8 JUMPDEST PUSH1 0x1 PUSH1 0x1 PUSH1 0xA0 SHL SUB DUP1 DUP4 AND PUSH1 0x0 SWAP1 DUP2 MSTORE PUSH1 0x7 PUSH1 0x20 DUP2 DUP2 MSTORE PUSH1 0x40 DUP1 DUP5 KECCAK256 SWAP5 DUP7 AND DUP5 MSTORE SWAP4 SWAP1 MSTORE SWAP2 DUP2 KECCAK256 PUSH1 0x6 DUP2 ADD SLOAD SWAP3 DUP2 ADD SLOAD SWAP5 SWAP7 POP SWAP3 SWAP5 POP SWAP2 SWAP3 PUSH3 0xFFFFFF SWAP2 DUP3 AND SWAP3 SWAP2 AND PUSH1 0x2 DUP5 ADD JUMPDEST DUP1 SLOAD PUSH3 0xFFFFFF DUP4 AND LT ISZERO PUSH2 0x3B72 JUMPI PUSH1 0x0 DUP2 DUP4 PUSH3 0xFFFFFF AND DUP2 SLOAD DUP2 LT PUSH2 0x3A74 JUMPI PUSH2 0x3A74 PUSH2 0x482E JUMP JUMPDEST PUSH1 0x0 SWAP2 DUP3 MSTORE PUSH1 0x20 SWAP2 DUP3 SWAP1 KECCAK256 PUSH1 0x40 DUP1 MLOAD PUSH1 0xC0 DUP2 ADD DUP3 MSTORE PUSH1 0x2 SWAP1 SWAP4 MUL SWAP1 SWAP2 ADD DUP1 SLOAD PUSH1 0x1 PUSH1 0x1 PUSH1 0xA0 SHL SUB DUP2 AND DUP5 MSTORE PUSH1 0x1 PUSH1 0x1 PUSH1 0x60 SHL SUB PUSH1 0x1 PUSH1 0xA0 SHL SWAP1 SWAP2 DIV DUP2 AND SWAP5 DUP5 ADD SWAP5 SWAP1 SWAP5 MSTORE PUSH1 0x1 ADD SLOAD PUSH3 0xFFFFFF DUP1 DUP3 AND SWAP3 DUP5 ADD SWAP3 SWAP1 SWAP3 MSTORE PUSH4 0x1000000 DUP2 DIV DUP3 AND PUSH1 0x60 DUP5 ADD MSTORE PUSH1 0x1 PUSH1 0x30 SHL DUP2 DIV DUP3 AND PUSH1 0x80 DUP5 ADD DUP2 SWAP1 MSTORE PUSH1 0x1 PUSH1 0x48 SHL SWAP1 SWAP2 DIV SWAP1 SWAP4 AND PUSH1 0xA0 DUP4 ADD MSTORE PUSH1 0x6 SLOAD SWAP2 SWAP4 POP DUP8 AND SWAP2 PUSH2 0x3B0B SWAP2 SWAP1 PUSH2 0x4BD5 JUMP JUMPDEST LT ISZERO PUSH2 0x3B53 JUMPI DUP1 MLOAD PUSH1 0x11 DUP8 ADD SLOAD PUSH2 0x3B44 SWAP2 DUP11 SWAP2 PUSH2 0x3B2C SWAP1 PUSH1 0xFF AND PUSH1 0xA PUSH2 0x493E JUMP JUMPDEST DUP5 PUSH1 0x20 ADD MLOAD PUSH1 0x1 PUSH1 0x1 PUSH1 0x60 SHL SUB AND PUSH2 0x271D SWAP2 SWAP1 PUSH2 0x49A4 JUMP JUMPDEST DUP1 PUSH1 0x60 ADD MLOAD SWAP3 POP DUP3 SWAP4 POP PUSH2 0x3B6C JUMP JUMPDEST PUSH1 0x20 DUP2 ADD MLOAD PUSH2 0x3B62 SWAP1 DUP13 PUSH2 0x4A2E JUMP JUMPDEST SWAP11 POP DUP1 PUSH1 0x60 ADD MLOAD SWAP3 POP JUMPDEST POP PUSH2 0x3A4D JUMP JUMPDEST PUSH3 0xFFFFFF DUP4 AND ISZERO PUSH2 0x3B93 JUMPI PUSH1 0x7 DUP6 ADD DUP1 SLOAD PUSH3 0xFFFFFF NOT AND PUSH3 0xFFFFFF DUP6 AND OR SWAP1 SSTORE JUMPDEST POP POP POP PUSH1 0x7 DUP3 ADD SLOAD PUSH1 0x0 SWAP1 PUSH4 0x1000000 SWAP1 DIV PUSH3 0xFFFFFF AND PUSH1 0x3 DUP5 ADD JUMPDEST DUP1 SLOAD PUSH3 0xFFFFFF DUP4 AND LT ISZERO PUSH2 0x3CC1 JUMPI PUSH1 0x0 DUP2 DUP4 PUSH3 0xFFFFFF AND DUP2 SLOAD DUP2 LT PUSH2 0x3BD6 JUMPI PUSH2 0x3BD6 PUSH2 0x482E JUMP JUMPDEST PUSH1 0x0 SWAP2 DUP3 MSTORE PUSH1 0x20 SWAP2 DUP3 SWAP1 KECCAK256 PUSH1 0x40 DUP1 MLOAD PUSH1 0xC0 DUP2 ADD DUP3 MSTORE PUSH1 0x2 SWAP1 SWAP4 MUL SWAP1 SWAP2 ADD DUP1 SLOAD PUSH1 0x1 PUSH1 0x1 PUSH1 0xA0 SHL SUB DUP2 AND DUP5 MSTORE PUSH1 0x1 PUSH1 0x1 PUSH1 0x60 SHL SUB PUSH1 0x1 PUSH1 0xA0 SHL SWAP1 SWAP2 DIV DUP2 AND SWAP5 DUP5 ADD SWAP5 SWAP1 SWAP5 MSTORE PUSH1 0x1 ADD SLOAD PUSH3 0xFFFFFF DUP1 DUP3 AND SWAP3 DUP5 ADD SWAP3 SWAP1 SWAP3 MSTORE PUSH4 0x1000000 DUP2 DIV DUP3 AND PUSH1 0x60 DUP5 ADD MSTORE PUSH1 0x1 PUSH1 0x30 SHL DUP2 DIV DUP3 AND PUSH1 0x80 DUP5 ADD DUP2 SWAP1 MSTORE PUSH1 0x1 PUSH1 0x48 SHL SWAP1 SWAP2 DIV SWAP1 SWAP4 AND PUSH1 0xA0 DUP4 ADD MSTORE PUSH1 0x6 SLOAD SWAP2 SWAP4 POP DUP8 AND SWAP2 PUSH2 0x3C6D SWAP2 SWAP1 PUSH2 0x4BD5 JUMP JUMPDEST LT ISZERO PUSH2 0x3CA2 JUMPI DUP1 MLOAD PUSH1 0x11 DUP8 ADD SLOAD PUSH2 0x3C93 SWAP2 DUP10 SWAP2 PUSH2 0x3B2C SWAP1 PUSH2 0x100 SWAP1 DIV PUSH1 0xFF AND PUSH1 0xA PUSH2 0x493E JUMP JUMPDEST DUP1 PUSH1 0x60 ADD MLOAD SWAP3 POP DUP3 SWAP4 POP PUSH2 0x3CBB JUMP JUMPDEST PUSH1 0x20 DUP2 ADD MLOAD PUSH2 0x3CB1 SWAP1 DUP12 PUSH2 0x4A2E JUMP JUMPDEST SWAP10 POP DUP1 PUSH1 0x60 ADD MLOAD SWAP3 POP JUMPDEST POP PUSH2 0x3BAF JUMP JUMPDEST PUSH3 0xFFFFFF DUP4 AND ISZERO PUSH2 0x3CEB JUMPI PUSH1 0x7 DUP6 ADD DUP1 SLOAD PUSH6 0xFFFFFF000000 NOT AND PUSH4 0x1000000 PUSH3 0xFFFFFF DUP7 AND MUL OR SWAP1 SSTORE JUMPDEST POP POP POP POP POP POP POP POP SWAP3 POP SWAP3 SWAP1 POP JUMP JUMPDEST PUSH1 0x40 DUP1 MLOAD PUSH1 0x1 PUSH1 0x1 PUSH1 0xA0 SHL SUB DUP5 DUP2 AND PUSH1 0x24 DUP4 ADD MSTORE PUSH1 0x44 DUP1 DUP4 ADD DUP6 SWAP1 MSTORE DUP4 MLOAD DUP1 DUP5 SUB SWAP1 SWAP2 ADD DUP2 MSTORE PUSH1 0x64 SWAP1 SWAP3 ADD DUP4 MSTORE PUSH1 0x20 DUP3 ADD DUP1 MLOAD PUSH1 0x1 PUSH1 0x1 PUSH1 0xE0 SHL SUB AND PUSH4 0xA9059CBB PUSH1 0xE0 SHL OR SWAP1 MSTORE SWAP2 MLOAD SWAP2 DUP6 AND SWAP2 PUSH2 0x3D51 SWAP2 SWAP1 PUSH2 0x4BA6 JUMP JUMPDEST PUSH1 0x0 PUSH1 0x40 MLOAD DUP1 DUP4 SUB DUP2 PUSH1 0x0 DUP7 GAS CALL SWAP2 POP POP RETURNDATASIZE DUP1 PUSH1 0x0 DUP2 EQ PUSH2 0x290D JUMPI PUSH1 0x40 MLOAD SWAP2 POP PUSH1 0x1F NOT PUSH1 0x3F RETURNDATASIZE ADD AND DUP3 ADD PUSH1 0x40 MSTORE RETURNDATASIZE DUP3 MSTORE RETURNDATASIZE PUSH1 0x0 PUSH1 0x20 DUP5 ADD RETURNDATACOPY PUSH2 0x290D JUMP JUMPDEST PUSH1 0x0 DUP1 DUP4 PUSH1 0x1 PUSH1 0x1 PUSH1 0xA0 SHL SUB AND DUP6 PUSH1 0x1 PUSH1 0x1 PUSH1 0xA0 SHL SUB AND GT PUSH2 0x3DB1 JUMPI DUP5 DUP5 PUSH2 0x3DB4 JUMP JUMPDEST DUP4 DUP6 JUMPDEST PUSH1 0x1 PUSH1 0x1 PUSH1 0xA0 SHL SUB DUP1 DUP4 AND PUSH1 0x0 DUP2 DUP2 MSTORE PUSH1 0x7 PUSH1 0x20 SWAP1 DUP2 MSTORE PUSH1 0x40 DUP1 DUP4 KECCAK256 DUP6 DUP8 AND DUP5 MSTORE SWAP1 SWAP2 MSTORE DUP2 KECCAK256 SWAP5 SWAP7 POP SWAP3 SWAP5 POP DUP8 DUP3 AND SWAP2 DUP10 AND SWAP2 DUP3 GT SWAP3 SWAP2 EQ PUSH2 0x3E06 JUMPI PUSH1 0x7 DUP4 ADD SLOAD PUSH1 0x1 PUSH1 0x48 SHL SWAP1 DIV PUSH3 0xFFFFFF AND PUSH2 0x3E18 JUMP JUMPDEST PUSH1 0x7 DUP4 ADD SLOAD PUSH1 0x1 PUSH1 0x30 SHL SWAP1 DIV PUSH3 0xFFFFFF AND JUMPDEST SWAP1 POP PUSH1 0x0 DUP6 PUSH1 0x1 PUSH1 0x1 PUSH1 0xA0 SHL SUB AND DUP10 PUSH1 0x1 PUSH1 0x1 PUSH1 0xA0 SHL SUB AND EQ PUSH2 0x3E4B JUMPI PUSH1 0x7 DUP5 ADD SLOAD PUSH1 0x1 PUSH1 0xA8 SHL SWAP1 DIV PUSH3 0xFFFFFF AND PUSH2 0x3E5D JUMP JUMPDEST PUSH1 0x7 DUP5 ADD SLOAD PUSH1 0x1 PUSH1 0x90 SHL SWAP1 DIV PUSH3 0xFFFFFF AND JUMPDEST SWAP1 POP PUSH1 0x0 DUP7 PUSH1 0x1 PUSH1 0x1 PUSH1 0xA0 SHL SUB AND DUP11 PUSH1 0x1 PUSH1 0x1 PUSH1 0xA0 SHL SUB AND EQ PUSH2 0x3E83 JUMPI DUP5 PUSH1 0x5 ADD PUSH2 0x3E88 JUMP JUMPDEST DUP5 PUSH1 0x4 ADD JUMPDEST SWAP1 POP DUP4 PUSH2 0x3F43 JUMPI DUP1 DUP9 DUP2 SLOAD DUP2 LT PUSH2 0x3EA1 JUMPI PUSH2 0x3EA1 PUSH2 0x482E JUMP JUMPDEST PUSH1 0x0 SWAP2 DUP3 MSTORE PUSH1 0x20 DUP3 KECCAK256 PUSH1 0x2 SWAP1 SWAP2 MUL ADD SLOAD PUSH1 0xA DUP8 ADD DUP1 SLOAD PUSH1 0x1 PUSH1 0x1 PUSH1 0x60 SHL SUB PUSH1 0x1 PUSH1 0xA0 SHL SWAP1 SWAP4 DIV DUP4 AND SWAP4 SWAP2 SWAP3 PUSH2 0x3ED8 SWAP2 DUP6 SWAP2 AND PUSH2 0x4AF4 JUMP JUMPDEST SWAP3 POP PUSH2 0x100 EXP DUP2 SLOAD DUP2 PUSH1 0x1 PUSH1 0x1 PUSH1 0x60 SHL SUB MUL NOT AND SWAP1 DUP4 PUSH1 0x1 PUSH1 0x1 PUSH1 0x60 SHL SUB AND MUL OR SWAP1 SSTORE POP PUSH1 0x1 DUP6 PUSH1 0xC ADD PUSH1 0x0 ADD PUSH1 0x6 DUP3 DUP3 DUP3 SWAP1 SLOAD SWAP1 PUSH2 0x100 EXP SWAP1 DIV PUSH3 0xFFFFFF AND PUSH2 0x3F22 SWAP2 SWAP1 PUSH2 0x4B67 JUMP JUMPDEST SWAP3 POP PUSH2 0x100 EXP DUP2 SLOAD DUP2 PUSH3 0xFFFFFF MUL NOT AND SWAP1 DUP4 PUSH3 0xFFFFFF AND MUL OR SWAP1 SSTORE POP PUSH2 0x3FFC JUMP JUMPDEST DUP1 DUP9 DUP2 SLOAD DUP2 LT PUSH2 0x3F55 JUMPI PUSH2 0x3F55 PUSH2 0x482E JUMP JUMPDEST PUSH1 0x0 SWAP2 DUP3 MSTORE PUSH1 0x20 SWAP1 SWAP2 KECCAK256 PUSH1 0x2 SWAP1 SWAP2 MUL ADD SLOAD PUSH1 0xA DUP7 ADD DUP1 SLOAD PUSH1 0x1 PUSH1 0x1 PUSH1 0x60 SHL SUB PUSH1 0x1 PUSH1 0xA0 SHL SWAP1 SWAP4 DIV DUP4 AND SWAP3 PUSH1 0xC SWAP2 PUSH2 0x3F95 SWAP2 DUP6 SWAP2 PUSH1 0x1 PUSH1 0x60 SHL SWAP1 DIV AND PUSH2 0x4AF4 JUMP JUMPDEST SWAP3 POP PUSH2 0x100 EXP DUP2 SLOAD DUP2 PUSH1 0x1 PUSH1 0x1 PUSH1 0x60 SHL SUB MUL NOT AND SWAP1 DUP4 PUSH1 0x1 PUSH1 0x1 PUSH1 0x60 SHL SUB AND MUL OR SWAP1 SSTORE POP PUSH1 0x1 DUP6 PUSH1 0xC ADD PUSH1 0x0 ADD PUSH1 0x9 DUP3 DUP3 DUP3 SWAP1 SLOAD SWAP1 PUSH2 0x100 EXP SWAP1 DIV PUSH3 0xFFFFFF AND PUSH2 0x3FDF SWAP2 SWAP1 PUSH2 0x4B67 JUMP JUMPDEST SWAP3 POP PUSH2 0x100 EXP DUP2 SLOAD DUP2 PUSH3 0xFFFFFF MUL NOT AND SWAP1 DUP4 PUSH3 0xFFFFFF AND MUL OR SWAP1 SSTORE POP JUMPDEST DUP3 PUSH3 0xFFFFFF AND DUP9 SUB PUSH2 0x4180 JUMPI DUP2 PUSH3 0xFFFFFF AND DUP9 EQ PUSH2 0x40BE JUMPI DUP1 DUP9 DUP2 SLOAD DUP2 LT PUSH2 0x4026 JUMPI PUSH2 0x4026 PUSH2 0x482E JUMP JUMPDEST SWAP1 PUSH1 0x0 MSTORE PUSH1 0x20 PUSH1 0x0 KECCAK256 SWAP1 PUSH1 0x2 MUL ADD PUSH1 0x1 ADD PUSH1 0x3 SWAP1 SLOAD SWAP1 PUSH2 0x100 EXP SWAP1 DIV PUSH3 0xFFFFFF AND DUP2 DUP3 DUP11 DUP2 SLOAD DUP2 LT PUSH2 0x405A JUMPI PUSH2 0x405A PUSH2 0x482E JUMP JUMPDEST SWAP1 PUSH1 0x0 MSTORE PUSH1 0x20 PUSH1 0x0 KECCAK256 SWAP1 PUSH1 0x2 MUL ADD PUSH1 0x1 ADD PUSH1 0x3 SWAP1 SLOAD SWAP1 PUSH2 0x100 EXP SWAP1 DIV PUSH3 0xFFFFFF AND PUSH3 0xFFFFFF AND DUP2 SLOAD DUP2 LT PUSH2 0x4090 JUMPI PUSH2 0x4090 PUSH2 0x482E JUMP JUMPDEST SWAP1 PUSH1 0x0 MSTORE PUSH1 0x20 PUSH1 0x0 KECCAK256 SWAP1 PUSH1 0x2 MUL ADD PUSH1 0x1 ADD PUSH1 0x0 PUSH2 0x100 EXP DUP2 SLOAD DUP2 PUSH3 0xFFFFFF MUL NOT AND SWAP1 DUP4 PUSH3 0xFFFFFF AND MUL OR SWAP1 SSTORE POP JUMPDEST DUP7 PUSH1 0x1 PUSH1 0x1 PUSH1 0xA0 SHL SUB AND DUP11 PUSH1 0x1 PUSH1 0x1 PUSH1 0xA0 SHL SUB AND SUB PUSH2 0x412D JUMPI DUP1 DUP9 DUP2 SLOAD DUP2 LT PUSH2 0x40E9 JUMPI PUSH2 0x40E9 PUSH2 0x482E JUMP JUMPDEST PUSH1 0x0 SWAP2 DUP3 MSTORE PUSH1 0x20 SWAP1 SWAP2 KECCAK256 PUSH1 0x2 SWAP1 SWAP2 MUL ADD PUSH1 0x1 ADD SLOAD PUSH1 0x7 DUP7 ADD DUP1 SLOAD PUSH9 0xFFFFFF000000000000 NOT AND PUSH4 0x1000000 SWAP1 SWAP3 DIV PUSH3 0xFFFFFF AND PUSH1 0x1 PUSH1 0x30 SHL MUL SWAP2 SWAP1 SWAP2 OR SWAP1 SSTORE PUSH2 0x4427 JUMP JUMPDEST DUP1 DUP9 DUP2 SLOAD DUP2 LT PUSH2 0x413F JUMPI PUSH2 0x413F PUSH2 0x482E JUMP JUMPDEST PUSH1 0x0 SWAP2 DUP3 MSTORE PUSH1 0x20 SWAP1 SWAP2 KECCAK256 PUSH1 0x2 SWAP1 SWAP2 MUL ADD PUSH1 0x1 ADD SLOAD PUSH1 0x7 DUP7 ADD DUP1 SLOAD PUSH3 0xFFFFFF PUSH1 0x48 SHL NOT AND PUSH4 0x1000000 SWAP1 SWAP3 DIV PUSH3 0xFFFFFF AND PUSH1 0x1 PUSH1 0x48 SHL MUL SWAP2 SWAP1 SWAP2 OR SWAP1 SSTORE PUSH2 0x4427 JUMP JUMPDEST DUP2 PUSH3 0xFFFFFF AND DUP9 SUB PUSH2 0x42DE JUMPI DUP1 DUP9 DUP2 SLOAD DUP2 LT PUSH2 0x419E JUMPI PUSH2 0x419E PUSH2 0x482E JUMP JUMPDEST SWAP1 PUSH1 0x0 MSTORE PUSH1 0x20 PUSH1 0x0 KECCAK256 SWAP1 PUSH1 0x2 MUL ADD PUSH1 0x1 ADD PUSH1 0x3 SWAP1 SLOAD SWAP1 PUSH2 0x100 EXP SWAP1 DIV PUSH3 0xFFFFFF AND DUP2 DUP3 DUP11 DUP2 SLOAD DUP2 LT PUSH2 0x41D2 JUMPI PUSH2 0x41D2 PUSH2 0x482E JUMP JUMPDEST PUSH1 0x0 SWAP2 DUP3 MSTORE PUSH1 0x20 SWAP1 SWAP2 KECCAK256 PUSH1 0x1 PUSH1 0x2 SWAP1 SWAP3 MUL ADD ADD SLOAD DUP2 SLOAD PUSH3 0xFFFFFF SWAP1 SWAP2 AND SWAP1 DUP2 LT PUSH2 0x41FE JUMPI PUSH2 0x41FE PUSH2 0x482E JUMP JUMPDEST SWAP1 PUSH1 0x0 MSTORE PUSH1 0x20 PUSH1 0x0 KECCAK256 SWAP1 PUSH1 0x2 MUL ADD PUSH1 0x1 ADD PUSH1 0x3 PUSH2 0x100 EXP DUP2 SLOAD DUP2 PUSH3 0xFFFFFF MUL NOT AND SWAP1 DUP4 PUSH3 0xFFFFFF AND MUL OR SWAP1 SSTORE POP DUP7 PUSH1 0x1 PUSH1 0x1 PUSH1 0xA0 SHL SUB AND DUP11 PUSH1 0x1 PUSH1 0x1 PUSH1 0xA0 SHL SUB AND SUB PUSH2 0x4291 JUMPI DUP1 DUP9 DUP2 SLOAD DUP2 LT PUSH2 0x4256 JUMPI PUSH2 0x4256 PUSH2 0x482E JUMP JUMPDEST PUSH1 0x0 SWAP2 DUP3 MSTORE PUSH1 0x20 SWAP1 SWAP2 KECCAK256 PUSH1 0x2 SWAP1 SWAP2 MUL ADD PUSH1 0x1 ADD SLOAD PUSH1 0x7 DUP7 ADD DUP1 SLOAD PUSH3 0xFFFFFF PUSH1 0x90 SHL NOT AND PUSH3 0xFFFFFF SWAP1 SWAP3 AND PUSH1 0x1 PUSH1 0x90 SHL MUL SWAP2 SWAP1 SWAP2 OR SWAP1 SSTORE PUSH2 0x4427 JUMP JUMPDEST DUP1 DUP9 DUP2 SLOAD DUP2 LT PUSH2 0x42A3 JUMPI PUSH2 0x42A3 PUSH2 0x482E JUMP JUMPDEST PUSH1 0x0 SWAP2 DUP3 MSTORE PUSH1 0x20 SWAP1 SWAP2 KECCAK256 PUSH1 0x2 SWAP1 SWAP2 MUL ADD PUSH1 0x1 ADD SLOAD PUSH1 0x7 DUP7 ADD DUP1 SLOAD PUSH3 0xFFFFFF PUSH1 0x48 SHL NOT AND PUSH3 0xFFFFFF SWAP1 SWAP3 AND PUSH1 0x1 PUSH1 0x48 SHL MUL SWAP2 SWAP1 SWAP2 OR SWAP1 SSTORE PUSH2 0x4427 JUMP JUMPDEST DUP1 DUP9 DUP2 SLOAD DUP2 LT PUSH2 0x42F0 JUMPI PUSH2 0x42F0 PUSH2 0x482E JUMP JUMPDEST SWAP1 PUSH1 0x0 MSTORE PUSH1 0x20 PUSH1 0x0 KECCAK256 SWAP1 PUSH1 0x2 MUL ADD PUSH1 0x1 ADD PUSH1 0x3 SWAP1 SLOAD SWAP1 PUSH2 0x100 EXP SWAP1 DIV PUSH3 0xFFFFFF AND DUP2 DUP3 DUP11 DUP2 SLOAD DUP2 LT PUSH2 0x4324 JUMPI PUSH2 0x4324 PUSH2 0x482E JUMP JUMPDEST PUSH1 0x0 SWAP2 DUP3 MSTORE PUSH1 0x20 SWAP1 SWAP2 KECCAK256 PUSH1 0x1 PUSH1 0x2 SWAP1 SWAP3 MUL ADD ADD SLOAD DUP2 SLOAD PUSH3 0xFFFFFF SWAP1 SWAP2 AND SWAP1 DUP2 LT PUSH2 0x4350 JUMPI PUSH2 0x4350 PUSH2 0x482E JUMP JUMPDEST SWAP1 PUSH1 0x0 MSTORE PUSH1 0x20 PUSH1 0x0 KECCAK256 SWAP1 PUSH1 0x2 MUL ADD PUSH1 0x1 ADD PUSH1 0x3 PUSH2 0x100 EXP DUP2 SLOAD DUP2 PUSH3 0xFFFFFF MUL NOT AND SWAP1 DUP4 PUSH3 0xFFFFFF AND MUL OR SWAP1 SSTORE POP DUP1 DUP9 DUP2 SLOAD DUP2 LT PUSH2 0x438F JUMPI PUSH2 0x438F PUSH2 0x482E JUMP JUMPDEST SWAP1 PUSH1 0x0 MSTORE PUSH1 0x20 PUSH1 0x0 KECCAK256 SWAP1 PUSH1 0x2 MUL ADD PUSH1 0x1 ADD PUSH1 0x0 SWAP1 SLOAD SWAP1 PUSH2 0x100 EXP SWAP1 DIV PUSH3 0xFFFFFF AND DUP2 DUP3 DUP11 DUP2 SLOAD DUP2 LT PUSH2 0x43C3 JUMPI PUSH2 0x43C3 PUSH2 0x482E JUMP JUMPDEST SWAP1 PUSH1 0x0 MSTORE PUSH1 0x20 PUSH1 0x0 KECCAK256 SWAP1 PUSH1 0x2 MUL ADD PUSH1 0x1 ADD PUSH1 0x3 SWAP1 SLOAD SWAP1 PUSH2 0x100 EXP SWAP1 DIV PUSH3 0xFFFFFF AND PUSH3 0xFFFFFF AND DUP2 SLOAD DUP2 LT PUSH2 0x43F9 JUMPI PUSH2 0x43F9 PUSH2 0x482E JUMP JUMPDEST SWAP1 PUSH1 0x0 MSTORE PUSH1 0x20 PUSH1 0x0 KECCAK256 SWAP1 PUSH1 0x2 MUL ADD PUSH1 0x1 ADD PUSH1 0x0 PUSH2 0x100 EXP DUP2 SLOAD DUP2 PUSH3 0xFFFFFF MUL NOT AND SWAP1 DUP4 PUSH3 0xFFFFFF AND MUL OR SWAP1 SSTORE POP JUMPDEST PUSH1 0x0 DUP2 DUP10 DUP2 SLOAD DUP2 LT PUSH2 0x443B JUMPI PUSH2 0x443B PUSH2 0x482E JUMP JUMPDEST SWAP1 PUSH1 0x0 MSTORE PUSH1 0x20 PUSH1 0x0 KECCAK256 SWAP1 PUSH1 0x2 MUL ADD PUSH1 0x0 ADD PUSH1 0x14 PUSH2 0x100 EXP DUP2 SLOAD DUP2 PUSH1 0x1 PUSH1 0x1 PUSH1 0x60 SHL SUB MUL NOT AND SWAP1 DUP4 PUSH1 0x1 PUSH1 0x1 PUSH1 0x60 SHL SUB AND MUL OR SWAP1 SSTORE POP POP POP POP POP POP POP POP POP POP POP JUMP JUMPDEST DUP1 CALLDATALOAD PUSH1 0x1 PUSH1 0x1 PUSH1 0xA0 SHL SUB DUP2 AND DUP2 EQ PUSH2 0x4493 JUMPI PUSH1 0x0 DUP1 REVERT JUMPDEST SWAP2 SWAP1 POP JUMP JUMPDEST PUSH1 0x0 DUP1 PUSH1 0x40 DUP4 DUP6 SUB SLT ISZERO PUSH2 0x44AB JUMPI PUSH1 0x0 DUP1 REVERT JUMPDEST PUSH2 0x44B4 DUP4 PUSH2 0x447C JUMP JUMPDEST SWAP2 POP PUSH2 0x44C2 PUSH1 0x20 DUP5 ADD PUSH2 0x447C JUMP JUMPDEST SWAP1 POP SWAP3 POP SWAP3 SWAP1 POP JUMP JUMPDEST PUSH1 0x20 DUP1 DUP3 MSTORE DUP3 MLOAD DUP3 DUP3 ADD DUP2 SWAP1 MSTORE PUSH1 0x0 SWAP2 SWAP1 PUSH1 0x40 SWAP1 DUP2 DUP6 ADD SWAP1 DUP7 DUP5 ADD DUP6 JUMPDEST DUP3 DUP2 LT ISZERO PUSH2 0x4548 JUMPI DUP2 MLOAD DUP1 MLOAD PUSH3 0xFFFFFF SWAP1 DUP2 AND DUP7 MSTORE DUP8 DUP3 ADD MLOAD PUSH1 0x1 PUSH1 0x1 PUSH1 0xA0 SHL SUB AND DUP9 DUP8 ADD MSTORE DUP7 DUP3 ADD MLOAD PUSH1 0x1 PUSH1 0x1 PUSH1 0x60 SHL SUB AND DUP8 DUP8 ADD MSTORE PUSH1 0x60 DUP1 DUP4 ADD MLOAD DUP3 AND SWAP1 DUP8 ADD MSTORE PUSH1 0x80 SWAP2 DUP3 ADD MLOAD AND SWAP1 DUP6 ADD MSTORE PUSH1 0xA0 SWAP1 SWAP4 ADD SWAP3 SWAP1 DUP6 ADD SWAP1 PUSH1 0x1 ADD PUSH2 0x44E8 JUMP JUMPDEST POP SWAP2 SWAP8 SWAP7 POP POP POP POP POP POP POP JUMP JUMPDEST DUP1 CALLDATALOAD PUSH1 0x1 PUSH1 0x1 PUSH1 0x60 SHL SUB DUP2 AND DUP2 EQ PUSH2 0x4493 JUMPI PUSH1 0x0 DUP1 REVERT JUMPDEST PUSH1 0x0 DUP1 PUSH1 0x0 PUSH1 0x60 DUP5 DUP7 SUB SLT ISZERO PUSH2 0x4581 JUMPI PUSH1 0x0 DUP1 REVERT JUMPDEST PUSH2 0x458A DUP5 PUSH2 0x447C JUMP JUMPDEST SWAP3 POP PUSH2 0x4598 PUSH1 0x20 DUP6 ADD PUSH2 0x447C JUMP JUMPDEST SWAP2 POP PUSH2 0x45A6 PUSH1 0x40 DUP6 ADD PUSH2 0x4555 JUMP JUMPDEST SWAP1 POP SWAP3 POP SWAP3 POP SWAP3 JUMP JUMPDEST PUSH1 0x0 DUP1 PUSH1 0x0 DUP1 PUSH1 0x80 DUP6 DUP8 SUB SLT ISZERO PUSH2 0x45C5 JUMPI PUSH1 0x0 DUP1 REVERT JUMPDEST PUSH2 0x45CE DUP6 PUSH2 0x4555 JUMP JUMPDEST SWAP4 POP PUSH2 0x45DC PUSH1 0x20 DUP7 ADD PUSH2 0x4555 JUMP JUMPDEST SWAP3 POP PUSH2 0x45EA PUSH1 0x40 DUP7 ADD PUSH2 0x4555 JUMP JUMPDEST SWAP2 POP PUSH2 0x45F8 PUSH1 0x60 DUP7 ADD PUSH2 0x4555 JUMP JUMPDEST SWAP1 POP SWAP3 SWAP6 SWAP2 SWAP5 POP SWAP3 POP JUMP JUMPDEST PUSH1 0x0 DUP1 PUSH1 0x0 PUSH1 0x60 DUP5 DUP7 SUB SLT ISZERO PUSH2 0x4618 JUMPI PUSH1 0x0 DUP1 REVERT JUMPDEST PUSH2 0x4621 DUP5 PUSH2 0x447C JUMP JUMPDEST SWAP3 POP PUSH2 0x462F PUSH1 0x20 DUP6 ADD PUSH2 0x447C JUMP JUMPDEST SWAP2 POP PUSH1 0x40 DUP5 ADD CALLDATALOAD PUSH3 0xFFFFFF DUP2 AND DUP2 EQ PUSH2 0x4647 JUMPI PUSH1 0x0 DUP1 REVERT JUMPDEST DUP1 SWAP2 POP POP SWAP3 POP SWAP3 POP SWAP3 JUMP JUMPDEST PUSH1 0x20 DUP1 DUP3 MSTORE DUP3 MLOAD DUP3 DUP3 ADD DUP2 SWAP1 MSTORE PUSH1 0x0 SWAP2 SWAP1 DUP5 DUP3 ADD SWAP1 PUSH1 0x40 DUP6 ADD SWAP1 DUP5 JUMPDEST DUP2 DUP2 LT ISZERO PUSH2 0x468F JUMPI DUP4 MLOAD PUSH3 0xFFFFFF AND DUP4 MSTORE SWAP3 DUP5 ADD SWAP3 SWAP2 DUP5 ADD SWAP2 PUSH1 0x1 ADD PUSH2 0x466E JUMP JUMPDEST POP SWAP1 SWAP7 SWAP6 POP POP POP POP POP POP JUMP JUMPDEST PUSH1 0x20 DUP1 DUP3 MSTORE DUP3 MLOAD DUP3 DUP3 ADD DUP2 SWAP1 MSTORE PUSH1 0x0 SWAP2 SWAP1 PUSH1 0x40 SWAP1 DUP2 DUP6 ADD SWAP1 DUP7 DUP5 ADD DUP6 JUMPDEST DUP3 DUP2 LT ISZERO PUSH2 0x4548 JUMPI DUP2 MLOAD DUP1 MLOAD PUSH3 0xFFFFFF SWAP1 DUP2 AND DUP7 MSTORE DUP8 DUP3 ADD MLOAD PUSH1 0x1 PUSH1 0x1 PUSH1 0xA0 SHL SUB AND DUP9 DUP8 ADD MSTORE DUP7 DUP3 ADD MLOAD PUSH1 0x1 PUSH1 0x1 PUSH1 0x60 SHL SUB AND DUP8 DUP8 ADD MSTORE PUSH1 0x60 DUP1 DUP4 ADD MLOAD DUP3 AND SWAP1 DUP8 ADD MSTORE PUSH1 0x80 DUP1 DUP4 ADD MLOAD SWAP1 SWAP2 AND SWAP1 DUP7 ADD MSTORE PUSH1 0xA0 DUP1 DUP3 ADD MLOAD PUSH2 0x4722 DUP3 DUP9 ADD DUP3 PUSH1 0x1 PUSH1 0x1 PUSH1 0x60 SHL SUB AND SWAP1 MSTORE JUMP JUMPDEST POP POP PUSH1 0xC0 SWAP1 DUP2 ADD MLOAD PUSH3 0xFFFFFF AND SWAP1 DUP6 ADD MSTORE PUSH1 0xE0 SWAP1 SWAP4 ADD SWAP3 SWAP1 DUP6 ADD SWAP1 PUSH1 0x1 ADD PUSH2 0x46B8 JUMP JUMPDEST PUSH1 0x0 DUP2 MLOAD DUP1 DUP5 MSTORE PUSH1 0x20 DUP1 DUP6 ADD SWAP5 POP DUP1 DUP5 ADD PUSH1 0x0 JUMPDEST DUP4 DUP2 LT ISZERO PUSH2 0x47CD JUMPI DUP2 MLOAD DUP1 MLOAD PUSH1 0x1 PUSH1 0x1 PUSH1 0xA0 SHL SUB AND DUP9 MSTORE DUP4 DUP2 ADD MLOAD PUSH1 0x1 PUSH1 0x1 PUSH1 0x60 SHL SUB SWAP1 DUP2 AND DUP6 DUP11 ADD MSTORE PUSH1 0x40 DUP1 DUP4 ADD MLOAD PUSH3 0xFFFFFF SWAP1 DUP2 AND SWAP2 DUP12 ADD SWAP2 SWAP1 SWAP2 MSTORE PUSH1 0x60 DUP1 DUP5 ADD MLOAD DUP3 AND SWAP1 DUP12 ADD MSTORE PUSH1 0x80 DUP1 DUP5 ADD MLOAD SWAP1 SWAP2 AND SWAP1 DUP11 ADD MSTORE PUSH1 0xA0 SWAP2 DUP3 ADD MLOAD AND SWAP1 DUP9 ADD MSTORE PUSH1 0xC0 SWAP1 SWAP7 ADD SWAP6 SWAP1 DUP3 ADD SWAP1 PUSH1 0x1 ADD PUSH2 0x4759 JUMP JUMPDEST POP SWAP5 SWAP6 SWAP5 POP POP POP POP POP JUMP JUMPDEST PUSH1 0x40 DUP2 MSTORE PUSH1 0x0 PUSH2 0x47EB PUSH1 0x40 DUP4 ADD DUP6 PUSH2 0x4745 JUMP JUMPDEST DUP3 DUP2 SUB PUSH1 0x20 DUP5 ADD MSTORE PUSH2 0x2EA3 DUP2 DUP6 PUSH2 0x4745 JUMP JUMPDEST PUSH1 0x0 PUSH1 0x20 DUP3 DUP5 SUB SLT ISZERO PUSH2 0x480F JUMPI PUSH1 0x0 DUP1 REVERT JUMPDEST PUSH2 0xED3 DUP3 PUSH2 0x447C JUMP JUMPDEST PUSH4 0x4E487B71 PUSH1 0xE0 SHL PUSH1 0x0 MSTORE PUSH1 0x41 PUSH1 0x4 MSTORE PUSH1 0x24 PUSH1 0x0 REVERT JUMPDEST PUSH4 0x4E487B71 PUSH1 0xE0 SHL PUSH1 0x0 MSTORE PUSH1 0x32 PUSH1 0x4 MSTORE PUSH1 0x24 PUSH1 0x0 REVERT JUMPDEST PUSH4 0x4E487B71 PUSH1 0xE0 SHL PUSH1 0x0 MSTORE PUSH1 0x11 PUSH1 0x4 MSTORE PUSH1 0x24 PUSH1 0x0 REVERT JUMPDEST PUSH1 0x1 DUP2 DUP2 JUMPDEST DUP1 DUP6 GT ISZERO PUSH2 0x4895 JUMPI DUP2 PUSH1 0x0 NOT DIV DUP3 GT ISZERO PUSH2 0x487B JUMPI PUSH2 0x487B PUSH2 0x4844 JUMP JUMPDEST DUP1 DUP6 AND ISZERO PUSH2 0x4888 JUMPI SWAP2 DUP2 MUL SWAP2 JUMPDEST SWAP4 DUP5 SHR SWAP4 SWAP1 DUP1 MUL SWAP1 PUSH2 0x485F JUMP JUMPDEST POP SWAP3 POP SWAP3 SWAP1 POP JUMP JUMPDEST PUSH1 0x0 DUP3 PUSH2 0x48AC JUMPI POP PUSH1 0x1 PUSH2 0x757 JUMP JUMPDEST DUP2 PUSH2 0x48B9 JUMPI POP PUSH1 0x0 PUSH2 0x757 JUMP JUMPDEST DUP2 PUSH1 0x1 DUP2 EQ PUSH2 0x48CF JUMPI PUSH1 0x2 DUP2 EQ PUSH2 0x48D9 JUMPI PUSH2 0x48F5 JUMP JUMPDEST PUSH1 0x1 SWAP2 POP POP PUSH2 0x757 JUMP JUMPDEST PUSH1 0xFF DUP5 GT ISZERO PUSH2 0x48EA JUMPI PUSH2 0x48EA PUSH2 0x4844 JUMP JUMPDEST POP POP PUSH1 0x1 DUP3 SHL PUSH2 0x757 JUMP JUMPDEST POP PUSH1 0x20 DUP4 LT PUSH2 0x133 DUP4 LT AND PUSH1 0x4E DUP5 LT PUSH1 0xB DUP5 LT AND OR ISZERO PUSH2 0x4918 JUMPI POP DUP2 DUP2 EXP PUSH2 0x757 JUMP JUMPDEST PUSH2 0x4922 DUP4 DUP4 PUSH2 0x485A JUMP JUMPDEST DUP1 PUSH1 0x0 NOT DIV DUP3 GT ISZERO PUSH2 0x4936 JUMPI PUSH2 0x4936 PUSH2 0x4844 JUMP JUMPDEST MUL SWAP4 SWAP3 POP POP POP JUMP JUMPDEST PUSH1 0x0 PUSH2 0xED3 PUSH1 0xFF DUP5 AND DUP4 PUSH2 0x489D JUMP JUMPDEST PUSH1 0x1 PUSH1 0x1 PUSH1 0x60 SHL SUB DUP2 DUP2 AND DUP4 DUP3 AND MUL DUP1 DUP3 AND SWAP2 SWAP1 DUP3 DUP2 EQ PUSH2 0x4970 JUMPI PUSH2 0x4970 PUSH2 0x4844 JUMP JUMPDEST POP POP SWAP3 SWAP2 POP POP JUMP JUMPDEST PUSH1 0x0 PUSH1 0x1 DUP3 ADD PUSH2 0x498A JUMPI PUSH2 0x498A PUSH2 0x4844 JUMP JUMPDEST POP PUSH1 0x1 ADD SWAP1 JUMP JUMPDEST DUP2 DUP2 SUB DUP2 DUP2 GT ISZERO PUSH2 0x757 JUMPI PUSH2 0x757 PUSH2 0x4844 JUMP JUMPDEST DUP1 DUP3 MUL DUP2 ISZERO DUP3 DUP3 DIV DUP5 EQ OR PUSH2 0x757 JUMPI PUSH2 0x757 PUSH2 0x4844 JUMP JUMPDEST PUSH4 0x4E487B71 PUSH1 0xE0 SHL PUSH1 0x0 MSTORE PUSH1 0x12 PUSH1 0x4 MSTORE PUSH1 0x24 PUSH1 0x0 REVERT JUMPDEST PUSH1 0x0 DUP3 PUSH2 0x49E0 JUMPI PUSH2 0x49E0 PUSH2 0x49BB JUMP JUMPDEST POP DIV SWAP1 JUMP JUMPDEST PUSH1 0x0 PUSH1 0x1 PUSH1 0x1 PUSH1 0x60 SHL SUB DUP1 DUP5 AND DUP1 PUSH2 0x49FF JUMPI PUSH2 0x49FF PUSH2 0x49BB JUMP JUMPDEST SWAP3 AND SWAP2 SWAP1 SWAP2 DIV SWAP3 SWAP2 POP POP JUMP JUMPDEST PUSH3 0xFFFFFF DUP2 DUP2 AND DUP4 DUP3 AND ADD SWAP1 DUP1 DUP3 GT ISZERO PUSH2 0x4A27 JUMPI PUSH2 0x4A27 PUSH2 0x4844 JUMP JUMPDEST POP SWAP3 SWAP2 POP POP JUMP JUMPDEST PUSH1 0x1 PUSH1 0x1 PUSH1 0x60 SHL SUB DUP2 DUP2 AND DUP4 DUP3 AND ADD SWAP1 DUP1 DUP3 GT ISZERO PUSH2 0x4A27 JUMPI PUSH2 0x4A27 PUSH2 0x4844 JUMP JUMPDEST PUSH1 0x0 PUSH3 0xFFFFFF DUP1 DUP4 AND DUP2 DUP2 SUB PUSH2 0x4A66 JUMPI PUSH2 0x4A66 PUSH2 0x4844 JUMP JUMPDEST PUSH1 0x1 ADD SWAP4 SWAP3 POP POP POP JUMP JUMPDEST PUSH1 0x20 DUP1 DUP3 MSTORE PUSH1 0x28 SWAP1 DUP3 ADD MSTORE PUSH32 0x43616E206E6F7420706C6163652074686174206D616E79206F72646572732070 PUSH1 0x40 DUP3 ADD MSTORE PUSH8 0xCAE440CAE0DEC6D PUSH1 0xC3 SHL PUSH1 0x60 DUP3 ADD MSTORE PUSH1 0x80 ADD SWAP1 JUMP JUMPDEST PUSH1 0x1 PUSH1 0x1 PUSH1 0xA0 SHL SUB SWAP6 DUP7 AND DUP2 MSTORE SWAP4 DUP6 AND PUSH1 0x20 DUP6 ADD MSTORE SWAP2 SWAP1 SWAP4 AND PUSH1 0x40 DUP4 ADD MSTORE PUSH1 0x1 PUSH1 0x1 PUSH1 0x60 SHL SUB SWAP1 SWAP3 AND PUSH1 0x60 DUP3 ADD MSTORE SWAP1 ISZERO ISZERO PUSH1 0x80 DUP3 ADD MSTORE PUSH1 0xA0 ADD SWAP1 JUMP JUMPDEST PUSH1 0x1 PUSH1 0x1 PUSH1 0x60 SHL SUB DUP3 DUP2 AND DUP3 DUP3 AND SUB SWAP1 DUP1 DUP3 GT ISZERO PUSH2 0x4A27 JUMPI PUSH2 0x4A27 PUSH2 0x4844 JUMP JUMPDEST PUSH1 0x20 DUP1 DUP3 MSTORE PUSH1 0x33 SWAP1 DUP3 ADD MSTORE PUSH32 0x4E6F20646F75626C652063616E63656C6174696F6E732E204F72646572206973 PUSH1 0x40 DUP3 ADD MSTORE PUSH19 0x81B585C9AD95908185CC818D85B98D95B1959 PUSH1 0x6A SHL PUSH1 0x60 DUP3 ADD MSTORE PUSH1 0x80 ADD SWAP1 JUMP JUMPDEST PUSH3 0xFFFFFF DUP3 DUP2 AND DUP3 DUP3 AND SUB SWAP1 DUP1 DUP3 GT ISZERO PUSH2 0x4A27 JUMPI PUSH2 0x4A27 PUSH2 0x4844 JUMP JUMPDEST PUSH1 0x0 PUSH1 0x20 DUP3 DUP5 SUB SLT ISZERO PUSH2 0x4B95 JUMPI PUSH1 0x0 DUP1 REVERT JUMPDEST DUP2 MLOAD PUSH1 0xFF DUP2 AND DUP2 EQ PUSH2 0xED3 JUMPI PUSH1 0x0 DUP1 REVERT JUMPDEST PUSH1 0x0 DUP3 MLOAD PUSH1 0x0 JUMPDEST DUP2 DUP2 LT ISZERO PUSH2 0x4BC7 JUMPI PUSH1 0x20 DUP2 DUP7 ADD DUP2 ADD MLOAD DUP6 DUP4 ADD MSTORE ADD PUSH2 0x4BAD JUMP JUMPDEST POP PUSH1 0x0 SWAP3 ADD SWAP2 DUP3 MSTORE POP SWAP2 SWAP1 POP JUMP JUMPDEST DUP1 DUP3 ADD DUP1 DUP3 GT ISZERO PUSH2 0x757 JUMPI PUSH2 0x757 PUSH2 0x4844 JUMP INVALID LOG2 PUSH5 0x6970667358 0x22 SLT KECCAK256 PUSH6 0x605566C9502F 0xCA 0xB9 0xC0 DUP1 0xB7 PUSH10 0xB537CF5DF63D07AA2D5D 0xDE 0xAF DUP14 SWAP13 PUSH3 0x2EA789 STOP PUSH5 0x736F6C6343 STOP ADDMOD SLT STOP CALLER "
		},
		"gasEstimates": {
			"creation": {
				"codeDepositCost": "3897200",
				"executionCost": "139200",
				"totalCost": "4036400"
			},
			"external": {
				"CanResolve(address,address)": "infinite",
				"MARGIN_BPS()": "2373",
				"REPO_BPS()": "2416",
				"canWithdraw(address,address,uint24)": "infinite",
				"cancelMaker(address,address,uint24)": "infinite",
				"decimals(address)": "infinite",
				"epochspan()": "2395",
				"getAllOrders(address,address)": "infinite",
				"getCanceledMakers(address,address,uint24)": "infinite",
				"getCounts(address,address)": "infinite",
				"getEpoch(address,address)": "infinite",
				"getMakerIndex(address,address)": "infinite",
				"getMakers(address,address)": "infinite",
				"getSums(address,address)": "infinite",
				"getTakerIndex(address,address)": "infinite",
				"getTakers(address,address)": "infinite",
				"get_demands(uint96,uint96,uint96,uint96)": "infinite",
				"max_count()": "2328",
				"max_epochs()": "2352",
				"owner()": "2426",
				"placeMaker(address,address,uint96)": "infinite",
				"placeTaker(address,address,uint96)": "infinite",
				"send(address,address)": "infinite"
			},
			"internal": {
				"delete_maker(address,address,uint256)": "infinite",
				"get_taker_sum(address,address)": "infinite",
				"payout_makers(uint96,address,address,uint8,uint8)": "infinite",
				"payout_takers(uint96,uint96,address,address)": "infinite",
				"processCancelations(address,address)": "infinite",
				"roll_taker_orders(uint96,address,address)": "infinite",
				"transfer(address,address,uint256)": "infinite",
				"transferFrom(address,address,uint256)": "infinite"
			}
		},
		"methodIdentifiers": {
			"CanResolve(address,address)": "3d4aa9f1",
			"MARGIN_BPS()": "b3d0bc94",
			"REPO_BPS()": "f8a646e0",
			"canWithdraw(address,address,uint24)": "6c7dcc82",
			"cancelMaker(address,address,uint24)": "6d577ec2",
			"decimals(address)": "d449a832",
			"epochspan()": "91a79ed9",
			"getAllOrders(address,address)": "d392341f",
			"getCanceledMakers(address,address,uint24)": "942b281c",
			"getCounts(address,address)": "dcb3fc9b",
			"getEpoch(address,address)": "1dbc1c5f",
			"getMakerIndex(address,address)": "ac0c379c",
			"getMakers(address,address)": "ae7dba70",
			"getSums(address,address)": "c588569f",
			"getTakerIndex(address,address)": "a8ca5bc0",
			"getTakers(address,address)": "370ca6c5",
			"get_demands(uint96,uint96,uint96,uint96)": "67592fea",
			"max_count()": "cf74505d",
			"max_epochs()": "3d19da45",
			"owner()": "8da5cb5b",
			"placeMaker(address,address,uint96)": "48515f32",
			"placeTaker(address,address,uint96)": "c571049b",
			"send(address,address)": "b6d9d451"
		}
	},
	"abi": [
		{
			"inputs": [],
			"stateMutability": "nonpayable",
			"type": "constructor"
		},
		{
			"inputs": [],
			"name": "ReentrancyGuardReentrantCall",
			"type": "error"
		},
		{
			"anonymous": false,
			"inputs": [
				{
					"indexed": false,
					"internalType": "address",
					"name": "sell_token",
					"type": "address"
				},
				{
					"indexed": false,
					"internalType": "address",
					"name": "buy_token",
					"type": "address"
				},
				{
					"indexed": false,
					"internalType": "uint24",
					"name": "index",
					"type": "uint24"
				}
			],
			"name": "CanceledOrder",
			"type": "event"
		},
		{
			"anonymous": false,
			"inputs": [
				{
					"indexed": true,
					"internalType": "address",
					"name": "sell_token",
					"type": "address"
				},
				{
					"indexed": true,
					"internalType": "address",
					"name": "buy_token",
					"type": "address"
				},
				{
					"indexed": false,
					"internalType": "address",
					"name": "sender",
					"type": "address"
				},
				{
					"indexed": false,
					"internalType": "uint256",
					"name": "obligation",
					"type": "uint256"
				},
				{
					"indexed": false,
					"internalType": "uint256",
					"name": "order_amount",
					"type": "uint256"
				},
				{
					"indexed": false,
					"internalType": "uint256",
					"name": "index",
					"type": "uint256"
				},
				{
					"indexed": false,
					"internalType": "uint256",
					"name": "epoch",
					"type": "uint256"
				}
			],
			"name": "MakerDefaulted",
			"type": "event"
		},
		{
			"anonymous": false,
			"inputs": [
				{
					"indexed": true,
					"internalType": "address",
					"name": "sell_token",
					"type": "address"
				},
				{
					"indexed": true,
					"internalType": "address",
					"name": "buy_token",
					"type": "address"
				},
				{
					"indexed": false,
					"internalType": "address",
					"name": "sender",
					"type": "address"
				},
				{
					"indexed": false,
					"internalType": "uint256",
					"name": "obligation",
					"type": "uint256"
				},
				{
					"indexed": false,
					"internalType": "uint256",
					"name": "order_amount",
					"type": "uint256"
				},
				{
					"indexed": false,
					"internalType": "uint256",
					"name": "index",
					"type": "uint256"
				},
				{
					"indexed": false,
					"internalType": "uint256",
					"name": "epoch",
					"type": "uint256"
				}
			],
			"name": "MakerPulled",
			"type": "event"
		},
		{
			"anonymous": false,
			"inputs": [
				{
					"indexed": false,
					"internalType": "address",
					"name": "sell_token",
					"type": "address"
				},
				{
					"indexed": false,
					"internalType": "address",
					"name": "buy_token",
					"type": "address"
				},
				{
					"indexed": false,
					"internalType": "address",
					"name": "sender",
					"type": "address"
				},
				{
					"indexed": false,
					"internalType": "uint96",
					"name": "_quantity",
					"type": "uint96"
				},
				{
					"indexed": false,
					"internalType": "bool",
					"name": "maker",
					"type": "bool"
				}
			],
			"name": "OrderPlaced",
			"type": "event"
		},
		{
			"anonymous": false,
			"inputs": [
				{
					"indexed": false,
					"internalType": "string",
					"name": "msg",
					"type": "string"
				}
			],
			"name": "Print",
			"type": "event"
		},
		{
			"anonymous": false,
			"inputs": [
				{
					"indexed": true,
					"internalType": "address",
					"name": "sell_token",
					"type": "address"
				},
				{
					"indexed": true,
					"internalType": "address",
					"name": "buy_token",
					"type": "address"
				},
				{
					"indexed": false,
					"internalType": "uint256",
					"name": "epoch",
					"type": "uint256"
				}
			],
			"name": "Resolved",
			"type": "event"
		},
		{
			"anonymous": false,
			"inputs": [
				{
					"indexed": false,
					"internalType": "uint256",
					"name": "value",
					"type": "uint256"
				}
			],
			"name": "Value",
			"type": "event"
		},
		{
			"inputs": [
				{
					"internalType": "address",
					"name": "sell_token",
					"type": "address"
				},
				{
					"internalType": "address",
					"name": "buy_token",
					"type": "address"
				}
			],
			"name": "CanResolve",
			"outputs": [
				{
					"internalType": "bool",
					"name": "",
					"type": "bool"
				}
			],
			"stateMutability": "view",
			"type": "function"
		},
		{
			"inputs": [],
			"name": "MARGIN_BPS",
			"outputs": [
				{
					"internalType": "uint256",
					"name": "",
					"type": "uint256"
				}
			],
			"stateMutability": "view",
			"type": "function"
		},
		{
			"inputs": [],
			"name": "REPO_BPS",
			"outputs": [
				{
					"internalType": "uint256",
					"name": "",
					"type": "uint256"
				}
			],
			"stateMutability": "view",
			"type": "function"
		},
		{
			"inputs": [
				{
					"internalType": "address",
					"name": "sell_token",
					"type": "address"
				},
				{
					"internalType": "address",
					"name": "buy_token",
					"type": "address"
				},
				{
					"internalType": "uint24",
					"name": "epoch",
					"type": "uint24"
				}
			],
			"name": "canWithdraw",
			"outputs": [
				{
					"internalType": "bool",
					"name": "",
					"type": "bool"
				}
			],
			"stateMutability": "view",
			"type": "function"
		},
		{
			"inputs": [
				{
					"internalType": "address",
					"name": "sell_token",
					"type": "address"
				},
				{
					"internalType": "address",
					"name": "buy_token",
					"type": "address"
				},
				{
					"internalType": "uint24",
					"name": "maker_index",
					"type": "uint24"
				}
			],
			"name": "cancelMaker",
			"outputs": [],
			"stateMutability": "nonpayable",
			"type": "function"
		},
		{
			"inputs": [
				{
					"internalType": "address",
					"name": "tkn",
					"type": "address"
				}
			],
			"name": "decimals",
			"outputs": [
				{
					"internalType": "uint8",
					"name": "",
					"type": "uint8"
				}
			],
			"stateMutability": "view",
			"type": "function"
		},
		{
			"inputs": [],
			"name": "epochspan",
			"outputs": [
				{
					"internalType": "uint256",
					"name": "",
					"type": "uint256"
				}
			],
			"stateMutability": "view",
			"type": "function"
		},
		{
			"inputs": [
				{
					"internalType": "address",
					"name": "sell_token",
					"type": "address"
				},
				{
					"internalType": "address",
					"name": "buy_token",
					"type": "address"
				}
			],
			"name": "getAllOrders",
			"outputs": [
				{
					"components": [
						{
							"internalType": "address",
							"name": "sender",
							"type": "address"
						},
						{
							"internalType": "uint96",
							"name": "amount",
							"type": "uint96"
						},
						{
							"internalType": "uint24",
							"name": "prev",
							"type": "uint24"
						},
						{
							"internalType": "uint24",
							"name": "next",
							"type": "uint24"
						},
						{
							"internalType": "uint24",
							"name": "epoch",
							"type": "uint24"
						},
						{
							"internalType": "uint96",
							"name": "balance",
							"type": "uint96"
						}
					],
					"internalType": "struct Single.Order[]",
					"name": "takers",
					"type": "tuple[]"
				},
				{
					"components": [
						{
							"internalType": "address",
							"name": "sender",
							"type": "address"
						},
						{
							"internalType": "uint96",
							"name": "amount",
							"type": "uint96"
						},
						{
							"internalType": "uint24",
							"name": "prev",
							"type": "uint24"
						},
						{
							"internalType": "uint24",
							"name": "next",
							"type": "uint24"
						},
						{
							"internalType": "uint24",
							"name": "epoch",
							"type": "uint24"
						},
						{
							"internalType": "uint96",
							"name": "balance",
							"type": "uint96"
						}
					],
					"internalType": "struct Single.Order[]",
					"name": "makers",
					"type": "tuple[]"
				}
			],
			"stateMutability": "view",
			"type": "function"
		},
		{
			"inputs": [
				{
					"internalType": "address",
					"name": "sell_token",
					"type": "address"
				},
				{
					"internalType": "address",
					"name": "buy_token",
					"type": "address"
				},
				{
					"internalType": "uint24",
					"name": "epoch",
					"type": "uint24"
				}
			],
			"name": "getCanceledMakers",
			"outputs": [
				{
					"internalType": "uint24[]",
					"name": "",
					"type": "uint24[]"
				}
			],
			"stateMutability": "view",
			"type": "function"
		},
		{
			"inputs": [
				{
					"internalType": "address",
					"name": "sell_token",
					"type": "address"
				},
				{
					"internalType": "address",
					"name": "buy_token",
					"type": "address"
				}
			],
			"name": "getCounts",
			"outputs": [
				{
					"internalType": "uint96",
					"name": "",
					"type": "uint96"
				},
				{
					"internalType": "uint96",
					"name": "",
					"type": "uint96"
				},
				{
					"internalType": "uint96",
					"name": "",
					"type": "uint96"
				},
				{
					"internalType": "uint96",
					"name": "",
					"type": "uint96"
				}
			],
			"stateMutability": "view",
			"type": "function"
		},
		{
			"inputs": [
				{
					"internalType": "address",
					"name": "sell_token",
					"type": "address"
				},
				{
					"internalType": "address",
					"name": "buy_token",
					"type": "address"
				}
			],
			"name": "getEpoch",
			"outputs": [
				{
					"internalType": "uint256",
					"name": "epoch_result",
					"type": "uint256"
				}
			],
			"stateMutability": "view",
			"type": "function"
		},
		{
			"inputs": [
				{
					"internalType": "address",
					"name": "sell_token",
					"type": "address"
				},
				{
					"internalType": "address",
					"name": "buy_token",
					"type": "address"
				}
			],
			"name": "getMakerIndex",
			"outputs": [
				{
					"internalType": "uint24",
					"name": "",
					"type": "uint24"
				},
				{
					"internalType": "uint24",
					"name": "",
					"type": "uint24"
				},
				{
					"internalType": "uint24",
					"name": "",
					"type": "uint24"
				},
				{
					"internalType": "uint24",
					"name": "",
					"type": "uint24"
				}
			],
			"stateMutability": "view",
			"type": "function"
		},
		{
			"inputs": [
				{
					"internalType": "address",
					"name": "sell_token",
					"type": "address"
				},
				{
					"internalType": "address",
					"name": "buy_token",
					"type": "address"
				}
			],
			"name": "getMakers",
			"outputs": [
				{
					"components": [
						{
							"internalType": "uint24",
							"name": "index",
							"type": "uint24"
						},
						{
							"internalType": "address",
							"name": "sender",
							"type": "address"
						},
						{
							"internalType": "uint96",
							"name": "amount",
							"type": "uint96"
						},
						{
							"internalType": "uint24",
							"name": "prev",
							"type": "uint24"
						},
						{
							"internalType": "uint24",
							"name": "next",
							"type": "uint24"
						},
						{
							"internalType": "uint96",
							"name": "balance",
							"type": "uint96"
						},
						{
							"internalType": "uint24",
							"name": "epoch",
							"type": "uint24"
						}
					],
					"internalType": "struct Single.MakerEndpoint[]",
					"name": "active_makers",
					"type": "tuple[]"
				}
			],
			"stateMutability": "view",
			"type": "function"
		},
		{
			"inputs": [
				{
					"internalType": "address",
					"name": "sell_token",
					"type": "address"
				},
				{
					"internalType": "address",
					"name": "buy_token",
					"type": "address"
				}
			],
			"name": "getSums",
			"outputs": [
				{
					"internalType": "uint96",
					"name": "",
					"type": "uint96"
				},
				{
					"internalType": "uint96",
					"name": "",
					"type": "uint96"
				},
				{
					"internalType": "uint96",
					"name": "",
					"type": "uint96"
				},
				{
					"internalType": "uint96",
					"name": "",
					"type": "uint96"
				}
			],
			"stateMutability": "view",
			"type": "function"
		},
		{
			"inputs": [
				{
					"internalType": "address",
					"name": "sell_token",
					"type": "address"
				},
				{
					"internalType": "address",
					"name": "buy_token",
					"type": "address"
				}
			],
			"name": "getTakerIndex",
			"outputs": [
				{
					"internalType": "uint24",
					"name": "",
					"type": "uint24"
				},
				{
					"internalType": "uint24",
					"name": "",
					"type": "uint24"
				},
				{
					"internalType": "uint24",
					"name": "",
					"type": "uint24"
				},
				{
					"internalType": "uint24",
					"name": "",
					"type": "uint24"
				}
			],
			"stateMutability": "view",
			"type": "function"
		},
		{
			"inputs": [
				{
					"internalType": "address",
					"name": "sell_token",
					"type": "address"
				},
				{
					"internalType": "address",
					"name": "buy_token",
					"type": "address"
				}
			],
			"name": "getTakers",
			"outputs": [
				{
					"components": [
						{
							"internalType": "uint24",
							"name": "index",
							"type": "uint24"
						},
						{
							"internalType": "address",
							"name": "sender",
							"type": "address"
						},
						{
							"internalType": "uint96",
							"name": "amount",
							"type": "uint96"
						},
						{
							"internalType": "uint24",
							"name": "next",
							"type": "uint24"
						},
						{
							"internalType": "uint24",
							"name": "epoch",
							"type": "uint24"
						}
					],
					"internalType": "struct Single.TakerEndpoint[]",
					"name": "active_takers",
					"type": "tuple[]"
				}
			],
			"stateMutability": "view",
			"type": "function"
		},
		{
			"inputs": [
				{
					"internalType": "uint96",
					"name": "tkr0_sum",
					"type": "uint96"
				},
				{
					"internalType": "uint96",
					"name": "mkr0_sum",
					"type": "uint96"
				},
				{
					"internalType": "uint96",
					"name": "tkr1_sum",
					"type": "uint96"
				},
				{
					"internalType": "uint96",
					"name": "mkr1_sum",
					"type": "uint96"
				}
			],
			"name": "get_demands",
			"outputs": [
				{
					"internalType": "uint96",
					"name": "tkr0_demand",
					"type": "uint96"
				},
				{
					"internalType": "uint96",
					"name": "mkr0_demand",
					"type": "uint96"
				},
				{
					"internalType": "uint96",
					"name": "tkr1_demand",
					"type": "uint96"
				},
				{
					"internalType": "uint96",
					"name": "mkr1_demand",
					"type": "uint96"
				}
			],
			"stateMutability": "pure",
			"type": "function"
		},
		{
			"inputs": [],
			"name": "max_count",
			"outputs": [
				{
					"internalType": "uint256",
					"name": "",
					"type": "uint256"
				}
			],
			"stateMutability": "view",
			"type": "function"
		},
		{
			"inputs": [],
			"name": "max_epochs",
			"outputs": [
				{
					"internalType": "uint256",
					"name": "",
					"type": "uint256"
				}
			],
			"stateMutability": "view",
			"type": "function"
		},
		{
			"inputs": [],
			"name": "owner",
			"outputs": [
				{
					"internalType": "address",
					"name": "",
					"type": "address"
				}
			],
			"stateMutability": "view",
			"type": "function"
		},
		{
			"inputs": [
				{
					"internalType": "address",
					"name": "sell_token",
					"type": "address"
				},
				{
					"internalType": "address",
					"name": "buy_token",
					"type": "address"
				},
				{
					"internalType": "uint96",
					"name": "_quantity",
					"type": "uint96"
				}
			],
			"name": "placeMaker",
			"outputs": [],
			"stateMutability": "nonpayable",
			"type": "function"
		},
		{
			"inputs": [
				{
					"internalType": "address",
					"name": "sell_token",
					"type": "address"
				},
				{
					"internalType": "address",
					"name": "buy_token",
					"type": "address"
				},
				{
					"internalType": "uint96",
					"name": "_quantity",
					"type": "uint96"
				}
			],
			"name": "placeTaker",
			"outputs": [],
			"stateMutability": "nonpayable",
			"type": "function"
		},
		{
			"inputs": [
				{
					"internalType": "address",
					"name": "sell_token",
					"type": "address"
				},
				{
					"internalType": "address",
					"name": "buy_token",
					"type": "address"
				}
			],
			"name": "send",
			"outputs": [],
			"stateMutability": "nonpayable",
			"type": "function"
		}
	]
}