{
	"data": {
		"bytecode": {
			"linkReferences": {},
			"object": "60a0604052603c600a556064600b556014600c556064600d553480156200002557600080fd5b5060405162005e6b38038062005e6b8339810160408190526200004891620000e2565b8180620000553362000092565b6001600160a01b0316608052506007805461ffff90921661ffff1990921691909117905550600980546001600160a01b0319163317905562000132565b600080546001600160a01b038381166001600160a01b0319831681178455604051919092169283917f8be0079c531659141344cd1fd0a4f28419497f9722a3daafe3b4186f6b6457e09190a35050565b60008060408385031215620000f657600080fd5b82516001600160a01b03811681146200010e57600080fd5b602084015190925061ffff811681146200012757600080fd5b809150509250929050565b608051615cec6200017f600039600081816108e301528181610c3501528181610fdf0152818161110b01528181611ecb01528181612af4015281816133c00152613fa20152615cec6000f3fe6080604052600436106102cc5760003560e01c80638cfd8f5c11610175578063c4461834116100dc578063d1deba1f11610095578063e3ee1dac1161006f578063e3ee1dac14610b7d578063eb8d72b714610bd2578063f2fde38b14610bf2578063f5ecbdbc14610c1257600080fd5b8063d1deba1f14610b2a578063dbeec32d14610b3d578063df2a5b3b14610b5d57600080fd5b8063c446183414610a5e578063c9de705c14610a74578063cbed8b9c14610a94578063cc64025f14610ab4578063ceb9e71914610ad4578063cfe27eba14610af457600080fd5b8063a6c3d1651161012e578063a6c3d16514610891578063a7b6fa18146108b1578063b353aaa7146108d1578063b3d0bc9414610905578063b43706981461091b578063baf3292d14610a3e57600080fd5b80638cfd8f5c146107d05780638da5cb5b1461080857806391a79ed914610826578063950c8a741461083c578063961be3911461085c5780639f38369a1461087157600080fd5b806330ff44b61161023457806342d65a8d116101ed57806366ad5c8a116101c757806366ad5c8a14610736578063715018a6146107565780637533d7881461076b578063786f8a331461079857600080fd5b806342d65a8d1461069a5780634de44578146106ba5780635b8c41e6146106e757600080fd5b806330ff44b6146105b55780633414e6a5146105e35780633583fe50146106035780633d19da45146106275780633d8b38f61461063d5780633f1f4fa41461066d57600080fd5b806310ddb1371161028657806310ddb137146103aa5780631546094e146103ca5780631aabb482146103ea578063225a030414610418578063299299d31461043857806329d526a81461057557600080fd5b80621d3567146102d85780630779afe6146102fa57806307e0db171461030d5780630bc6e26b1461032d5780630c0f9db01461034d5780630df374831461038a57600080fd5b366102d357005b600080fd5b3480156102e457600080fd5b506102f86102f3366004614c61565b610c32565b005b6102f8610308366004614d0b565b610e63565b34801561031957600080fd5b506102f8610328366004614d4c565b610fbe565b34801561033957600080fd5b506102f8610348366004614d0b565b611047565b34801561035957600080fd5b5060095461036d906001600160a01b031681565b6040516001600160a01b0390911681526020015b60405180910390f35b34801561039657600080fd5b506102f86103a5366004614d69565b6110cb565b3480156103b657600080fd5b506102f86103c5366004614d4c565b6110ea565b3480156103d657600080fd5b506102f86103e5366004614da6565b611142565b3480156103f657600080fd5b5061040a610405366004614e0e565b61115e565b604051610381929190614e56565b34801561042457600080fd5b506102f8610433366004614da6565b6119db565b34801561044457600080fd5b50610514610453366004614d0b565b6040805160c081018252600080825260208201819052918101829052606081018290526080810182905260a08101919091525060009081526006602081815260408084206001600160a01b039687168552825280842094909516835292835290839020835160c081018552918101546001600160601b038082168452600160601b918290048116948401949094526007820154808516958401959095529384900483166060830152600801548083166080830152929092041660a082015290565b6040516103819190600060c0820190506001600160601b038084511683528060208501511660208401528060408501511660408401528060608501511660608401528060808501511660808401528060a08501511660a08401525092915050565b34801561058157600080fd5b50610595610590366004614eca565b611a63565b604080516001600160601b03938416815292909116602083015201610381565b3480156105c157600080fd5b506007546105d09061ffff1681565b60405161ffff9091168152602001610381565b3480156105ef57600080fd5b506102f86105fe366004614e0e565b611b1a565b34801561060f57600080fd5b50610619600d5481565b604051908152602001610381565b34801561063357600080fd5b50610619600c5481565b34801561064957600080fd5b5061065d610658366004614f3b565b611de0565b6040519015158152602001610381565b34801561067957600080fd5b50610619610688366004614d4c565b60036020526000908152604090205481565b3480156106a657600080fd5b506102f86106b5366004614f3b565b611eac565b3480156106c657600080fd5b506106da6106d5366004614d0b565b611f32565b6040516103819190614f8f565b3480156106f357600080fd5b506106196107023660046150ef565b6005602090815260009384526040808520845180860184018051928152908401958401959095209452929052825290205481565b34801561074257600080fd5b506102f8610751366004614c61565b61221f565b34801561076257600080fd5b506102f86122fb565b34801561077757600080fd5b5061078b610786366004614d4c565b61230f565b60405161038191906151e1565b3480156107a457600080fd5b506107b86107b3366004614d0b565b6123a9565b6040516001600160601b039091168152602001610381565b3480156107dc57600080fd5b506106196107eb3660046151f4565b600260209081526000928352604080842090915290825290205481565b34801561081457600080fd5b506000546001600160a01b031661036d565b34801561083257600080fd5b50610619600a5481565b34801561084857600080fd5b5060045461036d906001600160a01b031681565b34801561086857600080fd5b506102f861252c565b34801561087d57600080fd5b5061078b61088c366004614d4c565b612576565b34801561089d57600080fd5b506102f86108ac366004614f3b565b61268c565b3480156108bd57600080fd5b506106da6108cc366004614d0b565b612715565b3480156108dd57600080fd5b5061036d7f000000000000000000000000000000000000000000000000000000000000000081565b34801561091157600080fd5b50610619600b5481565b34801561092757600080fd5b50610a31610936366004614d0b565b6040805161010081018252600080825260208201819052918101829052606081018290526080810182905260a0810182905260c0810182905260e08101919091525060009081526006602090815260408083206001600160a01b0395861684528252808320939094168252918252829020825161010081018452600482015462ffffff808216835263010000008204811694830194909452600160301b8104841694820194909452600160481b840483166060820152600160601b938490046001600160601b03908116608083015260059092015480831660a083015293840490921660c0830152600160781b90920490911660e082015290565b604051610381919061522d565b348015610a4a57600080fd5b506102f8610a593660046152cb565b6129d9565b348015610a6a57600080fd5b5061061961271081565b348015610a8057600080fd5b506102f8610a8f3660046152e8565b612a35565b348015610aa057600080fd5b506102f8610aaf366004615306565b612ad5565b348015610ac057600080fd5b506102f8610acf366004614da6565b612b6a565b348015610ae057600080fd5b5061065d610aef366004614d0b565b612c2e565b348015610b0057600080fd5b5061036d610b0f366004614d4c565b6008602052600090815260409020546001600160a01b031681565b6102f8610b38366004614c61565b612ca0565b348015610b4957600080fd5b506102f8610b58366004614e0e565b612eb6565b348015610b6957600080fd5b506102f8610b78366004615378565b61320a565b348015610b8957600080fd5b50610619610b98366004614d0b565b60009081526006602090815260408083206001600160a01b039586168452825280832093909416825291909152206009015462ffffff1690565b348015610bde57600080fd5b506102f8610bed366004614f3b565b6132bc565b348015610bfe57600080fd5b506102f8610c0d3660046152cb565b613316565b348015610c1e57600080fd5b5061078b610c2d3660046153a8565b61338f565b337f00000000000000000000000000000000000000000000000000000000000000006001600160a01b031614610caf5760405162461bcd60e51b815260206004820152601e60248201527f4c7a4170703a20696e76616c696420656e64706f696e742063616c6c6572000060448201526064015b60405180910390fd5b61ffff861660009081526001602052604081208054610ccd906153f9565b80601f0160208091040260200160405190810160405280929190818152602001828054610cf9906153f9565b8015610d465780601f10610d1b57610100808354040283529160200191610d46565b820191906000526020600020905b815481529060010190602001808311610d2957829003601f168201915b50505050509050805186869050148015610d61575060008151115b8015610d89575080516020820120604051610d7f9088908890615433565b6040518091039020145b610de45760405162461bcd60e51b815260206004820152602660248201527f4c7a4170703a20696e76616c696420736f757263652073656e64696e6720636f6044820152651b9d1c9858dd60d21b6064820152608401610ca6565b610e5a8787878080601f01602080910402602001604051908101604052809392919081815260200183838082843760009201919091525050604080516020601f8a018190048102820181019092528881528a93509150889088908190840183828082843760009201919091525061343792505050565b50505050505050565b60008181526006602090815260408083206001600160a01b0387811685529083528184209086168452909152902060098101546301000000900460ff1615610ee55760405162461bcd60e51b8152602060048201526015602482015274216177616974206c7a20696e626f756e64206d736760581b6044820152606401610ca6565b600a546005820154610f0790600160781b90046001600160601b031642615459565b11610f475760405162461bcd60e51b815260206004820152601060248201526f02161776169742074696d657374616d760841b6044820152606401610ca6565b610f5a67016345785d8a00006002615472565b471015610f9a5760405162461bcd60e51b815260206004820152600e60248201526d0859d85cd31a5b5a5d081cd95b9960921b6044820152606401610ca6565b610fa58484846134b0565b600901805463ff00000019166301000000179055505050565b610fc66136b5565b6040516307e0db1760e01b815261ffff821660048201527f00000000000000000000000000000000000000000000000000000000000000006001600160a01b0316906307e0db17906024015b600060405180830381600087803b15801561102c57600080fd5b505af1158015611040573d6000803e3d6000fd5b5050505050565b60008181526006602090815260408083206001600160a01b03808816855290835281842090861684529091529020600a54600d546110859190615472565b60058201546110a490600160781b90046001600160601b031642615459565b116110ae57600080fd5b600901805467ff000000000000001916600160381b179055505050565b6110d36136b5565b61ffff909116600090815260036020526040902055565b6110f26136b5565b6040516310ddb13760e01b815261ffff821660048201527f00000000000000000000000000000000000000000000000000000000000000006001600160a01b0316906310ddb13790602401611012565b61114a6136b5565b61115884848484600061370f565b50505050565b604080516064808252610ca0820190925260609160009190816020015b604080518082019091526000808252602082015281526020019060019003908161117b57505060008581526006602081815260408084206001600160a01b038c81168652908352818520908b1685528252808420815160c0810183528581529283018590526060830185905260a0830194909452600484015462ffffff80821692840192909252600160301b900416608082015290820154600883015493955091926002840192600385019291611251916001600160601b0380821692600160601b92839004821692828216929104168b611a63565b6001600160601b039081166020840152168152600080805b83516001600160601b0316156115b15783600001516001600160601b031686856040015162ffffff16815481106112a2576112a2615489565b6000918252602090912060029091020154600160a01b90046001600160601b0316106112cf57835161130c565b85846040015162ffffff16815481106112ea576112ea615489565b6000918252602090912060029091020154600160a01b90046001600160601b03165b925085846040015162ffffff168154811061132957611329615489565b906000526020600020906002020160000160009054906101000a90046001600160a01b0316915085846040015162ffffff168154811061136b5761136b615489565b906000526020600020906002020160010160039054906101000a900462ffffff16905060006040518060400160405280846001600160a01b03168152602001856001600160601b03168152509050808a8660a0015162ffffff16815181106113d5576113d5615489565b602002602001018190525060018560a0018181516113f3919061549f565b62ffffff1690525084516001600160601b03808616911603611582576004880180546bffffffffffffffffffffffff60601b1916600160601b6001600160601b038716810291909117909155604086015160058a01805462ffffff60601b191662ffffff9092169283029190911790558754889190811061147657611476615489565b6000918252602090912060029091020154600589018054600160a01b9092046001600160601b03166001600160601b031990921691909117905560408501518754889162ffffff169081106114cd576114cd615489565b60009182526020909120600290910201546001600160601b03600160a01b9091048116908516036115085762ffffff82166040860152611579565b8387866040015162ffffff168154811061152457611524615489565b600091825260209091206002909102018054601490611554908490600160a01b90046001600160601b03166154bb565b92506101000a8154816001600160601b0302191690836001600160601b031602179055505b600085526115ab565b62ffffff8216604086015284518490869061159e9083906154bb565b6001600160601b03169052505b50611269565b60208401516001600160601b0316156119a45783602001516001600160601b031685856080015162ffffff16815481106115ed576115ed615489565b6000918252602090912060029091020154600160a01b90046001600160601b03161061161d57836020015161165a565b84846080015162ffffff168154811061163857611638615489565b6000918252602090912060029091020154600160a01b90046001600160601b03165b925084846080015162ffffff168154811061167757611677615489565b906000526020600020906002020160000160009054906101000a90046001600160a01b0316915084846080015162ffffff16815481106116b9576116b9615489565b6000918252602082206001600290920201015462ffffff63010000009091041691506116ef8e846001600160601b0387166138b2565b90508015611834578c6001600160a01b03168e6001600160a01b03167f0deab98aa32d0cdda9dbaff1d2132cbd7a2262f53b63b25060be8898ddabb3108e86888a6080015160405161174494939291906154db565b60405180910390a360006040518060400160405280856001600160a01b03168152602001866001600160601b03168152509050808b8760a0015162ffffff168151811061179357611793615489565b602090810291909101015260a086018051906117ae8261550d565b62ffffff1662ffffff16815250508487876080015162ffffff16815481106117d8576117d8615489565b906000526020600020906002020160010160098282829054906101000a90046001600160601b031661180a919061552f565b92506101000a8154816001600160601b0302191690836001600160601b0316021790555050611975565b8c6001600160a01b03168e6001600160a01b03167f311474ca835ac3737c718f3642fe20dadceb8aca4a6031e4441ab1d5b0c3f0fa8e86888a6080015160405161188194939291906154db565b60405180910390a38d925061190183600960009054906101000a90046001600160a01b0316612710600b548a8a6080015162ffffff16815481106118c7576118c7615489565b60009182526020909120600290910201546118f29190600160a01b90046001600160601b0316615472565b6118fc919061554f565b61395d565b61190b848a61552f565b98506119228e8e8e886080015162ffffff166139f1565b600086866080015162ffffff168154811061193f5761193f615489565b906000526020600020906002020160000160146101000a8154816001600160601b0302191690836001600160601b031602179055505b838560200181815161198791906154bb565b6001600160601b03169052505062ffffff811660808501526115b1565b5050506040810151600494909401805462ffffff191662ffffff90951694909417909355505060a001518252909590945092505050565b6119e36136b5565b60008281526006602090815260408083206001600160a01b03808916855290835281842090871684529091529020600a54600d54611a22906002615472565b611a2c9190615472565b6005820154611a4b90600160781b90046001600160601b031642615459565b11611a5557600080fd5b61104085858585600161370f565b600080846001600160601b0316876001600160601b03161115611add57611a8a85886154bb565b9650866001600160601b0316846001600160601b031611611abe57611aaf83856154bb565b611ab9908661552f565b611ad2565b611ac883886154bb565b611ad2908661552f565b915060009050611b10565b611ae787866154bb565b9450869150846001600160601b0316866001600160601b031611611b0b5785611b0d565b845b90505b9550959350505050565b611b2e8433836001600160601b03166138b2565b611b665760405162461bcd60e51b815260206004820152600960248201526810ba3930b739b332b960b91b6044820152606401610ca6565b612710816001600160601b031611611bac5760405162461bcd60e51b815260206004820152600960248201526810b6b4b727b93232b960b91b6044820152606401610ca6565b60008281526006602090815260408083206001600160a01b038881168552908352818420908716845282528083206004810154825160c0810184523381526001600160601b038716948101949094526301000000900462ffffff16918301829052600281015490939192906060820190611c2790600161549f565b62ffffff908116825260098601548116602083015260006040909201919091526004850154919250600a91611c6791818116916301000000900416615571565b62ffffff1610611ca75760405162461bcd60e51b815260206004820152600b60248201526a2174616b6572537461636b60a81b6044820152606401610ca6565b6002838101805460048601805465ffffff0000001916630100000062ffffff8085168202929092179092556001808401855560009485526020948590208751888701516001600160a01b03918216600160a01b6001600160601b039283160217969098029091019485556040808901519590920180546060808b015160808c015160a08d015199881665ffffffffffff1990941693909317908716909702969096176601000000000000600160a81b031916600160301b91909516026bffffffffffffffffffffffff60481b191693909317600160481b958816959095029490941790915580518a815233948101949094529388169383019390935288811692908a16917fe0dda2c209d90d1d92a1c868cdf120db42eb6e86e7ed215458b9aecc80a8d60b91015b60405180910390a350505050505050565b61ffff831660009081526001602052604081208054829190611e01906153f9565b80601f0160208091040260200160405190810160405280929190818152602001828054611e2d906153f9565b8015611e7a5780601f10611e4f57610100808354040283529160200191611e7a565b820191906000526020600020905b815481529060010190602001808311611e5d57829003601f168201915b505050505090508383604051611e91929190615433565b60405180910390208180519060200120149150509392505050565b611eb46136b5565b6040516342d65a8d60e01b81526001600160a01b037f000000000000000000000000000000000000000000000000000000000000000016906342d65a8d90611f04908690869086906004016155b6565b600060405180830381600087803b158015611f1e57600080fd5b505af1158015610e5a573d6000803e3d6000fd5b60008181526006602090815260408083206001600160a01b0380881685529083528184209086168452909152902060048101546003820180546060939262ffffff600160301b8204811693600160481b90920416916001600160401b03811115611f9e57611f9e615037565b60405190808252806020026020018201604052801561200557816020015b6040805160e08101825260008082526020808301829052928201819052606082018190526080820181905260a0820181905260c08201528252600019909201910181611fbc5790505b50945060005b8262ffffff168462ffffff161115801561202a5750815462ffffff8516105b15612211576000828562ffffff168154811061204857612048615489565b90600052602060002090600202016040518060c00160405290816000820160009054906101000a90046001600160a01b03166001600160a01b03166001600160a01b031681526020016000820160149054906101000a90046001600160601b03166001600160601b03166001600160601b031681526020016001820160009054906101000a900462ffffff1662ffffff1662ffffff1681526020016001820160039054906101000a900462ffffff1662ffffff1662ffffff1681526020016001820160069054906101000a900462ffffff1662ffffff1662ffffff1681526020016001820160099054906101000a90046001600160601b03166001600160601b03166001600160601b031681525050905060006040518060e001604052808762ffffff16815260200183600001516001600160a01b0316815260200183602001516001600160601b03168152602001836040015162ffffff168152602001836060015162ffffff168152602001836080015162ffffff1681526020018360a001516001600160601b03168152509050808884815181106121ea576121ea615489565b6020026020010181905250816060015195508280612207906155d4565b935050505061200b565b855250929695505050505050565b33301461227d5760405162461bcd60e51b815260206004820152602660248201527f4e6f6e626c6f636b696e674c7a4170703a2063616c6c6572206d7573742062656044820152650204c7a4170760d41b6064820152608401610ca6565b6122f38686868080601f01602080910402602001604051908101604052809392919081815260200183838082843760009201919091525050604080516020601f8901819004810282018101909252878152899350915087908790819084018382808284376000920191909152506139fd92505050565b505050505050565b6123036136b5565b61230d6000613bf5565b565b60016020526000908152604090208054612328906153f9565b80601f0160208091040260200160405190810160405280929190818152602001828054612354906153f9565b80156123a15780601f10612376576101008083540402835291602001916123a1565b820191906000526020600020905b81548152906001019060200180831161238457829003601f168201915b505050505081565b60008181526006602090815260408083206001600160a01b0380881685529083528184209086168452909152812060098101546004820154600283019162ffffff9081169116845b835462ffffff831610156124ff576000848362ffffff168154811061241857612418615489565b60009182526020918290206040805160c081018252600290930290910180546001600160a01b03811684526001600160601b03600160a01b9091048116948401949094526001015462ffffff808216928401929092526301000000810482166060840152600160301b8104821660808401819052600160481b90910490931660a0830152600c549193508616916124af91906155ed565b10156124e0576124d18a826000015183602001516001600160601b031661395d565b806060015192508291506124f9565b60208101516124ef908861552f565b9650806060015192505b506123f1565b62ffffff8116156125205760048501805462ffffff191662ffffff83161790555b50505050509392505050565b6125346136b5565b604051600090339047908381818185875af1925050503d8060008114611158576040519150601f19603f3d011682016040523d82523d6000602084013e611158565b61ffff8116600090815260016020526040812080546060929190612599906153f9565b80601f01602080910402602001604051908101604052809291908181526020018280546125c5906153f9565b80156126125780601f106125e757610100808354040283529160200191612612565b820191906000526020600020905b8154815290600101906020018083116125f557829003601f168201915b50505050509050805160000361266a5760405162461bcd60e51b815260206004820152601d60248201527f4c7a4170703a206e6f20747275737465642070617468207265636f72640000006044820152606401610ca6565b61268560006014835161267d9190615459565b839190613c45565b9392505050565b6126946136b5565b8181306040516020016126a993929190615600565b60408051601f1981840301815291815261ffff85166000908152600160205220906126d49082615667565b507f8c0400cfe2d1199b1a725c78960bcc2a344d869b80590d0f2bd005db15a572ce838383604051612708939291906155b6565b60405180910390a1505050565b60008181526006602090815260408083206001600160a01b0380881685529083528184209086168452909152902060048101546002820180546060939262ffffff1691906001600160401b0381111561277057612770615037565b6040519080825280602002602001820160405280156127d757816020015b6040805160e08101825260008082526020808301829052928201819052606082018190526080820181905260a0820181905260c0820152825260001990920191018161278e5790505b50935060005b815462ffffff8416146129cc576000828462ffffff168154811061280357612803615489565b90600052602060002090600202016040518060c00160405290816000820160009054906101000a90046001600160a01b03166001600160a01b03166001600160a01b031681526020016000820160149054906101000a90046001600160601b03166001600160601b03166001600160601b031681526020016001820160009054906101000a900462ffffff1662ffffff1662ffffff1681526020016001820160039054906101000a900462ffffff1662ffffff1662ffffff1681526020016001820160069054906101000a900462ffffff1662ffffff1662ffffff1681526020016001820160099054906101000a90046001600160601b03166001600160601b03166001600160601b031681525050905060006040518060e001604052808662ffffff16815260200183600001516001600160a01b0316815260200183602001516001600160601b03168152602001836040015162ffffff168152602001836060015162ffffff168152602001836080015162ffffff1681526020018360a001516001600160601b03168152509050808784815181106129a5576129a5615489565b60200260200101819052508160600151945082806129c2906155d4565b93505050506127dd565b8452509195945050505050565b6129e16136b5565b600480546001600160a01b0319166001600160a01b0383169081179091556040519081527f5db758e995a17ec1ad84bdef7e8c3293a0bd6179bcce400dff5d4c3d87db726b9060200160405180910390a150565b612a3d6136b5565b60075461ffff90811690821603612a5357600080fd5b6040516001600160601b0319606084811b8216602084015230901b16603482015260480160408051601f1981840301815291815261ffff8316600090815260016020522090612aa29082615667565b5061ffff16600090815260086020526040902080546001600160a01b0319166001600160a01b0392909216919091179055565b612add6136b5565b6040516332fb62e760e21b81526001600160a01b037f0000000000000000000000000000000000000000000000000000000000000000169063cbed8b9c90612b319088908890889088908890600401615726565b600060405180830381600087803b158015612b4b57600080fd5b505af1158015612b5f573d6000803e3d6000fd5b505050505050505050565b612b726136b5565b60008281526006602090815260408083206001600160a01b03808916855290835281842090871684529091528120600481015490919062ffffff165b600283015462ffffff821614612c16578362ffffff168162ffffff1603612bd457600191505b826002018162ffffff1681548110612bee57612bee615489565b906000526020600020906002020160010160039054906101000a900462ffffff169050612bae565b81612c2057600080fd5b610e5a87878787600161370f565b60008181526006602090815260408083206001600160a01b0387811685529083528184209086168452909152812060098101546301000000900460ff16158015612c975750600a546005820154612c9590600160781b90046001600160601b031642615459565b115b95945050505050565b61ffff86166000908152600560205260408082209051612cc39088908890615433565b90815260408051602092819003830190206001600160401b03871660009081529252902054905080612d435760405162461bcd60e51b815260206004820152602360248201527f4e6f6e626c6f636b696e674c7a4170703a206e6f2073746f726564206d65737360448201526261676560e81b6064820152608401610ca6565b808383604051612d54929190615433565b604051809103902014612db35760405162461bcd60e51b815260206004820152602160248201527f4e6f6e626c6f636b696e674c7a4170703a20696e76616c6964207061796c6f616044820152601960fa1b6064820152608401610ca6565b61ffff87166000908152600560205260408082209051612dd69089908990615433565b90815260408051602092819003830181206001600160401b038916600090815290845282902093909355601f88018290048202830182019052868252612e6e918991899089908190840183828082843760009201919091525050604080516020601f8a018190048102820181019092528881528a9350915088908890819084018382808284376000920191909152506139fd92505050565b7fc264d91f3adc5588250e1551f547752ca0cfa8f6b530d243b9f9f4cab10ea8e58787878785604051612ea595949392919061575f565b60405180910390a150505050505050565b612ee48433612710600b54856001600160601b0316612ed59190615472565b612edf919061554f565b6138b2565b612f1c5760405162461bcd60e51b815260206004820152600960248201526810ba3930b739b332b960b91b6044820152606401610ca6565b612710816001600160601b031611612f625760405162461bcd60e51b815260206004820152600960248201526810b6b4b727b93232b960b91b6044820152606401610ca6565b60008281526006602090815260408083206001600160a01b038881168552908352818420908716845282528083206004810154825160c0810184523381526001600160601b03871694810194909452600160481b900462ffffff16918301829052600381015490939192906060820190612fdd90600161549f565b62ffffff908116825260098601805482166020808501919091526000604094850181905260038901805460048b01805462ffffff60481b1916600160481b83891681029190911790915560018083018455928452928490208851948901516001600160a01b03909516600160a01b6001600160601b03968716021760029092020190815595870151950180546060880151608089015160a08a015198881665ffffffffffff1990931692909217630100000091881691909102176601000000000000600160a81b031916600160301b918716919091026bffffffffffffffffffffffff60481b1916179590921602939093179092559054919250600a640100000000909204161061311e5760405162461bcd60e51b815260206004820152600b60248201526a216d616b6572537461636b60a81b6044820152606401610ca6565b600983018054640100000000900462ffffff1690600461313d8361550d565b825462ffffff9182166101009390930a92830291909202199091161790555060078301805485919060009061317c9084906001600160601b031661552f565b92506101000a8154816001600160601b0302191690836001600160601b03160217905550856001600160a01b0316876001600160a01b03167fe0dda2c209d90d1d92a1c868cdf120db42eb6e86e7ed215458b9aecc80a8d60b873388604051611dcf939291909283526001600160a01b039190911660208301526001600160601b0316604082015260600190565b6132126136b5565b6000811161325a5760405162461bcd60e51b81526020600482015260156024820152744c7a4170703a20696e76616c6964206d696e47617360581b6044820152606401610ca6565b61ffff83811660008181526002602090815260408083209487168084529482529182902085905581519283528201929092529081018290527f9d5c7c0b934da8fefa9c7760c98383778a12dfbfc0c3b3106518f43fb9508ac090606001612708565b6132c46136b5565b61ffff831660009081526001602052604090206132e282848361579a565b507ffa41487ad5d6728f0b19276fa1eddc16558578f5109fc39d2dc33c3230470dab838383604051612708939291906155b6565b61331e6136b5565b6001600160a01b0381166133835760405162461bcd60e51b815260206004820152602660248201527f4f776e61626c653a206e6577206f776e657220697320746865207a65726f206160448201526564647265737360d01b6064820152608401610ca6565b61338c81613bf5565b50565b604051633d7b2f6f60e21b815261ffff808616600483015284166024820152306044820152606481018290526060907f00000000000000000000000000000000000000000000000000000000000000006001600160a01b03169063f5ecbdbc90608401600060405180830381865afa15801561340f573d6000803e3d6000fd5b505050506040513d6000823e601f3d908101601f19168201604052612c979190810190615859565b60008061349a5a60966366ad5c8a60e01b8989898960405160240161345f94939291906158c6565b60408051601f198184030181529190526020810180516001600160e01b03166001600160e01b03199093169290921790915230929190613d52565b91509150816122f3576122f38686868685613ddc565b60008181526006602090815260408083206001600160a01b038088168552908352818420908616845290915281206009810154909162ffffff90911690806134fa8787878461115e565b91509150600061350b8888886123a9565b60078087015460408051610100810182526001600160a01b03808e1682528c166020820152925461ffff16908301526001600160601b0380841660608401529081166080830181905260a0830187905290851660c083015262ffffff80881660e084015260098901805494955091936001929160009161358d9185911661549f565b82546101009290920a62ffffff818102199093169190921691909102179055506006870180546001600160601b038581166001600160c01b031990921691909117600160601b8583168102919091179092556007890180546bffffffffffffffffffffffff60601b1916918716909202179055604051600160f01b6020820152622dc6c06022820152600090604201604051602081830303815290604052905061365b8983604051602001613642919061595f565b6040516020818303038152906040523060008547613e79565b604080518a815262ffffff891660208201526001600160a01b03808d1692908e16917f9239896a8b6444f37b2b4ae14addf5f4214b787f7cd707d67fd66e967ca56ea2910160405180910390a35050505050505050505050565b6000546001600160a01b0316331461230d5760405162461bcd60e51b815260206004820181905260248201527f4f776e61626c653a2063616c6c6572206973206e6f7420746865206f776e65726044820152606401610ca6565b60008381526006602090815260408083206001600160a01b038981168552908352818420908816845290915281206009810154909190600160381b900460ff1661375857600080fd5b82156137ef578160020190506000818562ffffff168154811061377d5761377d615489565b6000918252602090912060029091020154600160a01b90046001600160601b0316116137a857600080fd5b6137ea8733838762ffffff16815481106137c4576137c4615489565b6000918252602090912060029091020154600160a01b90046001600160601b031661395d565b61385b565b8160030190506000818562ffffff168154811061380e5761380e615489565b6000918252602090912060029091020154600160a01b90046001600160601b03161161383957600080fd5b61385b8733612710600b54858962ffffff16815481106118c7576118c7615489565b6000818562ffffff168154811061387457613874615489565b906000526020600020906002020160000160146101000a8154816001600160601b0302191690836001600160601b0316021790555050505050505050565b604080516001600160a01b038481166024830152306044830152606480830185905283518084039091018152608490920183526020820180516001600160e01b03166323b872dd60e01b179052915160009286169161391091615a10565b6000604051808303816000865af19150503d806000811461394d576040519150601f19603f3d011682016040523d82523d6000602084013e613952565b606091505b509095945050505050565b604080516001600160a01b038481166024830152604480830185905283518084039091018152606490920183526020820180516001600160e01b031663a9059cbb60e01b1790529151918516916139b49190615a10565b6000604051808303816000865af19150503d80600081146122f3576040519150601f19603f3d011682016040523d82523d6000602084013e6122f3565b6111588484848461401e565b600081806020019051810190613a139190615b0d565b604081810151602080840151845161ffff84166000908152600684528581206001600160a01b038085168352908552868220908316825284528590206005810180546bffffffffffffffffffffffff60781b1916600160781b426001600160601b03169081029190911790915560e0880151600983015488516301000000820460ff1615815262ffffff8084169882019890985296169786019790975260608501529596509294909390917f5c46c50f77912c93aeea5718115cac9f280aaf44c20785fff253e053f3e27c349060800160405180910390a160c086015160a08701516007840154613b15918791600160601b90046001600160601b031661440f565b6001600160601b03811615613b3457613b3485858861ffff16846144e7565b60098301546301000000900460ff16613ba15767016345785d8a0000471015613b925760405162461bcd60e51b815260206004820152601060248201526f216761734c696d697420626f756e636560801b6044820152606401610ca6565b613ba185858861ffff166134b0565b505060608501516008820180546080909701516001600160601b03908116600160601b026001600160c01b031990981692169190911795909517909455505050600901805463ff0000001916905550505050565b600080546001600160a01b038381166001600160a01b0319831681178455604051919092169283917f8be0079c531659141344cd1fd0a4f28419497f9722a3daafe3b4186f6b6457e09190a35050565b606081613c5381601f6155ed565b1015613c925760405162461bcd60e51b815260206004820152600e60248201526d736c6963655f6f766572666c6f7760901b6044820152606401610ca6565b613c9c82846155ed565b84511015613ce05760405162461bcd60e51b8152602060048201526011602482015270736c6963655f6f75744f66426f756e647360781b6044820152606401610ca6565b606082158015613cff5760405191506000825260208201604052613d49565b6040519150601f8416801560200281840101858101878315602002848b0101015b81831015613d38578051835260209283019201613d20565b5050858452601f01601f1916604052505b50949350505050565b6000606060008060008661ffff166001600160401b03811115613d7757613d77615037565b6040519080825280601f01601f191660200182016040528015613da1576020820181803683370190505b50905060008087516020890160008d8df191503d925086831115613dc3578692505b828152826000602083013e909890975095505050505050565b8180519060200120600560008761ffff1661ffff16815260200190815260200160002085604051613e0d9190615a10565b9081526040805191829003602090810183206001600160401b0388166000908152915220919091557fe183f33de2837795525b4792ca4cd60535bd77c53b7e7030060bfcf5734d6b0c90613e6a9087908790879087908790615bf1565b60405180910390a15050505050565b61ffff861660009081526001602052604081208054613e97906153f9565b80601f0160208091040260200160405190810160405280929190818152602001828054613ec3906153f9565b8015613f105780601f10613ee557610100808354040283529160200191613f10565b820191906000526020600020905b815481529060010190602001808311613ef357829003601f168201915b505050505090508051600003613f815760405162461bcd60e51b815260206004820152603060248201527f4c7a4170703a2064657374696e6174696f6e20636861696e206973206e6f742060448201526f61207472757374656420736f7572636560801b6064820152608401610ca6565b613f8c878751614b77565b60405162c5803160e81b81526001600160a01b037f0000000000000000000000000000000000000000000000000000000000000000169063c5803100908490613fe3908b9086908c908c908c908c90600401615c4f565b6000604051808303818588803b158015613ffc57600080fd5b505af1158015614010573d6000803e3d6000fd5b505050505050505050505050565b60008281526006602090815260408083206001600160a01b03808916855290835281842090871684529091529020600481015460038201805462ffffff600160301b8404811694600160481b90940416929082908690811061408257614082615489565b600091825260208220600290910201546007830180546001600160601b03600160a01b90930483169391926140b9918591166154bb565b92506101000a8154816001600160601b0302191690836001600160601b0316021790555060018160090160048282829054906101000a900462ffffff166141009190615571565b92506101000a81548162ffffff021916908362ffffff1602179055508362ffffff16850361417b5781858154811061413a5761413a615489565b600091825260209091206002909102016001015460048201805462ffffff60301b1916630100000090920462ffffff16600160301b029190911790556143bc565b8262ffffff1685036142735781858154811061419957614199615489565b906000526020600020906002020160010160039054906101000a900462ffffff16828387815481106141cd576141cd615489565b6000918252602090912060016002909202010154815462ffffff9091169081106141f9576141f9615489565b906000526020600020906002020160010160036101000a81548162ffffff021916908362ffffff16021790555081858154811061423857614238615489565b600091825260209091206002909102016001015460048201805462ffffff60481b191662ffffff909216600160481b029190911790556143bc565b81858154811061428557614285615489565b906000526020600020906002020160010160039054906101000a900462ffffff16828387815481106142b9576142b9615489565b6000918252602090912060016002909202010154815462ffffff9091169081106142e5576142e5615489565b906000526020600020906002020160010160036101000a81548162ffffff021916908362ffffff16021790555081858154811061432457614324615489565b906000526020600020906002020160010160009054906101000a900462ffffff168283878154811061435857614358615489565b906000526020600020906002020160010160039054906101000a900462ffffff1662ffffff168154811061438e5761438e615489565b906000526020600020906002020160010160006101000a81548162ffffff021916908362ffffff1602179055505b60008286815481106143d0576143d0615489565b906000526020600020906002020160000160146101000a8154816001600160601b0302191690836001600160601b031602179055505050505050505050565b815160015b818111611040576000846144288385615459565b8151811061443857614438615489565b60200260200101519050836001600160601b03166000036144745761446f86826000015183602001516001600160601b031661395d565b6144d4565b80602001516001600160601b0316846001600160601b031611156144a85760208101516144a190856154bb565b93506144d4565b6144cf8682600001518684602001516144c191906154bb565b6001600160601b031661395d565b600093505b50806144df816155d4565b915050614414565b60008281526006602090815260408083206001600160a01b03808916855290835281842090871684529091528120600981015460058201546002830180549394909362ffffff93841693600160601b9093049092169182918291819087908490811061455557614555615489565b60009182526020822060048b015460029092020192506001600160601b03600160601b909104811691908b90829082161561475a5760058c01546001600160601b0385811691161461464c57836001600160601b0316826001600160601b031611156145f1578a8962ffffff16815481106145d2576145d2615489565b600091825260209091206001600290920201015462ffffff1698508896505b836001600160601b0316826001600160601b0316106146105783614612565b8c5b925061461e83836154bb565b91508a8962ffffff168154811061463757614637615489565b90600052602060002090600202019450600195505b84546001600160601b03600160a01b9091048116908316111561470457506001848101805462ffffff60301b1916600160301b62ffffff8d160217905584546146a590600160a01b90046001600160601b0316836154bb565b91508a8962ffffff16815481106146be576146be615489565b60009182526020909120600160029092020101548b5462ffffff90911699508b908a9081106146ef576146ef615489565b9060005260206000209060020201945061464c565b6001600160601b0382161561475a575083546001600160601b03909116600160a01b026001600160a01b039091161783556001838101805462ffffff8b16600160301b0262ffffff60301b199091161790556000905b80801561479d57508a548b62ffffff891682811061477a5761477a615489565b60009182526020909120600290910201600101546301000000900462ffffff1614155b15614923578662ffffff168862ffffff1603614804578a8862ffffff16815481106147ca576147ca615489565b600091825260209091206002909102016001015460048d018054630100000090920462ffffff1662ffffff1990921691909117905561481a565b60048c01805462ffffff191662ffffff8a161790555b60048c01548b548a918d91630100000090910462ffffff1690811061484157614841615489565b906000526020600020906002020160010160036101000a81548162ffffff021916908362ffffff1602179055508b60040160000160039054906101000a900462ffffff168b8a62ffffff168154811061489c5761489c615489565b60009182526020909120600290910201600101805462ffffff191662ffffff9283161790558b54908c9089168281106148d7576148d7615489565b60009182526020909120600160029092020101805462ffffff928316630100000090810265ffffff000000199283161790925560048f018054938b169092029216919091179055614939565b60048c01805462ffffff191662ffffff8b161790555b8515614b655760006040518060c001604052808d8b62ffffff168154811061496357614963615489565b906000526020600020906002020160000160009054906101000a90046001600160a01b03166001600160a01b03168152602001856001600160601b031681526020018e60040160000160039054906101000a900462ffffff1662ffffff1681526020018e6002018054905060016149da919061549f565b62ffffff1681526020018e60090160009054906101000a900462ffffff1662ffffff16815260200160006001600160601b031681525090508c600201805490508d60040160000160036101000a81548162ffffff021916908362ffffff1602179055508c60020181908060018154018082558091505060019003906000526020600020906002020160009091909190915060008201518160000160006101000a8154816001600160a01b0302191690836001600160a01b0316021790555060208201518160000160146101000a8154816001600160601b0302191690836001600160601b0316021790555060408201518160010160006101000a81548162ffffff021916908362ffffff16021790555060608201518160010160036101000a81548162ffffff021916908362ffffff16021790555060808201518160010160066101000a81548162ffffff021916908362ffffff16021790555060a08201518160010160096101000a8154816001600160601b0302191690836001600160601b031602179055505050505b50505050505050505050505050505050565b61ffff821660009081526003602052604081205490819003614b9857506127105b80821115614be85760405162461bcd60e51b815260206004820181905260248201527f4c7a4170703a207061796c6f61642073697a6520697320746f6f206c617267656044820152606401610ca6565b505050565b61ffff8116811461338c57600080fd5b60008083601f840112614c0f57600080fd5b5081356001600160401b03811115614c2657600080fd5b602083019150836020828501011115614c3e57600080fd5b9250929050565b80356001600160401b0381168114614c5c57600080fd5b919050565b60008060008060008060808789031215614c7a57600080fd5b8635614c8581614bed565b955060208701356001600160401b0380821115614ca157600080fd5b614cad8a838b01614bfd565b9097509550859150614cc160408a01614c45565b94506060890135915080821115614cd757600080fd5b50614ce489828a01614bfd565b979a9699509497509295939492505050565b6001600160a01b038116811461338c57600080fd5b600080600060608486031215614d2057600080fd5b8335614d2b81614cf6565b92506020840135614d3b81614cf6565b929592945050506040919091013590565b600060208284031215614d5e57600080fd5b813561268581614bed565b60008060408385031215614d7c57600080fd5b8235614d8781614bed565b946020939093013593505050565b62ffffff8116811461338c57600080fd5b60008060008060808587031215614dbc57600080fd5b8435614dc781614cf6565b93506020850135614dd781614cf6565b9250604085013591506060850135614dee81614d95565b939692955090935050565b6001600160601b038116811461338c57600080fd5b60008060008060808587031215614e2457600080fd5b8435614e2f81614cf6565b93506020850135614e3f81614cf6565b9250604085013591506060850135614dee81614df9565b604080825283519082018190526000906020906060840190828701845b82811015614eaf57815180516001600160a01b031685526020908101516001600160601b03169085015260408401935090840190600101614e73565b5050506001600160601b039490941692019190915250919050565b600080600080600060a08688031215614ee257600080fd5b8535614eed81614df9565b94506020860135614efd81614df9565b93506040860135614f0d81614df9565b92506060860135614f1d81614df9565b91506080860135614f2d81614df9565b809150509295509295909350565b600080600060408486031215614f5057600080fd5b8335614f5b81614bed565b925060208401356001600160401b03811115614f7657600080fd5b614f8286828701614bfd565b9497909650939450505050565b602080825282518282018190526000919060409081850190868401855b8281101561502a578151805162ffffff9081168652878201516001600160a01b031688870152868201516001600160601b039081168888015260608084015183169088015260808084015183169088015260a0808401519092169187019190915260c091820151169085015260e09093019290850190600101614fac565b5091979650505050505050565b634e487b7160e01b600052604160045260246000fd5b604080519081016001600160401b038111828210171561506f5761506f615037565b60405290565b60405161010081016001600160401b038111828210171561506f5761506f615037565b604051601f8201601f191681016001600160401b03811182821017156150c0576150c0615037565b604052919050565b60006001600160401b038211156150e1576150e1615037565b50601f01601f191660200190565b60008060006060848603121561510457600080fd5b833561510f81614bed565b925060208401356001600160401b0381111561512a57600080fd5b8401601f8101861361513b57600080fd5b803561514e615149826150c8565b615098565b81815287602083850101111561516357600080fd5b8160208401602083013760006020838301015280945050505061518860408501614c45565b90509250925092565b60005b838110156151ac578181015183820152602001615194565b50506000910152565b600081518084526151cd816020860160208601615191565b601f01601f19169290920160200192915050565b60208152600061268560208301846151b5565b6000806040838503121561520757600080fd5b823561521281614bed565b9150602083013561522281614bed565b809150509250929050565b60006101008201905062ffffff808451168352806020850151166020840152806040850151166040840152806060850151166060840152506001600160601b03608084015116608083015260a083015161529260a08401826001600160601b03169052565b5060c08301516152a960c084018262ffffff169052565b5060e08301516152c460e08401826001600160601b03169052565b5092915050565b6000602082840312156152dd57600080fd5b813561268581614cf6565b600080604083850312156152fb57600080fd5b823561521281614cf6565b60008060008060006080868803121561531e57600080fd5b853561532981614bed565b9450602086013561533981614bed565b93506040860135925060608601356001600160401b0381111561535b57600080fd5b61536788828901614bfd565b969995985093965092949392505050565b60008060006060848603121561538d57600080fd5b833561539881614bed565b92506020840135614d3b81614bed565b600080600080608085870312156153be57600080fd5b84356153c981614bed565b935060208501356153d981614bed565b925060408501356153e981614cf6565b9396929550929360600135925050565b600181811c9082168061540d57607f821691505b60208210810361542d57634e487b7160e01b600052602260045260246000fd5b50919050565b8183823760009101908152919050565b634e487b7160e01b600052601160045260246000fd5b8181038181111561546c5761546c615443565b92915050565b808202811582820484141761546c5761546c615443565b634e487b7160e01b600052603260045260246000fd5b62ffffff8181168382160190808211156152c4576152c4615443565b6001600160601b038281168282160390808211156152c4576152c4615443565b9384526001600160a01b039290921660208401526001600160601b0316604083015262ffffff16606082015260800190565b600062ffffff80831681810361552557615525615443565b6001019392505050565b6001600160601b038181168382160190808211156152c4576152c4615443565b60008261556c57634e487b7160e01b600052601260045260246000fd5b500490565b62ffffff8281168282160390808211156152c4576152c4615443565b81835281816020850137506000828201602090810191909152601f909101601f19169091010190565b61ffff84168152604060208201526000612c9760408301848661558d565b6000600182016155e6576155e6615443565b5060010190565b8082018082111561546c5761546c615443565b8284823760609190911b6001600160601b0319169101908152601401919050565b601f821115614be857600081815260208120601f850160051c810160208610156156485750805b601f850160051c820191505b818110156122f357828155600101615654565b81516001600160401b0381111561568057615680615037565b6156948161568e84546153f9565b84615621565b602080601f8311600181146156c957600084156156b15750858301515b600019600386901b1c1916600185901b1785556122f3565b600085815260208120601f198616915b828110156156f8578886015182559484019460019091019084016156d9565b50858210156157165787850151600019600388901b60f8161c191681555b5050505050600190811b01905550565b600061ffff80881683528087166020840152508460408301526080606083015261575460808301848661558d565b979650505050505050565b61ffff8616815260806020820152600061577d60808301868861558d565b6001600160401b0394909416604083015250606001529392505050565b6001600160401b038311156157b1576157b1615037565b6157c5836157bf83546153f9565b83615621565b6000601f8411600181146157f957600085156157e15750838201355b600019600387901b1c1916600186901b178355611040565b600083815260209020601f19861690835b8281101561582a578685013582556020948501946001909201910161580a565b50868210156158475760001960f88860031b161c19848701351681555b505060018560011b0183555050505050565b60006020828403121561586b57600080fd5b81516001600160401b0381111561588157600080fd5b8201601f8101841361589257600080fd5b80516158a0615149826150c8565b8181528560208385010111156158b557600080fd5b612c97826020830160208601615191565b61ffff851681526080602082015260006158e360808301866151b5565b6001600160401b0385166040840152828103606084015261575481856151b5565b600081518084526020808501945080840160005b8381101561595457815180516001600160a01b031688526020908101516001600160601b03169088015260408701965090820190600101615918565b509495945050505050565b602080825282516001600160a01b0390811683830152908301511660408083019190915282015161ffff811660608301526000905060608301516001600160601b03811660808401525060808301516001600160601b03811660a08401525060a08301516101008060c08501526159da610120850183615904565b915060c08501516159f660e08601826001600160601b03169052565b5060e085015162ffffff8116858301525090949350505050565b60008251615a22818460208701615191565b9190910192915050565b8051614c5c81614cf6565b8051614c5c81614bed565b8051614c5c81614df9565b600082601f830112615a5e57600080fd5b815160206001600160401b03821115615a7957615a79615037565b615a87818360051b01615098565b82815260069290921b84018101918181019086841115615aa657600080fd5b8286015b84811015615af75760408189031215615ac35760008081fd5b615acb61504d565b8151615ad681614cf6565b815281850151615ae581614df9565b81860152835291830191604001615aaa565b509695505050505050565b8051614c5c81614d95565b600060208284031215615b1f57600080fd5b81516001600160401b0380821115615b3657600080fd5b908301906101008286031215615b4b57600080fd5b615b53615075565b615b5c83615a2c565b8152615b6a60208401615a2c565b6020820152615b7b60408401615a37565b6040820152615b8c60608401615a42565b6060820152615b9d60808401615a42565b608082015260a083015182811115615bb457600080fd5b615bc087828601615a4d565b60a083015250615bd260c08401615a42565b60c0820152615be360e08401615b02565b60e082015295945050505050565b61ffff8616815260a060208201526000615c0e60a08301876151b5565b6001600160401b03861660408401528281036060840152615c2f81866151b5565b90508281036080840152615c4381856151b5565b98975050505050505050565b61ffff8716815260c060208201526000615c6c60c08301886151b5565b8281036040840152615c7e81886151b5565b6001600160a01b0387811660608601528616608085015283810360a08501529050615ca981856151b5565b999850505050505050505056fea26469706673582212209d0b8c6303ae0fa26f31d6ab97594cb50d1d0f0d3bf8a460468b77f937cb817e64736f6c63430008120033",
			"opcodes": "PUSH1 0xA0 PUSH1 0x40 MSTORE PUSH1 0x3C PUSH1 0xA SSTORE PUSH1 0x64 PUSH1 0xB SSTORE PUSH1 0x14 PUSH1 0xC SSTORE PUSH1 0x64 PUSH1 0xD SSTORE CALLVALUE DUP1 ISZERO PUSH3 0x25 JUMPI PUSH1 0x0 DUP1 REVERT JUMPDEST POP PUSH1 0x40 MLOAD PUSH3 0x5E6B CODESIZE SUB DUP1 PUSH3 0x5E6B DUP4 CODECOPY DUP2 ADD PUSH1 0x40 DUP2 SWAP1 MSTORE PUSH3 0x48 SWAP2 PUSH3 0xE2 JUMP JUMPDEST DUP2 DUP1 PUSH3 0x55 CALLER PUSH3 0x92 JUMP JUMPDEST PUSH1 0x1 PUSH1 0x1 PUSH1 0xA0 SHL SUB AND PUSH1 0x80 MSTORE POP PUSH1 0x7 DUP1 SLOAD PUSH2 0xFFFF SWAP1 SWAP3 AND PUSH2 0xFFFF NOT SWAP1 SWAP3 AND SWAP2 SWAP1 SWAP2 OR SWAP1 SSTORE POP PUSH1 0x9 DUP1 SLOAD PUSH1 0x1 PUSH1 0x1 PUSH1 0xA0 SHL SUB NOT AND CALLER OR SWAP1 SSTORE PUSH3 0x132 JUMP JUMPDEST PUSH1 0x0 DUP1 SLOAD PUSH1 0x1 PUSH1 0x1 PUSH1 0xA0 SHL SUB DUP4 DUP2 AND PUSH1 0x1 PUSH1 0x1 PUSH1 0xA0 SHL SUB NOT DUP4 AND DUP2 OR DUP5 SSTORE PUSH1 0x40 MLOAD SWAP2 SWAP1 SWAP3 AND SWAP3 DUP4 SWAP2 PUSH32 0x8BE0079C531659141344CD1FD0A4F28419497F9722A3DAAFE3B4186F6B6457E0 SWAP2 SWAP1 LOG3 POP POP JUMP JUMPDEST PUSH1 0x0 DUP1 PUSH1 0x40 DUP4 DUP6 SUB SLT ISZERO PUSH3 0xF6 JUMPI PUSH1 0x0 DUP1 REVERT JUMPDEST DUP3 MLOAD PUSH1 0x1 PUSH1 0x1 PUSH1 0xA0 SHL SUB DUP2 AND DUP2 EQ PUSH3 0x10E JUMPI PUSH1 0x0 DUP1 REVERT JUMPDEST PUSH1 0x20 DUP5 ADD MLOAD SWAP1 SWAP3 POP PUSH2 0xFFFF DUP2 AND DUP2 EQ PUSH3 0x127 JUMPI PUSH1 0x0 DUP1 REVERT JUMPDEST DUP1 SWAP2 POP POP SWAP3 POP SWAP3 SWAP1 POP JUMP JUMPDEST PUSH1 0x80 MLOAD PUSH2 0x5CEC PUSH3 0x17F PUSH1 0x0 CODECOPY PUSH1 0x0 DUP2 DUP2 PUSH2 0x8E3 ADD MSTORE DUP2 DUP2 PUSH2 0xC35 ADD MSTORE DUP2 DUP2 PUSH2 0xFDF ADD MSTORE DUP2 DUP2 PUSH2 0x110B ADD MSTORE DUP2 DUP2 PUSH2 0x1ECB ADD MSTORE DUP2 DUP2 PUSH2 0x2AF4 ADD MSTORE DUP2 DUP2 PUSH2 0x33C0 ADD MSTORE PUSH2 0x3FA2 ADD MSTORE PUSH2 0x5CEC PUSH1 0x0 RETURN INVALID PUSH1 0x80 PUSH1 0x40 MSTORE PUSH1 0x4 CALLDATASIZE LT PUSH2 0x2CC JUMPI PUSH1 0x0 CALLDATALOAD PUSH1 0xE0 SHR DUP1 PUSH4 0x8CFD8F5C GT PUSH2 0x175 JUMPI DUP1 PUSH4 0xC4461834 GT PUSH2 0xDC JUMPI DUP1 PUSH4 0xD1DEBA1F GT PUSH2 0x95 JUMPI DUP1 PUSH4 0xE3EE1DAC GT PUSH2 0x6F JUMPI DUP1 PUSH4 0xE3EE1DAC EQ PUSH2 0xB7D JUMPI DUP1 PUSH4 0xEB8D72B7 EQ PUSH2 0xBD2 JUMPI DUP1 PUSH4 0xF2FDE38B EQ PUSH2 0xBF2 JUMPI DUP1 PUSH4 0xF5ECBDBC EQ PUSH2 0xC12 JUMPI PUSH1 0x0 DUP1 REVERT JUMPDEST DUP1 PUSH4 0xD1DEBA1F EQ PUSH2 0xB2A JUMPI DUP1 PUSH4 0xDBEEC32D EQ PUSH2 0xB3D JUMPI DUP1 PUSH4 0xDF2A5B3B EQ PUSH2 0xB5D JUMPI PUSH1 0x0 DUP1 REVERT JUMPDEST DUP1 PUSH4 0xC4461834 EQ PUSH2 0xA5E JUMPI DUP1 PUSH4 0xC9DE705C EQ PUSH2 0xA74 JUMPI DUP1 PUSH4 0xCBED8B9C EQ PUSH2 0xA94 JUMPI DUP1 PUSH4 0xCC64025F EQ PUSH2 0xAB4 JUMPI DUP1 PUSH4 0xCEB9E719 EQ PUSH2 0xAD4 JUMPI DUP1 PUSH4 0xCFE27EBA EQ PUSH2 0xAF4 JUMPI PUSH1 0x0 DUP1 REVERT JUMPDEST DUP1 PUSH4 0xA6C3D165 GT PUSH2 0x12E JUMPI DUP1 PUSH4 0xA6C3D165 EQ PUSH2 0x891 JUMPI DUP1 PUSH4 0xA7B6FA18 EQ PUSH2 0x8B1 JUMPI DUP1 PUSH4 0xB353AAA7 EQ PUSH2 0x8D1 JUMPI DUP1 PUSH4 0xB3D0BC94 EQ PUSH2 0x905 JUMPI DUP1 PUSH4 0xB4370698 EQ PUSH2 0x91B JUMPI DUP1 PUSH4 0xBAF3292D EQ PUSH2 0xA3E JUMPI PUSH1 0x0 DUP1 REVERT JUMPDEST DUP1 PUSH4 0x8CFD8F5C EQ PUSH2 0x7D0 JUMPI DUP1 PUSH4 0x8DA5CB5B EQ PUSH2 0x808 JUMPI DUP1 PUSH4 0x91A79ED9 EQ PUSH2 0x826 JUMPI DUP1 PUSH4 0x950C8A74 EQ PUSH2 0x83C JUMPI DUP1 PUSH4 0x961BE391 EQ PUSH2 0x85C JUMPI DUP1 PUSH4 0x9F38369A EQ PUSH2 0x871 JUMPI PUSH1 0x0 DUP1 REVERT JUMPDEST DUP1 PUSH4 0x30FF44B6 GT PUSH2 0x234 JUMPI DUP1 PUSH4 0x42D65A8D GT PUSH2 0x1ED JUMPI DUP1 PUSH4 0x66AD5C8A GT PUSH2 0x1C7 JUMPI DUP1 PUSH4 0x66AD5C8A EQ PUSH2 0x736 JUMPI DUP1 PUSH4 0x715018A6 EQ PUSH2 0x756 JUMPI DUP1 PUSH4 0x7533D788 EQ PUSH2 0x76B JUMPI DUP1 PUSH4 0x786F8A33 EQ PUSH2 0x798 JUMPI PUSH1 0x0 DUP1 REVERT JUMPDEST DUP1 PUSH4 0x42D65A8D EQ PUSH2 0x69A JUMPI DUP1 PUSH4 0x4DE44578 EQ PUSH2 0x6BA JUMPI DUP1 PUSH4 0x5B8C41E6 EQ PUSH2 0x6E7 JUMPI PUSH1 0x0 DUP1 REVERT JUMPDEST DUP1 PUSH4 0x30FF44B6 EQ PUSH2 0x5B5 JUMPI DUP1 PUSH4 0x3414E6A5 EQ PUSH2 0x5E3 JUMPI DUP1 PUSH4 0x3583FE50 EQ PUSH2 0x603 JUMPI DUP1 PUSH4 0x3D19DA45 EQ PUSH2 0x627 JUMPI DUP1 PUSH4 0x3D8B38F6 EQ PUSH2 0x63D JUMPI DUP1 PUSH4 0x3F1F4FA4 EQ PUSH2 0x66D JUMPI PUSH1 0x0 DUP1 REVERT JUMPDEST DUP1 PUSH4 0x10DDB137 GT PUSH2 0x286 JUMPI DUP1 PUSH4 0x10DDB137 EQ PUSH2 0x3AA JUMPI DUP1 PUSH4 0x1546094E EQ PUSH2 0x3CA JUMPI DUP1 PUSH4 0x1AABB482 EQ PUSH2 0x3EA JUMPI DUP1 PUSH4 0x225A0304 EQ PUSH2 0x418 JUMPI DUP1 PUSH4 0x299299D3 EQ PUSH2 0x438 JUMPI DUP1 PUSH4 0x29D526A8 EQ PUSH2 0x575 JUMPI PUSH1 0x0 DUP1 REVERT JUMPDEST DUP1 PUSH3 0x1D3567 EQ PUSH2 0x2D8 JUMPI DUP1 PUSH4 0x779AFE6 EQ PUSH2 0x2FA JUMPI DUP1 PUSH4 0x7E0DB17 EQ PUSH2 0x30D JUMPI DUP1 PUSH4 0xBC6E26B EQ PUSH2 0x32D JUMPI DUP1 PUSH4 0xC0F9DB0 EQ PUSH2 0x34D JUMPI DUP1 PUSH4 0xDF37483 EQ PUSH2 0x38A JUMPI PUSH1 0x0 DUP1 REVERT JUMPDEST CALLDATASIZE PUSH2 0x2D3 JUMPI STOP JUMPDEST PUSH1 0x0 DUP1 REVERT JUMPDEST CALLVALUE DUP1 ISZERO PUSH2 0x2E4 JUMPI PUSH1 0x0 DUP1 REVERT JUMPDEST POP PUSH2 0x2F8 PUSH2 0x2F3 CALLDATASIZE PUSH1 0x4 PUSH2 0x4C61 JUMP JUMPDEST PUSH2 0xC32 JUMP JUMPDEST STOP JUMPDEST PUSH2 0x2F8 PUSH2 0x308 CALLDATASIZE PUSH1 0x4 PUSH2 0x4D0B JUMP JUMPDEST PUSH2 0xE63 JUMP JUMPDEST CALLVALUE DUP1 ISZERO PUSH2 0x319 JUMPI PUSH1 0x0 DUP1 REVERT JUMPDEST POP PUSH2 0x2F8 PUSH2 0x328 CALLDATASIZE PUSH1 0x4 PUSH2 0x4D4C JUMP JUMPDEST PUSH2 0xFBE JUMP JUMPDEST CALLVALUE DUP1 ISZERO PUSH2 0x339 JUMPI PUSH1 0x0 DUP1 REVERT JUMPDEST POP PUSH2 0x2F8 PUSH2 0x348 CALLDATASIZE PUSH1 0x4 PUSH2 0x4D0B JUMP JUMPDEST PUSH2 0x1047 JUMP JUMPDEST CALLVALUE DUP1 ISZERO PUSH2 0x359 JUMPI PUSH1 0x0 DUP1 REVERT JUMPDEST POP PUSH1 0x9 SLOAD PUSH2 0x36D SWAP1 PUSH1 0x1 PUSH1 0x1 PUSH1 0xA0 SHL SUB AND DUP2 JUMP JUMPDEST PUSH1 0x40 MLOAD PUSH1 0x1 PUSH1 0x1 PUSH1 0xA0 SHL SUB SWAP1 SWAP2 AND DUP2 MSTORE PUSH1 0x20 ADD JUMPDEST PUSH1 0x40 MLOAD DUP1 SWAP2 SUB SWAP1 RETURN JUMPDEST CALLVALUE DUP1 ISZERO PUSH2 0x396 JUMPI PUSH1 0x0 DUP1 REVERT JUMPDEST POP PUSH2 0x2F8 PUSH2 0x3A5 CALLDATASIZE PUSH1 0x4 PUSH2 0x4D69 JUMP JUMPDEST PUSH2 0x10CB JUMP JUMPDEST CALLVALUE DUP1 ISZERO PUSH2 0x3B6 JUMPI PUSH1 0x0 DUP1 REVERT JUMPDEST POP PUSH2 0x2F8 PUSH2 0x3C5 CALLDATASIZE PUSH1 0x4 PUSH2 0x4D4C JUMP JUMPDEST PUSH2 0x10EA JUMP JUMPDEST CALLVALUE DUP1 ISZERO PUSH2 0x3D6 JUMPI PUSH1 0x0 DUP1 REVERT JUMPDEST POP PUSH2 0x2F8 PUSH2 0x3E5 CALLDATASIZE PUSH1 0x4 PUSH2 0x4DA6 JUMP JUMPDEST PUSH2 0x1142 JUMP JUMPDEST CALLVALUE DUP1 ISZERO PUSH2 0x3F6 JUMPI PUSH1 0x0 DUP1 REVERT JUMPDEST POP PUSH2 0x40A PUSH2 0x405 CALLDATASIZE PUSH1 0x4 PUSH2 0x4E0E JUMP JUMPDEST PUSH2 0x115E JUMP JUMPDEST PUSH1 0x40 MLOAD PUSH2 0x381 SWAP3 SWAP2 SWAP1 PUSH2 0x4E56 JUMP JUMPDEST CALLVALUE DUP1 ISZERO PUSH2 0x424 JUMPI PUSH1 0x0 DUP1 REVERT JUMPDEST POP PUSH2 0x2F8 PUSH2 0x433 CALLDATASIZE PUSH1 0x4 PUSH2 0x4DA6 JUMP JUMPDEST PUSH2 0x19DB JUMP JUMPDEST CALLVALUE DUP1 ISZERO PUSH2 0x444 JUMPI PUSH1 0x0 DUP1 REVERT JUMPDEST POP PUSH2 0x514 PUSH2 0x453 CALLDATASIZE PUSH1 0x4 PUSH2 0x4D0B JUMP JUMPDEST PUSH1 0x40 DUP1 MLOAD PUSH1 0xC0 DUP2 ADD DUP3 MSTORE PUSH1 0x0 DUP1 DUP3 MSTORE PUSH1 0x20 DUP3 ADD DUP2 SWAP1 MSTORE SWAP2 DUP2 ADD DUP3 SWAP1 MSTORE PUSH1 0x60 DUP2 ADD DUP3 SWAP1 MSTORE PUSH1 0x80 DUP2 ADD DUP3 SWAP1 MSTORE PUSH1 0xA0 DUP2 ADD SWAP2 SWAP1 SWAP2 MSTORE POP PUSH1 0x0 SWAP1 DUP2 MSTORE PUSH1 0x6 PUSH1 0x20 DUP2 DUP2 MSTORE PUSH1 0x40 DUP1 DUP5 KECCAK256 PUSH1 0x1 PUSH1 0x1 PUSH1 0xA0 SHL SUB SWAP7 DUP8 AND DUP6 MSTORE DUP3 MSTORE DUP1 DUP5 KECCAK256 SWAP5 SWAP1 SWAP6 AND DUP4 MSTORE SWAP3 DUP4 MSTORE SWAP1 DUP4 SWAP1 KECCAK256 DUP4 MLOAD PUSH1 0xC0 DUP2 ADD DUP6 MSTORE SWAP2 DUP2 ADD SLOAD PUSH1 0x1 PUSH1 0x1 PUSH1 0x60 SHL SUB DUP1 DUP3 AND DUP5 MSTORE PUSH1 0x1 PUSH1 0x60 SHL SWAP2 DUP3 SWAP1 DIV DUP2 AND SWAP5 DUP5 ADD SWAP5 SWAP1 SWAP5 MSTORE PUSH1 0x7 DUP3 ADD SLOAD DUP1 DUP6 AND SWAP6 DUP5 ADD SWAP6 SWAP1 SWAP6 MSTORE SWAP4 DUP5 SWAP1 DIV DUP4 AND PUSH1 0x60 DUP4 ADD MSTORE PUSH1 0x8 ADD SLOAD DUP1 DUP4 AND PUSH1 0x80 DUP4 ADD MSTORE SWAP3 SWAP1 SWAP3 DIV AND PUSH1 0xA0 DUP3 ADD MSTORE SWAP1 JUMP JUMPDEST PUSH1 0x40 MLOAD PUSH2 0x381 SWAP2 SWAP1 PUSH1 0x0 PUSH1 0xC0 DUP3 ADD SWAP1 POP PUSH1 0x1 PUSH1 0x1 PUSH1 0x60 SHL SUB DUP1 DUP5 MLOAD AND DUP4 MSTORE DUP1 PUSH1 0x20 DUP6 ADD MLOAD AND PUSH1 0x20 DUP5 ADD MSTORE DUP1 PUSH1 0x40 DUP6 ADD MLOAD AND PUSH1 0x40 DUP5 ADD MSTORE DUP1 PUSH1 0x60 DUP6 ADD MLOAD AND PUSH1 0x60 DUP5 ADD MSTORE DUP1 PUSH1 0x80 DUP6 ADD MLOAD AND PUSH1 0x80 DUP5 ADD MSTORE DUP1 PUSH1 0xA0 DUP6 ADD MLOAD AND PUSH1 0xA0 DUP5 ADD MSTORE POP SWAP3 SWAP2 POP POP JUMP JUMPDEST CALLVALUE DUP1 ISZERO PUSH2 0x581 JUMPI PUSH1 0x0 DUP1 REVERT JUMPDEST POP PUSH2 0x595 PUSH2 0x590 CALLDATASIZE PUSH1 0x4 PUSH2 0x4ECA JUMP JUMPDEST PUSH2 0x1A63 JUMP JUMPDEST PUSH1 0x40 DUP1 MLOAD PUSH1 0x1 PUSH1 0x1 PUSH1 0x60 SHL SUB SWAP4 DUP5 AND DUP2 MSTORE SWAP3 SWAP1 SWAP2 AND PUSH1 0x20 DUP4 ADD MSTORE ADD PUSH2 0x381 JUMP JUMPDEST CALLVALUE DUP1 ISZERO PUSH2 0x5C1 JUMPI PUSH1 0x0 DUP1 REVERT JUMPDEST POP PUSH1 0x7 SLOAD PUSH2 0x5D0 SWAP1 PUSH2 0xFFFF AND DUP2 JUMP JUMPDEST PUSH1 0x40 MLOAD PUSH2 0xFFFF SWAP1 SWAP2 AND DUP2 MSTORE PUSH1 0x20 ADD PUSH2 0x381 JUMP JUMPDEST CALLVALUE DUP1 ISZERO PUSH2 0x5EF JUMPI PUSH1 0x0 DUP1 REVERT JUMPDEST POP PUSH2 0x2F8 PUSH2 0x5FE CALLDATASIZE PUSH1 0x4 PUSH2 0x4E0E JUMP JUMPDEST PUSH2 0x1B1A JUMP JUMPDEST CALLVALUE DUP1 ISZERO PUSH2 0x60F JUMPI PUSH1 0x0 DUP1 REVERT JUMPDEST POP PUSH2 0x619 PUSH1 0xD SLOAD DUP2 JUMP JUMPDEST PUSH1 0x40 MLOAD SWAP1 DUP2 MSTORE PUSH1 0x20 ADD PUSH2 0x381 JUMP JUMPDEST CALLVALUE DUP1 ISZERO PUSH2 0x633 JUMPI PUSH1 0x0 DUP1 REVERT JUMPDEST POP PUSH2 0x619 PUSH1 0xC SLOAD DUP2 JUMP JUMPDEST CALLVALUE DUP1 ISZERO PUSH2 0x649 JUMPI PUSH1 0x0 DUP1 REVERT JUMPDEST POP PUSH2 0x65D PUSH2 0x658 CALLDATASIZE PUSH1 0x4 PUSH2 0x4F3B JUMP JUMPDEST PUSH2 0x1DE0 JUMP JUMPDEST PUSH1 0x40 MLOAD SWAP1 ISZERO ISZERO DUP2 MSTORE PUSH1 0x20 ADD PUSH2 0x381 JUMP JUMPDEST CALLVALUE DUP1 ISZERO PUSH2 0x679 JUMPI PUSH1 0x0 DUP1 REVERT JUMPDEST POP PUSH2 0x619 PUSH2 0x688 CALLDATASIZE PUSH1 0x4 PUSH2 0x4D4C JUMP JUMPDEST PUSH1 0x3 PUSH1 0x20 MSTORE PUSH1 0x0 SWAP1 DUP2 MSTORE PUSH1 0x40 SWAP1 KECCAK256 SLOAD DUP2 JUMP JUMPDEST CALLVALUE DUP1 ISZERO PUSH2 0x6A6 JUMPI PUSH1 0x0 DUP1 REVERT JUMPDEST POP PUSH2 0x2F8 PUSH2 0x6B5 CALLDATASIZE PUSH1 0x4 PUSH2 0x4F3B JUMP JUMPDEST PUSH2 0x1EAC JUMP JUMPDEST CALLVALUE DUP1 ISZERO PUSH2 0x6C6 JUMPI PUSH1 0x0 DUP1 REVERT JUMPDEST POP PUSH2 0x6DA PUSH2 0x6D5 CALLDATASIZE PUSH1 0x4 PUSH2 0x4D0B JUMP JUMPDEST PUSH2 0x1F32 JUMP JUMPDEST PUSH1 0x40 MLOAD PUSH2 0x381 SWAP2 SWAP1 PUSH2 0x4F8F JUMP JUMPDEST CALLVALUE DUP1 ISZERO PUSH2 0x6F3 JUMPI PUSH1 0x0 DUP1 REVERT JUMPDEST POP PUSH2 0x619 PUSH2 0x702 CALLDATASIZE PUSH1 0x4 PUSH2 0x50EF JUMP JUMPDEST PUSH1 0x5 PUSH1 0x20 SWAP1 DUP2 MSTORE PUSH1 0x0 SWAP4 DUP5 MSTORE PUSH1 0x40 DUP1 DUP6 KECCAK256 DUP5 MLOAD DUP1 DUP7 ADD DUP5 ADD DUP1 MLOAD SWAP3 DUP2 MSTORE SWAP1 DUP5 ADD SWAP6 DUP5 ADD SWAP6 SWAP1 SWAP6 KECCAK256 SWAP5 MSTORE SWAP3 SWAP1 MSTORE DUP3 MSTORE SWAP1 KECCAK256 SLOAD DUP2 JUMP JUMPDEST CALLVALUE DUP1 ISZERO PUSH2 0x742 JUMPI PUSH1 0x0 DUP1 REVERT JUMPDEST POP PUSH2 0x2F8 PUSH2 0x751 CALLDATASIZE PUSH1 0x4 PUSH2 0x4C61 JUMP JUMPDEST PUSH2 0x221F JUMP JUMPDEST CALLVALUE DUP1 ISZERO PUSH2 0x762 JUMPI PUSH1 0x0 DUP1 REVERT JUMPDEST POP PUSH2 0x2F8 PUSH2 0x22FB JUMP JUMPDEST CALLVALUE DUP1 ISZERO PUSH2 0x777 JUMPI PUSH1 0x0 DUP1 REVERT JUMPDEST POP PUSH2 0x78B PUSH2 0x786 CALLDATASIZE PUSH1 0x4 PUSH2 0x4D4C JUMP JUMPDEST PUSH2 0x230F JUMP JUMPDEST PUSH1 0x40 MLOAD PUSH2 0x381 SWAP2 SWAP1 PUSH2 0x51E1 JUMP JUMPDEST CALLVALUE DUP1 ISZERO PUSH2 0x7A4 JUMPI PUSH1 0x0 DUP1 REVERT JUMPDEST POP PUSH2 0x7B8 PUSH2 0x7B3 CALLDATASIZE PUSH1 0x4 PUSH2 0x4D0B JUMP JUMPDEST PUSH2 0x23A9 JUMP JUMPDEST PUSH1 0x40 MLOAD PUSH1 0x1 PUSH1 0x1 PUSH1 0x60 SHL SUB SWAP1 SWAP2 AND DUP2 MSTORE PUSH1 0x20 ADD PUSH2 0x381 JUMP JUMPDEST CALLVALUE DUP1 ISZERO PUSH2 0x7DC JUMPI PUSH1 0x0 DUP1 REVERT JUMPDEST POP PUSH2 0x619 PUSH2 0x7EB CALLDATASIZE PUSH1 0x4 PUSH2 0x51F4 JUMP JUMPDEST PUSH1 0x2 PUSH1 0x20 SWAP1 DUP2 MSTORE PUSH1 0x0 SWAP3 DUP4 MSTORE PUSH1 0x40 DUP1 DUP5 KECCAK256 SWAP1 SWAP2 MSTORE SWAP1 DUP3 MSTORE SWAP1 KECCAK256 SLOAD DUP2 JUMP JUMPDEST CALLVALUE DUP1 ISZERO PUSH2 0x814 JUMPI PUSH1 0x0 DUP1 REVERT JUMPDEST POP PUSH1 0x0 SLOAD PUSH1 0x1 PUSH1 0x1 PUSH1 0xA0 SHL SUB AND PUSH2 0x36D JUMP JUMPDEST CALLVALUE DUP1 ISZERO PUSH2 0x832 JUMPI PUSH1 0x0 DUP1 REVERT JUMPDEST POP PUSH2 0x619 PUSH1 0xA SLOAD DUP2 JUMP JUMPDEST CALLVALUE DUP1 ISZERO PUSH2 0x848 JUMPI PUSH1 0x0 DUP1 REVERT JUMPDEST POP PUSH1 0x4 SLOAD PUSH2 0x36D SWAP1 PUSH1 0x1 PUSH1 0x1 PUSH1 0xA0 SHL SUB AND DUP2 JUMP JUMPDEST CALLVALUE DUP1 ISZERO PUSH2 0x868 JUMPI PUSH1 0x0 DUP1 REVERT JUMPDEST POP PUSH2 0x2F8 PUSH2 0x252C JUMP JUMPDEST CALLVALUE DUP1 ISZERO PUSH2 0x87D JUMPI PUSH1 0x0 DUP1 REVERT JUMPDEST POP PUSH2 0x78B PUSH2 0x88C CALLDATASIZE PUSH1 0x4 PUSH2 0x4D4C JUMP JUMPDEST PUSH2 0x2576 JUMP JUMPDEST CALLVALUE DUP1 ISZERO PUSH2 0x89D JUMPI PUSH1 0x0 DUP1 REVERT JUMPDEST POP PUSH2 0x2F8 PUSH2 0x8AC CALLDATASIZE PUSH1 0x4 PUSH2 0x4F3B JUMP JUMPDEST PUSH2 0x268C JUMP JUMPDEST CALLVALUE DUP1 ISZERO PUSH2 0x8BD JUMPI PUSH1 0x0 DUP1 REVERT JUMPDEST POP PUSH2 0x6DA PUSH2 0x8CC CALLDATASIZE PUSH1 0x4 PUSH2 0x4D0B JUMP JUMPDEST PUSH2 0x2715 JUMP JUMPDEST CALLVALUE DUP1 ISZERO PUSH2 0x8DD JUMPI PUSH1 0x0 DUP1 REVERT JUMPDEST POP PUSH2 0x36D PUSH32 0x0 DUP2 JUMP JUMPDEST CALLVALUE DUP1 ISZERO PUSH2 0x911 JUMPI PUSH1 0x0 DUP1 REVERT JUMPDEST POP PUSH2 0x619 PUSH1 0xB SLOAD DUP2 JUMP JUMPDEST CALLVALUE DUP1 ISZERO PUSH2 0x927 JUMPI PUSH1 0x0 DUP1 REVERT JUMPDEST POP PUSH2 0xA31 PUSH2 0x936 CALLDATASIZE PUSH1 0x4 PUSH2 0x4D0B JUMP JUMPDEST PUSH1 0x40 DUP1 MLOAD PUSH2 0x100 DUP2 ADD DUP3 MSTORE PUSH1 0x0 DUP1 DUP3 MSTORE PUSH1 0x20 DUP3 ADD DUP2 SWAP1 MSTORE SWAP2 DUP2 ADD DUP3 SWAP1 MSTORE PUSH1 0x60 DUP2 ADD DUP3 SWAP1 MSTORE PUSH1 0x80 DUP2 ADD DUP3 SWAP1 MSTORE PUSH1 0xA0 DUP2 ADD DUP3 SWAP1 MSTORE PUSH1 0xC0 DUP2 ADD DUP3 SWAP1 MSTORE PUSH1 0xE0 DUP2 ADD SWAP2 SWAP1 SWAP2 MSTORE POP PUSH1 0x0 SWAP1 DUP2 MSTORE PUSH1 0x6 PUSH1 0x20 SWAP1 DUP2 MSTORE PUSH1 0x40 DUP1 DUP4 KECCAK256 PUSH1 0x1 PUSH1 0x1 PUSH1 0xA0 SHL SUB SWAP6 DUP7 AND DUP5 MSTORE DUP3 MSTORE DUP1 DUP4 KECCAK256 SWAP4 SWAP1 SWAP5 AND DUP3 MSTORE SWAP2 DUP3 MSTORE DUP3 SWAP1 KECCAK256 DUP3 MLOAD PUSH2 0x100 DUP2 ADD DUP5 MSTORE PUSH1 0x4 DUP3 ADD SLOAD PUSH3 0xFFFFFF DUP1 DUP3 AND DUP4 MSTORE PUSH4 0x1000000 DUP3 DIV DUP2 AND SWAP5 DUP4 ADD SWAP5 SWAP1 SWAP5 MSTORE PUSH1 0x1 PUSH1 0x30 SHL DUP2 DIV DUP5 AND SWAP5 DUP3 ADD SWAP5 SWAP1 SWAP5 MSTORE PUSH1 0x1 PUSH1 0x48 SHL DUP5 DIV DUP4 AND PUSH1 0x60 DUP3 ADD MSTORE PUSH1 0x1 PUSH1 0x60 SHL SWAP4 DUP5 SWAP1 DIV PUSH1 0x1 PUSH1 0x1 PUSH1 0x60 SHL SUB SWAP1 DUP2 AND PUSH1 0x80 DUP4 ADD MSTORE PUSH1 0x5 SWAP1 SWAP3 ADD SLOAD DUP1 DUP4 AND PUSH1 0xA0 DUP4 ADD MSTORE SWAP4 DUP5 DIV SWAP1 SWAP3 AND PUSH1 0xC0 DUP4 ADD MSTORE PUSH1 0x1 PUSH1 0x78 SHL SWAP1 SWAP3 DIV SWAP1 SWAP2 AND PUSH1 0xE0 DUP3 ADD MSTORE SWAP1 JUMP JUMPDEST PUSH1 0x40 MLOAD PUSH2 0x381 SWAP2 SWAP1 PUSH2 0x522D JUMP JUMPDEST CALLVALUE DUP1 ISZERO PUSH2 0xA4A JUMPI PUSH1 0x0 DUP1 REVERT JUMPDEST POP PUSH2 0x2F8 PUSH2 0xA59 CALLDATASIZE PUSH1 0x4 PUSH2 0x52CB JUMP JUMPDEST PUSH2 0x29D9 JUMP JUMPDEST CALLVALUE DUP1 ISZERO PUSH2 0xA6A JUMPI PUSH1 0x0 DUP1 REVERT JUMPDEST POP PUSH2 0x619 PUSH2 0x2710 DUP2 JUMP JUMPDEST CALLVALUE DUP1 ISZERO PUSH2 0xA80 JUMPI PUSH1 0x0 DUP1 REVERT JUMPDEST POP PUSH2 0x2F8 PUSH2 0xA8F CALLDATASIZE PUSH1 0x4 PUSH2 0x52E8 JUMP JUMPDEST PUSH2 0x2A35 JUMP JUMPDEST CALLVALUE DUP1 ISZERO PUSH2 0xAA0 JUMPI PUSH1 0x0 DUP1 REVERT JUMPDEST POP PUSH2 0x2F8 PUSH2 0xAAF CALLDATASIZE PUSH1 0x4 PUSH2 0x5306 JUMP JUMPDEST PUSH2 0x2AD5 JUMP JUMPDEST CALLVALUE DUP1 ISZERO PUSH2 0xAC0 JUMPI PUSH1 0x0 DUP1 REVERT JUMPDEST POP PUSH2 0x2F8 PUSH2 0xACF CALLDATASIZE PUSH1 0x4 PUSH2 0x4DA6 JUMP JUMPDEST PUSH2 0x2B6A JUMP JUMPDEST CALLVALUE DUP1 ISZERO PUSH2 0xAE0 JUMPI PUSH1 0x0 DUP1 REVERT JUMPDEST POP PUSH2 0x65D PUSH2 0xAEF CALLDATASIZE PUSH1 0x4 PUSH2 0x4D0B JUMP JUMPDEST PUSH2 0x2C2E JUMP JUMPDEST CALLVALUE DUP1 ISZERO PUSH2 0xB00 JUMPI PUSH1 0x0 DUP1 REVERT JUMPDEST POP PUSH2 0x36D PUSH2 0xB0F CALLDATASIZE PUSH1 0x4 PUSH2 0x4D4C JUMP JUMPDEST PUSH1 0x8 PUSH1 0x20 MSTORE PUSH1 0x0 SWAP1 DUP2 MSTORE PUSH1 0x40 SWAP1 KECCAK256 SLOAD PUSH1 0x1 PUSH1 0x1 PUSH1 0xA0 SHL SUB AND DUP2 JUMP JUMPDEST PUSH2 0x2F8 PUSH2 0xB38 CALLDATASIZE PUSH1 0x4 PUSH2 0x4C61 JUMP JUMPDEST PUSH2 0x2CA0 JUMP JUMPDEST CALLVALUE DUP1 ISZERO PUSH2 0xB49 JUMPI PUSH1 0x0 DUP1 REVERT JUMPDEST POP PUSH2 0x2F8 PUSH2 0xB58 CALLDATASIZE PUSH1 0x4 PUSH2 0x4E0E JUMP JUMPDEST PUSH2 0x2EB6 JUMP JUMPDEST CALLVALUE DUP1 ISZERO PUSH2 0xB69 JUMPI PUSH1 0x0 DUP1 REVERT JUMPDEST POP PUSH2 0x2F8 PUSH2 0xB78 CALLDATASIZE PUSH1 0x4 PUSH2 0x5378 JUMP JUMPDEST PUSH2 0x320A JUMP JUMPDEST CALLVALUE DUP1 ISZERO PUSH2 0xB89 JUMPI PUSH1 0x0 DUP1 REVERT JUMPDEST POP PUSH2 0x619 PUSH2 0xB98 CALLDATASIZE PUSH1 0x4 PUSH2 0x4D0B JUMP JUMPDEST PUSH1 0x0 SWAP1 DUP2 MSTORE PUSH1 0x6 PUSH1 0x20 SWAP1 DUP2 MSTORE PUSH1 0x40 DUP1 DUP4 KECCAK256 PUSH1 0x1 PUSH1 0x1 PUSH1 0xA0 SHL SUB SWAP6 DUP7 AND DUP5 MSTORE DUP3 MSTORE DUP1 DUP4 KECCAK256 SWAP4 SWAP1 SWAP5 AND DUP3 MSTORE SWAP2 SWAP1 SWAP2 MSTORE KECCAK256 PUSH1 0x9 ADD SLOAD PUSH3 0xFFFFFF AND SWAP1 JUMP JUMPDEST CALLVALUE DUP1 ISZERO PUSH2 0xBDE JUMPI PUSH1 0x0 DUP1 REVERT JUMPDEST POP PUSH2 0x2F8 PUSH2 0xBED CALLDATASIZE PUSH1 0x4 PUSH2 0x4F3B JUMP JUMPDEST PUSH2 0x32BC JUMP JUMPDEST CALLVALUE DUP1 ISZERO PUSH2 0xBFE JUMPI PUSH1 0x0 DUP1 REVERT JUMPDEST POP PUSH2 0x2F8 PUSH2 0xC0D CALLDATASIZE PUSH1 0x4 PUSH2 0x52CB JUMP JUMPDEST PUSH2 0x3316 JUMP JUMPDEST CALLVALUE DUP1 ISZERO PUSH2 0xC1E JUMPI PUSH1 0x0 DUP1 REVERT JUMPDEST POP PUSH2 0x78B PUSH2 0xC2D CALLDATASIZE PUSH1 0x4 PUSH2 0x53A8 JUMP JUMPDEST PUSH2 0x338F JUMP JUMPDEST CALLER PUSH32 0x0 PUSH1 0x1 PUSH1 0x1 PUSH1 0xA0 SHL SUB AND EQ PUSH2 0xCAF JUMPI PUSH1 0x40 MLOAD PUSH3 0x461BCD PUSH1 0xE5 SHL DUP2 MSTORE PUSH1 0x20 PUSH1 0x4 DUP3 ADD MSTORE PUSH1 0x1E PUSH1 0x24 DUP3 ADD MSTORE PUSH32 0x4C7A4170703A20696E76616C696420656E64706F696E742063616C6C65720000 PUSH1 0x44 DUP3 ADD MSTORE PUSH1 0x64 ADD JUMPDEST PUSH1 0x40 MLOAD DUP1 SWAP2 SUB SWAP1 REVERT JUMPDEST PUSH2 0xFFFF DUP7 AND PUSH1 0x0 SWAP1 DUP2 MSTORE PUSH1 0x1 PUSH1 0x20 MSTORE PUSH1 0x40 DUP2 KECCAK256 DUP1 SLOAD PUSH2 0xCCD SWAP1 PUSH2 0x53F9 JUMP JUMPDEST DUP1 PUSH1 0x1F ADD PUSH1 0x20 DUP1 SWAP2 DIV MUL PUSH1 0x20 ADD PUSH1 0x40 MLOAD SWAP1 DUP2 ADD PUSH1 0x40 MSTORE DUP1 SWAP3 SWAP2 SWAP1 DUP2 DUP2 MSTORE PUSH1 0x20 ADD DUP3 DUP1 SLOAD PUSH2 0xCF9 SWAP1 PUSH2 0x53F9 JUMP JUMPDEST DUP1 ISZERO PUSH2 0xD46 JUMPI DUP1 PUSH1 0x1F LT PUSH2 0xD1B JUMPI PUSH2 0x100 DUP1 DUP4 SLOAD DIV MUL DUP4 MSTORE SWAP2 PUSH1 0x20 ADD SWAP2 PUSH2 0xD46 JUMP JUMPDEST DUP3 ADD SWAP2 SWAP1 PUSH1 0x0 MSTORE PUSH1 0x20 PUSH1 0x0 KECCAK256 SWAP1 JUMPDEST DUP2 SLOAD DUP2 MSTORE SWAP1 PUSH1 0x1 ADD SWAP1 PUSH1 0x20 ADD DUP1 DUP4 GT PUSH2 0xD29 JUMPI DUP3 SWAP1 SUB PUSH1 0x1F AND DUP3 ADD SWAP2 JUMPDEST POP POP POP POP POP SWAP1 POP DUP1 MLOAD DUP7 DUP7 SWAP1 POP EQ DUP1 ISZERO PUSH2 0xD61 JUMPI POP PUSH1 0x0 DUP2 MLOAD GT JUMPDEST DUP1 ISZERO PUSH2 0xD89 JUMPI POP DUP1 MLOAD PUSH1 0x20 DUP3 ADD KECCAK256 PUSH1 0x40 MLOAD PUSH2 0xD7F SWAP1 DUP9 SWAP1 DUP9 SWAP1 PUSH2 0x5433 JUMP JUMPDEST PUSH1 0x40 MLOAD DUP1 SWAP2 SUB SWAP1 KECCAK256 EQ JUMPDEST PUSH2 0xDE4 JUMPI PUSH1 0x40 MLOAD PUSH3 0x461BCD PUSH1 0xE5 SHL DUP2 MSTORE PUSH1 0x20 PUSH1 0x4 DUP3 ADD MSTORE PUSH1 0x26 PUSH1 0x24 DUP3 ADD MSTORE PUSH32 0x4C7A4170703A20696E76616C696420736F757263652073656E64696E6720636F PUSH1 0x44 DUP3 ADD MSTORE PUSH6 0x1B9D1C9858DD PUSH1 0xD2 SHL PUSH1 0x64 DUP3 ADD MSTORE PUSH1 0x84 ADD PUSH2 0xCA6 JUMP JUMPDEST PUSH2 0xE5A DUP8 DUP8 DUP8 DUP1 DUP1 PUSH1 0x1F ADD PUSH1 0x20 DUP1 SWAP2 DIV MUL PUSH1 0x20 ADD PUSH1 0x40 MLOAD SWAP1 DUP2 ADD PUSH1 0x40 MSTORE DUP1 SWAP4 SWAP3 SWAP2 SWAP1 DUP2 DUP2 MSTORE PUSH1 0x20 ADD DUP4 DUP4 DUP1 DUP3 DUP5 CALLDATACOPY PUSH1 0x0 SWAP3 ADD SWAP2 SWAP1 SWAP2 MSTORE POP POP PUSH1 0x40 DUP1 MLOAD PUSH1 0x20 PUSH1 0x1F DUP11 ADD DUP2 SWAP1 DIV DUP2 MUL DUP3 ADD DUP2 ADD SWAP1 SWAP3 MSTORE DUP9 DUP2 MSTORE DUP11 SWAP4 POP SWAP2 POP DUP9 SWAP1 DUP9 SWAP1 DUP2 SWAP1 DUP5 ADD DUP4 DUP3 DUP1 DUP3 DUP5 CALLDATACOPY PUSH1 0x0 SWAP3 ADD SWAP2 SWAP1 SWAP2 MSTORE POP PUSH2 0x3437 SWAP3 POP POP POP JUMP JUMPDEST POP POP POP POP POP POP POP JUMP JUMPDEST PUSH1 0x0 DUP2 DUP2 MSTORE PUSH1 0x6 PUSH1 0x20 SWAP1 DUP2 MSTORE PUSH1 0x40 DUP1 DUP4 KECCAK256 PUSH1 0x1 PUSH1 0x1 PUSH1 0xA0 SHL SUB DUP8 DUP2 AND DUP6 MSTORE SWAP1 DUP4 MSTORE DUP2 DUP5 KECCAK256 SWAP1 DUP7 AND DUP5 MSTORE SWAP1 SWAP2 MSTORE SWAP1 KECCAK256 PUSH1 0x9 DUP2 ADD SLOAD PUSH4 0x1000000 SWAP1 DIV PUSH1 0xFF AND ISZERO PUSH2 0xEE5 JUMPI PUSH1 0x40 MLOAD PUSH3 0x461BCD PUSH1 0xE5 SHL DUP2 MSTORE PUSH1 0x20 PUSH1 0x4 DUP3 ADD MSTORE PUSH1 0x15 PUSH1 0x24 DUP3 ADD MSTORE PUSH21 0x216177616974206C7A20696E626F756E64206D7367 PUSH1 0x58 SHL PUSH1 0x44 DUP3 ADD MSTORE PUSH1 0x64 ADD PUSH2 0xCA6 JUMP JUMPDEST PUSH1 0xA SLOAD PUSH1 0x5 DUP3 ADD SLOAD PUSH2 0xF07 SWAP1 PUSH1 0x1 PUSH1 0x78 SHL SWAP1 DIV PUSH1 0x1 PUSH1 0x1 PUSH1 0x60 SHL SUB AND TIMESTAMP PUSH2 0x5459 JUMP JUMPDEST GT PUSH2 0xF47 JUMPI PUSH1 0x40 MLOAD PUSH3 0x461BCD PUSH1 0xE5 SHL DUP2 MSTORE PUSH1 0x20 PUSH1 0x4 DUP3 ADD MSTORE PUSH1 0x10 PUSH1 0x24 DUP3 ADD MSTORE PUSH16 0x2161776169742074696D657374616D7 PUSH1 0x84 SHL PUSH1 0x44 DUP3 ADD MSTORE PUSH1 0x64 ADD PUSH2 0xCA6 JUMP JUMPDEST PUSH2 0xF5A PUSH8 0x16345785D8A0000 PUSH1 0x2 PUSH2 0x5472 JUMP JUMPDEST SELFBALANCE LT ISZERO PUSH2 0xF9A JUMPI PUSH1 0x40 MLOAD PUSH3 0x461BCD PUSH1 0xE5 SHL DUP2 MSTORE PUSH1 0x20 PUSH1 0x4 DUP3 ADD MSTORE PUSH1 0xE PUSH1 0x24 DUP3 ADD MSTORE PUSH14 0x859D85CD31A5B5A5D081CD95B99 PUSH1 0x92 SHL PUSH1 0x44 DUP3 ADD MSTORE PUSH1 0x64 ADD PUSH2 0xCA6 JUMP JUMPDEST PUSH2 0xFA5 DUP5 DUP5 DUP5 PUSH2 0x34B0 JUMP JUMPDEST PUSH1 0x9 ADD DUP1 SLOAD PUSH4 0xFF000000 NOT AND PUSH4 0x1000000 OR SWAP1 SSTORE POP POP POP JUMP JUMPDEST PUSH2 0xFC6 PUSH2 0x36B5 JUMP JUMPDEST PUSH1 0x40 MLOAD PUSH4 0x7E0DB17 PUSH1 0xE0 SHL DUP2 MSTORE PUSH2 0xFFFF DUP3 AND PUSH1 0x4 DUP3 ADD MSTORE PUSH32 0x0 PUSH1 0x1 PUSH1 0x1 PUSH1 0xA0 SHL SUB AND SWAP1 PUSH4 0x7E0DB17 SWAP1 PUSH1 0x24 ADD JUMPDEST PUSH1 0x0 PUSH1 0x40 MLOAD DUP1 DUP4 SUB DUP2 PUSH1 0x0 DUP8 DUP1 EXTCODESIZE ISZERO DUP1 ISZERO PUSH2 0x102C JUMPI PUSH1 0x0 DUP1 REVERT JUMPDEST POP GAS CALL ISZERO DUP1 ISZERO PUSH2 0x1040 JUMPI RETURNDATASIZE PUSH1 0x0 DUP1 RETURNDATACOPY RETURNDATASIZE PUSH1 0x0 REVERT JUMPDEST POP POP POP POP POP JUMP JUMPDEST PUSH1 0x0 DUP2 DUP2 MSTORE PUSH1 0x6 PUSH1 0x20 SWAP1 DUP2 MSTORE PUSH1 0x40 DUP1 DUP4 KECCAK256 PUSH1 0x1 PUSH1 0x1 PUSH1 0xA0 SHL SUB DUP1 DUP9 AND DUP6 MSTORE SWAP1 DUP4 MSTORE DUP2 DUP5 KECCAK256 SWAP1 DUP7 AND DUP5 MSTORE SWAP1 SWAP2 MSTORE SWAP1 KECCAK256 PUSH1 0xA SLOAD PUSH1 0xD SLOAD PUSH2 0x1085 SWAP2 SWAP1 PUSH2 0x5472 JUMP JUMPDEST PUSH1 0x5 DUP3 ADD SLOAD PUSH2 0x10A4 SWAP1 PUSH1 0x1 PUSH1 0x78 SHL SWAP1 DIV PUSH1 0x1 PUSH1 0x1 PUSH1 0x60 SHL SUB AND TIMESTAMP PUSH2 0x5459 JUMP JUMPDEST GT PUSH2 0x10AE JUMPI PUSH1 0x0 DUP1 REVERT JUMPDEST PUSH1 0x9 ADD DUP1 SLOAD PUSH8 0xFF00000000000000 NOT AND PUSH1 0x1 PUSH1 0x38 SHL OR SWAP1 SSTORE POP POP POP JUMP JUMPDEST PUSH2 0x10D3 PUSH2 0x36B5 JUMP JUMPDEST PUSH2 0xFFFF SWAP1 SWAP2 AND PUSH1 0x0 SWAP1 DUP2 MSTORE PUSH1 0x3 PUSH1 0x20 MSTORE PUSH1 0x40 SWAP1 KECCAK256 SSTORE JUMP JUMPDEST PUSH2 0x10F2 PUSH2 0x36B5 JUMP JUMPDEST PUSH1 0x40 MLOAD PUSH4 0x10DDB137 PUSH1 0xE0 SHL DUP2 MSTORE PUSH2 0xFFFF DUP3 AND PUSH1 0x4 DUP3 ADD MSTORE PUSH32 0x0 PUSH1 0x1 PUSH1 0x1 PUSH1 0xA0 SHL SUB AND SWAP1 PUSH4 0x10DDB137 SWAP1 PUSH1 0x24 ADD PUSH2 0x1012 JUMP JUMPDEST PUSH2 0x114A PUSH2 0x36B5 JUMP JUMPDEST PUSH2 0x1158 DUP5 DUP5 DUP5 DUP5 PUSH1 0x0 PUSH2 0x370F JUMP JUMPDEST POP POP POP POP JUMP JUMPDEST PUSH1 0x40 DUP1 MLOAD PUSH1 0x64 DUP1 DUP3 MSTORE PUSH2 0xCA0 DUP3 ADD SWAP1 SWAP3 MSTORE PUSH1 0x60 SWAP2 PUSH1 0x0 SWAP2 SWAP1 DUP2 PUSH1 0x20 ADD JUMPDEST PUSH1 0x40 DUP1 MLOAD DUP1 DUP3 ADD SWAP1 SWAP2 MSTORE PUSH1 0x0 DUP1 DUP3 MSTORE PUSH1 0x20 DUP3 ADD MSTORE DUP2 MSTORE PUSH1 0x20 ADD SWAP1 PUSH1 0x1 SWAP1 SUB SWAP1 DUP2 PUSH2 0x117B JUMPI POP POP PUSH1 0x0 DUP6 DUP2 MSTORE PUSH1 0x6 PUSH1 0x20 DUP2 DUP2 MSTORE PUSH1 0x40 DUP1 DUP5 KECCAK256 PUSH1 0x1 PUSH1 0x1 PUSH1 0xA0 SHL SUB DUP13 DUP2 AND DUP7 MSTORE SWAP1 DUP4 MSTORE DUP2 DUP6 KECCAK256 SWAP1 DUP12 AND DUP6 MSTORE DUP3 MSTORE DUP1 DUP5 KECCAK256 DUP2 MLOAD PUSH1 0xC0 DUP2 ADD DUP4 MSTORE DUP6 DUP2 MSTORE SWAP3 DUP4 ADD DUP6 SWAP1 MSTORE PUSH1 0x60 DUP4 ADD DUP6 SWAP1 MSTORE PUSH1 0xA0 DUP4 ADD SWAP5 SWAP1 SWAP5 MSTORE PUSH1 0x4 DUP5 ADD SLOAD PUSH3 0xFFFFFF DUP1 DUP3 AND SWAP3 DUP5 ADD SWAP3 SWAP1 SWAP3 MSTORE PUSH1 0x1 PUSH1 0x30 SHL SWAP1 DIV AND PUSH1 0x80 DUP3 ADD MSTORE SWAP1 DUP3 ADD SLOAD PUSH1 0x8 DUP4 ADD SLOAD SWAP4 SWAP6 POP SWAP2 SWAP3 PUSH1 0x2 DUP5 ADD SWAP3 PUSH1 0x3 DUP6 ADD SWAP3 SWAP2 PUSH2 0x1251 SWAP2 PUSH1 0x1 PUSH1 0x1 PUSH1 0x60 SHL SUB DUP1 DUP3 AND SWAP3 PUSH1 0x1 PUSH1 0x60 SHL SWAP3 DUP4 SWAP1 DIV DUP3 AND SWAP3 DUP3 DUP3 AND SWAP3 SWAP2 DIV AND DUP12 PUSH2 0x1A63 JUMP JUMPDEST PUSH1 0x1 PUSH1 0x1 PUSH1 0x60 SHL SUB SWAP1 DUP2 AND PUSH1 0x20 DUP5 ADD MSTORE AND DUP2 MSTORE PUSH1 0x0 DUP1 DUP1 JUMPDEST DUP4 MLOAD PUSH1 0x1 PUSH1 0x1 PUSH1 0x60 SHL SUB AND ISZERO PUSH2 0x15B1 JUMPI DUP4 PUSH1 0x0 ADD MLOAD PUSH1 0x1 PUSH1 0x1 PUSH1 0x60 SHL SUB AND DUP7 DUP6 PUSH1 0x40 ADD MLOAD PUSH3 0xFFFFFF AND DUP2 SLOAD DUP2 LT PUSH2 0x12A2 JUMPI PUSH2 0x12A2 PUSH2 0x5489 JUMP JUMPDEST PUSH1 0x0 SWAP2 DUP3 MSTORE PUSH1 0x20 SWAP1 SWAP2 KECCAK256 PUSH1 0x2 SWAP1 SWAP2 MUL ADD SLOAD PUSH1 0x1 PUSH1 0xA0 SHL SWAP1 DIV PUSH1 0x1 PUSH1 0x1 PUSH1 0x60 SHL SUB AND LT PUSH2 0x12CF JUMPI DUP4 MLOAD PUSH2 0x130C JUMP JUMPDEST DUP6 DUP5 PUSH1 0x40 ADD MLOAD PUSH3 0xFFFFFF AND DUP2 SLOAD DUP2 LT PUSH2 0x12EA JUMPI PUSH2 0x12EA PUSH2 0x5489 JUMP JUMPDEST PUSH1 0x0 SWAP2 DUP3 MSTORE PUSH1 0x20 SWAP1 SWAP2 KECCAK256 PUSH1 0x2 SWAP1 SWAP2 MUL ADD SLOAD PUSH1 0x1 PUSH1 0xA0 SHL SWAP1 DIV PUSH1 0x1 PUSH1 0x1 PUSH1 0x60 SHL SUB AND JUMPDEST SWAP3 POP DUP6 DUP5 PUSH1 0x40 ADD MLOAD PUSH3 0xFFFFFF AND DUP2 SLOAD DUP2 LT PUSH2 0x1329 JUMPI PUSH2 0x1329 PUSH2 0x5489 JUMP JUMPDEST SWAP1 PUSH1 0x0 MSTORE PUSH1 0x20 PUSH1 0x0 KECCAK256 SWAP1 PUSH1 0x2 MUL ADD PUSH1 0x0 ADD PUSH1 0x0 SWAP1 SLOAD SWAP1 PUSH2 0x100 EXP SWAP1 DIV PUSH1 0x1 PUSH1 0x1 PUSH1 0xA0 SHL SUB AND SWAP2 POP DUP6 DUP5 PUSH1 0x40 ADD MLOAD PUSH3 0xFFFFFF AND DUP2 SLOAD DUP2 LT PUSH2 0x136B JUMPI PUSH2 0x136B PUSH2 0x5489 JUMP JUMPDEST SWAP1 PUSH1 0x0 MSTORE PUSH1 0x20 PUSH1 0x0 KECCAK256 SWAP1 PUSH1 0x2 MUL ADD PUSH1 0x1 ADD PUSH1 0x3 SWAP1 SLOAD SWAP1 PUSH2 0x100 EXP SWAP1 DIV PUSH3 0xFFFFFF AND SWAP1 POP PUSH1 0x0 PUSH1 0x40 MLOAD DUP1 PUSH1 0x40 ADD PUSH1 0x40 MSTORE DUP1 DUP5 PUSH1 0x1 PUSH1 0x1 PUSH1 0xA0 SHL SUB AND DUP2 MSTORE PUSH1 0x20 ADD DUP6 PUSH1 0x1 PUSH1 0x1 PUSH1 0x60 SHL SUB AND DUP2 MSTORE POP SWAP1 POP DUP1 DUP11 DUP7 PUSH1 0xA0 ADD MLOAD PUSH3 0xFFFFFF AND DUP2 MLOAD DUP2 LT PUSH2 0x13D5 JUMPI PUSH2 0x13D5 PUSH2 0x5489 JUMP JUMPDEST PUSH1 0x20 MUL PUSH1 0x20 ADD ADD DUP2 SWAP1 MSTORE POP PUSH1 0x1 DUP6 PUSH1 0xA0 ADD DUP2 DUP2 MLOAD PUSH2 0x13F3 SWAP2 SWAP1 PUSH2 0x549F JUMP JUMPDEST PUSH3 0xFFFFFF AND SWAP1 MSTORE POP DUP5 MLOAD PUSH1 0x1 PUSH1 0x1 PUSH1 0x60 SHL SUB DUP1 DUP7 AND SWAP2 AND SUB PUSH2 0x1582 JUMPI PUSH1 0x4 DUP9 ADD DUP1 SLOAD PUSH12 0xFFFFFFFFFFFFFFFFFFFFFFFF PUSH1 0x60 SHL NOT AND PUSH1 0x1 PUSH1 0x60 SHL PUSH1 0x1 PUSH1 0x1 PUSH1 0x60 SHL SUB DUP8 AND DUP2 MUL SWAP2 SWAP1 SWAP2 OR SWAP1 SWAP2 SSTORE PUSH1 0x40 DUP7 ADD MLOAD PUSH1 0x5 DUP11 ADD DUP1 SLOAD PUSH3 0xFFFFFF PUSH1 0x60 SHL NOT AND PUSH3 0xFFFFFF SWAP1 SWAP3 AND SWAP3 DUP4 MUL SWAP2 SWAP1 SWAP2 OR SWAP1 SSTORE DUP8 SLOAD DUP9 SWAP2 SWAP1 DUP2 LT PUSH2 0x1476 JUMPI PUSH2 0x1476 PUSH2 0x5489 JUMP JUMPDEST PUSH1 0x0 SWAP2 DUP3 MSTORE PUSH1 0x20 SWAP1 SWAP2 KECCAK256 PUSH1 0x2 SWAP1 SWAP2 MUL ADD SLOAD PUSH1 0x5 DUP10 ADD DUP1 SLOAD PUSH1 0x1 PUSH1 0xA0 SHL SWAP1 SWAP3 DIV PUSH1 0x1 PUSH1 0x1 PUSH1 0x60 SHL SUB AND PUSH1 0x1 PUSH1 0x1 PUSH1 0x60 SHL SUB NOT SWAP1 SWAP3 AND SWAP2 SWAP1 SWAP2 OR SWAP1 SSTORE PUSH1 0x40 DUP6 ADD MLOAD DUP8 SLOAD DUP9 SWAP2 PUSH3 0xFFFFFF AND SWAP1 DUP2 LT PUSH2 0x14CD JUMPI PUSH2 0x14CD PUSH2 0x5489 JUMP JUMPDEST PUSH1 0x0 SWAP2 DUP3 MSTORE PUSH1 0x20 SWAP1 SWAP2 KECCAK256 PUSH1 0x2 SWAP1 SWAP2 MUL ADD SLOAD PUSH1 0x1 PUSH1 0x1 PUSH1 0x60 SHL SUB PUSH1 0x1 PUSH1 0xA0 SHL SWAP1 SWAP2 DIV DUP2 AND SWAP1 DUP6 AND SUB PUSH2 0x1508 JUMPI PUSH3 0xFFFFFF DUP3 AND PUSH1 0x40 DUP7 ADD MSTORE PUSH2 0x1579 JUMP JUMPDEST DUP4 DUP8 DUP7 PUSH1 0x40 ADD MLOAD PUSH3 0xFFFFFF AND DUP2 SLOAD DUP2 LT PUSH2 0x1524 JUMPI PUSH2 0x1524 PUSH2 0x5489 JUMP JUMPDEST PUSH1 0x0 SWAP2 DUP3 MSTORE PUSH1 0x20 SWAP1 SWAP2 KECCAK256 PUSH1 0x2 SWAP1 SWAP2 MUL ADD DUP1 SLOAD PUSH1 0x14 SWAP1 PUSH2 0x1554 SWAP1 DUP5 SWAP1 PUSH1 0x1 PUSH1 0xA0 SHL SWAP1 DIV PUSH1 0x1 PUSH1 0x1 PUSH1 0x60 SHL SUB AND PUSH2 0x54BB JUMP JUMPDEST SWAP3 POP PUSH2 0x100 EXP DUP2 SLOAD DUP2 PUSH1 0x1 PUSH1 0x1 PUSH1 0x60 SHL SUB MUL NOT AND SWAP1 DUP4 PUSH1 0x1 PUSH1 0x1 PUSH1 0x60 SHL SUB AND MUL OR SWAP1 SSTORE POP JUMPDEST PUSH1 0x0 DUP6 MSTORE PUSH2 0x15AB JUMP JUMPDEST PUSH3 0xFFFFFF DUP3 AND PUSH1 0x40 DUP7 ADD MSTORE DUP5 MLOAD DUP5 SWAP1 DUP7 SWAP1 PUSH2 0x159E SWAP1 DUP4 SWAP1 PUSH2 0x54BB JUMP JUMPDEST PUSH1 0x1 PUSH1 0x1 PUSH1 0x60 SHL SUB AND SWAP1 MSTORE POP JUMPDEST POP PUSH2 0x1269 JUMP JUMPDEST PUSH1 0x20 DUP5 ADD MLOAD PUSH1 0x1 PUSH1 0x1 PUSH1 0x60 SHL SUB AND ISZERO PUSH2 0x19A4 JUMPI DUP4 PUSH1 0x20 ADD MLOAD PUSH1 0x1 PUSH1 0x1 PUSH1 0x60 SHL SUB AND DUP6 DUP6 PUSH1 0x80 ADD MLOAD PUSH3 0xFFFFFF AND DUP2 SLOAD DUP2 LT PUSH2 0x15ED JUMPI PUSH2 0x15ED PUSH2 0x5489 JUMP JUMPDEST PUSH1 0x0 SWAP2 DUP3 MSTORE PUSH1 0x20 SWAP1 SWAP2 KECCAK256 PUSH1 0x2 SWAP1 SWAP2 MUL ADD SLOAD PUSH1 0x1 PUSH1 0xA0 SHL SWAP1 DIV PUSH1 0x1 PUSH1 0x1 PUSH1 0x60 SHL SUB AND LT PUSH2 0x161D JUMPI DUP4 PUSH1 0x20 ADD MLOAD PUSH2 0x165A JUMP JUMPDEST DUP5 DUP5 PUSH1 0x80 ADD MLOAD PUSH3 0xFFFFFF AND DUP2 SLOAD DUP2 LT PUSH2 0x1638 JUMPI PUSH2 0x1638 PUSH2 0x5489 JUMP JUMPDEST PUSH1 0x0 SWAP2 DUP3 MSTORE PUSH1 0x20 SWAP1 SWAP2 KECCAK256 PUSH1 0x2 SWAP1 SWAP2 MUL ADD SLOAD PUSH1 0x1 PUSH1 0xA0 SHL SWAP1 DIV PUSH1 0x1 PUSH1 0x1 PUSH1 0x60 SHL SUB AND JUMPDEST SWAP3 POP DUP5 DUP5 PUSH1 0x80 ADD MLOAD PUSH3 0xFFFFFF AND DUP2 SLOAD DUP2 LT PUSH2 0x1677 JUMPI PUSH2 0x1677 PUSH2 0x5489 JUMP JUMPDEST SWAP1 PUSH1 0x0 MSTORE PUSH1 0x20 PUSH1 0x0 KECCAK256 SWAP1 PUSH1 0x2 MUL ADD PUSH1 0x0 ADD PUSH1 0x0 SWAP1 SLOAD SWAP1 PUSH2 0x100 EXP SWAP1 DIV PUSH1 0x1 PUSH1 0x1 PUSH1 0xA0 SHL SUB AND SWAP2 POP DUP5 DUP5 PUSH1 0x80 ADD MLOAD PUSH3 0xFFFFFF AND DUP2 SLOAD DUP2 LT PUSH2 0x16B9 JUMPI PUSH2 0x16B9 PUSH2 0x5489 JUMP JUMPDEST PUSH1 0x0 SWAP2 DUP3 MSTORE PUSH1 0x20 DUP3 KECCAK256 PUSH1 0x1 PUSH1 0x2 SWAP1 SWAP3 MUL ADD ADD SLOAD PUSH3 0xFFFFFF PUSH4 0x1000000 SWAP1 SWAP2 DIV AND SWAP2 POP PUSH2 0x16EF DUP15 DUP5 PUSH1 0x1 PUSH1 0x1 PUSH1 0x60 SHL SUB DUP8 AND PUSH2 0x38B2 JUMP JUMPDEST SWAP1 POP DUP1 ISZERO PUSH2 0x1834 JUMPI DUP13 PUSH1 0x1 PUSH1 0x1 PUSH1 0xA0 SHL SUB AND DUP15 PUSH1 0x1 PUSH1 0x1 PUSH1 0xA0 SHL SUB AND PUSH32 0xDEAB98AA32D0CDDA9DBAFF1D2132CBD7A2262F53B63B25060BE8898DDABB310 DUP15 DUP7 DUP9 DUP11 PUSH1 0x80 ADD MLOAD PUSH1 0x40 MLOAD PUSH2 0x1744 SWAP5 SWAP4 SWAP3 SWAP2 SWAP1 PUSH2 0x54DB JUMP JUMPDEST PUSH1 0x40 MLOAD DUP1 SWAP2 SUB SWAP1 LOG3 PUSH1 0x0 PUSH1 0x40 MLOAD DUP1 PUSH1 0x40 ADD PUSH1 0x40 MSTORE DUP1 DUP6 PUSH1 0x1 PUSH1 0x1 PUSH1 0xA0 SHL SUB AND DUP2 MSTORE PUSH1 0x20 ADD DUP7 PUSH1 0x1 PUSH1 0x1 PUSH1 0x60 SHL SUB AND DUP2 MSTORE POP SWAP1 POP DUP1 DUP12 DUP8 PUSH1 0xA0 ADD MLOAD PUSH3 0xFFFFFF AND DUP2 MLOAD DUP2 LT PUSH2 0x1793 JUMPI PUSH2 0x1793 PUSH2 0x5489 JUMP JUMPDEST PUSH1 0x20 SWAP1 DUP2 MUL SWAP2 SWAP1 SWAP2 ADD ADD MSTORE PUSH1 0xA0 DUP7 ADD DUP1 MLOAD SWAP1 PUSH2 0x17AE DUP3 PUSH2 0x550D JUMP JUMPDEST PUSH3 0xFFFFFF AND PUSH3 0xFFFFFF AND DUP2 MSTORE POP POP DUP5 DUP8 DUP8 PUSH1 0x80 ADD MLOAD PUSH3 0xFFFFFF AND DUP2 SLOAD DUP2 LT PUSH2 0x17D8 JUMPI PUSH2 0x17D8 PUSH2 0x5489 JUMP JUMPDEST SWAP1 PUSH1 0x0 MSTORE PUSH1 0x20 PUSH1 0x0 KECCAK256 SWAP1 PUSH1 0x2 MUL ADD PUSH1 0x1 ADD PUSH1 0x9 DUP3 DUP3 DUP3 SWAP1 SLOAD SWAP1 PUSH2 0x100 EXP SWAP1 DIV PUSH1 0x1 PUSH1 0x1 PUSH1 0x60 SHL SUB AND PUSH2 0x180A SWAP2 SWAP1 PUSH2 0x552F JUMP JUMPDEST SWAP3 POP PUSH2 0x100 EXP DUP2 SLOAD DUP2 PUSH1 0x1 PUSH1 0x1 PUSH1 0x60 SHL SUB MUL NOT AND SWAP1 DUP4 PUSH1 0x1 PUSH1 0x1 PUSH1 0x60 SHL SUB AND MUL OR SWAP1 SSTORE POP POP PUSH2 0x1975 JUMP JUMPDEST DUP13 PUSH1 0x1 PUSH1 0x1 PUSH1 0xA0 SHL SUB AND DUP15 PUSH1 0x1 PUSH1 0x1 PUSH1 0xA0 SHL SUB AND PUSH32 0x311474CA835AC3737C718F3642FE20DADCEB8ACA4A6031E4441AB1D5B0C3F0FA DUP15 DUP7 DUP9 DUP11 PUSH1 0x80 ADD MLOAD PUSH1 0x40 MLOAD PUSH2 0x1881 SWAP5 SWAP4 SWAP3 SWAP2 SWAP1 PUSH2 0x54DB JUMP JUMPDEST PUSH1 0x40 MLOAD DUP1 SWAP2 SUB SWAP1 LOG3 DUP14 SWAP3 POP PUSH2 0x1901 DUP4 PUSH1 0x9 PUSH1 0x0 SWAP1 SLOAD SWAP1 PUSH2 0x100 EXP SWAP1 DIV PUSH1 0x1 PUSH1 0x1 PUSH1 0xA0 SHL SUB AND PUSH2 0x2710 PUSH1 0xB SLOAD DUP11 DUP11 PUSH1 0x80 ADD MLOAD PUSH3 0xFFFFFF AND DUP2 SLOAD DUP2 LT PUSH2 0x18C7 JUMPI PUSH2 0x18C7 PUSH2 0x5489 JUMP JUMPDEST PUSH1 0x0 SWAP2 DUP3 MSTORE PUSH1 0x20 SWAP1 SWAP2 KECCAK256 PUSH1 0x2 SWAP1 SWAP2 MUL ADD SLOAD PUSH2 0x18F2 SWAP2 SWAP1 PUSH1 0x1 PUSH1 0xA0 SHL SWAP1 DIV PUSH1 0x1 PUSH1 0x1 PUSH1 0x60 SHL SUB AND PUSH2 0x5472 JUMP JUMPDEST PUSH2 0x18FC SWAP2 SWAP1 PUSH2 0x554F JUMP JUMPDEST PUSH2 0x395D JUMP JUMPDEST PUSH2 0x190B DUP5 DUP11 PUSH2 0x552F JUMP JUMPDEST SWAP9 POP PUSH2 0x1922 DUP15 DUP15 DUP15 DUP9 PUSH1 0x80 ADD MLOAD PUSH3 0xFFFFFF AND PUSH2 0x39F1 JUMP JUMPDEST PUSH1 0x0 DUP7 DUP7 PUSH1 0x80 ADD MLOAD PUSH3 0xFFFFFF AND DUP2 SLOAD DUP2 LT PUSH2 0x193F JUMPI PUSH2 0x193F PUSH2 0x5489 JUMP JUMPDEST SWAP1 PUSH1 0x0 MSTORE PUSH1 0x20 PUSH1 0x0 KECCAK256 SWAP1 PUSH1 0x2 MUL ADD PUSH1 0x0 ADD PUSH1 0x14 PUSH2 0x100 EXP DUP2 SLOAD DUP2 PUSH1 0x1 PUSH1 0x1 PUSH1 0x60 SHL SUB MUL NOT AND SWAP1 DUP4 PUSH1 0x1 PUSH1 0x1 PUSH1 0x60 SHL SUB AND MUL OR SWAP1 SSTORE POP JUMPDEST DUP4 DUP6 PUSH1 0x20 ADD DUP2 DUP2 MLOAD PUSH2 0x1987 SWAP2 SWAP1 PUSH2 0x54BB JUMP JUMPDEST PUSH1 0x1 PUSH1 0x1 PUSH1 0x60 SHL SUB AND SWAP1 MSTORE POP POP PUSH3 0xFFFFFF DUP2 AND PUSH1 0x80 DUP6 ADD MSTORE PUSH2 0x15B1 JUMP JUMPDEST POP POP POP PUSH1 0x40 DUP2 ADD MLOAD PUSH1 0x4 SWAP5 SWAP1 SWAP5 ADD DUP1 SLOAD PUSH3 0xFFFFFF NOT AND PUSH3 0xFFFFFF SWAP1 SWAP6 AND SWAP5 SWAP1 SWAP5 OR SWAP1 SWAP4 SSTORE POP POP PUSH1 0xA0 ADD MLOAD DUP3 MSTORE SWAP1 SWAP6 SWAP1 SWAP5 POP SWAP3 POP POP POP JUMP JUMPDEST PUSH2 0x19E3 PUSH2 0x36B5 JUMP JUMPDEST PUSH1 0x0 DUP3 DUP2 MSTORE PUSH1 0x6 PUSH1 0x20 SWAP1 DUP2 MSTORE PUSH1 0x40 DUP1 DUP4 KECCAK256 PUSH1 0x1 PUSH1 0x1 PUSH1 0xA0 SHL SUB DUP1 DUP10 AND DUP6 MSTORE SWAP1 DUP4 MSTORE DUP2 DUP5 KECCAK256 SWAP1 DUP8 AND DUP5 MSTORE SWAP1 SWAP2 MSTORE SWAP1 KECCAK256 PUSH1 0xA SLOAD PUSH1 0xD SLOAD PUSH2 0x1A22 SWAP1 PUSH1 0x2 PUSH2 0x5472 JUMP JUMPDEST PUSH2 0x1A2C SWAP2 SWAP1 PUSH2 0x5472 JUMP JUMPDEST PUSH1 0x5 DUP3 ADD SLOAD PUSH2 0x1A4B SWAP1 PUSH1 0x1 PUSH1 0x78 SHL SWAP1 DIV PUSH1 0x1 PUSH1 0x1 PUSH1 0x60 SHL SUB AND TIMESTAMP PUSH2 0x5459 JUMP JUMPDEST GT PUSH2 0x1A55 JUMPI PUSH1 0x0 DUP1 REVERT JUMPDEST PUSH2 0x1040 DUP6 DUP6 DUP6 DUP6 PUSH1 0x1 PUSH2 0x370F JUMP JUMPDEST PUSH1 0x0 DUP1 DUP5 PUSH1 0x1 PUSH1 0x1 PUSH1 0x60 SHL SUB AND DUP8 PUSH1 0x1 PUSH1 0x1 PUSH1 0x60 SHL SUB AND GT ISZERO PUSH2 0x1ADD JUMPI PUSH2 0x1A8A DUP6 DUP9 PUSH2 0x54BB JUMP JUMPDEST SWAP7 POP DUP7 PUSH1 0x1 PUSH1 0x1 PUSH1 0x60 SHL SUB AND DUP5 PUSH1 0x1 PUSH1 0x1 PUSH1 0x60 SHL SUB AND GT PUSH2 0x1ABE JUMPI PUSH2 0x1AAF DUP4 DUP6 PUSH2 0x54BB JUMP JUMPDEST PUSH2 0x1AB9 SWAP1 DUP7 PUSH2 0x552F JUMP JUMPDEST PUSH2 0x1AD2 JUMP JUMPDEST PUSH2 0x1AC8 DUP4 DUP9 PUSH2 0x54BB JUMP JUMPDEST PUSH2 0x1AD2 SWAP1 DUP7 PUSH2 0x552F JUMP JUMPDEST SWAP2 POP PUSH1 0x0 SWAP1 POP PUSH2 0x1B10 JUMP JUMPDEST PUSH2 0x1AE7 DUP8 DUP7 PUSH2 0x54BB JUMP JUMPDEST SWAP5 POP DUP7 SWAP2 POP DUP5 PUSH1 0x1 PUSH1 0x1 PUSH1 0x60 SHL SUB AND DUP7 PUSH1 0x1 PUSH1 0x1 PUSH1 0x60 SHL SUB AND GT PUSH2 0x1B0B JUMPI DUP6 PUSH2 0x1B0D JUMP JUMPDEST DUP5 JUMPDEST SWAP1 POP JUMPDEST SWAP6 POP SWAP6 SWAP4 POP POP POP POP JUMP JUMPDEST PUSH2 0x1B2E DUP5 CALLER DUP4 PUSH1 0x1 PUSH1 0x1 PUSH1 0x60 SHL SUB AND PUSH2 0x38B2 JUMP JUMPDEST PUSH2 0x1B66 JUMPI PUSH1 0x40 MLOAD PUSH3 0x461BCD PUSH1 0xE5 SHL DUP2 MSTORE PUSH1 0x20 PUSH1 0x4 DUP3 ADD MSTORE PUSH1 0x9 PUSH1 0x24 DUP3 ADD MSTORE PUSH9 0x10BA3930B739B332B9 PUSH1 0xB9 SHL PUSH1 0x44 DUP3 ADD MSTORE PUSH1 0x64 ADD PUSH2 0xCA6 JUMP JUMPDEST PUSH2 0x2710 DUP2 PUSH1 0x1 PUSH1 0x1 PUSH1 0x60 SHL SUB AND GT PUSH2 0x1BAC JUMPI PUSH1 0x40 MLOAD PUSH3 0x461BCD PUSH1 0xE5 SHL DUP2 MSTORE PUSH1 0x20 PUSH1 0x4 DUP3 ADD MSTORE PUSH1 0x9 PUSH1 0x24 DUP3 ADD MSTORE PUSH9 0x10B6B4B727B93232B9 PUSH1 0xB9 SHL PUSH1 0x44 DUP3 ADD MSTORE PUSH1 0x64 ADD PUSH2 0xCA6 JUMP JUMPDEST PUSH1 0x0 DUP3 DUP2 MSTORE PUSH1 0x6 PUSH1 0x20 SWAP1 DUP2 MSTORE PUSH1 0x40 DUP1 DUP4 KECCAK256 PUSH1 0x1 PUSH1 0x1 PUSH1 0xA0 SHL SUB DUP9 DUP2 AND DUP6 MSTORE SWAP1 DUP4 MSTORE DUP2 DUP5 KECCAK256 SWAP1 DUP8 AND DUP5 MSTORE DUP3 MSTORE DUP1 DUP4 KECCAK256 PUSH1 0x4 DUP2 ADD SLOAD DUP3 MLOAD PUSH1 0xC0 DUP2 ADD DUP5 MSTORE CALLER DUP2 MSTORE PUSH1 0x1 PUSH1 0x1 PUSH1 0x60 SHL SUB DUP8 AND SWAP5 DUP2 ADD SWAP5 SWAP1 SWAP5 MSTORE PUSH4 0x1000000 SWAP1 DIV PUSH3 0xFFFFFF AND SWAP2 DUP4 ADD DUP3 SWAP1 MSTORE PUSH1 0x2 DUP2 ADD SLOAD SWAP1 SWAP4 SWAP2 SWAP3 SWAP1 PUSH1 0x60 DUP3 ADD SWAP1 PUSH2 0x1C27 SWAP1 PUSH1 0x1 PUSH2 0x549F JUMP JUMPDEST PUSH3 0xFFFFFF SWAP1 DUP2 AND DUP3 MSTORE PUSH1 0x9 DUP7 ADD SLOAD DUP2 AND PUSH1 0x20 DUP4 ADD MSTORE PUSH1 0x0 PUSH1 0x40 SWAP1 SWAP3 ADD SWAP2 SWAP1 SWAP2 MSTORE PUSH1 0x4 DUP6 ADD SLOAD SWAP2 SWAP3 POP PUSH1 0xA SWAP2 PUSH2 0x1C67 SWAP2 DUP2 DUP2 AND SWAP2 PUSH4 0x1000000 SWAP1 DIV AND PUSH2 0x5571 JUMP JUMPDEST PUSH3 0xFFFFFF AND LT PUSH2 0x1CA7 JUMPI PUSH1 0x40 MLOAD PUSH3 0x461BCD PUSH1 0xE5 SHL DUP2 MSTORE PUSH1 0x20 PUSH1 0x4 DUP3 ADD MSTORE PUSH1 0xB PUSH1 0x24 DUP3 ADD MSTORE PUSH11 0x2174616B6572537461636B PUSH1 0xA8 SHL PUSH1 0x44 DUP3 ADD MSTORE PUSH1 0x64 ADD PUSH2 0xCA6 JUMP JUMPDEST PUSH1 0x2 DUP4 DUP2 ADD DUP1 SLOAD PUSH1 0x4 DUP7 ADD DUP1 SLOAD PUSH6 0xFFFFFF000000 NOT AND PUSH4 0x1000000 PUSH3 0xFFFFFF DUP1 DUP6 AND DUP3 MUL SWAP3 SWAP1 SWAP3 OR SWAP1 SWAP3 SSTORE PUSH1 0x1 DUP1 DUP5 ADD DUP6 SSTORE PUSH1 0x0 SWAP5 DUP6 MSTORE PUSH1 0x20 SWAP5 DUP6 SWAP1 KECCAK256 DUP8 MLOAD DUP9 DUP8 ADD MLOAD PUSH1 0x1 PUSH1 0x1 PUSH1 0xA0 SHL SUB SWAP2 DUP3 AND PUSH1 0x1 PUSH1 0xA0 SHL PUSH1 0x1 PUSH1 0x1 PUSH1 0x60 SHL SUB SWAP3 DUP4 AND MUL OR SWAP7 SWAP1 SWAP9 MUL SWAP1 SWAP2 ADD SWAP5 DUP6 SSTORE PUSH1 0x40 DUP1 DUP10 ADD MLOAD SWAP6 SWAP1 SWAP3 ADD DUP1 SLOAD PUSH1 0x60 DUP1 DUP12 ADD MLOAD PUSH1 0x80 DUP13 ADD MLOAD PUSH1 0xA0 DUP14 ADD MLOAD SWAP10 DUP9 AND PUSH6 0xFFFFFFFFFFFF NOT SWAP1 SWAP5 AND SWAP4 SWAP1 SWAP4 OR SWAP1 DUP8 AND SWAP1 SWAP8 MUL SWAP7 SWAP1 SWAP7 OR PUSH7 0x1000000000000 PUSH1 0x1 PUSH1 0xA8 SHL SUB NOT AND PUSH1 0x1 PUSH1 0x30 SHL SWAP2 SWAP1 SWAP6 AND MUL PUSH12 0xFFFFFFFFFFFFFFFFFFFFFFFF PUSH1 0x48 SHL NOT AND SWAP4 SWAP1 SWAP4 OR PUSH1 0x1 PUSH1 0x48 SHL SWAP6 DUP9 AND SWAP6 SWAP1 SWAP6 MUL SWAP5 SWAP1 SWAP5 OR SWAP1 SWAP2 SSTORE DUP1 MLOAD DUP11 DUP2 MSTORE CALLER SWAP5 DUP2 ADD SWAP5 SWAP1 SWAP5 MSTORE SWAP4 DUP9 AND SWAP4 DUP4 ADD SWAP4 SWAP1 SWAP4 MSTORE DUP9 DUP2 AND SWAP3 SWAP1 DUP11 AND SWAP2 PUSH32 0xE0DDA2C209D90D1D92A1C868CDF120DB42EB6E86E7ED215458B9AECC80A8D60B SWAP2 ADD JUMPDEST PUSH1 0x40 MLOAD DUP1 SWAP2 SUB SWAP1 LOG3 POP POP POP POP POP POP POP JUMP JUMPDEST PUSH2 0xFFFF DUP4 AND PUSH1 0x0 SWAP1 DUP2 MSTORE PUSH1 0x1 PUSH1 0x20 MSTORE PUSH1 0x40 DUP2 KECCAK256 DUP1 SLOAD DUP3 SWAP2 SWAP1 PUSH2 0x1E01 SWAP1 PUSH2 0x53F9 JUMP JUMPDEST DUP1 PUSH1 0x1F ADD PUSH1 0x20 DUP1 SWAP2 DIV MUL PUSH1 0x20 ADD PUSH1 0x40 MLOAD SWAP1 DUP2 ADD PUSH1 0x40 MSTORE DUP1 SWAP3 SWAP2 SWAP1 DUP2 DUP2 MSTORE PUSH1 0x20 ADD DUP3 DUP1 SLOAD PUSH2 0x1E2D SWAP1 PUSH2 0x53F9 JUMP JUMPDEST DUP1 ISZERO PUSH2 0x1E7A JUMPI DUP1 PUSH1 0x1F LT PUSH2 0x1E4F JUMPI PUSH2 0x100 DUP1 DUP4 SLOAD DIV MUL DUP4 MSTORE SWAP2 PUSH1 0x20 ADD SWAP2 PUSH2 0x1E7A JUMP JUMPDEST DUP3 ADD SWAP2 SWAP1 PUSH1 0x0 MSTORE PUSH1 0x20 PUSH1 0x0 KECCAK256 SWAP1 JUMPDEST DUP2 SLOAD DUP2 MSTORE SWAP1 PUSH1 0x1 ADD SWAP1 PUSH1 0x20 ADD DUP1 DUP4 GT PUSH2 0x1E5D JUMPI DUP3 SWAP1 SUB PUSH1 0x1F AND DUP3 ADD SWAP2 JUMPDEST POP POP POP POP POP SWAP1 POP DUP4 DUP4 PUSH1 0x40 MLOAD PUSH2 0x1E91 SWAP3 SWAP2 SWAP1 PUSH2 0x5433 JUMP JUMPDEST PUSH1 0x40 MLOAD DUP1 SWAP2 SUB SWAP1 KECCAK256 DUP2 DUP1 MLOAD SWAP1 PUSH1 0x20 ADD KECCAK256 EQ SWAP2 POP POP SWAP4 SWAP3 POP POP POP JUMP JUMPDEST PUSH2 0x1EB4 PUSH2 0x36B5 JUMP JUMPDEST PUSH1 0x40 MLOAD PUSH4 0x42D65A8D PUSH1 0xE0 SHL DUP2 MSTORE PUSH1 0x1 PUSH1 0x1 PUSH1 0xA0 SHL SUB PUSH32 0x0 AND SWAP1 PUSH4 0x42D65A8D SWAP1 PUSH2 0x1F04 SWAP1 DUP7 SWAP1 DUP7 SWAP1 DUP7 SWAP1 PUSH1 0x4 ADD PUSH2 0x55B6 JUMP JUMPDEST PUSH1 0x0 PUSH1 0x40 MLOAD DUP1 DUP4 SUB DUP2 PUSH1 0x0 DUP8 DUP1 EXTCODESIZE ISZERO DUP1 ISZERO PUSH2 0x1F1E JUMPI PUSH1 0x0 DUP1 REVERT JUMPDEST POP GAS CALL ISZERO DUP1 ISZERO PUSH2 0xE5A JUMPI RETURNDATASIZE PUSH1 0x0 DUP1 RETURNDATACOPY RETURNDATASIZE PUSH1 0x0 REVERT JUMPDEST PUSH1 0x0 DUP2 DUP2 MSTORE PUSH1 0x6 PUSH1 0x20 SWAP1 DUP2 MSTORE PUSH1 0x40 DUP1 DUP4 KECCAK256 PUSH1 0x1 PUSH1 0x1 PUSH1 0xA0 SHL SUB DUP1 DUP9 AND DUP6 MSTORE SWAP1 DUP4 MSTORE DUP2 DUP5 KECCAK256 SWAP1 DUP7 AND DUP5 MSTORE SWAP1 SWAP2 MSTORE SWAP1 KECCAK256 PUSH1 0x4 DUP2 ADD SLOAD PUSH1 0x3 DUP3 ADD DUP1 SLOAD PUSH1 0x60 SWAP4 SWAP3 PUSH3 0xFFFFFF PUSH1 0x1 PUSH1 0x30 SHL DUP3 DIV DUP2 AND SWAP4 PUSH1 0x1 PUSH1 0x48 SHL SWAP1 SWAP3 DIV AND SWAP2 PUSH1 0x1 PUSH1 0x1 PUSH1 0x40 SHL SUB DUP2 GT ISZERO PUSH2 0x1F9E JUMPI PUSH2 0x1F9E PUSH2 0x5037 JUMP JUMPDEST PUSH1 0x40 MLOAD SWAP1 DUP1 DUP3 MSTORE DUP1 PUSH1 0x20 MUL PUSH1 0x20 ADD DUP3 ADD PUSH1 0x40 MSTORE DUP1 ISZERO PUSH2 0x2005 JUMPI DUP2 PUSH1 0x20 ADD JUMPDEST PUSH1 0x40 DUP1 MLOAD PUSH1 0xE0 DUP2 ADD DUP3 MSTORE PUSH1 0x0 DUP1 DUP3 MSTORE PUSH1 0x20 DUP1 DUP4 ADD DUP3 SWAP1 MSTORE SWAP3 DUP3 ADD DUP2 SWAP1 MSTORE PUSH1 0x60 DUP3 ADD DUP2 SWAP1 MSTORE PUSH1 0x80 DUP3 ADD DUP2 SWAP1 MSTORE PUSH1 0xA0 DUP3 ADD DUP2 SWAP1 MSTORE PUSH1 0xC0 DUP3 ADD MSTORE DUP3 MSTORE PUSH1 0x0 NOT SWAP1 SWAP3 ADD SWAP2 ADD DUP2 PUSH2 0x1FBC JUMPI SWAP1 POP JUMPDEST POP SWAP5 POP PUSH1 0x0 JUMPDEST DUP3 PUSH3 0xFFFFFF AND DUP5 PUSH3 0xFFFFFF AND GT ISZERO DUP1 ISZERO PUSH2 0x202A JUMPI POP DUP2 SLOAD PUSH3 0xFFFFFF DUP6 AND LT JUMPDEST ISZERO PUSH2 0x2211 JUMPI PUSH1 0x0 DUP3 DUP6 PUSH3 0xFFFFFF AND DUP2 SLOAD DUP2 LT PUSH2 0x2048 JUMPI PUSH2 0x2048 PUSH2 0x5489 JUMP JUMPDEST SWAP1 PUSH1 0x0 MSTORE PUSH1 0x20 PUSH1 0x0 KECCAK256 SWAP1 PUSH1 0x2 MUL ADD PUSH1 0x40 MLOAD DUP1 PUSH1 0xC0 ADD PUSH1 0x40 MSTORE SWAP1 DUP2 PUSH1 0x0 DUP3 ADD PUSH1 0x0 SWAP1 SLOAD SWAP1 PUSH2 0x100 EXP SWAP1 DIV PUSH1 0x1 PUSH1 0x1 PUSH1 0xA0 SHL SUB AND PUSH1 0x1 PUSH1 0x1 PUSH1 0xA0 SHL SUB AND PUSH1 0x1 PUSH1 0x1 PUSH1 0xA0 SHL SUB AND DUP2 MSTORE PUSH1 0x20 ADD PUSH1 0x0 DUP3 ADD PUSH1 0x14 SWAP1 SLOAD SWAP1 PUSH2 0x100 EXP SWAP1 DIV PUSH1 0x1 PUSH1 0x1 PUSH1 0x60 SHL SUB AND PUSH1 0x1 PUSH1 0x1 PUSH1 0x60 SHL SUB AND PUSH1 0x1 PUSH1 0x1 PUSH1 0x60 SHL SUB AND DUP2 MSTORE PUSH1 0x20 ADD PUSH1 0x1 DUP3 ADD PUSH1 0x0 SWAP1 SLOAD SWAP1 PUSH2 0x100 EXP SWAP1 DIV PUSH3 0xFFFFFF AND PUSH3 0xFFFFFF AND PUSH3 0xFFFFFF AND DUP2 MSTORE PUSH1 0x20 ADD PUSH1 0x1 DUP3 ADD PUSH1 0x3 SWAP1 SLOAD SWAP1 PUSH2 0x100 EXP SWAP1 DIV PUSH3 0xFFFFFF AND PUSH3 0xFFFFFF AND PUSH3 0xFFFFFF AND DUP2 MSTORE PUSH1 0x20 ADD PUSH1 0x1 DUP3 ADD PUSH1 0x6 SWAP1 SLOAD SWAP1 PUSH2 0x100 EXP SWAP1 DIV PUSH3 0xFFFFFF AND PUSH3 0xFFFFFF AND PUSH3 0xFFFFFF AND DUP2 MSTORE PUSH1 0x20 ADD PUSH1 0x1 DUP3 ADD PUSH1 0x9 SWAP1 SLOAD SWAP1 PUSH2 0x100 EXP SWAP1 DIV PUSH1 0x1 PUSH1 0x1 PUSH1 0x60 SHL SUB AND PUSH1 0x1 PUSH1 0x1 PUSH1 0x60 SHL SUB AND PUSH1 0x1 PUSH1 0x1 PUSH1 0x60 SHL SUB AND DUP2 MSTORE POP POP SWAP1 POP PUSH1 0x0 PUSH1 0x40 MLOAD DUP1 PUSH1 0xE0 ADD PUSH1 0x40 MSTORE DUP1 DUP8 PUSH3 0xFFFFFF AND DUP2 MSTORE PUSH1 0x20 ADD DUP4 PUSH1 0x0 ADD MLOAD PUSH1 0x1 PUSH1 0x1 PUSH1 0xA0 SHL SUB AND DUP2 MSTORE PUSH1 0x20 ADD DUP4 PUSH1 0x20 ADD MLOAD PUSH1 0x1 PUSH1 0x1 PUSH1 0x60 SHL SUB AND DUP2 MSTORE PUSH1 0x20 ADD DUP4 PUSH1 0x40 ADD MLOAD PUSH3 0xFFFFFF AND DUP2 MSTORE PUSH1 0x20 ADD DUP4 PUSH1 0x60 ADD MLOAD PUSH3 0xFFFFFF AND DUP2 MSTORE PUSH1 0x20 ADD DUP4 PUSH1 0x80 ADD MLOAD PUSH3 0xFFFFFF AND DUP2 MSTORE PUSH1 0x20 ADD DUP4 PUSH1 0xA0 ADD MLOAD PUSH1 0x1 PUSH1 0x1 PUSH1 0x60 SHL SUB AND DUP2 MSTORE POP SWAP1 POP DUP1 DUP9 DUP5 DUP2 MLOAD DUP2 LT PUSH2 0x21EA JUMPI PUSH2 0x21EA PUSH2 0x5489 JUMP JUMPDEST PUSH1 0x20 MUL PUSH1 0x20 ADD ADD DUP2 SWAP1 MSTORE POP DUP2 PUSH1 0x60 ADD MLOAD SWAP6 POP DUP3 DUP1 PUSH2 0x2207 SWAP1 PUSH2 0x55D4 JUMP JUMPDEST SWAP4 POP POP POP POP PUSH2 0x200B JUMP JUMPDEST DUP6 MSTORE POP SWAP3 SWAP7 SWAP6 POP POP POP POP POP POP JUMP JUMPDEST CALLER ADDRESS EQ PUSH2 0x227D JUMPI PUSH1 0x40 MLOAD PUSH3 0x461BCD PUSH1 0xE5 SHL DUP2 MSTORE PUSH1 0x20 PUSH1 0x4 DUP3 ADD MSTORE PUSH1 0x26 PUSH1 0x24 DUP3 ADD MSTORE PUSH32 0x4E6F6E626C6F636B696E674C7A4170703A2063616C6C6572206D757374206265 PUSH1 0x44 DUP3 ADD MSTORE PUSH6 0x204C7A41707 PUSH1 0xD4 SHL PUSH1 0x64 DUP3 ADD MSTORE PUSH1 0x84 ADD PUSH2 0xCA6 JUMP JUMPDEST PUSH2 0x22F3 DUP7 DUP7 DUP7 DUP1 DUP1 PUSH1 0x1F ADD PUSH1 0x20 DUP1 SWAP2 DIV MUL PUSH1 0x20 ADD PUSH1 0x40 MLOAD SWAP1 DUP2 ADD PUSH1 0x40 MSTORE DUP1 SWAP4 SWAP3 SWAP2 SWAP1 DUP2 DUP2 MSTORE PUSH1 0x20 ADD DUP4 DUP4 DUP1 DUP3 DUP5 CALLDATACOPY PUSH1 0x0 SWAP3 ADD SWAP2 SWAP1 SWAP2 MSTORE POP POP PUSH1 0x40 DUP1 MLOAD PUSH1 0x20 PUSH1 0x1F DUP10 ADD DUP2 SWAP1 DIV DUP2 MUL DUP3 ADD DUP2 ADD SWAP1 SWAP3 MSTORE DUP8 DUP2 MSTORE DUP10 SWAP4 POP SWAP2 POP DUP8 SWAP1 DUP8 SWAP1 DUP2 SWAP1 DUP5 ADD DUP4 DUP3 DUP1 DUP3 DUP5 CALLDATACOPY PUSH1 0x0 SWAP3 ADD SWAP2 SWAP1 SWAP2 MSTORE POP PUSH2 0x39FD SWAP3 POP POP POP JUMP JUMPDEST POP POP POP POP POP POP JUMP JUMPDEST PUSH2 0x2303 PUSH2 0x36B5 JUMP JUMPDEST PUSH2 0x230D PUSH1 0x0 PUSH2 0x3BF5 JUMP JUMPDEST JUMP JUMPDEST PUSH1 0x1 PUSH1 0x20 MSTORE PUSH1 0x0 SWAP1 DUP2 MSTORE PUSH1 0x40 SWAP1 KECCAK256 DUP1 SLOAD PUSH2 0x2328 SWAP1 PUSH2 0x53F9 JUMP JUMPDEST DUP1 PUSH1 0x1F ADD PUSH1 0x20 DUP1 SWAP2 DIV MUL PUSH1 0x20 ADD PUSH1 0x40 MLOAD SWAP1 DUP2 ADD PUSH1 0x40 MSTORE DUP1 SWAP3 SWAP2 SWAP1 DUP2 DUP2 MSTORE PUSH1 0x20 ADD DUP3 DUP1 SLOAD PUSH2 0x2354 SWAP1 PUSH2 0x53F9 JUMP JUMPDEST DUP1 ISZERO PUSH2 0x23A1 JUMPI DUP1 PUSH1 0x1F LT PUSH2 0x2376 JUMPI PUSH2 0x100 DUP1 DUP4 SLOAD DIV MUL DUP4 MSTORE SWAP2 PUSH1 0x20 ADD SWAP2 PUSH2 0x23A1 JUMP JUMPDEST DUP3 ADD SWAP2 SWAP1 PUSH1 0x0 MSTORE PUSH1 0x20 PUSH1 0x0 KECCAK256 SWAP1 JUMPDEST DUP2 SLOAD DUP2 MSTORE SWAP1 PUSH1 0x1 ADD SWAP1 PUSH1 0x20 ADD DUP1 DUP4 GT PUSH2 0x2384 JUMPI DUP3 SWAP1 SUB PUSH1 0x1F AND DUP3 ADD SWAP2 JUMPDEST POP POP POP POP POP DUP2 JUMP JUMPDEST PUSH1 0x0 DUP2 DUP2 MSTORE PUSH1 0x6 PUSH1 0x20 SWAP1 DUP2 MSTORE PUSH1 0x40 DUP1 DUP4 KECCAK256 PUSH1 0x1 PUSH1 0x1 PUSH1 0xA0 SHL SUB DUP1 DUP9 AND DUP6 MSTORE SWAP1 DUP4 MSTORE DUP2 DUP5 KECCAK256 SWAP1 DUP7 AND DUP5 MSTORE SWAP1 SWAP2 MSTORE DUP2 KECCAK256 PUSH1 0x9 DUP2 ADD SLOAD PUSH1 0x4 DUP3 ADD SLOAD PUSH1 0x2 DUP4 ADD SWAP2 PUSH3 0xFFFFFF SWAP1 DUP2 AND SWAP2 AND DUP5 JUMPDEST DUP4 SLOAD PUSH3 0xFFFFFF DUP4 AND LT ISZERO PUSH2 0x24FF JUMPI PUSH1 0x0 DUP5 DUP4 PUSH3 0xFFFFFF AND DUP2 SLOAD DUP2 LT PUSH2 0x2418 JUMPI PUSH2 0x2418 PUSH2 0x5489 JUMP JUMPDEST PUSH1 0x0 SWAP2 DUP3 MSTORE PUSH1 0x20 SWAP2 DUP3 SWAP1 KECCAK256 PUSH1 0x40 DUP1 MLOAD PUSH1 0xC0 DUP2 ADD DUP3 MSTORE PUSH1 0x2 SWAP1 SWAP4 MUL SWAP1 SWAP2 ADD DUP1 SLOAD PUSH1 0x1 PUSH1 0x1 PUSH1 0xA0 SHL SUB DUP2 AND DUP5 MSTORE PUSH1 0x1 PUSH1 0x1 PUSH1 0x60 SHL SUB PUSH1 0x1 PUSH1 0xA0 SHL SWAP1 SWAP2 DIV DUP2 AND SWAP5 DUP5 ADD SWAP5 SWAP1 SWAP5 MSTORE PUSH1 0x1 ADD SLOAD PUSH3 0xFFFFFF DUP1 DUP3 AND SWAP3 DUP5 ADD SWAP3 SWAP1 SWAP3 MSTORE PUSH4 0x1000000 DUP2 DIV DUP3 AND PUSH1 0x60 DUP5 ADD MSTORE PUSH1 0x1 PUSH1 0x30 SHL DUP2 DIV DUP3 AND PUSH1 0x80 DUP5 ADD DUP2 SWAP1 MSTORE PUSH1 0x1 PUSH1 0x48 SHL SWAP1 SWAP2 DIV SWAP1 SWAP4 AND PUSH1 0xA0 DUP4 ADD MSTORE PUSH1 0xC SLOAD SWAP2 SWAP4 POP DUP7 AND SWAP2 PUSH2 0x24AF SWAP2 SWAP1 PUSH2 0x55ED JUMP JUMPDEST LT ISZERO PUSH2 0x24E0 JUMPI PUSH2 0x24D1 DUP11 DUP3 PUSH1 0x0 ADD MLOAD DUP4 PUSH1 0x20 ADD MLOAD PUSH1 0x1 PUSH1 0x1 PUSH1 0x60 SHL SUB AND PUSH2 0x395D JUMP JUMPDEST DUP1 PUSH1 0x60 ADD MLOAD SWAP3 POP DUP3 SWAP2 POP PUSH2 0x24F9 JUMP JUMPDEST PUSH1 0x20 DUP2 ADD MLOAD PUSH2 0x24EF SWAP1 DUP9 PUSH2 0x552F JUMP JUMPDEST SWAP7 POP DUP1 PUSH1 0x60 ADD MLOAD SWAP3 POP JUMPDEST POP PUSH2 0x23F1 JUMP JUMPDEST PUSH3 0xFFFFFF DUP2 AND ISZERO PUSH2 0x2520 JUMPI PUSH1 0x4 DUP6 ADD DUP1 SLOAD PUSH3 0xFFFFFF NOT AND PUSH3 0xFFFFFF DUP4 AND OR SWAP1 SSTORE JUMPDEST POP POP POP POP POP SWAP4 SWAP3 POP POP POP JUMP JUMPDEST PUSH2 0x2534 PUSH2 0x36B5 JUMP JUMPDEST PUSH1 0x40 MLOAD PUSH1 0x0 SWAP1 CALLER SWAP1 SELFBALANCE SWAP1 DUP4 DUP2 DUP2 DUP2 DUP6 DUP8 GAS CALL SWAP3 POP POP POP RETURNDATASIZE DUP1 PUSH1 0x0 DUP2 EQ PUSH2 0x1158 JUMPI PUSH1 0x40 MLOAD SWAP2 POP PUSH1 0x1F NOT PUSH1 0x3F RETURNDATASIZE ADD AND DUP3 ADD PUSH1 0x40 MSTORE RETURNDATASIZE DUP3 MSTORE RETURNDATASIZE PUSH1 0x0 PUSH1 0x20 DUP5 ADD RETURNDATACOPY PUSH2 0x1158 JUMP JUMPDEST PUSH2 0xFFFF DUP2 AND PUSH1 0x0 SWAP1 DUP2 MSTORE PUSH1 0x1 PUSH1 0x20 MSTORE PUSH1 0x40 DUP2 KECCAK256 DUP1 SLOAD PUSH1 0x60 SWAP3 SWAP2 SWAP1 PUSH2 0x2599 SWAP1 PUSH2 0x53F9 JUMP JUMPDEST DUP1 PUSH1 0x1F ADD PUSH1 0x20 DUP1 SWAP2 DIV MUL PUSH1 0x20 ADD PUSH1 0x40 MLOAD SWAP1 DUP2 ADD PUSH1 0x40 MSTORE DUP1 SWAP3 SWAP2 SWAP1 DUP2 DUP2 MSTORE PUSH1 0x20 ADD DUP3 DUP1 SLOAD PUSH2 0x25C5 SWAP1 PUSH2 0x53F9 JUMP JUMPDEST DUP1 ISZERO PUSH2 0x2612 JUMPI DUP1 PUSH1 0x1F LT PUSH2 0x25E7 JUMPI PUSH2 0x100 DUP1 DUP4 SLOAD DIV MUL DUP4 MSTORE SWAP2 PUSH1 0x20 ADD SWAP2 PUSH2 0x2612 JUMP JUMPDEST DUP3 ADD SWAP2 SWAP1 PUSH1 0x0 MSTORE PUSH1 0x20 PUSH1 0x0 KECCAK256 SWAP1 JUMPDEST DUP2 SLOAD DUP2 MSTORE SWAP1 PUSH1 0x1 ADD SWAP1 PUSH1 0x20 ADD DUP1 DUP4 GT PUSH2 0x25F5 JUMPI DUP3 SWAP1 SUB PUSH1 0x1F AND DUP3 ADD SWAP2 JUMPDEST POP POP POP POP POP SWAP1 POP DUP1 MLOAD PUSH1 0x0 SUB PUSH2 0x266A JUMPI PUSH1 0x40 MLOAD PUSH3 0x461BCD PUSH1 0xE5 SHL DUP2 MSTORE PUSH1 0x20 PUSH1 0x4 DUP3 ADD MSTORE PUSH1 0x1D PUSH1 0x24 DUP3 ADD MSTORE PUSH32 0x4C7A4170703A206E6F20747275737465642070617468207265636F7264000000 PUSH1 0x44 DUP3 ADD MSTORE PUSH1 0x64 ADD PUSH2 0xCA6 JUMP JUMPDEST PUSH2 0x2685 PUSH1 0x0 PUSH1 0x14 DUP4 MLOAD PUSH2 0x267D SWAP2 SWAP1 PUSH2 0x5459 JUMP JUMPDEST DUP4 SWAP2 SWAP1 PUSH2 0x3C45 JUMP JUMPDEST SWAP4 SWAP3 POP POP POP JUMP JUMPDEST PUSH2 0x2694 PUSH2 0x36B5 JUMP JUMPDEST DUP2 DUP2 ADDRESS PUSH1 0x40 MLOAD PUSH1 0x20 ADD PUSH2 0x26A9 SWAP4 SWAP3 SWAP2 SWAP1 PUSH2 0x5600 JUMP JUMPDEST PUSH1 0x40 DUP1 MLOAD PUSH1 0x1F NOT DUP2 DUP5 SUB ADD DUP2 MSTORE SWAP2 DUP2 MSTORE PUSH2 0xFFFF DUP6 AND PUSH1 0x0 SWAP1 DUP2 MSTORE PUSH1 0x1 PUSH1 0x20 MSTORE KECCAK256 SWAP1 PUSH2 0x26D4 SWAP1 DUP3 PUSH2 0x5667 JUMP JUMPDEST POP PUSH32 0x8C0400CFE2D1199B1A725C78960BCC2A344D869B80590D0F2BD005DB15A572CE DUP4 DUP4 DUP4 PUSH1 0x40 MLOAD PUSH2 0x2708 SWAP4 SWAP3 SWAP2 SWAP1 PUSH2 0x55B6 JUMP JUMPDEST PUSH1 0x40 MLOAD DUP1 SWAP2 SUB SWAP1 LOG1 POP POP POP JUMP JUMPDEST PUSH1 0x0 DUP2 DUP2 MSTORE PUSH1 0x6 PUSH1 0x20 SWAP1 DUP2 MSTORE PUSH1 0x40 DUP1 DUP4 KECCAK256 PUSH1 0x1 PUSH1 0x1 PUSH1 0xA0 SHL SUB DUP1 DUP9 AND DUP6 MSTORE SWAP1 DUP4 MSTORE DUP2 DUP5 KECCAK256 SWAP1 DUP7 AND DUP5 MSTORE SWAP1 SWAP2 MSTORE SWAP1 KECCAK256 PUSH1 0x4 DUP2 ADD SLOAD PUSH1 0x2 DUP3 ADD DUP1 SLOAD PUSH1 0x60 SWAP4 SWAP3 PUSH3 0xFFFFFF AND SWAP2 SWAP1 PUSH1 0x1 PUSH1 0x1 PUSH1 0x40 SHL SUB DUP2 GT ISZERO PUSH2 0x2770 JUMPI PUSH2 0x2770 PUSH2 0x5037 JUMP JUMPDEST PUSH1 0x40 MLOAD SWAP1 DUP1 DUP3 MSTORE DUP1 PUSH1 0x20 MUL PUSH1 0x20 ADD DUP3 ADD PUSH1 0x40 MSTORE DUP1 ISZERO PUSH2 0x27D7 JUMPI DUP2 PUSH1 0x20 ADD JUMPDEST PUSH1 0x40 DUP1 MLOAD PUSH1 0xE0 DUP2 ADD DUP3 MSTORE PUSH1 0x0 DUP1 DUP3 MSTORE PUSH1 0x20 DUP1 DUP4 ADD DUP3 SWAP1 MSTORE SWAP3 DUP3 ADD DUP2 SWAP1 MSTORE PUSH1 0x60 DUP3 ADD DUP2 SWAP1 MSTORE PUSH1 0x80 DUP3 ADD DUP2 SWAP1 MSTORE PUSH1 0xA0 DUP3 ADD DUP2 SWAP1 MSTORE PUSH1 0xC0 DUP3 ADD MSTORE DUP3 MSTORE PUSH1 0x0 NOT SWAP1 SWAP3 ADD SWAP2 ADD DUP2 PUSH2 0x278E JUMPI SWAP1 POP JUMPDEST POP SWAP4 POP PUSH1 0x0 JUMPDEST DUP2 SLOAD PUSH3 0xFFFFFF DUP5 AND EQ PUSH2 0x29CC JUMPI PUSH1 0x0 DUP3 DUP5 PUSH3 0xFFFFFF AND DUP2 SLOAD DUP2 LT PUSH2 0x2803 JUMPI PUSH2 0x2803 PUSH2 0x5489 JUMP JUMPDEST SWAP1 PUSH1 0x0 MSTORE PUSH1 0x20 PUSH1 0x0 KECCAK256 SWAP1 PUSH1 0x2 MUL ADD PUSH1 0x40 MLOAD DUP1 PUSH1 0xC0 ADD PUSH1 0x40 MSTORE SWAP1 DUP2 PUSH1 0x0 DUP3 ADD PUSH1 0x0 SWAP1 SLOAD SWAP1 PUSH2 0x100 EXP SWAP1 DIV PUSH1 0x1 PUSH1 0x1 PUSH1 0xA0 SHL SUB AND PUSH1 0x1 PUSH1 0x1 PUSH1 0xA0 SHL SUB AND PUSH1 0x1 PUSH1 0x1 PUSH1 0xA0 SHL SUB AND DUP2 MSTORE PUSH1 0x20 ADD PUSH1 0x0 DUP3 ADD PUSH1 0x14 SWAP1 SLOAD SWAP1 PUSH2 0x100 EXP SWAP1 DIV PUSH1 0x1 PUSH1 0x1 PUSH1 0x60 SHL SUB AND PUSH1 0x1 PUSH1 0x1 PUSH1 0x60 SHL SUB AND PUSH1 0x1 PUSH1 0x1 PUSH1 0x60 SHL SUB AND DUP2 MSTORE PUSH1 0x20 ADD PUSH1 0x1 DUP3 ADD PUSH1 0x0 SWAP1 SLOAD SWAP1 PUSH2 0x100 EXP SWAP1 DIV PUSH3 0xFFFFFF AND PUSH3 0xFFFFFF AND PUSH3 0xFFFFFF AND DUP2 MSTORE PUSH1 0x20 ADD PUSH1 0x1 DUP3 ADD PUSH1 0x3 SWAP1 SLOAD SWAP1 PUSH2 0x100 EXP SWAP1 DIV PUSH3 0xFFFFFF AND PUSH3 0xFFFFFF AND PUSH3 0xFFFFFF AND DUP2 MSTORE PUSH1 0x20 ADD PUSH1 0x1 DUP3 ADD PUSH1 0x6 SWAP1 SLOAD SWAP1 PUSH2 0x100 EXP SWAP1 DIV PUSH3 0xFFFFFF AND PUSH3 0xFFFFFF AND PUSH3 0xFFFFFF AND DUP2 MSTORE PUSH1 0x20 ADD PUSH1 0x1 DUP3 ADD PUSH1 0x9 SWAP1 SLOAD SWAP1 PUSH2 0x100 EXP SWAP1 DIV PUSH1 0x1 PUSH1 0x1 PUSH1 0x60 SHL SUB AND PUSH1 0x1 PUSH1 0x1 PUSH1 0x60 SHL SUB AND PUSH1 0x1 PUSH1 0x1 PUSH1 0x60 SHL SUB AND DUP2 MSTORE POP POP SWAP1 POP PUSH1 0x0 PUSH1 0x40 MLOAD DUP1 PUSH1 0xE0 ADD PUSH1 0x40 MSTORE DUP1 DUP7 PUSH3 0xFFFFFF AND DUP2 MSTORE PUSH1 0x20 ADD DUP4 PUSH1 0x0 ADD MLOAD PUSH1 0x1 PUSH1 0x1 PUSH1 0xA0 SHL SUB AND DUP2 MSTORE PUSH1 0x20 ADD DUP4 PUSH1 0x20 ADD MLOAD PUSH1 0x1 PUSH1 0x1 PUSH1 0x60 SHL SUB AND DUP2 MSTORE PUSH1 0x20 ADD DUP4 PUSH1 0x40 ADD MLOAD PUSH3 0xFFFFFF AND DUP2 MSTORE PUSH1 0x20 ADD DUP4 PUSH1 0x60 ADD MLOAD PUSH3 0xFFFFFF AND DUP2 MSTORE PUSH1 0x20 ADD DUP4 PUSH1 0x80 ADD MLOAD PUSH3 0xFFFFFF AND DUP2 MSTORE PUSH1 0x20 ADD DUP4 PUSH1 0xA0 ADD MLOAD PUSH1 0x1 PUSH1 0x1 PUSH1 0x60 SHL SUB AND DUP2 MSTORE POP SWAP1 POP DUP1 DUP8 DUP5 DUP2 MLOAD DUP2 LT PUSH2 0x29A5 JUMPI PUSH2 0x29A5 PUSH2 0x5489 JUMP JUMPDEST PUSH1 0x20 MUL PUSH1 0x20 ADD ADD DUP2 SWAP1 MSTORE POP DUP2 PUSH1 0x60 ADD MLOAD SWAP5 POP DUP3 DUP1 PUSH2 0x29C2 SWAP1 PUSH2 0x55D4 JUMP JUMPDEST SWAP4 POP POP POP POP PUSH2 0x27DD JUMP JUMPDEST DUP5 MSTORE POP SWAP2 SWAP6 SWAP5 POP POP POP POP POP JUMP JUMPDEST PUSH2 0x29E1 PUSH2 0x36B5 JUMP JUMPDEST PUSH1 0x4 DUP1 SLOAD PUSH1 0x1 PUSH1 0x1 PUSH1 0xA0 SHL SUB NOT AND PUSH1 0x1 PUSH1 0x1 PUSH1 0xA0 SHL SUB DUP4 AND SWAP1 DUP2 OR SWAP1 SWAP2 SSTORE PUSH1 0x40 MLOAD SWAP1 DUP2 MSTORE PUSH32 0x5DB758E995A17EC1AD84BDEF7E8C3293A0BD6179BCCE400DFF5D4C3D87DB726B SWAP1 PUSH1 0x20 ADD PUSH1 0x40 MLOAD DUP1 SWAP2 SUB SWAP1 LOG1 POP JUMP JUMPDEST PUSH2 0x2A3D PUSH2 0x36B5 JUMP JUMPDEST PUSH1 0x7 SLOAD PUSH2 0xFFFF SWAP1 DUP2 AND SWAP1 DUP3 AND SUB PUSH2 0x2A53 JUMPI PUSH1 0x0 DUP1 REVERT JUMPDEST PUSH1 0x40 MLOAD PUSH1 0x1 PUSH1 0x1 PUSH1 0x60 SHL SUB NOT PUSH1 0x60 DUP5 DUP2 SHL DUP3 AND PUSH1 0x20 DUP5 ADD MSTORE ADDRESS SWAP1 SHL AND PUSH1 0x34 DUP3 ADD MSTORE PUSH1 0x48 ADD PUSH1 0x40 DUP1 MLOAD PUSH1 0x1F NOT DUP2 DUP5 SUB ADD DUP2 MSTORE SWAP2 DUP2 MSTORE PUSH2 0xFFFF DUP4 AND PUSH1 0x0 SWAP1 DUP2 MSTORE PUSH1 0x1 PUSH1 0x20 MSTORE KECCAK256 SWAP1 PUSH2 0x2AA2 SWAP1 DUP3 PUSH2 0x5667 JUMP JUMPDEST POP PUSH2 0xFFFF AND PUSH1 0x0 SWAP1 DUP2 MSTORE PUSH1 0x8 PUSH1 0x20 MSTORE PUSH1 0x40 SWAP1 KECCAK256 DUP1 SLOAD PUSH1 0x1 PUSH1 0x1 PUSH1 0xA0 SHL SUB NOT AND PUSH1 0x1 PUSH1 0x1 PUSH1 0xA0 SHL SUB SWAP3 SWAP1 SWAP3 AND SWAP2 SWAP1 SWAP2 OR SWAP1 SSTORE JUMP JUMPDEST PUSH2 0x2ADD PUSH2 0x36B5 JUMP JUMPDEST PUSH1 0x40 MLOAD PUSH4 0x32FB62E7 PUSH1 0xE2 SHL DUP2 MSTORE PUSH1 0x1 PUSH1 0x1 PUSH1 0xA0 SHL SUB PUSH32 0x0 AND SWAP1 PUSH4 0xCBED8B9C SWAP1 PUSH2 0x2B31 SWAP1 DUP9 SWAP1 DUP9 SWAP1 DUP9 SWAP1 DUP9 SWAP1 DUP9 SWAP1 PUSH1 0x4 ADD PUSH2 0x5726 JUMP JUMPDEST PUSH1 0x0 PUSH1 0x40 MLOAD DUP1 DUP4 SUB DUP2 PUSH1 0x0 DUP8 DUP1 EXTCODESIZE ISZERO DUP1 ISZERO PUSH2 0x2B4B JUMPI PUSH1 0x0 DUP1 REVERT JUMPDEST POP GAS CALL ISZERO DUP1 ISZERO PUSH2 0x2B5F JUMPI RETURNDATASIZE PUSH1 0x0 DUP1 RETURNDATACOPY RETURNDATASIZE PUSH1 0x0 REVERT JUMPDEST POP POP POP POP POP POP POP POP POP JUMP JUMPDEST PUSH2 0x2B72 PUSH2 0x36B5 JUMP JUMPDEST PUSH1 0x0 DUP3 DUP2 MSTORE PUSH1 0x6 PUSH1 0x20 SWAP1 DUP2 MSTORE PUSH1 0x40 DUP1 DUP4 KECCAK256 PUSH1 0x1 PUSH1 0x1 PUSH1 0xA0 SHL SUB DUP1 DUP10 AND DUP6 MSTORE SWAP1 DUP4 MSTORE DUP2 DUP5 KECCAK256 SWAP1 DUP8 AND DUP5 MSTORE SWAP1 SWAP2 MSTORE DUP2 KECCAK256 PUSH1 0x4 DUP2 ADD SLOAD SWAP1 SWAP2 SWAP1 PUSH3 0xFFFFFF AND JUMPDEST PUSH1 0x2 DUP4 ADD SLOAD PUSH3 0xFFFFFF DUP3 AND EQ PUSH2 0x2C16 JUMPI DUP4 PUSH3 0xFFFFFF AND DUP2 PUSH3 0xFFFFFF AND SUB PUSH2 0x2BD4 JUMPI PUSH1 0x1 SWAP2 POP JUMPDEST DUP3 PUSH1 0x2 ADD DUP2 PUSH3 0xFFFFFF AND DUP2 SLOAD DUP2 LT PUSH2 0x2BEE JUMPI PUSH2 0x2BEE PUSH2 0x5489 JUMP JUMPDEST SWAP1 PUSH1 0x0 MSTORE PUSH1 0x20 PUSH1 0x0 KECCAK256 SWAP1 PUSH1 0x2 MUL ADD PUSH1 0x1 ADD PUSH1 0x3 SWAP1 SLOAD SWAP1 PUSH2 0x100 EXP SWAP1 DIV PUSH3 0xFFFFFF AND SWAP1 POP PUSH2 0x2BAE JUMP JUMPDEST DUP2 PUSH2 0x2C20 JUMPI PUSH1 0x0 DUP1 REVERT JUMPDEST PUSH2 0xE5A DUP8 DUP8 DUP8 DUP8 PUSH1 0x1 PUSH2 0x370F JUMP JUMPDEST PUSH1 0x0 DUP2 DUP2 MSTORE PUSH1 0x6 PUSH1 0x20 SWAP1 DUP2 MSTORE PUSH1 0x40 DUP1 DUP4 KECCAK256 PUSH1 0x1 PUSH1 0x1 PUSH1 0xA0 SHL SUB DUP8 DUP2 AND DUP6 MSTORE SWAP1 DUP4 MSTORE DUP2 DUP5 KECCAK256 SWAP1 DUP7 AND DUP5 MSTORE SWAP1 SWAP2 MSTORE DUP2 KECCAK256 PUSH1 0x9 DUP2 ADD SLOAD PUSH4 0x1000000 SWAP1 DIV PUSH1 0xFF AND ISZERO DUP1 ISZERO PUSH2 0x2C97 JUMPI POP PUSH1 0xA SLOAD PUSH1 0x5 DUP3 ADD SLOAD PUSH2 0x2C95 SWAP1 PUSH1 0x1 PUSH1 0x78 SHL SWAP1 DIV PUSH1 0x1 PUSH1 0x1 PUSH1 0x60 SHL SUB AND TIMESTAMP PUSH2 0x5459 JUMP JUMPDEST GT JUMPDEST SWAP6 SWAP5 POP POP POP POP POP JUMP JUMPDEST PUSH2 0xFFFF DUP7 AND PUSH1 0x0 SWAP1 DUP2 MSTORE PUSH1 0x5 PUSH1 0x20 MSTORE PUSH1 0x40 DUP1 DUP3 KECCAK256 SWAP1 MLOAD PUSH2 0x2CC3 SWAP1 DUP9 SWAP1 DUP9 SWAP1 PUSH2 0x5433 JUMP JUMPDEST SWAP1 DUP2 MSTORE PUSH1 0x40 DUP1 MLOAD PUSH1 0x20 SWAP3 DUP2 SWAP1 SUB DUP4 ADD SWAP1 KECCAK256 PUSH1 0x1 PUSH1 0x1 PUSH1 0x40 SHL SUB DUP8 AND PUSH1 0x0 SWAP1 DUP2 MSTORE SWAP3 MSTORE SWAP1 KECCAK256 SLOAD SWAP1 POP DUP1 PUSH2 0x2D43 JUMPI PUSH1 0x40 MLOAD PUSH3 0x461BCD PUSH1 0xE5 SHL DUP2 MSTORE PUSH1 0x20 PUSH1 0x4 DUP3 ADD MSTORE PUSH1 0x23 PUSH1 0x24 DUP3 ADD MSTORE PUSH32 0x4E6F6E626C6F636B696E674C7A4170703A206E6F2073746F726564206D657373 PUSH1 0x44 DUP3 ADD MSTORE PUSH3 0x616765 PUSH1 0xE8 SHL PUSH1 0x64 DUP3 ADD MSTORE PUSH1 0x84 ADD PUSH2 0xCA6 JUMP JUMPDEST DUP1 DUP4 DUP4 PUSH1 0x40 MLOAD PUSH2 0x2D54 SWAP3 SWAP2 SWAP1 PUSH2 0x5433 JUMP JUMPDEST PUSH1 0x40 MLOAD DUP1 SWAP2 SUB SWAP1 KECCAK256 EQ PUSH2 0x2DB3 JUMPI PUSH1 0x40 MLOAD PUSH3 0x461BCD PUSH1 0xE5 SHL DUP2 MSTORE PUSH1 0x20 PUSH1 0x4 DUP3 ADD MSTORE PUSH1 0x21 PUSH1 0x24 DUP3 ADD MSTORE PUSH32 0x4E6F6E626C6F636B696E674C7A4170703A20696E76616C6964207061796C6F61 PUSH1 0x44 DUP3 ADD MSTORE PUSH1 0x19 PUSH1 0xFA SHL PUSH1 0x64 DUP3 ADD MSTORE PUSH1 0x84 ADD PUSH2 0xCA6 JUMP JUMPDEST PUSH2 0xFFFF DUP8 AND PUSH1 0x0 SWAP1 DUP2 MSTORE PUSH1 0x5 PUSH1 0x20 MSTORE PUSH1 0x40 DUP1 DUP3 KECCAK256 SWAP1 MLOAD PUSH2 0x2DD6 SWAP1 DUP10 SWAP1 DUP10 SWAP1 PUSH2 0x5433 JUMP JUMPDEST SWAP1 DUP2 MSTORE PUSH1 0x40 DUP1 MLOAD PUSH1 0x20 SWAP3 DUP2 SWAP1 SUB DUP4 ADD DUP2 KECCAK256 PUSH1 0x1 PUSH1 0x1 PUSH1 0x40 SHL SUB DUP10 AND PUSH1 0x0 SWAP1 DUP2 MSTORE SWAP1 DUP5 MSTORE DUP3 SWAP1 KECCAK256 SWAP4 SWAP1 SWAP4 SSTORE PUSH1 0x1F DUP9 ADD DUP3 SWAP1 DIV DUP3 MUL DUP4 ADD DUP3 ADD SWAP1 MSTORE DUP7 DUP3 MSTORE PUSH2 0x2E6E SWAP2 DUP10 SWAP2 DUP10 SWAP1 DUP10 SWAP1 DUP2 SWAP1 DUP5 ADD DUP4 DUP3 DUP1 DUP3 DUP5 CALLDATACOPY PUSH1 0x0 SWAP3 ADD SWAP2 SWAP1 SWAP2 MSTORE POP POP PUSH1 0x40 DUP1 MLOAD PUSH1 0x20 PUSH1 0x1F DUP11 ADD DUP2 SWAP1 DIV DUP2 MUL DUP3 ADD DUP2 ADD SWAP1 SWAP3 MSTORE DUP9 DUP2 MSTORE DUP11 SWAP4 POP SWAP2 POP DUP9 SWAP1 DUP9 SWAP1 DUP2 SWAP1 DUP5 ADD DUP4 DUP3 DUP1 DUP3 DUP5 CALLDATACOPY PUSH1 0x0 SWAP3 ADD SWAP2 SWAP1 SWAP2 MSTORE POP PUSH2 0x39FD SWAP3 POP POP POP JUMP JUMPDEST PUSH32 0xC264D91F3ADC5588250E1551F547752CA0CFA8F6B530D243B9F9F4CAB10EA8E5 DUP8 DUP8 DUP8 DUP8 DUP6 PUSH1 0x40 MLOAD PUSH2 0x2EA5 SWAP6 SWAP5 SWAP4 SWAP3 SWAP2 SWAP1 PUSH2 0x575F JUMP JUMPDEST PUSH1 0x40 MLOAD DUP1 SWAP2 SUB SWAP1 LOG1 POP POP POP POP POP POP POP JUMP JUMPDEST PUSH2 0x2EE4 DUP5 CALLER PUSH2 0x2710 PUSH1 0xB SLOAD DUP6 PUSH1 0x1 PUSH1 0x1 PUSH1 0x60 SHL SUB AND PUSH2 0x2ED5 SWAP2 SWAP1 PUSH2 0x5472 JUMP JUMPDEST PUSH2 0x2EDF SWAP2 SWAP1 PUSH2 0x554F JUMP JUMPDEST PUSH2 0x38B2 JUMP JUMPDEST PUSH2 0x2F1C JUMPI PUSH1 0x40 MLOAD PUSH3 0x461BCD PUSH1 0xE5 SHL DUP2 MSTORE PUSH1 0x20 PUSH1 0x4 DUP3 ADD MSTORE PUSH1 0x9 PUSH1 0x24 DUP3 ADD MSTORE PUSH9 0x10BA3930B739B332B9 PUSH1 0xB9 SHL PUSH1 0x44 DUP3 ADD MSTORE PUSH1 0x64 ADD PUSH2 0xCA6 JUMP JUMPDEST PUSH2 0x2710 DUP2 PUSH1 0x1 PUSH1 0x1 PUSH1 0x60 SHL SUB AND GT PUSH2 0x2F62 JUMPI PUSH1 0x40 MLOAD PUSH3 0x461BCD PUSH1 0xE5 SHL DUP2 MSTORE PUSH1 0x20 PUSH1 0x4 DUP3 ADD MSTORE PUSH1 0x9 PUSH1 0x24 DUP3 ADD MSTORE PUSH9 0x10B6B4B727B93232B9 PUSH1 0xB9 SHL PUSH1 0x44 DUP3 ADD MSTORE PUSH1 0x64 ADD PUSH2 0xCA6 JUMP JUMPDEST PUSH1 0x0 DUP3 DUP2 MSTORE PUSH1 0x6 PUSH1 0x20 SWAP1 DUP2 MSTORE PUSH1 0x40 DUP1 DUP4 KECCAK256 PUSH1 0x1 PUSH1 0x1 PUSH1 0xA0 SHL SUB DUP9 DUP2 AND DUP6 MSTORE SWAP1 DUP4 MSTORE DUP2 DUP5 KECCAK256 SWAP1 DUP8 AND DUP5 MSTORE DUP3 MSTORE DUP1 DUP4 KECCAK256 PUSH1 0x4 DUP2 ADD SLOAD DUP3 MLOAD PUSH1 0xC0 DUP2 ADD DUP5 MSTORE CALLER DUP2 MSTORE PUSH1 0x1 PUSH1 0x1 PUSH1 0x60 SHL SUB DUP8 AND SWAP5 DUP2 ADD SWAP5 SWAP1 SWAP5 MSTORE PUSH1 0x1 PUSH1 0x48 SHL SWAP1 DIV PUSH3 0xFFFFFF AND SWAP2 DUP4 ADD DUP3 SWAP1 MSTORE PUSH1 0x3 DUP2 ADD SLOAD SWAP1 SWAP4 SWAP2 SWAP3 SWAP1 PUSH1 0x60 DUP3 ADD SWAP1 PUSH2 0x2FDD SWAP1 PUSH1 0x1 PUSH2 0x549F JUMP JUMPDEST PUSH3 0xFFFFFF SWAP1 DUP2 AND DUP3 MSTORE PUSH1 0x9 DUP7 ADD DUP1 SLOAD DUP3 AND PUSH1 0x20 DUP1 DUP6 ADD SWAP2 SWAP1 SWAP2 MSTORE PUSH1 0x0 PUSH1 0x40 SWAP5 DUP6 ADD DUP2 SWAP1 MSTORE PUSH1 0x3 DUP10 ADD DUP1 SLOAD PUSH1 0x4 DUP12 ADD DUP1 SLOAD PUSH3 0xFFFFFF PUSH1 0x48 SHL NOT AND PUSH1 0x1 PUSH1 0x48 SHL DUP4 DUP10 AND DUP2 MUL SWAP2 SWAP1 SWAP2 OR SWAP1 SWAP2 SSTORE PUSH1 0x1 DUP1 DUP4 ADD DUP5 SSTORE SWAP3 DUP5 MSTORE SWAP3 DUP5 SWAP1 KECCAK256 DUP9 MLOAD SWAP5 DUP10 ADD MLOAD PUSH1 0x1 PUSH1 0x1 PUSH1 0xA0 SHL SUB SWAP1 SWAP6 AND PUSH1 0x1 PUSH1 0xA0 SHL PUSH1 0x1 PUSH1 0x1 PUSH1 0x60 SHL SUB SWAP7 DUP8 AND MUL OR PUSH1 0x2 SWAP1 SWAP3 MUL ADD SWAP1 DUP2 SSTORE SWAP6 DUP8 ADD MLOAD SWAP6 ADD DUP1 SLOAD PUSH1 0x60 DUP9 ADD MLOAD PUSH1 0x80 DUP10 ADD MLOAD PUSH1 0xA0 DUP11 ADD MLOAD SWAP9 DUP9 AND PUSH6 0xFFFFFFFFFFFF NOT SWAP1 SWAP4 AND SWAP3 SWAP1 SWAP3 OR PUSH4 0x1000000 SWAP2 DUP9 AND SWAP2 SWAP1 SWAP2 MUL OR PUSH7 0x1000000000000 PUSH1 0x1 PUSH1 0xA8 SHL SUB NOT AND PUSH1 0x1 PUSH1 0x30 SHL SWAP2 DUP8 AND SWAP2 SWAP1 SWAP2 MUL PUSH12 0xFFFFFFFFFFFFFFFFFFFFFFFF PUSH1 0x48 SHL NOT AND OR SWAP6 SWAP1 SWAP3 AND MUL SWAP4 SWAP1 SWAP4 OR SWAP1 SWAP3 SSTORE SWAP1 SLOAD SWAP2 SWAP3 POP PUSH1 0xA PUSH5 0x100000000 SWAP1 SWAP3 DIV AND LT PUSH2 0x311E JUMPI PUSH1 0x40 MLOAD PUSH3 0x461BCD PUSH1 0xE5 SHL DUP2 MSTORE PUSH1 0x20 PUSH1 0x4 DUP3 ADD MSTORE PUSH1 0xB PUSH1 0x24 DUP3 ADD MSTORE PUSH11 0x216D616B6572537461636B PUSH1 0xA8 SHL PUSH1 0x44 DUP3 ADD MSTORE PUSH1 0x64 ADD PUSH2 0xCA6 JUMP JUMPDEST PUSH1 0x9 DUP4 ADD DUP1 SLOAD PUSH5 0x100000000 SWAP1 DIV PUSH3 0xFFFFFF AND SWAP1 PUSH1 0x4 PUSH2 0x313D DUP4 PUSH2 0x550D JUMP JUMPDEST DUP3 SLOAD PUSH3 0xFFFFFF SWAP2 DUP3 AND PUSH2 0x100 SWAP4 SWAP1 SWAP4 EXP SWAP3 DUP4 MUL SWAP2 SWAP1 SWAP3 MUL NOT SWAP1 SWAP2 AND OR SWAP1 SSTORE POP PUSH1 0x7 DUP4 ADD DUP1 SLOAD DUP6 SWAP2 SWAP1 PUSH1 0x0 SWAP1 PUSH2 0x317C SWAP1 DUP5 SWAP1 PUSH1 0x1 PUSH1 0x1 PUSH1 0x60 SHL SUB AND PUSH2 0x552F JUMP JUMPDEST SWAP3 POP PUSH2 0x100 EXP DUP2 SLOAD DUP2 PUSH1 0x1 PUSH1 0x1 PUSH1 0x60 SHL SUB MUL NOT AND SWAP1 DUP4 PUSH1 0x1 PUSH1 0x1 PUSH1 0x60 SHL SUB AND MUL OR SWAP1 SSTORE POP DUP6 PUSH1 0x1 PUSH1 0x1 PUSH1 0xA0 SHL SUB AND DUP8 PUSH1 0x1 PUSH1 0x1 PUSH1 0xA0 SHL SUB AND PUSH32 0xE0DDA2C209D90D1D92A1C868CDF120DB42EB6E86E7ED215458B9AECC80A8D60B DUP8 CALLER DUP9 PUSH1 0x40 MLOAD PUSH2 0x1DCF SWAP4 SWAP3 SWAP2 SWAP1 SWAP3 DUP4 MSTORE PUSH1 0x1 PUSH1 0x1 PUSH1 0xA0 SHL SUB SWAP2 SWAP1 SWAP2 AND PUSH1 0x20 DUP4 ADD MSTORE PUSH1 0x1 PUSH1 0x1 PUSH1 0x60 SHL SUB AND PUSH1 0x40 DUP3 ADD MSTORE PUSH1 0x60 ADD SWAP1 JUMP JUMPDEST PUSH2 0x3212 PUSH2 0x36B5 JUMP JUMPDEST PUSH1 0x0 DUP2 GT PUSH2 0x325A JUMPI PUSH1 0x40 MLOAD PUSH3 0x461BCD PUSH1 0xE5 SHL DUP2 MSTORE PUSH1 0x20 PUSH1 0x4 DUP3 ADD MSTORE PUSH1 0x15 PUSH1 0x24 DUP3 ADD MSTORE PUSH21 0x4C7A4170703A20696E76616C6964206D696E476173 PUSH1 0x58 SHL PUSH1 0x44 DUP3 ADD MSTORE PUSH1 0x64 ADD PUSH2 0xCA6 JUMP JUMPDEST PUSH2 0xFFFF DUP4 DUP2 AND PUSH1 0x0 DUP2 DUP2 MSTORE PUSH1 0x2 PUSH1 0x20 SWAP1 DUP2 MSTORE PUSH1 0x40 DUP1 DUP4 KECCAK256 SWAP5 DUP8 AND DUP1 DUP5 MSTORE SWAP5 DUP3 MSTORE SWAP2 DUP3 SWAP1 KECCAK256 DUP6 SWAP1 SSTORE DUP2 MLOAD SWAP3 DUP4 MSTORE DUP3 ADD SWAP3 SWAP1 SWAP3 MSTORE SWAP1 DUP2 ADD DUP3 SWAP1 MSTORE PUSH32 0x9D5C7C0B934DA8FEFA9C7760C98383778A12DFBFC0C3B3106518F43FB9508AC0 SWAP1 PUSH1 0x60 ADD PUSH2 0x2708 JUMP JUMPDEST PUSH2 0x32C4 PUSH2 0x36B5 JUMP JUMPDEST PUSH2 0xFFFF DUP4 AND PUSH1 0x0 SWAP1 DUP2 MSTORE PUSH1 0x1 PUSH1 0x20 MSTORE PUSH1 0x40 SWAP1 KECCAK256 PUSH2 0x32E2 DUP3 DUP5 DUP4 PUSH2 0x579A JUMP JUMPDEST POP PUSH32 0xFA41487AD5D6728F0B19276FA1EDDC16558578F5109FC39D2DC33C3230470DAB DUP4 DUP4 DUP4 PUSH1 0x40 MLOAD PUSH2 0x2708 SWAP4 SWAP3 SWAP2 SWAP1 PUSH2 0x55B6 JUMP JUMPDEST PUSH2 0x331E PUSH2 0x36B5 JUMP JUMPDEST PUSH1 0x1 PUSH1 0x1 PUSH1 0xA0 SHL SUB DUP2 AND PUSH2 0x3383 JUMPI PUSH1 0x40 MLOAD PUSH3 0x461BCD PUSH1 0xE5 SHL DUP2 MSTORE PUSH1 0x20 PUSH1 0x4 DUP3 ADD MSTORE PUSH1 0x26 PUSH1 0x24 DUP3 ADD MSTORE PUSH32 0x4F776E61626C653A206E6577206F776E657220697320746865207A65726F2061 PUSH1 0x44 DUP3 ADD MSTORE PUSH6 0x646472657373 PUSH1 0xD0 SHL PUSH1 0x64 DUP3 ADD MSTORE PUSH1 0x84 ADD PUSH2 0xCA6 JUMP JUMPDEST PUSH2 0x338C DUP2 PUSH2 0x3BF5 JUMP JUMPDEST POP JUMP JUMPDEST PUSH1 0x40 MLOAD PUSH4 0x3D7B2F6F PUSH1 0xE2 SHL DUP2 MSTORE PUSH2 0xFFFF DUP1 DUP7 AND PUSH1 0x4 DUP4 ADD MSTORE DUP5 AND PUSH1 0x24 DUP3 ADD MSTORE ADDRESS PUSH1 0x44 DUP3 ADD MSTORE PUSH1 0x64 DUP2 ADD DUP3 SWAP1 MSTORE PUSH1 0x60 SWAP1 PUSH32 0x0 PUSH1 0x1 PUSH1 0x1 PUSH1 0xA0 SHL SUB AND SWAP1 PUSH4 0xF5ECBDBC SWAP1 PUSH1 0x84 ADD PUSH1 0x0 PUSH1 0x40 MLOAD DUP1 DUP4 SUB DUP2 DUP7 GAS STATICCALL ISZERO DUP1 ISZERO PUSH2 0x340F JUMPI RETURNDATASIZE PUSH1 0x0 DUP1 RETURNDATACOPY RETURNDATASIZE PUSH1 0x0 REVERT JUMPDEST POP POP POP POP PUSH1 0x40 MLOAD RETURNDATASIZE PUSH1 0x0 DUP3 RETURNDATACOPY PUSH1 0x1F RETURNDATASIZE SWAP1 DUP2 ADD PUSH1 0x1F NOT AND DUP3 ADD PUSH1 0x40 MSTORE PUSH2 0x2C97 SWAP2 SWAP1 DUP2 ADD SWAP1 PUSH2 0x5859 JUMP JUMPDEST PUSH1 0x0 DUP1 PUSH2 0x349A GAS PUSH1 0x96 PUSH4 0x66AD5C8A PUSH1 0xE0 SHL DUP10 DUP10 DUP10 DUP10 PUSH1 0x40 MLOAD PUSH1 0x24 ADD PUSH2 0x345F SWAP5 SWAP4 SWAP3 SWAP2 SWAP1 PUSH2 0x58C6 JUMP JUMPDEST PUSH1 0x40 DUP1 MLOAD PUSH1 0x1F NOT DUP2 DUP5 SUB ADD DUP2 MSTORE SWAP2 SWAP1 MSTORE PUSH1 0x20 DUP2 ADD DUP1 MLOAD PUSH1 0x1 PUSH1 0x1 PUSH1 0xE0 SHL SUB AND PUSH1 0x1 PUSH1 0x1 PUSH1 0xE0 SHL SUB NOT SWAP1 SWAP4 AND SWAP3 SWAP1 SWAP3 OR SWAP1 SWAP2 MSTORE ADDRESS SWAP3 SWAP2 SWAP1 PUSH2 0x3D52 JUMP JUMPDEST SWAP2 POP SWAP2 POP DUP2 PUSH2 0x22F3 JUMPI PUSH2 0x22F3 DUP7 DUP7 DUP7 DUP7 DUP6 PUSH2 0x3DDC JUMP JUMPDEST PUSH1 0x0 DUP2 DUP2 MSTORE PUSH1 0x6 PUSH1 0x20 SWAP1 DUP2 MSTORE PUSH1 0x40 DUP1 DUP4 KECCAK256 PUSH1 0x1 PUSH1 0x1 PUSH1 0xA0 SHL SUB DUP1 DUP9 AND DUP6 MSTORE SWAP1 DUP4 MSTORE DUP2 DUP5 KECCAK256 SWAP1 DUP7 AND DUP5 MSTORE SWAP1 SWAP2 MSTORE DUP2 KECCAK256 PUSH1 0x9 DUP2 ADD SLOAD SWAP1 SWAP2 PUSH3 0xFFFFFF SWAP1 SWAP2 AND SWAP1 DUP1 PUSH2 0x34FA DUP8 DUP8 DUP8 DUP5 PUSH2 0x115E JUMP JUMPDEST SWAP2 POP SWAP2 POP PUSH1 0x0 PUSH2 0x350B DUP9 DUP9 DUP9 PUSH2 0x23A9 JUMP JUMPDEST PUSH1 0x7 DUP1 DUP8 ADD SLOAD PUSH1 0x40 DUP1 MLOAD PUSH2 0x100 DUP2 ADD DUP3 MSTORE PUSH1 0x1 PUSH1 0x1 PUSH1 0xA0 SHL SUB DUP1 DUP15 AND DUP3 MSTORE DUP13 AND PUSH1 0x20 DUP3 ADD MSTORE SWAP3 SLOAD PUSH2 0xFFFF AND SWAP1 DUP4 ADD MSTORE PUSH1 0x1 PUSH1 0x1 PUSH1 0x60 SHL SUB DUP1 DUP5 AND PUSH1 0x60 DUP5 ADD MSTORE SWAP1 DUP2 AND PUSH1 0x80 DUP4 ADD DUP2 SWAP1 MSTORE PUSH1 0xA0 DUP4 ADD DUP8 SWAP1 MSTORE SWAP1 DUP6 AND PUSH1 0xC0 DUP4 ADD MSTORE PUSH3 0xFFFFFF DUP1 DUP9 AND PUSH1 0xE0 DUP5 ADD MSTORE PUSH1 0x9 DUP10 ADD DUP1 SLOAD SWAP5 SWAP6 POP SWAP2 SWAP4 PUSH1 0x1 SWAP3 SWAP2 PUSH1 0x0 SWAP2 PUSH2 0x358D SWAP2 DUP6 SWAP2 AND PUSH2 0x549F JUMP JUMPDEST DUP3 SLOAD PUSH2 0x100 SWAP3 SWAP1 SWAP3 EXP PUSH3 0xFFFFFF DUP2 DUP2 MUL NOT SWAP1 SWAP4 AND SWAP2 SWAP1 SWAP3 AND SWAP2 SWAP1 SWAP2 MUL OR SWAP1 SSTORE POP PUSH1 0x6 DUP8 ADD DUP1 SLOAD PUSH1 0x1 PUSH1 0x1 PUSH1 0x60 SHL SUB DUP6 DUP2 AND PUSH1 0x1 PUSH1 0x1 PUSH1 0xC0 SHL SUB NOT SWAP1 SWAP3 AND SWAP2 SWAP1 SWAP2 OR PUSH1 0x1 PUSH1 0x60 SHL DUP6 DUP4 AND DUP2 MUL SWAP2 SWAP1 SWAP2 OR SWAP1 SWAP3 SSTORE PUSH1 0x7 DUP10 ADD DUP1 SLOAD PUSH12 0xFFFFFFFFFFFFFFFFFFFFFFFF PUSH1 0x60 SHL NOT AND SWAP2 DUP8 AND SWAP1 SWAP3 MUL OR SWAP1 SSTORE PUSH1 0x40 MLOAD PUSH1 0x1 PUSH1 0xF0 SHL PUSH1 0x20 DUP3 ADD MSTORE PUSH3 0x2DC6C0 PUSH1 0x22 DUP3 ADD MSTORE PUSH1 0x0 SWAP1 PUSH1 0x42 ADD PUSH1 0x40 MLOAD PUSH1 0x20 DUP2 DUP4 SUB SUB DUP2 MSTORE SWAP1 PUSH1 0x40 MSTORE SWAP1 POP PUSH2 0x365B DUP10 DUP4 PUSH1 0x40 MLOAD PUSH1 0x20 ADD PUSH2 0x3642 SWAP2 SWAP1 PUSH2 0x595F JUMP JUMPDEST PUSH1 0x40 MLOAD PUSH1 0x20 DUP2 DUP4 SUB SUB DUP2 MSTORE SWAP1 PUSH1 0x40 MSTORE ADDRESS PUSH1 0x0 DUP6 SELFBALANCE PUSH2 0x3E79 JUMP JUMPDEST PUSH1 0x40 DUP1 MLOAD DUP11 DUP2 MSTORE PUSH3 0xFFFFFF DUP10 AND PUSH1 0x20 DUP3 ADD MSTORE PUSH1 0x1 PUSH1 0x1 PUSH1 0xA0 SHL SUB DUP1 DUP14 AND SWAP3 SWAP1 DUP15 AND SWAP2 PUSH32 0x9239896A8B6444F37B2B4AE14ADDF5F4214B787F7CD707D67FD66E967CA56EA2 SWAP2 ADD PUSH1 0x40 MLOAD DUP1 SWAP2 SUB SWAP1 LOG3 POP POP POP POP POP POP POP POP POP POP POP JUMP JUMPDEST PUSH1 0x0 SLOAD PUSH1 0x1 PUSH1 0x1 PUSH1 0xA0 SHL SUB AND CALLER EQ PUSH2 0x230D JUMPI PUSH1 0x40 MLOAD PUSH3 0x461BCD PUSH1 0xE5 SHL DUP2 MSTORE PUSH1 0x20 PUSH1 0x4 DUP3 ADD DUP2 SWAP1 MSTORE PUSH1 0x24 DUP3 ADD MSTORE PUSH32 0x4F776E61626C653A2063616C6C6572206973206E6F7420746865206F776E6572 PUSH1 0x44 DUP3 ADD MSTORE PUSH1 0x64 ADD PUSH2 0xCA6 JUMP JUMPDEST PUSH1 0x0 DUP4 DUP2 MSTORE PUSH1 0x6 PUSH1 0x20 SWAP1 DUP2 MSTORE PUSH1 0x40 DUP1 DUP4 KECCAK256 PUSH1 0x1 PUSH1 0x1 PUSH1 0xA0 SHL SUB DUP10 DUP2 AND DUP6 MSTORE SWAP1 DUP4 MSTORE DUP2 DUP5 KECCAK256 SWAP1 DUP9 AND DUP5 MSTORE SWAP1 SWAP2 MSTORE DUP2 KECCAK256 PUSH1 0x9 DUP2 ADD SLOAD SWAP1 SWAP2 SWAP1 PUSH1 0x1 PUSH1 0x38 SHL SWAP1 DIV PUSH1 0xFF AND PUSH2 0x3758 JUMPI PUSH1 0x0 DUP1 REVERT JUMPDEST DUP3 ISZERO PUSH2 0x37EF JUMPI DUP2 PUSH1 0x2 ADD SWAP1 POP PUSH1 0x0 DUP2 DUP6 PUSH3 0xFFFFFF AND DUP2 SLOAD DUP2 LT PUSH2 0x377D JUMPI PUSH2 0x377D PUSH2 0x5489 JUMP JUMPDEST PUSH1 0x0 SWAP2 DUP3 MSTORE PUSH1 0x20 SWAP1 SWAP2 KECCAK256 PUSH1 0x2 SWAP1 SWAP2 MUL ADD SLOAD PUSH1 0x1 PUSH1 0xA0 SHL SWAP1 DIV PUSH1 0x1 PUSH1 0x1 PUSH1 0x60 SHL SUB AND GT PUSH2 0x37A8 JUMPI PUSH1 0x0 DUP1 REVERT JUMPDEST PUSH2 0x37EA DUP8 CALLER DUP4 DUP8 PUSH3 0xFFFFFF AND DUP2 SLOAD DUP2 LT PUSH2 0x37C4 JUMPI PUSH2 0x37C4 PUSH2 0x5489 JUMP JUMPDEST PUSH1 0x0 SWAP2 DUP3 MSTORE PUSH1 0x20 SWAP1 SWAP2 KECCAK256 PUSH1 0x2 SWAP1 SWAP2 MUL ADD SLOAD PUSH1 0x1 PUSH1 0xA0 SHL SWAP1 DIV PUSH1 0x1 PUSH1 0x1 PUSH1 0x60 SHL SUB AND PUSH2 0x395D JUMP JUMPDEST PUSH2 0x385B JUMP JUMPDEST DUP2 PUSH1 0x3 ADD SWAP1 POP PUSH1 0x0 DUP2 DUP6 PUSH3 0xFFFFFF AND DUP2 SLOAD DUP2 LT PUSH2 0x380E JUMPI PUSH2 0x380E PUSH2 0x5489 JUMP JUMPDEST PUSH1 0x0 SWAP2 DUP3 MSTORE PUSH1 0x20 SWAP1 SWAP2 KECCAK256 PUSH1 0x2 SWAP1 SWAP2 MUL ADD SLOAD PUSH1 0x1 PUSH1 0xA0 SHL SWAP1 DIV PUSH1 0x1 PUSH1 0x1 PUSH1 0x60 SHL SUB AND GT PUSH2 0x3839 JUMPI PUSH1 0x0 DUP1 REVERT JUMPDEST PUSH2 0x385B DUP8 CALLER PUSH2 0x2710 PUSH1 0xB SLOAD DUP6 DUP10 PUSH3 0xFFFFFF AND DUP2 SLOAD DUP2 LT PUSH2 0x18C7 JUMPI PUSH2 0x18C7 PUSH2 0x5489 JUMP JUMPDEST PUSH1 0x0 DUP2 DUP6 PUSH3 0xFFFFFF AND DUP2 SLOAD DUP2 LT PUSH2 0x3874 JUMPI PUSH2 0x3874 PUSH2 0x5489 JUMP JUMPDEST SWAP1 PUSH1 0x0 MSTORE PUSH1 0x20 PUSH1 0x0 KECCAK256 SWAP1 PUSH1 0x2 MUL ADD PUSH1 0x0 ADD PUSH1 0x14 PUSH2 0x100 EXP DUP2 SLOAD DUP2 PUSH1 0x1 PUSH1 0x1 PUSH1 0x60 SHL SUB MUL NOT AND SWAP1 DUP4 PUSH1 0x1 PUSH1 0x1 PUSH1 0x60 SHL SUB AND MUL OR SWAP1 SSTORE POP POP POP POP POP POP POP POP JUMP JUMPDEST PUSH1 0x40 DUP1 MLOAD PUSH1 0x1 PUSH1 0x1 PUSH1 0xA0 SHL SUB DUP5 DUP2 AND PUSH1 0x24 DUP4 ADD MSTORE ADDRESS PUSH1 0x44 DUP4 ADD MSTORE PUSH1 0x64 DUP1 DUP4 ADD DUP6 SWAP1 MSTORE DUP4 MLOAD DUP1 DUP5 SUB SWAP1 SWAP2 ADD DUP2 MSTORE PUSH1 0x84 SWAP1 SWAP3 ADD DUP4 MSTORE PUSH1 0x20 DUP3 ADD DUP1 MLOAD PUSH1 0x1 PUSH1 0x1 PUSH1 0xE0 SHL SUB AND PUSH4 0x23B872DD PUSH1 0xE0 SHL OR SWAP1 MSTORE SWAP2 MLOAD PUSH1 0x0 SWAP3 DUP7 AND SWAP2 PUSH2 0x3910 SWAP2 PUSH2 0x5A10 JUMP JUMPDEST PUSH1 0x0 PUSH1 0x40 MLOAD DUP1 DUP4 SUB DUP2 PUSH1 0x0 DUP7 GAS CALL SWAP2 POP POP RETURNDATASIZE DUP1 PUSH1 0x0 DUP2 EQ PUSH2 0x394D JUMPI PUSH1 0x40 MLOAD SWAP2 POP PUSH1 0x1F NOT PUSH1 0x3F RETURNDATASIZE ADD AND DUP3 ADD PUSH1 0x40 MSTORE RETURNDATASIZE DUP3 MSTORE RETURNDATASIZE PUSH1 0x0 PUSH1 0x20 DUP5 ADD RETURNDATACOPY PUSH2 0x3952 JUMP JUMPDEST PUSH1 0x60 SWAP2 POP JUMPDEST POP SWAP1 SWAP6 SWAP5 POP POP POP POP POP JUMP JUMPDEST PUSH1 0x40 DUP1 MLOAD PUSH1 0x1 PUSH1 0x1 PUSH1 0xA0 SHL SUB DUP5 DUP2 AND PUSH1 0x24 DUP4 ADD MSTORE PUSH1 0x44 DUP1 DUP4 ADD DUP6 SWAP1 MSTORE DUP4 MLOAD DUP1 DUP5 SUB SWAP1 SWAP2 ADD DUP2 MSTORE PUSH1 0x64 SWAP1 SWAP3 ADD DUP4 MSTORE PUSH1 0x20 DUP3 ADD DUP1 MLOAD PUSH1 0x1 PUSH1 0x1 PUSH1 0xE0 SHL SUB AND PUSH4 0xA9059CBB PUSH1 0xE0 SHL OR SWAP1 MSTORE SWAP2 MLOAD SWAP2 DUP6 AND SWAP2 PUSH2 0x39B4 SWAP2 SWAP1 PUSH2 0x5A10 JUMP JUMPDEST PUSH1 0x0 PUSH1 0x40 MLOAD DUP1 DUP4 SUB DUP2 PUSH1 0x0 DUP7 GAS CALL SWAP2 POP POP RETURNDATASIZE DUP1 PUSH1 0x0 DUP2 EQ PUSH2 0x22F3 JUMPI PUSH1 0x40 MLOAD SWAP2 POP PUSH1 0x1F NOT PUSH1 0x3F RETURNDATASIZE ADD AND DUP3 ADD PUSH1 0x40 MSTORE RETURNDATASIZE DUP3 MSTORE RETURNDATASIZE PUSH1 0x0 PUSH1 0x20 DUP5 ADD RETURNDATACOPY PUSH2 0x22F3 JUMP JUMPDEST PUSH2 0x1158 DUP5 DUP5 DUP5 DUP5 PUSH2 0x401E JUMP JUMPDEST PUSH1 0x0 DUP2 DUP1 PUSH1 0x20 ADD SWAP1 MLOAD DUP2 ADD SWAP1 PUSH2 0x3A13 SWAP2 SWAP1 PUSH2 0x5B0D JUMP JUMPDEST PUSH1 0x40 DUP2 DUP2 ADD MLOAD PUSH1 0x20 DUP1 DUP5 ADD MLOAD DUP5 MLOAD PUSH2 0xFFFF DUP5 AND PUSH1 0x0 SWAP1 DUP2 MSTORE PUSH1 0x6 DUP5 MSTORE DUP6 DUP2 KECCAK256 PUSH1 0x1 PUSH1 0x1 PUSH1 0xA0 SHL SUB DUP1 DUP6 AND DUP4 MSTORE SWAP1 DUP6 MSTORE DUP7 DUP3 KECCAK256 SWAP1 DUP4 AND DUP3 MSTORE DUP5 MSTORE DUP6 SWAP1 KECCAK256 PUSH1 0x5 DUP2 ADD DUP1 SLOAD PUSH12 0xFFFFFFFFFFFFFFFFFFFFFFFF PUSH1 0x78 SHL NOT AND PUSH1 0x1 PUSH1 0x78 SHL TIMESTAMP PUSH1 0x1 PUSH1 0x1 PUSH1 0x60 SHL SUB AND SWAP1 DUP2 MUL SWAP2 SWAP1 SWAP2 OR SWAP1 SWAP2 SSTORE PUSH1 0xE0 DUP9 ADD MLOAD PUSH1 0x9 DUP4 ADD SLOAD DUP9 MLOAD PUSH4 0x1000000 DUP3 DIV PUSH1 0xFF AND ISZERO DUP2 MSTORE PUSH3 0xFFFFFF DUP1 DUP5 AND SWAP9 DUP3 ADD SWAP9 SWAP1 SWAP9 MSTORE SWAP7 AND SWAP8 DUP7 ADD SWAP8 SWAP1 SWAP8 MSTORE PUSH1 0x60 DUP6 ADD MSTORE SWAP6 SWAP7 POP SWAP3 SWAP5 SWAP1 SWAP4 SWAP1 SWAP2 PUSH32 0x5C46C50F77912C93AEEA5718115CAC9F280AAF44C20785FFF253E053F3E27C34 SWAP1 PUSH1 0x80 ADD PUSH1 0x40 MLOAD DUP1 SWAP2 SUB SWAP1 LOG1 PUSH1 0xC0 DUP7 ADD MLOAD PUSH1 0xA0 DUP8 ADD MLOAD PUSH1 0x7 DUP5 ADD SLOAD PUSH2 0x3B15 SWAP2 DUP8 SWAP2 PUSH1 0x1 PUSH1 0x60 SHL SWAP1 DIV PUSH1 0x1 PUSH1 0x1 PUSH1 0x60 SHL SUB AND PUSH2 0x440F JUMP JUMPDEST PUSH1 0x1 PUSH1 0x1 PUSH1 0x60 SHL SUB DUP2 AND ISZERO PUSH2 0x3B34 JUMPI PUSH2 0x3B34 DUP6 DUP6 DUP9 PUSH2 0xFFFF AND DUP5 PUSH2 0x44E7 JUMP JUMPDEST PUSH1 0x9 DUP4 ADD SLOAD PUSH4 0x1000000 SWAP1 DIV PUSH1 0xFF AND PUSH2 0x3BA1 JUMPI PUSH8 0x16345785D8A0000 SELFBALANCE LT ISZERO PUSH2 0x3B92 JUMPI PUSH1 0x40 MLOAD PUSH3 0x461BCD PUSH1 0xE5 SHL DUP2 MSTORE PUSH1 0x20 PUSH1 0x4 DUP3 ADD MSTORE PUSH1 0x10 PUSH1 0x24 DUP3 ADD MSTORE PUSH16 0x216761734C696D697420626F756E6365 PUSH1 0x80 SHL PUSH1 0x44 DUP3 ADD MSTORE PUSH1 0x64 ADD PUSH2 0xCA6 JUMP JUMPDEST PUSH2 0x3BA1 DUP6 DUP6 DUP9 PUSH2 0xFFFF AND PUSH2 0x34B0 JUMP JUMPDEST POP POP PUSH1 0x60 DUP6 ADD MLOAD PUSH1 0x8 DUP3 ADD DUP1 SLOAD PUSH1 0x80 SWAP1 SWAP8 ADD MLOAD PUSH1 0x1 PUSH1 0x1 PUSH1 0x60 SHL SUB SWAP1 DUP2 AND PUSH1 0x1 PUSH1 0x60 SHL MUL PUSH1 0x1 PUSH1 0x1 PUSH1 0xC0 SHL SUB NOT SWAP1 SWAP9 AND SWAP3 AND SWAP2 SWAP1 SWAP2 OR SWAP6 SWAP1 SWAP6 OR SWAP1 SWAP5 SSTORE POP POP POP PUSH1 0x9 ADD DUP1 SLOAD PUSH4 0xFF000000 NOT AND SWAP1 SSTORE POP POP POP POP JUMP JUMPDEST PUSH1 0x0 DUP1 SLOAD PUSH1 0x1 PUSH1 0x1 PUSH1 0xA0 SHL SUB DUP4 DUP2 AND PUSH1 0x1 PUSH1 0x1 PUSH1 0xA0 SHL SUB NOT DUP4 AND DUP2 OR DUP5 SSTORE PUSH1 0x40 MLOAD SWAP2 SWAP1 SWAP3 AND SWAP3 DUP4 SWAP2 PUSH32 0x8BE0079C531659141344CD1FD0A4F28419497F9722A3DAAFE3B4186F6B6457E0 SWAP2 SWAP1 LOG3 POP POP JUMP JUMPDEST PUSH1 0x60 DUP2 PUSH2 0x3C53 DUP2 PUSH1 0x1F PUSH2 0x55ED JUMP JUMPDEST LT ISZERO PUSH2 0x3C92 JUMPI PUSH1 0x40 MLOAD PUSH3 0x461BCD PUSH1 0xE5 SHL DUP2 MSTORE PUSH1 0x20 PUSH1 0x4 DUP3 ADD MSTORE PUSH1 0xE PUSH1 0x24 DUP3 ADD MSTORE PUSH14 0x736C6963655F6F766572666C6F77 PUSH1 0x90 SHL PUSH1 0x44 DUP3 ADD MSTORE PUSH1 0x64 ADD PUSH2 0xCA6 JUMP JUMPDEST PUSH2 0x3C9C DUP3 DUP5 PUSH2 0x55ED JUMP JUMPDEST DUP5 MLOAD LT ISZERO PUSH2 0x3CE0 JUMPI PUSH1 0x40 MLOAD PUSH3 0x461BCD PUSH1 0xE5 SHL DUP2 MSTORE PUSH1 0x20 PUSH1 0x4 DUP3 ADD MSTORE PUSH1 0x11 PUSH1 0x24 DUP3 ADD MSTORE PUSH17 0x736C6963655F6F75744F66426F756E6473 PUSH1 0x78 SHL PUSH1 0x44 DUP3 ADD MSTORE PUSH1 0x64 ADD PUSH2 0xCA6 JUMP JUMPDEST PUSH1 0x60 DUP3 ISZERO DUP1 ISZERO PUSH2 0x3CFF JUMPI PUSH1 0x40 MLOAD SWAP2 POP PUSH1 0x0 DUP3 MSTORE PUSH1 0x20 DUP3 ADD PUSH1 0x40 MSTORE PUSH2 0x3D49 JUMP JUMPDEST PUSH1 0x40 MLOAD SWAP2 POP PUSH1 0x1F DUP5 AND DUP1 ISZERO PUSH1 0x20 MUL DUP2 DUP5 ADD ADD DUP6 DUP2 ADD DUP8 DUP4 ISZERO PUSH1 0x20 MUL DUP5 DUP12 ADD ADD ADD JUMPDEST DUP2 DUP4 LT ISZERO PUSH2 0x3D38 JUMPI DUP1 MLOAD DUP4 MSTORE PUSH1 0x20 SWAP3 DUP4 ADD SWAP3 ADD PUSH2 0x3D20 JUMP JUMPDEST POP POP DUP6 DUP5 MSTORE PUSH1 0x1F ADD PUSH1 0x1F NOT AND PUSH1 0x40 MSTORE POP JUMPDEST POP SWAP5 SWAP4 POP POP POP POP JUMP JUMPDEST PUSH1 0x0 PUSH1 0x60 PUSH1 0x0 DUP1 PUSH1 0x0 DUP7 PUSH2 0xFFFF AND PUSH1 0x1 PUSH1 0x1 PUSH1 0x40 SHL SUB DUP2 GT ISZERO PUSH2 0x3D77 JUMPI PUSH2 0x3D77 PUSH2 0x5037 JUMP JUMPDEST PUSH1 0x40 MLOAD SWAP1 DUP1 DUP3 MSTORE DUP1 PUSH1 0x1F ADD PUSH1 0x1F NOT AND PUSH1 0x20 ADD DUP3 ADD PUSH1 0x40 MSTORE DUP1 ISZERO PUSH2 0x3DA1 JUMPI PUSH1 0x20 DUP3 ADD DUP2 DUP1 CALLDATASIZE DUP4 CALLDATACOPY ADD SWAP1 POP JUMPDEST POP SWAP1 POP PUSH1 0x0 DUP1 DUP8 MLOAD PUSH1 0x20 DUP10 ADD PUSH1 0x0 DUP14 DUP14 CALL SWAP2 POP RETURNDATASIZE SWAP3 POP DUP7 DUP4 GT ISZERO PUSH2 0x3DC3 JUMPI DUP7 SWAP3 POP JUMPDEST DUP3 DUP2 MSTORE DUP3 PUSH1 0x0 PUSH1 0x20 DUP4 ADD RETURNDATACOPY SWAP1 SWAP9 SWAP1 SWAP8 POP SWAP6 POP POP POP POP POP POP JUMP JUMPDEST DUP2 DUP1 MLOAD SWAP1 PUSH1 0x20 ADD KECCAK256 PUSH1 0x5 PUSH1 0x0 DUP8 PUSH2 0xFFFF AND PUSH2 0xFFFF AND DUP2 MSTORE PUSH1 0x20 ADD SWAP1 DUP2 MSTORE PUSH1 0x20 ADD PUSH1 0x0 KECCAK256 DUP6 PUSH1 0x40 MLOAD PUSH2 0x3E0D SWAP2 SWAP1 PUSH2 0x5A10 JUMP JUMPDEST SWAP1 DUP2 MSTORE PUSH1 0x40 DUP1 MLOAD SWAP2 DUP3 SWAP1 SUB PUSH1 0x20 SWAP1 DUP2 ADD DUP4 KECCAK256 PUSH1 0x1 PUSH1 0x1 PUSH1 0x40 SHL SUB DUP9 AND PUSH1 0x0 SWAP1 DUP2 MSTORE SWAP2 MSTORE KECCAK256 SWAP2 SWAP1 SWAP2 SSTORE PUSH32 0xE183F33DE2837795525B4792CA4CD60535BD77C53B7E7030060BFCF5734D6B0C SWAP1 PUSH2 0x3E6A SWAP1 DUP8 SWAP1 DUP8 SWAP1 DUP8 SWAP1 DUP8 SWAP1 DUP8 SWAP1 PUSH2 0x5BF1 JUMP JUMPDEST PUSH1 0x40 MLOAD DUP1 SWAP2 SUB SWAP1 LOG1 POP POP POP POP POP JUMP JUMPDEST PUSH2 0xFFFF DUP7 AND PUSH1 0x0 SWAP1 DUP2 MSTORE PUSH1 0x1 PUSH1 0x20 MSTORE PUSH1 0x40 DUP2 KECCAK256 DUP1 SLOAD PUSH2 0x3E97 SWAP1 PUSH2 0x53F9 JUMP JUMPDEST DUP1 PUSH1 0x1F ADD PUSH1 0x20 DUP1 SWAP2 DIV MUL PUSH1 0x20 ADD PUSH1 0x40 MLOAD SWAP1 DUP2 ADD PUSH1 0x40 MSTORE DUP1 SWAP3 SWAP2 SWAP1 DUP2 DUP2 MSTORE PUSH1 0x20 ADD DUP3 DUP1 SLOAD PUSH2 0x3EC3 SWAP1 PUSH2 0x53F9 JUMP JUMPDEST DUP1 ISZERO PUSH2 0x3F10 JUMPI DUP1 PUSH1 0x1F LT PUSH2 0x3EE5 JUMPI PUSH2 0x100 DUP1 DUP4 SLOAD DIV MUL DUP4 MSTORE SWAP2 PUSH1 0x20 ADD SWAP2 PUSH2 0x3F10 JUMP JUMPDEST DUP3 ADD SWAP2 SWAP1 PUSH1 0x0 MSTORE PUSH1 0x20 PUSH1 0x0 KECCAK256 SWAP1 JUMPDEST DUP2 SLOAD DUP2 MSTORE SWAP1 PUSH1 0x1 ADD SWAP1 PUSH1 0x20 ADD DUP1 DUP4 GT PUSH2 0x3EF3 JUMPI DUP3 SWAP1 SUB PUSH1 0x1F AND DUP3 ADD SWAP2 JUMPDEST POP POP POP POP POP SWAP1 POP DUP1 MLOAD PUSH1 0x0 SUB PUSH2 0x3F81 JUMPI PUSH1 0x40 MLOAD PUSH3 0x461BCD PUSH1 0xE5 SHL DUP2 MSTORE PUSH1 0x20 PUSH1 0x4 DUP3 ADD MSTORE PUSH1 0x30 PUSH1 0x24 DUP3 ADD MSTORE PUSH32 0x4C7A4170703A2064657374696E6174696F6E20636861696E206973206E6F7420 PUSH1 0x44 DUP3 ADD MSTORE PUSH16 0x61207472757374656420736F75726365 PUSH1 0x80 SHL PUSH1 0x64 DUP3 ADD MSTORE PUSH1 0x84 ADD PUSH2 0xCA6 JUMP JUMPDEST PUSH2 0x3F8C DUP8 DUP8 MLOAD PUSH2 0x4B77 JUMP JUMPDEST PUSH1 0x40 MLOAD PUSH3 0xC58031 PUSH1 0xE8 SHL DUP2 MSTORE PUSH1 0x1 PUSH1 0x1 PUSH1 0xA0 SHL SUB PUSH32 0x0 AND SWAP1 PUSH4 0xC5803100 SWAP1 DUP5 SWAP1 PUSH2 0x3FE3 SWAP1 DUP12 SWAP1 DUP7 SWAP1 DUP13 SWAP1 DUP13 SWAP1 DUP13 SWAP1 DUP13 SWAP1 PUSH1 0x4 ADD PUSH2 0x5C4F JUMP JUMPDEST PUSH1 0x0 PUSH1 0x40 MLOAD DUP1 DUP4 SUB DUP2 DUP6 DUP9 DUP1 EXTCODESIZE ISZERO DUP1 ISZERO PUSH2 0x3FFC JUMPI PUSH1 0x0 DUP1 REVERT JUMPDEST POP GAS CALL ISZERO DUP1 ISZERO PUSH2 0x4010 JUMPI RETURNDATASIZE PUSH1 0x0 DUP1 RETURNDATACOPY RETURNDATASIZE PUSH1 0x0 REVERT JUMPDEST POP POP POP POP POP POP POP POP POP POP POP POP JUMP JUMPDEST PUSH1 0x0 DUP3 DUP2 MSTORE PUSH1 0x6 PUSH1 0x20 SWAP1 DUP2 MSTORE PUSH1 0x40 DUP1 DUP4 KECCAK256 PUSH1 0x1 PUSH1 0x1 PUSH1 0xA0 SHL SUB DUP1 DUP10 AND DUP6 MSTORE SWAP1 DUP4 MSTORE DUP2 DUP5 KECCAK256 SWAP1 DUP8 AND DUP5 MSTORE SWAP1 SWAP2 MSTORE SWAP1 KECCAK256 PUSH1 0x4 DUP2 ADD SLOAD PUSH1 0x3 DUP3 ADD DUP1 SLOAD PUSH3 0xFFFFFF PUSH1 0x1 PUSH1 0x30 SHL DUP5 DIV DUP2 AND SWAP5 PUSH1 0x1 PUSH1 0x48 SHL SWAP1 SWAP5 DIV AND SWAP3 SWAP1 DUP3 SWAP1 DUP7 SWAP1 DUP2 LT PUSH2 0x4082 JUMPI PUSH2 0x4082 PUSH2 0x5489 JUMP JUMPDEST PUSH1 0x0 SWAP2 DUP3 MSTORE PUSH1 0x20 DUP3 KECCAK256 PUSH1 0x2 SWAP1 SWAP2 MUL ADD SLOAD PUSH1 0x7 DUP4 ADD DUP1 SLOAD PUSH1 0x1 PUSH1 0x1 PUSH1 0x60 SHL SUB PUSH1 0x1 PUSH1 0xA0 SHL SWAP1 SWAP4 DIV DUP4 AND SWAP4 SWAP2 SWAP3 PUSH2 0x40B9 SWAP2 DUP6 SWAP2 AND PUSH2 0x54BB JUMP JUMPDEST SWAP3 POP PUSH2 0x100 EXP DUP2 SLOAD DUP2 PUSH1 0x1 PUSH1 0x1 PUSH1 0x60 SHL SUB MUL NOT AND SWAP1 DUP4 PUSH1 0x1 PUSH1 0x1 PUSH1 0x60 SHL SUB AND MUL OR SWAP1 SSTORE POP PUSH1 0x1 DUP2 PUSH1 0x9 ADD PUSH1 0x4 DUP3 DUP3 DUP3 SWAP1 SLOAD SWAP1 PUSH2 0x100 EXP SWAP1 DIV PUSH3 0xFFFFFF AND PUSH2 0x4100 SWAP2 SWAP1 PUSH2 0x5571 JUMP JUMPDEST SWAP3 POP PUSH2 0x100 EXP DUP2 SLOAD DUP2 PUSH3 0xFFFFFF MUL NOT AND SWAP1 DUP4 PUSH3 0xFFFFFF AND MUL OR SWAP1 SSTORE POP DUP4 PUSH3 0xFFFFFF AND DUP6 SUB PUSH2 0x417B JUMPI DUP2 DUP6 DUP2 SLOAD DUP2 LT PUSH2 0x413A JUMPI PUSH2 0x413A PUSH2 0x5489 JUMP JUMPDEST PUSH1 0x0 SWAP2 DUP3 MSTORE PUSH1 0x20 SWAP1 SWAP2 KECCAK256 PUSH1 0x2 SWAP1 SWAP2 MUL ADD PUSH1 0x1 ADD SLOAD PUSH1 0x4 DUP3 ADD DUP1 SLOAD PUSH3 0xFFFFFF PUSH1 0x30 SHL NOT AND PUSH4 0x1000000 SWAP1 SWAP3 DIV PUSH3 0xFFFFFF AND PUSH1 0x1 PUSH1 0x30 SHL MUL SWAP2 SWAP1 SWAP2 OR SWAP1 SSTORE PUSH2 0x43BC JUMP JUMPDEST DUP3 PUSH3 0xFFFFFF AND DUP6 SUB PUSH2 0x4273 JUMPI DUP2 DUP6 DUP2 SLOAD DUP2 LT PUSH2 0x4199 JUMPI PUSH2 0x4199 PUSH2 0x5489 JUMP JUMPDEST SWAP1 PUSH1 0x0 MSTORE PUSH1 0x20 PUSH1 0x0 KECCAK256 SWAP1 PUSH1 0x2 MUL ADD PUSH1 0x1 ADD PUSH1 0x3 SWAP1 SLOAD SWAP1 PUSH2 0x100 EXP SWAP1 DIV PUSH3 0xFFFFFF AND DUP3 DUP4 DUP8 DUP2 SLOAD DUP2 LT PUSH2 0x41CD JUMPI PUSH2 0x41CD PUSH2 0x5489 JUMP JUMPDEST PUSH1 0x0 SWAP2 DUP3 MSTORE PUSH1 0x20 SWAP1 SWAP2 KECCAK256 PUSH1 0x1 PUSH1 0x2 SWAP1 SWAP3 MUL ADD ADD SLOAD DUP2 SLOAD PUSH3 0xFFFFFF SWAP1 SWAP2 AND SWAP1 DUP2 LT PUSH2 0x41F9 JUMPI PUSH2 0x41F9 PUSH2 0x5489 JUMP JUMPDEST SWAP1 PUSH1 0x0 MSTORE PUSH1 0x20 PUSH1 0x0 KECCAK256 SWAP1 PUSH1 0x2 MUL ADD PUSH1 0x1 ADD PUSH1 0x3 PUSH2 0x100 EXP DUP2 SLOAD DUP2 PUSH3 0xFFFFFF MUL NOT AND SWAP1 DUP4 PUSH3 0xFFFFFF AND MUL OR SWAP1 SSTORE POP DUP2 DUP6 DUP2 SLOAD DUP2 LT PUSH2 0x4238 JUMPI PUSH2 0x4238 PUSH2 0x5489 JUMP JUMPDEST PUSH1 0x0 SWAP2 DUP3 MSTORE PUSH1 0x20 SWAP1 SWAP2 KECCAK256 PUSH1 0x2 SWAP1 SWAP2 MUL ADD PUSH1 0x1 ADD SLOAD PUSH1 0x4 DUP3 ADD DUP1 SLOAD PUSH3 0xFFFFFF PUSH1 0x48 SHL NOT AND PUSH3 0xFFFFFF SWAP1 SWAP3 AND PUSH1 0x1 PUSH1 0x48 SHL MUL SWAP2 SWAP1 SWAP2 OR SWAP1 SSTORE PUSH2 0x43BC JUMP JUMPDEST DUP2 DUP6 DUP2 SLOAD DUP2 LT PUSH2 0x4285 JUMPI PUSH2 0x4285 PUSH2 0x5489 JUMP JUMPDEST SWAP1 PUSH1 0x0 MSTORE PUSH1 0x20 PUSH1 0x0 KECCAK256 SWAP1 PUSH1 0x2 MUL ADD PUSH1 0x1 ADD PUSH1 0x3 SWAP1 SLOAD SWAP1 PUSH2 0x100 EXP SWAP1 DIV PUSH3 0xFFFFFF AND DUP3 DUP4 DUP8 DUP2 SLOAD DUP2 LT PUSH2 0x42B9 JUMPI PUSH2 0x42B9 PUSH2 0x5489 JUMP JUMPDEST PUSH1 0x0 SWAP2 DUP3 MSTORE PUSH1 0x20 SWAP1 SWAP2 KECCAK256 PUSH1 0x1 PUSH1 0x2 SWAP1 SWAP3 MUL ADD ADD SLOAD DUP2 SLOAD PUSH3 0xFFFFFF SWAP1 SWAP2 AND SWAP1 DUP2 LT PUSH2 0x42E5 JUMPI PUSH2 0x42E5 PUSH2 0x5489 JUMP JUMPDEST SWAP1 PUSH1 0x0 MSTORE PUSH1 0x20 PUSH1 0x0 KECCAK256 SWAP1 PUSH1 0x2 MUL ADD PUSH1 0x1 ADD PUSH1 0x3 PUSH2 0x100 EXP DUP2 SLOAD DUP2 PUSH3 0xFFFFFF MUL NOT AND SWAP1 DUP4 PUSH3 0xFFFFFF AND MUL OR SWAP1 SSTORE POP DUP2 DUP6 DUP2 SLOAD DUP2 LT PUSH2 0x4324 JUMPI PUSH2 0x4324 PUSH2 0x5489 JUMP JUMPDEST SWAP1 PUSH1 0x0 MSTORE PUSH1 0x20 PUSH1 0x0 KECCAK256 SWAP1 PUSH1 0x2 MUL ADD PUSH1 0x1 ADD PUSH1 0x0 SWAP1 SLOAD SWAP1 PUSH2 0x100 EXP SWAP1 DIV PUSH3 0xFFFFFF AND DUP3 DUP4 DUP8 DUP2 SLOAD DUP2 LT PUSH2 0x4358 JUMPI PUSH2 0x4358 PUSH2 0x5489 JUMP JUMPDEST SWAP1 PUSH1 0x0 MSTORE PUSH1 0x20 PUSH1 0x0 KECCAK256 SWAP1 PUSH1 0x2 MUL ADD PUSH1 0x1 ADD PUSH1 0x3 SWAP1 SLOAD SWAP1 PUSH2 0x100 EXP SWAP1 DIV PUSH3 0xFFFFFF AND PUSH3 0xFFFFFF AND DUP2 SLOAD DUP2 LT PUSH2 0x438E JUMPI PUSH2 0x438E PUSH2 0x5489 JUMP JUMPDEST SWAP1 PUSH1 0x0 MSTORE PUSH1 0x20 PUSH1 0x0 KECCAK256 SWAP1 PUSH1 0x2 MUL ADD PUSH1 0x1 ADD PUSH1 0x0 PUSH2 0x100 EXP DUP2 SLOAD DUP2 PUSH3 0xFFFFFF MUL NOT AND SWAP1 DUP4 PUSH3 0xFFFFFF AND MUL OR SWAP1 SSTORE POP JUMPDEST PUSH1 0x0 DUP3 DUP7 DUP2 SLOAD DUP2 LT PUSH2 0x43D0 JUMPI PUSH2 0x43D0 PUSH2 0x5489 JUMP JUMPDEST SWAP1 PUSH1 0x0 MSTORE PUSH1 0x20 PUSH1 0x0 KECCAK256 SWAP1 PUSH1 0x2 MUL ADD PUSH1 0x0 ADD PUSH1 0x14 PUSH2 0x100 EXP DUP2 SLOAD DUP2 PUSH1 0x1 PUSH1 0x1 PUSH1 0x60 SHL SUB MUL NOT AND SWAP1 DUP4 PUSH1 0x1 PUSH1 0x1 PUSH1 0x60 SHL SUB AND MUL OR SWAP1 SSTORE POP POP POP POP POP POP POP POP POP JUMP JUMPDEST DUP2 MLOAD PUSH1 0x1 JUMPDEST DUP2 DUP2 GT PUSH2 0x1040 JUMPI PUSH1 0x0 DUP5 PUSH2 0x4428 DUP4 DUP6 PUSH2 0x5459 JUMP JUMPDEST DUP2 MLOAD DUP2 LT PUSH2 0x4438 JUMPI PUSH2 0x4438 PUSH2 0x5489 JUMP JUMPDEST PUSH1 0x20 MUL PUSH1 0x20 ADD ADD MLOAD SWAP1 POP DUP4 PUSH1 0x1 PUSH1 0x1 PUSH1 0x60 SHL SUB AND PUSH1 0x0 SUB PUSH2 0x4474 JUMPI PUSH2 0x446F DUP7 DUP3 PUSH1 0x0 ADD MLOAD DUP4 PUSH1 0x20 ADD MLOAD PUSH1 0x1 PUSH1 0x1 PUSH1 0x60 SHL SUB AND PUSH2 0x395D JUMP JUMPDEST PUSH2 0x44D4 JUMP JUMPDEST DUP1 PUSH1 0x20 ADD MLOAD PUSH1 0x1 PUSH1 0x1 PUSH1 0x60 SHL SUB AND DUP5 PUSH1 0x1 PUSH1 0x1 PUSH1 0x60 SHL SUB AND GT ISZERO PUSH2 0x44A8 JUMPI PUSH1 0x20 DUP2 ADD MLOAD PUSH2 0x44A1 SWAP1 DUP6 PUSH2 0x54BB JUMP JUMPDEST SWAP4 POP PUSH2 0x44D4 JUMP JUMPDEST PUSH2 0x44CF DUP7 DUP3 PUSH1 0x0 ADD MLOAD DUP7 DUP5 PUSH1 0x20 ADD MLOAD PUSH2 0x44C1 SWAP2 SWAP1 PUSH2 0x54BB JUMP JUMPDEST PUSH1 0x1 PUSH1 0x1 PUSH1 0x60 SHL SUB AND PUSH2 0x395D JUMP JUMPDEST PUSH1 0x0 SWAP4 POP JUMPDEST POP DUP1 PUSH2 0x44DF DUP2 PUSH2 0x55D4 JUMP JUMPDEST SWAP2 POP POP PUSH2 0x4414 JUMP JUMPDEST PUSH1 0x0 DUP3 DUP2 MSTORE PUSH1 0x6 PUSH1 0x20 SWAP1 DUP2 MSTORE PUSH1 0x40 DUP1 DUP4 KECCAK256 PUSH1 0x1 PUSH1 0x1 PUSH1 0xA0 SHL SUB DUP1 DUP10 AND DUP6 MSTORE SWAP1 DUP4 MSTORE DUP2 DUP5 KECCAK256 SWAP1 DUP8 AND DUP5 MSTORE SWAP1 SWAP2 MSTORE DUP2 KECCAK256 PUSH1 0x9 DUP2 ADD SLOAD PUSH1 0x5 DUP3 ADD SLOAD PUSH1 0x2 DUP4 ADD DUP1 SLOAD SWAP4 SWAP5 SWAP1 SWAP4 PUSH3 0xFFFFFF SWAP4 DUP5 AND SWAP4 PUSH1 0x1 PUSH1 0x60 SHL SWAP1 SWAP4 DIV SWAP1 SWAP3 AND SWAP2 DUP3 SWAP2 DUP3 SWAP2 DUP2 SWAP1 DUP8 SWAP1 DUP5 SWAP1 DUP2 LT PUSH2 0x4555 JUMPI PUSH2 0x4555 PUSH2 0x5489 JUMP JUMPDEST PUSH1 0x0 SWAP2 DUP3 MSTORE PUSH1 0x20 DUP3 KECCAK256 PUSH1 0x4 DUP12 ADD SLOAD PUSH1 0x2 SWAP1 SWAP3 MUL ADD SWAP3 POP PUSH1 0x1 PUSH1 0x1 PUSH1 0x60 SHL SUB PUSH1 0x1 PUSH1 0x60 SHL SWAP1 SWAP2 DIV DUP2 AND SWAP2 SWAP1 DUP12 SWAP1 DUP3 SWAP1 DUP3 AND ISZERO PUSH2 0x475A JUMPI PUSH1 0x5 DUP13 ADD SLOAD PUSH1 0x1 PUSH1 0x1 PUSH1 0x60 SHL SUB DUP6 DUP2 AND SWAP2 AND EQ PUSH2 0x464C JUMPI DUP4 PUSH1 0x1 PUSH1 0x1 PUSH1 0x60 SHL SUB AND DUP3 PUSH1 0x1 PUSH1 0x1 PUSH1 0x60 SHL SUB AND GT ISZERO PUSH2 0x45F1 JUMPI DUP11 DUP10 PUSH3 0xFFFFFF AND DUP2 SLOAD DUP2 LT PUSH2 0x45D2 JUMPI PUSH2 0x45D2 PUSH2 0x5489 JUMP JUMPDEST PUSH1 0x0 SWAP2 DUP3 MSTORE PUSH1 0x20 SWAP1 SWAP2 KECCAK256 PUSH1 0x1 PUSH1 0x2 SWAP1 SWAP3 MUL ADD ADD SLOAD PUSH3 0xFFFFFF AND SWAP9 POP DUP9 SWAP7 POP JUMPDEST DUP4 PUSH1 0x1 PUSH1 0x1 PUSH1 0x60 SHL SUB AND DUP3 PUSH1 0x1 PUSH1 0x1 PUSH1 0x60 SHL SUB AND LT PUSH2 0x4610 JUMPI DUP4 PUSH2 0x4612 JUMP JUMPDEST DUP13 JUMPDEST SWAP3 POP PUSH2 0x461E DUP4 DUP4 PUSH2 0x54BB JUMP JUMPDEST SWAP2 POP DUP11 DUP10 PUSH3 0xFFFFFF AND DUP2 SLOAD DUP2 LT PUSH2 0x4637 JUMPI PUSH2 0x4637 PUSH2 0x5489 JUMP JUMPDEST SWAP1 PUSH1 0x0 MSTORE PUSH1 0x20 PUSH1 0x0 KECCAK256 SWAP1 PUSH1 0x2 MUL ADD SWAP5 POP PUSH1 0x1 SWAP6 POP JUMPDEST DUP5 SLOAD PUSH1 0x1 PUSH1 0x1 PUSH1 0x60 SHL SUB PUSH1 0x1 PUSH1 0xA0 SHL SWAP1 SWAP2 DIV DUP2 AND SWAP1 DUP4 AND GT ISZERO PUSH2 0x4704 JUMPI POP PUSH1 0x1 DUP5 DUP2 ADD DUP1 SLOAD PUSH3 0xFFFFFF PUSH1 0x30 SHL NOT AND PUSH1 0x1 PUSH1 0x30 SHL PUSH3 0xFFFFFF DUP14 AND MUL OR SWAP1 SSTORE DUP5 SLOAD PUSH2 0x46A5 SWAP1 PUSH1 0x1 PUSH1 0xA0 SHL SWAP1 DIV PUSH1 0x1 PUSH1 0x1 PUSH1 0x60 SHL SUB AND DUP4 PUSH2 0x54BB JUMP JUMPDEST SWAP2 POP DUP11 DUP10 PUSH3 0xFFFFFF AND DUP2 SLOAD DUP2 LT PUSH2 0x46BE JUMPI PUSH2 0x46BE PUSH2 0x5489 JUMP JUMPDEST PUSH1 0x0 SWAP2 DUP3 MSTORE PUSH1 0x20 SWAP1 SWAP2 KECCAK256 PUSH1 0x1 PUSH1 0x2 SWAP1 SWAP3 MUL ADD ADD SLOAD DUP12 SLOAD PUSH3 0xFFFFFF SWAP1 SWAP2 AND SWAP10 POP DUP12 SWAP1 DUP11 SWAP1 DUP2 LT PUSH2 0x46EF JUMPI PUSH2 0x46EF PUSH2 0x5489 JUMP JUMPDEST SWAP1 PUSH1 0x0 MSTORE PUSH1 0x20 PUSH1 0x0 KECCAK256 SWAP1 PUSH1 0x2 MUL ADD SWAP5 POP PUSH2 0x464C JUMP JUMPDEST PUSH1 0x1 PUSH1 0x1 PUSH1 0x60 SHL SUB DUP3 AND ISZERO PUSH2 0x475A JUMPI POP DUP4 SLOAD PUSH1 0x1 PUSH1 0x1 PUSH1 0x60 SHL SUB SWAP1 SWAP2 AND PUSH1 0x1 PUSH1 0xA0 SHL MUL PUSH1 0x1 PUSH1 0x1 PUSH1 0xA0 SHL SUB SWAP1 SWAP2 AND OR DUP4 SSTORE PUSH1 0x1 DUP4 DUP2 ADD DUP1 SLOAD PUSH3 0xFFFFFF DUP12 AND PUSH1 0x1 PUSH1 0x30 SHL MUL PUSH3 0xFFFFFF PUSH1 0x30 SHL NOT SWAP1 SWAP2 AND OR SWAP1 SSTORE PUSH1 0x0 SWAP1 JUMPDEST DUP1 DUP1 ISZERO PUSH2 0x479D JUMPI POP DUP11 SLOAD DUP12 PUSH3 0xFFFFFF DUP10 AND DUP3 DUP2 LT PUSH2 0x477A JUMPI PUSH2 0x477A PUSH2 0x5489 JUMP JUMPDEST PUSH1 0x0 SWAP2 DUP3 MSTORE PUSH1 0x20 SWAP1 SWAP2 KECCAK256 PUSH1 0x2 SWAP1 SWAP2 MUL ADD PUSH1 0x1 ADD SLOAD PUSH4 0x1000000 SWAP1 DIV PUSH3 0xFFFFFF AND EQ ISZERO JUMPDEST ISZERO PUSH2 0x4923 JUMPI DUP7 PUSH3 0xFFFFFF AND DUP9 PUSH3 0xFFFFFF AND SUB PUSH2 0x4804 JUMPI DUP11 DUP9 PUSH3 0xFFFFFF AND DUP2 SLOAD DUP2 LT PUSH2 0x47CA JUMPI PUSH2 0x47CA PUSH2 0x5489 JUMP JUMPDEST PUSH1 0x0 SWAP2 DUP3 MSTORE PUSH1 0x20 SWAP1 SWAP2 KECCAK256 PUSH1 0x2 SWAP1 SWAP2 MUL ADD PUSH1 0x1 ADD SLOAD PUSH1 0x4 DUP14 ADD DUP1 SLOAD PUSH4 0x1000000 SWAP1 SWAP3 DIV PUSH3 0xFFFFFF AND PUSH3 0xFFFFFF NOT SWAP1 SWAP3 AND SWAP2 SWAP1 SWAP2 OR SWAP1 SSTORE PUSH2 0x481A JUMP JUMPDEST PUSH1 0x4 DUP13 ADD DUP1 SLOAD PUSH3 0xFFFFFF NOT AND PUSH3 0xFFFFFF DUP11 AND OR SWAP1 SSTORE JUMPDEST PUSH1 0x4 DUP13 ADD SLOAD DUP12 SLOAD DUP11 SWAP2 DUP14 SWAP2 PUSH4 0x1000000 SWAP1 SWAP2 DIV PUSH3 0xFFFFFF AND SWAP1 DUP2 LT PUSH2 0x4841 JUMPI PUSH2 0x4841 PUSH2 0x5489 JUMP JUMPDEST SWAP1 PUSH1 0x0 MSTORE PUSH1 0x20 PUSH1 0x0 KECCAK256 SWAP1 PUSH1 0x2 MUL ADD PUSH1 0x1 ADD PUSH1 0x3 PUSH2 0x100 EXP DUP2 SLOAD DUP2 PUSH3 0xFFFFFF MUL NOT AND SWAP1 DUP4 PUSH3 0xFFFFFF AND MUL OR SWAP1 SSTORE POP DUP12 PUSH1 0x4 ADD PUSH1 0x0 ADD PUSH1 0x3 SWAP1 SLOAD SWAP1 PUSH2 0x100 EXP SWAP1 DIV PUSH3 0xFFFFFF AND DUP12 DUP11 PUSH3 0xFFFFFF AND DUP2 SLOAD DUP2 LT PUSH2 0x489C JUMPI PUSH2 0x489C PUSH2 0x5489 JUMP JUMPDEST PUSH1 0x0 SWAP2 DUP3 MSTORE PUSH1 0x20 SWAP1 SWAP2 KECCAK256 PUSH1 0x2 SWAP1 SWAP2 MUL ADD PUSH1 0x1 ADD DUP1 SLOAD PUSH3 0xFFFFFF NOT AND PUSH3 0xFFFFFF SWAP3 DUP4 AND OR SWAP1 SSTORE DUP12 SLOAD SWAP1 DUP13 SWAP1 DUP10 AND DUP3 DUP2 LT PUSH2 0x48D7 JUMPI PUSH2 0x48D7 PUSH2 0x5489 JUMP JUMPDEST PUSH1 0x0 SWAP2 DUP3 MSTORE PUSH1 0x20 SWAP1 SWAP2 KECCAK256 PUSH1 0x1 PUSH1 0x2 SWAP1 SWAP3 MUL ADD ADD DUP1 SLOAD PUSH3 0xFFFFFF SWAP3 DUP4 AND PUSH4 0x1000000 SWAP1 DUP2 MUL PUSH6 0xFFFFFF000000 NOT SWAP3 DUP4 AND OR SWAP1 SWAP3 SSTORE PUSH1 0x4 DUP16 ADD DUP1 SLOAD SWAP4 DUP12 AND SWAP1 SWAP3 MUL SWAP3 AND SWAP2 SWAP1 SWAP2 OR SWAP1 SSTORE PUSH2 0x4939 JUMP JUMPDEST PUSH1 0x4 DUP13 ADD DUP1 SLOAD PUSH3 0xFFFFFF NOT AND PUSH3 0xFFFFFF DUP12 AND OR SWAP1 SSTORE JUMPDEST DUP6 ISZERO PUSH2 0x4B65 JUMPI PUSH1 0x0 PUSH1 0x40 MLOAD DUP1 PUSH1 0xC0 ADD PUSH1 0x40 MSTORE DUP1 DUP14 DUP12 PUSH3 0xFFFFFF AND DUP2 SLOAD DUP2 LT PUSH2 0x4963 JUMPI PUSH2 0x4963 PUSH2 0x5489 JUMP JUMPDEST SWAP1 PUSH1 0x0 MSTORE PUSH1 0x20 PUSH1 0x0 KECCAK256 SWAP1 PUSH1 0x2 MUL ADD PUSH1 0x0 ADD PUSH1 0x0 SWAP1 SLOAD SWAP1 PUSH2 0x100 EXP SWAP1 DIV PUSH1 0x1 PUSH1 0x1 PUSH1 0xA0 SHL SUB AND PUSH1 0x1 PUSH1 0x1 PUSH1 0xA0 SHL SUB AND DUP2 MSTORE PUSH1 0x20 ADD DUP6 PUSH1 0x1 PUSH1 0x1 PUSH1 0x60 SHL SUB AND DUP2 MSTORE PUSH1 0x20 ADD DUP15 PUSH1 0x4 ADD PUSH1 0x0 ADD PUSH1 0x3 SWAP1 SLOAD SWAP1 PUSH2 0x100 EXP SWAP1 DIV PUSH3 0xFFFFFF AND PUSH3 0xFFFFFF AND DUP2 MSTORE PUSH1 0x20 ADD DUP15 PUSH1 0x2 ADD DUP1 SLOAD SWAP1 POP PUSH1 0x1 PUSH2 0x49DA SWAP2 SWAP1 PUSH2 0x549F JUMP JUMPDEST PUSH3 0xFFFFFF AND DUP2 MSTORE PUSH1 0x20 ADD DUP15 PUSH1 0x9 ADD PUSH1 0x0 SWAP1 SLOAD SWAP1 PUSH2 0x100 EXP SWAP1 DIV PUSH3 0xFFFFFF AND PUSH3 0xFFFFFF AND DUP2 MSTORE PUSH1 0x20 ADD PUSH1 0x0 PUSH1 0x1 PUSH1 0x1 PUSH1 0x60 SHL SUB AND DUP2 MSTORE POP SWAP1 POP DUP13 PUSH1 0x2 ADD DUP1 SLOAD SWAP1 POP DUP14 PUSH1 0x4 ADD PUSH1 0x0 ADD PUSH1 0x3 PUSH2 0x100 EXP DUP2 SLOAD DUP2 PUSH3 0xFFFFFF MUL NOT AND SWAP1 DUP4 PUSH3 0xFFFFFF AND MUL OR SWAP1 SSTORE POP DUP13 PUSH1 0x2 ADD DUP2 SWAP1 DUP1 PUSH1 0x1 DUP2 SLOAD ADD DUP1 DUP3 SSTORE DUP1 SWAP2 POP POP PUSH1 0x1 SWAP1 SUB SWAP1 PUSH1 0x0 MSTORE PUSH1 0x20 PUSH1 0x0 KECCAK256 SWAP1 PUSH1 0x2 MUL ADD PUSH1 0x0 SWAP1 SWAP2 SWAP1 SWAP2 SWAP1 SWAP2 POP PUSH1 0x0 DUP3 ADD MLOAD DUP2 PUSH1 0x0 ADD PUSH1 0x0 PUSH2 0x100 EXP DUP2 SLOAD DUP2 PUSH1 0x1 PUSH1 0x1 PUSH1 0xA0 SHL SUB MUL NOT AND SWAP1 DUP4 PUSH1 0x1 PUSH1 0x1 PUSH1 0xA0 SHL SUB AND MUL OR SWAP1 SSTORE POP PUSH1 0x20 DUP3 ADD MLOAD DUP2 PUSH1 0x0 ADD PUSH1 0x14 PUSH2 0x100 EXP DUP2 SLOAD DUP2 PUSH1 0x1 PUSH1 0x1 PUSH1 0x60 SHL SUB MUL NOT AND SWAP1 DUP4 PUSH1 0x1 PUSH1 0x1 PUSH1 0x60 SHL SUB AND MUL OR SWAP1 SSTORE POP PUSH1 0x40 DUP3 ADD MLOAD DUP2 PUSH1 0x1 ADD PUSH1 0x0 PUSH2 0x100 EXP DUP2 SLOAD DUP2 PUSH3 0xFFFFFF MUL NOT AND SWAP1 DUP4 PUSH3 0xFFFFFF AND MUL OR SWAP1 SSTORE POP PUSH1 0x60 DUP3 ADD MLOAD DUP2 PUSH1 0x1 ADD PUSH1 0x3 PUSH2 0x100 EXP DUP2 SLOAD DUP2 PUSH3 0xFFFFFF MUL NOT AND SWAP1 DUP4 PUSH3 0xFFFFFF AND MUL OR SWAP1 SSTORE POP PUSH1 0x80 DUP3 ADD MLOAD DUP2 PUSH1 0x1 ADD PUSH1 0x6 PUSH2 0x100 EXP DUP2 SLOAD DUP2 PUSH3 0xFFFFFF MUL NOT AND SWAP1 DUP4 PUSH3 0xFFFFFF AND MUL OR SWAP1 SSTORE POP PUSH1 0xA0 DUP3 ADD MLOAD DUP2 PUSH1 0x1 ADD PUSH1 0x9 PUSH2 0x100 EXP DUP2 SLOAD DUP2 PUSH1 0x1 PUSH1 0x1 PUSH1 0x60 SHL SUB MUL NOT AND SWAP1 DUP4 PUSH1 0x1 PUSH1 0x1 PUSH1 0x60 SHL SUB AND MUL OR SWAP1 SSTORE POP POP POP POP JUMPDEST POP POP POP POP POP POP POP POP POP POP POP POP POP POP POP POP JUMP JUMPDEST PUSH2 0xFFFF DUP3 AND PUSH1 0x0 SWAP1 DUP2 MSTORE PUSH1 0x3 PUSH1 0x20 MSTORE PUSH1 0x40 DUP2 KECCAK256 SLOAD SWAP1 DUP2 SWAP1 SUB PUSH2 0x4B98 JUMPI POP PUSH2 0x2710 JUMPDEST DUP1 DUP3 GT ISZERO PUSH2 0x4BE8 JUMPI PUSH1 0x40 MLOAD PUSH3 0x461BCD PUSH1 0xE5 SHL DUP2 MSTORE PUSH1 0x20 PUSH1 0x4 DUP3 ADD DUP2 SWAP1 MSTORE PUSH1 0x24 DUP3 ADD MSTORE PUSH32 0x4C7A4170703A207061796C6F61642073697A6520697320746F6F206C61726765 PUSH1 0x44 DUP3 ADD MSTORE PUSH1 0x64 ADD PUSH2 0xCA6 JUMP JUMPDEST POP POP POP JUMP JUMPDEST PUSH2 0xFFFF DUP2 AND DUP2 EQ PUSH2 0x338C JUMPI PUSH1 0x0 DUP1 REVERT JUMPDEST PUSH1 0x0 DUP1 DUP4 PUSH1 0x1F DUP5 ADD SLT PUSH2 0x4C0F JUMPI PUSH1 0x0 DUP1 REVERT JUMPDEST POP DUP2 CALLDATALOAD PUSH1 0x1 PUSH1 0x1 PUSH1 0x40 SHL SUB DUP2 GT ISZERO PUSH2 0x4C26 JUMPI PUSH1 0x0 DUP1 REVERT JUMPDEST PUSH1 0x20 DUP4 ADD SWAP2 POP DUP4 PUSH1 0x20 DUP3 DUP6 ADD ADD GT ISZERO PUSH2 0x4C3E JUMPI PUSH1 0x0 DUP1 REVERT JUMPDEST SWAP3 POP SWAP3 SWAP1 POP JUMP JUMPDEST DUP1 CALLDATALOAD PUSH1 0x1 PUSH1 0x1 PUSH1 0x40 SHL SUB DUP2 AND DUP2 EQ PUSH2 0x4C5C JUMPI PUSH1 0x0 DUP1 REVERT JUMPDEST SWAP2 SWAP1 POP JUMP JUMPDEST PUSH1 0x0 DUP1 PUSH1 0x0 DUP1 PUSH1 0x0 DUP1 PUSH1 0x80 DUP8 DUP10 SUB SLT ISZERO PUSH2 0x4C7A JUMPI PUSH1 0x0 DUP1 REVERT JUMPDEST DUP7 CALLDATALOAD PUSH2 0x4C85 DUP2 PUSH2 0x4BED JUMP JUMPDEST SWAP6 POP PUSH1 0x20 DUP8 ADD CALLDATALOAD PUSH1 0x1 PUSH1 0x1 PUSH1 0x40 SHL SUB DUP1 DUP3 GT ISZERO PUSH2 0x4CA1 JUMPI PUSH1 0x0 DUP1 REVERT JUMPDEST PUSH2 0x4CAD DUP11 DUP4 DUP12 ADD PUSH2 0x4BFD JUMP JUMPDEST SWAP1 SWAP8 POP SWAP6 POP DUP6 SWAP2 POP PUSH2 0x4CC1 PUSH1 0x40 DUP11 ADD PUSH2 0x4C45 JUMP JUMPDEST SWAP5 POP PUSH1 0x60 DUP10 ADD CALLDATALOAD SWAP2 POP DUP1 DUP3 GT ISZERO PUSH2 0x4CD7 JUMPI PUSH1 0x0 DUP1 REVERT JUMPDEST POP PUSH2 0x4CE4 DUP10 DUP3 DUP11 ADD PUSH2 0x4BFD JUMP JUMPDEST SWAP8 SWAP11 SWAP7 SWAP10 POP SWAP5 SWAP8 POP SWAP3 SWAP6 SWAP4 SWAP5 SWAP3 POP POP POP JUMP JUMPDEST PUSH1 0x1 PUSH1 0x1 PUSH1 0xA0 SHL SUB DUP2 AND DUP2 EQ PUSH2 0x338C JUMPI PUSH1 0x0 DUP1 REVERT JUMPDEST PUSH1 0x0 DUP1 PUSH1 0x0 PUSH1 0x60 DUP5 DUP7 SUB SLT ISZERO PUSH2 0x4D20 JUMPI PUSH1 0x0 DUP1 REVERT JUMPDEST DUP4 CALLDATALOAD PUSH2 0x4D2B DUP2 PUSH2 0x4CF6 JUMP JUMPDEST SWAP3 POP PUSH1 0x20 DUP5 ADD CALLDATALOAD PUSH2 0x4D3B DUP2 PUSH2 0x4CF6 JUMP JUMPDEST SWAP3 SWAP6 SWAP3 SWAP5 POP POP POP PUSH1 0x40 SWAP2 SWAP1 SWAP2 ADD CALLDATALOAD SWAP1 JUMP JUMPDEST PUSH1 0x0 PUSH1 0x20 DUP3 DUP5 SUB SLT ISZERO PUSH2 0x4D5E JUMPI PUSH1 0x0 DUP1 REVERT JUMPDEST DUP2 CALLDATALOAD PUSH2 0x2685 DUP2 PUSH2 0x4BED JUMP JUMPDEST PUSH1 0x0 DUP1 PUSH1 0x40 DUP4 DUP6 SUB SLT ISZERO PUSH2 0x4D7C JUMPI PUSH1 0x0 DUP1 REVERT JUMPDEST DUP3 CALLDATALOAD PUSH2 0x4D87 DUP2 PUSH2 0x4BED JUMP JUMPDEST SWAP5 PUSH1 0x20 SWAP4 SWAP1 SWAP4 ADD CALLDATALOAD SWAP4 POP POP POP JUMP JUMPDEST PUSH3 0xFFFFFF DUP2 AND DUP2 EQ PUSH2 0x338C JUMPI PUSH1 0x0 DUP1 REVERT JUMPDEST PUSH1 0x0 DUP1 PUSH1 0x0 DUP1 PUSH1 0x80 DUP6 DUP8 SUB SLT ISZERO PUSH2 0x4DBC JUMPI PUSH1 0x0 DUP1 REVERT JUMPDEST DUP5 CALLDATALOAD PUSH2 0x4DC7 DUP2 PUSH2 0x4CF6 JUMP JUMPDEST SWAP4 POP PUSH1 0x20 DUP6 ADD CALLDATALOAD PUSH2 0x4DD7 DUP2 PUSH2 0x4CF6 JUMP JUMPDEST SWAP3 POP PUSH1 0x40 DUP6 ADD CALLDATALOAD SWAP2 POP PUSH1 0x60 DUP6 ADD CALLDATALOAD PUSH2 0x4DEE DUP2 PUSH2 0x4D95 JUMP JUMPDEST SWAP4 SWAP7 SWAP3 SWAP6 POP SWAP1 SWAP4 POP POP JUMP JUMPDEST PUSH1 0x1 PUSH1 0x1 PUSH1 0x60 SHL SUB DUP2 AND DUP2 EQ PUSH2 0x338C JUMPI PUSH1 0x0 DUP1 REVERT JUMPDEST PUSH1 0x0 DUP1 PUSH1 0x0 DUP1 PUSH1 0x80 DUP6 DUP8 SUB SLT ISZERO PUSH2 0x4E24 JUMPI PUSH1 0x0 DUP1 REVERT JUMPDEST DUP5 CALLDATALOAD PUSH2 0x4E2F DUP2 PUSH2 0x4CF6 JUMP JUMPDEST SWAP4 POP PUSH1 0x20 DUP6 ADD CALLDATALOAD PUSH2 0x4E3F DUP2 PUSH2 0x4CF6 JUMP JUMPDEST SWAP3 POP PUSH1 0x40 DUP6 ADD CALLDATALOAD SWAP2 POP PUSH1 0x60 DUP6 ADD CALLDATALOAD PUSH2 0x4DEE DUP2 PUSH2 0x4DF9 JUMP JUMPDEST PUSH1 0x40 DUP1 DUP3 MSTORE DUP4 MLOAD SWAP1 DUP3 ADD DUP2 SWAP1 MSTORE PUSH1 0x0 SWAP1 PUSH1 0x20 SWAP1 PUSH1 0x60 DUP5 ADD SWAP1 DUP3 DUP8 ADD DUP5 JUMPDEST DUP3 DUP2 LT ISZERO PUSH2 0x4EAF JUMPI DUP2 MLOAD DUP1 MLOAD PUSH1 0x1 PUSH1 0x1 PUSH1 0xA0 SHL SUB AND DUP6 MSTORE PUSH1 0x20 SWAP1 DUP2 ADD MLOAD PUSH1 0x1 PUSH1 0x1 PUSH1 0x60 SHL SUB AND SWAP1 DUP6 ADD MSTORE PUSH1 0x40 DUP5 ADD SWAP4 POP SWAP1 DUP5 ADD SWAP1 PUSH1 0x1 ADD PUSH2 0x4E73 JUMP JUMPDEST POP POP POP PUSH1 0x1 PUSH1 0x1 PUSH1 0x60 SHL SUB SWAP5 SWAP1 SWAP5 AND SWAP3 ADD SWAP2 SWAP1 SWAP2 MSTORE POP SWAP2 SWAP1 POP JUMP JUMPDEST PUSH1 0x0 DUP1 PUSH1 0x0 DUP1 PUSH1 0x0 PUSH1 0xA0 DUP7 DUP9 SUB SLT ISZERO PUSH2 0x4EE2 JUMPI PUSH1 0x0 DUP1 REVERT JUMPDEST DUP6 CALLDATALOAD PUSH2 0x4EED DUP2 PUSH2 0x4DF9 JUMP JUMPDEST SWAP5 POP PUSH1 0x20 DUP7 ADD CALLDATALOAD PUSH2 0x4EFD DUP2 PUSH2 0x4DF9 JUMP JUMPDEST SWAP4 POP PUSH1 0x40 DUP7 ADD CALLDATALOAD PUSH2 0x4F0D DUP2 PUSH2 0x4DF9 JUMP JUMPDEST SWAP3 POP PUSH1 0x60 DUP7 ADD CALLDATALOAD PUSH2 0x4F1D DUP2 PUSH2 0x4DF9 JUMP JUMPDEST SWAP2 POP PUSH1 0x80 DUP7 ADD CALLDATALOAD PUSH2 0x4F2D DUP2 PUSH2 0x4DF9 JUMP JUMPDEST DUP1 SWAP2 POP POP SWAP3 SWAP6 POP SWAP3 SWAP6 SWAP1 SWAP4 POP JUMP JUMPDEST PUSH1 0x0 DUP1 PUSH1 0x0 PUSH1 0x40 DUP5 DUP7 SUB SLT ISZERO PUSH2 0x4F50 JUMPI PUSH1 0x0 DUP1 REVERT JUMPDEST DUP4 CALLDATALOAD PUSH2 0x4F5B DUP2 PUSH2 0x4BED JUMP JUMPDEST SWAP3 POP PUSH1 0x20 DUP5 ADD CALLDATALOAD PUSH1 0x1 PUSH1 0x1 PUSH1 0x40 SHL SUB DUP2 GT ISZERO PUSH2 0x4F76 JUMPI PUSH1 0x0 DUP1 REVERT JUMPDEST PUSH2 0x4F82 DUP7 DUP3 DUP8 ADD PUSH2 0x4BFD JUMP JUMPDEST SWAP5 SWAP8 SWAP1 SWAP7 POP SWAP4 SWAP5 POP POP POP POP JUMP JUMPDEST PUSH1 0x20 DUP1 DUP3 MSTORE DUP3 MLOAD DUP3 DUP3 ADD DUP2 SWAP1 MSTORE PUSH1 0x0 SWAP2 SWAP1 PUSH1 0x40 SWAP1 DUP2 DUP6 ADD SWAP1 DUP7 DUP5 ADD DUP6 JUMPDEST DUP3 DUP2 LT ISZERO PUSH2 0x502A JUMPI DUP2 MLOAD DUP1 MLOAD PUSH3 0xFFFFFF SWAP1 DUP2 AND DUP7 MSTORE DUP8 DUP3 ADD MLOAD PUSH1 0x1 PUSH1 0x1 PUSH1 0xA0 SHL SUB AND DUP9 DUP8 ADD MSTORE DUP7 DUP3 ADD MLOAD PUSH1 0x1 PUSH1 0x1 PUSH1 0x60 SHL SUB SWAP1 DUP2 AND DUP9 DUP9 ADD MSTORE PUSH1 0x60 DUP1 DUP5 ADD MLOAD DUP4 AND SWAP1 DUP9 ADD MSTORE PUSH1 0x80 DUP1 DUP5 ADD MLOAD DUP4 AND SWAP1 DUP9 ADD MSTORE PUSH1 0xA0 DUP1 DUP5 ADD MLOAD SWAP1 SWAP3 AND SWAP2 DUP8 ADD SWAP2 SWAP1 SWAP2 MSTORE PUSH1 0xC0 SWAP2 DUP3 ADD MLOAD AND SWAP1 DUP6 ADD MSTORE PUSH1 0xE0 SWAP1 SWAP4 ADD SWAP3 SWAP1 DUP6 ADD SWAP1 PUSH1 0x1 ADD PUSH2 0x4FAC JUMP JUMPDEST POP SWAP2 SWAP8 SWAP7 POP POP POP POP POP POP POP JUMP JUMPDEST PUSH4 0x4E487B71 PUSH1 0xE0 SHL PUSH1 0x0 MSTORE PUSH1 0x41 PUSH1 0x4 MSTORE PUSH1 0x24 PUSH1 0x0 REVERT JUMPDEST PUSH1 0x40 DUP1 MLOAD SWAP1 DUP2 ADD PUSH1 0x1 PUSH1 0x1 PUSH1 0x40 SHL SUB DUP2 GT DUP3 DUP3 LT OR ISZERO PUSH2 0x506F JUMPI PUSH2 0x506F PUSH2 0x5037 JUMP JUMPDEST PUSH1 0x40 MSTORE SWAP1 JUMP JUMPDEST PUSH1 0x40 MLOAD PUSH2 0x100 DUP2 ADD PUSH1 0x1 PUSH1 0x1 PUSH1 0x40 SHL SUB DUP2 GT DUP3 DUP3 LT OR ISZERO PUSH2 0x506F JUMPI PUSH2 0x506F PUSH2 0x5037 JUMP JUMPDEST PUSH1 0x40 MLOAD PUSH1 0x1F DUP3 ADD PUSH1 0x1F NOT AND DUP2 ADD PUSH1 0x1 PUSH1 0x1 PUSH1 0x40 SHL SUB DUP2 GT DUP3 DUP3 LT OR ISZERO PUSH2 0x50C0 JUMPI PUSH2 0x50C0 PUSH2 0x5037 JUMP JUMPDEST PUSH1 0x40 MSTORE SWAP2 SWAP1 POP JUMP JUMPDEST PUSH1 0x0 PUSH1 0x1 PUSH1 0x1 PUSH1 0x40 SHL SUB DUP3 GT ISZERO PUSH2 0x50E1 JUMPI PUSH2 0x50E1 PUSH2 0x5037 JUMP JUMPDEST POP PUSH1 0x1F ADD PUSH1 0x1F NOT AND PUSH1 0x20 ADD SWAP1 JUMP JUMPDEST PUSH1 0x0 DUP1 PUSH1 0x0 PUSH1 0x60 DUP5 DUP7 SUB SLT ISZERO PUSH2 0x5104 JUMPI PUSH1 0x0 DUP1 REVERT JUMPDEST DUP4 CALLDATALOAD PUSH2 0x510F DUP2 PUSH2 0x4BED JUMP JUMPDEST SWAP3 POP PUSH1 0x20 DUP5 ADD CALLDATALOAD PUSH1 0x1 PUSH1 0x1 PUSH1 0x40 SHL SUB DUP2 GT ISZERO PUSH2 0x512A JUMPI PUSH1 0x0 DUP1 REVERT JUMPDEST DUP5 ADD PUSH1 0x1F DUP2 ADD DUP7 SGT PUSH2 0x513B JUMPI PUSH1 0x0 DUP1 REVERT JUMPDEST DUP1 CALLDATALOAD PUSH2 0x514E PUSH2 0x5149 DUP3 PUSH2 0x50C8 JUMP JUMPDEST PUSH2 0x5098 JUMP JUMPDEST DUP2 DUP2 MSTORE DUP8 PUSH1 0x20 DUP4 DUP6 ADD ADD GT ISZERO PUSH2 0x5163 JUMPI PUSH1 0x0 DUP1 REVERT JUMPDEST DUP2 PUSH1 0x20 DUP5 ADD PUSH1 0x20 DUP4 ADD CALLDATACOPY PUSH1 0x0 PUSH1 0x20 DUP4 DUP4 ADD ADD MSTORE DUP1 SWAP5 POP POP POP POP PUSH2 0x5188 PUSH1 0x40 DUP6 ADD PUSH2 0x4C45 JUMP JUMPDEST SWAP1 POP SWAP3 POP SWAP3 POP SWAP3 JUMP JUMPDEST PUSH1 0x0 JUMPDEST DUP4 DUP2 LT ISZERO PUSH2 0x51AC JUMPI DUP2 DUP2 ADD MLOAD DUP4 DUP3 ADD MSTORE PUSH1 0x20 ADD PUSH2 0x5194 JUMP JUMPDEST POP POP PUSH1 0x0 SWAP2 ADD MSTORE JUMP JUMPDEST PUSH1 0x0 DUP2 MLOAD DUP1 DUP5 MSTORE PUSH2 0x51CD DUP2 PUSH1 0x20 DUP7 ADD PUSH1 0x20 DUP7 ADD PUSH2 0x5191 JUMP JUMPDEST PUSH1 0x1F ADD PUSH1 0x1F NOT AND SWAP3 SWAP1 SWAP3 ADD PUSH1 0x20 ADD SWAP3 SWAP2 POP POP JUMP JUMPDEST PUSH1 0x20 DUP2 MSTORE PUSH1 0x0 PUSH2 0x2685 PUSH1 0x20 DUP4 ADD DUP5 PUSH2 0x51B5 JUMP JUMPDEST PUSH1 0x0 DUP1 PUSH1 0x40 DUP4 DUP6 SUB SLT ISZERO PUSH2 0x5207 JUMPI PUSH1 0x0 DUP1 REVERT JUMPDEST DUP3 CALLDATALOAD PUSH2 0x5212 DUP2 PUSH2 0x4BED JUMP JUMPDEST SWAP2 POP PUSH1 0x20 DUP4 ADD CALLDATALOAD PUSH2 0x5222 DUP2 PUSH2 0x4BED JUMP JUMPDEST DUP1 SWAP2 POP POP SWAP3 POP SWAP3 SWAP1 POP JUMP JUMPDEST PUSH1 0x0 PUSH2 0x100 DUP3 ADD SWAP1 POP PUSH3 0xFFFFFF DUP1 DUP5 MLOAD AND DUP4 MSTORE DUP1 PUSH1 0x20 DUP6 ADD MLOAD AND PUSH1 0x20 DUP5 ADD MSTORE DUP1 PUSH1 0x40 DUP6 ADD MLOAD AND PUSH1 0x40 DUP5 ADD MSTORE DUP1 PUSH1 0x60 DUP6 ADD MLOAD AND PUSH1 0x60 DUP5 ADD MSTORE POP PUSH1 0x1 PUSH1 0x1 PUSH1 0x60 SHL SUB PUSH1 0x80 DUP5 ADD MLOAD AND PUSH1 0x80 DUP4 ADD MSTORE PUSH1 0xA0 DUP4 ADD MLOAD PUSH2 0x5292 PUSH1 0xA0 DUP5 ADD DUP3 PUSH1 0x1 PUSH1 0x1 PUSH1 0x60 SHL SUB AND SWAP1 MSTORE JUMP JUMPDEST POP PUSH1 0xC0 DUP4 ADD MLOAD PUSH2 0x52A9 PUSH1 0xC0 DUP5 ADD DUP3 PUSH3 0xFFFFFF AND SWAP1 MSTORE JUMP JUMPDEST POP PUSH1 0xE0 DUP4 ADD MLOAD PUSH2 0x52C4 PUSH1 0xE0 DUP5 ADD DUP3 PUSH1 0x1 PUSH1 0x1 PUSH1 0x60 SHL SUB AND SWAP1 MSTORE JUMP JUMPDEST POP SWAP3 SWAP2 POP POP JUMP JUMPDEST PUSH1 0x0 PUSH1 0x20 DUP3 DUP5 SUB SLT ISZERO PUSH2 0x52DD JUMPI PUSH1 0x0 DUP1 REVERT JUMPDEST DUP2 CALLDATALOAD PUSH2 0x2685 DUP2 PUSH2 0x4CF6 JUMP JUMPDEST PUSH1 0x0 DUP1 PUSH1 0x40 DUP4 DUP6 SUB SLT ISZERO PUSH2 0x52FB JUMPI PUSH1 0x0 DUP1 REVERT JUMPDEST DUP3 CALLDATALOAD PUSH2 0x5212 DUP2 PUSH2 0x4CF6 JUMP JUMPDEST PUSH1 0x0 DUP1 PUSH1 0x0 DUP1 PUSH1 0x0 PUSH1 0x80 DUP7 DUP9 SUB SLT ISZERO PUSH2 0x531E JUMPI PUSH1 0x0 DUP1 REVERT JUMPDEST DUP6 CALLDATALOAD PUSH2 0x5329 DUP2 PUSH2 0x4BED JUMP JUMPDEST SWAP5 POP PUSH1 0x20 DUP7 ADD CALLDATALOAD PUSH2 0x5339 DUP2 PUSH2 0x4BED JUMP JUMPDEST SWAP4 POP PUSH1 0x40 DUP7 ADD CALLDATALOAD SWAP3 POP PUSH1 0x60 DUP7 ADD CALLDATALOAD PUSH1 0x1 PUSH1 0x1 PUSH1 0x40 SHL SUB DUP2 GT ISZERO PUSH2 0x535B JUMPI PUSH1 0x0 DUP1 REVERT JUMPDEST PUSH2 0x5367 DUP9 DUP3 DUP10 ADD PUSH2 0x4BFD JUMP JUMPDEST SWAP7 SWAP10 SWAP6 SWAP9 POP SWAP4 SWAP7 POP SWAP3 SWAP5 SWAP4 SWAP3 POP POP POP JUMP JUMPDEST PUSH1 0x0 DUP1 PUSH1 0x0 PUSH1 0x60 DUP5 DUP7 SUB SLT ISZERO PUSH2 0x538D JUMPI PUSH1 0x0 DUP1 REVERT JUMPDEST DUP4 CALLDATALOAD PUSH2 0x5398 DUP2 PUSH2 0x4BED JUMP JUMPDEST SWAP3 POP PUSH1 0x20 DUP5 ADD CALLDATALOAD PUSH2 0x4D3B DUP2 PUSH2 0x4BED JUMP JUMPDEST PUSH1 0x0 DUP1 PUSH1 0x0 DUP1 PUSH1 0x80 DUP6 DUP8 SUB SLT ISZERO PUSH2 0x53BE JUMPI PUSH1 0x0 DUP1 REVERT JUMPDEST DUP5 CALLDATALOAD PUSH2 0x53C9 DUP2 PUSH2 0x4BED JUMP JUMPDEST SWAP4 POP PUSH1 0x20 DUP6 ADD CALLDATALOAD PUSH2 0x53D9 DUP2 PUSH2 0x4BED JUMP JUMPDEST SWAP3 POP PUSH1 0x40 DUP6 ADD CALLDATALOAD PUSH2 0x53E9 DUP2 PUSH2 0x4CF6 JUMP JUMPDEST SWAP4 SWAP7 SWAP3 SWAP6 POP SWAP3 SWAP4 PUSH1 0x60 ADD CALLDATALOAD SWAP3 POP POP JUMP JUMPDEST PUSH1 0x1 DUP2 DUP2 SHR SWAP1 DUP3 AND DUP1 PUSH2 0x540D JUMPI PUSH1 0x7F DUP3 AND SWAP2 POP JUMPDEST PUSH1 0x20 DUP3 LT DUP2 SUB PUSH2 0x542D JUMPI PUSH4 0x4E487B71 PUSH1 0xE0 SHL PUSH1 0x0 MSTORE PUSH1 0x22 PUSH1 0x4 MSTORE PUSH1 0x24 PUSH1 0x0 REVERT JUMPDEST POP SWAP2 SWAP1 POP JUMP JUMPDEST DUP2 DUP4 DUP3 CALLDATACOPY PUSH1 0x0 SWAP2 ADD SWAP1 DUP2 MSTORE SWAP2 SWAP1 POP JUMP JUMPDEST PUSH4 0x4E487B71 PUSH1 0xE0 SHL PUSH1 0x0 MSTORE PUSH1 0x11 PUSH1 0x4 MSTORE PUSH1 0x24 PUSH1 0x0 REVERT JUMPDEST DUP2 DUP2 SUB DUP2 DUP2 GT ISZERO PUSH2 0x546C JUMPI PUSH2 0x546C PUSH2 0x5443 JUMP JUMPDEST SWAP3 SWAP2 POP POP JUMP JUMPDEST DUP1 DUP3 MUL DUP2 ISZERO DUP3 DUP3 DIV DUP5 EQ OR PUSH2 0x546C JUMPI PUSH2 0x546C PUSH2 0x5443 JUMP JUMPDEST PUSH4 0x4E487B71 PUSH1 0xE0 SHL PUSH1 0x0 MSTORE PUSH1 0x32 PUSH1 0x4 MSTORE PUSH1 0x24 PUSH1 0x0 REVERT JUMPDEST PUSH3 0xFFFFFF DUP2 DUP2 AND DUP4 DUP3 AND ADD SWAP1 DUP1 DUP3 GT ISZERO PUSH2 0x52C4 JUMPI PUSH2 0x52C4 PUSH2 0x5443 JUMP JUMPDEST PUSH1 0x1 PUSH1 0x1 PUSH1 0x60 SHL SUB DUP3 DUP2 AND DUP3 DUP3 AND SUB SWAP1 DUP1 DUP3 GT ISZERO PUSH2 0x52C4 JUMPI PUSH2 0x52C4 PUSH2 0x5443 JUMP JUMPDEST SWAP4 DUP5 MSTORE PUSH1 0x1 PUSH1 0x1 PUSH1 0xA0 SHL SUB SWAP3 SWAP1 SWAP3 AND PUSH1 0x20 DUP5 ADD MSTORE PUSH1 0x1 PUSH1 0x1 PUSH1 0x60 SHL SUB AND PUSH1 0x40 DUP4 ADD MSTORE PUSH3 0xFFFFFF AND PUSH1 0x60 DUP3 ADD MSTORE PUSH1 0x80 ADD SWAP1 JUMP JUMPDEST PUSH1 0x0 PUSH3 0xFFFFFF DUP1 DUP4 AND DUP2 DUP2 SUB PUSH2 0x5525 JUMPI PUSH2 0x5525 PUSH2 0x5443 JUMP JUMPDEST PUSH1 0x1 ADD SWAP4 SWAP3 POP POP POP JUMP JUMPDEST PUSH1 0x1 PUSH1 0x1 PUSH1 0x60 SHL SUB DUP2 DUP2 AND DUP4 DUP3 AND ADD SWAP1 DUP1 DUP3 GT ISZERO PUSH2 0x52C4 JUMPI PUSH2 0x52C4 PUSH2 0x5443 JUMP JUMPDEST PUSH1 0x0 DUP3 PUSH2 0x556C JUMPI PUSH4 0x4E487B71 PUSH1 0xE0 SHL PUSH1 0x0 MSTORE PUSH1 0x12 PUSH1 0x4 MSTORE PUSH1 0x24 PUSH1 0x0 REVERT JUMPDEST POP DIV SWAP1 JUMP JUMPDEST PUSH3 0xFFFFFF DUP3 DUP2 AND DUP3 DUP3 AND SUB SWAP1 DUP1 DUP3 GT ISZERO PUSH2 0x52C4 JUMPI PUSH2 0x52C4 PUSH2 0x5443 JUMP JUMPDEST DUP2 DUP4 MSTORE DUP2 DUP2 PUSH1 0x20 DUP6 ADD CALLDATACOPY POP PUSH1 0x0 DUP3 DUP3 ADD PUSH1 0x20 SWAP1 DUP2 ADD SWAP2 SWAP1 SWAP2 MSTORE PUSH1 0x1F SWAP1 SWAP2 ADD PUSH1 0x1F NOT AND SWAP1 SWAP2 ADD ADD SWAP1 JUMP JUMPDEST PUSH2 0xFFFF DUP5 AND DUP2 MSTORE PUSH1 0x40 PUSH1 0x20 DUP3 ADD MSTORE PUSH1 0x0 PUSH2 0x2C97 PUSH1 0x40 DUP4 ADD DUP5 DUP7 PUSH2 0x558D JUMP JUMPDEST PUSH1 0x0 PUSH1 0x1 DUP3 ADD PUSH2 0x55E6 JUMPI PUSH2 0x55E6 PUSH2 0x5443 JUMP JUMPDEST POP PUSH1 0x1 ADD SWAP1 JUMP JUMPDEST DUP1 DUP3 ADD DUP1 DUP3 GT ISZERO PUSH2 0x546C JUMPI PUSH2 0x546C PUSH2 0x5443 JUMP JUMPDEST DUP3 DUP5 DUP3 CALLDATACOPY PUSH1 0x60 SWAP2 SWAP1 SWAP2 SHL PUSH1 0x1 PUSH1 0x1 PUSH1 0x60 SHL SUB NOT AND SWAP2 ADD SWAP1 DUP2 MSTORE PUSH1 0x14 ADD SWAP2 SWAP1 POP JUMP JUMPDEST PUSH1 0x1F DUP3 GT ISZERO PUSH2 0x4BE8 JUMPI PUSH1 0x0 DUP2 DUP2 MSTORE PUSH1 0x20 DUP2 KECCAK256 PUSH1 0x1F DUP6 ADD PUSH1 0x5 SHR DUP2 ADD PUSH1 0x20 DUP7 LT ISZERO PUSH2 0x5648 JUMPI POP DUP1 JUMPDEST PUSH1 0x1F DUP6 ADD PUSH1 0x5 SHR DUP3 ADD SWAP2 POP JUMPDEST DUP2 DUP2 LT ISZERO PUSH2 0x22F3 JUMPI DUP3 DUP2 SSTORE PUSH1 0x1 ADD PUSH2 0x5654 JUMP JUMPDEST DUP2 MLOAD PUSH1 0x1 PUSH1 0x1 PUSH1 0x40 SHL SUB DUP2 GT ISZERO PUSH2 0x5680 JUMPI PUSH2 0x5680 PUSH2 0x5037 JUMP JUMPDEST PUSH2 0x5694 DUP2 PUSH2 0x568E DUP5 SLOAD PUSH2 0x53F9 JUMP JUMPDEST DUP5 PUSH2 0x5621 JUMP JUMPDEST PUSH1 0x20 DUP1 PUSH1 0x1F DUP4 GT PUSH1 0x1 DUP2 EQ PUSH2 0x56C9 JUMPI PUSH1 0x0 DUP5 ISZERO PUSH2 0x56B1 JUMPI POP DUP6 DUP4 ADD MLOAD JUMPDEST PUSH1 0x0 NOT PUSH1 0x3 DUP7 SWAP1 SHL SHR NOT AND PUSH1 0x1 DUP6 SWAP1 SHL OR DUP6 SSTORE PUSH2 0x22F3 JUMP JUMPDEST PUSH1 0x0 DUP6 DUP2 MSTORE PUSH1 0x20 DUP2 KECCAK256 PUSH1 0x1F NOT DUP7 AND SWAP2 JUMPDEST DUP3 DUP2 LT ISZERO PUSH2 0x56F8 JUMPI DUP9 DUP7 ADD MLOAD DUP3 SSTORE SWAP5 DUP5 ADD SWAP5 PUSH1 0x1 SWAP1 SWAP2 ADD SWAP1 DUP5 ADD PUSH2 0x56D9 JUMP JUMPDEST POP DUP6 DUP3 LT ISZERO PUSH2 0x5716 JUMPI DUP8 DUP6 ADD MLOAD PUSH1 0x0 NOT PUSH1 0x3 DUP9 SWAP1 SHL PUSH1 0xF8 AND SHR NOT AND DUP2 SSTORE JUMPDEST POP POP POP POP POP PUSH1 0x1 SWAP1 DUP2 SHL ADD SWAP1 SSTORE POP JUMP JUMPDEST PUSH1 0x0 PUSH2 0xFFFF DUP1 DUP9 AND DUP4 MSTORE DUP1 DUP8 AND PUSH1 0x20 DUP5 ADD MSTORE POP DUP5 PUSH1 0x40 DUP4 ADD MSTORE PUSH1 0x80 PUSH1 0x60 DUP4 ADD MSTORE PUSH2 0x5754 PUSH1 0x80 DUP4 ADD DUP5 DUP7 PUSH2 0x558D JUMP JUMPDEST SWAP8 SWAP7 POP POP POP POP POP POP POP JUMP JUMPDEST PUSH2 0xFFFF DUP7 AND DUP2 MSTORE PUSH1 0x80 PUSH1 0x20 DUP3 ADD MSTORE PUSH1 0x0 PUSH2 0x577D PUSH1 0x80 DUP4 ADD DUP7 DUP9 PUSH2 0x558D JUMP JUMPDEST PUSH1 0x1 PUSH1 0x1 PUSH1 0x40 SHL SUB SWAP5 SWAP1 SWAP5 AND PUSH1 0x40 DUP4 ADD MSTORE POP PUSH1 0x60 ADD MSTORE SWAP4 SWAP3 POP POP POP JUMP JUMPDEST PUSH1 0x1 PUSH1 0x1 PUSH1 0x40 SHL SUB DUP4 GT ISZERO PUSH2 0x57B1 JUMPI PUSH2 0x57B1 PUSH2 0x5037 JUMP JUMPDEST PUSH2 0x57C5 DUP4 PUSH2 0x57BF DUP4 SLOAD PUSH2 0x53F9 JUMP JUMPDEST DUP4 PUSH2 0x5621 JUMP JUMPDEST PUSH1 0x0 PUSH1 0x1F DUP5 GT PUSH1 0x1 DUP2 EQ PUSH2 0x57F9 JUMPI PUSH1 0x0 DUP6 ISZERO PUSH2 0x57E1 JUMPI POP DUP4 DUP3 ADD CALLDATALOAD JUMPDEST PUSH1 0x0 NOT PUSH1 0x3 DUP8 SWAP1 SHL SHR NOT AND PUSH1 0x1 DUP7 SWAP1 SHL OR DUP4 SSTORE PUSH2 0x1040 JUMP JUMPDEST PUSH1 0x0 DUP4 DUP2 MSTORE PUSH1 0x20 SWAP1 KECCAK256 PUSH1 0x1F NOT DUP7 AND SWAP1 DUP4 JUMPDEST DUP3 DUP2 LT ISZERO PUSH2 0x582A JUMPI DUP7 DUP6 ADD CALLDATALOAD DUP3 SSTORE PUSH1 0x20 SWAP5 DUP6 ADD SWAP5 PUSH1 0x1 SWAP1 SWAP3 ADD SWAP2 ADD PUSH2 0x580A JUMP JUMPDEST POP DUP7 DUP3 LT ISZERO PUSH2 0x5847 JUMPI PUSH1 0x0 NOT PUSH1 0xF8 DUP9 PUSH1 0x3 SHL AND SHR NOT DUP5 DUP8 ADD CALLDATALOAD AND DUP2 SSTORE JUMPDEST POP POP PUSH1 0x1 DUP6 PUSH1 0x1 SHL ADD DUP4 SSTORE POP POP POP POP POP JUMP JUMPDEST PUSH1 0x0 PUSH1 0x20 DUP3 DUP5 SUB SLT ISZERO PUSH2 0x586B JUMPI PUSH1 0x0 DUP1 REVERT JUMPDEST DUP2 MLOAD PUSH1 0x1 PUSH1 0x1 PUSH1 0x40 SHL SUB DUP2 GT ISZERO PUSH2 0x5881 JUMPI PUSH1 0x0 DUP1 REVERT JUMPDEST DUP3 ADD PUSH1 0x1F DUP2 ADD DUP5 SGT PUSH2 0x5892 JUMPI PUSH1 0x0 DUP1 REVERT JUMPDEST DUP1 MLOAD PUSH2 0x58A0 PUSH2 0x5149 DUP3 PUSH2 0x50C8 JUMP JUMPDEST DUP2 DUP2 MSTORE DUP6 PUSH1 0x20 DUP4 DUP6 ADD ADD GT ISZERO PUSH2 0x58B5 JUMPI PUSH1 0x0 DUP1 REVERT JUMPDEST PUSH2 0x2C97 DUP3 PUSH1 0x20 DUP4 ADD PUSH1 0x20 DUP7 ADD PUSH2 0x5191 JUMP JUMPDEST PUSH2 0xFFFF DUP6 AND DUP2 MSTORE PUSH1 0x80 PUSH1 0x20 DUP3 ADD MSTORE PUSH1 0x0 PUSH2 0x58E3 PUSH1 0x80 DUP4 ADD DUP7 PUSH2 0x51B5 JUMP JUMPDEST PUSH1 0x1 PUSH1 0x1 PUSH1 0x40 SHL SUB DUP6 AND PUSH1 0x40 DUP5 ADD MSTORE DUP3 DUP2 SUB PUSH1 0x60 DUP5 ADD MSTORE PUSH2 0x5754 DUP2 DUP6 PUSH2 0x51B5 JUMP JUMPDEST PUSH1 0x0 DUP2 MLOAD DUP1 DUP5 MSTORE PUSH1 0x20 DUP1 DUP6 ADD SWAP5 POP DUP1 DUP5 ADD PUSH1 0x0 JUMPDEST DUP4 DUP2 LT ISZERO PUSH2 0x5954 JUMPI DUP2 MLOAD DUP1 MLOAD PUSH1 0x1 PUSH1 0x1 PUSH1 0xA0 SHL SUB AND DUP9 MSTORE PUSH1 0x20 SWAP1 DUP2 ADD MLOAD PUSH1 0x1 PUSH1 0x1 PUSH1 0x60 SHL SUB AND SWAP1 DUP9 ADD MSTORE PUSH1 0x40 DUP8 ADD SWAP7 POP SWAP1 DUP3 ADD SWAP1 PUSH1 0x1 ADD PUSH2 0x5918 JUMP JUMPDEST POP SWAP5 SWAP6 SWAP5 POP POP POP POP POP JUMP JUMPDEST PUSH1 0x20 DUP1 DUP3 MSTORE DUP3 MLOAD PUSH1 0x1 PUSH1 0x1 PUSH1 0xA0 SHL SUB SWAP1 DUP2 AND DUP4 DUP4 ADD MSTORE SWAP1 DUP4 ADD MLOAD AND PUSH1 0x40 DUP1 DUP4 ADD SWAP2 SWAP1 SWAP2 MSTORE DUP3 ADD MLOAD PUSH2 0xFFFF DUP2 AND PUSH1 0x60 DUP4 ADD MSTORE PUSH1 0x0 SWAP1 POP PUSH1 0x60 DUP4 ADD MLOAD PUSH1 0x1 PUSH1 0x1 PUSH1 0x60 SHL SUB DUP2 AND PUSH1 0x80 DUP5 ADD MSTORE POP PUSH1 0x80 DUP4 ADD MLOAD PUSH1 0x1 PUSH1 0x1 PUSH1 0x60 SHL SUB DUP2 AND PUSH1 0xA0 DUP5 ADD MSTORE POP PUSH1 0xA0 DUP4 ADD MLOAD PUSH2 0x100 DUP1 PUSH1 0xC0 DUP6 ADD MSTORE PUSH2 0x59DA PUSH2 0x120 DUP6 ADD DUP4 PUSH2 0x5904 JUMP JUMPDEST SWAP2 POP PUSH1 0xC0 DUP6 ADD MLOAD PUSH2 0x59F6 PUSH1 0xE0 DUP7 ADD DUP3 PUSH1 0x1 PUSH1 0x1 PUSH1 0x60 SHL SUB AND SWAP1 MSTORE JUMP JUMPDEST POP PUSH1 0xE0 DUP6 ADD MLOAD PUSH3 0xFFFFFF DUP2 AND DUP6 DUP4 ADD MSTORE POP SWAP1 SWAP5 SWAP4 POP POP POP POP JUMP JUMPDEST PUSH1 0x0 DUP3 MLOAD PUSH2 0x5A22 DUP2 DUP5 PUSH1 0x20 DUP8 ADD PUSH2 0x5191 JUMP JUMPDEST SWAP2 SWAP1 SWAP2 ADD SWAP3 SWAP2 POP POP JUMP JUMPDEST DUP1 MLOAD PUSH2 0x4C5C DUP2 PUSH2 0x4CF6 JUMP JUMPDEST DUP1 MLOAD PUSH2 0x4C5C DUP2 PUSH2 0x4BED JUMP JUMPDEST DUP1 MLOAD PUSH2 0x4C5C DUP2 PUSH2 0x4DF9 JUMP JUMPDEST PUSH1 0x0 DUP3 PUSH1 0x1F DUP4 ADD SLT PUSH2 0x5A5E JUMPI PUSH1 0x0 DUP1 REVERT JUMPDEST DUP2 MLOAD PUSH1 0x20 PUSH1 0x1 PUSH1 0x1 PUSH1 0x40 SHL SUB DUP3 GT ISZERO PUSH2 0x5A79 JUMPI PUSH2 0x5A79 PUSH2 0x5037 JUMP JUMPDEST PUSH2 0x5A87 DUP2 DUP4 PUSH1 0x5 SHL ADD PUSH2 0x5098 JUMP JUMPDEST DUP3 DUP2 MSTORE PUSH1 0x6 SWAP3 SWAP1 SWAP3 SHL DUP5 ADD DUP2 ADD SWAP2 DUP2 DUP2 ADD SWAP1 DUP7 DUP5 GT ISZERO PUSH2 0x5AA6 JUMPI PUSH1 0x0 DUP1 REVERT JUMPDEST DUP3 DUP7 ADD JUMPDEST DUP5 DUP2 LT ISZERO PUSH2 0x5AF7 JUMPI PUSH1 0x40 DUP2 DUP10 SUB SLT ISZERO PUSH2 0x5AC3 JUMPI PUSH1 0x0 DUP1 DUP2 REVERT JUMPDEST PUSH2 0x5ACB PUSH2 0x504D JUMP JUMPDEST DUP2 MLOAD PUSH2 0x5AD6 DUP2 PUSH2 0x4CF6 JUMP JUMPDEST DUP2 MSTORE DUP2 DUP6 ADD MLOAD PUSH2 0x5AE5 DUP2 PUSH2 0x4DF9 JUMP JUMPDEST DUP2 DUP7 ADD MSTORE DUP4 MSTORE SWAP2 DUP4 ADD SWAP2 PUSH1 0x40 ADD PUSH2 0x5AAA JUMP JUMPDEST POP SWAP7 SWAP6 POP POP POP POP POP POP JUMP JUMPDEST DUP1 MLOAD PUSH2 0x4C5C DUP2 PUSH2 0x4D95 JUMP JUMPDEST PUSH1 0x0 PUSH1 0x20 DUP3 DUP5 SUB SLT ISZERO PUSH2 0x5B1F JUMPI PUSH1 0x0 DUP1 REVERT JUMPDEST DUP2 MLOAD PUSH1 0x1 PUSH1 0x1 PUSH1 0x40 SHL SUB DUP1 DUP3 GT ISZERO PUSH2 0x5B36 JUMPI PUSH1 0x0 DUP1 REVERT JUMPDEST SWAP1 DUP4 ADD SWAP1 PUSH2 0x100 DUP3 DUP7 SUB SLT ISZERO PUSH2 0x5B4B JUMPI PUSH1 0x0 DUP1 REVERT JUMPDEST PUSH2 0x5B53 PUSH2 0x5075 JUMP JUMPDEST PUSH2 0x5B5C DUP4 PUSH2 0x5A2C JUMP JUMPDEST DUP2 MSTORE PUSH2 0x5B6A PUSH1 0x20 DUP5 ADD PUSH2 0x5A2C JUMP JUMPDEST PUSH1 0x20 DUP3 ADD MSTORE PUSH2 0x5B7B PUSH1 0x40 DUP5 ADD PUSH2 0x5A37 JUMP JUMPDEST PUSH1 0x40 DUP3 ADD MSTORE PUSH2 0x5B8C PUSH1 0x60 DUP5 ADD PUSH2 0x5A42 JUMP JUMPDEST PUSH1 0x60 DUP3 ADD MSTORE PUSH2 0x5B9D PUSH1 0x80 DUP5 ADD PUSH2 0x5A42 JUMP JUMPDEST PUSH1 0x80 DUP3 ADD MSTORE PUSH1 0xA0 DUP4 ADD MLOAD DUP3 DUP2 GT ISZERO PUSH2 0x5BB4 JUMPI PUSH1 0x0 DUP1 REVERT JUMPDEST PUSH2 0x5BC0 DUP8 DUP3 DUP7 ADD PUSH2 0x5A4D JUMP JUMPDEST PUSH1 0xA0 DUP4 ADD MSTORE POP PUSH2 0x5BD2 PUSH1 0xC0 DUP5 ADD PUSH2 0x5A42 JUMP JUMPDEST PUSH1 0xC0 DUP3 ADD MSTORE PUSH2 0x5BE3 PUSH1 0xE0 DUP5 ADD PUSH2 0x5B02 JUMP JUMPDEST PUSH1 0xE0 DUP3 ADD MSTORE SWAP6 SWAP5 POP POP POP POP POP JUMP JUMPDEST PUSH2 0xFFFF DUP7 AND DUP2 MSTORE PUSH1 0xA0 PUSH1 0x20 DUP3 ADD MSTORE PUSH1 0x0 PUSH2 0x5C0E PUSH1 0xA0 DUP4 ADD DUP8 PUSH2 0x51B5 JUMP JUMPDEST PUSH1 0x1 PUSH1 0x1 PUSH1 0x40 SHL SUB DUP7 AND PUSH1 0x40 DUP5 ADD MSTORE DUP3 DUP2 SUB PUSH1 0x60 DUP5 ADD MSTORE PUSH2 0x5C2F DUP2 DUP7 PUSH2 0x51B5 JUMP JUMPDEST SWAP1 POP DUP3 DUP2 SUB PUSH1 0x80 DUP5 ADD MSTORE PUSH2 0x5C43 DUP2 DUP6 PUSH2 0x51B5 JUMP JUMPDEST SWAP9 SWAP8 POP POP POP POP POP POP POP POP JUMP JUMPDEST PUSH2 0xFFFF DUP8 AND DUP2 MSTORE PUSH1 0xC0 PUSH1 0x20 DUP3 ADD MSTORE PUSH1 0x0 PUSH2 0x5C6C PUSH1 0xC0 DUP4 ADD DUP9 PUSH2 0x51B5 JUMP JUMPDEST DUP3 DUP2 SUB PUSH1 0x40 DUP5 ADD MSTORE PUSH2 0x5C7E DUP2 DUP9 PUSH2 0x51B5 JUMP JUMPDEST PUSH1 0x1 PUSH1 0x1 PUSH1 0xA0 SHL SUB DUP8 DUP2 AND PUSH1 0x60 DUP7 ADD MSTORE DUP7 AND PUSH1 0x80 DUP6 ADD MSTORE DUP4 DUP2 SUB PUSH1 0xA0 DUP6 ADD MSTORE SWAP1 POP PUSH2 0x5CA9 DUP2 DUP6 PUSH2 0x51B5 JUMP JUMPDEST SWAP10 SWAP9 POP POP POP POP POP POP POP POP POP JUMP INVALID LOG2 PUSH5 0x6970667358 0x22 SLT KECCAK256 SWAP14 SIGNEXTEND DUP13 PUSH4 0x3AE0FA2 PUSH16 0x31D6AB97594CB50D1D0F0D3BF8A46046 DUP12 PUSH24 0xF937CB817E64736F6C634300081200330000000000000000 "
		},
		"gasEstimates": {
			"creation": {
				"codeDepositCost": "4757600",
				"executionCost": "infinite",
				"totalCost": "infinite"
			},
			"external": {
				"DEFAULT_PAYLOAD_SIZE_LIMIT()": "240",
				"MARGIN_BPS()": "2406",
				"canResolve(address,address,uint256)": "infinite",
				"cash()": "infinite",
				"dao_address()": "2461",
				"eclipse_cycle_epochs()": "2385",
				"emergencyRefundTaker(address,address,uint256,uint24)": "infinite",
				"epochspan()": "2385",
				"failedMessages(uint16,bytes,uint64)": "infinite",
				"forceResumeReceive(uint16,bytes)": "infinite",
				"getConfig(uint16,uint16,address,uint256)": "infinite",
				"getEpoch(address,address,uint256)": "infinite",
				"getIndex(address,address,uint256)": "infinite",
				"getMakers(address,address,uint256)": "infinite",
				"getSums(address,address,uint256)": "infinite",
				"getTakers(address,address,uint256)": "infinite",
				"getTrustedRemoteAddress(uint16)": "infinite",
				"get_demands(uint96,uint96,uint96,uint96,uint96)": "infinite",
				"invokeRecovery(address,address,uint256)": "infinite",
				"isTrustedRemote(uint16,bytes)": "infinite",
				"lzEndpoint()": "infinite",
				"lzReceive(uint16,bytes,uint64,bytes)": "infinite",
				"lzc()": "2359",
				"max_epochs()": "2407",
				"minDstGasLookup(uint16,uint16)": "infinite",
				"nonblockingLzReceive(uint16,bytes,uint64,bytes)": "infinite",
				"owner()": "2388",
				"payloadSizeLimitLookup(uint16)": "2657",
				"placeMaker(address,address,uint256,uint96)": "infinite",
				"placeTaker(address,address,uint256,uint96)": "infinite",
				"precrime()": "2438",
				"recoverMaker(address,address,uint256,uint24)": "infinite",
				"recoverTaker(address,address,uint256,uint24)": "infinite",
				"renounceOwnership()": "infinite",
				"retryMessage(uint16,bytes,uint64,bytes)": "infinite",
				"send(address,address,uint256)": "infinite",
				"send_orders(address,address,uint256,uint96)": "infinite",
				"send_taker_sum(address,address,uint256)": "infinite",
				"setConfig(uint16,uint16,uint256,bytes)": "infinite",
				"setMinDstGas(uint16,uint16,uint256)": "infinite",
				"setPayloadSizeLimit(uint16,uint256)": "24807",
				"setPrecrime(address)": "27937",
				"setReceiveVersion(uint16)": "infinite",
				"setSendVersion(uint16)": "infinite",
				"setTrustedRemote(uint16,bytes)": "infinite",
				"setTrustedRemoteAddress(uint16,bytes)": "infinite",
				"setspoke(address,uint16)": "infinite",
				"spokes(uint16)": "2684",
				"transferOwnership(address)": "infinite",
				"trustedRemoteLookup(uint16)": "infinite"
			},
			"internal": {
				"_nonblockingLzReceive(uint16,bytes memory,uint64,bytes memory)": "infinite",
				"delete_maker(address,address,uint256,uint256)": "infinite",
				"delink(address,address,uint256,uint256)": "infinite",
				"payout_orders(address,struct Multi.Payout memory[] memory,uint96)": "infinite",
				"refund(address,address,uint256,uint24,bool)": "infinite",
				"resolve_epoch(address,address,uint256)": "infinite",
				"roll_taker_orders(address,address,uint256,uint96)": "infinite",
				"transfer(address,address,uint256)": "infinite",
				"transferFrom(address,address,uint256)": "infinite"
			}
		},
		"methodIdentifiers": {
			"DEFAULT_PAYLOAD_SIZE_LIMIT()": "c4461834",
			"MARGIN_BPS()": "b3d0bc94",
			"canResolve(address,address,uint256)": "ceb9e719",
			"cash()": "961be391",
			"dao_address()": "0c0f9db0",
			"eclipse_cycle_epochs()": "3583fe50",
			"emergencyRefundTaker(address,address,uint256,uint24)": "225a0304",
			"epochspan()": "91a79ed9",
			"failedMessages(uint16,bytes,uint64)": "5b8c41e6",
			"forceResumeReceive(uint16,bytes)": "42d65a8d",
			"getConfig(uint16,uint16,address,uint256)": "f5ecbdbc",
			"getEpoch(address,address,uint256)": "e3ee1dac",
			"getIndex(address,address,uint256)": "b4370698",
			"getMakers(address,address,uint256)": "4de44578",
			"getSums(address,address,uint256)": "299299d3",
			"getTakers(address,address,uint256)": "a7b6fa18",
			"getTrustedRemoteAddress(uint16)": "9f38369a",
			"get_demands(uint96,uint96,uint96,uint96,uint96)": "29d526a8",
			"invokeRecovery(address,address,uint256)": "0bc6e26b",
			"isTrustedRemote(uint16,bytes)": "3d8b38f6",
			"lzEndpoint()": "b353aaa7",
			"lzReceive(uint16,bytes,uint64,bytes)": "001d3567",
			"lzc()": "30ff44b6",
			"max_epochs()": "3d19da45",
			"minDstGasLookup(uint16,uint16)": "8cfd8f5c",
			"nonblockingLzReceive(uint16,bytes,uint64,bytes)": "66ad5c8a",
			"owner()": "8da5cb5b",
			"payloadSizeLimitLookup(uint16)": "3f1f4fa4",
			"placeMaker(address,address,uint256,uint96)": "dbeec32d",
			"placeTaker(address,address,uint256,uint96)": "3414e6a5",
			"precrime()": "950c8a74",
			"recoverMaker(address,address,uint256,uint24)": "1546094e",
			"recoverTaker(address,address,uint256,uint24)": "cc64025f",
			"renounceOwnership()": "715018a6",
			"retryMessage(uint16,bytes,uint64,bytes)": "d1deba1f",
			"send(address,address,uint256)": "0779afe6",
			"send_orders(address,address,uint256,uint96)": "1aabb482",
			"send_taker_sum(address,address,uint256)": "786f8a33",
			"setConfig(uint16,uint16,uint256,bytes)": "cbed8b9c",
			"setMinDstGas(uint16,uint16,uint256)": "df2a5b3b",
			"setPayloadSizeLimit(uint16,uint256)": "0df37483",
			"setPrecrime(address)": "baf3292d",
			"setReceiveVersion(uint16)": "10ddb137",
			"setSendVersion(uint16)": "07e0db17",
			"setTrustedRemote(uint16,bytes)": "eb8d72b7",
			"setTrustedRemoteAddress(uint16,bytes)": "a6c3d165",
			"setspoke(address,uint16)": "c9de705c",
			"spokes(uint16)": "cfe27eba",
			"transferOwnership(address)": "f2fde38b",
			"trustedRemoteLookup(uint16)": "7533d788"
		}
	},
	"abi": [
		{
			"inputs": [
				{
					"internalType": "address",
					"name": "_lzEndpoint",
					"type": "address"
				},
				{
					"internalType": "uint16",
					"name": "_lzc",
					"type": "uint16"
				}
			],
			"stateMutability": "nonpayable",
			"type": "constructor"
		},
		{
			"anonymous": false,
			"inputs": [
				{
					"indexed": true,
					"internalType": "address",
					"name": "sell_token",
					"type": "address"
				},
				{
					"indexed": true,
					"internalType": "address",
					"name": "buy_token",
					"type": "address"
				},
				{
					"indexed": false,
					"internalType": "uint256",
					"name": "lz_cid",
					"type": "uint256"
				},
				{
					"indexed": false,
					"internalType": "address",
					"name": "sender",
					"type": "address"
				},
				{
					"indexed": false,
					"internalType": "uint256",
					"name": "amount",
					"type": "uint256"
				},
				{
					"indexed": false,
					"internalType": "uint256",
					"name": "index",
					"type": "uint256"
				}
			],
			"name": "MakerDefaulted",
			"type": "event"
		},
		{
			"anonymous": false,
			"inputs": [
				{
					"indexed": true,
					"internalType": "address",
					"name": "sell_token",
					"type": "address"
				},
				{
					"indexed": true,
					"internalType": "address",
					"name": "buy_token",
					"type": "address"
				},
				{
					"indexed": false,
					"internalType": "uint256",
					"name": "lz_cid",
					"type": "uint256"
				},
				{
					"indexed": false,
					"internalType": "address",
					"name": "sender",
					"type": "address"
				},
				{
					"indexed": false,
					"internalType": "uint256",
					"name": "amount",
					"type": "uint256"
				},
				{
					"indexed": false,
					"internalType": "uint256",
					"name": "index",
					"type": "uint256"
				}
			],
			"name": "MakerPulled",
			"type": "event"
		},
		{
			"anonymous": false,
			"inputs": [
				{
					"indexed": false,
					"internalType": "uint16",
					"name": "_srcChainId",
					"type": "uint16"
				},
				{
					"indexed": false,
					"internalType": "bytes",
					"name": "_srcAddress",
					"type": "bytes"
				},
				{
					"indexed": false,
					"internalType": "uint64",
					"name": "_nonce",
					"type": "uint64"
				},
				{
					"indexed": false,
					"internalType": "bytes",
					"name": "_payload",
					"type": "bytes"
				},
				{
					"indexed": false,
					"internalType": "bytes",
					"name": "_reason",
					"type": "bytes"
				}
			],
			"name": "MessageFailed",
			"type": "event"
		},
		{
			"anonymous": false,
			"inputs": [
				{
					"indexed": true,
					"internalType": "address",
					"name": "sell_token",
					"type": "address"
				},
				{
					"indexed": true,
					"internalType": "address",
					"name": "buy_token",
					"type": "address"
				},
				{
					"indexed": false,
					"internalType": "uint256",
					"name": "lz_cid",
					"type": "uint256"
				},
				{
					"indexed": false,
					"internalType": "address",
					"name": "sender",
					"type": "address"
				},
				{
					"indexed": false,
					"internalType": "uint256",
					"name": "amount",
					"type": "uint256"
				}
			],
			"name": "OrderPlaced",
			"type": "event"
		},
		{
			"anonymous": false,
			"inputs": [
				{
					"indexed": true,
					"internalType": "address",
					"name": "previousOwner",
					"type": "address"
				},
				{
					"indexed": true,
					"internalType": "address",
					"name": "newOwner",
					"type": "address"
				}
			],
			"name": "OwnershipTransferred",
			"type": "event"
		},
		{
			"anonymous": false,
			"inputs": [
				{
					"indexed": true,
					"internalType": "address",
					"name": "sell_token",
					"type": "address"
				},
				{
					"indexed": true,
					"internalType": "address",
					"name": "buy_token",
					"type": "address"
				},
				{
					"indexed": false,
					"internalType": "uint256",
					"name": "lz_cid",
					"type": "uint256"
				},
				{
					"indexed": false,
					"internalType": "uint256",
					"name": "epoch",
					"type": "uint256"
				}
			],
			"name": "Resolved",
			"type": "event"
		},
		{
			"anonymous": false,
			"inputs": [
				{
					"indexed": false,
					"internalType": "bool",
					"name": "canResolve",
					"type": "bool"
				},
				{
					"indexed": false,
					"internalType": "uint24",
					"name": "payload_epoch",
					"type": "uint24"
				},
				{
					"indexed": false,
					"internalType": "uint24",
					"name": "this_spoke_epoch",
					"type": "uint24"
				},
				{
					"indexed": false,
					"internalType": "uint96",
					"name": "this_timestamp",
					"type": "uint96"
				}
			],
			"name": "ResponseStatus",
			"type": "event"
		},
		{
			"anonymous": false,
			"inputs": [
				{
					"indexed": false,
					"internalType": "uint16",
					"name": "_srcChainId",
					"type": "uint16"
				},
				{
					"indexed": false,
					"internalType": "bytes",
					"name": "_srcAddress",
					"type": "bytes"
				},
				{
					"indexed": false,
					"internalType": "uint64",
					"name": "_nonce",
					"type": "uint64"
				},
				{
					"indexed": false,
					"internalType": "bytes32",
					"name": "_payloadHash",
					"type": "bytes32"
				}
			],
			"name": "RetryMessageSuccess",
			"type": "event"
		},
		{
			"anonymous": false,
			"inputs": [
				{
					"indexed": false,
					"internalType": "uint16",
					"name": "_dstChainId",
					"type": "uint16"
				},
				{
					"indexed": false,
					"internalType": "uint16",
					"name": "_type",
					"type": "uint16"
				},
				{
					"indexed": false,
					"internalType": "uint256",
					"name": "_minDstGas",
					"type": "uint256"
				}
			],
			"name": "SetMinDstGas",
			"type": "event"
		},
		{
			"anonymous": false,
			"inputs": [
				{
					"indexed": false,
					"internalType": "address",
					"name": "precrime",
					"type": "address"
				}
			],
			"name": "SetPrecrime",
			"type": "event"
		},
		{
			"anonymous": false,
			"inputs": [
				{
					"indexed": false,
					"internalType": "uint16",
					"name": "_remoteChainId",
					"type": "uint16"
				},
				{
					"indexed": false,
					"internalType": "bytes",
					"name": "_path",
					"type": "bytes"
				}
			],
			"name": "SetTrustedRemote",
			"type": "event"
		},
		{
			"anonymous": false,
			"inputs": [
				{
					"indexed": false,
					"internalType": "uint16",
					"name": "_remoteChainId",
					"type": "uint16"
				},
				{
					"indexed": false,
					"internalType": "bytes",
					"name": "_remoteAddress",
					"type": "bytes"
				}
			],
			"name": "SetTrustedRemoteAddress",
			"type": "event"
		},
		{
			"inputs": [],
			"name": "DEFAULT_PAYLOAD_SIZE_LIMIT",
			"outputs": [
				{
					"internalType": "uint256",
					"name": "",
					"type": "uint256"
				}
			],
			"stateMutability": "view",
			"type": "function"
		},
		{
			"inputs": [],
			"name": "MARGIN_BPS",
			"outputs": [
				{
					"internalType": "uint256",
					"name": "",
					"type": "uint256"
				}
			],
			"stateMutability": "view",
			"type": "function"
		},
		{
			"inputs": [
				{
					"internalType": "address",
					"name": "sell_token",
					"type": "address"
				},
				{
					"internalType": "address",
					"name": "buy_token",
					"type": "address"
				},
				{
					"internalType": "uint256",
					"name": "lz_cid",
					"type": "uint256"
				}
			],
			"name": "canResolve",
			"outputs": [
				{
					"internalType": "bool",
					"name": "",
					"type": "bool"
				}
			],
			"stateMutability": "view",
			"type": "function"
		},
		{
			"inputs": [],
			"name": "cash",
			"outputs": [],
			"stateMutability": "nonpayable",
			"type": "function"
		},
		{
			"inputs": [],
			"name": "dao_address",
			"outputs": [
				{
					"internalType": "address",
					"name": "",
					"type": "address"
				}
			],
			"stateMutability": "view",
			"type": "function"
		},
		{
			"inputs": [],
			"name": "eclipse_cycle_epochs",
			"outputs": [
				{
					"internalType": "uint256",
					"name": "",
					"type": "uint256"
				}
			],
			"stateMutability": "view",
			"type": "function"
		},
		{
			"inputs": [
				{
					"internalType": "address",
					"name": "sell_token",
					"type": "address"
				},
				{
					"internalType": "address",
					"name": "buy_token",
					"type": "address"
				},
				{
					"internalType": "uint256",
					"name": "lz_cid",
					"type": "uint256"
				},
				{
					"internalType": "uint24",
					"name": "order_index",
					"type": "uint24"
				}
			],
			"name": "emergencyRefundTaker",
			"outputs": [],
			"stateMutability": "nonpayable",
			"type": "function"
		},
		{
			"inputs": [],
			"name": "epochspan",
			"outputs": [
				{
					"internalType": "uint256",
					"name": "",
					"type": "uint256"
				}
			],
			"stateMutability": "view",
			"type": "function"
		},
		{
			"inputs": [
				{
					"internalType": "uint16",
					"name": "",
					"type": "uint16"
				},
				{
					"internalType": "bytes",
					"name": "",
					"type": "bytes"
				},
				{
					"internalType": "uint64",
					"name": "",
					"type": "uint64"
				}
			],
			"name": "failedMessages",
			"outputs": [
				{
					"internalType": "bytes32",
					"name": "",
					"type": "bytes32"
				}
			],
			"stateMutability": "view",
			"type": "function"
		},
		{
			"inputs": [
				{
					"internalType": "uint16",
					"name": "_srcChainId",
					"type": "uint16"
				},
				{
					"internalType": "bytes",
					"name": "_srcAddress",
					"type": "bytes"
				}
			],
			"name": "forceResumeReceive",
			"outputs": [],
			"stateMutability": "nonpayable",
			"type": "function"
		},
		{
			"inputs": [
				{
					"internalType": "uint16",
					"name": "_version",
					"type": "uint16"
				},
				{
					"internalType": "uint16",
					"name": "_chainId",
					"type": "uint16"
				},
				{
					"internalType": "address",
					"name": "",
					"type": "address"
				},
				{
					"internalType": "uint256",
					"name": "_configType",
					"type": "uint256"
				}
			],
			"name": "getConfig",
			"outputs": [
				{
					"internalType": "bytes",
					"name": "",
					"type": "bytes"
				}
			],
			"stateMutability": "view",
			"type": "function"
		},
		{
			"inputs": [
				{
					"internalType": "address",
					"name": "sell_token",
					"type": "address"
				},
				{
					"internalType": "address",
					"name": "buy_token",
					"type": "address"
				},
				{
					"internalType": "uint256",
					"name": "lz_cid",
					"type": "uint256"
				}
			],
			"name": "getEpoch",
			"outputs": [
				{
					"internalType": "uint256",
					"name": "epoch_result",
					"type": "uint256"
				}
			],
			"stateMutability": "view",
			"type": "function"
		},
		{
			"inputs": [
				{
					"internalType": "address",
					"name": "sell_token",
					"type": "address"
				},
				{
					"internalType": "address",
					"name": "buy_token",
					"type": "address"
				},
				{
					"internalType": "uint256",
					"name": "lz_cid",
					"type": "uint256"
				}
			],
			"name": "getIndex",
			"outputs": [
				{
					"components": [
						{
							"internalType": "uint24",
							"name": "taker_head",
							"type": "uint24"
						},
						{
							"internalType": "uint24",
							"name": "taker_tail",
							"type": "uint24"
						},
						{
							"internalType": "uint24",
							"name": "maker_head",
							"type": "uint24"
						},
						{
							"internalType": "uint24",
							"name": "maker_tail",
							"type": "uint24"
						},
						{
							"internalType": "uint96",
							"name": "taker_capital",
							"type": "uint96"
						},
						{
							"internalType": "uint96",
							"name": "taker_amount",
							"type": "uint96"
						},
						{
							"internalType": "uint24",
							"name": "taker_sent",
							"type": "uint24"
						},
						{
							"internalType": "uint96",
							"name": "timestamp",
							"type": "uint96"
						}
					],
					"internalType": "struct Multi.Index",
					"name": "",
					"type": "tuple"
				}
			],
			"stateMutability": "view",
			"type": "function"
		},
		{
			"inputs": [
				{
					"internalType": "address",
					"name": "sell_token",
					"type": "address"
				},
				{
					"internalType": "address",
					"name": "buy_token",
					"type": "address"
				},
				{
					"internalType": "uint256",
					"name": "lz_cid",
					"type": "uint256"
				}
			],
			"name": "getMakers",
			"outputs": [
				{
					"components": [
						{
							"internalType": "uint24",
							"name": "index",
							"type": "uint24"
						},
						{
							"internalType": "address",
							"name": "sender",
							"type": "address"
						},
						{
							"internalType": "uint96",
							"name": "amount",
							"type": "uint96"
						},
						{
							"internalType": "uint24",
							"name": "prev",
							"type": "uint24"
						},
						{
							"internalType": "uint24",
							"name": "next",
							"type": "uint24"
						},
						{
							"internalType": "uint24",
							"name": "epoch",
							"type": "uint24"
						},
						{
							"internalType": "uint96",
							"name": "balance",
							"type": "uint96"
						}
					],
					"internalType": "struct Multi.OrderEndpoint[]",
					"name": "active_makers",
					"type": "tuple[]"
				}
			],
			"stateMutability": "view",
			"type": "function"
		},
		{
			"inputs": [
				{
					"internalType": "address",
					"name": "sell_token",
					"type": "address"
				},
				{
					"internalType": "address",
					"name": "buy_token",
					"type": "address"
				},
				{
					"internalType": "uint256",
					"name": "lz_cid",
					"type": "uint256"
				}
			],
			"name": "getSums",
			"outputs": [
				{
					"components": [
						{
							"internalType": "uint96",
							"name": "taker_sum",
							"type": "uint96"
						},
						{
							"internalType": "uint96",
							"name": "maker_sum",
							"type": "uint96"
						},
						{
							"internalType": "uint96",
							"name": "maker_tracking",
							"type": "uint96"
						},
						{
							"internalType": "uint96",
							"name": "maker_default_quantity",
							"type": "uint96"
						},
						{
							"internalType": "uint96",
							"name": "contra_taker_sum",
							"type": "uint96"
						},
						{
							"internalType": "uint96",
							"name": "contra_maker_sum",
							"type": "uint96"
						}
					],
					"internalType": "struct Multi.Sums",
					"name": "",
					"type": "tuple"
				}
			],
			"stateMutability": "view",
			"type": "function"
		},
		{
			"inputs": [
				{
					"internalType": "address",
					"name": "sell_token",
					"type": "address"
				},
				{
					"internalType": "address",
					"name": "buy_token",
					"type": "address"
				},
				{
					"internalType": "uint256",
					"name": "lz_cid",
					"type": "uint256"
				}
			],
			"name": "getTakers",
			"outputs": [
				{
					"components": [
						{
							"internalType": "uint24",
							"name": "index",
							"type": "uint24"
						},
						{
							"internalType": "address",
							"name": "sender",
							"type": "address"
						},
						{
							"internalType": "uint96",
							"name": "amount",
							"type": "uint96"
						},
						{
							"internalType": "uint24",
							"name": "prev",
							"type": "uint24"
						},
						{
							"internalType": "uint24",
							"name": "next",
							"type": "uint24"
						},
						{
							"internalType": "uint24",
							"name": "epoch",
							"type": "uint24"
						},
						{
							"internalType": "uint96",
							"name": "balance",
							"type": "uint96"
						}
					],
					"internalType": "struct Multi.OrderEndpoint[]",
					"name": "active_takers",
					"type": "tuple[]"
				}
			],
			"stateMutability": "view",
			"type": "function"
		},
		{
			"inputs": [
				{
					"internalType": "uint16",
					"name": "_remoteChainId",
					"type": "uint16"
				}
			],
			"name": "getTrustedRemoteAddress",
			"outputs": [
				{
					"internalType": "bytes",
					"name": "",
					"type": "bytes"
				}
			],
			"stateMutability": "view",
			"type": "function"
		},
		{
			"inputs": [
				{
					"internalType": "uint96",
					"name": "taker_sum",
					"type": "uint96"
				},
				{
					"internalType": "uint96",
					"name": "maker_sum",
					"type": "uint96"
				},
				{
					"internalType": "uint96",
					"name": "contra_taker_sum",
					"type": "uint96"
				},
				{
					"internalType": "uint96",
					"name": "contra_maker_sum",
					"type": "uint96"
				},
				{
					"internalType": "uint96",
					"name": "quant_default",
					"type": "uint96"
				}
			],
			"name": "get_demands",
			"outputs": [
				{
					"internalType": "uint96",
					"name": "taker_demand",
					"type": "uint96"
				},
				{
					"internalType": "uint96",
					"name": "maker_demand",
					"type": "uint96"
				}
			],
			"stateMutability": "pure",
			"type": "function"
		},
		{
			"inputs": [
				{
					"internalType": "address",
					"name": "sell_token",
					"type": "address"
				},
				{
					"internalType": "address",
					"name": "buy_token",
					"type": "address"
				},
				{
					"internalType": "uint256",
					"name": "lz_cid",
					"type": "uint256"
				}
			],
			"name": "invokeRecovery",
			"outputs": [],
			"stateMutability": "nonpayable",
			"type": "function"
		},
		{
			"inputs": [
				{
					"internalType": "uint16",
					"name": "_srcChainId",
					"type": "uint16"
				},
				{
					"internalType": "bytes",
					"name": "_srcAddress",
					"type": "bytes"
				}
			],
			"name": "isTrustedRemote",
			"outputs": [
				{
					"internalType": "bool",
					"name": "",
					"type": "bool"
				}
			],
			"stateMutability": "view",
			"type": "function"
		},
		{
			"inputs": [],
			"name": "lzEndpoint",
			"outputs": [
				{
					"internalType": "contract ILayerZeroEndpoint",
					"name": "",
					"type": "address"
				}
			],
			"stateMutability": "view",
			"type": "function"
		},
		{
			"inputs": [
				{
					"internalType": "uint16",
					"name": "_srcChainId",
					"type": "uint16"
				},
				{
					"internalType": "bytes",
					"name": "_srcAddress",
					"type": "bytes"
				},
				{
					"internalType": "uint64",
					"name": "_nonce",
					"type": "uint64"
				},
				{
					"internalType": "bytes",
					"name": "_payload",
					"type": "bytes"
				}
			],
			"name": "lzReceive",
			"outputs": [],
			"stateMutability": "nonpayable",
			"type": "function"
		},
		{
			"inputs": [],
			"name": "lzc",
			"outputs": [
				{
					"internalType": "uint16",
					"name": "",
					"type": "uint16"
				}
			],
			"stateMutability": "view",
			"type": "function"
		},
		{
			"inputs": [],
			"name": "max_epochs",
			"outputs": [
				{
					"internalType": "uint256",
					"name": "",
					"type": "uint256"
				}
			],
			"stateMutability": "view",
			"type": "function"
		},
		{
			"inputs": [
				{
					"internalType": "uint16",
					"name": "",
					"type": "uint16"
				},
				{
					"internalType": "uint16",
					"name": "",
					"type": "uint16"
				}
			],
			"name": "minDstGasLookup",
			"outputs": [
				{
					"internalType": "uint256",
					"name": "",
					"type": "uint256"
				}
			],
			"stateMutability": "view",
			"type": "function"
		},
		{
			"inputs": [
				{
					"internalType": "uint16",
					"name": "_srcChainId",
					"type": "uint16"
				},
				{
					"internalType": "bytes",
					"name": "_srcAddress",
					"type": "bytes"
				},
				{
					"internalType": "uint64",
					"name": "_nonce",
					"type": "uint64"
				},
				{
					"internalType": "bytes",
					"name": "_payload",
					"type": "bytes"
				}
			],
			"name": "nonblockingLzReceive",
			"outputs": [],
			"stateMutability": "nonpayable",
			"type": "function"
		},
		{
			"inputs": [],
			"name": "owner",
			"outputs": [
				{
					"internalType": "address",
					"name": "",
					"type": "address"
				}
			],
			"stateMutability": "view",
			"type": "function"
		},
		{
			"inputs": [
				{
					"internalType": "uint16",
					"name": "",
					"type": "uint16"
				}
			],
			"name": "payloadSizeLimitLookup",
			"outputs": [
				{
					"internalType": "uint256",
					"name": "",
					"type": "uint256"
				}
			],
			"stateMutability": "view",
			"type": "function"
		},
		{
			"inputs": [
				{
					"internalType": "address",
					"name": "sell_token",
					"type": "address"
				},
				{
					"internalType": "address",
					"name": "buy_token",
					"type": "address"
				},
				{
					"internalType": "uint256",
					"name": "lz_cid",
					"type": "uint256"
				},
				{
					"internalType": "uint96",
					"name": "_quantity",
					"type": "uint96"
				}
			],
			"name": "placeMaker",
			"outputs": [],
			"stateMutability": "nonpayable",
			"type": "function"
		},
		{
			"inputs": [
				{
					"internalType": "address",
					"name": "sell_token",
					"type": "address"
				},
				{
					"internalType": "address",
					"name": "buy_token",
					"type": "address"
				},
				{
					"internalType": "uint256",
					"name": "lz_cid",
					"type": "uint256"
				},
				{
					"internalType": "uint96",
					"name": "_quantity",
					"type": "uint96"
				}
			],
			"name": "placeTaker",
			"outputs": [],
			"stateMutability": "nonpayable",
			"type": "function"
		},
		{
			"inputs": [],
			"name": "precrime",
			"outputs": [
				{
					"internalType": "address",
					"name": "",
					"type": "address"
				}
			],
			"stateMutability": "view",
			"type": "function"
		},
		{
			"inputs": [
				{
					"internalType": "address",
					"name": "sell_token",
					"type": "address"
				},
				{
					"internalType": "address",
					"name": "buy_token",
					"type": "address"
				},
				{
					"internalType": "uint256",
					"name": "lz_cid",
					"type": "uint256"
				},
				{
					"internalType": "uint24",
					"name": "order_index",
					"type": "uint24"
				}
			],
			"name": "recoverMaker",
			"outputs": [],
			"stateMutability": "nonpayable",
			"type": "function"
		},
		{
			"inputs": [
				{
					"internalType": "address",
					"name": "sell_token",
					"type": "address"
				},
				{
					"internalType": "address",
					"name": "buy_token",
					"type": "address"
				},
				{
					"internalType": "uint256",
					"name": "lz_cid",
					"type": "uint256"
				},
				{
					"internalType": "uint24",
					"name": "order_index",
					"type": "uint24"
				}
			],
			"name": "recoverTaker",
			"outputs": [],
			"stateMutability": "nonpayable",
			"type": "function"
		},
		{
			"inputs": [],
			"name": "renounceOwnership",
			"outputs": [],
			"stateMutability": "nonpayable",
			"type": "function"
		},
		{
			"inputs": [
				{
					"internalType": "uint16",
					"name": "_srcChainId",
					"type": "uint16"
				},
				{
					"internalType": "bytes",
					"name": "_srcAddress",
					"type": "bytes"
				},
				{
					"internalType": "uint64",
					"name": "_nonce",
					"type": "uint64"
				},
				{
					"internalType": "bytes",
					"name": "_payload",
					"type": "bytes"
				}
			],
			"name": "retryMessage",
			"outputs": [],
			"stateMutability": "payable",
			"type": "function"
		},
		{
			"inputs": [
				{
					"internalType": "address",
					"name": "sell_token",
					"type": "address"
				},
				{
					"internalType": "address",
					"name": "buy_token",
					"type": "address"
				},
				{
					"internalType": "uint256",
					"name": "lz_cid",
					"type": "uint256"
				}
			],
			"name": "send",
			"outputs": [],
			"stateMutability": "payable",
			"type": "function"
		},
		{
			"inputs": [
				{
					"internalType": "address",
					"name": "sell_token",
					"type": "address"
				},
				{
					"internalType": "address",
					"name": "buy_token",
					"type": "address"
				},
				{
					"internalType": "uint256",
					"name": "lz_cid",
					"type": "uint256"
				},
				{
					"internalType": "uint96",
					"name": "quant_default",
					"type": "uint96"
				}
			],
			"name": "send_orders",
			"outputs": [
				{
					"components": [
						{
							"internalType": "address",
							"name": "sender",
							"type": "address"
						},
						{
							"internalType": "uint96",
							"name": "amount",
							"type": "uint96"
						}
					],
					"internalType": "struct Multi.Payout[]",
					"name": "orders_to_send",
					"type": "tuple[]"
				},
				{
					"internalType": "uint96",
					"name": "quantity_default",
					"type": "uint96"
				}
			],
			"stateMutability": "nonpayable",
			"type": "function"
		},
		{
			"inputs": [
				{
					"internalType": "address",
					"name": "sell_token",
					"type": "address"
				},
				{
					"internalType": "address",
					"name": "buy_token",
					"type": "address"
				},
				{
					"internalType": "uint256",
					"name": "lz_cid",
					"type": "uint256"
				}
			],
			"name": "send_taker_sum",
			"outputs": [
				{
					"internalType": "uint96",
					"name": "taker_sum",
					"type": "uint96"
				}
			],
			"stateMutability": "nonpayable",
			"type": "function"
		},
		{
			"inputs": [
				{
					"internalType": "uint16",
					"name": "_version",
					"type": "uint16"
				},
				{
					"internalType": "uint16",
					"name": "_chainId",
					"type": "uint16"
				},
				{
					"internalType": "uint256",
					"name": "_configType",
					"type": "uint256"
				},
				{
					"internalType": "bytes",
					"name": "_config",
					"type": "bytes"
				}
			],
			"name": "setConfig",
			"outputs": [],
			"stateMutability": "nonpayable",
			"type": "function"
		},
		{
			"inputs": [
				{
					"internalType": "uint16",
					"name": "_dstChainId",
					"type": "uint16"
				},
				{
					"internalType": "uint16",
					"name": "_packetType",
					"type": "uint16"
				},
				{
					"internalType": "uint256",
					"name": "_minGas",
					"type": "uint256"
				}
			],
			"name": "setMinDstGas",
			"outputs": [],
			"stateMutability": "nonpayable",
			"type": "function"
		},
		{
			"inputs": [
				{
					"internalType": "uint16",
					"name": "_dstChainId",
					"type": "uint16"
				},
				{
					"internalType": "uint256",
					"name": "_size",
					"type": "uint256"
				}
			],
			"name": "setPayloadSizeLimit",
			"outputs": [],
			"stateMutability": "nonpayable",
			"type": "function"
		},
		{
			"inputs": [
				{
					"internalType": "address",
					"name": "_precrime",
					"type": "address"
				}
			],
			"name": "setPrecrime",
			"outputs": [],
			"stateMutability": "nonpayable",
			"type": "function"
		},
		{
			"inputs": [
				{
					"internalType": "uint16",
					"name": "_version",
					"type": "uint16"
				}
			],
			"name": "setReceiveVersion",
			"outputs": [],
			"stateMutability": "nonpayable",
			"type": "function"
		},
		{
			"inputs": [
				{
					"internalType": "uint16",
					"name": "_version",
					"type": "uint16"
				}
			],
			"name": "setSendVersion",
			"outputs": [],
			"stateMutability": "nonpayable",
			"type": "function"
		},
		{
			"inputs": [
				{
					"internalType": "uint16",
					"name": "_remoteChainId",
					"type": "uint16"
				},
				{
					"internalType": "bytes",
					"name": "_path",
					"type": "bytes"
				}
			],
			"name": "setTrustedRemote",
			"outputs": [],
			"stateMutability": "nonpayable",
			"type": "function"
		},
		{
			"inputs": [
				{
					"internalType": "uint16",
					"name": "_remoteChainId",
					"type": "uint16"
				},
				{
					"internalType": "bytes",
					"name": "_remoteAddress",
					"type": "bytes"
				}
			],
			"name": "setTrustedRemoteAddress",
			"outputs": [],
			"stateMutability": "nonpayable",
			"type": "function"
		},
		{
			"inputs": [
				{
					"internalType": "address",
					"name": "_contraspoke",
					"type": "address"
				},
				{
					"internalType": "uint16",
					"name": "contra_cid",
					"type": "uint16"
				}
			],
			"name": "setspoke",
			"outputs": [],
			"stateMutability": "nonpayable",
			"type": "function"
		},
		{
			"inputs": [
				{
					"internalType": "uint16",
					"name": "",
					"type": "uint16"
				}
			],
			"name": "spokes",
			"outputs": [
				{
					"internalType": "address",
					"name": "",
					"type": "address"
				}
			],
			"stateMutability": "view",
			"type": "function"
		},
		{
			"inputs": [
				{
					"internalType": "address",
					"name": "newOwner",
					"type": "address"
				}
			],
			"name": "transferOwnership",
			"outputs": [],
			"stateMutability": "nonpayable",
			"type": "function"
		},
		{
			"inputs": [
				{
					"internalType": "uint16",
					"name": "",
					"type": "uint16"
				}
			],
			"name": "trustedRemoteLookup",
			"outputs": [
				{
					"internalType": "bytes",
					"name": "",
					"type": "bytes"
				}
			],
			"stateMutability": "view",
			"type": "function"
		},
		{
			"stateMutability": "payable",
			"type": "receive"
		}
	]
}