{
	"contracts/examples/PingPong.sol": {
		"PingPong": {
			"abi": [
				{
					"inputs": [
						{
							"internalType": "address",
							"name": "_endpoint",
							"type": "address"
						},
						{
							"internalType": "uint16",
							"name": "_thisChainId",
							"type": "uint16"
						}
					],
					"stateMutability": "nonpayable",
					"type": "constructor"
				},
				{
					"anonymous": false,
					"inputs": [
						{
							"indexed": false,
							"internalType": "uint16",
							"name": "_srcChainId",
							"type": "uint16"
						},
						{
							"indexed": false,
							"internalType": "bytes",
							"name": "_srcAddress",
							"type": "bytes"
						},
						{
							"indexed": false,
							"internalType": "uint64",
							"name": "_nonce",
							"type": "uint64"
						},
						{
							"indexed": false,
							"internalType": "bytes",
							"name": "_payload",
							"type": "bytes"
						},
						{
							"indexed": false,
							"internalType": "bytes",
							"name": "_reason",
							"type": "bytes"
						}
					],
					"name": "MessageFailed",
					"type": "event"
				},
				{
					"anonymous": false,
					"inputs": [
						{
							"indexed": true,
							"internalType": "address",
							"name": "previousOwner",
							"type": "address"
						},
						{
							"indexed": true,
							"internalType": "address",
							"name": "newOwner",
							"type": "address"
						}
					],
					"name": "OwnershipTransferred",
					"type": "event"
				},
				{
					"anonymous": false,
					"inputs": [
						{
							"indexed": false,
							"internalType": "uint256",
							"name": "pings",
							"type": "uint256"
						}
					],
					"name": "Ping",
					"type": "event"
				},
				{
					"anonymous": false,
					"inputs": [
						{
							"indexed": false,
							"internalType": "uint16",
							"name": "_srcChainId",
							"type": "uint16"
						},
						{
							"indexed": false,
							"internalType": "bytes",
							"name": "_srcAddress",
							"type": "bytes"
						},
						{
							"indexed": false,
							"internalType": "uint64",
							"name": "_nonce",
							"type": "uint64"
						},
						{
							"indexed": false,
							"internalType": "bytes32",
							"name": "_payloadHash",
							"type": "bytes32"
						}
					],
					"name": "RetryMessageSuccess",
					"type": "event"
				},
				{
					"anonymous": false,
					"inputs": [
						{
							"indexed": false,
							"internalType": "uint16",
							"name": "_dstChainId",
							"type": "uint16"
						},
						{
							"indexed": false,
							"internalType": "uint16",
							"name": "_type",
							"type": "uint16"
						},
						{
							"indexed": false,
							"internalType": "uint256",
							"name": "_minDstGas",
							"type": "uint256"
						}
					],
					"name": "SetMinDstGas",
					"type": "event"
				},
				{
					"anonymous": false,
					"inputs": [
						{
							"indexed": false,
							"internalType": "address",
							"name": "precrime",
							"type": "address"
						}
					],
					"name": "SetPrecrime",
					"type": "event"
				},
				{
					"anonymous": false,
					"inputs": [
						{
							"indexed": false,
							"internalType": "uint16",
							"name": "_remoteChainId",
							"type": "uint16"
						},
						{
							"indexed": false,
							"internalType": "bytes",
							"name": "_path",
							"type": "bytes"
						}
					],
					"name": "SetTrustedRemote",
					"type": "event"
				},
				{
					"anonymous": false,
					"inputs": [
						{
							"indexed": false,
							"internalType": "uint16",
							"name": "_remoteChainId",
							"type": "uint16"
						},
						{
							"indexed": false,
							"internalType": "bytes",
							"name": "_remoteAddress",
							"type": "bytes"
						}
					],
					"name": "SetTrustedRemoteAddress",
					"type": "event"
				},
				{
					"inputs": [],
					"name": "DEFAULT_PAYLOAD_SIZE_LIMIT",
					"outputs": [
						{
							"internalType": "uint256",
							"name": "",
							"type": "uint256"
						}
					],
					"stateMutability": "view",
					"type": "function"
				},
				{
					"inputs": [
						{
							"internalType": "uint16",
							"name": "",
							"type": "uint16"
						},
						{
							"internalType": "bytes",
							"name": "",
							"type": "bytes"
						},
						{
							"internalType": "uint64",
							"name": "",
							"type": "uint64"
						}
					],
					"name": "failedMessages",
					"outputs": [
						{
							"internalType": "bytes32",
							"name": "",
							"type": "bytes32"
						}
					],
					"stateMutability": "view",
					"type": "function"
				},
				{
					"inputs": [
						{
							"internalType": "uint16",
							"name": "_srcChainId",
							"type": "uint16"
						},
						{
							"internalType": "bytes",
							"name": "_srcAddress",
							"type": "bytes"
						}
					],
					"name": "forceResumeReceive",
					"outputs": [],
					"stateMutability": "nonpayable",
					"type": "function"
				},
				{
					"inputs": [
						{
							"internalType": "uint16",
							"name": "_version",
							"type": "uint16"
						},
						{
							"internalType": "uint16",
							"name": "_chainId",
							"type": "uint16"
						},
						{
							"internalType": "address",
							"name": "",
							"type": "address"
						},
						{
							"internalType": "uint256",
							"name": "_configType",
							"type": "uint256"
						}
					],
					"name": "getConfig",
					"outputs": [
						{
							"internalType": "bytes",
							"name": "",
							"type": "bytes"
						}
					],
					"stateMutability": "view",
					"type": "function"
				},
				{
					"inputs": [
						{
							"internalType": "uint16",
							"name": "_remoteChainId",
							"type": "uint16"
						}
					],
					"name": "getTrustedRemoteAddress",
					"outputs": [
						{
							"internalType": "bytes",
							"name": "",
							"type": "bytes"
						}
					],
					"stateMutability": "view",
					"type": "function"
				},
				{
					"inputs": [
						{
							"internalType": "uint16",
							"name": "_srcChainId",
							"type": "uint16"
						},
						{
							"internalType": "bytes",
							"name": "_srcAddress",
							"type": "bytes"
						}
					],
					"name": "isTrustedRemote",
					"outputs": [
						{
							"internalType": "bool",
							"name": "",
							"type": "bool"
						}
					],
					"stateMutability": "view",
					"type": "function"
				},
				{
					"inputs": [],
					"name": "lzEndpoint",
					"outputs": [
						{
							"internalType": "contract ILayerZeroEndpoint",
							"name": "",
							"type": "address"
						}
					],
					"stateMutability": "view",
					"type": "function"
				},
				{
					"inputs": [
						{
							"internalType": "uint16",
							"name": "_srcChainId",
							"type": "uint16"
						},
						{
							"internalType": "bytes",
							"name": "_srcAddress",
							"type": "bytes"
						},
						{
							"internalType": "uint64",
							"name": "_nonce",
							"type": "uint64"
						},
						{
							"internalType": "bytes",
							"name": "_payload",
							"type": "bytes"
						}
					],
					"name": "lzReceive",
					"outputs": [],
					"stateMutability": "nonpayable",
					"type": "function"
				},
				{
					"inputs": [],
					"name": "lzc",
					"outputs": [
						{
							"internalType": "uint16",
							"name": "",
							"type": "uint16"
						}
					],
					"stateMutability": "view",
					"type": "function"
				},
				{
					"inputs": [
						{
							"internalType": "uint16",
							"name": "",
							"type": "uint16"
						},
						{
							"internalType": "uint16",
							"name": "",
							"type": "uint16"
						}
					],
					"name": "minDstGasLookup",
					"outputs": [
						{
							"internalType": "uint256",
							"name": "",
							"type": "uint256"
						}
					],
					"stateMutability": "view",
					"type": "function"
				},
				{
					"inputs": [
						{
							"internalType": "uint16",
							"name": "_srcChainId",
							"type": "uint16"
						},
						{
							"internalType": "bytes",
							"name": "_srcAddress",
							"type": "bytes"
						},
						{
							"internalType": "uint64",
							"name": "_nonce",
							"type": "uint64"
						},
						{
							"internalType": "bytes",
							"name": "_payload",
							"type": "bytes"
						}
					],
					"name": "nonblockingLzReceive",
					"outputs": [],
					"stateMutability": "nonpayable",
					"type": "function"
				},
				{
					"inputs": [],
					"name": "owner",
					"outputs": [
						{
							"internalType": "address",
							"name": "",
							"type": "address"
						}
					],
					"stateMutability": "view",
					"type": "function"
				},
				{
					"inputs": [
						{
							"internalType": "uint16",
							"name": "",
							"type": "uint16"
						}
					],
					"name": "payloadSizeLimitLookup",
					"outputs": [
						{
							"internalType": "uint256",
							"name": "",
							"type": "uint256"
						}
					],
					"stateMutability": "view",
					"type": "function"
				},
				{
					"inputs": [
						{
							"internalType": "uint16",
							"name": "_dstChainId",
							"type": "uint16"
						},
						{
							"internalType": "address",
							"name": "",
							"type": "address"
						},
						{
							"internalType": "uint256",
							"name": "pings",
							"type": "uint256"
						}
					],
					"name": "ping",
					"outputs": [],
					"stateMutability": "payable",
					"type": "function"
				},
				{
					"inputs": [],
					"name": "precrime",
					"outputs": [
						{
							"internalType": "address",
							"name": "",
							"type": "address"
						}
					],
					"stateMutability": "view",
					"type": "function"
				},
				{
					"inputs": [],
					"name": "renounceOwnership",
					"outputs": [],
					"stateMutability": "nonpayable",
					"type": "function"
				},
				{
					"inputs": [
						{
							"internalType": "uint16",
							"name": "_srcChainId",
							"type": "uint16"
						},
						{
							"internalType": "bytes",
							"name": "_srcAddress",
							"type": "bytes"
						},
						{
							"internalType": "uint64",
							"name": "_nonce",
							"type": "uint64"
						},
						{
							"internalType": "bytes",
							"name": "_payload",
							"type": "bytes"
						}
					],
					"name": "retryMessage",
					"outputs": [],
					"stateMutability": "payable",
					"type": "function"
				},
				{
					"inputs": [
						{
							"internalType": "uint16",
							"name": "_version",
							"type": "uint16"
						},
						{
							"internalType": "uint16",
							"name": "_chainId",
							"type": "uint16"
						},
						{
							"internalType": "uint256",
							"name": "_configType",
							"type": "uint256"
						},
						{
							"internalType": "bytes",
							"name": "_config",
							"type": "bytes"
						}
					],
					"name": "setConfig",
					"outputs": [],
					"stateMutability": "nonpayable",
					"type": "function"
				},
				{
					"inputs": [
						{
							"internalType": "uint16",
							"name": "_dstChainId",
							"type": "uint16"
						},
						{
							"internalType": "uint16",
							"name": "_packetType",
							"type": "uint16"
						},
						{
							"internalType": "uint256",
							"name": "_minGas",
							"type": "uint256"
						}
					],
					"name": "setMinDstGas",
					"outputs": [],
					"stateMutability": "nonpayable",
					"type": "function"
				},
				{
					"inputs": [
						{
							"internalType": "uint16",
							"name": "_dstChainId",
							"type": "uint16"
						},
						{
							"internalType": "uint256",
							"name": "_size",
							"type": "uint256"
						}
					],
					"name": "setPayloadSizeLimit",
					"outputs": [],
					"stateMutability": "nonpayable",
					"type": "function"
				},
				{
					"inputs": [
						{
							"internalType": "address",
							"name": "_precrime",
							"type": "address"
						}
					],
					"name": "setPrecrime",
					"outputs": [],
					"stateMutability": "nonpayable",
					"type": "function"
				},
				{
					"inputs": [
						{
							"internalType": "uint16",
							"name": "_version",
							"type": "uint16"
						}
					],
					"name": "setReceiveVersion",
					"outputs": [],
					"stateMutability": "nonpayable",
					"type": "function"
				},
				{
					"inputs": [
						{
							"internalType": "uint16",
							"name": "_version",
							"type": "uint16"
						}
					],
					"name": "setSendVersion",
					"outputs": [],
					"stateMutability": "nonpayable",
					"type": "function"
				},
				{
					"inputs": [
						{
							"internalType": "address",
							"name": "_contraspoke",
							"type": "address"
						},
						{
							"internalType": "uint16",
							"name": "lz_cid",
							"type": "uint16"
						}
					],
					"name": "setSpoke",
					"outputs": [],
					"stateMutability": "nonpayable",
					"type": "function"
				},
				{
					"inputs": [
						{
							"internalType": "uint16",
							"name": "_remoteChainId",
							"type": "uint16"
						},
						{
							"internalType": "bytes",
							"name": "_path",
							"type": "bytes"
						}
					],
					"name": "setTrustedRemote",
					"outputs": [],
					"stateMutability": "nonpayable",
					"type": "function"
				},
				{
					"inputs": [
						{
							"internalType": "uint16",
							"name": "_remoteChainId",
							"type": "uint16"
						},
						{
							"internalType": "bytes",
							"name": "_remoteAddress",
							"type": "bytes"
						}
					],
					"name": "setTrustedRemoteAddress",
					"outputs": [],
					"stateMutability": "nonpayable",
					"type": "function"
				},
				{
					"inputs": [
						{
							"internalType": "uint16",
							"name": "",
							"type": "uint16"
						}
					],
					"name": "spokes",
					"outputs": [
						{
							"internalType": "address",
							"name": "",
							"type": "address"
						}
					],
					"stateMutability": "view",
					"type": "function"
				},
				{
					"inputs": [
						{
							"internalType": "address",
							"name": "newOwner",
							"type": "address"
						}
					],
					"name": "transferOwnership",
					"outputs": [],
					"stateMutability": "nonpayable",
					"type": "function"
				},
				{
					"inputs": [
						{
							"internalType": "uint16",
							"name": "",
							"type": "uint16"
						}
					],
					"name": "trustedRemoteLookup",
					"outputs": [
						{
							"internalType": "bytes",
							"name": "",
							"type": "bytes"
						}
					],
					"stateMutability": "view",
					"type": "function"
				},
				{
					"stateMutability": "payable",
					"type": "receive"
				}
			],
			"devdoc": {
				"kind": "dev",
				"methods": {
					"owner()": {
						"details": "Returns the address of the current owner."
					},
					"renounceOwnership()": {
						"details": "Leaves the contract without owner. It will not be possible to call `onlyOwner` functions. Can only be called by the current owner. NOTE: Renouncing ownership will leave the contract without an owner, thereby disabling any functionality that is only available to the owner."
					},
					"transferOwnership(address)": {
						"details": "Transfers ownership of the contract to a new account (`newOwner`). Can only be called by the current owner."
					}
				},
				"version": 1
			},
			"evm": {
				"assembly": "    /* \"contracts/examples/PingPong.sol\":489:3099  contract PingPong is NonblockingLzApp {... */\n  mstore(0x40, 0xa0)\n    /* \"contracts/examples/PingPong.sol\":778:893  constructor(address _endpoint, uint16 _thisChainId) NonblockingLzApp(_endpoint) {... */\n  callvalue\n  dup1\n  iszero\n  tag_1\n  jumpi\n  0x00\n  dup1\n  revert\ntag_1:\n  pop\n  mload(0x40)\n  sub(codesize, bytecodeSize)\n  dup1\n  bytecodeSize\n  dup4\n  codecopy\n  dup2\n  add\n  0x40\n  dup2\n  swap1\n  mstore\n  tag_2\n  swap2\n  tag_3\n  jump\t// in\ntag_2:\n    /* \"contracts/examples/PingPong.sol\":847:856  _endpoint */\n  dup2\n  dup1\n    /* \"contracts/openzeppelin/contracts/access/Ownable.sol\":936:968  _transferOwnership(_msgSender()) */\n  tag_9\n    /* \"contracts/openzeppelin/contracts/utils/Context.sol\":719:729  msg.sender */\n  caller\n    /* \"contracts/openzeppelin/contracts/access/Ownable.sol\":936:954  _transferOwnership */\n  tag_12\n    /* \"contracts/openzeppelin/contracts/access/Ownable.sol\":936:968  _transferOwnership(_msgSender()) */\n  jump\t// in\ntag_9:\n  sub(shl(0xa0, 0x01), 0x01)\n    /* \"contracts/lzApp/LzApp.sol\":1201:1243  lzEndpoint = ILayerZeroEndpoint(_endpoint) */\n  and\n  0x80\n  mstore\n  pop\n    /* \"contracts/examples/PingPong.sol\":868:871  lzc */\n  0x06\n    /* \"contracts/examples/PingPong.sol\":868:886  lzc = _thisChainId */\n  dup1\n  sload\n  not(0xffff)\n  and\n  0xffff\n  swap3\n  swap1\n  swap3\n  and\n  swap2\n  swap1\n  swap2\n  or\n  swap1\n  sstore\n  pop\n    /* \"contracts/examples/PingPong.sol\":489:3099  contract PingPong is NonblockingLzApp {... */\n  jump(tag_19)\n    /* \"contracts/openzeppelin/contracts/access/Ownable.sol\":2426:2613  function _transferOwnership(address newOwner) internal virtual {... */\ntag_12:\n    /* \"contracts/openzeppelin/contracts/access/Ownable.sol\":2499:2515  address oldOwner */\n  0x00\n    /* \"contracts/openzeppelin/contracts/access/Ownable.sol\":2518:2524  _owner */\n  dup1\n  sload\n  sub(shl(0xa0, 0x01), 0x01)\n    /* \"contracts/openzeppelin/contracts/access/Ownable.sol\":2534:2551  _owner = newOwner */\n  dup4\n  dup2\n  and\n  not(sub(shl(0xa0, 0x01), 0x01))\n  dup4\n  and\n  dup2\n  or\n  dup5\n  sstore\n    /* \"contracts/openzeppelin/contracts/access/Ownable.sol\":2566:2606  OwnershipTransferred(oldOwner, newOwner) */\n  mload(0x40)\n    /* \"contracts/openzeppelin/contracts/access/Ownable.sol\":2518:2524  _owner */\n  swap2\n  swap1\n  swap3\n  and\n  swap3\n  dup4\n  swap2\n    /* \"contracts/openzeppelin/contracts/access/Ownable.sol\":2566:2606  OwnershipTransferred(oldOwner, newOwner) */\n  0x8be0079c531659141344cd1fd0a4f28419497f9722a3daafe3b4186f6b6457e0\n  swap2\n    /* \"contracts/openzeppelin/contracts/access/Ownable.sol\":2499:2515  address oldOwner */\n  swap1\n    /* \"contracts/openzeppelin/contracts/access/Ownable.sol\":2566:2606  OwnershipTransferred(oldOwner, newOwner) */\n  log3\n    /* \"contracts/openzeppelin/contracts/access/Ownable.sol\":2489:2613  {... */\n  pop\n    /* \"contracts/openzeppelin/contracts/access/Ownable.sol\":2426:2613  function _transferOwnership(address newOwner) internal virtual {... */\n  pop\n  jump\t// out\n    /* \"#utility.yul\":14:465   */\ntag_3:\n    /* \"#utility.yul\":92:98   */\n  0x00\n    /* \"#utility.yul\":100:106   */\n  dup1\n    /* \"#utility.yul\":153:155   */\n  0x40\n    /* \"#utility.yul\":141:150   */\n  dup4\n    /* \"#utility.yul\":132:139   */\n  dup6\n    /* \"#utility.yul\":128:151   */\n  sub\n    /* \"#utility.yul\":124:156   */\n  slt\n    /* \"#utility.yul\":121:173   */\n  iszero\n  tag_21\n  jumpi\n    /* \"#utility.yul\":169:170   */\n  0x00\n    /* \"#utility.yul\":166:167   */\n  dup1\n    /* \"#utility.yul\":159:171   */\n  revert\n    /* \"#utility.yul\":121:173   */\ntag_21:\n    /* \"#utility.yul\":195:211   */\n  dup3\n  mload\n  sub(shl(0xa0, 0x01), 0x01)\n    /* \"#utility.yul\":240:271   */\n  dup2\n  and\n    /* \"#utility.yul\":230:272   */\n  dup2\n  eq\n    /* \"#utility.yul\":220:290   */\n  tag_22\n  jumpi\n    /* \"#utility.yul\":286:287   */\n  0x00\n    /* \"#utility.yul\":283:284   */\n  dup1\n    /* \"#utility.yul\":276:288   */\n  revert\n    /* \"#utility.yul\":220:290   */\ntag_22:\n    /* \"#utility.yul\":359:361   */\n  0x20\n    /* \"#utility.yul\":344:362   */\n  dup5\n  add\n    /* \"#utility.yul\":338:363   */\n  mload\n    /* \"#utility.yul\":309:314   */\n  swap1\n  swap3\n  pop\n    /* \"#utility.yul\":407:413   */\n  0xffff\n    /* \"#utility.yul\":394:414   */\n  dup2\n  and\n    /* \"#utility.yul\":382:415   */\n  dup2\n  eq\n    /* \"#utility.yul\":372:433   */\n  tag_23\n  jumpi\n    /* \"#utility.yul\":429:430   */\n  0x00\n    /* \"#utility.yul\":426:427   */\n  dup1\n    /* \"#utility.yul\":419:431   */\n  revert\n    /* \"#utility.yul\":372:433   */\ntag_23:\n    /* \"#utility.yul\":452:459   */\n  dup1\n    /* \"#utility.yul\":442:459   */\n  swap2\n  pop\n  pop\n    /* \"#utility.yul\":14:465   */\n  swap3\n  pop\n  swap3\n  swap1\n  pop\n  jump\t// out\ntag_19:\n    /* \"contracts/examples/PingPong.sol\":489:3099  contract PingPong is NonblockingLzApp {... */\n  mload(0x80)\n  codecopy(0x00, dataOffset(sub_0), dataSize(sub_0))\n  0x00\n  assignImmutable(\"0x2c7ca6eaf0dd20913c55b4658e5b02864b47cfd1b3241634c484bb991f3fabe0\")\n  return(0x00, dataSize(sub_0))\nstop\n\nsub_0: assembly {\n        /* \"contracts/examples/PingPong.sol\":489:3099  contract PingPong is NonblockingLzApp {... */\n      mstore(0x40, 0x80)\n      jumpi(tag_1, lt(calldatasize, 0x04))\n      shr(0xe0, calldataload(0x00))\n      dup1\n      0x8da5cb5b\n      gt\n      tag_32\n      jumpi\n      dup1\n      0xcbed8b9c\n      gt\n      tag_33\n      jumpi\n      dup1\n      0xeb8d72b7\n      gt\n      tag_34\n      jumpi\n      dup1\n      0xeb8d72b7\n      eq\n      tag_28\n      jumpi\n      dup1\n      0xf2d566fc\n      eq\n      tag_29\n      jumpi\n      dup1\n      0xf2fde38b\n      eq\n      tag_30\n      jumpi\n      dup1\n      0xf5ecbdbc\n      eq\n      tag_31\n      jumpi\n      0x00\n      dup1\n      revert\n    tag_34:\n      dup1\n      0xcbed8b9c\n      eq\n      tag_24\n      jumpi\n      dup1\n      0xcfe27eba\n      eq\n      tag_25\n      jumpi\n      dup1\n      0xd1deba1f\n      eq\n      tag_26\n      jumpi\n      dup1\n      0xdf2a5b3b\n      eq\n      tag_27\n      jumpi\n      0x00\n      dup1\n      revert\n    tag_33:\n      dup1\n      0xa6c3d165\n      gt\n      tag_35\n      jumpi\n      dup1\n      0xa6c3d165\n      eq\n      tag_20\n      jumpi\n      dup1\n      0xb353aaa7\n      eq\n      tag_21\n      jumpi\n      dup1\n      0xbaf3292d\n      eq\n      tag_22\n      jumpi\n      dup1\n      0xc4461834\n      eq\n      tag_23\n      jumpi\n      0x00\n      dup1\n      revert\n    tag_35:\n      dup1\n      0x8da5cb5b\n      eq\n      tag_17\n      jumpi\n      dup1\n      0x950c8a74\n      eq\n      tag_18\n      jumpi\n      dup1\n      0x9f38369a\n      eq\n      tag_19\n      jumpi\n      0x00\n      dup1\n      revert\n    tag_32:\n      dup1\n      0x3f1f4fa4\n      gt\n      tag_36\n      jumpi\n      dup1\n      0x66ad5c8a\n      gt\n      tag_37\n      jumpi\n      dup1\n      0x66ad5c8a\n      eq\n      tag_13\n      jumpi\n      dup1\n      0x715018a6\n      eq\n      tag_14\n      jumpi\n      dup1\n      0x7533d788\n      eq\n      tag_15\n      jumpi\n      dup1\n      0x8cfd8f5c\n      eq\n      tag_16\n      jumpi\n      0x00\n      dup1\n      revert\n    tag_37:\n      dup1\n      0x3f1f4fa4\n      eq\n      tag_10\n      jumpi\n      dup1\n      0x42d65a8d\n      eq\n      tag_11\n      jumpi\n      dup1\n      0x5b8c41e6\n      eq\n      tag_12\n      jumpi\n      0x00\n      dup1\n      revert\n    tag_36:\n      dup1\n      0x10ddb137\n      gt\n      tag_38\n      jumpi\n      dup1\n      0x10ddb137\n      eq\n      tag_6\n      jumpi\n      dup1\n      0x3057c9be\n      eq\n      tag_7\n      jumpi\n      dup1\n      0x30ff44b6\n      eq\n      tag_8\n      jumpi\n      dup1\n      0x3d8b38f6\n      eq\n      tag_9\n      jumpi\n      0x00\n      dup1\n      revert\n    tag_38:\n      dup1\n      0x1d3567\n      eq\n      tag_3\n      jumpi\n      dup1\n      0x07e0db17\n      eq\n      tag_4\n      jumpi\n      dup1\n      0x0df37483\n      eq\n      tag_5\n      jumpi\n      0x00\n      dup1\n      revert\n    tag_1:\n      jumpi(tag_2, calldatasize)\n      stop\n    tag_2:\n      0x00\n      dup1\n      revert\n        /* \"contracts/lzApp/LzApp.sol\":1256:2009  function lzReceive(uint16 _srcChainId, bytes calldata _srcAddress, uint64 _nonce, bytes calldata _payload) public virtual override {... */\n    tag_3:\n      callvalue\n      dup1\n      iszero\n      tag_41\n      jumpi\n      0x00\n      dup1\n      revert\n    tag_41:\n      pop\n      tag_42\n      tag_43\n      calldatasize\n      0x04\n      tag_44\n      jump\t// in\n    tag_43:\n      tag_45\n      jump\t// in\n    tag_42:\n      stop\n        /* \"contracts/lzApp/LzApp.sol\":4501:4622  function setSendVersion(uint16 _version) external override onlyOwner {... */\n    tag_4:\n      callvalue\n      dup1\n      iszero\n      tag_46\n      jumpi\n      0x00\n      dup1\n      revert\n    tag_46:\n      pop\n      tag_42\n      tag_48\n      calldatasize\n      0x04\n      tag_49\n      jump\t// in\n    tag_48:\n      tag_50\n      jump\t// in\n        /* \"contracts/lzApp/LzApp.sol\":6384:6524  function setPayloadSizeLimit(uint16 _dstChainId, uint _size) external onlyOwner {... */\n    tag_5:\n      callvalue\n      dup1\n      iszero\n      tag_51\n      jumpi\n      0x00\n      dup1\n      revert\n    tag_51:\n      pop\n      tag_42\n      tag_53\n      calldatasize\n      0x04\n      tag_54\n      jump\t// in\n    tag_53:\n      tag_55\n      jump\t// in\n        /* \"contracts/lzApp/LzApp.sol\":4628:4755  function setReceiveVersion(uint16 _version) external override onlyOwner {... */\n    tag_6:\n      callvalue\n      dup1\n      iszero\n      tag_56\n      jumpi\n      0x00\n      dup1\n      revert\n    tag_56:\n      pop\n      tag_42\n      tag_58\n      calldatasize\n      0x04\n      tag_49\n      jump\t// in\n    tag_58:\n      tag_59\n      jump\t// in\n        /* \"contracts/examples/PingPong.sol\":2815:3018  function setSpoke(address _contraspoke, uint16 lz_cid) public onlyOwner {... */\n    tag_7:\n      callvalue\n      dup1\n      iszero\n      tag_60\n      jumpi\n      0x00\n      dup1\n      revert\n    tag_60:\n      pop\n      tag_42\n      tag_62\n      calldatasize\n      0x04\n      tag_63\n      jump\t// in\n    tag_62:\n      tag_64\n      jump\t// in\n        /* \"contracts/examples/PingPong.sol\":636:653  uint16 public lzc */\n    tag_8:\n      callvalue\n      dup1\n      iszero\n      tag_65\n      jumpi\n      0x00\n      dup1\n      revert\n    tag_65:\n      pop\n      sload(0x06)\n      tag_66\n      swap1\n      0xffff\n      and\n      dup2\n      jump\n    tag_66:\n      mload(0x40)\n        /* \"#utility.yul\":2634:2640   */\n      0xffff\n        /* \"#utility.yul\":2622:2641   */\n      swap1\n      swap2\n      and\n        /* \"#utility.yul\":2604:2642   */\n      dup2\n      mstore\n        /* \"#utility.yul\":2592:2594   */\n      0x20\n        /* \"#utility.yul\":2577:2595   */\n      add\n        /* \"contracts/examples/PingPong.sol\":636:653  uint16 public lzc */\n    tag_68:\n      mload(0x40)\n      dup1\n      swap2\n      sub\n      swap1\n      return\n        /* \"contracts/lzApp/LzApp.sol\":6619:6866  function isTrustedRemote(uint16 _srcChainId, bytes calldata _srcAddress) external view returns (bool) {... */\n    tag_9:\n      callvalue\n      dup1\n      iszero\n      tag_70\n      jumpi\n      0x00\n      dup1\n      revert\n    tag_70:\n      pop\n      tag_71\n      tag_72\n      calldatasize\n      0x04\n      tag_73\n      jump\t// in\n    tag_72:\n      tag_74\n      jump\t// in\n    tag_71:\n      mload(0x40)\n        /* \"#utility.yul\":3304:3318   */\n      swap1\n      iszero\n        /* \"#utility.yul\":3297:3319   */\n      iszero\n        /* \"#utility.yul\":3279:3320   */\n      dup2\n      mstore\n        /* \"#utility.yul\":3267:3269   */\n      0x20\n        /* \"#utility.yul\":3252:3270   */\n      add\n        /* \"contracts/lzApp/LzApp.sol\":6619:6866  function isTrustedRemote(uint16 _srcChainId, bytes calldata _srcAddress) external view returns (bool) {... */\n      tag_68\n        /* \"#utility.yul\":3139:3326   */\n      jump\n        /* \"contracts/lzApp/LzApp.sol\":810:863  mapping(uint16 => uint) public payloadSizeLimitLookup */\n    tag_10:\n      callvalue\n      dup1\n      iszero\n      tag_77\n      jumpi\n      0x00\n      dup1\n      revert\n    tag_77:\n      pop\n      tag_78\n      tag_79\n      calldatasize\n      0x04\n      tag_49\n      jump\t// in\n    tag_79:\n      mstore(0x20, 0x03)\n      0x00\n      swap1\n      dup2\n      mstore\n      0x40\n      swap1\n      keccak256\n      sload\n      dup2\n      jump\n    tag_78:\n      mload(0x40)\n        /* \"#utility.yul\":3477:3502   */\n      swap1\n      dup2\n      mstore\n        /* \"#utility.yul\":3465:3467   */\n      0x20\n        /* \"#utility.yul\":3450:3468   */\n      add\n        /* \"contracts/lzApp/LzApp.sol\":810:863  mapping(uint16 => uint) public payloadSizeLimitLookup */\n      tag_68\n        /* \"#utility.yul\":3331:3508   */\n      jump\n        /* \"contracts/lzApp/LzApp.sol\":4761:4937  function forceResumeReceive(uint16 _srcChainId, bytes calldata _srcAddress) external override onlyOwner {... */\n    tag_11:\n      callvalue\n      dup1\n      iszero\n      tag_83\n      jumpi\n      0x00\n      dup1\n      revert\n    tag_83:\n      pop\n      tag_42\n      tag_85\n      calldatasize\n      0x04\n      tag_73\n      jump\t// in\n    tag_85:\n      tag_86\n      jump\t// in\n        /* \"contracts/lzApp/NonblockingLzApp.sol\":617:702  mapping(uint16 => mapping(bytes => mapping(uint64 => bytes32))) public failedMessages */\n    tag_12:\n      callvalue\n      dup1\n      iszero\n      tag_87\n      jumpi\n      0x00\n      dup1\n      revert\n    tag_87:\n      pop\n      tag_78\n      tag_89\n      calldatasize\n      0x04\n      tag_90\n      jump\t// in\n    tag_89:\n      0x05\n      0x20\n      swap1\n      dup2\n      mstore\n      0x00\n      swap4\n      dup5\n      mstore\n      0x40\n      dup1\n      dup6\n      keccak256\n      dup5\n      mload\n      dup1\n      dup7\n      add\n      dup5\n      add\n      dup1\n      mload\n      swap3\n      dup2\n      mstore\n      swap1\n      dup5\n      add\n      swap6\n      dup5\n      add\n      swap6\n      swap1\n      swap6\n      keccak256\n      swap5\n      mstore\n      swap3\n      swap1\n      mstore\n      dup3\n      mstore\n      swap1\n      keccak256\n      sload\n      dup2\n      jump\n        /* \"contracts/lzApp/NonblockingLzApp.sol\":1820:2162  function nonblockingLzReceive(uint16 _srcChainId, bytes calldata _srcAddress, uint64 _nonce, bytes calldata _payload) public virtual {... */\n    tag_13:\n      callvalue\n      dup1\n      iszero\n      tag_94\n      jumpi\n      0x00\n      dup1\n      revert\n    tag_94:\n      pop\n      tag_42\n      tag_96\n      calldatasize\n      0x04\n      tag_44\n      jump\t// in\n    tag_96:\n      tag_97\n      jump\t// in\n        /* \"contracts/openzeppelin/contracts/access/Ownable.sol\":1824:1925  function renounceOwnership() public virtual onlyOwner {... */\n    tag_14:\n      callvalue\n      dup1\n      iszero\n      tag_98\n      jumpi\n      0x00\n      dup1\n      revert\n    tag_98:\n      pop\n      tag_42\n      tag_100\n      jump\t// in\n        /* \"contracts/lzApp/LzApp.sol\":682:733  mapping(uint16 => bytes) public trustedRemoteLookup */\n    tag_15:\n      callvalue\n      dup1\n      iszero\n      tag_101\n      jumpi\n      0x00\n      dup1\n      revert\n    tag_101:\n      pop\n      tag_102\n      tag_103\n      calldatasize\n      0x04\n      tag_49\n      jump\t// in\n    tag_103:\n      tag_104\n      jump\t// in\n    tag_102:\n      mload(0x40)\n      tag_68\n      swap2\n      swap1\n      tag_106\n      jump\t// in\n        /* \"contracts/lzApp/LzApp.sol\":739:804  mapping(uint16 => mapping(uint16 => uint)) public minDstGasLookup */\n    tag_16:\n      callvalue\n      dup1\n      iszero\n      tag_107\n      jumpi\n      0x00\n      dup1\n      revert\n    tag_107:\n      pop\n      tag_78\n      tag_109\n      calldatasize\n      0x04\n      tag_110\n      jump\t// in\n    tag_109:\n      0x02\n      0x20\n      swap1\n      dup2\n      mstore\n      0x00\n      swap3\n      dup4\n      mstore\n      0x40\n      dup1\n      dup5\n      keccak256\n      swap1\n      swap2\n      mstore\n      swap1\n      dup3\n      mstore\n      swap1\n      keccak256\n      sload\n      dup2\n      jump\n        /* \"contracts/openzeppelin/contracts/access/Ownable.sol\":1201:1286  function owner() public view virtual returns (address) {... */\n    tag_17:\n      callvalue\n      dup1\n      iszero\n      tag_113\n      jumpi\n      0x00\n      dup1\n      revert\n    tag_113:\n      pop\n        /* \"contracts/openzeppelin/contracts/access/Ownable.sol\":1247:1254  address */\n      0x00\n        /* \"contracts/openzeppelin/contracts/access/Ownable.sol\":1273:1279  _owner */\n      sload\n      sub(shl(0xa0, 0x01), 0x01)\n      and\n        /* \"contracts/openzeppelin/contracts/access/Ownable.sol\":1201:1286  function owner() public view virtual returns (address) {... */\n    tag_114:\n      mload(0x40)\n      sub(shl(0xa0, 0x01), 0x01)\n        /* \"#utility.yul\":6295:6327   */\n      swap1\n      swap2\n      and\n        /* \"#utility.yul\":6277:6328   */\n      dup2\n      mstore\n        /* \"#utility.yul\":6265:6267   */\n      0x20\n        /* \"#utility.yul\":6250:6268   */\n      add\n        /* \"contracts/openzeppelin/contracts/access/Ownable.sol\":1201:1286  function owner() public view virtual returns (address) {... */\n      tag_68\n        /* \"#utility.yul\":6131:6334   */\n      jump\n        /* \"contracts/lzApp/LzApp.sol\":869:892  address public precrime */\n    tag_18:\n      callvalue\n      dup1\n      iszero\n      tag_118\n      jumpi\n      0x00\n      dup1\n      revert\n    tag_118:\n      pop\n      sload(0x04)\n      tag_114\n      swap1\n      sub(shl(0xa0, 0x01), 0x01)\n      and\n      dup2\n      jump\n        /* \"contracts/lzApp/LzApp.sol\":5574:5900  function getTrustedRemoteAddress(uint16 _remoteChainId) external view returns (bytes memory) {... */\n    tag_19:\n      callvalue\n      dup1\n      iszero\n      tag_122\n      jumpi\n      0x00\n      dup1\n      revert\n    tag_122:\n      pop\n      tag_102\n      tag_124\n      calldatasize\n      0x04\n      tag_49\n      jump\t// in\n    tag_124:\n      tag_125\n      jump\t// in\n        /* \"contracts/lzApp/LzApp.sol\":5290:5568  function setTrustedRemoteAddress(uint16 _remoteChainId, bytes calldata _remoteAddress) external onlyOwner {... */\n    tag_20:\n      callvalue\n      dup1\n      iszero\n      tag_127\n      jumpi\n      0x00\n      dup1\n      revert\n    tag_127:\n      pop\n      tag_42\n      tag_129\n      calldatasize\n      0x04\n      tag_73\n      jump\t// in\n    tag_129:\n      tag_130\n      jump\t// in\n        /* \"contracts/lzApp/LzApp.sol\":630:676  ILayerZeroEndpoint public immutable lzEndpoint */\n    tag_21:\n      callvalue\n      dup1\n      iszero\n      tag_131\n      jumpi\n      0x00\n      dup1\n      revert\n    tag_131:\n      pop\n      tag_114\n      immutable(\"0x2c7ca6eaf0dd20913c55b4658e5b02864b47cfd1b3241634c484bb991f3fabe0\")\n      dup2\n      jump\n        /* \"contracts/lzApp/LzApp.sol\":5906:6039  function setPrecrime(address _precrime) external onlyOwner {... */\n    tag_22:\n      callvalue\n      dup1\n      iszero\n      tag_136\n      jumpi\n      0x00\n      dup1\n      revert\n    tag_136:\n      pop\n      tag_42\n      tag_138\n      calldatasize\n      0x04\n      tag_139\n      jump\t// in\n    tag_138:\n      tag_140\n      jump\t// in\n        /* \"contracts/lzApp/LzApp.sol\":568:623  uint constant public DEFAULT_PAYLOAD_SIZE_LIMIT = 10000 */\n    tag_23:\n      callvalue\n      dup1\n      iszero\n      tag_141\n      jumpi\n      0x00\n      dup1\n      revert\n    tag_141:\n      pop\n      tag_78\n        /* \"contracts/lzApp/LzApp.sol\":618:623  10000 */\n      0x2710\n        /* \"contracts/lzApp/LzApp.sol\":568:623  uint constant public DEFAULT_PAYLOAD_SIZE_LIMIT = 10000 */\n      dup2\n      jump\n        /* \"contracts/lzApp/LzApp.sol\":4293:4495  function setConfig(uint16 _version, uint16 _chainId, uint _configType, bytes calldata _config) external override onlyOwner {... */\n    tag_24:\n      callvalue\n      dup1\n      iszero\n      tag_145\n      jumpi\n      0x00\n      dup1\n      revert\n    tag_145:\n      pop\n      tag_42\n      tag_147\n      calldatasize\n      0x04\n      tag_148\n      jump\t// in\n    tag_147:\n      tag_149\n      jump\t// in\n        /* \"contracts/examples/PingPong.sol\":659:705  mapping (uint16 => address)      public spokes */\n    tag_25:\n      callvalue\n      dup1\n      iszero\n      tag_150\n      jumpi\n      0x00\n      dup1\n      revert\n    tag_150:\n      pop\n      tag_114\n      tag_152\n      calldatasize\n      0x04\n      tag_49\n      jump\t// in\n    tag_152:\n      mstore(0x20, 0x07)\n      0x00\n      swap1\n      dup2\n      mstore\n      0x40\n      swap1\n      keccak256\n      sload\n      sub(shl(0xa0, 0x01), 0x01)\n      and\n      dup2\n      jump\n        /* \"contracts/lzApp/NonblockingLzApp.sol\":2343:3100  function retryMessage(uint16 _srcChainId, bytes calldata _srcAddress, uint64 _nonce, bytes calldata _payload) public payable virtual {... */\n    tag_26:\n      tag_42\n      tag_156\n      calldatasize\n      0x04\n      tag_44\n      jump\t// in\n    tag_156:\n      tag_157\n      jump\t// in\n        /* \"contracts/lzApp/LzApp.sol\":6045:6325  function setMinDstGas(uint16 _dstChainId, uint16 _packetType, uint _minGas) external onlyOwner {... */\n    tag_27:\n      callvalue\n      dup1\n      iszero\n      tag_158\n      jumpi\n      0x00\n      dup1\n      revert\n    tag_158:\n      pop\n      tag_42\n      tag_160\n      calldatasize\n      0x04\n      tag_161\n      jump\t// in\n    tag_160:\n      tag_162\n      jump\t// in\n        /* \"contracts/lzApp/LzApp.sol\":5080:5284  function setTrustedRemote(uint16 _remoteChainId, bytes calldata _path) external onlyOwner {... */\n    tag_28:\n      callvalue\n      dup1\n      iszero\n      tag_163\n      jumpi\n      0x00\n      dup1\n      revert\n    tag_163:\n      pop\n      tag_42\n      tag_165\n      calldatasize\n      0x04\n      tag_73\n      jump\t// in\n    tag_165:\n      tag_166\n      jump\t// in\n        /* \"contracts/examples/PingPong.sol\":980:2218  function ping(... */\n    tag_29:\n      tag_42\n      tag_168\n      calldatasize\n      0x04\n      tag_169\n      jump\t// in\n    tag_168:\n      tag_170\n      jump\t// in\n        /* \"contracts/openzeppelin/contracts/access/Ownable.sol\":2074:2272  function transferOwnership(address newOwner) public virtual onlyOwner {... */\n    tag_30:\n      callvalue\n      dup1\n      iszero\n      tag_171\n      jumpi\n      0x00\n      dup1\n      revert\n    tag_171:\n      pop\n      tag_42\n      tag_173\n      calldatasize\n      0x04\n      tag_139\n      jump\t// in\n    tag_173:\n      tag_174\n      jump\t// in\n        /* \"contracts/lzApp/LzApp.sol\":4025:4234  function getConfig(uint16 _version, uint16 _chainId, address, uint _configType) external view returns (bytes memory) {... */\n    tag_31:\n      callvalue\n      dup1\n      iszero\n      tag_175\n      jumpi\n      0x00\n      dup1\n      revert\n    tag_175:\n      pop\n      tag_102\n      tag_177\n      calldatasize\n      0x04\n      tag_178\n      jump\t// in\n    tag_177:\n      tag_179\n      jump\t// in\n        /* \"contracts/lzApp/LzApp.sol\":1256:2009  function lzReceive(uint16 _srcChainId, bytes calldata _srcAddress, uint64 _nonce, bytes calldata _payload) public virtual override {... */\n    tag_45:\n        /* \"contracts/openzeppelin/contracts/utils/Context.sol\":719:729  msg.sender */\n      caller\n        /* \"contracts/lzApp/LzApp.sol\":1494:1504  lzEndpoint */\n      immutable(\"0x2c7ca6eaf0dd20913c55b4658e5b02864b47cfd1b3241634c484bb991f3fabe0\")\n      sub(shl(0xa0, 0x01), 0x01)\n        /* \"contracts/lzApp/LzApp.sol\":1470:1505  _msgSender() == address(lzEndpoint) */\n      and\n      eq\n        /* \"contracts/lzApp/LzApp.sol\":1462:1540  require(_msgSender() == address(lzEndpoint), \"LzApp: invalid endpoint caller\") */\n      tag_184\n      jumpi\n      mload(0x40)\n      shl(0xe5, 0x461bcd)\n      dup2\n      mstore\n        /* \"#utility.yul\":8657:8659   */\n      0x20\n        /* \"contracts/lzApp/LzApp.sol\":1462:1540  require(_msgSender() == address(lzEndpoint), \"LzApp: invalid endpoint caller\") */\n      0x04\n      dup3\n      add\n        /* \"#utility.yul\":8639:8660   */\n      mstore\n        /* \"#utility.yul\":8696:8698   */\n      0x1e\n        /* \"#utility.yul\":8676:8694   */\n      0x24\n      dup3\n      add\n        /* \"#utility.yul\":8669:8699   */\n      mstore\n        /* \"#utility.yul\":8735:8767   */\n      0x4c7a4170703a20696e76616c696420656e64706f696e742063616c6c65720000\n        /* \"#utility.yul\":8715:8733   */\n      0x44\n      dup3\n      add\n        /* \"#utility.yul\":8708:8768   */\n      mstore\n        /* \"#utility.yul\":8785:8803   */\n      0x64\n      add\n        /* \"contracts/lzApp/LzApp.sol\":1462:1540  require(_msgSender() == address(lzEndpoint), \"LzApp: invalid endpoint caller\") */\n    tag_185:\n      mload(0x40)\n      dup1\n      swap2\n      sub\n      swap1\n      revert\n    tag_184:\n        /* \"contracts/lzApp/LzApp.sol\":1580:1612  trustedRemoteLookup[_srcChainId] */\n      0xffff\n      dup7\n      and\n        /* \"contracts/lzApp/LzApp.sol\":1551:1577  bytes memory trustedRemote */\n      0x00\n        /* \"contracts/lzApp/LzApp.sol\":1580:1612  trustedRemoteLookup[_srcChainId] */\n      swap1\n      dup2\n      mstore\n        /* \"contracts/lzApp/LzApp.sol\":1580:1599  trustedRemoteLookup */\n      0x01\n        /* \"contracts/lzApp/LzApp.sol\":1580:1612  trustedRemoteLookup[_srcChainId] */\n      0x20\n      mstore\n      0x40\n      dup2\n      keccak256\n        /* \"contracts/lzApp/LzApp.sol\":1551:1612  bytes memory trustedRemote = trustedRemoteLookup[_srcChainId] */\n      dup1\n      sload\n      tag_187\n      swap1\n      tag_188\n      jump\t// in\n    tag_187:\n      dup1\n      0x1f\n      add\n      0x20\n      dup1\n      swap2\n      div\n      mul\n      0x20\n      add\n      mload(0x40)\n      swap1\n      dup2\n      add\n      0x40\n      mstore\n      dup1\n      swap3\n      swap2\n      swap1\n      dup2\n      dup2\n      mstore\n      0x20\n      add\n      dup3\n      dup1\n      sload\n      tag_189\n      swap1\n      tag_188\n      jump\t// in\n    tag_189:\n      dup1\n      iszero\n      tag_190\n      jumpi\n      dup1\n      0x1f\n      lt\n      tag_191\n      jumpi\n      0x0100\n      dup1\n      dup4\n      sload\n      div\n      mul\n      dup4\n      mstore\n      swap2\n      0x20\n      add\n      swap2\n      jump(tag_190)\n    tag_191:\n      dup3\n      add\n      swap2\n      swap1\n      0x00\n      mstore\n      keccak256(0x00, 0x20)\n      swap1\n    tag_192:\n      dup2\n      sload\n      dup2\n      mstore\n      swap1\n      0x01\n      add\n      swap1\n      0x20\n      add\n      dup1\n      dup4\n      gt\n      tag_192\n      jumpi\n      dup3\n      swap1\n      sub\n      0x1f\n      and\n      dup3\n      add\n      swap2\n    tag_190:\n      pop\n      pop\n      pop\n      pop\n      pop\n      swap1\n      pop\n        /* \"contracts/lzApp/LzApp.sol\":1784:1797  trustedRemote */\n      dup1\n        /* \"contracts/lzApp/LzApp.sol\":1784:1804  trustedRemote.length */\n      mload\n        /* \"contracts/lzApp/LzApp.sol\":1762:1773  _srcAddress */\n      dup7\n      dup7\n        /* \"contracts/lzApp/LzApp.sol\":1762:1780  _srcAddress.length */\n      swap1\n      pop\n        /* \"contracts/lzApp/LzApp.sol\":1762:1804  _srcAddress.length == trustedRemote.length */\n      eq\n        /* \"contracts/lzApp/LzApp.sol\":1762:1832  _srcAddress.length == trustedRemote.length && trustedRemote.length > 0 */\n      dup1\n      iszero\n      tag_193\n      jumpi\n      pop\n        /* \"contracts/lzApp/LzApp.sol\":1831:1832  0 */\n      0x00\n        /* \"contracts/lzApp/LzApp.sol\":1808:1821  trustedRemote */\n      dup2\n        /* \"contracts/lzApp/LzApp.sol\":1808:1828  trustedRemote.length */\n      mload\n        /* \"contracts/lzApp/LzApp.sol\":1808:1832  trustedRemote.length > 0 */\n      gt\n        /* \"contracts/lzApp/LzApp.sol\":1762:1832  _srcAddress.length == trustedRemote.length && trustedRemote.length > 0 */\n    tag_193:\n        /* \"contracts/lzApp/LzApp.sol\":1762:1886  _srcAddress.length == trustedRemote.length && trustedRemote.length > 0 && keccak256(_srcAddress) == keccak256(trustedRemote) */\n      dup1\n      iszero\n      tag_194\n      jumpi\n      pop\n        /* \"contracts/lzApp/LzApp.sol\":1862:1886  keccak256(trustedRemote) */\n      dup1\n      mload\n      0x20\n      dup3\n      add\n      keccak256\n        /* \"contracts/lzApp/LzApp.sol\":1836:1858  keccak256(_srcAddress) */\n      mload(0x40)\n      tag_195\n      swap1\n        /* \"contracts/lzApp/LzApp.sol\":1846:1857  _srcAddress */\n      dup9\n      swap1\n      dup9\n      swap1\n        /* \"contracts/lzApp/LzApp.sol\":1836:1858  keccak256(_srcAddress) */\n      tag_196\n      jump\t// in\n    tag_195:\n      mload(0x40)\n      dup1\n      swap2\n      sub\n      swap1\n      keccak256\n        /* \"contracts/lzApp/LzApp.sol\":1836:1886  keccak256(_srcAddress) == keccak256(trustedRemote) */\n      eq\n        /* \"contracts/lzApp/LzApp.sol\":1762:1886  _srcAddress.length == trustedRemote.length && trustedRemote.length > 0 && keccak256(_srcAddress) == keccak256(trustedRemote) */\n    tag_194:\n        /* \"contracts/lzApp/LzApp.sol\":1754:1929  require(_srcAddress.length == trustedRemote.length && trustedRemote.length > 0 && keccak256(_srcAddress) == keccak256(trustedRemote), \"LzApp: invalid source sending contract\") */\n      tag_197\n      jumpi\n      mload(0x40)\n      shl(0xe5, 0x461bcd)\n      dup2\n      mstore\n        /* \"#utility.yul\":9677:9679   */\n      0x20\n        /* \"contracts/lzApp/LzApp.sol\":1754:1929  require(_srcAddress.length == trustedRemote.length && trustedRemote.length > 0 && keccak256(_srcAddress) == keccak256(trustedRemote), \"LzApp: invalid source sending contract\") */\n      0x04\n      dup3\n      add\n        /* \"#utility.yul\":9659:9680   */\n      mstore\n        /* \"#utility.yul\":9716:9718   */\n      0x26\n        /* \"#utility.yul\":9696:9714   */\n      0x24\n      dup3\n      add\n        /* \"#utility.yul\":9689:9719   */\n      mstore\n        /* \"#utility.yul\":9755:9789   */\n      0x4c7a4170703a20696e76616c696420736f757263652073656e64696e6720636f\n        /* \"#utility.yul\":9735:9753   */\n      0x44\n      dup3\n      add\n        /* \"#utility.yul\":9728:9790   */\n      mstore\n      shl(0xd2, 0x1b9d1c9858dd)\n        /* \"#utility.yul\":9806:9824   */\n      0x64\n      dup3\n      add\n        /* \"#utility.yul\":9799:9835   */\n      mstore\n        /* \"#utility.yul\":9852:9871   */\n      0x84\n      add\n        /* \"contracts/lzApp/LzApp.sol\":1754:1929  require(_srcAddress.length == trustedRemote.length && trustedRemote.length > 0 && keccak256(_srcAddress) == keccak256(trustedRemote), \"LzApp: invalid source sending contract\") */\n      tag_185\n        /* \"#utility.yul\":9475:9877   */\n      jump\n        /* \"contracts/lzApp/LzApp.sol\":1754:1929  require(_srcAddress.length == trustedRemote.length && trustedRemote.length > 0 && keccak256(_srcAddress) == keccak256(trustedRemote), \"LzApp: invalid source sending contract\") */\n    tag_197:\n        /* \"contracts/lzApp/LzApp.sol\":1940:2002  _blockingLzReceive(_srcChainId, _srcAddress, _nonce, _payload) */\n      tag_200\n        /* \"contracts/lzApp/LzApp.sol\":1959:1970  _srcChainId */\n      dup8\n        /* \"contracts/lzApp/LzApp.sol\":1972:1983  _srcAddress */\n      dup8\n      dup8\n        /* \"contracts/lzApp/LzApp.sol\":1940:2002  _blockingLzReceive(_srcChainId, _srcAddress, _nonce, _payload) */\n      dup1\n      dup1\n      0x1f\n      add\n      0x20\n      dup1\n      swap2\n      div\n      mul\n      0x20\n      add\n      mload(0x40)\n      swap1\n      dup2\n      add\n      0x40\n      mstore\n      dup1\n      swap4\n      swap3\n      swap2\n      swap1\n      dup2\n      dup2\n      mstore\n      0x20\n      add\n      dup4\n      dup4\n      dup1\n      dup3\n      dup5\n      calldatacopy\n      0x00\n      swap3\n      add\n      swap2\n      swap1\n      swap2\n      mstore\n      pop\n      pop\n      0x40\n      dup1\n      mload\n      0x20\n      0x1f\n      dup11\n      add\n      dup2\n      swap1\n      div\n      dup2\n      mul\n      dup3\n      add\n      dup2\n      add\n      swap1\n      swap3\n      mstore\n      dup9\n      dup2\n      mstore\n        /* \"contracts/lzApp/LzApp.sol\":1985:1991  _nonce */\n      dup11\n      swap4\n      pop\n        /* \"contracts/lzApp/LzApp.sol\":1940:2002  _blockingLzReceive(_srcChainId, _srcAddress, _nonce, _payload) */\n      swap2\n      pop\n        /* \"contracts/lzApp/LzApp.sol\":1993:2001  _payload */\n      dup9\n      swap1\n      dup9\n      swap1\n      dup2\n      swap1\n        /* \"contracts/lzApp/LzApp.sol\":1940:2002  _blockingLzReceive(_srcChainId, _srcAddress, _nonce, _payload) */\n      dup5\n      add\n        /* \"contracts/lzApp/LzApp.sol\":1993:2001  _payload */\n      dup4\n      dup3\n      dup1\n      dup3\n        /* \"contracts/lzApp/LzApp.sol\":1940:2002  _blockingLzReceive(_srcChainId, _srcAddress, _nonce, _payload) */\n      dup5\n      calldatacopy\n      0x00\n      swap3\n      add\n      swap2\n      swap1\n      swap2\n      mstore\n      pop\n        /* \"contracts/lzApp/LzApp.sol\":1940:1958  _blockingLzReceive */\n      tag_201\n      swap3\n      pop\n      pop\n      pop\n        /* \"contracts/lzApp/LzApp.sol\":1940:2002  _blockingLzReceive(_srcChainId, _srcAddress, _nonce, _payload) */\n      jump\t// in\n    tag_200:\n        /* \"contracts/lzApp/LzApp.sol\":1387:2009  {... */\n      pop\n        /* \"contracts/lzApp/LzApp.sol\":1256:2009  function lzReceive(uint16 _srcChainId, bytes calldata _srcAddress, uint64 _nonce, bytes calldata _payload) public virtual override {... */\n      pop\n      pop\n      pop\n      pop\n      pop\n      pop\n      jump\t// out\n        /* \"contracts/lzApp/LzApp.sol\":4501:4622  function setSendVersion(uint16 _version) external override onlyOwner {... */\n    tag_50:\n        /* \"contracts/openzeppelin/contracts/access/Ownable.sol\":1094:1107  _checkOwner() */\n      tag_203\n        /* \"contracts/openzeppelin/contracts/access/Ownable.sol\":1094:1105  _checkOwner */\n      tag_204\n        /* \"contracts/openzeppelin/contracts/access/Ownable.sol\":1094:1107  _checkOwner() */\n      jump\t// in\n    tag_203:\n        /* \"contracts/lzApp/LzApp.sol\":4580:4615  lzEndpoint.setSendVersion(_version) */\n      mload(0x40)\n      shl(0xe0, 0x07e0db17)\n      dup2\n      mstore\n        /* \"#utility.yul\":2634:2640   */\n      0xffff\n        /* \"#utility.yul\":2622:2641   */\n      dup3\n      and\n        /* \"contracts/lzApp/LzApp.sol\":4580:4615  lzEndpoint.setSendVersion(_version) */\n      0x04\n      dup3\n      add\n        /* \"#utility.yul\":2604:2642   */\n      mstore\n        /* \"contracts/lzApp/LzApp.sol\":4580:4590  lzEndpoint */\n      immutable(\"0x2c7ca6eaf0dd20913c55b4658e5b02864b47cfd1b3241634c484bb991f3fabe0\")\n      sub(shl(0xa0, 0x01), 0x01)\n        /* \"contracts/lzApp/LzApp.sol\":4580:4605  lzEndpoint.setSendVersion */\n      and\n      swap1\n      0x07e0db17\n      swap1\n        /* \"#utility.yul\":2577:2595   */\n      0x24\n      add\n        /* \"contracts/lzApp/LzApp.sol\":4580:4615  lzEndpoint.setSendVersion(_version) */\n    tag_206:\n      0x00\n      mload(0x40)\n      dup1\n      dup4\n      sub\n      dup2\n      0x00\n      dup8\n      dup1\n      extcodesize\n      iszero\n      dup1\n      iszero\n      tag_207\n      jumpi\n      0x00\n      dup1\n      revert\n    tag_207:\n      pop\n      gas\n      call\n      iszero\n      dup1\n      iszero\n      tag_209\n      jumpi\n      returndatasize\n      0x00\n      dup1\n      returndatacopy\n      revert(0x00, returndatasize)\n    tag_209:\n      pop\n      pop\n      pop\n      pop\n        /* \"contracts/lzApp/LzApp.sol\":4501:4622  function setSendVersion(uint16 _version) external override onlyOwner {... */\n      pop\n      jump\t// out\n        /* \"contracts/lzApp/LzApp.sol\":6384:6524  function setPayloadSizeLimit(uint16 _dstChainId, uint _size) external onlyOwner {... */\n    tag_55:\n        /* \"contracts/openzeppelin/contracts/access/Ownable.sol\":1094:1107  _checkOwner() */\n      tag_211\n        /* \"contracts/openzeppelin/contracts/access/Ownable.sol\":1094:1105  _checkOwner */\n      tag_204\n        /* \"contracts/openzeppelin/contracts/access/Ownable.sol\":1094:1107  _checkOwner() */\n      jump\t// in\n    tag_211:\n        /* \"contracts/lzApp/LzApp.sol\":6474:6509  payloadSizeLimitLookup[_dstChainId] */\n      0xffff\n      swap1\n      swap2\n      and\n      0x00\n      swap1\n      dup2\n      mstore\n        /* \"contracts/lzApp/LzApp.sol\":6474:6496  payloadSizeLimitLookup */\n      0x03\n        /* \"contracts/lzApp/LzApp.sol\":6474:6509  payloadSizeLimitLookup[_dstChainId] */\n      0x20\n      mstore\n      0x40\n      swap1\n      keccak256\n        /* \"contracts/lzApp/LzApp.sol\":6474:6517  payloadSizeLimitLookup[_dstChainId] = _size */\n      sstore\n        /* \"contracts/lzApp/LzApp.sol\":6384:6524  function setPayloadSizeLimit(uint16 _dstChainId, uint _size) external onlyOwner {... */\n      jump\t// out\n        /* \"contracts/lzApp/LzApp.sol\":4628:4755  function setReceiveVersion(uint16 _version) external override onlyOwner {... */\n    tag_59:\n        /* \"contracts/openzeppelin/contracts/access/Ownable.sol\":1094:1107  _checkOwner() */\n      tag_214\n        /* \"contracts/openzeppelin/contracts/access/Ownable.sol\":1094:1105  _checkOwner */\n      tag_204\n        /* \"contracts/openzeppelin/contracts/access/Ownable.sol\":1094:1107  _checkOwner() */\n      jump\t// in\n    tag_214:\n        /* \"contracts/lzApp/LzApp.sol\":4710:4748  lzEndpoint.setReceiveVersion(_version) */\n      mload(0x40)\n      shl(0xe0, 0x10ddb137)\n      dup2\n      mstore\n        /* \"#utility.yul\":2634:2640   */\n      0xffff\n        /* \"#utility.yul\":2622:2641   */\n      dup3\n      and\n        /* \"contracts/lzApp/LzApp.sol\":4710:4748  lzEndpoint.setReceiveVersion(_version) */\n      0x04\n      dup3\n      add\n        /* \"#utility.yul\":2604:2642   */\n      mstore\n        /* \"contracts/lzApp/LzApp.sol\":4710:4720  lzEndpoint */\n      immutable(\"0x2c7ca6eaf0dd20913c55b4658e5b02864b47cfd1b3241634c484bb991f3fabe0\")\n      sub(shl(0xa0, 0x01), 0x01)\n        /* \"contracts/lzApp/LzApp.sol\":4710:4738  lzEndpoint.setReceiveVersion */\n      and\n      swap1\n      0x10ddb137\n      swap1\n        /* \"#utility.yul\":2577:2595   */\n      0x24\n      add\n        /* \"contracts/lzApp/LzApp.sol\":4710:4748  lzEndpoint.setReceiveVersion(_version) */\n      tag_206\n        /* \"#utility.yul\":2460:2648   */\n      jump\n        /* \"contracts/examples/PingPong.sol\":2815:3018  function setSpoke(address _contraspoke, uint16 lz_cid) public onlyOwner {... */\n    tag_64:\n        /* \"contracts/openzeppelin/contracts/access/Ownable.sol\":1094:1107  _checkOwner() */\n      tag_221\n        /* \"contracts/openzeppelin/contracts/access/Ownable.sol\":1094:1105  _checkOwner */\n      tag_204\n        /* \"contracts/openzeppelin/contracts/access/Ownable.sol\":1094:1107  _checkOwner() */\n      jump\t// in\n    tag_221:\n        /* \"contracts/examples/PingPong.sol\":2927:2972  abi.encodePacked(_contraspoke, address(this)) */\n      mload(0x40)\n      not(0xffffffffffffffffffffffff)\n        /* \"#utility.yul\":10109:10111   */\n      0x60\n        /* \"#utility.yul\":10105:10120   */\n      dup5\n      dup2\n      shl\n        /* \"#utility.yul\":10101:10125   */\n      dup3\n      and\n        /* \"contracts/examples/PingPong.sol\":2927:2972  abi.encodePacked(_contraspoke, address(this)) */\n      0x20\n      dup5\n      add\n        /* \"#utility.yul\":10089:10126   */\n      mstore\n        /* \"contracts/examples/PingPong.sol\":2966:2970  this */\n      address\n        /* \"#utility.yul\":10160:10175   */\n      swap1\n      shl\n        /* \"#utility.yul\":10156:10180   */\n      and\n        /* \"#utility.yul\":10142:10154   */\n      0x34\n      dup3\n      add\n        /* \"#utility.yul\":10135:10181   */\n      mstore\n        /* \"#utility.yul\":10197:10209   */\n      0x48\n      add\n        /* \"contracts/examples/PingPong.sol\":2927:2972  abi.encodePacked(_contraspoke, address(this)) */\n      0x40\n      dup1\n      mload\n      not(0x1f)\n      dup2\n      dup5\n      sub\n      add\n      dup2\n      mstore\n      swap2\n      dup2\n      mstore\n        /* \"contracts/examples/PingPong.sol\":2897:2924  trustedRemoteLookup[lz_cid] */\n      0xffff\n      dup4\n      and\n      0x00\n      swap1\n      dup2\n      mstore\n        /* \"contracts/examples/PingPong.sol\":2897:2916  trustedRemoteLookup */\n      0x01\n        /* \"contracts/examples/PingPong.sol\":2927:2972  abi.encodePacked(_contraspoke, address(this)) */\n      0x20\n        /* \"contracts/examples/PingPong.sol\":2897:2924  trustedRemoteLookup[lz_cid] */\n      mstore\n      keccak256\n      swap1\n        /* \"contracts/examples/PingPong.sol\":2897:2972  trustedRemoteLookup[lz_cid] = abi.encodePacked(_contraspoke, address(this)) */\n      tag_225\n      swap1\n        /* \"contracts/examples/PingPong.sol\":2897:2924  trustedRemoteLookup[lz_cid] */\n      dup3\n        /* \"contracts/examples/PingPong.sol\":2897:2972  trustedRemoteLookup[lz_cid] = abi.encodePacked(_contraspoke, address(this)) */\n      tag_226\n      jump\t// in\n    tag_225:\n      pop\n        /* \"contracts/examples/PingPong.sol\":2982:2996  spokes[lz_cid] */\n      0xffff\n      and\n      0x00\n      swap1\n      dup2\n      mstore\n        /* \"contracts/examples/PingPong.sol\":2982:2988  spokes */\n      0x07\n        /* \"contracts/examples/PingPong.sol\":2982:2996  spokes[lz_cid] */\n      0x20\n      mstore\n      0x40\n      swap1\n      keccak256\n        /* \"contracts/examples/PingPong.sol\":2982:3011  spokes[lz_cid] = _contraspoke */\n      dup1\n      sload\n      not(sub(shl(0xa0, 0x01), 0x01))\n      and\n      sub(shl(0xa0, 0x01), 0x01)\n      swap3\n      swap1\n      swap3\n      and\n      swap2\n      swap1\n      swap2\n      or\n      swap1\n      sstore\n        /* \"contracts/examples/PingPong.sol\":2815:3018  function setSpoke(address _contraspoke, uint16 lz_cid) public onlyOwner {... */\n      jump\t// out\n        /* \"contracts/lzApp/LzApp.sol\":6619:6866  function isTrustedRemote(uint16 _srcChainId, bytes calldata _srcAddress) external view returns (bool) {... */\n    tag_74:\n        /* \"contracts/lzApp/LzApp.sol\":6760:6792  trustedRemoteLookup[_srcChainId] */\n      0xffff\n      dup4\n      and\n        /* \"contracts/lzApp/LzApp.sol\":6715:6719  bool */\n      0x00\n        /* \"contracts/lzApp/LzApp.sol\":6760:6792  trustedRemoteLookup[_srcChainId] */\n      swap1\n      dup2\n      mstore\n        /* \"contracts/lzApp/LzApp.sol\":6760:6779  trustedRemoteLookup */\n      0x01\n        /* \"contracts/lzApp/LzApp.sol\":6760:6792  trustedRemoteLookup[_srcChainId] */\n      0x20\n      mstore\n      0x40\n      dup2\n      keccak256\n        /* \"contracts/lzApp/LzApp.sol\":6731:6792  bytes memory trustedSource = trustedRemoteLookup[_srcChainId] */\n      dup1\n      sload\n        /* \"contracts/lzApp/LzApp.sol\":6715:6719  bool */\n      dup3\n      swap2\n        /* \"contracts/lzApp/LzApp.sol\":6760:6792  trustedRemoteLookup[_srcChainId] */\n      swap1\n        /* \"contracts/lzApp/LzApp.sol\":6731:6792  bytes memory trustedSource = trustedRemoteLookup[_srcChainId] */\n      tag_228\n      swap1\n      tag_188\n      jump\t// in\n    tag_228:\n      dup1\n      0x1f\n      add\n      0x20\n      dup1\n      swap2\n      div\n      mul\n      0x20\n      add\n      mload(0x40)\n      swap1\n      dup2\n      add\n      0x40\n      mstore\n      dup1\n      swap3\n      swap2\n      swap1\n      dup2\n      dup2\n      mstore\n      0x20\n      add\n      dup3\n      dup1\n      sload\n      tag_229\n      swap1\n      tag_188\n      jump\t// in\n    tag_229:\n      dup1\n      iszero\n      tag_230\n      jumpi\n      dup1\n      0x1f\n      lt\n      tag_231\n      jumpi\n      0x0100\n      dup1\n      dup4\n      sload\n      div\n      mul\n      dup4\n      mstore\n      swap2\n      0x20\n      add\n      swap2\n      jump(tag_230)\n    tag_231:\n      dup3\n      add\n      swap2\n      swap1\n      0x00\n      mstore\n      keccak256(0x00, 0x20)\n      swap1\n    tag_232:\n      dup2\n      sload\n      dup2\n      mstore\n      swap1\n      0x01\n      add\n      swap1\n      0x20\n      add\n      dup1\n      dup4\n      gt\n      tag_232\n      jumpi\n      dup3\n      swap1\n      sub\n      0x1f\n      and\n      dup3\n      add\n      swap2\n    tag_230:\n      pop\n      pop\n      pop\n      pop\n      pop\n      swap1\n      pop\n        /* \"contracts/lzApp/LzApp.sol\":6847:6858  _srcAddress */\n      dup4\n      dup4\n        /* \"contracts/lzApp/LzApp.sol\":6837:6859  keccak256(_srcAddress) */\n      mload(0x40)\n      tag_233\n      swap3\n      swap2\n      swap1\n      tag_196\n      jump\t// in\n    tag_233:\n      mload(0x40)\n      dup1\n      swap2\n      sub\n      swap1\n      keccak256\n        /* \"contracts/lzApp/LzApp.sol\":6819:6832  trustedSource */\n      dup2\n        /* \"contracts/lzApp/LzApp.sol\":6809:6833  keccak256(trustedSource) */\n      dup1\n      mload\n      swap1\n      0x20\n      add\n      keccak256\n        /* \"contracts/lzApp/LzApp.sol\":6809:6859  keccak256(trustedSource) == keccak256(_srcAddress) */\n      eq\n        /* \"contracts/lzApp/LzApp.sol\":6802:6859  return keccak256(trustedSource) == keccak256(_srcAddress) */\n      swap2\n      pop\n      pop\n        /* \"contracts/lzApp/LzApp.sol\":6619:6866  function isTrustedRemote(uint16 _srcChainId, bytes calldata _srcAddress) external view returns (bool) {... */\n      swap4\n      swap3\n      pop\n      pop\n      pop\n      jump\t// out\n        /* \"contracts/lzApp/LzApp.sol\":4761:4937  function forceResumeReceive(uint16 _srcChainId, bytes calldata _srcAddress) external override onlyOwner {... */\n    tag_86:\n        /* \"contracts/openzeppelin/contracts/access/Ownable.sol\":1094:1107  _checkOwner() */\n      tag_235\n        /* \"contracts/openzeppelin/contracts/access/Ownable.sol\":1094:1105  _checkOwner */\n      tag_204\n        /* \"contracts/openzeppelin/contracts/access/Ownable.sol\":1094:1107  _checkOwner() */\n      jump\t// in\n    tag_235:\n        /* \"contracts/lzApp/LzApp.sol\":4875:4930  lzEndpoint.forceResumeReceive(_srcChainId, _srcAddress) */\n      mload(0x40)\n      shl(0xe0, 0x42d65a8d)\n      dup2\n      mstore\n      sub(shl(0xa0, 0x01), 0x01)\n        /* \"contracts/lzApp/LzApp.sol\":4875:4885  lzEndpoint */\n      immutable(\"0x2c7ca6eaf0dd20913c55b4658e5b02864b47cfd1b3241634c484bb991f3fabe0\")\n        /* \"contracts/lzApp/LzApp.sol\":4875:4904  lzEndpoint.forceResumeReceive */\n      and\n      swap1\n      0x42d65a8d\n      swap1\n        /* \"contracts/lzApp/LzApp.sol\":4875:4930  lzEndpoint.forceResumeReceive(_srcChainId, _srcAddress) */\n      tag_237\n      swap1\n        /* \"contracts/lzApp/LzApp.sol\":4905:4916  _srcChainId */\n      dup7\n      swap1\n        /* \"contracts/lzApp/LzApp.sol\":4918:4929  _srcAddress */\n      dup7\n      swap1\n      dup7\n      swap1\n        /* \"contracts/lzApp/LzApp.sol\":4875:4930  lzEndpoint.forceResumeReceive(_srcChainId, _srcAddress) */\n      0x04\n      add\n      tag_238\n      jump\t// in\n    tag_237:\n      0x00\n      mload(0x40)\n      dup1\n      dup4\n      sub\n      dup2\n      0x00\n      dup8\n      dup1\n      extcodesize\n      iszero\n      dup1\n      iszero\n      tag_239\n      jumpi\n      0x00\n      dup1\n      revert\n    tag_239:\n      pop\n      gas\n      call\n      iszero\n      dup1\n      iszero\n      tag_200\n      jumpi\n      returndatasize\n      0x00\n      dup1\n      returndatacopy\n      revert(0x00, returndatasize)\n        /* \"contracts/lzApp/NonblockingLzApp.sol\":1820:2162  function nonblockingLzReceive(uint16 _srcChainId, bytes calldata _srcAddress, uint64 _nonce, bytes calldata _payload) public virtual {... */\n    tag_97:\n        /* \"contracts/openzeppelin/contracts/utils/Context.sol\":719:729  msg.sender */\n      caller\n        /* \"contracts/lzApp/NonblockingLzApp.sol\":2032:2036  this */\n      address\n        /* \"contracts/lzApp/NonblockingLzApp.sol\":2008:2037  _msgSender() == address(this) */\n      eq\n        /* \"contracts/lzApp/NonblockingLzApp.sol\":2000:2080  require(_msgSender() == address(this), \"NonblockingLzApp: caller must be LzApp\") */\n      tag_244\n      jumpi\n      mload(0x40)\n      shl(0xe5, 0x461bcd)\n      dup2\n      mstore\n        /* \"#utility.yul\":13222:13224   */\n      0x20\n        /* \"contracts/lzApp/NonblockingLzApp.sol\":2000:2080  require(_msgSender() == address(this), \"NonblockingLzApp: caller must be LzApp\") */\n      0x04\n      dup3\n      add\n        /* \"#utility.yul\":13204:13225   */\n      mstore\n        /* \"#utility.yul\":13261:13263   */\n      0x26\n        /* \"#utility.yul\":13241:13259   */\n      0x24\n      dup3\n      add\n        /* \"#utility.yul\":13234:13264   */\n      mstore\n        /* \"#utility.yul\":13300:13334   */\n      0x4e6f6e626c6f636b696e674c7a4170703a2063616c6c6572206d757374206265\n        /* \"#utility.yul\":13280:13298   */\n      0x44\n      dup3\n      add\n        /* \"#utility.yul\":13273:13335   */\n      mstore\n      shl(0xd4, 0x0204c7a41707)\n        /* \"#utility.yul\":13351:13369   */\n      0x64\n      dup3\n      add\n        /* \"#utility.yul\":13344:13380   */\n      mstore\n        /* \"#utility.yul\":13397:13416   */\n      0x84\n      add\n        /* \"contracts/lzApp/NonblockingLzApp.sol\":2000:2080  require(_msgSender() == address(this), \"NonblockingLzApp: caller must be LzApp\") */\n      tag_185\n        /* \"#utility.yul\":13020:13422   */\n      jump\n        /* \"contracts/lzApp/NonblockingLzApp.sol\":2000:2080  require(_msgSender() == address(this), \"NonblockingLzApp: caller must be LzApp\") */\n    tag_244:\n        /* \"contracts/lzApp/NonblockingLzApp.sol\":2090:2155  _nonblockingLzReceive(_srcChainId, _srcAddress, _nonce, _payload) */\n      tag_247\n        /* \"contracts/lzApp/NonblockingLzApp.sol\":2112:2123  _srcChainId */\n      dup7\n        /* \"contracts/lzApp/NonblockingLzApp.sol\":2125:2136  _srcAddress */\n      dup7\n      dup7\n        /* \"contracts/lzApp/NonblockingLzApp.sol\":2090:2155  _nonblockingLzReceive(_srcChainId, _srcAddress, _nonce, _payload) */\n      dup1\n      dup1\n      0x1f\n      add\n      0x20\n      dup1\n      swap2\n      div\n      mul\n      0x20\n      add\n      mload(0x40)\n      swap1\n      dup2\n      add\n      0x40\n      mstore\n      dup1\n      swap4\n      swap3\n      swap2\n      swap1\n      dup2\n      dup2\n      mstore\n      0x20\n      add\n      dup4\n      dup4\n      dup1\n      dup3\n      dup5\n      calldatacopy\n      0x00\n      swap3\n      add\n      swap2\n      swap1\n      swap2\n      mstore\n      pop\n      pop\n      0x40\n      dup1\n      mload\n      0x20\n      0x1f\n      dup10\n      add\n      dup2\n      swap1\n      div\n      dup2\n      mul\n      dup3\n      add\n      dup2\n      add\n      swap1\n      swap3\n      mstore\n      dup8\n      dup2\n      mstore\n        /* \"contracts/lzApp/NonblockingLzApp.sol\":2138:2144  _nonce */\n      dup10\n      swap4\n      pop\n        /* \"contracts/lzApp/NonblockingLzApp.sol\":2090:2155  _nonblockingLzReceive(_srcChainId, _srcAddress, _nonce, _payload) */\n      swap2\n      pop\n        /* \"contracts/lzApp/NonblockingLzApp.sol\":2146:2154  _payload */\n      dup8\n      swap1\n      dup8\n      swap1\n      dup2\n      swap1\n        /* \"contracts/lzApp/NonblockingLzApp.sol\":2090:2155  _nonblockingLzReceive(_srcChainId, _srcAddress, _nonce, _payload) */\n      dup5\n      add\n        /* \"contracts/lzApp/NonblockingLzApp.sol\":2146:2154  _payload */\n      dup4\n      dup3\n      dup1\n      dup3\n        /* \"contracts/lzApp/NonblockingLzApp.sol\":2090:2155  _nonblockingLzReceive(_srcChainId, _srcAddress, _nonce, _payload) */\n      dup5\n      calldatacopy\n      0x00\n      swap3\n      add\n      swap2\n      swap1\n      swap2\n      mstore\n      pop\n        /* \"contracts/lzApp/NonblockingLzApp.sol\":2090:2111  _nonblockingLzReceive */\n      tag_248\n      swap3\n      pop\n      pop\n      pop\n        /* \"contracts/lzApp/NonblockingLzApp.sol\":2090:2155  _nonblockingLzReceive(_srcChainId, _srcAddress, _nonce, _payload) */\n      jump\t// in\n    tag_247:\n        /* \"contracts/lzApp/NonblockingLzApp.sol\":1820:2162  function nonblockingLzReceive(uint16 _srcChainId, bytes calldata _srcAddress, uint64 _nonce, bytes calldata _payload) public virtual {... */\n      pop\n      pop\n      pop\n      pop\n      pop\n      pop\n      jump\t// out\n        /* \"contracts/openzeppelin/contracts/access/Ownable.sol\":1824:1925  function renounceOwnership() public virtual onlyOwner {... */\n    tag_100:\n        /* \"contracts/openzeppelin/contracts/access/Ownable.sol\":1094:1107  _checkOwner() */\n      tag_250\n        /* \"contracts/openzeppelin/contracts/access/Ownable.sol\":1094:1105  _checkOwner */\n      tag_204\n        /* \"contracts/openzeppelin/contracts/access/Ownable.sol\":1094:1107  _checkOwner() */\n      jump\t// in\n    tag_250:\n        /* \"contracts/openzeppelin/contracts/access/Ownable.sol\":1888:1918  _transferOwnership(address(0)) */\n      tag_252\n        /* \"contracts/openzeppelin/contracts/access/Ownable.sol\":1915:1916  0 */\n      0x00\n        /* \"contracts/openzeppelin/contracts/access/Ownable.sol\":1888:1906  _transferOwnership */\n      tag_253\n        /* \"contracts/openzeppelin/contracts/access/Ownable.sol\":1888:1918  _transferOwnership(address(0)) */\n      jump\t// in\n    tag_252:\n        /* \"contracts/openzeppelin/contracts/access/Ownable.sol\":1824:1925  function renounceOwnership() public virtual onlyOwner {... */\n      jump\t// out\n        /* \"contracts/lzApp/LzApp.sol\":682:733  mapping(uint16 => bytes) public trustedRemoteLookup */\n    tag_104:\n      mstore(0x20, 0x01)\n      0x00\n      swap1\n      dup2\n      mstore\n      0x40\n      swap1\n      keccak256\n      dup1\n      sload\n      tag_254\n      swap1\n      tag_188\n      jump\t// in\n    tag_254:\n      dup1\n      0x1f\n      add\n      0x20\n      dup1\n      swap2\n      div\n      mul\n      0x20\n      add\n      mload(0x40)\n      swap1\n      dup2\n      add\n      0x40\n      mstore\n      dup1\n      swap3\n      swap2\n      swap1\n      dup2\n      dup2\n      mstore\n      0x20\n      add\n      dup3\n      dup1\n      sload\n      tag_255\n      swap1\n      tag_188\n      jump\t// in\n    tag_255:\n      dup1\n      iszero\n      tag_256\n      jumpi\n      dup1\n      0x1f\n      lt\n      tag_257\n      jumpi\n      0x0100\n      dup1\n      dup4\n      sload\n      div\n      mul\n      dup4\n      mstore\n      swap2\n      0x20\n      add\n      swap2\n      jump(tag_256)\n    tag_257:\n      dup3\n      add\n      swap2\n      swap1\n      0x00\n      mstore\n      keccak256(0x00, 0x20)\n      swap1\n    tag_258:\n      dup2\n      sload\n      dup2\n      mstore\n      swap1\n      0x01\n      add\n      swap1\n      0x20\n      add\n      dup1\n      dup4\n      gt\n      tag_258\n      jumpi\n      dup3\n      swap1\n      sub\n      0x1f\n      and\n      dup3\n      add\n      swap2\n    tag_256:\n      pop\n      pop\n      pop\n      pop\n      pop\n      dup2\n      jump\t// out\n        /* \"contracts/lzApp/LzApp.sol\":5574:5900  function getTrustedRemoteAddress(uint16 _remoteChainId) external view returns (bytes memory) {... */\n    tag_125:\n        /* \"contracts/lzApp/LzApp.sol\":5697:5732  trustedRemoteLookup[_remoteChainId] */\n      0xffff\n      dup2\n      and\n        /* \"contracts/lzApp/LzApp.sol\":5677:5694  bytes memory path */\n      0x00\n        /* \"contracts/lzApp/LzApp.sol\":5697:5732  trustedRemoteLookup[_remoteChainId] */\n      swap1\n      dup2\n      mstore\n        /* \"contracts/lzApp/LzApp.sol\":5697:5716  trustedRemoteLookup */\n      0x01\n        /* \"contracts/lzApp/LzApp.sol\":5697:5732  trustedRemoteLookup[_remoteChainId] */\n      0x20\n      mstore\n      0x40\n      dup2\n      keccak256\n        /* \"contracts/lzApp/LzApp.sol\":5677:5732  bytes memory path = trustedRemoteLookup[_remoteChainId] */\n      dup1\n      sload\n        /* \"contracts/lzApp/LzApp.sol\":5653:5665  bytes memory */\n      0x60\n      swap3\n        /* \"contracts/lzApp/LzApp.sol\":5677:5694  bytes memory path */\n      swap2\n        /* \"contracts/lzApp/LzApp.sol\":5697:5732  trustedRemoteLookup[_remoteChainId] */\n      swap1\n        /* \"contracts/lzApp/LzApp.sol\":5677:5732  bytes memory path = trustedRemoteLookup[_remoteChainId] */\n      tag_261\n      swap1\n      tag_188\n      jump\t// in\n    tag_261:\n      dup1\n      0x1f\n      add\n      0x20\n      dup1\n      swap2\n      div\n      mul\n      0x20\n      add\n      mload(0x40)\n      swap1\n      dup2\n      add\n      0x40\n      mstore\n      dup1\n      swap3\n      swap2\n      swap1\n      dup2\n      dup2\n      mstore\n      0x20\n      add\n      dup3\n      dup1\n      sload\n      tag_262\n      swap1\n      tag_188\n      jump\t// in\n    tag_262:\n      dup1\n      iszero\n      tag_263\n      jumpi\n      dup1\n      0x1f\n      lt\n      tag_264\n      jumpi\n      0x0100\n      dup1\n      dup4\n      sload\n      div\n      mul\n      dup4\n      mstore\n      swap2\n      0x20\n      add\n      swap2\n      jump(tag_263)\n    tag_264:\n      dup3\n      add\n      swap2\n      swap1\n      0x00\n      mstore\n      keccak256(0x00, 0x20)\n      swap1\n    tag_265:\n      dup2\n      sload\n      dup2\n      mstore\n      swap1\n      0x01\n      add\n      swap1\n      0x20\n      add\n      dup1\n      dup4\n      gt\n      tag_265\n      jumpi\n      dup3\n      swap1\n      sub\n      0x1f\n      and\n      dup3\n      add\n      swap2\n    tag_263:\n      pop\n      pop\n      pop\n      pop\n      pop\n      swap1\n      pop\n        /* \"contracts/lzApp/LzApp.sol\":5750:5754  path */\n      dup1\n        /* \"contracts/lzApp/LzApp.sol\":5750:5761  path.length */\n      mload\n        /* \"contracts/lzApp/LzApp.sol\":5765:5766  0 */\n      0x00\n        /* \"contracts/lzApp/LzApp.sol\":5750:5766  path.length != 0 */\n      sub\n        /* \"contracts/lzApp/LzApp.sol\":5742:5800  require(path.length != 0, \"LzApp: no trusted path record\") */\n      tag_266\n      jumpi\n      mload(0x40)\n      shl(0xe5, 0x461bcd)\n      dup2\n      mstore\n        /* \"#utility.yul\":13629:13631   */\n      0x20\n        /* \"contracts/lzApp/LzApp.sol\":5742:5800  require(path.length != 0, \"LzApp: no trusted path record\") */\n      0x04\n      dup3\n      add\n        /* \"#utility.yul\":13611:13632   */\n      mstore\n        /* \"#utility.yul\":13668:13670   */\n      0x1d\n        /* \"#utility.yul\":13648:13666   */\n      0x24\n      dup3\n      add\n        /* \"#utility.yul\":13641:13671   */\n      mstore\n        /* \"#utility.yul\":13707:13738   */\n      0x4c7a4170703a206e6f20747275737465642070617468207265636f7264000000\n        /* \"#utility.yul\":13687:13705   */\n      0x44\n      dup3\n      add\n        /* \"#utility.yul\":13680:13739   */\n      mstore\n        /* \"#utility.yul\":13756:13774   */\n      0x64\n      add\n        /* \"contracts/lzApp/LzApp.sol\":5742:5800  require(path.length != 0, \"LzApp: no trusted path record\") */\n      tag_185\n        /* \"#utility.yul\":13427:13780   */\n      jump\n        /* \"contracts/lzApp/LzApp.sol\":5742:5800  require(path.length != 0, \"LzApp: no trusted path record\") */\n    tag_266:\n        /* \"contracts/lzApp/LzApp.sol\":5817:5848  path.slice(0, path.length - 20) */\n      tag_269\n        /* \"contracts/lzApp/LzApp.sol\":5828:5829  0 */\n      0x00\n        /* \"contracts/lzApp/LzApp.sol\":5845:5847  20 */\n      0x14\n        /* \"contracts/lzApp/LzApp.sol\":5831:5835  path */\n      dup4\n        /* \"contracts/lzApp/LzApp.sol\":5831:5842  path.length */\n      mload\n        /* \"contracts/lzApp/LzApp.sol\":5831:5847  path.length - 20 */\n      tag_270\n      swap2\n      swap1\n      tag_271\n      jump\t// in\n    tag_270:\n        /* \"contracts/lzApp/LzApp.sol\":5817:5821  path */\n      dup4\n      swap2\n        /* \"contracts/lzApp/LzApp.sol\":5817:5848  path.slice(0, path.length - 20) */\n      swap1\n        /* \"contracts/lzApp/LzApp.sol\":5817:5827  path.slice */\n      tag_272\n        /* \"contracts/lzApp/LzApp.sol\":5817:5848  path.slice(0, path.length - 20) */\n      jump\t// in\n    tag_269:\n        /* \"contracts/lzApp/LzApp.sol\":5810:5848  return path.slice(0, path.length - 20) */\n      swap4\n        /* \"contracts/lzApp/LzApp.sol\":5574:5900  function getTrustedRemoteAddress(uint16 _remoteChainId) external view returns (bytes memory) {... */\n      swap3\n      pop\n      pop\n      pop\n      jump\t// out\n        /* \"contracts/lzApp/LzApp.sol\":5290:5568  function setTrustedRemoteAddress(uint16 _remoteChainId, bytes calldata _remoteAddress) external onlyOwner {... */\n    tag_130:\n        /* \"contracts/openzeppelin/contracts/access/Ownable.sol\":1094:1107  _checkOwner() */\n      tag_274\n        /* \"contracts/openzeppelin/contracts/access/Ownable.sol\":1094:1105  _checkOwner */\n      tag_204\n        /* \"contracts/openzeppelin/contracts/access/Ownable.sol\":1094:1107  _checkOwner() */\n      jump\t// in\n    tag_274:\n        /* \"contracts/lzApp/LzApp.sol\":5461:5475  _remoteAddress */\n      dup2\n      dup2\n        /* \"contracts/lzApp/LzApp.sol\":5485:5489  this */\n      address\n        /* \"contracts/lzApp/LzApp.sol\":5444:5491  abi.encodePacked(_remoteAddress, address(this)) */\n      add(0x20, mload(0x40))\n      tag_276\n      swap4\n      swap3\n      swap2\n      swap1\n      tag_277\n      jump\t// in\n    tag_276:\n      0x40\n      dup1\n      mload\n      not(0x1f)\n      dup2\n      dup5\n      sub\n      add\n      dup2\n      mstore\n      swap2\n      dup2\n      mstore\n        /* \"contracts/lzApp/LzApp.sol\":5406:5441  trustedRemoteLookup[_remoteChainId] */\n      0xffff\n      dup6\n      and\n      0x00\n      swap1\n      dup2\n      mstore\n        /* \"contracts/lzApp/LzApp.sol\":5406:5425  trustedRemoteLookup */\n      0x01\n        /* \"contracts/lzApp/LzApp.sol\":5444:5491  abi.encodePacked(_remoteAddress, address(this)) */\n      0x20\n        /* \"contracts/lzApp/LzApp.sol\":5406:5441  trustedRemoteLookup[_remoteChainId] */\n      mstore\n      keccak256\n      swap1\n        /* \"contracts/lzApp/LzApp.sol\":5406:5491  trustedRemoteLookup[_remoteChainId] = abi.encodePacked(_remoteAddress, address(this)) */\n      tag_278\n      swap1\n        /* \"contracts/lzApp/LzApp.sol\":5406:5441  trustedRemoteLookup[_remoteChainId] */\n      dup3\n        /* \"contracts/lzApp/LzApp.sol\":5406:5491  trustedRemoteLookup[_remoteChainId] = abi.encodePacked(_remoteAddress, address(this)) */\n      tag_226\n      jump\t// in\n    tag_278:\n      pop\n        /* \"contracts/lzApp/LzApp.sol\":5506:5561  SetTrustedRemoteAddress(_remoteChainId, _remoteAddress) */\n      0x8c0400cfe2d1199b1a725c78960bcc2a344d869b80590d0f2bd005db15a572ce\n        /* \"contracts/lzApp/LzApp.sol\":5530:5544  _remoteChainId */\n      dup4\n        /* \"contracts/lzApp/LzApp.sol\":5546:5560  _remoteAddress */\n      dup4\n      dup4\n        /* \"contracts/lzApp/LzApp.sol\":5506:5561  SetTrustedRemoteAddress(_remoteChainId, _remoteAddress) */\n      mload(0x40)\n      tag_279\n      swap4\n      swap3\n      swap2\n      swap1\n      tag_238\n      jump\t// in\n    tag_279:\n      mload(0x40)\n      dup1\n      swap2\n      sub\n      swap1\n      log1\n        /* \"contracts/lzApp/LzApp.sol\":5290:5568  function setTrustedRemoteAddress(uint16 _remoteChainId, bytes calldata _remoteAddress) external onlyOwner {... */\n      pop\n      pop\n      pop\n      jump\t// out\n        /* \"contracts/lzApp/LzApp.sol\":5906:6039  function setPrecrime(address _precrime) external onlyOwner {... */\n    tag_140:\n        /* \"contracts/openzeppelin/contracts/access/Ownable.sol\":1094:1107  _checkOwner() */\n      tag_281\n        /* \"contracts/openzeppelin/contracts/access/Ownable.sol\":1094:1105  _checkOwner */\n      tag_204\n        /* \"contracts/openzeppelin/contracts/access/Ownable.sol\":1094:1107  _checkOwner() */\n      jump\t// in\n    tag_281:\n        /* \"contracts/lzApp/LzApp.sol\":5975:5983  precrime */\n      0x04\n        /* \"contracts/lzApp/LzApp.sol\":5975:5995  precrime = _precrime */\n      dup1\n      sload\n      not(sub(shl(0xa0, 0x01), 0x01))\n      and\n      sub(shl(0xa0, 0x01), 0x01)\n      dup4\n      and\n      swap1\n      dup2\n      or\n      swap1\n      swap2\n      sstore\n        /* \"contracts/lzApp/LzApp.sol\":6010:6032  SetPrecrime(_precrime) */\n      mload(0x40)\n        /* \"#utility.yul\":6277:6328   */\n      swap1\n      dup2\n      mstore\n        /* \"contracts/lzApp/LzApp.sol\":6010:6032  SetPrecrime(_precrime) */\n      0x5db758e995a17ec1ad84bdef7e8c3293a0bd6179bcce400dff5d4c3d87db726b\n      swap1\n        /* \"#utility.yul\":6265:6267   */\n      0x20\n        /* \"#utility.yul\":6250:6268   */\n      add\n        /* \"contracts/lzApp/LzApp.sol\":6010:6032  SetPrecrime(_precrime) */\n      mload(0x40)\n      dup1\n      swap2\n      sub\n      swap1\n      log1\n        /* \"contracts/lzApp/LzApp.sol\":5906:6039  function setPrecrime(address _precrime) external onlyOwner {... */\n      pop\n      jump\t// out\n        /* \"contracts/lzApp/LzApp.sol\":4293:4495  function setConfig(uint16 _version, uint16 _chainId, uint _configType, bytes calldata _config) external override onlyOwner {... */\n    tag_149:\n        /* \"contracts/openzeppelin/contracts/access/Ownable.sol\":1094:1107  _checkOwner() */\n      tag_285\n        /* \"contracts/openzeppelin/contracts/access/Ownable.sol\":1094:1105  _checkOwner */\n      tag_204\n        /* \"contracts/openzeppelin/contracts/access/Ownable.sol\":1094:1107  _checkOwner() */\n      jump\t// in\n    tag_285:\n        /* \"contracts/lzApp/LzApp.sol\":4426:4488  lzEndpoint.setConfig(_version, _chainId, _configType, _config) */\n      mload(0x40)\n      shl(0xe2, 0x32fb62e7)\n      dup2\n      mstore\n      sub(shl(0xa0, 0x01), 0x01)\n        /* \"contracts/lzApp/LzApp.sol\":4426:4436  lzEndpoint */\n      immutable(\"0x2c7ca6eaf0dd20913c55b4658e5b02864b47cfd1b3241634c484bb991f3fabe0\")\n        /* \"contracts/lzApp/LzApp.sol\":4426:4446  lzEndpoint.setConfig */\n      and\n      swap1\n      0xcbed8b9c\n      swap1\n        /* \"contracts/lzApp/LzApp.sol\":4426:4488  lzEndpoint.setConfig(_version, _chainId, _configType, _config) */\n      tag_287\n      swap1\n        /* \"contracts/lzApp/LzApp.sol\":4447:4455  _version */\n      dup9\n      swap1\n        /* \"contracts/lzApp/LzApp.sol\":4457:4465  _chainId */\n      dup9\n      swap1\n        /* \"contracts/lzApp/LzApp.sol\":4467:4478  _configType */\n      dup9\n      swap1\n        /* \"contracts/lzApp/LzApp.sol\":4480:4487  _config */\n      dup9\n      swap1\n      dup9\n      swap1\n        /* \"contracts/lzApp/LzApp.sol\":4426:4488  lzEndpoint.setConfig(_version, _chainId, _configType, _config) */\n      0x04\n      add\n      tag_288\n      jump\t// in\n    tag_287:\n      0x00\n      mload(0x40)\n      dup1\n      dup4\n      sub\n      dup2\n      0x00\n      dup8\n      dup1\n      extcodesize\n      iszero\n      dup1\n      iszero\n      tag_289\n      jumpi\n      0x00\n      dup1\n      revert\n    tag_289:\n      pop\n      gas\n      call\n      iszero\n      dup1\n      iszero\n      tag_291\n      jumpi\n      returndatasize\n      0x00\n      dup1\n      returndatacopy\n      revert(0x00, returndatasize)\n    tag_291:\n      pop\n      pop\n      pop\n      pop\n        /* \"contracts/lzApp/LzApp.sol\":4293:4495  function setConfig(uint16 _version, uint16 _chainId, uint _configType, bytes calldata _config) external override onlyOwner {... */\n      pop\n      pop\n      pop\n      pop\n      pop\n      jump\t// out\n        /* \"contracts/lzApp/NonblockingLzApp.sol\":2343:3100  function retryMessage(uint16 _srcChainId, bytes calldata _srcAddress, uint64 _nonce, bytes calldata _payload) public payable virtual {... */\n    tag_157:\n        /* \"contracts/lzApp/NonblockingLzApp.sol\":2552:2579  failedMessages[_srcChainId] */\n      0xffff\n      dup7\n      and\n        /* \"contracts/lzApp/NonblockingLzApp.sol\":2530:2549  bytes32 payloadHash */\n      0x00\n        /* \"contracts/lzApp/NonblockingLzApp.sol\":2552:2579  failedMessages[_srcChainId] */\n      swap1\n      dup2\n      mstore\n        /* \"contracts/lzApp/NonblockingLzApp.sol\":2552:2566  failedMessages */\n      0x05\n        /* \"contracts/lzApp/NonblockingLzApp.sol\":2552:2579  failedMessages[_srcChainId] */\n      0x20\n      mstore\n      0x40\n      dup1\n      dup3\n      keccak256\n        /* \"contracts/lzApp/NonblockingLzApp.sol\":2552:2592  failedMessages[_srcChainId][_srcAddress] */\n      swap1\n      mload\n      tag_293\n      swap1\n        /* \"contracts/lzApp/NonblockingLzApp.sol\":2580:2591  _srcAddress */\n      dup9\n      swap1\n      dup9\n      swap1\n        /* \"contracts/lzApp/NonblockingLzApp.sol\":2552:2592  failedMessages[_srcChainId][_srcAddress] */\n      tag_196\n      jump\t// in\n    tag_293:\n      swap1\n      dup2\n      mstore\n      0x40\n      dup1\n      mload\n      0x20\n      swap3\n      dup2\n      swap1\n      sub\n      dup4\n      add\n      swap1\n      keccak256\n      sub(shl(0x40, 0x01), 0x01)\n        /* \"contracts/lzApp/NonblockingLzApp.sol\":2552:2600  failedMessages[_srcChainId][_srcAddress][_nonce] */\n      dup8\n      and\n      0x00\n      swap1\n      dup2\n      mstore\n      swap3\n      mstore\n      swap1\n      keccak256\n      sload\n      swap1\n      pop\n      dup1\n        /* \"contracts/lzApp/NonblockingLzApp.sol\":2610:2683  require(payloadHash != bytes32(0), \"NonblockingLzApp: no stored message\") */\n      tag_294\n      jumpi\n      mload(0x40)\n      shl(0xe5, 0x461bcd)\n      dup2\n      mstore\n        /* \"#utility.yul\":15120:15122   */\n      0x20\n        /* \"contracts/lzApp/NonblockingLzApp.sol\":2610:2683  require(payloadHash != bytes32(0), \"NonblockingLzApp: no stored message\") */\n      0x04\n      dup3\n      add\n        /* \"#utility.yul\":15102:15123   */\n      mstore\n        /* \"#utility.yul\":15159:15161   */\n      0x23\n        /* \"#utility.yul\":15139:15157   */\n      0x24\n      dup3\n      add\n        /* \"#utility.yul\":15132:15162   */\n      mstore\n        /* \"#utility.yul\":15198:15232   */\n      0x4e6f6e626c6f636b696e674c7a4170703a206e6f2073746f726564206d657373\n        /* \"#utility.yul\":15178:15196   */\n      0x44\n      dup3\n      add\n        /* \"#utility.yul\":15171:15233   */\n      mstore\n      shl(0xe8, 0x616765)\n        /* \"#utility.yul\":15249:15267   */\n      0x64\n      dup3\n      add\n        /* \"#utility.yul\":15242:15275   */\n      mstore\n        /* \"#utility.yul\":15292:15311   */\n      0x84\n      add\n        /* \"contracts/lzApp/NonblockingLzApp.sol\":2610:2683  require(payloadHash != bytes32(0), \"NonblockingLzApp: no stored message\") */\n      tag_185\n        /* \"#utility.yul\":14918:15317   */\n      jump\n        /* \"contracts/lzApp/NonblockingLzApp.sol\":2610:2683  require(payloadHash != bytes32(0), \"NonblockingLzApp: no stored message\") */\n    tag_294:\n        /* \"contracts/lzApp/NonblockingLzApp.sol\":2724:2735  payloadHash */\n      dup1\n        /* \"contracts/lzApp/NonblockingLzApp.sol\":2711:2719  _payload */\n      dup4\n      dup4\n        /* \"contracts/lzApp/NonblockingLzApp.sol\":2701:2720  keccak256(_payload) */\n      mload(0x40)\n      tag_297\n      swap3\n      swap2\n      swap1\n      tag_196\n      jump\t// in\n    tag_297:\n      mload(0x40)\n      dup1\n      swap2\n      sub\n      swap1\n      keccak256\n        /* \"contracts/lzApp/NonblockingLzApp.sol\":2701:2735  keccak256(_payload) == payloadHash */\n      eq\n        /* \"contracts/lzApp/NonblockingLzApp.sol\":2693:2773  require(keccak256(_payload) == payloadHash, \"NonblockingLzApp: invalid payload\") */\n      tag_298\n      jumpi\n      mload(0x40)\n      shl(0xe5, 0x461bcd)\n      dup2\n      mstore\n        /* \"#utility.yul\":15524:15526   */\n      0x20\n        /* \"contracts/lzApp/NonblockingLzApp.sol\":2693:2773  require(keccak256(_payload) == payloadHash, \"NonblockingLzApp: invalid payload\") */\n      0x04\n      dup3\n      add\n        /* \"#utility.yul\":15506:15527   */\n      mstore\n        /* \"#utility.yul\":15563:15565   */\n      0x21\n        /* \"#utility.yul\":15543:15561   */\n      0x24\n      dup3\n      add\n        /* \"#utility.yul\":15536:15566   */\n      mstore\n        /* \"#utility.yul\":15602:15636   */\n      0x4e6f6e626c6f636b696e674c7a4170703a20696e76616c6964207061796c6f61\n        /* \"#utility.yul\":15582:15600   */\n      0x44\n      dup3\n      add\n        /* \"#utility.yul\":15575:15637   */\n      mstore\n      shl(0xfa, 0x19)\n        /* \"#utility.yul\":15653:15671   */\n      0x64\n      dup3\n      add\n        /* \"#utility.yul\":15646:15677   */\n      mstore\n        /* \"#utility.yul\":15694:15713   */\n      0x84\n      add\n        /* \"contracts/lzApp/NonblockingLzApp.sol\":2693:2773  require(keccak256(_payload) == payloadHash, \"NonblockingLzApp: invalid payload\") */\n      tag_185\n        /* \"#utility.yul\":15322:15719   */\n      jump\n        /* \"contracts/lzApp/NonblockingLzApp.sol\":2693:2773  require(keccak256(_payload) == payloadHash, \"NonblockingLzApp: invalid payload\") */\n    tag_298:\n        /* \"contracts/lzApp/NonblockingLzApp.sol\":2819:2846  failedMessages[_srcChainId] */\n      0xffff\n      dup8\n      and\n        /* \"contracts/lzApp/NonblockingLzApp.sol\":2878:2879  0 */\n      0x00\n        /* \"contracts/lzApp/NonblockingLzApp.sol\":2819:2846  failedMessages[_srcChainId] */\n      swap1\n      dup2\n      mstore\n        /* \"contracts/lzApp/NonblockingLzApp.sol\":2819:2833  failedMessages */\n      0x05\n        /* \"contracts/lzApp/NonblockingLzApp.sol\":2819:2846  failedMessages[_srcChainId] */\n      0x20\n      mstore\n      0x40\n      dup1\n      dup3\n      keccak256\n        /* \"contracts/lzApp/NonblockingLzApp.sol\":2819:2859  failedMessages[_srcChainId][_srcAddress] */\n      swap1\n      mload\n      tag_301\n      swap1\n        /* \"contracts/lzApp/NonblockingLzApp.sol\":2847:2858  _srcAddress */\n      dup10\n      swap1\n      dup10\n      swap1\n        /* \"contracts/lzApp/NonblockingLzApp.sol\":2819:2859  failedMessages[_srcChainId][_srcAddress] */\n      tag_196\n      jump\t// in\n    tag_301:\n      swap1\n      dup2\n      mstore\n      0x40\n      dup1\n      mload\n      0x20\n      swap3\n      dup2\n      swap1\n      sub\n      dup4\n      add\n      dup2\n      keccak256\n      sub(shl(0x40, 0x01), 0x01)\n        /* \"contracts/lzApp/NonblockingLzApp.sol\":2819:2867  failedMessages[_srcChainId][_srcAddress][_nonce] */\n      dup10\n      and\n      0x00\n      swap1\n      dup2\n      mstore\n      swap1\n      dup5\n      mstore\n      dup3\n      swap1\n      keccak256\n        /* \"contracts/lzApp/NonblockingLzApp.sol\":2819:2880  failedMessages[_srcChainId][_srcAddress][_nonce] = bytes32(0) */\n      swap4\n      swap1\n      swap4\n      sstore\n        /* \"contracts/lzApp/NonblockingLzApp.sol\":2947:3012  _nonblockingLzReceive(_srcChainId, _srcAddress, _nonce, _payload) */\n      0x1f\n      dup9\n      add\n      dup3\n      swap1\n      div\n      dup3\n      mul\n      dup4\n      add\n      dup3\n      add\n      swap1\n      mstore\n      dup7\n      dup3\n      mstore\n      tag_302\n      swap2\n        /* \"contracts/lzApp/NonblockingLzApp.sol\":2969:2980  _srcChainId */\n      dup10\n      swap2\n        /* \"contracts/lzApp/NonblockingLzApp.sol\":2982:2993  _srcAddress */\n      dup10\n      swap1\n        /* \"contracts/lzApp/NonblockingLzApp.sol\":2947:3012  _nonblockingLzReceive(_srcChainId, _srcAddress, _nonce, _payload) */\n      dup10\n      swap1\n      dup2\n      swap1\n      dup5\n      add\n        /* \"contracts/lzApp/NonblockingLzApp.sol\":2982:2993  _srcAddress */\n      dup4\n        /* \"contracts/lzApp/NonblockingLzApp.sol\":2947:3012  _nonblockingLzReceive(_srcChainId, _srcAddress, _nonce, _payload) */\n      dup3\n      dup1\n        /* \"contracts/lzApp/NonblockingLzApp.sol\":2982:2993  _srcAddress */\n      dup3\n        /* \"contracts/lzApp/NonblockingLzApp.sol\":2947:3012  _nonblockingLzReceive(_srcChainId, _srcAddress, _nonce, _payload) */\n      dup5\n      calldatacopy\n      0x00\n      swap3\n      add\n      swap2\n      swap1\n      swap2\n      mstore\n      pop\n      pop\n      0x40\n      dup1\n      mload\n      0x20\n      0x1f\n      dup11\n      add\n      dup2\n      swap1\n      div\n      dup2\n      mul\n      dup3\n      add\n      dup2\n      add\n      swap1\n      swap3\n      mstore\n      dup9\n      dup2\n      mstore\n        /* \"contracts/lzApp/NonblockingLzApp.sol\":2995:3001  _nonce */\n      dup11\n      swap4\n      pop\n        /* \"contracts/lzApp/NonblockingLzApp.sol\":2947:3012  _nonblockingLzReceive(_srcChainId, _srcAddress, _nonce, _payload) */\n      swap2\n      pop\n        /* \"contracts/lzApp/NonblockingLzApp.sol\":3003:3011  _payload */\n      dup9\n      swap1\n      dup9\n      swap1\n      dup2\n      swap1\n        /* \"contracts/lzApp/NonblockingLzApp.sol\":2947:3012  _nonblockingLzReceive(_srcChainId, _srcAddress, _nonce, _payload) */\n      dup5\n      add\n        /* \"contracts/lzApp/NonblockingLzApp.sol\":3003:3011  _payload */\n      dup4\n      dup3\n      dup1\n      dup3\n        /* \"contracts/lzApp/NonblockingLzApp.sol\":2947:3012  _nonblockingLzReceive(_srcChainId, _srcAddress, _nonce, _payload) */\n      dup5\n      calldatacopy\n      0x00\n      swap3\n      add\n      swap2\n      swap1\n      swap2\n      mstore\n      pop\n        /* \"contracts/lzApp/NonblockingLzApp.sol\":2947:2968  _nonblockingLzReceive */\n      tag_248\n      swap3\n      pop\n      pop\n      pop\n        /* \"contracts/lzApp/NonblockingLzApp.sol\":2947:3012  _nonblockingLzReceive(_srcChainId, _srcAddress, _nonce, _payload) */\n      jump\t// in\n    tag_302:\n        /* \"contracts/lzApp/NonblockingLzApp.sol\":3027:3093  RetryMessageSuccess(_srcChainId, _srcAddress, _nonce, payloadHash) */\n      0xc264d91f3adc5588250e1551f547752ca0cfa8f6b530d243b9f9f4cab10ea8e5\n        /* \"contracts/lzApp/NonblockingLzApp.sol\":3047:3058  _srcChainId */\n      dup8\n        /* \"contracts/lzApp/NonblockingLzApp.sol\":3060:3071  _srcAddress */\n      dup8\n      dup8\n        /* \"contracts/lzApp/NonblockingLzApp.sol\":3073:3079  _nonce */\n      dup8\n        /* \"contracts/lzApp/NonblockingLzApp.sol\":3081:3092  payloadHash */\n      dup6\n        /* \"contracts/lzApp/NonblockingLzApp.sol\":3027:3093  RetryMessageSuccess(_srcChainId, _srcAddress, _nonce, payloadHash) */\n      mload(0x40)\n      tag_303\n      swap6\n      swap5\n      swap4\n      swap3\n      swap2\n      swap1\n      tag_304\n      jump\t// in\n    tag_303:\n      mload(0x40)\n      dup1\n      swap2\n      sub\n      swap1\n      log1\n        /* \"contracts/lzApp/NonblockingLzApp.sol\":2476:3100  {... */\n      pop\n        /* \"contracts/lzApp/NonblockingLzApp.sol\":2343:3100  function retryMessage(uint16 _srcChainId, bytes calldata _srcAddress, uint64 _nonce, bytes calldata _payload) public payable virtual {... */\n      pop\n      pop\n      pop\n      pop\n      pop\n      pop\n      jump\t// out\n        /* \"contracts/lzApp/LzApp.sol\":6045:6325  function setMinDstGas(uint16 _dstChainId, uint16 _packetType, uint _minGas) external onlyOwner {... */\n    tag_162:\n        /* \"contracts/openzeppelin/contracts/access/Ownable.sol\":1094:1107  _checkOwner() */\n      tag_306\n        /* \"contracts/openzeppelin/contracts/access/Ownable.sol\":1094:1105  _checkOwner */\n      tag_204\n        /* \"contracts/openzeppelin/contracts/access/Ownable.sol\":1094:1107  _checkOwner() */\n      jump\t// in\n    tag_306:\n        /* \"contracts/lzApp/LzApp.sol\":6168:6169  0 */\n      0x00\n        /* \"contracts/lzApp/LzApp.sol\":6158:6165  _minGas */\n      dup2\n        /* \"contracts/lzApp/LzApp.sol\":6158:6169  _minGas > 0 */\n      gt\n        /* \"contracts/lzApp/LzApp.sol\":6150:6195  require(_minGas > 0, \"LzApp: invalid minGas\") */\n      tag_308\n      jumpi\n      mload(0x40)\n      shl(0xe5, 0x461bcd)\n      dup2\n      mstore\n        /* \"#utility.yul\":16424:16426   */\n      0x20\n        /* \"contracts/lzApp/LzApp.sol\":6150:6195  require(_minGas > 0, \"LzApp: invalid minGas\") */\n      0x04\n      dup3\n      add\n        /* \"#utility.yul\":16406:16427   */\n      mstore\n        /* \"#utility.yul\":16463:16465   */\n      0x15\n        /* \"#utility.yul\":16443:16461   */\n      0x24\n      dup3\n      add\n        /* \"#utility.yul\":16436:16466   */\n      mstore\n      shl(0x58, 0x4c7a4170703a20696e76616c6964206d696e476173)\n        /* \"#utility.yul\":16482:16500   */\n      0x44\n      dup3\n      add\n        /* \"#utility.yul\":16475:16526   */\n      mstore\n        /* \"#utility.yul\":16543:16561   */\n      0x64\n      add\n        /* \"contracts/lzApp/LzApp.sol\":6150:6195  require(_minGas > 0, \"LzApp: invalid minGas\") */\n      tag_185\n        /* \"#utility.yul\":16222:16567   */\n      jump\n        /* \"contracts/lzApp/LzApp.sol\":6150:6195  require(_minGas > 0, \"LzApp: invalid minGas\") */\n    tag_308:\n        /* \"contracts/lzApp/LzApp.sol\":6205:6233  minDstGasLookup[_dstChainId] */\n      0xffff\n      dup4\n      dup2\n      and\n      0x00\n      dup2\n      dup2\n      mstore\n        /* \"contracts/lzApp/LzApp.sol\":6205:6220  minDstGasLookup */\n      0x02\n        /* \"contracts/lzApp/LzApp.sol\":6205:6233  minDstGasLookup[_dstChainId] */\n      0x20\n      swap1\n      dup2\n      mstore\n      0x40\n      dup1\n      dup4\n      keccak256\n        /* \"contracts/lzApp/LzApp.sol\":6205:6246  minDstGasLookup[_dstChainId][_packetType] */\n      swap5\n      dup8\n      and\n      dup1\n      dup5\n      mstore\n      swap5\n      dup3\n      mstore\n      swap2\n      dup3\n      swap1\n      keccak256\n        /* \"contracts/lzApp/LzApp.sol\":6205:6256  minDstGasLookup[_dstChainId][_packetType] = _minGas */\n      dup6\n      swap1\n      sstore\n        /* \"contracts/lzApp/LzApp.sol\":6271:6318  SetMinDstGas(_dstChainId, _packetType, _minGas) */\n      dup2\n      mload\n        /* \"#utility.yul\":16795:16829   */\n      swap3\n      dup4\n      mstore\n        /* \"#utility.yul\":16845:16863   */\n      dup3\n      add\n        /* \"#utility.yul\":16838:16881   */\n      swap3\n      swap1\n      swap3\n      mstore\n        /* \"#utility.yul\":16897:16915   */\n      swap1\n      dup2\n      add\n        /* \"#utility.yul\":16890:16924   */\n      dup3\n      swap1\n      mstore\n        /* \"contracts/lzApp/LzApp.sol\":6271:6318  SetMinDstGas(_dstChainId, _packetType, _minGas) */\n      0x9d5c7c0b934da8fefa9c7760c98383778a12dfbfc0c3b3106518f43fb9508ac0\n      swap1\n        /* \"#utility.yul\":16758:16760   */\n      0x60\n        /* \"#utility.yul\":16743:16761   */\n      add\n        /* \"contracts/lzApp/LzApp.sol\":6271:6318  SetMinDstGas(_dstChainId, _packetType, _minGas) */\n      tag_279\n        /* \"#utility.yul\":16572:16930   */\n      jump\n        /* \"contracts/lzApp/LzApp.sol\":5080:5284  function setTrustedRemote(uint16 _remoteChainId, bytes calldata _path) external onlyOwner {... */\n    tag_166:\n        /* \"contracts/openzeppelin/contracts/access/Ownable.sol\":1094:1107  _checkOwner() */\n      tag_314\n        /* \"contracts/openzeppelin/contracts/access/Ownable.sol\":1094:1105  _checkOwner */\n      tag_204\n        /* \"contracts/openzeppelin/contracts/access/Ownable.sol\":1094:1107  _checkOwner() */\n      jump\t// in\n    tag_314:\n        /* \"contracts/lzApp/LzApp.sol\":5180:5215  trustedRemoteLookup[_remoteChainId] */\n      0xffff\n      dup4\n      and\n      0x00\n      swap1\n      dup2\n      mstore\n        /* \"contracts/lzApp/LzApp.sol\":5180:5199  trustedRemoteLookup */\n      0x01\n        /* \"contracts/lzApp/LzApp.sol\":5180:5215  trustedRemoteLookup[_remoteChainId] */\n      0x20\n      mstore\n      0x40\n      swap1\n      keccak256\n        /* \"contracts/lzApp/LzApp.sol\":5180:5223  trustedRemoteLookup[_remoteChainId] = _path */\n      tag_316\n        /* \"contracts/lzApp/LzApp.sol\":5218:5223  _path */\n      dup3\n      dup5\n        /* \"contracts/lzApp/LzApp.sol\":5180:5215  trustedRemoteLookup[_remoteChainId] */\n      dup4\n        /* \"contracts/lzApp/LzApp.sol\":5180:5223  trustedRemoteLookup[_remoteChainId] = _path */\n      tag_317\n      jump\t// in\n    tag_316:\n      pop\n        /* \"contracts/lzApp/LzApp.sol\":5238:5277  SetTrustedRemote(_remoteChainId, _path) */\n      0xfa41487ad5d6728f0b19276fa1eddc16558578f5109fc39d2dc33c3230470dab\n        /* \"contracts/lzApp/LzApp.sol\":5255:5269  _remoteChainId */\n      dup4\n        /* \"contracts/lzApp/LzApp.sol\":5271:5276  _path */\n      dup4\n      dup4\n        /* \"contracts/lzApp/LzApp.sol\":5238:5277  SetTrustedRemote(_remoteChainId, _path) */\n      mload(0x40)\n      tag_279\n      swap4\n      swap3\n      swap2\n      swap1\n      tag_238\n      jump\t// in\n        /* \"contracts/examples/PingPong.sol\":980:2218  function ping(... */\n    tag_170:\n        /* \"contracts/examples/PingPong.sol\":1233:1234  0 */\n      0x00\n        /* \"contracts/examples/PingPong.sol\":1209:1230  address(this).balance */\n      selfbalance\n        /* \"contracts/examples/PingPong.sol\":1209:1234  address(this).balance > 0 */\n      gt\n        /* \"contracts/examples/PingPong.sol\":1201:1303  require(address(this).balance > 0, \"the balance of this contract is 0. pls send gas for message fees\") */\n      tag_320\n      jumpi\n      0x40\n      dup1\n      mload\n      shl(0xe5, 0x461bcd)\n      dup2\n      mstore\n        /* \"#utility.yul\":18344:18346   */\n      0x20\n        /* \"contracts/examples/PingPong.sol\":1201:1303  require(address(this).balance > 0, \"the balance of this contract is 0. pls send gas for message fees\") */\n      0x04\n      dup3\n      add\n        /* \"#utility.yul\":18326:18347   */\n      mstore\n        /* \"#utility.yul\":18363:18381   */\n      0x24\n      dup2\n      add\n        /* \"#utility.yul\":18356:18386   */\n      swap2\n      swap1\n      swap2\n      mstore\n        /* \"#utility.yul\":18422:18456   */\n      0x7468652062616c616e6365206f66207468697320636f6e747261637420697320\n        /* \"#utility.yul\":18402:18420   */\n      0x44\n      dup3\n      add\n        /* \"#utility.yul\":18395:18457   */\n      mstore\n        /* \"#utility.yul\":18493:18527   */\n      0x302e20706c732073656e642067617320666f72206d6573736167652066656573\n        /* \"#utility.yul\":18473:18491   */\n      0x64\n      dup3\n      add\n        /* \"#utility.yul\":18466:18528   */\n      mstore\n        /* \"#utility.yul\":18545:18564   */\n      0x84\n      add\n        /* \"contracts/examples/PingPong.sol\":1201:1303  require(address(this).balance > 0, \"the balance of this contract is 0. pls send gas for message fees\") */\n      tag_185\n        /* \"#utility.yul\":18142:18570   */\n      jump\n        /* \"contracts/examples/PingPong.sol\":1201:1303  require(address(this).balance > 0, \"the balance of this contract is 0. pls send gas for message fees\") */\n    tag_320:\n        /* \"contracts/examples/PingPong.sol\":1319:1332  Ping(++pings) */\n      0x48257dc961b6f792c2b78a080dacfed693b660960a702de21cee364e20270e2f\n        /* \"contracts/examples/PingPong.sol\":1324:1331  ++pings */\n      tag_323\n      dup3\n      tag_324\n      jump\t// in\n    tag_323:\n        /* \"contracts/examples/PingPong.sol\":1319:1332  Ping(++pings) */\n      mload(0x40)\n        /* \"#utility.yul\":3477:3502   */\n      dup2\n      dup2\n      mstore\n        /* \"contracts/examples/PingPong.sol\":1324:1331  ++pings */\n      swap1\n      swap3\n      pop\n        /* \"#utility.yul\":3465:3467   */\n      0x20\n        /* \"#utility.yul\":3450:3468   */\n      add\n        /* \"contracts/examples/PingPong.sol\":1319:1332  Ping(++pings) */\n      mload(0x40)\n      dup1\n      swap2\n      sub\n      swap1\n      log1\n        /* \"contracts/examples/PingPong.sol\":1398:1418  bytes memory payload */\n      0x00\n        /* \"contracts/examples/PingPong.sol\":1432:1437  pings */\n      dup2\n        /* \"contracts/examples/PingPong.sol\":1421:1438  abi.encode(pings) */\n      add(0x20, mload(0x40))\n      tag_326\n      swap2\n        /* \"#utility.yul\":3477:3502   */\n      dup2\n      mstore\n        /* \"#utility.yul\":3465:3467   */\n      0x20\n        /* \"#utility.yul\":3450:3468   */\n      add\n      swap1\n        /* \"#utility.yul\":3331:3508   */\n      jump\n        /* \"contracts/examples/PingPong.sol\":1421:1438  abi.encode(pings) */\n    tag_326:\n      0x40\n      dup1\n      mload\n      not(0x1f)\n      dup2\n      dup5\n      sub\n      add\n      dup2\n      mstore\n      dup3\n      dup3\n      mstore\n      shl(0xf0, 0x01)\n      0x20\n        /* \"contracts/examples/PingPong.sol\":1628:1681  abi.encodePacked(version, gasForDestinationLzReceive) */\n      dup5\n      add\n        /* \"#utility.yul\":18870:18921   */\n      mstore\n        /* \"contracts/examples/PingPong.sol\":1583:1589  350000 */\n      0x055730\n        /* \"#utility.yul\":18937:18948   */\n      0x22\n      dup1\n      dup6\n      add\n        /* \"#utility.yul\":18930:18957   */\n      dup3\n      swap1\n      mstore\n        /* \"contracts/examples/PingPong.sol\":1628:1681  abi.encodePacked(version, gasForDestinationLzReceive) */\n      dup4\n      mload\n      dup1\n      dup7\n      sub\n      swap1\n      swap2\n      add\n      dup2\n      mstore\n        /* \"#utility.yul\":18973:18985   */\n      0x42\n      swap1\n      swap5\n      add\n        /* \"contracts/examples/PingPong.sol\":1628:1681  abi.encodePacked(version, gasForDestinationLzReceive) */\n      swap1\n      swap3\n      mstore\n        /* \"contracts/examples/PingPong.sol\":1421:1438  abi.encode(pings) */\n      swap3\n      pop\n        /* \"contracts/examples/PingPong.sol\":1538:1539  1 */\n      0x01\n      swap2\n        /* \"contracts/examples/PingPong.sol\":1727:2211  _lzSend( // {value: messageFee} will be paid out of this contract!... */\n      tag_200\n        /* \"contracts/examples/PingPong.sol\":1806:1817  _dstChainId */\n      dup8\n        /* \"contracts/examples/PingPong.sol\":1421:1438  abi.encode(pings) */\n      dup6\n        /* \"contracts/examples/PingPong.sol\":1908:1912  this */\n      address\n      0x00\n        /* \"contracts/examples/PingPong.sol\":1628:1681  abi.encodePacked(version, gasForDestinationLzReceive) */\n      dup6\n        /* \"contracts/examples/PingPong.sol\":2192:2201  msg.value */\n      callvalue\n        /* \"contracts/examples/PingPong.sol\":1727:1734  _lzSend */\n      tag_330\n        /* \"contracts/examples/PingPong.sol\":1727:2211  _lzSend( // {value: messageFee} will be paid out of this contract!... */\n      jump\t// in\n        /* \"contracts/openzeppelin/contracts/access/Ownable.sol\":2074:2272  function transferOwnership(address newOwner) public virtual onlyOwner {... */\n    tag_174:\n        /* \"contracts/openzeppelin/contracts/access/Ownable.sol\":1094:1107  _checkOwner() */\n      tag_332\n        /* \"contracts/openzeppelin/contracts/access/Ownable.sol\":1094:1105  _checkOwner */\n      tag_204\n        /* \"contracts/openzeppelin/contracts/access/Ownable.sol\":1094:1107  _checkOwner() */\n      jump\t// in\n    tag_332:\n      sub(shl(0xa0, 0x01), 0x01)\n        /* \"contracts/openzeppelin/contracts/access/Ownable.sol\":2162:2184  newOwner != address(0) */\n      dup2\n      and\n        /* \"contracts/openzeppelin/contracts/access/Ownable.sol\":2154:2227  require(newOwner != address(0), \"Ownable: new owner is the zero address\") */\n      tag_334\n      jumpi\n      mload(0x40)\n      shl(0xe5, 0x461bcd)\n      dup2\n      mstore\n        /* \"#utility.yul\":19198:19200   */\n      0x20\n        /* \"contracts/openzeppelin/contracts/access/Ownable.sol\":2154:2227  require(newOwner != address(0), \"Ownable: new owner is the zero address\") */\n      0x04\n      dup3\n      add\n        /* \"#utility.yul\":19180:19201   */\n      mstore\n        /* \"#utility.yul\":19237:19239   */\n      0x26\n        /* \"#utility.yul\":19217:19235   */\n      0x24\n      dup3\n      add\n        /* \"#utility.yul\":19210:19240   */\n      mstore\n        /* \"#utility.yul\":19276:19310   */\n      0x4f776e61626c653a206e6577206f776e657220697320746865207a65726f2061\n        /* \"#utility.yul\":19256:19274   */\n      0x44\n      dup3\n      add\n        /* \"#utility.yul\":19249:19311   */\n      mstore\n      shl(0xd0, 0x646472657373)\n        /* \"#utility.yul\":19327:19345   */\n      0x64\n      dup3\n      add\n        /* \"#utility.yul\":19320:19356   */\n      mstore\n        /* \"#utility.yul\":19373:19392   */\n      0x84\n      add\n        /* \"contracts/openzeppelin/contracts/access/Ownable.sol\":2154:2227  require(newOwner != address(0), \"Ownable: new owner is the zero address\") */\n      tag_185\n        /* \"#utility.yul\":18996:19398   */\n      jump\n        /* \"contracts/openzeppelin/contracts/access/Ownable.sol\":2154:2227  require(newOwner != address(0), \"Ownable: new owner is the zero address\") */\n    tag_334:\n        /* \"contracts/openzeppelin/contracts/access/Ownable.sol\":2237:2265  _transferOwnership(newOwner) */\n      tag_337\n        /* \"contracts/openzeppelin/contracts/access/Ownable.sol\":2256:2264  newOwner */\n      dup2\n        /* \"contracts/openzeppelin/contracts/access/Ownable.sol\":2237:2255  _transferOwnership */\n      tag_253\n        /* \"contracts/openzeppelin/contracts/access/Ownable.sol\":2237:2265  _transferOwnership(newOwner) */\n      jump\t// in\n    tag_337:\n        /* \"contracts/openzeppelin/contracts/access/Ownable.sol\":2074:2272  function transferOwnership(address newOwner) public virtual onlyOwner {... */\n      pop\n      jump\t// out\n        /* \"contracts/lzApp/LzApp.sol\":4025:4234  function getConfig(uint16 _version, uint16 _chainId, address, uint _configType) external view returns (bytes memory) {... */\n    tag_179:\n        /* \"contracts/lzApp/LzApp.sol\":4159:4227  lzEndpoint.getConfig(_version, _chainId, address(this), _configType) */\n      mload(0x40)\n      shl(0xe2, 0x3d7b2f6f)\n      dup2\n      mstore\n        /* \"#utility.yul\":19640:19646   */\n      0xffff\n        /* \"#utility.yul\":19673:19688   */\n      dup1\n      dup7\n      and\n        /* \"contracts/lzApp/LzApp.sol\":4159:4227  lzEndpoint.getConfig(_version, _chainId, address(this), _configType) */\n      0x04\n      dup4\n      add\n        /* \"#utility.yul\":19655:19689   */\n      mstore\n        /* \"#utility.yul\":19725:19740   */\n      dup5\n      and\n        /* \"#utility.yul\":19705:19723   */\n      0x24\n      dup3\n      add\n        /* \"#utility.yul\":19698:19741   */\n      mstore\n        /* \"contracts/lzApp/LzApp.sol\":4208:4212  this */\n      address\n        /* \"#utility.yul\":19757:19775   */\n      0x44\n      dup3\n      add\n        /* \"#utility.yul\":19750:19810   */\n      mstore\n        /* \"#utility.yul\":19826:19844   */\n      0x64\n      dup2\n      add\n        /* \"#utility.yul\":19819:19853   */\n      dup3\n      swap1\n      mstore\n        /* \"contracts/lzApp/LzApp.sol\":4128:4140  bytes memory */\n      0x60\n      swap1\n        /* \"contracts/lzApp/LzApp.sol\":4159:4169  lzEndpoint */\n      immutable(\"0x2c7ca6eaf0dd20913c55b4658e5b02864b47cfd1b3241634c484bb991f3fabe0\")\n      sub(shl(0xa0, 0x01), 0x01)\n        /* \"contracts/lzApp/LzApp.sol\":4159:4179  lzEndpoint.getConfig */\n      and\n      swap1\n      0xf5ecbdbc\n      swap1\n        /* \"#utility.yul\":19602:19621   */\n      0x84\n      add\n        /* \"contracts/lzApp/LzApp.sol\":4159:4227  lzEndpoint.getConfig(_version, _chainId, address(this), _configType) */\n      0x00\n      mload(0x40)\n      dup1\n      dup4\n      sub\n      dup2\n      dup7\n      gas\n      staticcall\n      iszero\n      dup1\n      iszero\n      tag_342\n      jumpi\n      returndatasize\n      0x00\n      dup1\n      returndatacopy\n      revert(0x00, returndatasize)\n    tag_342:\n      pop\n      pop\n      pop\n      pop\n      mload(0x40)\n      returndatasize\n      0x00\n      dup3\n      returndatacopy\n      0x1f\n      returndatasize\n      swap1\n      dup2\n      add\n      not(0x1f)\n      and\n      dup3\n      add\n      0x40\n      mstore\n      tag_343\n      swap2\n      swap1\n      dup2\n      add\n      swap1\n      tag_344\n      jump\t// in\n    tag_343:\n        /* \"contracts/lzApp/LzApp.sol\":4152:4227  return lzEndpoint.getConfig(_version, _chainId, address(this), _configType) */\n      swap6\n        /* \"contracts/lzApp/LzApp.sol\":4025:4234  function getConfig(uint16 _version, uint16 _chainId, address, uint _configType) external view returns (bytes memory) {... */\n      swap5\n      pop\n      pop\n      pop\n      pop\n      pop\n      jump\t// out\n        /* \"contracts/lzApp/NonblockingLzApp.sol\":980:1488  function _blockingLzReceive(uint16 _srcChainId, bytes memory _srcAddress, uint64 _nonce, bytes memory _payload) internal virtual override {... */\n    tag_201:\n        /* \"contracts/lzApp/NonblockingLzApp.sol\":1129:1141  bool success */\n      0x00\n        /* \"contracts/lzApp/NonblockingLzApp.sol\":1143:1162  bytes memory reason */\n      dup1\n        /* \"contracts/lzApp/NonblockingLzApp.sol\":1166:1319  address(this).excessivelySafeCall(gasleft(), 150, abi.encodeWithSelector(this.nonblockingLzReceive.selector, _srcChainId, _srcAddress, _nonce, _payload)) */\n      tag_347\n        /* \"contracts/lzApp/NonblockingLzApp.sol\":1200:1209  gasleft() */\n      gas\n        /* \"contracts/lzApp/NonblockingLzApp.sol\":1211:1214  150 */\n      0x96\n        /* \"contracts/lzApp/NonblockingLzApp.sol\":1239:1273  this.nonblockingLzReceive.selector */\n      shl(0xe0, 0x66ad5c8a)\n        /* \"contracts/lzApp/NonblockingLzApp.sol\":1275:1286  _srcChainId */\n      dup10\n        /* \"contracts/lzApp/NonblockingLzApp.sol\":1288:1299  _srcAddress */\n      dup10\n        /* \"contracts/lzApp/NonblockingLzApp.sol\":1301:1307  _nonce */\n      dup10\n        /* \"contracts/lzApp/NonblockingLzApp.sol\":1309:1317  _payload */\n      dup10\n        /* \"contracts/lzApp/NonblockingLzApp.sol\":1216:1318  abi.encodeWithSelector(this.nonblockingLzReceive.selector, _srcChainId, _srcAddress, _nonce, _payload) */\n      add(0x24, mload(0x40))\n      tag_348\n      swap5\n      swap4\n      swap3\n      swap2\n      swap1\n      tag_349\n      jump\t// in\n    tag_348:\n      0x40\n      dup1\n      mload\n      not(0x1f)\n      dup2\n      dup5\n      sub\n      add\n      dup2\n      mstore\n      swap2\n      swap1\n      mstore\n      0x20\n      dup2\n      add\n      dup1\n      mload\n      sub(shl(0xe0, 0x01), 0x01)\n      and\n      not(sub(shl(0xe0, 0x01), 0x01))\n      swap1\n      swap4\n      and\n      swap3\n      swap1\n      swap3\n      or\n      swap1\n      swap2\n      mstore\n        /* \"contracts/lzApp/NonblockingLzApp.sol\":1174:1178  this */\n      address\n      swap3\n        /* \"contracts/lzApp/NonblockingLzApp.sol\":1166:1319  address(this).excessivelySafeCall(gasleft(), 150, abi.encodeWithSelector(this.nonblockingLzReceive.selector, _srcChainId, _srcAddress, _nonce, _payload)) */\n      swap2\n      swap1\n        /* \"contracts/lzApp/NonblockingLzApp.sol\":1166:1199  address(this).excessivelySafeCall */\n      tag_350\n        /* \"contracts/lzApp/NonblockingLzApp.sol\":1166:1319  address(this).excessivelySafeCall(gasleft(), 150, abi.encodeWithSelector(this.nonblockingLzReceive.selector, _srcChainId, _srcAddress, _nonce, _payload)) */\n      jump\t// in\n    tag_347:\n        /* \"contracts/lzApp/NonblockingLzApp.sol\":1128:1319  (bool success, bytes memory reason) = address(this).excessivelySafeCall(gasleft(), 150, abi.encodeWithSelector(this.nonblockingLzReceive.selector, _srcChainId, _srcAddress, _nonce, _payload)) */\n      swap2\n      pop\n      swap2\n      pop\n        /* \"contracts/lzApp/NonblockingLzApp.sol\":1377:1384  success */\n      dup2\n        /* \"contracts/lzApp/NonblockingLzApp.sol\":1372:1482  if (!success) {... */\n      tag_247\n      jumpi\n        /* \"contracts/lzApp/NonblockingLzApp.sol\":1400:1471  _storeFailedMessage(_srcChainId, _srcAddress, _nonce, _payload, reason) */\n      tag_247\n        /* \"contracts/lzApp/NonblockingLzApp.sol\":1420:1431  _srcChainId */\n      dup7\n        /* \"contracts/lzApp/NonblockingLzApp.sol\":1433:1444  _srcAddress */\n      dup7\n        /* \"contracts/lzApp/NonblockingLzApp.sol\":1446:1452  _nonce */\n      dup7\n        /* \"contracts/lzApp/NonblockingLzApp.sol\":1454:1462  _payload */\n      dup7\n        /* \"contracts/lzApp/NonblockingLzApp.sol\":1464:1470  reason */\n      dup6\n        /* \"contracts/lzApp/NonblockingLzApp.sol\":1400:1419  _storeFailedMessage */\n      tag_353\n        /* \"contracts/lzApp/NonblockingLzApp.sol\":1400:1471  _storeFailedMessage(_srcChainId, _srcAddress, _nonce, _payload, reason) */\n      jump\t// in\n        /* \"contracts/openzeppelin/contracts/access/Ownable.sol\":1359:1489  function _checkOwner() internal view virtual {... */\n    tag_204:\n        /* \"contracts/openzeppelin/contracts/access/Ownable.sol\":1247:1254  address */\n      0x00\n        /* \"contracts/openzeppelin/contracts/access/Ownable.sol\":1273:1279  _owner */\n      sload\n      sub(shl(0xa0, 0x01), 0x01)\n      and\n        /* \"contracts/openzeppelin/contracts/utils/Context.sol\":719:729  msg.sender */\n      caller\n        /* \"contracts/openzeppelin/contracts/access/Ownable.sol\":1422:1445  owner() == _msgSender() */\n      eq\n        /* \"contracts/openzeppelin/contracts/access/Ownable.sol\":1414:1482  require(owner() == _msgSender(), \"Ownable: caller is not the owner\") */\n      tag_252\n      jumpi\n      mload(0x40)\n      shl(0xe5, 0x461bcd)\n      dup2\n      mstore\n        /* \"#utility.yul\":21278:21280   */\n      0x20\n        /* \"contracts/openzeppelin/contracts/access/Ownable.sol\":1414:1482  require(owner() == _msgSender(), \"Ownable: caller is not the owner\") */\n      0x04\n      dup3\n      add\n        /* \"#utility.yul\":21260:21281   */\n      dup2\n      swap1\n      mstore\n        /* \"#utility.yul\":21297:21315   */\n      0x24\n      dup3\n      add\n        /* \"#utility.yul\":21290:21320   */\n      mstore\n        /* \"#utility.yul\":21356:21390   */\n      0x4f776e61626c653a2063616c6c6572206973206e6f7420746865206f776e6572\n        /* \"#utility.yul\":21336:21354   */\n      0x44\n      dup3\n      add\n        /* \"#utility.yul\":21329:21391   */\n      mstore\n        /* \"#utility.yul\":21408:21426   */\n      0x64\n      add\n        /* \"contracts/openzeppelin/contracts/access/Ownable.sol\":1414:1482  require(owner() == _msgSender(), \"Ownable: caller is not the owner\") */\n      tag_185\n        /* \"#utility.yul\":21076:21432   */\n      jump\n        /* \"contracts/examples/PingPong.sol\":2224:2809  function _nonblockingLzReceive(... */\n    tag_248:\n        /* \"contracts/examples/PingPong.sol\":2590:2592  20 */\n      0x14\n        /* \"contracts/examples/PingPong.sol\":2573:2593  add(_srcAddress, 20) */\n      dup4\n      add\n        /* \"contracts/examples/PingPong.sol\":2567:2594  mload(add(_srcAddress, 20)) */\n      mload\n        /* \"contracts/examples/PingPong.sol\":2679:2707  abi.decode(_payload, (uint)) */\n      dup2\n      mload\n        /* \"contracts/examples/PingPong.sol\":2488:2513  address sendBackToAddress */\n      0x00\n      swap1\n        /* \"contracts/examples/PingPong.sol\":2679:2707  abi.decode(_payload, (uint)) */\n      tag_361\n      swap1\n      dup5\n      add\n      0x20\n      swap1\n      dup2\n      add\n      swap1\n      dup6\n      add\n      tag_362\n      jump\t// in\n    tag_361:\n        /* \"contracts/examples/PingPong.sol\":2666:2707  uint pings = abi.decode(_payload, (uint)) */\n      swap1\n      pop\n        /* \"contracts/examples/PingPong.sol\":2759:2802  ping(_srcChainId, sendBackToAddress, pings) */\n      tag_247\n        /* \"contracts/examples/PingPong.sol\":2764:2775  _srcChainId */\n      dup7\n        /* \"contracts/examples/PingPong.sol\":2777:2794  sendBackToAddress */\n      dup4\n        /* \"contracts/examples/PingPong.sol\":2796:2801  pings */\n      dup4\n        /* \"contracts/examples/PingPong.sol\":2759:2763  ping */\n      tag_170\n        /* \"contracts/examples/PingPong.sol\":2759:2802  ping(_srcChainId, sendBackToAddress, pings) */\n      jump\t// in\n        /* \"contracts/openzeppelin/contracts/access/Ownable.sol\":2426:2613  function _transferOwnership(address newOwner) internal virtual {... */\n    tag_253:\n        /* \"contracts/openzeppelin/contracts/access/Ownable.sol\":2499:2515  address oldOwner */\n      0x00\n        /* \"contracts/openzeppelin/contracts/access/Ownable.sol\":2518:2524  _owner */\n      dup1\n      sload\n      sub(shl(0xa0, 0x01), 0x01)\n        /* \"contracts/openzeppelin/contracts/access/Ownable.sol\":2534:2551  _owner = newOwner */\n      dup4\n      dup2\n      and\n      not(sub(shl(0xa0, 0x01), 0x01))\n      dup4\n      and\n      dup2\n      or\n      dup5\n      sstore\n        /* \"contracts/openzeppelin/contracts/access/Ownable.sol\":2566:2606  OwnershipTransferred(oldOwner, newOwner) */\n      mload(0x40)\n        /* \"contracts/openzeppelin/contracts/access/Ownable.sol\":2518:2524  _owner */\n      swap2\n      swap1\n      swap3\n      and\n      swap3\n      dup4\n      swap2\n        /* \"contracts/openzeppelin/contracts/access/Ownable.sol\":2566:2606  OwnershipTransferred(oldOwner, newOwner) */\n      0x8be0079c531659141344cd1fd0a4f28419497f9722a3daafe3b4186f6b6457e0\n      swap2\n        /* \"contracts/openzeppelin/contracts/access/Ownable.sol\":2499:2515  address oldOwner */\n      swap1\n        /* \"contracts/openzeppelin/contracts/access/Ownable.sol\":2566:2606  OwnershipTransferred(oldOwner, newOwner) */\n      log3\n        /* \"contracts/openzeppelin/contracts/access/Ownable.sol\":2489:2613  {... */\n      pop\n        /* \"contracts/openzeppelin/contracts/access/Ownable.sol\":2426:2613  function _transferOwnership(address newOwner) internal virtual {... */\n      pop\n      jump\t// out\n        /* \"contracts/util/BytesLib.sol\":8865:11577  function slice(... */\n    tag_272:\n        /* \"contracts/util/BytesLib.sol\":8999:9011  bytes memory */\n      0x60\n        /* \"contracts/util/BytesLib.sol\":9051:9058  _length */\n      dup2\n        /* \"contracts/util/BytesLib.sol\":9035:9047  _length + 31 */\n      tag_366\n        /* \"contracts/util/BytesLib.sol\":9051:9058  _length */\n      dup2\n        /* \"contracts/util/BytesLib.sol\":9045:9047  31 */\n      0x1f\n        /* \"contracts/util/BytesLib.sol\":9035:9047  _length + 31 */\n      tag_367\n      jump\t// in\n    tag_366:\n        /* \"contracts/util/BytesLib.sol\":9035:9058  _length + 31 >= _length */\n      lt\n      iszero\n        /* \"contracts/util/BytesLib.sol\":9027:9077  require(_length + 31 >= _length, \"slice_overflow\") */\n      tag_368\n      jumpi\n      mload(0x40)\n      shl(0xe5, 0x461bcd)\n      dup2\n      mstore\n        /* \"#utility.yul\":21958:21960   */\n      0x20\n        /* \"contracts/util/BytesLib.sol\":9027:9077  require(_length + 31 >= _length, \"slice_overflow\") */\n      0x04\n      dup3\n      add\n        /* \"#utility.yul\":21940:21961   */\n      mstore\n        /* \"#utility.yul\":21997:21999   */\n      0x0e\n        /* \"#utility.yul\":21977:21995   */\n      0x24\n      dup3\n      add\n        /* \"#utility.yul\":21970:22000   */\n      mstore\n      shl(0x90, 0x736c6963655f6f766572666c6f77)\n        /* \"#utility.yul\":22016:22034   */\n      0x44\n      dup3\n      add\n        /* \"#utility.yul\":22009:22053   */\n      mstore\n        /* \"#utility.yul\":22070:22088   */\n      0x64\n      add\n        /* \"contracts/util/BytesLib.sol\":9027:9077  require(_length + 31 >= _length, \"slice_overflow\") */\n      tag_185\n        /* \"#utility.yul\":21756:22094   */\n      jump\n        /* \"contracts/util/BytesLib.sol\":9027:9077  require(_length + 31 >= _length, \"slice_overflow\") */\n    tag_368:\n        /* \"contracts/util/BytesLib.sol\":9112:9128  _start + _length */\n      tag_371\n        /* \"contracts/util/BytesLib.sol\":9121:9128  _length */\n      dup3\n        /* \"contracts/util/BytesLib.sol\":9112:9118  _start */\n      dup5\n        /* \"contracts/util/BytesLib.sol\":9112:9128  _start + _length */\n      tag_367\n      jump\t// in\n    tag_371:\n        /* \"contracts/util/BytesLib.sol\":9095:9101  _bytes */\n      dup5\n        /* \"contracts/util/BytesLib.sol\":9095:9108  _bytes.length */\n      mload\n        /* \"contracts/util/BytesLib.sol\":9095:9128  _bytes.length >= _start + _length */\n      lt\n      iszero\n        /* \"contracts/util/BytesLib.sol\":9087:9150  require(_bytes.length >= _start + _length, \"slice_outOfBounds\") */\n      tag_372\n      jumpi\n      mload(0x40)\n      shl(0xe5, 0x461bcd)\n      dup2\n      mstore\n        /* \"#utility.yul\":22301:22303   */\n      0x20\n        /* \"contracts/util/BytesLib.sol\":9087:9150  require(_bytes.length >= _start + _length, \"slice_outOfBounds\") */\n      0x04\n      dup3\n      add\n        /* \"#utility.yul\":22283:22304   */\n      mstore\n        /* \"#utility.yul\":22340:22342   */\n      0x11\n        /* \"#utility.yul\":22320:22338   */\n      0x24\n      dup3\n      add\n        /* \"#utility.yul\":22313:22343   */\n      mstore\n      shl(0x78, 0x736c6963655f6f75744f66426f756e6473)\n        /* \"#utility.yul\":22359:22377   */\n      0x44\n      dup3\n      add\n        /* \"#utility.yul\":22352:22399   */\n      mstore\n        /* \"#utility.yul\":22416:22434   */\n      0x64\n      add\n        /* \"contracts/util/BytesLib.sol\":9087:9150  require(_bytes.length >= _start + _length, \"slice_outOfBounds\") */\n      tag_185\n        /* \"#utility.yul\":22099:22440   */\n      jump\n        /* \"contracts/util/BytesLib.sol\":9087:9150  require(_bytes.length >= _start + _length, \"slice_outOfBounds\") */\n    tag_372:\n        /* \"contracts/util/BytesLib.sol\":9161:9183  bytes memory tempBytes */\n      0x60\n        /* \"contracts/util/BytesLib.sol\":9224:9239  iszero(_length) */\n      dup3\n      iszero\n        /* \"contracts/util/BytesLib.sol\":9252:11147  case 0 {... */\n      dup1\n      iszero\n      tag_376\n      jumpi\n        /* \"contracts/util/BytesLib.sol\":11288:11292  0x40 */\n      0x40\n        /* \"contracts/util/BytesLib.sol\":11282:11293  mload(0x40) */\n      mload\n        /* \"contracts/util/BytesLib.sol\":11269:11293  tempBytes := mload(0x40) */\n      swap2\n      pop\n        /* \"contracts/util/BytesLib.sol\":11466:11467  0 */\n      0x00\n        /* \"contracts/util/BytesLib.sol\":11455:11464  tempBytes */\n      dup3\n        /* \"contracts/util/BytesLib.sol\":11448:11468  mstore(tempBytes, 0) */\n      mstore\n        /* \"contracts/util/BytesLib.sol\":11514:11518  0x20 */\n      0x20\n        /* \"contracts/util/BytesLib.sol\":11503:11512  tempBytes */\n      dup3\n        /* \"contracts/util/BytesLib.sol\":11499:11519  add(tempBytes, 0x20) */\n      add\n        /* \"contracts/util/BytesLib.sol\":11493:11497  0x40 */\n      0x40\n        /* \"contracts/util/BytesLib.sol\":11486:11520  mstore(0x40, add(tempBytes, 0x20)) */\n      mstore\n        /* \"contracts/util/BytesLib.sol\":9217:11534  switch iszero(_length)... */\n      jump(tag_375)\n        /* \"contracts/util/BytesLib.sol\":9252:11147  case 0 {... */\n    tag_376:\n        /* \"contracts/util/BytesLib.sol\":9426:9430  0x40 */\n      0x40\n        /* \"contracts/util/BytesLib.sol\":9420:9431  mload(0x40) */\n      mload\n        /* \"contracts/util/BytesLib.sol\":9407:9431  tempBytes := mload(0x40) */\n      swap2\n      pop\n        /* \"contracts/util/BytesLib.sol\":10053:10055  31 */\n      0x1f\n        /* \"contracts/util/BytesLib.sol\":10044:10051  _length */\n      dup5\n        /* \"contracts/util/BytesLib.sol\":10040:10056  and(_length, 31) */\n      and\n        /* \"contracts/util/BytesLib.sol\":10419:10428  lengthmod */\n      dup1\n        /* \"contracts/util/BytesLib.sol\":10412:10429  iszero(lengthmod) */\n      iszero\n        /* \"contracts/util/BytesLib.sol\":10406:10410  0x20 */\n      0x20\n        /* \"contracts/util/BytesLib.sol\":10402:10430  mul(0x20, iszero(lengthmod)) */\n      mul\n        /* \"contracts/util/BytesLib.sol\":10390:10399  lengthmod */\n      dup2\n        /* \"contracts/util/BytesLib.sol\":10379:10388  tempBytes */\n      dup5\n        /* \"contracts/util/BytesLib.sol\":10375:10400  add(tempBytes, lengthmod) */\n      add\n        /* \"contracts/util/BytesLib.sol\":10371:10431  add(add(tempBytes, lengthmod), mul(0x20, iszero(lengthmod))) */\n      add\n        /* \"contracts/util/BytesLib.sol\":10467:10474  _length */\n      dup6\n        /* \"contracts/util/BytesLib.sol\":10463:10465  mc */\n      dup2\n        /* \"contracts/util/BytesLib.sol\":10459:10475  add(mc, _length) */\n      add\n        /* \"contracts/util/BytesLib.sol\":10711:10717  _start */\n      dup8\n        /* \"contracts/util/BytesLib.sol\":10697:10706  lengthmod */\n      dup4\n        /* \"contracts/util/BytesLib.sol\":10690:10707  iszero(lengthmod) */\n      iszero\n        /* \"contracts/util/BytesLib.sol\":10684:10688  0x20 */\n      0x20\n        /* \"contracts/util/BytesLib.sol\":10680:10708  mul(0x20, iszero(lengthmod)) */\n      mul\n        /* \"contracts/util/BytesLib.sol\":10668:10677  lengthmod */\n      dup5\n        /* \"contracts/util/BytesLib.sol\":10660:10666  _bytes */\n      dup12\n        /* \"contracts/util/BytesLib.sol\":10656:10678  add(_bytes, lengthmod) */\n      add\n        /* \"contracts/util/BytesLib.sol\":10652:10709  add(add(_bytes, lengthmod), mul(0x20, iszero(lengthmod))) */\n      add\n        /* \"contracts/util/BytesLib.sol\":10648:10718  add(add(add(_bytes, lengthmod), mul(0x20, iszero(lengthmod))), _start) */\n      add\n        /* \"contracts/util/BytesLib.sol\":10493:10910  for {... */\n    tag_377:\n        /* \"contracts/util/BytesLib.sol\":10744:10747  end */\n      dup2\n        /* \"contracts/util/BytesLib.sol\":10740:10742  mc */\n      dup4\n        /* \"contracts/util/BytesLib.sol\":10737:10748  lt(mc, end) */\n      lt\n        /* \"contracts/util/BytesLib.sol\":10493:10910  for {... */\n      iszero\n      tag_379\n      jumpi\n        /* \"contracts/util/BytesLib.sol\":10882:10891  mload(cc) */\n      dup1\n      mload\n        /* \"contracts/util/BytesLib.sol\":10871:10892  mstore(mc, mload(cc)) */\n      dup4\n      mstore\n        /* \"contracts/util/BytesLib.sol\":10785:10789  0x20 */\n      0x20\n        /* \"contracts/util/BytesLib.sol\":10777:10790  add(mc, 0x20) */\n      swap3\n      dup4\n      add\n      swap3\n        /* \"contracts/util/BytesLib.sol\":10817:10830  add(cc, 0x20) */\n      add\n        /* \"contracts/util/BytesLib.sol\":10493:10910  for {... */\n      jump(tag_377)\n    tag_379:\n      pop\n      pop\n        /* \"contracts/util/BytesLib.sol\":10928:10954  mstore(tempBytes, _length) */\n      dup6\n      dup5\n      mstore\n        /* \"contracts/util/BytesLib.sol\":11128:11130  31 */\n      0x1f\n        /* \"contracts/util/BytesLib.sol\":11111:11122  add(mc, 31) */\n      add\n      not(0x1f)\n        /* \"contracts/util/BytesLib.sol\":11107:11132  and(add(mc, 31), not(31)) */\n      and\n        /* \"contracts/util/BytesLib.sol\":11101:11105  0x40 */\n      0x40\n        /* \"contracts/util/BytesLib.sol\":11094:11133  mstore(0x40, and(add(mc, 31), not(31))) */\n      mstore\n      pop\n        /* \"contracts/util/BytesLib.sol\":9217:11534  switch iszero(_length)... */\n    tag_375:\n      pop\n        /* \"contracts/util/BytesLib.sol\":11561:11570  tempBytes */\n      swap5\n        /* \"contracts/util/BytesLib.sol\":8865:11577  function slice(... */\n      swap4\n      pop\n      pop\n      pop\n      pop\n      jump\t// out\n        /* \"contracts/lzApp/LzApp.sol\":2293:2841  function _lzSend(uint16 _dstChainId, bytes memory _payload, address payable _refundAddress, address _zroPaymentAddress, bytes memory _adapterParams, uint _nativeFee) internal virtual {... */\n    tag_330:\n        /* \"contracts/lzApp/LzApp.sol\":2515:2547  trustedRemoteLookup[_dstChainId] */\n      0xffff\n      dup7\n      and\n        /* \"contracts/lzApp/LzApp.sol\":2486:2512  bytes memory trustedRemote */\n      0x00\n        /* \"contracts/lzApp/LzApp.sol\":2515:2547  trustedRemoteLookup[_dstChainId] */\n      swap1\n      dup2\n      mstore\n        /* \"contracts/lzApp/LzApp.sol\":2515:2534  trustedRemoteLookup */\n      0x01\n        /* \"contracts/lzApp/LzApp.sol\":2515:2547  trustedRemoteLookup[_dstChainId] */\n      0x20\n      mstore\n      0x40\n      dup2\n      keccak256\n        /* \"contracts/lzApp/LzApp.sol\":2486:2547  bytes memory trustedRemote = trustedRemoteLookup[_dstChainId] */\n      dup1\n      sload\n      tag_381\n      swap1\n      tag_188\n      jump\t// in\n    tag_381:\n      dup1\n      0x1f\n      add\n      0x20\n      dup1\n      swap2\n      div\n      mul\n      0x20\n      add\n      mload(0x40)\n      swap1\n      dup2\n      add\n      0x40\n      mstore\n      dup1\n      swap3\n      swap2\n      swap1\n      dup2\n      dup2\n      mstore\n      0x20\n      add\n      dup3\n      dup1\n      sload\n      tag_382\n      swap1\n      tag_188\n      jump\t// in\n    tag_382:\n      dup1\n      iszero\n      tag_383\n      jumpi\n      dup1\n      0x1f\n      lt\n      tag_384\n      jumpi\n      0x0100\n      dup1\n      dup4\n      sload\n      div\n      mul\n      dup4\n      mstore\n      swap2\n      0x20\n      add\n      swap2\n      jump(tag_383)\n    tag_384:\n      dup3\n      add\n      swap2\n      swap1\n      0x00\n      mstore\n      keccak256(0x00, 0x20)\n      swap1\n    tag_385:\n      dup2\n      sload\n      dup2\n      mstore\n      swap1\n      0x01\n      add\n      swap1\n      0x20\n      add\n      dup1\n      dup4\n      gt\n      tag_385\n      jumpi\n      dup3\n      swap1\n      sub\n      0x1f\n      and\n      dup3\n      add\n      swap2\n    tag_383:\n      pop\n      pop\n      pop\n      pop\n      pop\n      swap1\n      pop\n        /* \"contracts/lzApp/LzApp.sol\":2565:2578  trustedRemote */\n      dup1\n        /* \"contracts/lzApp/LzApp.sol\":2565:2585  trustedRemote.length */\n      mload\n        /* \"contracts/lzApp/LzApp.sol\":2589:2590  0 */\n      0x00\n        /* \"contracts/lzApp/LzApp.sol\":2565:2590  trustedRemote.length != 0 */\n      sub\n        /* \"contracts/lzApp/LzApp.sol\":2557:2643  require(trustedRemote.length != 0, \"LzApp: destination chain is not a trusted source\") */\n      tag_386\n      jumpi\n      mload(0x40)\n      shl(0xe5, 0x461bcd)\n      dup2\n      mstore\n        /* \"#utility.yul\":22647:22649   */\n      0x20\n        /* \"contracts/lzApp/LzApp.sol\":2557:2643  require(trustedRemote.length != 0, \"LzApp: destination chain is not a trusted source\") */\n      0x04\n      dup3\n      add\n        /* \"#utility.yul\":22629:22650   */\n      mstore\n        /* \"#utility.yul\":22686:22688   */\n      0x30\n        /* \"#utility.yul\":22666:22684   */\n      0x24\n      dup3\n      add\n        /* \"#utility.yul\":22659:22689   */\n      mstore\n        /* \"#utility.yul\":22725:22759   */\n      0x4c7a4170703a2064657374696e6174696f6e20636861696e206973206e6f7420\n        /* \"#utility.yul\":22705:22723   */\n      0x44\n      dup3\n      add\n        /* \"#utility.yul\":22698:22760   */\n      mstore\n      shl(0x80, 0x61207472757374656420736f75726365)\n        /* \"#utility.yul\":22776:22794   */\n      0x64\n      dup3\n      add\n        /* \"#utility.yul\":22769:22815   */\n      mstore\n        /* \"#utility.yul\":22832:22851   */\n      0x84\n      add\n        /* \"contracts/lzApp/LzApp.sol\":2557:2643  require(trustedRemote.length != 0, \"LzApp: destination chain is not a trusted source\") */\n      tag_185\n        /* \"#utility.yul\":22445:22857   */\n      jump\n        /* \"contracts/lzApp/LzApp.sol\":2557:2643  require(trustedRemote.length != 0, \"LzApp: destination chain is not a trusted source\") */\n    tag_386:\n        /* \"contracts/lzApp/LzApp.sol\":2653:2700  _checkPayloadSize(_dstChainId, _payload.length) */\n      tag_389\n        /* \"contracts/lzApp/LzApp.sol\":2671:2682  _dstChainId */\n      dup8\n        /* \"contracts/lzApp/LzApp.sol\":2684:2692  _payload */\n      dup8\n        /* \"contracts/lzApp/LzApp.sol\":2684:2699  _payload.length */\n      mload\n        /* \"contracts/lzApp/LzApp.sol\":2653:2670  _checkPayloadSize */\n      tag_390\n        /* \"contracts/lzApp/LzApp.sol\":2653:2700  _checkPayloadSize(_dstChainId, _payload.length) */\n      jump\t// in\n    tag_389:\n        /* \"contracts/lzApp/LzApp.sol\":2710:2834  lzEndpoint.send{value: _nativeFee}(_dstChainId, trustedRemote, _payload, _refundAddress, _zroPaymentAddress, _adapterParams) */\n      mload(0x40)\n      shl(0xe8, 0xc58031)\n      dup2\n      mstore\n      sub(shl(0xa0, 0x01), 0x01)\n        /* \"contracts/lzApp/LzApp.sol\":2710:2720  lzEndpoint */\n      immutable(\"0x2c7ca6eaf0dd20913c55b4658e5b02864b47cfd1b3241634c484bb991f3fabe0\")\n        /* \"contracts/lzApp/LzApp.sol\":2710:2725  lzEndpoint.send */\n      and\n      swap1\n      0xc5803100\n      swap1\n        /* \"contracts/lzApp/LzApp.sol\":2733:2743  _nativeFee */\n      dup5\n      swap1\n        /* \"contracts/lzApp/LzApp.sol\":2710:2834  lzEndpoint.send{value: _nativeFee}(_dstChainId, trustedRemote, _payload, _refundAddress, _zroPaymentAddress, _adapterParams) */\n      tag_391\n      swap1\n        /* \"contracts/lzApp/LzApp.sol\":2745:2756  _dstChainId */\n      dup12\n      swap1\n        /* \"contracts/lzApp/LzApp.sol\":2758:2771  trustedRemote */\n      dup7\n      swap1\n        /* \"contracts/lzApp/LzApp.sol\":2773:2781  _payload */\n      dup13\n      swap1\n        /* \"contracts/lzApp/LzApp.sol\":2783:2797  _refundAddress */\n      dup13\n      swap1\n        /* \"contracts/lzApp/LzApp.sol\":2799:2817  _zroPaymentAddress */\n      dup13\n      swap1\n        /* \"contracts/lzApp/LzApp.sol\":2819:2833  _adapterParams */\n      dup13\n      swap1\n        /* \"contracts/lzApp/LzApp.sol\":2710:2834  lzEndpoint.send{value: _nativeFee}(_dstChainId, trustedRemote, _payload, _refundAddress, _zroPaymentAddress, _adapterParams) */\n      0x04\n      add\n      tag_392\n      jump\t// in\n    tag_391:\n      0x00\n      mload(0x40)\n      dup1\n      dup4\n      sub\n      dup2\n      dup6\n      dup9\n      dup1\n      extcodesize\n      iszero\n      dup1\n      iszero\n      tag_393\n      jumpi\n      0x00\n      dup1\n      revert\n    tag_393:\n      pop\n      gas\n      call\n      iszero\n      dup1\n      iszero\n      tag_395\n      jumpi\n      returndatasize\n      0x00\n      dup1\n      returndatacopy\n      revert(0x00, returndatasize)\n    tag_395:\n      pop\n      pop\n      pop\n      pop\n      pop\n        /* \"contracts/lzApp/LzApp.sol\":2476:2841  {... */\n      pop\n        /* \"contracts/lzApp/LzApp.sol\":2293:2841  function _lzSend(uint16 _dstChainId, bytes memory _payload, address payable _refundAddress, address _zroPaymentAddress, bytes memory _adapterParams, uint _nativeFee) internal virtual {... */\n      pop\n      pop\n      pop\n      pop\n      pop\n      pop\n      jump\t// out\n        /* \"contracts/util/ExcessivelySafeCall.sol\":1118:2358  function excessivelySafeCall(... */\n    tag_350:\n        /* \"contracts/util/ExcessivelySafeCall.sol\":1275:1279  bool */\n      0x00\n        /* \"contracts/util/ExcessivelySafeCall.sol\":1281:1293  bytes memory */\n      0x60\n        /* \"contracts/util/ExcessivelySafeCall.sol\":1341:1356  uint256 _toCopy */\n      0x00\n        /* \"contracts/util/ExcessivelySafeCall.sol\":1366:1379  bool _success */\n      dup1\n        /* \"contracts/util/ExcessivelySafeCall.sol\":1389:1413  bytes memory _returnData */\n      0x00\n        /* \"contracts/util/ExcessivelySafeCall.sol\":1426:1434  _maxCopy */\n      dup7\n        /* \"contracts/util/ExcessivelySafeCall.sol\":1416:1435  new bytes(_maxCopy) */\n      0xffff\n      and\n      sub(shl(0x40, 0x01), 0x01)\n      dup2\n      gt\n      iszero\n      tag_398\n      jumpi\n      tag_398\n      tag_399\n      jump\t// in\n    tag_398:\n      mload(0x40)\n      swap1\n      dup1\n      dup3\n      mstore\n      dup1\n      0x1f\n      add\n      not(0x1f)\n      and\n      0x20\n      add\n      dup3\n      add\n      0x40\n      mstore\n      dup1\n      iszero\n      tag_400\n      jumpi\n      0x20\n      dup3\n      add\n      dup2\n      dup1\n      calldatasize\n      dup4\n      calldatacopy\n      add\n      swap1\n      pop\n    tag_400:\n      pop\n        /* \"contracts/util/ExcessivelySafeCall.sol\":1389:1435  bytes memory _returnData = new bytes(_maxCopy) */\n      swap1\n      pop\n        /* \"contracts/util/ExcessivelySafeCall.sol\":1904:1905  0 */\n      0x00\n        /* \"contracts/util/ExcessivelySafeCall.sol\":1879:1880  0 */\n      dup1\n        /* \"contracts/util/ExcessivelySafeCall.sol\":1846:1855  _calldata */\n      dup8\n        /* \"contracts/util/ExcessivelySafeCall.sol\":1840:1856  mload(_calldata) */\n      mload\n        /* \"contracts/util/ExcessivelySafeCall.sol\":1812:1816  0x20 */\n      0x20\n        /* \"contracts/util/ExcessivelySafeCall.sol\":1801:1810  _calldata */\n      dup10\n        /* \"contracts/util/ExcessivelySafeCall.sol\":1797:1817  add(_calldata, 0x20) */\n      add\n        /* \"contracts/util/ExcessivelySafeCall.sol\":1767:1768  0 */\n      0x00\n        /* \"contracts/util/ExcessivelySafeCall.sol\":1733:1740  _target */\n      dup14\n        /* \"contracts/util/ExcessivelySafeCall.sol\":1708:1712  _gas */\n      dup14\n        /* \"contracts/util/ExcessivelySafeCall.sol\":1690:1929  call(... */\n      call\n        /* \"contracts/util/ExcessivelySafeCall.sol\":1678:1929  _success := call(... */\n      swap2\n      pop\n        /* \"contracts/util/ExcessivelySafeCall.sol\":1992:2008  returndatasize() */\n      returndatasize\n        /* \"contracts/util/ExcessivelySafeCall.sol\":1981:2008  _toCopy := returndatasize() */\n      swap3\n      pop\n        /* \"contracts/util/ExcessivelySafeCall.sol\":2036:2044  _maxCopy */\n      dup7\n        /* \"contracts/util/ExcessivelySafeCall.sol\":2027:2034  _toCopy */\n      dup4\n        /* \"contracts/util/ExcessivelySafeCall.sol\":2024:2045  gt(_toCopy, _maxCopy) */\n      gt\n        /* \"contracts/util/ExcessivelySafeCall.sol\":2021:2097  if gt(_toCopy, _maxCopy) {... */\n      iszero\n      tag_401\n      jumpi\n        /* \"contracts/util/ExcessivelySafeCall.sol\":2075:2083  _maxCopy */\n      dup7\n        /* \"contracts/util/ExcessivelySafeCall.sol\":2064:2083  _toCopy := _maxCopy */\n      swap3\n      pop\n        /* \"contracts/util/ExcessivelySafeCall.sol\":2021:2097  if gt(_toCopy, _maxCopy) {... */\n    tag_401:\n        /* \"contracts/util/ExcessivelySafeCall.sol\":2178:2185  _toCopy */\n      dup3\n        /* \"contracts/util/ExcessivelySafeCall.sol\":2165:2176  _returnData */\n      dup2\n        /* \"contracts/util/ExcessivelySafeCall.sol\":2158:2186  mstore(_returnData, _toCopy) */\n      mstore\n        /* \"contracts/util/ExcessivelySafeCall.sol\":2294:2301  _toCopy */\n      dup3\n        /* \"contracts/util/ExcessivelySafeCall.sol\":2291:2292  0 */\n      0x00\n        /* \"contracts/util/ExcessivelySafeCall.sol\":2284:2288  0x20 */\n      0x20\n        /* \"contracts/util/ExcessivelySafeCall.sol\":2271:2282  _returnData */\n      dup4\n        /* \"contracts/util/ExcessivelySafeCall.sol\":2267:2289  add(_returnData, 0x20) */\n      add\n        /* \"contracts/util/ExcessivelySafeCall.sol\":2252:2302  returndatacopy(add(_returnData, 0x20), 0, _toCopy) */\n      returndatacopy\n        /* \"contracts/util/ExcessivelySafeCall.sol\":2329:2337  _success */\n      swap1\n      swap9\n      swap1\n      swap8\n      pop\n        /* \"contracts/util/ExcessivelySafeCall.sol\":1118:2358  function excessivelySafeCall(... */\n      swap6\n      pop\n      pop\n      pop\n      pop\n      pop\n      pop\n      jump\t// out\n        /* \"contracts/lzApp/NonblockingLzApp.sol\":1494:1814  function _storeFailedMessage(uint16 _srcChainId, bytes memory _srcAddress, uint64 _nonce, bytes memory _payload, bytes memory _reason) internal virtual {... */\n    tag_353:\n        /* \"contracts/lzApp/NonblockingLzApp.sol\":1717:1725  _payload */\n      dup2\n        /* \"contracts/lzApp/NonblockingLzApp.sol\":1707:1726  keccak256(_payload) */\n      dup1\n      mload\n      swap1\n      0x20\n      add\n      keccak256\n        /* \"contracts/lzApp/NonblockingLzApp.sol\":1656:1670  failedMessages */\n      0x05\n        /* \"contracts/lzApp/NonblockingLzApp.sol\":1656:1683  failedMessages[_srcChainId] */\n      0x00\n        /* \"contracts/lzApp/NonblockingLzApp.sol\":1671:1682  _srcChainId */\n      dup8\n        /* \"contracts/lzApp/NonblockingLzApp.sol\":1656:1683  failedMessages[_srcChainId] */\n      0xffff\n      and\n      0xffff\n      and\n      dup2\n      mstore\n      0x20\n      add\n      swap1\n      dup2\n      mstore\n      0x20\n      add\n      0x00\n      keccak256\n        /* \"contracts/lzApp/NonblockingLzApp.sol\":1684:1695  _srcAddress */\n      dup6\n        /* \"contracts/lzApp/NonblockingLzApp.sol\":1656:1696  failedMessages[_srcChainId][_srcAddress] */\n      mload(0x40)\n      tag_403\n      swap2\n      swap1\n      tag_404\n      jump\t// in\n    tag_403:\n      swap1\n      dup2\n      mstore\n      0x40\n      dup1\n      mload\n      swap2\n      dup3\n      swap1\n      sub\n      0x20\n      swap1\n      dup2\n      add\n      dup4\n      keccak256\n      sub(shl(0x40, 0x01), 0x01)\n        /* \"contracts/lzApp/NonblockingLzApp.sol\":1656:1704  failedMessages[_srcChainId][_srcAddress][_nonce] */\n      dup9\n      and\n      0x00\n      swap1\n      dup2\n      mstore\n      swap2\n      mstore\n      keccak256\n        /* \"contracts/lzApp/NonblockingLzApp.sol\":1656:1726  failedMessages[_srcChainId][_srcAddress][_nonce] = keccak256(_payload) */\n      swap2\n      swap1\n      swap2\n      sstore\n        /* \"contracts/lzApp/NonblockingLzApp.sol\":1741:1807  MessageFailed(_srcChainId, _srcAddress, _nonce, _payload, _reason) */\n      0xe183f33de2837795525b4792ca4cd60535bd77c53b7e7030060bfcf5734d6b0c\n      swap1\n      tag_405\n      swap1\n        /* \"contracts/lzApp/NonblockingLzApp.sol\":1755:1766  _srcChainId */\n      dup8\n      swap1\n        /* \"contracts/lzApp/NonblockingLzApp.sol\":1768:1779  _srcAddress */\n      dup8\n      swap1\n        /* \"contracts/lzApp/NonblockingLzApp.sol\":1697:1703  _nonce */\n      dup8\n      swap1\n        /* \"contracts/lzApp/NonblockingLzApp.sol\":1789:1797  _payload */\n      dup8\n      swap1\n        /* \"contracts/lzApp/NonblockingLzApp.sol\":1799:1806  _reason */\n      dup8\n      swap1\n        /* \"contracts/lzApp/NonblockingLzApp.sol\":1741:1807  MessageFailed(_srcChainId, _srcAddress, _nonce, _payload, _reason) */\n      tag_406\n      jump\t// in\n    tag_405:\n      mload(0x40)\n      dup1\n      swap2\n      sub\n      swap1\n      log1\n        /* \"contracts/lzApp/NonblockingLzApp.sol\":1494:1814  function _storeFailedMessage(uint16 _srcChainId, bytes memory _srcAddress, uint64 _nonce, bytes memory _payload, bytes memory _reason) internal virtual {... */\n      pop\n      pop\n      pop\n      pop\n      pop\n      jump\t// out\n        /* \"contracts/lzApp/LzApp.sol\":3540:3923  function _checkPayloadSize(uint16 _dstChainId, uint _payloadSize) internal view virtual {... */\n    tag_390:\n        /* \"contracts/lzApp/LzApp.sol\":3662:3697  payloadSizeLimitLookup[_dstChainId] */\n      0xffff\n      dup3\n      and\n        /* \"contracts/lzApp/LzApp.sol\":3638:3659  uint payloadSizeLimit */\n      0x00\n        /* \"contracts/lzApp/LzApp.sol\":3662:3697  payloadSizeLimitLookup[_dstChainId] */\n      swap1\n      dup2\n      mstore\n        /* \"contracts/lzApp/LzApp.sol\":3662:3684  payloadSizeLimitLookup */\n      0x03\n        /* \"contracts/lzApp/LzApp.sol\":3662:3697  payloadSizeLimitLookup[_dstChainId] */\n      0x20\n      mstore\n      0x40\n      dup2\n      keccak256\n      sload\n      swap1\n        /* \"contracts/lzApp/LzApp.sol\":3711:3732  payloadSizeLimit == 0 */\n      dup2\n      swap1\n      sub\n        /* \"contracts/lzApp/LzApp.sol\":3707:3830  if (payloadSizeLimit == 0) { // use default if not set... */\n      tag_408\n      jumpi\n      pop\n        /* \"contracts/lzApp/LzApp.sol\":618:623  10000 */\n      0x2710\n        /* \"contracts/lzApp/LzApp.sol\":3707:3830  if (payloadSizeLimit == 0) { // use default if not set... */\n    tag_408:\n        /* \"contracts/lzApp/LzApp.sol\":3863:3879  payloadSizeLimit */\n      dup1\n        /* \"contracts/lzApp/LzApp.sol\":3847:3859  _payloadSize */\n      dup3\n        /* \"contracts/lzApp/LzApp.sol\":3847:3879  _payloadSize <= payloadSizeLimit */\n      gt\n      iszero\n        /* \"contracts/lzApp/LzApp.sol\":3839:3916  require(_payloadSize <= payloadSizeLimit, \"LzApp: payload size is too large\") */\n      tag_409\n      jumpi\n      mload(0x40)\n      shl(0xe5, 0x461bcd)\n      dup2\n      mstore\n        /* \"#utility.yul\":24919:24921   */\n      0x20\n        /* \"contracts/lzApp/LzApp.sol\":3839:3916  require(_payloadSize <= payloadSizeLimit, \"LzApp: payload size is too large\") */\n      0x04\n      dup3\n      add\n        /* \"#utility.yul\":24901:24922   */\n      dup2\n      swap1\n      mstore\n        /* \"#utility.yul\":24938:24956   */\n      0x24\n      dup3\n      add\n        /* \"#utility.yul\":24931:24961   */\n      mstore\n        /* \"#utility.yul\":24997:25031   */\n      0x4c7a4170703a207061796c6f61642073697a6520697320746f6f206c61726765\n        /* \"#utility.yul\":24977:24995   */\n      0x44\n      dup3\n      add\n        /* \"#utility.yul\":24970:25032   */\n      mstore\n        /* \"#utility.yul\":25049:25067   */\n      0x64\n      add\n        /* \"contracts/lzApp/LzApp.sol\":3839:3916  require(_payloadSize <= payloadSizeLimit, \"LzApp: payload size is too large\") */\n      tag_185\n        /* \"#utility.yul\":24717:25073   */\n      jump\n        /* \"contracts/lzApp/LzApp.sol\":3839:3916  require(_payloadSize <= payloadSizeLimit, \"LzApp: payload size is too large\") */\n    tag_409:\n        /* \"contracts/lzApp/LzApp.sol\":3628:3923  {... */\n      pop\n        /* \"contracts/lzApp/LzApp.sol\":3540:3923  function _checkPayloadSize(uint16 _dstChainId, uint _payloadSize) internal view virtual {... */\n      pop\n      pop\n      jump\t// out\n        /* \"#utility.yul\":14:173   */\n    tag_412:\n        /* \"#utility.yul\":81:101   */\n      dup1\n      calldataload\n        /* \"#utility.yul\":141:147   */\n      0xffff\n        /* \"#utility.yul\":130:148   */\n      dup2\n      and\n        /* \"#utility.yul\":120:149   */\n      dup2\n      eq\n        /* \"#utility.yul\":110:167   */\n      tag_427\n      jumpi\n        /* \"#utility.yul\":163:164   */\n      0x00\n        /* \"#utility.yul\":160:161   */\n      dup1\n        /* \"#utility.yul\":153:165   */\n      revert\n        /* \"#utility.yul\":110:167   */\n    tag_427:\n        /* \"#utility.yul\":14:173   */\n      swap2\n      swap1\n      pop\n      jump\t// out\n        /* \"#utility.yul\":178:525   */\n    tag_413:\n        /* \"#utility.yul\":229:237   */\n      0x00\n        /* \"#utility.yul\":239:245   */\n      dup1\n        /* \"#utility.yul\":293:296   */\n      dup4\n        /* \"#utility.yul\":286:290   */\n      0x1f\n        /* \"#utility.yul\":278:284   */\n      dup5\n        /* \"#utility.yul\":274:291   */\n      add\n        /* \"#utility.yul\":270:297   */\n      slt\n        /* \"#utility.yul\":260:315   */\n      tag_429\n      jumpi\n        /* \"#utility.yul\":311:312   */\n      0x00\n        /* \"#utility.yul\":308:309   */\n      dup1\n        /* \"#utility.yul\":301:313   */\n      revert\n        /* \"#utility.yul\":260:315   */\n    tag_429:\n      pop\n        /* \"#utility.yul\":334:354   */\n      dup2\n      calldataload\n      sub(shl(0x40, 0x01), 0x01)\n        /* \"#utility.yul\":366:396   */\n      dup2\n      gt\n        /* \"#utility.yul\":363:413   */\n      iszero\n      tag_430\n      jumpi\n        /* \"#utility.yul\":409:410   */\n      0x00\n        /* \"#utility.yul\":406:407   */\n      dup1\n        /* \"#utility.yul\":399:411   */\n      revert\n        /* \"#utility.yul\":363:413   */\n    tag_430:\n        /* \"#utility.yul\":446:450   */\n      0x20\n        /* \"#utility.yul\":438:444   */\n      dup4\n        /* \"#utility.yul\":434:451   */\n      add\n        /* \"#utility.yul\":422:451   */\n      swap2\n      pop\n        /* \"#utility.yul\":498:501   */\n      dup4\n        /* \"#utility.yul\":491:495   */\n      0x20\n        /* \"#utility.yul\":482:488   */\n      dup3\n        /* \"#utility.yul\":474:480   */\n      dup6\n        /* \"#utility.yul\":470:489   */\n      add\n        /* \"#utility.yul\":466:496   */\n      add\n        /* \"#utility.yul\":463:502   */\n      gt\n        /* \"#utility.yul\":460:519   */\n      iszero\n      tag_431\n      jumpi\n        /* \"#utility.yul\":515:516   */\n      0x00\n        /* \"#utility.yul\":512:513   */\n      dup1\n        /* \"#utility.yul\":505:517   */\n      revert\n        /* \"#utility.yul\":460:519   */\n    tag_431:\n        /* \"#utility.yul\":178:525   */\n      swap3\n      pop\n      swap3\n      swap1\n      pop\n      jump\t// out\n        /* \"#utility.yul\":530:701   */\n    tag_414:\n        /* \"#utility.yul\":597:617   */\n      dup1\n      calldataload\n      sub(shl(0x40, 0x01), 0x01)\n        /* \"#utility.yul\":646:676   */\n      dup2\n      and\n        /* \"#utility.yul\":636:677   */\n      dup2\n      eq\n        /* \"#utility.yul\":626:695   */\n      tag_427\n      jumpi\n        /* \"#utility.yul\":691:692   */\n      0x00\n        /* \"#utility.yul\":688:689   */\n      dup1\n        /* \"#utility.yul\":681:693   */\n      revert\n        /* \"#utility.yul\":706:1568   */\n    tag_44:\n        /* \"#utility.yul\":812:818   */\n      0x00\n        /* \"#utility.yul\":820:826   */\n      dup1\n        /* \"#utility.yul\":828:834   */\n      0x00\n        /* \"#utility.yul\":836:842   */\n      dup1\n        /* \"#utility.yul\":844:850   */\n      0x00\n        /* \"#utility.yul\":852:858   */\n      dup1\n        /* \"#utility.yul\":905:908   */\n      0x80\n        /* \"#utility.yul\":893:902   */\n      dup8\n        /* \"#utility.yul\":884:891   */\n      dup10\n        /* \"#utility.yul\":880:903   */\n      sub\n        /* \"#utility.yul\":876:909   */\n      slt\n        /* \"#utility.yul\":873:926   */\n      iszero\n      tag_435\n      jumpi\n        /* \"#utility.yul\":922:923   */\n      0x00\n        /* \"#utility.yul\":919:920   */\n      dup1\n        /* \"#utility.yul\":912:924   */\n      revert\n        /* \"#utility.yul\":873:926   */\n    tag_435:\n        /* \"#utility.yul\":945:973   */\n      tag_436\n        /* \"#utility.yul\":963:972   */\n      dup8\n        /* \"#utility.yul\":945:973   */\n      tag_412\n      jump\t// in\n    tag_436:\n        /* \"#utility.yul\":935:973   */\n      swap6\n      pop\n        /* \"#utility.yul\":1024:1026   */\n      0x20\n        /* \"#utility.yul\":1013:1022   */\n      dup8\n        /* \"#utility.yul\":1009:1027   */\n      add\n        /* \"#utility.yul\":996:1028   */\n      calldataload\n      sub(shl(0x40, 0x01), 0x01)\n        /* \"#utility.yul\":1088:1090   */\n      dup1\n        /* \"#utility.yul\":1080:1086   */\n      dup3\n        /* \"#utility.yul\":1077:1091   */\n      gt\n        /* \"#utility.yul\":1074:1108   */\n      iszero\n      tag_437\n      jumpi\n        /* \"#utility.yul\":1104:1105   */\n      0x00\n        /* \"#utility.yul\":1101:1102   */\n      dup1\n        /* \"#utility.yul\":1094:1106   */\n      revert\n        /* \"#utility.yul\":1074:1108   */\n    tag_437:\n        /* \"#utility.yul\":1143:1201   */\n      tag_438\n        /* \"#utility.yul\":1193:1200   */\n      dup11\n        /* \"#utility.yul\":1184:1190   */\n      dup4\n        /* \"#utility.yul\":1173:1182   */\n      dup12\n        /* \"#utility.yul\":1169:1191   */\n      add\n        /* \"#utility.yul\":1143:1201   */\n      tag_413\n      jump\t// in\n    tag_438:\n        /* \"#utility.yul\":1220:1228   */\n      swap1\n      swap8\n      pop\n        /* \"#utility.yul\":1117:1201   */\n      swap6\n      pop\n      dup6\n      swap2\n      pop\n        /* \"#utility.yul\":1274:1311   */\n      tag_439\n        /* \"#utility.yul\":1307:1309   */\n      0x40\n        /* \"#utility.yul\":1292:1310   */\n      dup11\n      add\n        /* \"#utility.yul\":1274:1311   */\n      tag_414\n      jump\t// in\n    tag_439:\n        /* \"#utility.yul\":1264:1311   */\n      swap5\n      pop\n        /* \"#utility.yul\":1364:1366   */\n      0x60\n        /* \"#utility.yul\":1353:1362   */\n      dup10\n        /* \"#utility.yul\":1349:1367   */\n      add\n        /* \"#utility.yul\":1336:1368   */\n      calldataload\n        /* \"#utility.yul\":1320:1368   */\n      swap2\n      pop\n        /* \"#utility.yul\":1393:1395   */\n      dup1\n        /* \"#utility.yul\":1383:1391   */\n      dup3\n        /* \"#utility.yul\":1380:1396   */\n      gt\n        /* \"#utility.yul\":1377:1413   */\n      iszero\n      tag_440\n      jumpi\n        /* \"#utility.yul\":1409:1410   */\n      0x00\n        /* \"#utility.yul\":1406:1407   */\n      dup1\n        /* \"#utility.yul\":1399:1411   */\n      revert\n        /* \"#utility.yul\":1377:1413   */\n    tag_440:\n      pop\n        /* \"#utility.yul\":1448:1508   */\n      tag_441\n        /* \"#utility.yul\":1500:1507   */\n      dup10\n        /* \"#utility.yul\":1489:1497   */\n      dup3\n        /* \"#utility.yul\":1478:1487   */\n      dup11\n        /* \"#utility.yul\":1474:1498   */\n      add\n        /* \"#utility.yul\":1448:1508   */\n      tag_413\n      jump\t// in\n    tag_441:\n        /* \"#utility.yul\":706:1568   */\n      swap8\n      swap11\n      swap7\n      swap10\n      pop\n      swap5\n      swap8\n      pop\n      swap3\n      swap6\n        /* \"#utility.yul\":1527:1535   */\n      swap4\n      swap5\n        /* \"#utility.yul\":706:1568   */\n      swap3\n      pop\n      pop\n      pop\n      jump\t// out\n        /* \"#utility.yul\":1573:1757   */\n    tag_49:\n        /* \"#utility.yul\":1631:1637   */\n      0x00\n        /* \"#utility.yul\":1684:1686   */\n      0x20\n        /* \"#utility.yul\":1672:1681   */\n      dup3\n        /* \"#utility.yul\":1663:1670   */\n      dup5\n        /* \"#utility.yul\":1659:1682   */\n      sub\n        /* \"#utility.yul\":1655:1687   */\n      slt\n        /* \"#utility.yul\":1652:1704   */\n      iszero\n      tag_443\n      jumpi\n        /* \"#utility.yul\":1700:1701   */\n      0x00\n        /* \"#utility.yul\":1697:1698   */\n      dup1\n        /* \"#utility.yul\":1690:1702   */\n      revert\n        /* \"#utility.yul\":1652:1704   */\n    tag_443:\n        /* \"#utility.yul\":1723:1751   */\n      tag_269\n        /* \"#utility.yul\":1741:1750   */\n      dup3\n        /* \"#utility.yul\":1723:1751   */\n      tag_412\n      jump\t// in\n        /* \"#utility.yul\":1762:2014   */\n    tag_54:\n        /* \"#utility.yul\":1829:1835   */\n      0x00\n        /* \"#utility.yul\":1837:1843   */\n      dup1\n        /* \"#utility.yul\":1890:1892   */\n      0x40\n        /* \"#utility.yul\":1878:1887   */\n      dup4\n        /* \"#utility.yul\":1869:1876   */\n      dup6\n        /* \"#utility.yul\":1865:1888   */\n      sub\n        /* \"#utility.yul\":1861:1893   */\n      slt\n        /* \"#utility.yul\":1858:1910   */\n      iszero\n      tag_446\n      jumpi\n        /* \"#utility.yul\":1906:1907   */\n      0x00\n        /* \"#utility.yul\":1903:1904   */\n      dup1\n        /* \"#utility.yul\":1896:1908   */\n      revert\n        /* \"#utility.yul\":1858:1910   */\n    tag_446:\n        /* \"#utility.yul\":1929:1957   */\n      tag_447\n        /* \"#utility.yul\":1947:1956   */\n      dup4\n        /* \"#utility.yul\":1929:1957   */\n      tag_412\n      jump\t// in\n    tag_447:\n        /* \"#utility.yul\":1919:1957   */\n      swap5\n        /* \"#utility.yul\":2004:2006   */\n      0x20\n        /* \"#utility.yul\":1989:2007   */\n      swap4\n      swap1\n      swap4\n      add\n        /* \"#utility.yul\":1976:2008   */\n      calldataload\n      swap4\n      pop\n      pop\n      pop\n        /* \"#utility.yul\":1762:2014   */\n      jump\t// out\n        /* \"#utility.yul\":2019:2192   */\n    tag_415:\n        /* \"#utility.yul\":2087:2107   */\n      dup1\n      calldataload\n      sub(shl(0xa0, 0x01), 0x01)\n        /* \"#utility.yul\":2136:2167   */\n      dup2\n      and\n        /* \"#utility.yul\":2126:2168   */\n      dup2\n      eq\n        /* \"#utility.yul\":2116:2186   */\n      tag_427\n      jumpi\n        /* \"#utility.yul\":2182:2183   */\n      0x00\n        /* \"#utility.yul\":2179:2180   */\n      dup1\n        /* \"#utility.yul\":2172:2184   */\n      revert\n        /* \"#utility.yul\":2197:2455   */\n    tag_63:\n        /* \"#utility.yul\":2264:2270   */\n      0x00\n        /* \"#utility.yul\":2272:2278   */\n      dup1\n        /* \"#utility.yul\":2325:2327   */\n      0x40\n        /* \"#utility.yul\":2313:2322   */\n      dup4\n        /* \"#utility.yul\":2304:2311   */\n      dup6\n        /* \"#utility.yul\":2300:2323   */\n      sub\n        /* \"#utility.yul\":2296:2328   */\n      slt\n        /* \"#utility.yul\":2293:2345   */\n      iszero\n      tag_451\n      jumpi\n        /* \"#utility.yul\":2341:2342   */\n      0x00\n        /* \"#utility.yul\":2338:2339   */\n      dup1\n        /* \"#utility.yul\":2331:2343   */\n      revert\n        /* \"#utility.yul\":2293:2345   */\n    tag_451:\n        /* \"#utility.yul\":2364:2393   */\n      tag_452\n        /* \"#utility.yul\":2383:2392   */\n      dup4\n        /* \"#utility.yul\":2364:2393   */\n      tag_415\n      jump\t// in\n    tag_452:\n        /* \"#utility.yul\":2354:2393   */\n      swap2\n      pop\n        /* \"#utility.yul\":2412:2449   */\n      tag_453\n        /* \"#utility.yul\":2445:2447   */\n      0x20\n        /* \"#utility.yul\":2434:2443   */\n      dup5\n        /* \"#utility.yul\":2430:2448   */\n      add\n        /* \"#utility.yul\":2412:2449   */\n      tag_412\n      jump\t// in\n    tag_453:\n        /* \"#utility.yul\":2402:2449   */\n      swap1\n      pop\n        /* \"#utility.yul\":2197:2455   */\n      swap3\n      pop\n      swap3\n      swap1\n      pop\n      jump\t// out\n        /* \"#utility.yul\":2653:3134   */\n    tag_73:\n        /* \"#utility.yul\":2731:2737   */\n      0x00\n        /* \"#utility.yul\":2739:2745   */\n      dup1\n        /* \"#utility.yul\":2747:2753   */\n      0x00\n        /* \"#utility.yul\":2800:2802   */\n      0x40\n        /* \"#utility.yul\":2788:2797   */\n      dup5\n        /* \"#utility.yul\":2779:2786   */\n      dup7\n        /* \"#utility.yul\":2775:2798   */\n      sub\n        /* \"#utility.yul\":2771:2803   */\n      slt\n        /* \"#utility.yul\":2768:2820   */\n      iszero\n      tag_456\n      jumpi\n        /* \"#utility.yul\":2816:2817   */\n      0x00\n        /* \"#utility.yul\":2813:2814   */\n      dup1\n        /* \"#utility.yul\":2806:2818   */\n      revert\n        /* \"#utility.yul\":2768:2820   */\n    tag_456:\n        /* \"#utility.yul\":2839:2867   */\n      tag_457\n        /* \"#utility.yul\":2857:2866   */\n      dup5\n        /* \"#utility.yul\":2839:2867   */\n      tag_412\n      jump\t// in\n    tag_457:\n        /* \"#utility.yul\":2829:2867   */\n      swap3\n      pop\n        /* \"#utility.yul\":2918:2920   */\n      0x20\n        /* \"#utility.yul\":2907:2916   */\n      dup5\n        /* \"#utility.yul\":2903:2921   */\n      add\n        /* \"#utility.yul\":2890:2922   */\n      calldataload\n      sub(shl(0x40, 0x01), 0x01)\n        /* \"#utility.yul\":2937:2943   */\n      dup2\n        /* \"#utility.yul\":2934:2964   */\n      gt\n        /* \"#utility.yul\":2931:2981   */\n      iszero\n      tag_458\n      jumpi\n        /* \"#utility.yul\":2977:2978   */\n      0x00\n        /* \"#utility.yul\":2974:2975   */\n      dup1\n        /* \"#utility.yul\":2967:2979   */\n      revert\n        /* \"#utility.yul\":2931:2981   */\n    tag_458:\n        /* \"#utility.yul\":3016:3074   */\n      tag_459\n        /* \"#utility.yul\":3066:3073   */\n      dup7\n        /* \"#utility.yul\":3057:3063   */\n      dup3\n        /* \"#utility.yul\":3046:3055   */\n      dup8\n        /* \"#utility.yul\":3042:3064   */\n      add\n        /* \"#utility.yul\":3016:3074   */\n      tag_413\n      jump\t// in\n    tag_459:\n        /* \"#utility.yul\":2653:3134   */\n      swap5\n      swap8\n        /* \"#utility.yul\":3093:3101   */\n      swap1\n      swap7\n      pop\n        /* \"#utility.yul\":2990:3074   */\n      swap4\n      swap5\n      pop\n      pop\n      pop\n      pop\n        /* \"#utility.yul\":2653:3134   */\n      jump\t// out\n        /* \"#utility.yul\":3513:3640   */\n    tag_399:\n        /* \"#utility.yul\":3574:3584   */\n      0x4e487b71\n        /* \"#utility.yul\":3569:3572   */\n      0xe0\n        /* \"#utility.yul\":3565:3585   */\n      shl\n        /* \"#utility.yul\":3562:3563   */\n      0x00\n        /* \"#utility.yul\":3555:3586   */\n      mstore\n        /* \"#utility.yul\":3605:3609   */\n      0x41\n        /* \"#utility.yul\":3602:3603   */\n      0x04\n        /* \"#utility.yul\":3595:3610   */\n      mstore\n        /* \"#utility.yul\":3629:3633   */\n      0x24\n        /* \"#utility.yul\":3626:3627   */\n      0x00\n        /* \"#utility.yul\":3619:3634   */\n      revert\n        /* \"#utility.yul\":3645:3920   */\n    tag_416:\n        /* \"#utility.yul\":3716:3718   */\n      0x40\n        /* \"#utility.yul\":3710:3719   */\n      mload\n        /* \"#utility.yul\":3781:3783   */\n      0x1f\n        /* \"#utility.yul\":3762:3775   */\n      dup3\n      add\n      not(0x1f)\n        /* \"#utility.yul\":3758:3785   */\n      and\n        /* \"#utility.yul\":3746:3786   */\n      dup2\n      add\n      sub(shl(0x40, 0x01), 0x01)\n        /* \"#utility.yul\":3801:3835   */\n      dup2\n      gt\n        /* \"#utility.yul\":3837:3859   */\n      dup3\n      dup3\n      lt\n        /* \"#utility.yul\":3798:3860   */\n      or\n        /* \"#utility.yul\":3795:3883   */\n      iszero\n      tag_465\n      jumpi\n        /* \"#utility.yul\":3863:3881   */\n      tag_465\n      tag_399\n      jump\t// in\n    tag_465:\n        /* \"#utility.yul\":3899:3901   */\n      0x40\n        /* \"#utility.yul\":3892:3914   */\n      mstore\n        /* \"#utility.yul\":3645:3920   */\n      swap2\n      swap1\n      pop\n      jump\t// out\n        /* \"#utility.yul\":3925:4111   */\n    tag_417:\n        /* \"#utility.yul\":3973:3977   */\n      0x00\n      sub(shl(0x40, 0x01), 0x01)\n        /* \"#utility.yul\":3998:4004   */\n      dup3\n        /* \"#utility.yul\":3995:4025   */\n      gt\n        /* \"#utility.yul\":3992:4048   */\n      iszero\n      tag_468\n      jumpi\n        /* \"#utility.yul\":4028:4046   */\n      tag_468\n      tag_399\n      jump\t// in\n    tag_468:\n      pop\n        /* \"#utility.yul\":4094:4096   */\n      0x1f\n        /* \"#utility.yul\":4073:4088   */\n      add\n      not(0x1f)\n        /* \"#utility.yul\":4069:4098   */\n      and\n        /* \"#utility.yul\":4100:4104   */\n      0x20\n        /* \"#utility.yul\":4065:4105   */\n      add\n      swap1\n        /* \"#utility.yul\":3925:4111   */\n      jump\t// out\n        /* \"#utility.yul\":4116:4931   */\n    tag_90:\n        /* \"#utility.yul\":4200:4206   */\n      0x00\n        /* \"#utility.yul\":4208:4214   */\n      dup1\n        /* \"#utility.yul\":4216:4222   */\n      0x00\n        /* \"#utility.yul\":4269:4271   */\n      0x60\n        /* \"#utility.yul\":4257:4266   */\n      dup5\n        /* \"#utility.yul\":4248:4255   */\n      dup7\n        /* \"#utility.yul\":4244:4267   */\n      sub\n        /* \"#utility.yul\":4240:4272   */\n      slt\n        /* \"#utility.yul\":4237:4289   */\n      iszero\n      tag_470\n      jumpi\n        /* \"#utility.yul\":4285:4286   */\n      0x00\n        /* \"#utility.yul\":4282:4283   */\n      dup1\n        /* \"#utility.yul\":4275:4287   */\n      revert\n        /* \"#utility.yul\":4237:4289   */\n    tag_470:\n        /* \"#utility.yul\":4308:4336   */\n      tag_471\n        /* \"#utility.yul\":4326:4335   */\n      dup5\n        /* \"#utility.yul\":4308:4336   */\n      tag_412\n      jump\t// in\n    tag_471:\n        /* \"#utility.yul\":4298:4336   */\n      swap3\n      pop\n        /* \"#utility.yul\":4387:4389   */\n      0x20\n        /* \"#utility.yul\":4376:4385   */\n      dup5\n        /* \"#utility.yul\":4372:4390   */\n      add\n        /* \"#utility.yul\":4359:4391   */\n      calldataload\n      sub(shl(0x40, 0x01), 0x01)\n        /* \"#utility.yul\":4406:4412   */\n      dup2\n        /* \"#utility.yul\":4403:4433   */\n      gt\n        /* \"#utility.yul\":4400:4450   */\n      iszero\n      tag_472\n      jumpi\n        /* \"#utility.yul\":4446:4447   */\n      0x00\n        /* \"#utility.yul\":4443:4444   */\n      dup1\n        /* \"#utility.yul\":4436:4448   */\n      revert\n        /* \"#utility.yul\":4400:4450   */\n    tag_472:\n        /* \"#utility.yul\":4469:4491   */\n      dup5\n      add\n        /* \"#utility.yul\":4522:4526   */\n      0x1f\n        /* \"#utility.yul\":4514:4527   */\n      dup2\n      add\n        /* \"#utility.yul\":4510:4537   */\n      dup7\n      sgt\n        /* \"#utility.yul\":4500:4555   */\n      tag_473\n      jumpi\n        /* \"#utility.yul\":4551:4552   */\n      0x00\n        /* \"#utility.yul\":4548:4549   */\n      dup1\n        /* \"#utility.yul\":4541:4553   */\n      revert\n        /* \"#utility.yul\":4500:4555   */\n    tag_473:\n        /* \"#utility.yul\":4587:4589   */\n      dup1\n        /* \"#utility.yul\":4574:4590   */\n      calldataload\n        /* \"#utility.yul\":4612:4660   */\n      tag_474\n        /* \"#utility.yul\":4628:4659   */\n      tag_475\n        /* \"#utility.yul\":4656:4658   */\n      dup3\n        /* \"#utility.yul\":4628:4659   */\n      tag_417\n      jump\t// in\n    tag_475:\n        /* \"#utility.yul\":4612:4660   */\n      tag_416\n      jump\t// in\n    tag_474:\n        /* \"#utility.yul\":4683:4685   */\n      dup2\n        /* \"#utility.yul\":4676:4681   */\n      dup2\n        /* \"#utility.yul\":4669:4686   */\n      mstore\n        /* \"#utility.yul\":4723:4730   */\n      dup8\n        /* \"#utility.yul\":4718:4720   */\n      0x20\n        /* \"#utility.yul\":4713:4715   */\n      dup4\n        /* \"#utility.yul\":4709:4711   */\n      dup6\n        /* \"#utility.yul\":4705:4716   */\n      add\n        /* \"#utility.yul\":4701:4721   */\n      add\n        /* \"#utility.yul\":4698:4731   */\n      gt\n        /* \"#utility.yul\":4695:4748   */\n      iszero\n      tag_476\n      jumpi\n        /* \"#utility.yul\":4744:4745   */\n      0x00\n        /* \"#utility.yul\":4741:4742   */\n      dup1\n        /* \"#utility.yul\":4734:4746   */\n      revert\n        /* \"#utility.yul\":4695:4748   */\n    tag_476:\n        /* \"#utility.yul\":4799:4801   */\n      dup2\n        /* \"#utility.yul\":4794:4796   */\n      0x20\n        /* \"#utility.yul\":4790:4792   */\n      dup5\n        /* \"#utility.yul\":4786:4797   */\n      add\n        /* \"#utility.yul\":4781:4783   */\n      0x20\n        /* \"#utility.yul\":4774:4779   */\n      dup4\n        /* \"#utility.yul\":4770:4784   */\n      add\n        /* \"#utility.yul\":4757:4802   */\n      calldatacopy\n        /* \"#utility.yul\":4843:4844   */\n      0x00\n        /* \"#utility.yul\":4838:4840   */\n      0x20\n        /* \"#utility.yul\":4833:4835   */\n      dup4\n        /* \"#utility.yul\":4826:4831   */\n      dup4\n        /* \"#utility.yul\":4822:4836   */\n      add\n        /* \"#utility.yul\":4818:4841   */\n      add\n        /* \"#utility.yul\":4811:4845   */\n      mstore\n        /* \"#utility.yul\":4864:4869   */\n      dup1\n        /* \"#utility.yul\":4854:4869   */\n      swap5\n      pop\n      pop\n      pop\n      pop\n        /* \"#utility.yul\":4888:4925   */\n      tag_477\n        /* \"#utility.yul\":4921:4923   */\n      0x40\n        /* \"#utility.yul\":4910:4919   */\n      dup6\n        /* \"#utility.yul\":4906:4924   */\n      add\n        /* \"#utility.yul\":4888:4925   */\n      tag_414\n      jump\t// in\n    tag_477:\n        /* \"#utility.yul\":4878:4925   */\n      swap1\n      pop\n        /* \"#utility.yul\":4116:4931   */\n      swap3\n      pop\n      swap3\n      pop\n      swap3\n      jump\t// out\n        /* \"#utility.yul\":5118:5368   */\n    tag_418:\n        /* \"#utility.yul\":5203:5204   */\n      0x00\n        /* \"#utility.yul\":5213:5326   */\n    tag_480:\n        /* \"#utility.yul\":5227:5233   */\n      dup4\n        /* \"#utility.yul\":5224:5225   */\n      dup2\n        /* \"#utility.yul\":5221:5234   */\n      lt\n        /* \"#utility.yul\":5213:5326   */\n      iszero\n      tag_482\n      jumpi\n        /* \"#utility.yul\":5303:5314   */\n      dup2\n      dup2\n      add\n        /* \"#utility.yul\":5297:5315   */\n      mload\n        /* \"#utility.yul\":5284:5295   */\n      dup4\n      dup3\n      add\n        /* \"#utility.yul\":5277:5316   */\n      mstore\n        /* \"#utility.yul\":5249:5251   */\n      0x20\n        /* \"#utility.yul\":5242:5252   */\n      add\n        /* \"#utility.yul\":5213:5326   */\n      jump(tag_480)\n    tag_482:\n      pop\n      pop\n        /* \"#utility.yul\":5360:5361   */\n      0x00\n        /* \"#utility.yul\":5342:5358   */\n      swap2\n      add\n        /* \"#utility.yul\":5335:5362   */\n      mstore\n        /* \"#utility.yul\":5118:5368   */\n      jump\t// out\n        /* \"#utility.yul\":5373:5643   */\n    tag_419:\n        /* \"#utility.yul\":5414:5417   */\n      0x00\n        /* \"#utility.yul\":5452:5457   */\n      dup2\n        /* \"#utility.yul\":5446:5458   */\n      mload\n        /* \"#utility.yul\":5479:5485   */\n      dup1\n        /* \"#utility.yul\":5474:5477   */\n      dup5\n        /* \"#utility.yul\":5467:5486   */\n      mstore\n        /* \"#utility.yul\":5495:5571   */\n      tag_484\n        /* \"#utility.yul\":5564:5570   */\n      dup2\n        /* \"#utility.yul\":5557:5561   */\n      0x20\n        /* \"#utility.yul\":5552:5555   */\n      dup7\n        /* \"#utility.yul\":5548:5562   */\n      add\n        /* \"#utility.yul\":5541:5545   */\n      0x20\n        /* \"#utility.yul\":5534:5539   */\n      dup7\n        /* \"#utility.yul\":5530:5546   */\n      add\n        /* \"#utility.yul\":5495:5571   */\n      tag_418\n      jump\t// in\n    tag_484:\n        /* \"#utility.yul\":5625:5627   */\n      0x1f\n        /* \"#utility.yul\":5604:5619   */\n      add\n      not(0x1f)\n        /* \"#utility.yul\":5600:5629   */\n      and\n        /* \"#utility.yul\":5591:5630   */\n      swap3\n      swap1\n      swap3\n      add\n        /* \"#utility.yul\":5632:5636   */\n      0x20\n        /* \"#utility.yul\":5587:5637   */\n      add\n      swap3\n        /* \"#utility.yul\":5373:5643   */\n      swap2\n      pop\n      pop\n      jump\t// out\n        /* \"#utility.yul\":5648:5865   */\n    tag_106:\n        /* \"#utility.yul\":5795:5797   */\n      0x20\n        /* \"#utility.yul\":5784:5793   */\n      dup2\n        /* \"#utility.yul\":5777:5798   */\n      mstore\n        /* \"#utility.yul\":5758:5762   */\n      0x00\n        /* \"#utility.yul\":5815:5859   */\n      tag_269\n        /* \"#utility.yul\":5855:5857   */\n      0x20\n        /* \"#utility.yul\":5844:5853   */\n      dup4\n        /* \"#utility.yul\":5840:5858   */\n      add\n        /* \"#utility.yul\":5832:5838   */\n      dup5\n        /* \"#utility.yul\":5815:5859   */\n      tag_419\n      jump\t// in\n        /* \"#utility.yul\":5870:6126   */\n    tag_110:\n        /* \"#utility.yul\":5936:5942   */\n      0x00\n        /* \"#utility.yul\":5944:5950   */\n      dup1\n        /* \"#utility.yul\":5997:5999   */\n      0x40\n        /* \"#utility.yul\":5985:5994   */\n      dup4\n        /* \"#utility.yul\":5976:5983   */\n      dup6\n        /* \"#utility.yul\":5972:5995   */\n      sub\n        /* \"#utility.yul\":5968:6000   */\n      slt\n        /* \"#utility.yul\":5965:6017   */\n      iszero\n      tag_488\n      jumpi\n        /* \"#utility.yul\":6013:6014   */\n      0x00\n        /* \"#utility.yul\":6010:6011   */\n      dup1\n        /* \"#utility.yul\":6003:6015   */\n      revert\n        /* \"#utility.yul\":5965:6017   */\n    tag_488:\n        /* \"#utility.yul\":6036:6064   */\n      tag_452\n        /* \"#utility.yul\":6054:6063   */\n      dup4\n        /* \"#utility.yul\":6036:6064   */\n      tag_412\n      jump\t// in\n        /* \"#utility.yul\":6573:6759   */\n    tag_139:\n        /* \"#utility.yul\":6632:6638   */\n      0x00\n        /* \"#utility.yul\":6685:6687   */\n      0x20\n        /* \"#utility.yul\":6673:6682   */\n      dup3\n        /* \"#utility.yul\":6664:6671   */\n      dup5\n        /* \"#utility.yul\":6660:6683   */\n      sub\n        /* \"#utility.yul\":6656:6688   */\n      slt\n        /* \"#utility.yul\":6653:6705   */\n      iszero\n      tag_494\n      jumpi\n        /* \"#utility.yul\":6701:6702   */\n      0x00\n        /* \"#utility.yul\":6698:6699   */\n      dup1\n        /* \"#utility.yul\":6691:6703   */\n      revert\n        /* \"#utility.yul\":6653:6705   */\n    tag_494:\n        /* \"#utility.yul\":6724:6753   */\n      tag_269\n        /* \"#utility.yul\":6743:6752   */\n      dup3\n        /* \"#utility.yul\":6724:6753   */\n      tag_415\n      jump\t// in\n        /* \"#utility.yul\":6764:7386   */\n    tag_148:\n        /* \"#utility.yul\":6859:6865   */\n      0x00\n        /* \"#utility.yul\":6867:6873   */\n      dup1\n        /* \"#utility.yul\":6875:6881   */\n      0x00\n        /* \"#utility.yul\":6883:6889   */\n      dup1\n        /* \"#utility.yul\":6891:6897   */\n      0x00\n        /* \"#utility.yul\":6944:6947   */\n      0x80\n        /* \"#utility.yul\":6932:6941   */\n      dup7\n        /* \"#utility.yul\":6923:6930   */\n      dup9\n        /* \"#utility.yul\":6919:6942   */\n      sub\n        /* \"#utility.yul\":6915:6948   */\n      slt\n        /* \"#utility.yul\":6912:6965   */\n      iszero\n      tag_497\n      jumpi\n        /* \"#utility.yul\":6961:6962   */\n      0x00\n        /* \"#utility.yul\":6958:6959   */\n      dup1\n        /* \"#utility.yul\":6951:6963   */\n      revert\n        /* \"#utility.yul\":6912:6965   */\n    tag_497:\n        /* \"#utility.yul\":6984:7012   */\n      tag_498\n        /* \"#utility.yul\":7002:7011   */\n      dup7\n        /* \"#utility.yul\":6984:7012   */\n      tag_412\n      jump\t// in\n    tag_498:\n        /* \"#utility.yul\":6974:7012   */\n      swap5\n      pop\n        /* \"#utility.yul\":7031:7068   */\n      tag_499\n        /* \"#utility.yul\":7064:7066   */\n      0x20\n        /* \"#utility.yul\":7053:7062   */\n      dup8\n        /* \"#utility.yul\":7049:7067   */\n      add\n        /* \"#utility.yul\":7031:7068   */\n      tag_412\n      jump\t// in\n    tag_499:\n        /* \"#utility.yul\":7021:7068   */\n      swap4\n      pop\n        /* \"#utility.yul\":7115:7117   */\n      0x40\n        /* \"#utility.yul\":7104:7113   */\n      dup7\n        /* \"#utility.yul\":7100:7118   */\n      add\n        /* \"#utility.yul\":7087:7119   */\n      calldataload\n        /* \"#utility.yul\":7077:7119   */\n      swap3\n      pop\n        /* \"#utility.yul\":7170:7172   */\n      0x60\n        /* \"#utility.yul\":7159:7168   */\n      dup7\n        /* \"#utility.yul\":7155:7173   */\n      add\n        /* \"#utility.yul\":7142:7174   */\n      calldataload\n      sub(shl(0x40, 0x01), 0x01)\n        /* \"#utility.yul\":7189:7195   */\n      dup2\n        /* \"#utility.yul\":7186:7216   */\n      gt\n        /* \"#utility.yul\":7183:7233   */\n      iszero\n      tag_500\n      jumpi\n        /* \"#utility.yul\":7229:7230   */\n      0x00\n        /* \"#utility.yul\":7226:7227   */\n      dup1\n        /* \"#utility.yul\":7219:7231   */\n      revert\n        /* \"#utility.yul\":7183:7233   */\n    tag_500:\n        /* \"#utility.yul\":7268:7326   */\n      tag_501\n        /* \"#utility.yul\":7318:7325   */\n      dup9\n        /* \"#utility.yul\":7309:7315   */\n      dup3\n        /* \"#utility.yul\":7298:7307   */\n      dup10\n        /* \"#utility.yul\":7294:7316   */\n      add\n        /* \"#utility.yul\":7268:7326   */\n      tag_413\n      jump\t// in\n    tag_501:\n        /* \"#utility.yul\":6764:7386   */\n      swap7\n      swap10\n      swap6\n      swap9\n      pop\n      swap4\n      swap7\n      pop\n        /* \"#utility.yul\":7345:7353   */\n      swap3\n      swap5\n        /* \"#utility.yul\":7242:7326   */\n      swap4\n        /* \"#utility.yul\":6764:7386   */\n      swap3\n      pop\n      pop\n      pop\n      jump\t// out\n        /* \"#utility.yul\":7391:7715   */\n    tag_161:\n        /* \"#utility.yul\":7466:7472   */\n      0x00\n        /* \"#utility.yul\":7474:7480   */\n      dup1\n        /* \"#utility.yul\":7482:7488   */\n      0x00\n        /* \"#utility.yul\":7535:7537   */\n      0x60\n        /* \"#utility.yul\":7523:7532   */\n      dup5\n        /* \"#utility.yul\":7514:7521   */\n      dup7\n        /* \"#utility.yul\":7510:7533   */\n      sub\n        /* \"#utility.yul\":7506:7538   */\n      slt\n        /* \"#utility.yul\":7503:7555   */\n      iszero\n      tag_503\n      jumpi\n        /* \"#utility.yul\":7551:7552   */\n      0x00\n        /* \"#utility.yul\":7548:7549   */\n      dup1\n        /* \"#utility.yul\":7541:7553   */\n      revert\n        /* \"#utility.yul\":7503:7555   */\n    tag_503:\n        /* \"#utility.yul\":7574:7602   */\n      tag_504\n        /* \"#utility.yul\":7592:7601   */\n      dup5\n        /* \"#utility.yul\":7574:7602   */\n      tag_412\n      jump\t// in\n    tag_504:\n        /* \"#utility.yul\":7564:7602   */\n      swap3\n      pop\n        /* \"#utility.yul\":7621:7658   */\n      tag_505\n        /* \"#utility.yul\":7654:7656   */\n      0x20\n        /* \"#utility.yul\":7643:7652   */\n      dup6\n        /* \"#utility.yul\":7639:7657   */\n      add\n        /* \"#utility.yul\":7621:7658   */\n      tag_412\n      jump\t// in\n    tag_505:\n        /* \"#utility.yul\":7611:7658   */\n      swap2\n      pop\n        /* \"#utility.yul\":7705:7707   */\n      0x40\n        /* \"#utility.yul\":7694:7703   */\n      dup5\n        /* \"#utility.yul\":7690:7708   */\n      add\n        /* \"#utility.yul\":7677:7709   */\n      calldataload\n        /* \"#utility.yul\":7667:7709   */\n      swap1\n      pop\n        /* \"#utility.yul\":7391:7715   */\n      swap3\n      pop\n      swap3\n      pop\n      swap3\n      jump\t// out\n        /* \"#utility.yul\":7720:8046   */\n    tag_169:\n        /* \"#utility.yul\":7796:7802   */\n      0x00\n        /* \"#utility.yul\":7804:7810   */\n      dup1\n        /* \"#utility.yul\":7812:7818   */\n      0x00\n        /* \"#utility.yul\":7865:7867   */\n      0x60\n        /* \"#utility.yul\":7853:7862   */\n      dup5\n        /* \"#utility.yul\":7844:7851   */\n      dup7\n        /* \"#utility.yul\":7840:7863   */\n      sub\n        /* \"#utility.yul\":7836:7868   */\n      slt\n        /* \"#utility.yul\":7833:7885   */\n      iszero\n      tag_507\n      jumpi\n        /* \"#utility.yul\":7881:7882   */\n      0x00\n        /* \"#utility.yul\":7878:7879   */\n      dup1\n        /* \"#utility.yul\":7871:7883   */\n      revert\n        /* \"#utility.yul\":7833:7885   */\n    tag_507:\n        /* \"#utility.yul\":7904:7932   */\n      tag_508\n        /* \"#utility.yul\":7922:7931   */\n      dup5\n        /* \"#utility.yul\":7904:7932   */\n      tag_412\n      jump\t// in\n    tag_508:\n        /* \"#utility.yul\":7894:7932   */\n      swap3\n      pop\n        /* \"#utility.yul\":7951:7989   */\n      tag_505\n        /* \"#utility.yul\":7985:7987   */\n      0x20\n        /* \"#utility.yul\":7974:7983   */\n      dup6\n        /* \"#utility.yul\":7970:7988   */\n      add\n        /* \"#utility.yul\":7951:7989   */\n      tag_415\n      jump\t// in\n        /* \"#utility.yul\":8051:8450   */\n    tag_178:\n        /* \"#utility.yul\":8135:8141   */\n      0x00\n        /* \"#utility.yul\":8143:8149   */\n      dup1\n        /* \"#utility.yul\":8151:8157   */\n      0x00\n        /* \"#utility.yul\":8159:8165   */\n      dup1\n        /* \"#utility.yul\":8212:8215   */\n      0x80\n        /* \"#utility.yul\":8200:8209   */\n      dup6\n        /* \"#utility.yul\":8191:8198   */\n      dup8\n        /* \"#utility.yul\":8187:8210   */\n      sub\n        /* \"#utility.yul\":8183:8216   */\n      slt\n        /* \"#utility.yul\":8180:8233   */\n      iszero\n      tag_511\n      jumpi\n        /* \"#utility.yul\":8229:8230   */\n      0x00\n        /* \"#utility.yul\":8226:8227   */\n      dup1\n        /* \"#utility.yul\":8219:8231   */\n      revert\n        /* \"#utility.yul\":8180:8233   */\n    tag_511:\n        /* \"#utility.yul\":8252:8280   */\n      tag_512\n        /* \"#utility.yul\":8270:8279   */\n      dup6\n        /* \"#utility.yul\":8252:8280   */\n      tag_412\n      jump\t// in\n    tag_512:\n        /* \"#utility.yul\":8242:8280   */\n      swap4\n      pop\n        /* \"#utility.yul\":8299:8336   */\n      tag_513\n        /* \"#utility.yul\":8332:8334   */\n      0x20\n        /* \"#utility.yul\":8321:8330   */\n      dup7\n        /* \"#utility.yul\":8317:8335   */\n      add\n        /* \"#utility.yul\":8299:8336   */\n      tag_412\n      jump\t// in\n    tag_513:\n        /* \"#utility.yul\":8289:8336   */\n      swap3\n      pop\n        /* \"#utility.yul\":8355:8393   */\n      tag_514\n        /* \"#utility.yul\":8389:8391   */\n      0x40\n        /* \"#utility.yul\":8378:8387   */\n      dup7\n        /* \"#utility.yul\":8374:8392   */\n      add\n        /* \"#utility.yul\":8355:8393   */\n      tag_415\n      jump\t// in\n    tag_514:\n        /* \"#utility.yul\":8051:8450   */\n      swap4\n      swap7\n      swap3\n      swap6\n      pop\n        /* \"#utility.yul\":8345:8393   */\n      swap3\n      swap4\n        /* \"#utility.yul\":8440:8442   */\n      0x60\n        /* \"#utility.yul\":8425:8443   */\n      add\n        /* \"#utility.yul\":8412:8444   */\n      calldataload\n      swap3\n      pop\n      pop\n        /* \"#utility.yul\":8051:8450   */\n      jump\t// out\n        /* \"#utility.yul\":8814:9194   */\n    tag_188:\n        /* \"#utility.yul\":8893:8894   */\n      0x01\n        /* \"#utility.yul\":8889:8901   */\n      dup2\n      dup2\n      shr\n      swap1\n        /* \"#utility.yul\":8936:8948   */\n      dup3\n      and\n      dup1\n        /* \"#utility.yul\":8957:9018   */\n      tag_517\n      jumpi\n        /* \"#utility.yul\":9011:9015   */\n      0x7f\n        /* \"#utility.yul\":9003:9009   */\n      dup3\n        /* \"#utility.yul\":8999:9016   */\n      and\n        /* \"#utility.yul\":8989:9016   */\n      swap2\n      pop\n        /* \"#utility.yul\":8957:9018   */\n    tag_517:\n        /* \"#utility.yul\":9064:9066   */\n      0x20\n        /* \"#utility.yul\":9056:9062   */\n      dup3\n        /* \"#utility.yul\":9053:9067   */\n      lt\n        /* \"#utility.yul\":9033:9051   */\n      dup2\n        /* \"#utility.yul\":9030:9068   */\n      sub\n        /* \"#utility.yul\":9027:9188   */\n      tag_518\n      jumpi\n        /* \"#utility.yul\":9110:9120   */\n      0x4e487b71\n        /* \"#utility.yul\":9105:9108   */\n      0xe0\n        /* \"#utility.yul\":9101:9121   */\n      shl\n        /* \"#utility.yul\":9098:9099   */\n      0x00\n        /* \"#utility.yul\":9091:9122   */\n      mstore\n        /* \"#utility.yul\":9145:9149   */\n      0x22\n        /* \"#utility.yul\":9142:9143   */\n      0x04\n        /* \"#utility.yul\":9135:9150   */\n      mstore\n        /* \"#utility.yul\":9173:9177   */\n      0x24\n        /* \"#utility.yul\":9170:9171   */\n      0x00\n        /* \"#utility.yul\":9163:9178   */\n      revert\n        /* \"#utility.yul\":9027:9188   */\n    tag_518:\n      pop\n        /* \"#utility.yul\":8814:9194   */\n      swap2\n      swap1\n      pop\n      jump\t// out\n        /* \"#utility.yul\":9199:9470   */\n    tag_196:\n        /* \"#utility.yul\":9382:9388   */\n      dup2\n        /* \"#utility.yul\":9374:9380   */\n      dup4\n        /* \"#utility.yul\":9369:9372   */\n      dup3\n        /* \"#utility.yul\":9356:9389   */\n      calldatacopy\n        /* \"#utility.yul\":9338:9341   */\n      0x00\n        /* \"#utility.yul\":9408:9424   */\n      swap2\n      add\n        /* \"#utility.yul\":9433:9446   */\n      swap1\n      dup2\n      mstore\n        /* \"#utility.yul\":9408:9424   */\n      swap2\n        /* \"#utility.yul\":9199:9470   */\n      swap1\n      pop\n      jump\t// out\n        /* \"#utility.yul\":10345:10889   */\n    tag_421:\n        /* \"#utility.yul\":10446:10448   */\n      0x1f\n        /* \"#utility.yul\":10441:10444   */\n      dup3\n        /* \"#utility.yul\":10438:10449   */\n      gt\n        /* \"#utility.yul\":10435:10883   */\n      iszero\n      tag_409\n      jumpi\n        /* \"#utility.yul\":10482:10483   */\n      0x00\n        /* \"#utility.yul\":10507:10512   */\n      dup2\n        /* \"#utility.yul\":10503:10505   */\n      dup2\n        /* \"#utility.yul\":10496:10513   */\n      mstore\n        /* \"#utility.yul\":10552:10556   */\n      0x20\n        /* \"#utility.yul\":10548:10550   */\n      dup2\n        /* \"#utility.yul\":10538:10557   */\n      keccak256\n        /* \"#utility.yul\":10622:10624   */\n      0x1f\n        /* \"#utility.yul\":10610:10620   */\n      dup6\n        /* \"#utility.yul\":10606:10625   */\n      add\n        /* \"#utility.yul\":10603:10604   */\n      0x05\n        /* \"#utility.yul\":10599:10626   */\n      shr\n        /* \"#utility.yul\":10593:10597   */\n      dup2\n        /* \"#utility.yul\":10589:10627   */\n      add\n        /* \"#utility.yul\":10658:10662   */\n      0x20\n        /* \"#utility.yul\":10646:10656   */\n      dup7\n        /* \"#utility.yul\":10643:10663   */\n      lt\n        /* \"#utility.yul\":10640:10687   */\n      iszero\n      tag_525\n      jumpi\n      pop\n        /* \"#utility.yul\":10681:10685   */\n      dup1\n        /* \"#utility.yul\":10640:10687   */\n    tag_525:\n        /* \"#utility.yul\":10736:10738   */\n      0x1f\n        /* \"#utility.yul\":10731:10734   */\n      dup6\n        /* \"#utility.yul\":10727:10739   */\n      add\n        /* \"#utility.yul\":10724:10725   */\n      0x05\n        /* \"#utility.yul\":10720:10740   */\n      shr\n        /* \"#utility.yul\":10714:10718   */\n      dup3\n        /* \"#utility.yul\":10710:10741   */\n      add\n        /* \"#utility.yul\":10700:10741   */\n      swap2\n      pop\n        /* \"#utility.yul\":10791:10873   */\n    tag_526:\n        /* \"#utility.yul\":10809:10811   */\n      dup2\n        /* \"#utility.yul\":10802:10807   */\n      dup2\n        /* \"#utility.yul\":10799:10812   */\n      lt\n        /* \"#utility.yul\":10791:10873   */\n      iszero\n      tag_247\n      jumpi\n        /* \"#utility.yul\":10854:10871   */\n      dup3\n      dup2\n      sstore\n        /* \"#utility.yul\":10835:10836   */\n      0x01\n        /* \"#utility.yul\":10824:10837   */\n      add\n        /* \"#utility.yul\":10791:10873   */\n      jump(tag_526)\n        /* \"#utility.yul\":11065:12413   */\n    tag_226:\n        /* \"#utility.yul\":11189:11192   */\n      dup2\n        /* \"#utility.yul\":11183:11193   */\n      mload\n      sub(shl(0x40, 0x01), 0x01)\n        /* \"#utility.yul\":11208:11214   */\n      dup2\n        /* \"#utility.yul\":11205:11235   */\n      gt\n        /* \"#utility.yul\":11202:11258   */\n      iszero\n      tag_532\n      jumpi\n        /* \"#utility.yul\":11238:11256   */\n      tag_532\n      tag_399\n      jump\t// in\n    tag_532:\n        /* \"#utility.yul\":11267:11363   */\n      tag_533\n        /* \"#utility.yul\":11356:11362   */\n      dup2\n        /* \"#utility.yul\":11316:11354   */\n      tag_534\n        /* \"#utility.yul\":11348:11352   */\n      dup5\n        /* \"#utility.yul\":11342:11353   */\n      sload\n        /* \"#utility.yul\":11316:11354   */\n      tag_188\n      jump\t// in\n    tag_534:\n        /* \"#utility.yul\":11310:11314   */\n      dup5\n        /* \"#utility.yul\":11267:11363   */\n      tag_421\n      jump\t// in\n    tag_533:\n        /* \"#utility.yul\":11418:11422   */\n      0x20\n      dup1\n        /* \"#utility.yul\":11482:11484   */\n      0x1f\n        /* \"#utility.yul\":11471:11485   */\n      dup4\n      gt\n        /* \"#utility.yul\":11499:11500   */\n      0x01\n        /* \"#utility.yul\":11494:12156   */\n      dup2\n      eq\n      tag_536\n      jumpi\n        /* \"#utility.yul\":12200:12201   */\n      0x00\n        /* \"#utility.yul\":12217:12223   */\n      dup5\n        /* \"#utility.yul\":12214:12303   */\n      iszero\n      tag_537\n      jumpi\n      pop\n        /* \"#utility.yul\":12269:12288   */\n      dup6\n      dup4\n      add\n        /* \"#utility.yul\":12263:12289   */\n      mload\n        /* \"#utility.yul\":12214:12303   */\n    tag_537:\n      not(0x00)\n        /* \"#utility.yul\":11022:11023   */\n      0x03\n        /* \"#utility.yul\":11018:11029   */\n      dup7\n      swap1\n      shl\n        /* \"#utility.yul\":11014:11038   */\n      shr\n        /* \"#utility.yul\":11010:11039   */\n      not\n        /* \"#utility.yul\":11000:11040   */\n      and\n        /* \"#utility.yul\":11046:11047   */\n      0x01\n        /* \"#utility.yul\":11042:11053   */\n      dup6\n      swap1\n      shl\n        /* \"#utility.yul\":10997:11054   */\n      or\n        /* \"#utility.yul\":12316:12397   */\n      dup6\n      sstore\n        /* \"#utility.yul\":11464:12407   */\n      jump(tag_247)\n        /* \"#utility.yul\":11494:12156   */\n    tag_536:\n        /* \"#utility.yul\":10292:10293   */\n      0x00\n        /* \"#utility.yul\":10285:10299   */\n      dup6\n      dup2\n      mstore\n        /* \"#utility.yul\":10329:10333   */\n      0x20\n        /* \"#utility.yul\":10316:10334   */\n      dup2\n      keccak256\n      not(0x1f)\n        /* \"#utility.yul\":11530:11550   */\n      dup7\n      and\n      swap2\n        /* \"#utility.yul\":11647:11883   */\n    tag_540:\n        /* \"#utility.yul\":11661:11668   */\n      dup3\n        /* \"#utility.yul\":11658:11659   */\n      dup2\n        /* \"#utility.yul\":11655:11669   */\n      lt\n        /* \"#utility.yul\":11647:11883   */\n      iszero\n      tag_542\n      jumpi\n        /* \"#utility.yul\":11750:11769   */\n      dup9\n      dup7\n      add\n        /* \"#utility.yul\":11744:11770   */\n      mload\n        /* \"#utility.yul\":11729:11771   */\n      dup3\n      sstore\n        /* \"#utility.yul\":11842:11869   */\n      swap5\n      dup5\n      add\n      swap5\n        /* \"#utility.yul\":11810:11811   */\n      0x01\n        /* \"#utility.yul\":11798:11812   */\n      swap1\n      swap2\n      add\n      swap1\n        /* \"#utility.yul\":11677:11696   */\n      dup5\n      add\n        /* \"#utility.yul\":11647:11883   */\n      jump(tag_540)\n    tag_542:\n        /* \"#utility.yul\":11651:11654   */\n      pop\n        /* \"#utility.yul\":11911:11917   */\n      dup6\n        /* \"#utility.yul\":11902:11909   */\n      dup3\n        /* \"#utility.yul\":11899:11918   */\n      lt\n        /* \"#utility.yul\":11896:12097   */\n      iszero\n      tag_543\n      jumpi\n        /* \"#utility.yul\":11972:11991   */\n      dup8\n      dup6\n      add\n        /* \"#utility.yul\":11966:11992   */\n      mload\n      not(0x00)\n        /* \"#utility.yul\":12055:12056   */\n      0x03\n        /* \"#utility.yul\":12051:12065   */\n      dup9\n      swap1\n      shl\n        /* \"#utility.yul\":12067:12070   */\n      0xf8\n        /* \"#utility.yul\":12047:12071   */\n      and\n        /* \"#utility.yul\":12043:12080   */\n      shr\n        /* \"#utility.yul\":12039:12081   */\n      not\n        /* \"#utility.yul\":12024:12082   */\n      and\n        /* \"#utility.yul\":12009:12083   */\n      dup2\n      sstore\n        /* \"#utility.yul\":11896:12097   */\n    tag_543:\n      pop\n      pop\n      pop\n      pop\n      pop\n        /* \"#utility.yul\":12143:12144   */\n      0x01\n        /* \"#utility.yul\":12127:12141   */\n      swap1\n      dup2\n      shl\n        /* \"#utility.yul\":12123:12145   */\n      add\n        /* \"#utility.yul\":12110:12146   */\n      swap1\n      sstore\n      pop\n        /* \"#utility.yul\":11065:12413   */\n      jump\t// out\n        /* \"#utility.yul\":12418:12684   */\n    tag_423:\n        /* \"#utility.yul\":12506:12512   */\n      dup2\n        /* \"#utility.yul\":12501:12504   */\n      dup4\n        /* \"#utility.yul\":12494:12513   */\n      mstore\n        /* \"#utility.yul\":12558:12564   */\n      dup2\n        /* \"#utility.yul\":12551:12556   */\n      dup2\n        /* \"#utility.yul\":12544:12548   */\n      0x20\n        /* \"#utility.yul\":12539:12542   */\n      dup6\n        /* \"#utility.yul\":12535:12549   */\n      add\n        /* \"#utility.yul\":12522:12565   */\n      calldatacopy\n      pop\n        /* \"#utility.yul\":12610:12611   */\n      0x00\n        /* \"#utility.yul\":12585:12601   */\n      dup3\n      dup3\n      add\n        /* \"#utility.yul\":12603:12607   */\n      0x20\n        /* \"#utility.yul\":12581:12608   */\n      swap1\n      dup2\n      add\n        /* \"#utility.yul\":12574:12612   */\n      swap2\n      swap1\n      swap2\n      mstore\n        /* \"#utility.yul\":12666:12668   */\n      0x1f\n        /* \"#utility.yul\":12645:12660   */\n      swap1\n      swap2\n      add\n      not(0x1f)\n        /* \"#utility.yul\":12641:12670   */\n      and\n        /* \"#utility.yul\":12632:12671   */\n      swap1\n      swap2\n      add\n        /* \"#utility.yul\":12628:12678   */\n      add\n      swap1\n        /* \"#utility.yul\":12418:12684   */\n      jump\t// out\n        /* \"#utility.yul\":12689:13015   */\n    tag_238:\n        /* \"#utility.yul\":12884:12890   */\n      0xffff\n        /* \"#utility.yul\":12876:12882   */\n      dup5\n        /* \"#utility.yul\":12872:12891   */\n      and\n        /* \"#utility.yul\":12861:12870   */\n      dup2\n        /* \"#utility.yul\":12854:12892   */\n      mstore\n        /* \"#utility.yul\":12928:12930   */\n      0x40\n        /* \"#utility.yul\":12923:12925   */\n      0x20\n        /* \"#utility.yul\":12912:12921   */\n      dup3\n        /* \"#utility.yul\":12908:12926   */\n      add\n        /* \"#utility.yul\":12901:12931   */\n      mstore\n        /* \"#utility.yul\":12835:12839   */\n      0x00\n        /* \"#utility.yul\":12948:13009   */\n      tag_343\n        /* \"#utility.yul\":13005:13007   */\n      0x40\n        /* \"#utility.yul\":12994:13003   */\n      dup4\n        /* \"#utility.yul\":12990:13008   */\n      add\n        /* \"#utility.yul\":12982:12988   */\n      dup5\n        /* \"#utility.yul\":12974:12980   */\n      dup7\n        /* \"#utility.yul\":12948:13009   */\n      tag_423\n      jump\t// in\n        /* \"#utility.yul\":13785:13912   */\n    tag_424:\n        /* \"#utility.yul\":13846:13856   */\n      0x4e487b71\n        /* \"#utility.yul\":13841:13844   */\n      0xe0\n        /* \"#utility.yul\":13837:13857   */\n      shl\n        /* \"#utility.yul\":13834:13835   */\n      0x00\n        /* \"#utility.yul\":13827:13858   */\n      mstore\n        /* \"#utility.yul\":13877:13881   */\n      0x11\n        /* \"#utility.yul\":13874:13875   */\n      0x04\n        /* \"#utility.yul\":13867:13882   */\n      mstore\n        /* \"#utility.yul\":13901:13905   */\n      0x24\n        /* \"#utility.yul\":13898:13899   */\n      0x00\n        /* \"#utility.yul\":13891:13906   */\n      revert\n        /* \"#utility.yul\":13917:14045   */\n    tag_271:\n        /* \"#utility.yul\":13984:13993   */\n      dup2\n      dup2\n      sub\n        /* \"#utility.yul\":14005:14016   */\n      dup2\n      dup2\n      gt\n        /* \"#utility.yul\":14002:14039   */\n      iszero\n      tag_552\n      jumpi\n        /* \"#utility.yul\":14019:14037   */\n      tag_552\n      tag_424\n      jump\t// in\n    tag_552:\n        /* \"#utility.yul\":13917:14045   */\n      swap3\n      swap2\n      pop\n      pop\n      jump\t// out\n        /* \"#utility.yul\":14050:14410   */\n    tag_277:\n        /* \"#utility.yul\":14261:14267   */\n      dup3\n        /* \"#utility.yul\":14253:14259   */\n      dup5\n        /* \"#utility.yul\":14248:14251   */\n      dup3\n        /* \"#utility.yul\":14235:14268   */\n      calldatacopy\n        /* \"#utility.yul\":14331:14333   */\n      0x60\n        /* \"#utility.yul\":14327:14342   */\n      swap2\n      swap1\n      swap2\n      shl\n      not(0xffffffffffffffffffffffff)\n        /* \"#utility.yul\":14323:14376   */\n      and\n        /* \"#utility.yul\":14287:14303   */\n      swap2\n      add\n        /* \"#utility.yul\":14312:14377   */\n      swap1\n      dup2\n      mstore\n        /* \"#utility.yul\":14401:14403   */\n      0x14\n        /* \"#utility.yul\":14393:14404   */\n      add\n      swap2\n        /* \"#utility.yul\":14050:14410   */\n      swap1\n      pop\n      jump\t// out\n        /* \"#utility.yul\":14415:14913   */\n    tag_288:\n        /* \"#utility.yul\":14615:14619   */\n      0x00\n        /* \"#utility.yul\":14644:14650   */\n      0xffff\n        /* \"#utility.yul\":14689:14691   */\n      dup1\n        /* \"#utility.yul\":14681:14687   */\n      dup9\n        /* \"#utility.yul\":14677:14692   */\n      and\n        /* \"#utility.yul\":14666:14675   */\n      dup4\n        /* \"#utility.yul\":14659:14693   */\n      mstore\n        /* \"#utility.yul\":14741:14743   */\n      dup1\n        /* \"#utility.yul\":14733:14739   */\n      dup8\n        /* \"#utility.yul\":14729:14744   */\n      and\n        /* \"#utility.yul\":14724:14726   */\n      0x20\n        /* \"#utility.yul\":14713:14722   */\n      dup5\n        /* \"#utility.yul\":14709:14727   */\n      add\n        /* \"#utility.yul\":14702:14745   */\n      mstore\n      pop\n        /* \"#utility.yul\":14781:14787   */\n      dup5\n        /* \"#utility.yul\":14776:14778   */\n      0x40\n        /* \"#utility.yul\":14765:14774   */\n      dup4\n        /* \"#utility.yul\":14761:14779   */\n      add\n        /* \"#utility.yul\":14754:14788   */\n      mstore\n        /* \"#utility.yul\":14824:14827   */\n      0x80\n        /* \"#utility.yul\":14819:14821   */\n      0x60\n        /* \"#utility.yul\":14808:14817   */\n      dup4\n        /* \"#utility.yul\":14804:14822   */\n      add\n        /* \"#utility.yul\":14797:14828   */\n      mstore\n        /* \"#utility.yul\":14845:14907   */\n      tag_555\n        /* \"#utility.yul\":14902:14905   */\n      0x80\n        /* \"#utility.yul\":14891:14900   */\n      dup4\n        /* \"#utility.yul\":14887:14906   */\n      add\n        /* \"#utility.yul\":14879:14885   */\n      dup5\n        /* \"#utility.yul\":14871:14877   */\n      dup7\n        /* \"#utility.yul\":14845:14907   */\n      tag_423\n      jump\t// in\n    tag_555:\n        /* \"#utility.yul\":14837:14907   */\n      swap8\n        /* \"#utility.yul\":14415:14913   */\n      swap7\n      pop\n      pop\n      pop\n      pop\n      pop\n      pop\n      pop\n      jump\t// out\n        /* \"#utility.yul\":15724:16217   */\n    tag_304:\n        /* \"#utility.yul\":15973:15979   */\n      0xffff\n        /* \"#utility.yul\":15965:15971   */\n      dup7\n        /* \"#utility.yul\":15961:15980   */\n      and\n        /* \"#utility.yul\":15950:15959   */\n      dup2\n        /* \"#utility.yul\":15943:15981   */\n      mstore\n        /* \"#utility.yul\":16017:16020   */\n      0x80\n        /* \"#utility.yul\":16012:16014   */\n      0x20\n        /* \"#utility.yul\":16001:16010   */\n      dup3\n        /* \"#utility.yul\":15997:16015   */\n      add\n        /* \"#utility.yul\":15990:16021   */\n      mstore\n        /* \"#utility.yul\":15924:15928   */\n      0x00\n        /* \"#utility.yul\":16038:16100   */\n      tag_559\n        /* \"#utility.yul\":16095:16098   */\n      0x80\n        /* \"#utility.yul\":16084:16093   */\n      dup4\n        /* \"#utility.yul\":16080:16099   */\n      add\n        /* \"#utility.yul\":16072:16078   */\n      dup7\n        /* \"#utility.yul\":16064:16070   */\n      dup9\n        /* \"#utility.yul\":16038:16100   */\n      tag_423\n      jump\t// in\n    tag_559:\n      sub(shl(0x40, 0x01), 0x01)\n        /* \"#utility.yul\":16136:16167   */\n      swap5\n      swap1\n      swap5\n      and\n        /* \"#utility.yul\":16131:16133   */\n      0x40\n        /* \"#utility.yul\":16116:16134   */\n      dup4\n      add\n        /* \"#utility.yul\":16109:16168   */\n      mstore\n      pop\n        /* \"#utility.yul\":16199:16201   */\n      0x60\n        /* \"#utility.yul\":16184:16202   */\n      add\n        /* \"#utility.yul\":16177:16211   */\n      mstore\n        /* \"#utility.yul\":16030:16100   */\n      swap4\n        /* \"#utility.yul\":15724:16217   */\n      swap3\n      pop\n      pop\n      pop\n      jump\t// out\n        /* \"#utility.yul\":16935:18137   */\n    tag_317:\n      sub(shl(0x40, 0x01), 0x01)\n        /* \"#utility.yul\":17052:17055   */\n      dup4\n        /* \"#utility.yul\":17049:17076   */\n      gt\n        /* \"#utility.yul\":17046:17099   */\n      iszero\n      tag_564\n      jumpi\n        /* \"#utility.yul\":17079:17097   */\n      tag_564\n      tag_399\n      jump\t// in\n    tag_564:\n        /* \"#utility.yul\":17108:17201   */\n      tag_565\n        /* \"#utility.yul\":17197:17200   */\n      dup4\n        /* \"#utility.yul\":17157:17195   */\n      tag_566\n        /* \"#utility.yul\":17189:17193   */\n      dup4\n        /* \"#utility.yul\":17183:17194   */\n      sload\n        /* \"#utility.yul\":17157:17195   */\n      tag_188\n      jump\t// in\n    tag_566:\n        /* \"#utility.yul\":17151:17155   */\n      dup4\n        /* \"#utility.yul\":17108:17201   */\n      tag_421\n      jump\t// in\n    tag_565:\n        /* \"#utility.yul\":17227:17228   */\n      0x00\n        /* \"#utility.yul\":17252:17254   */\n      0x1f\n        /* \"#utility.yul\":17247:17250   */\n      dup5\n        /* \"#utility.yul\":17244:17255   */\n      gt\n        /* \"#utility.yul\":17269:17270   */\n      0x01\n        /* \"#utility.yul\":17264:17879   */\n      dup2\n      eq\n      tag_568\n      jumpi\n        /* \"#utility.yul\":17923:17924   */\n      0x00\n        /* \"#utility.yul\":17940:17943   */\n      dup6\n        /* \"#utility.yul\":17937:18030   */\n      iszero\n      tag_569\n      jumpi\n      pop\n        /* \"#utility.yul\":17996:18015   */\n      dup4\n      dup3\n      add\n        /* \"#utility.yul\":17983:18016   */\n      calldataload\n        /* \"#utility.yul\":17937:18030   */\n    tag_569:\n      not(0x00)\n        /* \"#utility.yul\":11022:11023   */\n      0x03\n        /* \"#utility.yul\":11018:11029   */\n      dup8\n      swap1\n      shl\n        /* \"#utility.yul\":11014:11038   */\n      shr\n        /* \"#utility.yul\":11010:11039   */\n      not\n        /* \"#utility.yul\":11000:11040   */\n      and\n        /* \"#utility.yul\":11046:11047   */\n      0x01\n        /* \"#utility.yul\":11042:11053   */\n      dup7\n      swap1\n      shl\n        /* \"#utility.yul\":10997:11054   */\n      or\n        /* \"#utility.yul\":18043:18121   */\n      dup4\n      sstore\n        /* \"#utility.yul\":17237:18131   */\n      jump(tag_209)\n        /* \"#utility.yul\":17264:17879   */\n    tag_568:\n        /* \"#utility.yul\":10292:10293   */\n      0x00\n        /* \"#utility.yul\":10285:10299   */\n      dup4\n      dup2\n      mstore\n        /* \"#utility.yul\":10329:10333   */\n      0x20\n        /* \"#utility.yul\":10316:10334   */\n      swap1\n      keccak256\n      not(0x1f)\n        /* \"#utility.yul\":17300:17317   */\n      dup7\n      and\n      swap1\n        /* \"#utility.yul\":17400:17409   */\n      dup4\n        /* \"#utility.yul\":17422:17651   */\n    tag_572:\n        /* \"#utility.yul\":17436:17443   */\n      dup3\n        /* \"#utility.yul\":17433:17434   */\n      dup2\n        /* \"#utility.yul\":17430:17444   */\n      lt\n        /* \"#utility.yul\":17422:17651   */\n      iszero\n      tag_574\n      jumpi\n        /* \"#utility.yul\":17525:17544   */\n      dup7\n      dup6\n      add\n        /* \"#utility.yul\":17512:17545   */\n      calldataload\n        /* \"#utility.yul\":17497:17546   */\n      dup3\n      sstore\n        /* \"#utility.yul\":17632:17636   */\n      0x20\n        /* \"#utility.yul\":17617:17637   */\n      swap5\n      dup6\n      add\n      swap5\n        /* \"#utility.yul\":17585:17586   */\n      0x01\n        /* \"#utility.yul\":17573:17587   */\n      swap1\n      swap3\n      add\n      swap2\n        /* \"#utility.yul\":17452:17464   */\n      add\n        /* \"#utility.yul\":17422:17651   */\n      jump(tag_572)\n    tag_574:\n        /* \"#utility.yul\":17426:17429   */\n      pop\n        /* \"#utility.yul\":17679:17682   */\n      dup7\n        /* \"#utility.yul\":17670:17677   */\n      dup3\n        /* \"#utility.yul\":17667:17683   */\n      lt\n        /* \"#utility.yul\":17664:17823   */\n      iszero\n      tag_575\n      jumpi\n        /* \"#utility.yul\":17803:17804   */\n      0x00\n        /* \"#utility.yul\":17799:17805   */\n      not\n        /* \"#utility.yul\":17793:17796   */\n      0xf8\n        /* \"#utility.yul\":17787:17790   */\n      dup9\n        /* \"#utility.yul\":17784:17785   */\n      0x03\n        /* \"#utility.yul\":17780:17791   */\n      shl\n        /* \"#utility.yul\":17776:17797   */\n      and\n        /* \"#utility.yul\":17772:17806   */\n      shr\n        /* \"#utility.yul\":17768:17807   */\n      not\n        /* \"#utility.yul\":17755:17764   */\n      dup5\n        /* \"#utility.yul\":17750:17753   */\n      dup8\n        /* \"#utility.yul\":17746:17765   */\n      add\n        /* \"#utility.yul\":17733:17766   */\n      calldataload\n        /* \"#utility.yul\":17729:17808   */\n      and\n        /* \"#utility.yul\":17721:17727   */\n      dup2\n        /* \"#utility.yul\":17714:17809   */\n      sstore\n        /* \"#utility.yul\":17664:17823   */\n    tag_575:\n      pop\n      pop\n        /* \"#utility.yul\":17866:17867   */\n      0x01\n        /* \"#utility.yul\":17860:17863   */\n      dup6\n        /* \"#utility.yul\":17857:17858   */\n      0x01\n        /* \"#utility.yul\":17853:17864   */\n      shl\n        /* \"#utility.yul\":17849:17868   */\n      add\n        /* \"#utility.yul\":17843:17847   */\n      dup4\n        /* \"#utility.yul\":17836:17869   */\n      sstore\n        /* \"#utility.yul\":17237:18131   */\n      pop\n      pop\n        /* \"#utility.yul\":16935:18137   */\n      pop\n      pop\n      pop\n      jump\t// out\n        /* \"#utility.yul\":18575:18710   */\n    tag_324:\n        /* \"#utility.yul\":18614:18617   */\n      0x00\n        /* \"#utility.yul\":18635:18652   */\n      0x01\n      dup3\n      add\n        /* \"#utility.yul\":18632:18675   */\n      tag_579\n      jumpi\n        /* \"#utility.yul\":18655:18673   */\n      tag_579\n      tag_424\n      jump\t// in\n    tag_579:\n      pop\n        /* \"#utility.yul\":18702:18703   */\n      0x01\n        /* \"#utility.yul\":18691:18704   */\n      add\n      swap1\n        /* \"#utility.yul\":18575:18710   */\n      jump\t// out\n        /* \"#utility.yul\":19864:20511   */\n    tag_344:\n        /* \"#utility.yul\":19943:19949   */\n      0x00\n        /* \"#utility.yul\":19996:19998   */\n      0x20\n        /* \"#utility.yul\":19984:19993   */\n      dup3\n        /* \"#utility.yul\":19975:19982   */\n      dup5\n        /* \"#utility.yul\":19971:19994   */\n      sub\n        /* \"#utility.yul\":19967:19999   */\n      slt\n        /* \"#utility.yul\":19964:20016   */\n      iszero\n      tag_584\n      jumpi\n        /* \"#utility.yul\":20012:20013   */\n      0x00\n        /* \"#utility.yul\":20009:20010   */\n      dup1\n        /* \"#utility.yul\":20002:20014   */\n      revert\n        /* \"#utility.yul\":19964:20016   */\n    tag_584:\n        /* \"#utility.yul\":20045:20054   */\n      dup2\n        /* \"#utility.yul\":20039:20055   */\n      mload\n      sub(shl(0x40, 0x01), 0x01)\n        /* \"#utility.yul\":20070:20076   */\n      dup2\n        /* \"#utility.yul\":20067:20097   */\n      gt\n        /* \"#utility.yul\":20064:20114   */\n      iszero\n      tag_585\n      jumpi\n        /* \"#utility.yul\":20110:20111   */\n      0x00\n        /* \"#utility.yul\":20107:20108   */\n      dup1\n        /* \"#utility.yul\":20100:20112   */\n      revert\n        /* \"#utility.yul\":20064:20114   */\n    tag_585:\n        /* \"#utility.yul\":20133:20155   */\n      dup3\n      add\n        /* \"#utility.yul\":20186:20190   */\n      0x1f\n        /* \"#utility.yul\":20178:20191   */\n      dup2\n      add\n        /* \"#utility.yul\":20174:20201   */\n      dup5\n      sgt\n        /* \"#utility.yul\":20164:20219   */\n      tag_586\n      jumpi\n        /* \"#utility.yul\":20215:20216   */\n      0x00\n        /* \"#utility.yul\":20212:20213   */\n      dup1\n        /* \"#utility.yul\":20205:20217   */\n      revert\n        /* \"#utility.yul\":20164:20219   */\n    tag_586:\n        /* \"#utility.yul\":20244:20246   */\n      dup1\n        /* \"#utility.yul\":20238:20247   */\n      mload\n        /* \"#utility.yul\":20269:20317   */\n      tag_587\n        /* \"#utility.yul\":20285:20316   */\n      tag_475\n        /* \"#utility.yul\":20313:20315   */\n      dup3\n        /* \"#utility.yul\":20285:20316   */\n      tag_417\n      jump\t// in\n        /* \"#utility.yul\":20269:20317   */\n    tag_587:\n        /* \"#utility.yul\":20340:20342   */\n      dup2\n        /* \"#utility.yul\":20333:20338   */\n      dup2\n        /* \"#utility.yul\":20326:20343   */\n      mstore\n        /* \"#utility.yul\":20380:20387   */\n      dup6\n        /* \"#utility.yul\":20375:20377   */\n      0x20\n        /* \"#utility.yul\":20370:20372   */\n      dup4\n        /* \"#utility.yul\":20366:20368   */\n      dup6\n        /* \"#utility.yul\":20362:20373   */\n      add\n        /* \"#utility.yul\":20358:20378   */\n      add\n        /* \"#utility.yul\":20355:20388   */\n      gt\n        /* \"#utility.yul\":20352:20405   */\n      iszero\n      tag_589\n      jumpi\n        /* \"#utility.yul\":20401:20402   */\n      0x00\n        /* \"#utility.yul\":20398:20399   */\n      dup1\n        /* \"#utility.yul\":20391:20403   */\n      revert\n        /* \"#utility.yul\":20352:20405   */\n    tag_589:\n        /* \"#utility.yul\":20414:20481   */\n      tag_343\n        /* \"#utility.yul\":20478:20480   */\n      dup3\n        /* \"#utility.yul\":20473:20475   */\n      0x20\n        /* \"#utility.yul\":20466:20471   */\n      dup4\n        /* \"#utility.yul\":20462:20476   */\n      add\n        /* \"#utility.yul\":20457:20459   */\n      0x20\n        /* \"#utility.yul\":20453:20455   */\n      dup7\n        /* \"#utility.yul\":20449:20460   */\n      add\n        /* \"#utility.yul\":20414:20481   */\n      tag_418\n      jump\t// in\n        /* \"#utility.yul\":20516:21071   */\n    tag_349:\n        /* \"#utility.yul\":20773:20779   */\n      0xffff\n        /* \"#utility.yul\":20765:20771   */\n      dup6\n        /* \"#utility.yul\":20761:20780   */\n      and\n        /* \"#utility.yul\":20750:20759   */\n      dup2\n        /* \"#utility.yul\":20743:20781   */\n      mstore\n        /* \"#utility.yul\":20817:20820   */\n      0x80\n        /* \"#utility.yul\":20812:20814   */\n      0x20\n        /* \"#utility.yul\":20801:20810   */\n      dup3\n        /* \"#utility.yul\":20797:20815   */\n      add\n        /* \"#utility.yul\":20790:20821   */\n      mstore\n        /* \"#utility.yul\":20724:20728   */\n      0x00\n        /* \"#utility.yul\":20844:20889   */\n      tag_592\n        /* \"#utility.yul\":20884:20887   */\n      0x80\n        /* \"#utility.yul\":20873:20882   */\n      dup4\n        /* \"#utility.yul\":20869:20888   */\n      add\n        /* \"#utility.yul\":20861:20867   */\n      dup7\n        /* \"#utility.yul\":20844:20889   */\n      tag_419\n      jump\t// in\n    tag_592:\n      sub(shl(0x40, 0x01), 0x01)\n        /* \"#utility.yul\":20929:20935   */\n      dup6\n        /* \"#utility.yul\":20925:20956   */\n      and\n        /* \"#utility.yul\":20920:20922   */\n      0x40\n        /* \"#utility.yul\":20909:20918   */\n      dup5\n        /* \"#utility.yul\":20905:20923   */\n      add\n        /* \"#utility.yul\":20898:20957   */\n      mstore\n        /* \"#utility.yul\":21005:21014   */\n      dup3\n        /* \"#utility.yul\":20997:21003   */\n      dup2\n        /* \"#utility.yul\":20993:21015   */\n      sub\n        /* \"#utility.yul\":20988:20990   */\n      0x60\n        /* \"#utility.yul\":20977:20986   */\n      dup5\n        /* \"#utility.yul\":20973:20991   */\n      add\n        /* \"#utility.yul\":20966:21016   */\n      mstore\n        /* \"#utility.yul\":21033:21065   */\n      tag_555\n        /* \"#utility.yul\":21058:21064   */\n      dup2\n        /* \"#utility.yul\":21050:21056   */\n      dup6\n        /* \"#utility.yul\":21033:21065   */\n      tag_419\n      jump\t// in\n        /* \"#utility.yul\":21437:21621   */\n    tag_362:\n        /* \"#utility.yul\":21507:21513   */\n      0x00\n        /* \"#utility.yul\":21560:21562   */\n      0x20\n        /* \"#utility.yul\":21548:21557   */\n      dup3\n        /* \"#utility.yul\":21539:21546   */\n      dup5\n        /* \"#utility.yul\":21535:21558   */\n      sub\n        /* \"#utility.yul\":21531:21563   */\n      slt\n        /* \"#utility.yul\":21528:21580   */\n      iszero\n      tag_596\n      jumpi\n        /* \"#utility.yul\":21576:21577   */\n      0x00\n        /* \"#utility.yul\":21573:21574   */\n      dup1\n        /* \"#utility.yul\":21566:21578   */\n      revert\n        /* \"#utility.yul\":21528:21580   */\n    tag_596:\n      pop\n        /* \"#utility.yul\":21599:21615   */\n      mload\n      swap2\n        /* \"#utility.yul\":21437:21621   */\n      swap1\n      pop\n      jump\t// out\n        /* \"#utility.yul\":21626:21751   */\n    tag_367:\n        /* \"#utility.yul\":21691:21700   */\n      dup1\n      dup3\n      add\n        /* \"#utility.yul\":21712:21722   */\n      dup1\n      dup3\n      gt\n        /* \"#utility.yul\":21709:21745   */\n      iszero\n      tag_552\n      jumpi\n        /* \"#utility.yul\":21725:21743   */\n      tag_552\n      tag_424\n      jump\t// in\n        /* \"#utility.yul\":22862:23699   */\n    tag_392:\n        /* \"#utility.yul\":23211:23217   */\n      0xffff\n        /* \"#utility.yul\":23203:23209   */\n      dup8\n        /* \"#utility.yul\":23199:23218   */\n      and\n        /* \"#utility.yul\":23188:23197   */\n      dup2\n        /* \"#utility.yul\":23181:23219   */\n      mstore\n        /* \"#utility.yul\":23255:23258   */\n      0xc0\n        /* \"#utility.yul\":23250:23252   */\n      0x20\n        /* \"#utility.yul\":23239:23248   */\n      dup3\n        /* \"#utility.yul\":23235:23253   */\n      add\n        /* \"#utility.yul\":23228:23259   */\n      mstore\n        /* \"#utility.yul\":23162:23166   */\n      0x00\n        /* \"#utility.yul\":23282:23327   */\n      tag_604\n        /* \"#utility.yul\":23322:23325   */\n      0xc0\n        /* \"#utility.yul\":23311:23320   */\n      dup4\n        /* \"#utility.yul\":23307:23326   */\n      add\n        /* \"#utility.yul\":23299:23305   */\n      dup9\n        /* \"#utility.yul\":23282:23327   */\n      tag_419\n      jump\t// in\n    tag_604:\n        /* \"#utility.yul\":23375:23384   */\n      dup3\n        /* \"#utility.yul\":23367:23373   */\n      dup2\n        /* \"#utility.yul\":23363:23385   */\n      sub\n        /* \"#utility.yul\":23358:23360   */\n      0x40\n        /* \"#utility.yul\":23347:23356   */\n      dup5\n        /* \"#utility.yul\":23343:23361   */\n      add\n        /* \"#utility.yul\":23336:23386   */\n      mstore\n        /* \"#utility.yul\":23409:23441   */\n      tag_605\n        /* \"#utility.yul\":23434:23440   */\n      dup2\n        /* \"#utility.yul\":23426:23432   */\n      dup9\n        /* \"#utility.yul\":23409:23441   */\n      tag_419\n      jump\t// in\n    tag_605:\n      sub(shl(0xa0, 0x01), 0x01)\n        /* \"#utility.yul\":23515:23530   */\n      dup8\n      dup2\n      and\n        /* \"#utility.yul\":23510:23512   */\n      0x60\n        /* \"#utility.yul\":23495:23513   */\n      dup7\n      add\n        /* \"#utility.yul\":23488:23531   */\n      mstore\n        /* \"#utility.yul\":23568:23583   */\n      dup7\n      and\n        /* \"#utility.yul\":23562:23565   */\n      0x80\n        /* \"#utility.yul\":23547:23566   */\n      dup6\n      add\n        /* \"#utility.yul\":23540:23584   */\n      mstore\n        /* \"#utility.yul\":23621:23643   */\n      dup4\n      dup2\n      sub\n        /* \"#utility.yul\":23468:23471   */\n      0xa0\n        /* \"#utility.yul\":23600:23619   */\n      dup6\n      add\n        /* \"#utility.yul\":23593:23644   */\n      mstore\n        /* \"#utility.yul\":23395:23441   */\n      swap1\n      pop\n        /* \"#utility.yul\":23661:23693   */\n      tag_606\n        /* \"#utility.yul\":23395:23441   */\n      dup2\n        /* \"#utility.yul\":23678:23684   */\n      dup6\n        /* \"#utility.yul\":23661:23693   */\n      tag_419\n      jump\t// in\n    tag_606:\n        /* \"#utility.yul\":23653:23693   */\n      swap10\n        /* \"#utility.yul\":22862:23699   */\n      swap9\n      pop\n      pop\n      pop\n      pop\n      pop\n      pop\n      pop\n      pop\n      pop\n      jump\t// out\n        /* \"#utility.yul\":23704:23991   */\n    tag_404:\n        /* \"#utility.yul\":23833:23836   */\n      0x00\n        /* \"#utility.yul\":23871:23877   */\n      dup3\n        /* \"#utility.yul\":23865:23878   */\n      mload\n        /* \"#utility.yul\":23887:23953   */\n      tag_608\n        /* \"#utility.yul\":23946:23952   */\n      dup2\n        /* \"#utility.yul\":23941:23944   */\n      dup5\n        /* \"#utility.yul\":23934:23938   */\n      0x20\n        /* \"#utility.yul\":23926:23932   */\n      dup8\n        /* \"#utility.yul\":23922:23939   */\n      add\n        /* \"#utility.yul\":23887:23953   */\n      tag_418\n      jump\t// in\n    tag_608:\n        /* \"#utility.yul\":23969:23985   */\n      swap2\n      swap1\n      swap2\n      add\n      swap3\n        /* \"#utility.yul\":23704:23991   */\n      swap2\n      pop\n      pop\n      jump\t// out\n        /* \"#utility.yul\":23996:24712   */\n    tag_406:\n        /* \"#utility.yul\":24299:24305   */\n      0xffff\n        /* \"#utility.yul\":24291:24297   */\n      dup7\n        /* \"#utility.yul\":24287:24306   */\n      and\n        /* \"#utility.yul\":24276:24285   */\n      dup2\n        /* \"#utility.yul\":24269:24307   */\n      mstore\n        /* \"#utility.yul\":24343:24346   */\n      0xa0\n        /* \"#utility.yul\":24338:24340   */\n      0x20\n        /* \"#utility.yul\":24327:24336   */\n      dup3\n        /* \"#utility.yul\":24323:24341   */\n      add\n        /* \"#utility.yul\":24316:24347   */\n      mstore\n        /* \"#utility.yul\":24250:24254   */\n      0x00\n        /* \"#utility.yul\":24370:24415   */\n      tag_610\n        /* \"#utility.yul\":24410:24413   */\n      0xa0\n        /* \"#utility.yul\":24399:24408   */\n      dup4\n        /* \"#utility.yul\":24395:24414   */\n      add\n        /* \"#utility.yul\":24387:24393   */\n      dup8\n        /* \"#utility.yul\":24370:24415   */\n      tag_419\n      jump\t// in\n    tag_610:\n      sub(shl(0x40, 0x01), 0x01)\n        /* \"#utility.yul\":24455:24461   */\n      dup7\n        /* \"#utility.yul\":24451:24482   */\n      and\n        /* \"#utility.yul\":24446:24448   */\n      0x40\n        /* \"#utility.yul\":24435:24444   */\n      dup5\n        /* \"#utility.yul\":24431:24449   */\n      add\n        /* \"#utility.yul\":24424:24483   */\n      mstore\n        /* \"#utility.yul\":24531:24540   */\n      dup3\n        /* \"#utility.yul\":24523:24529   */\n      dup2\n        /* \"#utility.yul\":24519:24541   */\n      sub\n        /* \"#utility.yul\":24514:24516   */\n      0x60\n        /* \"#utility.yul\":24503:24512   */\n      dup5\n        /* \"#utility.yul\":24499:24517   */\n      add\n        /* \"#utility.yul\":24492:24542   */\n      mstore\n        /* \"#utility.yul\":24565:24597   */\n      tag_611\n        /* \"#utility.yul\":24590:24596   */\n      dup2\n        /* \"#utility.yul\":24582:24588   */\n      dup7\n        /* \"#utility.yul\":24565:24597   */\n      tag_419\n      jump\t// in\n    tag_611:\n        /* \"#utility.yul\":24551:24597   */\n      swap1\n      pop\n        /* \"#utility.yul\":24646:24655   */\n      dup3\n        /* \"#utility.yul\":24638:24644   */\n      dup2\n        /* \"#utility.yul\":24634:24656   */\n      sub\n        /* \"#utility.yul\":24628:24631   */\n      0x80\n        /* \"#utility.yul\":24617:24626   */\n      dup5\n        /* \"#utility.yul\":24613:24632   */\n      add\n        /* \"#utility.yul\":24606:24657   */\n      mstore\n        /* \"#utility.yul\":24674:24706   */\n      tag_612\n        /* \"#utility.yul\":24699:24705   */\n      dup2\n        /* \"#utility.yul\":24691:24697   */\n      dup6\n        /* \"#utility.yul\":24674:24706   */\n      tag_419\n      jump\t// in\n    tag_612:\n        /* \"#utility.yul\":24666:24706   */\n      swap9\n        /* \"#utility.yul\":23996:24712   */\n      swap8\n      pop\n      pop\n      pop\n      pop\n      pop\n      pop\n      pop\n      pop\n      jump\t// out\n\n    auxdata: 0xa2646970667358221220e7fb53756fe8abf3decd4851dd3de235504bb75909605a9cd20228162ebeb9e064736f6c63430008120033\n}\n",
				"bytecode": {
					"linkReferences": {},
					"object": "60a06040523480156200001157600080fd5b506040516200256c3803806200256c8339810160408190526200003491620000bb565b818062000041336200006b565b6001600160a01b0316608052506006805461ffff191661ffff92909216919091179055506200010b565b600080546001600160a01b038381166001600160a01b0319831681178455604051919092169283917f8be0079c531659141344cd1fd0a4f28419497f9722a3daafe3b4186f6b6457e09190a35050565b60008060408385031215620000cf57600080fd5b82516001600160a01b0381168114620000e757600080fd5b602084015190925061ffff811681146200010057600080fd5b809150509250929050565b60805161241462000158600039600081816104be01528181610615015281816108640152818161090c01528181610abd01528181610ec801528181611421015261182401526124146000f3fe6080604052600436106101c55760003560e01c80638da5cb5b116100f7578063cbed8b9c11610095578063eb8d72b711610064578063eb8d72b71461059f578063f2d566fc146105bf578063f2fde38b146105d2578063f5ecbdbc146105f257600080fd5b8063cbed8b9c14610516578063cfe27eba14610536578063d1deba1f1461056c578063df2a5b3b1461057f57600080fd5b8063a6c3d165116100d1578063a6c3d1651461048c578063b353aaa7146104ac578063baf3292d146104e0578063c44618341461050057600080fd5b80638da5cb5b1461041a578063950c8a741461044c5780639f38369a1461046c57600080fd5b80633f1f4fa41161016457806366ad5c8a1161013e57806366ad5c8a14610380578063715018a6146103a05780637533d788146103b55780638cfd8f5c146103e257600080fd5b80633f1f4fa4146102d657806342d65a8d146103115780635b8c41e61461033157600080fd5b806310ddb137116101a057806310ddb137146102335780633057c9be1461025357806330ff44b6146102735780633d8b38f6146102a657600080fd5b80621d3567146101d157806307e0db17146101f35780630df374831461021357600080fd5b366101cc57005b600080fd5b3480156101dd57600080fd5b506101f16101ec366004611ab3565b610612565b005b3480156101ff57600080fd5b506101f161020e366004611b46565b610843565b34801561021f57600080fd5b506101f161022e366004611b61565b6108cc565b34801561023f57600080fd5b506101f161024e366004611b46565b6108eb565b34801561025f57600080fd5b506101f161026e366004611ba2565b610943565b34801561027f57600080fd5b5060065461028e9061ffff1681565b60405161ffff90911681526020015b60405180910390f35b3480156102b257600080fd5b506102c66102c1366004611bd5565b6109d2565b604051901515815260200161029d565b3480156102e257600080fd5b506103036102f1366004611b46565b60036020526000908152604090205481565b60405190815260200161029d565b34801561031d57600080fd5b506101f161032c366004611bd5565b610a9e565b34801561033d57600080fd5b5061030361034c366004611c94565b6005602090815260009384526040808520845180860184018051928152908401958401959095209452929052825290205481565b34801561038c57600080fd5b506101f161039b366004611ab3565b610b24565b3480156103ac57600080fd5b506101f1610c00565b3480156103c157600080fd5b506103d56103d0366004611b46565b610c14565b60405161029d9190611d84565b3480156103ee57600080fd5b506103036103fd366004611d97565b600260209081526000928352604080842090915290825290205481565b34801561042657600080fd5b506000546001600160a01b03165b6040516001600160a01b03909116815260200161029d565b34801561045857600080fd5b50600454610434906001600160a01b031681565b34801561047857600080fd5b506103d5610487366004611b46565b610cae565b34801561049857600080fd5b506101f16104a7366004611bd5565b610dc4565b3480156104b857600080fd5b506104347f000000000000000000000000000000000000000000000000000000000000000081565b3480156104ec57600080fd5b506101f16104fb366004611db3565b610e4d565b34801561050c57600080fd5b5061030361271081565b34801561052257600080fd5b506101f1610531366004611dce565b610ea9565b34801561054257600080fd5b50610434610551366004611b46565b6007602052600090815260409020546001600160a01b031681565b6101f161057a366004611ab3565b610f3e565b34801561058b57600080fd5b506101f161059a366004611e3c565b611154565b3480156105ab57600080fd5b506101f16105ba366004611bd5565b611206565b6101f16105cd366004611e78565b611260565b3480156105de57600080fd5b506101f16105ed366004611db3565b611377565b3480156105fe57600080fd5b506103d561060d366004611ea4565b6113f0565b337f00000000000000000000000000000000000000000000000000000000000000006001600160a01b03161461068f5760405162461bcd60e51b815260206004820152601e60248201527f4c7a4170703a20696e76616c696420656e64706f696e742063616c6c6572000060448201526064015b60405180910390fd5b61ffff8616600090815260016020526040812080546106ad90611eef565b80601f01602080910402602001604051908101604052809291908181526020018280546106d990611eef565b80156107265780601f106106fb57610100808354040283529160200191610726565b820191906000526020600020905b81548152906001019060200180831161070957829003601f168201915b50505050509050805186869050148015610741575060008151115b801561076957508051602082012060405161075f9088908890611f29565b6040518091039020145b6107c45760405162461bcd60e51b815260206004820152602660248201527f4c7a4170703a20696e76616c696420736f757263652073656e64696e6720636f6044820152651b9d1c9858dd60d21b6064820152608401610686565b61083a8787878080601f01602080910402602001604051908101604052809392919081815260200183838082843760009201919091525050604080516020601f8a018190048102820181019092528881528a9350915088908890819084018382808284376000920191909152506114a192505050565b50505050505050565b61084b61151a565b6040516307e0db1760e01b815261ffff821660048201527f00000000000000000000000000000000000000000000000000000000000000006001600160a01b0316906307e0db17906024015b600060405180830381600087803b1580156108b157600080fd5b505af11580156108c5573d6000803e3d6000fd5b5050505050565b6108d461151a565b61ffff909116600090815260036020526040902055565b6108f361151a565b6040516310ddb13760e01b815261ffff821660048201527f00000000000000000000000000000000000000000000000000000000000000006001600160a01b0316906310ddb13790602401610897565b61094b61151a565b6040516bffffffffffffffffffffffff19606084811b8216602084015230901b16603482015260480160408051601f1981840301815291815261ffff831660009081526001602052209061099f9082611f7f565b5061ffff16600090815260076020526040902080546001600160a01b0319166001600160a01b0392909216919091179055565b61ffff8316600090815260016020526040812080548291906109f390611eef565b80601f0160208091040260200160405190810160405280929190818152602001828054610a1f90611eef565b8015610a6c5780601f10610a4157610100808354040283529160200191610a6c565b820191906000526020600020905b815481529060010190602001808311610a4f57829003601f168201915b505050505090508383604051610a83929190611f29565b60405180910390208180519060200120149150509392505050565b610aa661151a565b6040516342d65a8d60e01b81526001600160a01b037f000000000000000000000000000000000000000000000000000000000000000016906342d65a8d90610af690869086908690600401612067565b600060405180830381600087803b158015610b1057600080fd5b505af115801561083a573d6000803e3d6000fd5b333014610b825760405162461bcd60e51b815260206004820152602660248201527f4e6f6e626c6f636b696e674c7a4170703a2063616c6c6572206d7573742062656044820152650204c7a4170760d41b6064820152608401610686565b610bf88686868080601f01602080910402602001604051908101604052809392919081815260200183838082843760009201919091525050604080516020601f89018190048102820181019092528781528993509150879087908190840183828082843760009201919091525061157492505050565b505050505050565b610c0861151a565b610c12600061159e565b565b60016020526000908152604090208054610c2d90611eef565b80601f0160208091040260200160405190810160405280929190818152602001828054610c5990611eef565b8015610ca65780601f10610c7b57610100808354040283529160200191610ca6565b820191906000526020600020905b815481529060010190602001808311610c8957829003601f168201915b505050505081565b61ffff8116600090815260016020526040812080546060929190610cd190611eef565b80601f0160208091040260200160405190810160405280929190818152602001828054610cfd90611eef565b8015610d4a5780601f10610d1f57610100808354040283529160200191610d4a565b820191906000526020600020905b815481529060010190602001808311610d2d57829003601f168201915b505050505090508051600003610da25760405162461bcd60e51b815260206004820152601d60248201527f4c7a4170703a206e6f20747275737465642070617468207265636f72640000006044820152606401610686565b610dbd600060148351610db5919061209b565b8391906115ee565b9392505050565b610dcc61151a565b818130604051602001610de1939291906120b4565b60408051601f1981840301815291815261ffff8516600090815260016020522090610e0c9082611f7f565b507f8c0400cfe2d1199b1a725c78960bcc2a344d869b80590d0f2bd005db15a572ce838383604051610e4093929190612067565b60405180910390a1505050565b610e5561151a565b600480546001600160a01b0319166001600160a01b0383169081179091556040519081527f5db758e995a17ec1ad84bdef7e8c3293a0bd6179bcce400dff5d4c3d87db726b9060200160405180910390a150565b610eb161151a565b6040516332fb62e760e21b81526001600160a01b037f0000000000000000000000000000000000000000000000000000000000000000169063cbed8b9c90610f0590889088908890889088906004016120da565b600060405180830381600087803b158015610f1f57600080fd5b505af1158015610f33573d6000803e3d6000fd5b505050505050505050565b61ffff86166000908152600560205260408082209051610f619088908890611f29565b90815260408051602092819003830190206001600160401b03871660009081529252902054905080610fe15760405162461bcd60e51b815260206004820152602360248201527f4e6f6e626c6f636b696e674c7a4170703a206e6f2073746f726564206d65737360448201526261676560e81b6064820152608401610686565b808383604051610ff2929190611f29565b6040518091039020146110515760405162461bcd60e51b815260206004820152602160248201527f4e6f6e626c6f636b696e674c7a4170703a20696e76616c6964207061796c6f616044820152601960fa1b6064820152608401610686565b61ffff871660009081526005602052604080822090516110749089908990611f29565b90815260408051602092819003830181206001600160401b038916600090815290845282902093909355601f8801829004820283018201905286825261110c918991899089908190840183828082843760009201919091525050604080516020601f8a018190048102820181019092528881528a93509150889088908190840183828082843760009201919091525061157492505050565b7fc264d91f3adc5588250e1551f547752ca0cfa8f6b530d243b9f9f4cab10ea8e58787878785604051611143959493929190612113565b60405180910390a150505050505050565b61115c61151a565b600081116111a45760405162461bcd60e51b81526020600482015260156024820152744c7a4170703a20696e76616c6964206d696e47617360581b6044820152606401610686565b61ffff83811660008181526002602090815260408083209487168084529482529182902085905581519283528201929092529081018290527f9d5c7c0b934da8fefa9c7760c98383778a12dfbfc0c3b3106518f43fb9508ac090606001610e40565b61120e61151a565b61ffff8316600090815260016020526040902061122c82848361214e565b507ffa41487ad5d6728f0b19276fa1eddc16558578f5109fc39d2dc33c3230470dab838383604051610e4093929190612067565b600047116112d8576040805162461bcd60e51b81526020600482015260248101919091527f7468652062616c616e6365206f66207468697320636f6e74726163742069732060448201527f302e20706c732073656e642067617320666f72206d65737361676520666565736064820152608401610686565b7f48257dc961b6f792c2b78a080dacfed693b660960a702de21cee364e20270e2f6113028261220d565b60405181815290925060200160405180910390a160008160405160200161132b91815260200190565b60408051601f19818403018152828252600160f01b6020840152620557306022808501829052835180860390910181526042909401909252925060019161083a878530600085346116fb565b61137f61151a565b6001600160a01b0381166113e45760405162461bcd60e51b815260206004820152602660248201527f4f776e61626c653a206e6577206f776e657220697320746865207a65726f206160448201526564647265737360d01b6064820152608401610686565b6113ed8161159e565b50565b604051633d7b2f6f60e21b815261ffff808616600483015284166024820152306044820152606481018290526060907f00000000000000000000000000000000000000000000000000000000000000006001600160a01b03169063f5ecbdbc90608401600060405180830381865afa158015611470573d6000803e3d6000fd5b505050506040513d6000823e601f3d908101601f191682016040526114989190810190612226565b95945050505050565b6000806115045a60966366ad5c8a60e01b898989896040516024016114c99493929190612293565b60408051601f198184030181529190526020810180516001600160e01b03166001600160e01b031990931692909217909152309291906118a0565b9150915081610bf857610bf8868686868561192a565b6000546001600160a01b03163314610c125760405162461bcd60e51b815260206004820181905260248201527f4f776e61626c653a2063616c6c6572206973206e6f7420746865206f776e65726044820152606401610686565b6014830151815160009061159190840160209081019085016122d1565b9050610bf8868383611260565b600080546001600160a01b038381166001600160a01b0319831681178455604051919092169283917f8be0079c531659141344cd1fd0a4f28419497f9722a3daafe3b4186f6b6457e09190a35050565b6060816115fc81601f6122ea565b101561163b5760405162461bcd60e51b815260206004820152600e60248201526d736c6963655f6f766572666c6f7760901b6044820152606401610686565b61164582846122ea565b845110156116895760405162461bcd60e51b8152602060048201526011602482015270736c6963655f6f75744f66426f756e647360781b6044820152606401610686565b6060821580156116a857604051915060008252602082016040526116f2565b6040519150601f8416801560200281840101858101878315602002848b0101015b818310156116e15780518352602092830192016116c9565b5050858452601f01601f1916604052505b50949350505050565b61ffff86166000908152600160205260408120805461171990611eef565b80601f016020809104026020016040519081016040528092919081815260200182805461174590611eef565b80156117925780601f1061176757610100808354040283529160200191611792565b820191906000526020600020905b81548152906001019060200180831161177557829003601f168201915b5050505050905080516000036118035760405162461bcd60e51b815260206004820152603060248201527f4c7a4170703a2064657374696e6174696f6e20636861696e206973206e6f742060448201526f61207472757374656420736f7572636560801b6064820152608401610686565b61180e8787516119c7565b60405162c5803160e81b81526001600160a01b037f0000000000000000000000000000000000000000000000000000000000000000169063c5803100908490611865908b9086908c908c908c908c906004016122fd565b6000604051808303818588803b15801561187e57600080fd5b505af1158015611892573d6000803e3d6000fd5b505050505050505050505050565b6000606060008060008661ffff166001600160401b038111156118c5576118c5611c27565b6040519080825280601f01601f1916602001820160405280156118ef576020820181803683370190505b50905060008087516020890160008d8df191503d925086831115611911578692505b828152826000602083013e909890975095505050505050565b8180519060200120600560008761ffff1661ffff1681526020019081526020016000208560405161195b9190612364565b9081526040805191829003602090810183206001600160401b0388166000908152915220919091557fe183f33de2837795525b4792ca4cd60535bd77c53b7e7030060bfcf5734d6b0c906119b89087908790879087908790612380565b60405180910390a15050505050565b61ffff8216600090815260036020526040812054908190036119e857506127105b80821115611a385760405162461bcd60e51b815260206004820181905260248201527f4c7a4170703a207061796c6f61642073697a6520697320746f6f206c617267656044820152606401610686565b505050565b803561ffff81168114611a4f57600080fd5b919050565b60008083601f840112611a6657600080fd5b5081356001600160401b03811115611a7d57600080fd5b602083019150836020828501011115611a9557600080fd5b9250929050565b80356001600160401b0381168114611a4f57600080fd5b60008060008060008060808789031215611acc57600080fd5b611ad587611a3d565b955060208701356001600160401b0380821115611af157600080fd5b611afd8a838b01611a54565b9097509550859150611b1160408a01611a9c565b94506060890135915080821115611b2757600080fd5b50611b3489828a01611a54565b979a9699509497509295939492505050565b600060208284031215611b5857600080fd5b610dbd82611a3d565b60008060408385031215611b7457600080fd5b611b7d83611a3d565b946020939093013593505050565b80356001600160a01b0381168114611a4f57600080fd5b60008060408385031215611bb557600080fd5b611bbe83611b8b565b9150611bcc60208401611a3d565b90509250929050565b600080600060408486031215611bea57600080fd5b611bf384611a3d565b925060208401356001600160401b03811115611c0e57600080fd5b611c1a86828701611a54565b9497909650939450505050565b634e487b7160e01b600052604160045260246000fd5b604051601f8201601f191681016001600160401b0381118282101715611c6557611c65611c27565b604052919050565b60006001600160401b03821115611c8657611c86611c27565b50601f01601f191660200190565b600080600060608486031215611ca957600080fd5b611cb284611a3d565b925060208401356001600160401b03811115611ccd57600080fd5b8401601f81018613611cde57600080fd5b8035611cf1611cec82611c6d565b611c3d565b818152876020838501011115611d0657600080fd5b81602084016020830137600060208383010152809450505050611d2b60408501611a9c565b90509250925092565b60005b83811015611d4f578181015183820152602001611d37565b50506000910152565b60008151808452611d70816020860160208601611d34565b601f01601f19169290920160200192915050565b602081526000610dbd6020830184611d58565b60008060408385031215611daa57600080fd5b611bbe83611a3d565b600060208284031215611dc557600080fd5b610dbd82611b8b565b600080600080600060808688031215611de657600080fd5b611def86611a3d565b9450611dfd60208701611a3d565b93506040860135925060608601356001600160401b03811115611e1f57600080fd5b611e2b88828901611a54565b969995985093965092949392505050565b600080600060608486031215611e5157600080fd5b611e5a84611a3d565b9250611e6860208501611a3d565b9150604084013590509250925092565b600080600060608486031215611e8d57600080fd5b611e9684611a3d565b9250611e6860208501611b8b565b60008060008060808587031215611eba57600080fd5b611ec385611a3d565b9350611ed160208601611a3d565b9250611edf60408601611b8b565b9396929550929360600135925050565b600181811c90821680611f0357607f821691505b602082108103611f2357634e487b7160e01b600052602260045260246000fd5b50919050565b8183823760009101908152919050565b601f821115611a3857600081815260208120601f850160051c81016020861015611f605750805b601f850160051c820191505b81811015610bf857828155600101611f6c565b81516001600160401b03811115611f9857611f98611c27565b611fac81611fa68454611eef565b84611f39565b602080601f831160018114611fe15760008415611fc95750858301515b600019600386901b1c1916600185901b178555610bf8565b600085815260208120601f198616915b8281101561201057888601518255948401946001909101908401611ff1565b508582101561202e5787850151600019600388901b60f8161c191681555b5050505050600190811b01905550565b81835281816020850137506000828201602090810191909152601f909101601f19169091010190565b61ffff8416815260406020820152600061149860408301848661203e565b634e487b7160e01b600052601160045260246000fd5b818103818111156120ae576120ae612085565b92915050565b8284823760609190911b6bffffffffffffffffffffffff19169101908152601401919050565b600061ffff80881683528087166020840152508460408301526080606083015261210860808301848661203e565b979650505050505050565b61ffff8616815260806020820152600061213160808301868861203e565b6001600160401b0394909416604083015250606001529392505050565b6001600160401b0383111561216557612165611c27565b612179836121738354611eef565b83611f39565b6000601f8411600181146121ad57600085156121955750838201355b600019600387901b1c1916600186901b1783556108c5565b600083815260209020601f19861690835b828110156121de57868501358255602094850194600190920191016121be565b50868210156121fb5760001960f88860031b161c19848701351681555b505060018560011b0183555050505050565b60006001820161221f5761221f612085565b5060010190565b60006020828403121561223857600080fd5b81516001600160401b0381111561224e57600080fd5b8201601f8101841361225f57600080fd5b805161226d611cec82611c6d565b81815285602083850101111561228257600080fd5b611498826020830160208601611d34565b61ffff851681526080602082015260006122b06080830186611d58565b6001600160401b038516604084015282810360608401526121088185611d58565b6000602082840312156122e357600080fd5b5051919050565b808201808211156120ae576120ae612085565b61ffff8716815260c06020820152600061231a60c0830188611d58565b828103604084015261232c8188611d58565b6001600160a01b0387811660608601528616608085015283810360a085015290506123578185611d58565b9998505050505050505050565b60008251612376818460208701611d34565b9190910192915050565b61ffff8616815260a06020820152600061239d60a0830187611d58565b6001600160401b038616604084015282810360608401526123be8186611d58565b905082810360808401526123d28185611d58565b9897505050505050505056fea2646970667358221220e7fb53756fe8abf3decd4851dd3de235504bb75909605a9cd20228162ebeb9e064736f6c63430008120033",
					"opcodes": "PUSH1 0xA0 PUSH1 0x40 MSTORE CALLVALUE DUP1 ISZERO PUSH3 0x11 JUMPI PUSH1 0x0 DUP1 REVERT JUMPDEST POP PUSH1 0x40 MLOAD PUSH3 0x256C CODESIZE SUB DUP1 PUSH3 0x256C DUP4 CODECOPY DUP2 ADD PUSH1 0x40 DUP2 SWAP1 MSTORE PUSH3 0x34 SWAP2 PUSH3 0xBB JUMP JUMPDEST DUP2 DUP1 PUSH3 0x41 CALLER PUSH3 0x6B JUMP JUMPDEST PUSH1 0x1 PUSH1 0x1 PUSH1 0xA0 SHL SUB AND PUSH1 0x80 MSTORE POP PUSH1 0x6 DUP1 SLOAD PUSH2 0xFFFF NOT AND PUSH2 0xFFFF SWAP3 SWAP1 SWAP3 AND SWAP2 SWAP1 SWAP2 OR SWAP1 SSTORE POP PUSH3 0x10B JUMP JUMPDEST PUSH1 0x0 DUP1 SLOAD PUSH1 0x1 PUSH1 0x1 PUSH1 0xA0 SHL SUB DUP4 DUP2 AND PUSH1 0x1 PUSH1 0x1 PUSH1 0xA0 SHL SUB NOT DUP4 AND DUP2 OR DUP5 SSTORE PUSH1 0x40 MLOAD SWAP2 SWAP1 SWAP3 AND SWAP3 DUP4 SWAP2 PUSH32 0x8BE0079C531659141344CD1FD0A4F28419497F9722A3DAAFE3B4186F6B6457E0 SWAP2 SWAP1 LOG3 POP POP JUMP JUMPDEST PUSH1 0x0 DUP1 PUSH1 0x40 DUP4 DUP6 SUB SLT ISZERO PUSH3 0xCF JUMPI PUSH1 0x0 DUP1 REVERT JUMPDEST DUP3 MLOAD PUSH1 0x1 PUSH1 0x1 PUSH1 0xA0 SHL SUB DUP2 AND DUP2 EQ PUSH3 0xE7 JUMPI PUSH1 0x0 DUP1 REVERT JUMPDEST PUSH1 0x20 DUP5 ADD MLOAD SWAP1 SWAP3 POP PUSH2 0xFFFF DUP2 AND DUP2 EQ PUSH3 0x100 JUMPI PUSH1 0x0 DUP1 REVERT JUMPDEST DUP1 SWAP2 POP POP SWAP3 POP SWAP3 SWAP1 POP JUMP JUMPDEST PUSH1 0x80 MLOAD PUSH2 0x2414 PUSH3 0x158 PUSH1 0x0 CODECOPY PUSH1 0x0 DUP2 DUP2 PUSH2 0x4BE ADD MSTORE DUP2 DUP2 PUSH2 0x615 ADD MSTORE DUP2 DUP2 PUSH2 0x864 ADD MSTORE DUP2 DUP2 PUSH2 0x90C ADD MSTORE DUP2 DUP2 PUSH2 0xABD ADD MSTORE DUP2 DUP2 PUSH2 0xEC8 ADD MSTORE DUP2 DUP2 PUSH2 0x1421 ADD MSTORE PUSH2 0x1824 ADD MSTORE PUSH2 0x2414 PUSH1 0x0 RETURN INVALID PUSH1 0x80 PUSH1 0x40 MSTORE PUSH1 0x4 CALLDATASIZE LT PUSH2 0x1C5 JUMPI PUSH1 0x0 CALLDATALOAD PUSH1 0xE0 SHR DUP1 PUSH4 0x8DA5CB5B GT PUSH2 0xF7 JUMPI DUP1 PUSH4 0xCBED8B9C GT PUSH2 0x95 JUMPI DUP1 PUSH4 0xEB8D72B7 GT PUSH2 0x64 JUMPI DUP1 PUSH4 0xEB8D72B7 EQ PUSH2 0x59F JUMPI DUP1 PUSH4 0xF2D566FC EQ PUSH2 0x5BF JUMPI DUP1 PUSH4 0xF2FDE38B EQ PUSH2 0x5D2 JUMPI DUP1 PUSH4 0xF5ECBDBC EQ PUSH2 0x5F2 JUMPI PUSH1 0x0 DUP1 REVERT JUMPDEST DUP1 PUSH4 0xCBED8B9C EQ PUSH2 0x516 JUMPI DUP1 PUSH4 0xCFE27EBA EQ PUSH2 0x536 JUMPI DUP1 PUSH4 0xD1DEBA1F EQ PUSH2 0x56C JUMPI DUP1 PUSH4 0xDF2A5B3B EQ PUSH2 0x57F JUMPI PUSH1 0x0 DUP1 REVERT JUMPDEST DUP1 PUSH4 0xA6C3D165 GT PUSH2 0xD1 JUMPI DUP1 PUSH4 0xA6C3D165 EQ PUSH2 0x48C JUMPI DUP1 PUSH4 0xB353AAA7 EQ PUSH2 0x4AC JUMPI DUP1 PUSH4 0xBAF3292D EQ PUSH2 0x4E0 JUMPI DUP1 PUSH4 0xC4461834 EQ PUSH2 0x500 JUMPI PUSH1 0x0 DUP1 REVERT JUMPDEST DUP1 PUSH4 0x8DA5CB5B EQ PUSH2 0x41A JUMPI DUP1 PUSH4 0x950C8A74 EQ PUSH2 0x44C JUMPI DUP1 PUSH4 0x9F38369A EQ PUSH2 0x46C JUMPI PUSH1 0x0 DUP1 REVERT JUMPDEST DUP1 PUSH4 0x3F1F4FA4 GT PUSH2 0x164 JUMPI DUP1 PUSH4 0x66AD5C8A GT PUSH2 0x13E JUMPI DUP1 PUSH4 0x66AD5C8A EQ PUSH2 0x380 JUMPI DUP1 PUSH4 0x715018A6 EQ PUSH2 0x3A0 JUMPI DUP1 PUSH4 0x7533D788 EQ PUSH2 0x3B5 JUMPI DUP1 PUSH4 0x8CFD8F5C EQ PUSH2 0x3E2 JUMPI PUSH1 0x0 DUP1 REVERT JUMPDEST DUP1 PUSH4 0x3F1F4FA4 EQ PUSH2 0x2D6 JUMPI DUP1 PUSH4 0x42D65A8D EQ PUSH2 0x311 JUMPI DUP1 PUSH4 0x5B8C41E6 EQ PUSH2 0x331 JUMPI PUSH1 0x0 DUP1 REVERT JUMPDEST DUP1 PUSH4 0x10DDB137 GT PUSH2 0x1A0 JUMPI DUP1 PUSH4 0x10DDB137 EQ PUSH2 0x233 JUMPI DUP1 PUSH4 0x3057C9BE EQ PUSH2 0x253 JUMPI DUP1 PUSH4 0x30FF44B6 EQ PUSH2 0x273 JUMPI DUP1 PUSH4 0x3D8B38F6 EQ PUSH2 0x2A6 JUMPI PUSH1 0x0 DUP1 REVERT JUMPDEST DUP1 PUSH3 0x1D3567 EQ PUSH2 0x1D1 JUMPI DUP1 PUSH4 0x7E0DB17 EQ PUSH2 0x1F3 JUMPI DUP1 PUSH4 0xDF37483 EQ PUSH2 0x213 JUMPI PUSH1 0x0 DUP1 REVERT JUMPDEST CALLDATASIZE PUSH2 0x1CC JUMPI STOP JUMPDEST PUSH1 0x0 DUP1 REVERT JUMPDEST CALLVALUE DUP1 ISZERO PUSH2 0x1DD JUMPI PUSH1 0x0 DUP1 REVERT JUMPDEST POP PUSH2 0x1F1 PUSH2 0x1EC CALLDATASIZE PUSH1 0x4 PUSH2 0x1AB3 JUMP JUMPDEST PUSH2 0x612 JUMP JUMPDEST STOP JUMPDEST CALLVALUE DUP1 ISZERO PUSH2 0x1FF JUMPI PUSH1 0x0 DUP1 REVERT JUMPDEST POP PUSH2 0x1F1 PUSH2 0x20E CALLDATASIZE PUSH1 0x4 PUSH2 0x1B46 JUMP JUMPDEST PUSH2 0x843 JUMP JUMPDEST CALLVALUE DUP1 ISZERO PUSH2 0x21F JUMPI PUSH1 0x0 DUP1 REVERT JUMPDEST POP PUSH2 0x1F1 PUSH2 0x22E CALLDATASIZE PUSH1 0x4 PUSH2 0x1B61 JUMP JUMPDEST PUSH2 0x8CC JUMP JUMPDEST CALLVALUE DUP1 ISZERO PUSH2 0x23F JUMPI PUSH1 0x0 DUP1 REVERT JUMPDEST POP PUSH2 0x1F1 PUSH2 0x24E CALLDATASIZE PUSH1 0x4 PUSH2 0x1B46 JUMP JUMPDEST PUSH2 0x8EB JUMP JUMPDEST CALLVALUE DUP1 ISZERO PUSH2 0x25F JUMPI PUSH1 0x0 DUP1 REVERT JUMPDEST POP PUSH2 0x1F1 PUSH2 0x26E CALLDATASIZE PUSH1 0x4 PUSH2 0x1BA2 JUMP JUMPDEST PUSH2 0x943 JUMP JUMPDEST CALLVALUE DUP1 ISZERO PUSH2 0x27F JUMPI PUSH1 0x0 DUP1 REVERT JUMPDEST POP PUSH1 0x6 SLOAD PUSH2 0x28E SWAP1 PUSH2 0xFFFF AND DUP2 JUMP JUMPDEST PUSH1 0x40 MLOAD PUSH2 0xFFFF SWAP1 SWAP2 AND DUP2 MSTORE PUSH1 0x20 ADD JUMPDEST PUSH1 0x40 MLOAD DUP1 SWAP2 SUB SWAP1 RETURN JUMPDEST CALLVALUE DUP1 ISZERO PUSH2 0x2B2 JUMPI PUSH1 0x0 DUP1 REVERT JUMPDEST POP PUSH2 0x2C6 PUSH2 0x2C1 CALLDATASIZE PUSH1 0x4 PUSH2 0x1BD5 JUMP JUMPDEST PUSH2 0x9D2 JUMP JUMPDEST PUSH1 0x40 MLOAD SWAP1 ISZERO ISZERO DUP2 MSTORE PUSH1 0x20 ADD PUSH2 0x29D JUMP JUMPDEST CALLVALUE DUP1 ISZERO PUSH2 0x2E2 JUMPI PUSH1 0x0 DUP1 REVERT JUMPDEST POP PUSH2 0x303 PUSH2 0x2F1 CALLDATASIZE PUSH1 0x4 PUSH2 0x1B46 JUMP JUMPDEST PUSH1 0x3 PUSH1 0x20 MSTORE PUSH1 0x0 SWAP1 DUP2 MSTORE PUSH1 0x40 SWAP1 KECCAK256 SLOAD DUP2 JUMP JUMPDEST PUSH1 0x40 MLOAD SWAP1 DUP2 MSTORE PUSH1 0x20 ADD PUSH2 0x29D JUMP JUMPDEST CALLVALUE DUP1 ISZERO PUSH2 0x31D JUMPI PUSH1 0x0 DUP1 REVERT JUMPDEST POP PUSH2 0x1F1 PUSH2 0x32C CALLDATASIZE PUSH1 0x4 PUSH2 0x1BD5 JUMP JUMPDEST PUSH2 0xA9E JUMP JUMPDEST CALLVALUE DUP1 ISZERO PUSH2 0x33D JUMPI PUSH1 0x0 DUP1 REVERT JUMPDEST POP PUSH2 0x303 PUSH2 0x34C CALLDATASIZE PUSH1 0x4 PUSH2 0x1C94 JUMP JUMPDEST PUSH1 0x5 PUSH1 0x20 SWAP1 DUP2 MSTORE PUSH1 0x0 SWAP4 DUP5 MSTORE PUSH1 0x40 DUP1 DUP6 KECCAK256 DUP5 MLOAD DUP1 DUP7 ADD DUP5 ADD DUP1 MLOAD SWAP3 DUP2 MSTORE SWAP1 DUP5 ADD SWAP6 DUP5 ADD SWAP6 SWAP1 SWAP6 KECCAK256 SWAP5 MSTORE SWAP3 SWAP1 MSTORE DUP3 MSTORE SWAP1 KECCAK256 SLOAD DUP2 JUMP JUMPDEST CALLVALUE DUP1 ISZERO PUSH2 0x38C JUMPI PUSH1 0x0 DUP1 REVERT JUMPDEST POP PUSH2 0x1F1 PUSH2 0x39B CALLDATASIZE PUSH1 0x4 PUSH2 0x1AB3 JUMP JUMPDEST PUSH2 0xB24 JUMP JUMPDEST CALLVALUE DUP1 ISZERO PUSH2 0x3AC JUMPI PUSH1 0x0 DUP1 REVERT JUMPDEST POP PUSH2 0x1F1 PUSH2 0xC00 JUMP JUMPDEST CALLVALUE DUP1 ISZERO PUSH2 0x3C1 JUMPI PUSH1 0x0 DUP1 REVERT JUMPDEST POP PUSH2 0x3D5 PUSH2 0x3D0 CALLDATASIZE PUSH1 0x4 PUSH2 0x1B46 JUMP JUMPDEST PUSH2 0xC14 JUMP JUMPDEST PUSH1 0x40 MLOAD PUSH2 0x29D SWAP2 SWAP1 PUSH2 0x1D84 JUMP JUMPDEST CALLVALUE DUP1 ISZERO PUSH2 0x3EE JUMPI PUSH1 0x0 DUP1 REVERT JUMPDEST POP PUSH2 0x303 PUSH2 0x3FD CALLDATASIZE PUSH1 0x4 PUSH2 0x1D97 JUMP JUMPDEST PUSH1 0x2 PUSH1 0x20 SWAP1 DUP2 MSTORE PUSH1 0x0 SWAP3 DUP4 MSTORE PUSH1 0x40 DUP1 DUP5 KECCAK256 SWAP1 SWAP2 MSTORE SWAP1 DUP3 MSTORE SWAP1 KECCAK256 SLOAD DUP2 JUMP JUMPDEST CALLVALUE DUP1 ISZERO PUSH2 0x426 JUMPI PUSH1 0x0 DUP1 REVERT JUMPDEST POP PUSH1 0x0 SLOAD PUSH1 0x1 PUSH1 0x1 PUSH1 0xA0 SHL SUB AND JUMPDEST PUSH1 0x40 MLOAD PUSH1 0x1 PUSH1 0x1 PUSH1 0xA0 SHL SUB SWAP1 SWAP2 AND DUP2 MSTORE PUSH1 0x20 ADD PUSH2 0x29D JUMP JUMPDEST CALLVALUE DUP1 ISZERO PUSH2 0x458 JUMPI PUSH1 0x0 DUP1 REVERT JUMPDEST POP PUSH1 0x4 SLOAD PUSH2 0x434 SWAP1 PUSH1 0x1 PUSH1 0x1 PUSH1 0xA0 SHL SUB AND DUP2 JUMP JUMPDEST CALLVALUE DUP1 ISZERO PUSH2 0x478 JUMPI PUSH1 0x0 DUP1 REVERT JUMPDEST POP PUSH2 0x3D5 PUSH2 0x487 CALLDATASIZE PUSH1 0x4 PUSH2 0x1B46 JUMP JUMPDEST PUSH2 0xCAE JUMP JUMPDEST CALLVALUE DUP1 ISZERO PUSH2 0x498 JUMPI PUSH1 0x0 DUP1 REVERT JUMPDEST POP PUSH2 0x1F1 PUSH2 0x4A7 CALLDATASIZE PUSH1 0x4 PUSH2 0x1BD5 JUMP JUMPDEST PUSH2 0xDC4 JUMP JUMPDEST CALLVALUE DUP1 ISZERO PUSH2 0x4B8 JUMPI PUSH1 0x0 DUP1 REVERT JUMPDEST POP PUSH2 0x434 PUSH32 0x0 DUP2 JUMP JUMPDEST CALLVALUE DUP1 ISZERO PUSH2 0x4EC JUMPI PUSH1 0x0 DUP1 REVERT JUMPDEST POP PUSH2 0x1F1 PUSH2 0x4FB CALLDATASIZE PUSH1 0x4 PUSH2 0x1DB3 JUMP JUMPDEST PUSH2 0xE4D JUMP JUMPDEST CALLVALUE DUP1 ISZERO PUSH2 0x50C JUMPI PUSH1 0x0 DUP1 REVERT JUMPDEST POP PUSH2 0x303 PUSH2 0x2710 DUP2 JUMP JUMPDEST CALLVALUE DUP1 ISZERO PUSH2 0x522 JUMPI PUSH1 0x0 DUP1 REVERT JUMPDEST POP PUSH2 0x1F1 PUSH2 0x531 CALLDATASIZE PUSH1 0x4 PUSH2 0x1DCE JUMP JUMPDEST PUSH2 0xEA9 JUMP JUMPDEST CALLVALUE DUP1 ISZERO PUSH2 0x542 JUMPI PUSH1 0x0 DUP1 REVERT JUMPDEST POP PUSH2 0x434 PUSH2 0x551 CALLDATASIZE PUSH1 0x4 PUSH2 0x1B46 JUMP JUMPDEST PUSH1 0x7 PUSH1 0x20 MSTORE PUSH1 0x0 SWAP1 DUP2 MSTORE PUSH1 0x40 SWAP1 KECCAK256 SLOAD PUSH1 0x1 PUSH1 0x1 PUSH1 0xA0 SHL SUB AND DUP2 JUMP JUMPDEST PUSH2 0x1F1 PUSH2 0x57A CALLDATASIZE PUSH1 0x4 PUSH2 0x1AB3 JUMP JUMPDEST PUSH2 0xF3E JUMP JUMPDEST CALLVALUE DUP1 ISZERO PUSH2 0x58B JUMPI PUSH1 0x0 DUP1 REVERT JUMPDEST POP PUSH2 0x1F1 PUSH2 0x59A CALLDATASIZE PUSH1 0x4 PUSH2 0x1E3C JUMP JUMPDEST PUSH2 0x1154 JUMP JUMPDEST CALLVALUE DUP1 ISZERO PUSH2 0x5AB JUMPI PUSH1 0x0 DUP1 REVERT JUMPDEST POP PUSH2 0x1F1 PUSH2 0x5BA CALLDATASIZE PUSH1 0x4 PUSH2 0x1BD5 JUMP JUMPDEST PUSH2 0x1206 JUMP JUMPDEST PUSH2 0x1F1 PUSH2 0x5CD CALLDATASIZE PUSH1 0x4 PUSH2 0x1E78 JUMP JUMPDEST PUSH2 0x1260 JUMP JUMPDEST CALLVALUE DUP1 ISZERO PUSH2 0x5DE JUMPI PUSH1 0x0 DUP1 REVERT JUMPDEST POP PUSH2 0x1F1 PUSH2 0x5ED CALLDATASIZE PUSH1 0x4 PUSH2 0x1DB3 JUMP JUMPDEST PUSH2 0x1377 JUMP JUMPDEST CALLVALUE DUP1 ISZERO PUSH2 0x5FE JUMPI PUSH1 0x0 DUP1 REVERT JUMPDEST POP PUSH2 0x3D5 PUSH2 0x60D CALLDATASIZE PUSH1 0x4 PUSH2 0x1EA4 JUMP JUMPDEST PUSH2 0x13F0 JUMP JUMPDEST CALLER PUSH32 0x0 PUSH1 0x1 PUSH1 0x1 PUSH1 0xA0 SHL SUB AND EQ PUSH2 0x68F JUMPI PUSH1 0x40 MLOAD PUSH3 0x461BCD PUSH1 0xE5 SHL DUP2 MSTORE PUSH1 0x20 PUSH1 0x4 DUP3 ADD MSTORE PUSH1 0x1E PUSH1 0x24 DUP3 ADD MSTORE PUSH32 0x4C7A4170703A20696E76616C696420656E64706F696E742063616C6C65720000 PUSH1 0x44 DUP3 ADD MSTORE PUSH1 0x64 ADD JUMPDEST PUSH1 0x40 MLOAD DUP1 SWAP2 SUB SWAP1 REVERT JUMPDEST PUSH2 0xFFFF DUP7 AND PUSH1 0x0 SWAP1 DUP2 MSTORE PUSH1 0x1 PUSH1 0x20 MSTORE PUSH1 0x40 DUP2 KECCAK256 DUP1 SLOAD PUSH2 0x6AD SWAP1 PUSH2 0x1EEF JUMP JUMPDEST DUP1 PUSH1 0x1F ADD PUSH1 0x20 DUP1 SWAP2 DIV MUL PUSH1 0x20 ADD PUSH1 0x40 MLOAD SWAP1 DUP2 ADD PUSH1 0x40 MSTORE DUP1 SWAP3 SWAP2 SWAP1 DUP2 DUP2 MSTORE PUSH1 0x20 ADD DUP3 DUP1 SLOAD PUSH2 0x6D9 SWAP1 PUSH2 0x1EEF JUMP JUMPDEST DUP1 ISZERO PUSH2 0x726 JUMPI DUP1 PUSH1 0x1F LT PUSH2 0x6FB JUMPI PUSH2 0x100 DUP1 DUP4 SLOAD DIV MUL DUP4 MSTORE SWAP2 PUSH1 0x20 ADD SWAP2 PUSH2 0x726 JUMP JUMPDEST DUP3 ADD SWAP2 SWAP1 PUSH1 0x0 MSTORE PUSH1 0x20 PUSH1 0x0 KECCAK256 SWAP1 JUMPDEST DUP2 SLOAD DUP2 MSTORE SWAP1 PUSH1 0x1 ADD SWAP1 PUSH1 0x20 ADD DUP1 DUP4 GT PUSH2 0x709 JUMPI DUP3 SWAP1 SUB PUSH1 0x1F AND DUP3 ADD SWAP2 JUMPDEST POP POP POP POP POP SWAP1 POP DUP1 MLOAD DUP7 DUP7 SWAP1 POP EQ DUP1 ISZERO PUSH2 0x741 JUMPI POP PUSH1 0x0 DUP2 MLOAD GT JUMPDEST DUP1 ISZERO PUSH2 0x769 JUMPI POP DUP1 MLOAD PUSH1 0x20 DUP3 ADD KECCAK256 PUSH1 0x40 MLOAD PUSH2 0x75F SWAP1 DUP9 SWAP1 DUP9 SWAP1 PUSH2 0x1F29 JUMP JUMPDEST PUSH1 0x40 MLOAD DUP1 SWAP2 SUB SWAP1 KECCAK256 EQ JUMPDEST PUSH2 0x7C4 JUMPI PUSH1 0x40 MLOAD PUSH3 0x461BCD PUSH1 0xE5 SHL DUP2 MSTORE PUSH1 0x20 PUSH1 0x4 DUP3 ADD MSTORE PUSH1 0x26 PUSH1 0x24 DUP3 ADD MSTORE PUSH32 0x4C7A4170703A20696E76616C696420736F757263652073656E64696E6720636F PUSH1 0x44 DUP3 ADD MSTORE PUSH6 0x1B9D1C9858DD PUSH1 0xD2 SHL PUSH1 0x64 DUP3 ADD MSTORE PUSH1 0x84 ADD PUSH2 0x686 JUMP JUMPDEST PUSH2 0x83A DUP8 DUP8 DUP8 DUP1 DUP1 PUSH1 0x1F ADD PUSH1 0x20 DUP1 SWAP2 DIV MUL PUSH1 0x20 ADD PUSH1 0x40 MLOAD SWAP1 DUP2 ADD PUSH1 0x40 MSTORE DUP1 SWAP4 SWAP3 SWAP2 SWAP1 DUP2 DUP2 MSTORE PUSH1 0x20 ADD DUP4 DUP4 DUP1 DUP3 DUP5 CALLDATACOPY PUSH1 0x0 SWAP3 ADD SWAP2 SWAP1 SWAP2 MSTORE POP POP PUSH1 0x40 DUP1 MLOAD PUSH1 0x20 PUSH1 0x1F DUP11 ADD DUP2 SWAP1 DIV DUP2 MUL DUP3 ADD DUP2 ADD SWAP1 SWAP3 MSTORE DUP9 DUP2 MSTORE DUP11 SWAP4 POP SWAP2 POP DUP9 SWAP1 DUP9 SWAP1 DUP2 SWAP1 DUP5 ADD DUP4 DUP3 DUP1 DUP3 DUP5 CALLDATACOPY PUSH1 0x0 SWAP3 ADD SWAP2 SWAP1 SWAP2 MSTORE POP PUSH2 0x14A1 SWAP3 POP POP POP JUMP JUMPDEST POP POP POP POP POP POP POP JUMP JUMPDEST PUSH2 0x84B PUSH2 0x151A JUMP JUMPDEST PUSH1 0x40 MLOAD PUSH4 0x7E0DB17 PUSH1 0xE0 SHL DUP2 MSTORE PUSH2 0xFFFF DUP3 AND PUSH1 0x4 DUP3 ADD MSTORE PUSH32 0x0 PUSH1 0x1 PUSH1 0x1 PUSH1 0xA0 SHL SUB AND SWAP1 PUSH4 0x7E0DB17 SWAP1 PUSH1 0x24 ADD JUMPDEST PUSH1 0x0 PUSH1 0x40 MLOAD DUP1 DUP4 SUB DUP2 PUSH1 0x0 DUP8 DUP1 EXTCODESIZE ISZERO DUP1 ISZERO PUSH2 0x8B1 JUMPI PUSH1 0x0 DUP1 REVERT JUMPDEST POP GAS CALL ISZERO DUP1 ISZERO PUSH2 0x8C5 JUMPI RETURNDATASIZE PUSH1 0x0 DUP1 RETURNDATACOPY RETURNDATASIZE PUSH1 0x0 REVERT JUMPDEST POP POP POP POP POP JUMP JUMPDEST PUSH2 0x8D4 PUSH2 0x151A JUMP JUMPDEST PUSH2 0xFFFF SWAP1 SWAP2 AND PUSH1 0x0 SWAP1 DUP2 MSTORE PUSH1 0x3 PUSH1 0x20 MSTORE PUSH1 0x40 SWAP1 KECCAK256 SSTORE JUMP JUMPDEST PUSH2 0x8F3 PUSH2 0x151A JUMP JUMPDEST PUSH1 0x40 MLOAD PUSH4 0x10DDB137 PUSH1 0xE0 SHL DUP2 MSTORE PUSH2 0xFFFF DUP3 AND PUSH1 0x4 DUP3 ADD MSTORE PUSH32 0x0 PUSH1 0x1 PUSH1 0x1 PUSH1 0xA0 SHL SUB AND SWAP1 PUSH4 0x10DDB137 SWAP1 PUSH1 0x24 ADD PUSH2 0x897 JUMP JUMPDEST PUSH2 0x94B PUSH2 0x151A JUMP JUMPDEST PUSH1 0x40 MLOAD PUSH12 0xFFFFFFFFFFFFFFFFFFFFFFFF NOT PUSH1 0x60 DUP5 DUP2 SHL DUP3 AND PUSH1 0x20 DUP5 ADD MSTORE ADDRESS SWAP1 SHL AND PUSH1 0x34 DUP3 ADD MSTORE PUSH1 0x48 ADD PUSH1 0x40 DUP1 MLOAD PUSH1 0x1F NOT DUP2 DUP5 SUB ADD DUP2 MSTORE SWAP2 DUP2 MSTORE PUSH2 0xFFFF DUP4 AND PUSH1 0x0 SWAP1 DUP2 MSTORE PUSH1 0x1 PUSH1 0x20 MSTORE KECCAK256 SWAP1 PUSH2 0x99F SWAP1 DUP3 PUSH2 0x1F7F JUMP JUMPDEST POP PUSH2 0xFFFF AND PUSH1 0x0 SWAP1 DUP2 MSTORE PUSH1 0x7 PUSH1 0x20 MSTORE PUSH1 0x40 SWAP1 KECCAK256 DUP1 SLOAD PUSH1 0x1 PUSH1 0x1 PUSH1 0xA0 SHL SUB NOT AND PUSH1 0x1 PUSH1 0x1 PUSH1 0xA0 SHL SUB SWAP3 SWAP1 SWAP3 AND SWAP2 SWAP1 SWAP2 OR SWAP1 SSTORE JUMP JUMPDEST PUSH2 0xFFFF DUP4 AND PUSH1 0x0 SWAP1 DUP2 MSTORE PUSH1 0x1 PUSH1 0x20 MSTORE PUSH1 0x40 DUP2 KECCAK256 DUP1 SLOAD DUP3 SWAP2 SWAP1 PUSH2 0x9F3 SWAP1 PUSH2 0x1EEF JUMP JUMPDEST DUP1 PUSH1 0x1F ADD PUSH1 0x20 DUP1 SWAP2 DIV MUL PUSH1 0x20 ADD PUSH1 0x40 MLOAD SWAP1 DUP2 ADD PUSH1 0x40 MSTORE DUP1 SWAP3 SWAP2 SWAP1 DUP2 DUP2 MSTORE PUSH1 0x20 ADD DUP3 DUP1 SLOAD PUSH2 0xA1F SWAP1 PUSH2 0x1EEF JUMP JUMPDEST DUP1 ISZERO PUSH2 0xA6C JUMPI DUP1 PUSH1 0x1F LT PUSH2 0xA41 JUMPI PUSH2 0x100 DUP1 DUP4 SLOAD DIV MUL DUP4 MSTORE SWAP2 PUSH1 0x20 ADD SWAP2 PUSH2 0xA6C JUMP JUMPDEST DUP3 ADD SWAP2 SWAP1 PUSH1 0x0 MSTORE PUSH1 0x20 PUSH1 0x0 KECCAK256 SWAP1 JUMPDEST DUP2 SLOAD DUP2 MSTORE SWAP1 PUSH1 0x1 ADD SWAP1 PUSH1 0x20 ADD DUP1 DUP4 GT PUSH2 0xA4F JUMPI DUP3 SWAP1 SUB PUSH1 0x1F AND DUP3 ADD SWAP2 JUMPDEST POP POP POP POP POP SWAP1 POP DUP4 DUP4 PUSH1 0x40 MLOAD PUSH2 0xA83 SWAP3 SWAP2 SWAP1 PUSH2 0x1F29 JUMP JUMPDEST PUSH1 0x40 MLOAD DUP1 SWAP2 SUB SWAP1 KECCAK256 DUP2 DUP1 MLOAD SWAP1 PUSH1 0x20 ADD KECCAK256 EQ SWAP2 POP POP SWAP4 SWAP3 POP POP POP JUMP JUMPDEST PUSH2 0xAA6 PUSH2 0x151A JUMP JUMPDEST PUSH1 0x40 MLOAD PUSH4 0x42D65A8D PUSH1 0xE0 SHL DUP2 MSTORE PUSH1 0x1 PUSH1 0x1 PUSH1 0xA0 SHL SUB PUSH32 0x0 AND SWAP1 PUSH4 0x42D65A8D SWAP1 PUSH2 0xAF6 SWAP1 DUP7 SWAP1 DUP7 SWAP1 DUP7 SWAP1 PUSH1 0x4 ADD PUSH2 0x2067 JUMP JUMPDEST PUSH1 0x0 PUSH1 0x40 MLOAD DUP1 DUP4 SUB DUP2 PUSH1 0x0 DUP8 DUP1 EXTCODESIZE ISZERO DUP1 ISZERO PUSH2 0xB10 JUMPI PUSH1 0x0 DUP1 REVERT JUMPDEST POP GAS CALL ISZERO DUP1 ISZERO PUSH2 0x83A JUMPI RETURNDATASIZE PUSH1 0x0 DUP1 RETURNDATACOPY RETURNDATASIZE PUSH1 0x0 REVERT JUMPDEST CALLER ADDRESS EQ PUSH2 0xB82 JUMPI PUSH1 0x40 MLOAD PUSH3 0x461BCD PUSH1 0xE5 SHL DUP2 MSTORE PUSH1 0x20 PUSH1 0x4 DUP3 ADD MSTORE PUSH1 0x26 PUSH1 0x24 DUP3 ADD MSTORE PUSH32 0x4E6F6E626C6F636B696E674C7A4170703A2063616C6C6572206D757374206265 PUSH1 0x44 DUP3 ADD MSTORE PUSH6 0x204C7A41707 PUSH1 0xD4 SHL PUSH1 0x64 DUP3 ADD MSTORE PUSH1 0x84 ADD PUSH2 0x686 JUMP JUMPDEST PUSH2 0xBF8 DUP7 DUP7 DUP7 DUP1 DUP1 PUSH1 0x1F ADD PUSH1 0x20 DUP1 SWAP2 DIV MUL PUSH1 0x20 ADD PUSH1 0x40 MLOAD SWAP1 DUP2 ADD PUSH1 0x40 MSTORE DUP1 SWAP4 SWAP3 SWAP2 SWAP1 DUP2 DUP2 MSTORE PUSH1 0x20 ADD DUP4 DUP4 DUP1 DUP3 DUP5 CALLDATACOPY PUSH1 0x0 SWAP3 ADD SWAP2 SWAP1 SWAP2 MSTORE POP POP PUSH1 0x40 DUP1 MLOAD PUSH1 0x20 PUSH1 0x1F DUP10 ADD DUP2 SWAP1 DIV DUP2 MUL DUP3 ADD DUP2 ADD SWAP1 SWAP3 MSTORE DUP8 DUP2 MSTORE DUP10 SWAP4 POP SWAP2 POP DUP8 SWAP1 DUP8 SWAP1 DUP2 SWAP1 DUP5 ADD DUP4 DUP3 DUP1 DUP3 DUP5 CALLDATACOPY PUSH1 0x0 SWAP3 ADD SWAP2 SWAP1 SWAP2 MSTORE POP PUSH2 0x1574 SWAP3 POP POP POP JUMP JUMPDEST POP POP POP POP POP POP JUMP JUMPDEST PUSH2 0xC08 PUSH2 0x151A JUMP JUMPDEST PUSH2 0xC12 PUSH1 0x0 PUSH2 0x159E JUMP JUMPDEST JUMP JUMPDEST PUSH1 0x1 PUSH1 0x20 MSTORE PUSH1 0x0 SWAP1 DUP2 MSTORE PUSH1 0x40 SWAP1 KECCAK256 DUP1 SLOAD PUSH2 0xC2D SWAP1 PUSH2 0x1EEF JUMP JUMPDEST DUP1 PUSH1 0x1F ADD PUSH1 0x20 DUP1 SWAP2 DIV MUL PUSH1 0x20 ADD PUSH1 0x40 MLOAD SWAP1 DUP2 ADD PUSH1 0x40 MSTORE DUP1 SWAP3 SWAP2 SWAP1 DUP2 DUP2 MSTORE PUSH1 0x20 ADD DUP3 DUP1 SLOAD PUSH2 0xC59 SWAP1 PUSH2 0x1EEF JUMP JUMPDEST DUP1 ISZERO PUSH2 0xCA6 JUMPI DUP1 PUSH1 0x1F LT PUSH2 0xC7B JUMPI PUSH2 0x100 DUP1 DUP4 SLOAD DIV MUL DUP4 MSTORE SWAP2 PUSH1 0x20 ADD SWAP2 PUSH2 0xCA6 JUMP JUMPDEST DUP3 ADD SWAP2 SWAP1 PUSH1 0x0 MSTORE PUSH1 0x20 PUSH1 0x0 KECCAK256 SWAP1 JUMPDEST DUP2 SLOAD DUP2 MSTORE SWAP1 PUSH1 0x1 ADD SWAP1 PUSH1 0x20 ADD DUP1 DUP4 GT PUSH2 0xC89 JUMPI DUP3 SWAP1 SUB PUSH1 0x1F AND DUP3 ADD SWAP2 JUMPDEST POP POP POP POP POP DUP2 JUMP JUMPDEST PUSH2 0xFFFF DUP2 AND PUSH1 0x0 SWAP1 DUP2 MSTORE PUSH1 0x1 PUSH1 0x20 MSTORE PUSH1 0x40 DUP2 KECCAK256 DUP1 SLOAD PUSH1 0x60 SWAP3 SWAP2 SWAP1 PUSH2 0xCD1 SWAP1 PUSH2 0x1EEF JUMP JUMPDEST DUP1 PUSH1 0x1F ADD PUSH1 0x20 DUP1 SWAP2 DIV MUL PUSH1 0x20 ADD PUSH1 0x40 MLOAD SWAP1 DUP2 ADD PUSH1 0x40 MSTORE DUP1 SWAP3 SWAP2 SWAP1 DUP2 DUP2 MSTORE PUSH1 0x20 ADD DUP3 DUP1 SLOAD PUSH2 0xCFD SWAP1 PUSH2 0x1EEF JUMP JUMPDEST DUP1 ISZERO PUSH2 0xD4A JUMPI DUP1 PUSH1 0x1F LT PUSH2 0xD1F JUMPI PUSH2 0x100 DUP1 DUP4 SLOAD DIV MUL DUP4 MSTORE SWAP2 PUSH1 0x20 ADD SWAP2 PUSH2 0xD4A JUMP JUMPDEST DUP3 ADD SWAP2 SWAP1 PUSH1 0x0 MSTORE PUSH1 0x20 PUSH1 0x0 KECCAK256 SWAP1 JUMPDEST DUP2 SLOAD DUP2 MSTORE SWAP1 PUSH1 0x1 ADD SWAP1 PUSH1 0x20 ADD DUP1 DUP4 GT PUSH2 0xD2D JUMPI DUP3 SWAP1 SUB PUSH1 0x1F AND DUP3 ADD SWAP2 JUMPDEST POP POP POP POP POP SWAP1 POP DUP1 MLOAD PUSH1 0x0 SUB PUSH2 0xDA2 JUMPI PUSH1 0x40 MLOAD PUSH3 0x461BCD PUSH1 0xE5 SHL DUP2 MSTORE PUSH1 0x20 PUSH1 0x4 DUP3 ADD MSTORE PUSH1 0x1D PUSH1 0x24 DUP3 ADD MSTORE PUSH32 0x4C7A4170703A206E6F20747275737465642070617468207265636F7264000000 PUSH1 0x44 DUP3 ADD MSTORE PUSH1 0x64 ADD PUSH2 0x686 JUMP JUMPDEST PUSH2 0xDBD PUSH1 0x0 PUSH1 0x14 DUP4 MLOAD PUSH2 0xDB5 SWAP2 SWAP1 PUSH2 0x209B JUMP JUMPDEST DUP4 SWAP2 SWAP1 PUSH2 0x15EE JUMP JUMPDEST SWAP4 SWAP3 POP POP POP JUMP JUMPDEST PUSH2 0xDCC PUSH2 0x151A JUMP JUMPDEST DUP2 DUP2 ADDRESS PUSH1 0x40 MLOAD PUSH1 0x20 ADD PUSH2 0xDE1 SWAP4 SWAP3 SWAP2 SWAP1 PUSH2 0x20B4 JUMP JUMPDEST PUSH1 0x40 DUP1 MLOAD PUSH1 0x1F NOT DUP2 DUP5 SUB ADD DUP2 MSTORE SWAP2 DUP2 MSTORE PUSH2 0xFFFF DUP6 AND PUSH1 0x0 SWAP1 DUP2 MSTORE PUSH1 0x1 PUSH1 0x20 MSTORE KECCAK256 SWAP1 PUSH2 0xE0C SWAP1 DUP3 PUSH2 0x1F7F JUMP JUMPDEST POP PUSH32 0x8C0400CFE2D1199B1A725C78960BCC2A344D869B80590D0F2BD005DB15A572CE DUP4 DUP4 DUP4 PUSH1 0x40 MLOAD PUSH2 0xE40 SWAP4 SWAP3 SWAP2 SWAP1 PUSH2 0x2067 JUMP JUMPDEST PUSH1 0x40 MLOAD DUP1 SWAP2 SUB SWAP1 LOG1 POP POP POP JUMP JUMPDEST PUSH2 0xE55 PUSH2 0x151A JUMP JUMPDEST PUSH1 0x4 DUP1 SLOAD PUSH1 0x1 PUSH1 0x1 PUSH1 0xA0 SHL SUB NOT AND PUSH1 0x1 PUSH1 0x1 PUSH1 0xA0 SHL SUB DUP4 AND SWAP1 DUP2 OR SWAP1 SWAP2 SSTORE PUSH1 0x40 MLOAD SWAP1 DUP2 MSTORE PUSH32 0x5DB758E995A17EC1AD84BDEF7E8C3293A0BD6179BCCE400DFF5D4C3D87DB726B SWAP1 PUSH1 0x20 ADD PUSH1 0x40 MLOAD DUP1 SWAP2 SUB SWAP1 LOG1 POP JUMP JUMPDEST PUSH2 0xEB1 PUSH2 0x151A JUMP JUMPDEST PUSH1 0x40 MLOAD PUSH4 0x32FB62E7 PUSH1 0xE2 SHL DUP2 MSTORE PUSH1 0x1 PUSH1 0x1 PUSH1 0xA0 SHL SUB PUSH32 0x0 AND SWAP1 PUSH4 0xCBED8B9C SWAP1 PUSH2 0xF05 SWAP1 DUP9 SWAP1 DUP9 SWAP1 DUP9 SWAP1 DUP9 SWAP1 DUP9 SWAP1 PUSH1 0x4 ADD PUSH2 0x20DA JUMP JUMPDEST PUSH1 0x0 PUSH1 0x40 MLOAD DUP1 DUP4 SUB DUP2 PUSH1 0x0 DUP8 DUP1 EXTCODESIZE ISZERO DUP1 ISZERO PUSH2 0xF1F JUMPI PUSH1 0x0 DUP1 REVERT JUMPDEST POP GAS CALL ISZERO DUP1 ISZERO PUSH2 0xF33 JUMPI RETURNDATASIZE PUSH1 0x0 DUP1 RETURNDATACOPY RETURNDATASIZE PUSH1 0x0 REVERT JUMPDEST POP POP POP POP POP POP POP POP POP JUMP JUMPDEST PUSH2 0xFFFF DUP7 AND PUSH1 0x0 SWAP1 DUP2 MSTORE PUSH1 0x5 PUSH1 0x20 MSTORE PUSH1 0x40 DUP1 DUP3 KECCAK256 SWAP1 MLOAD PUSH2 0xF61 SWAP1 DUP9 SWAP1 DUP9 SWAP1 PUSH2 0x1F29 JUMP JUMPDEST SWAP1 DUP2 MSTORE PUSH1 0x40 DUP1 MLOAD PUSH1 0x20 SWAP3 DUP2 SWAP1 SUB DUP4 ADD SWAP1 KECCAK256 PUSH1 0x1 PUSH1 0x1 PUSH1 0x40 SHL SUB DUP8 AND PUSH1 0x0 SWAP1 DUP2 MSTORE SWAP3 MSTORE SWAP1 KECCAK256 SLOAD SWAP1 POP DUP1 PUSH2 0xFE1 JUMPI PUSH1 0x40 MLOAD PUSH3 0x461BCD PUSH1 0xE5 SHL DUP2 MSTORE PUSH1 0x20 PUSH1 0x4 DUP3 ADD MSTORE PUSH1 0x23 PUSH1 0x24 DUP3 ADD MSTORE PUSH32 0x4E6F6E626C6F636B696E674C7A4170703A206E6F2073746F726564206D657373 PUSH1 0x44 DUP3 ADD MSTORE PUSH3 0x616765 PUSH1 0xE8 SHL PUSH1 0x64 DUP3 ADD MSTORE PUSH1 0x84 ADD PUSH2 0x686 JUMP JUMPDEST DUP1 DUP4 DUP4 PUSH1 0x40 MLOAD PUSH2 0xFF2 SWAP3 SWAP2 SWAP1 PUSH2 0x1F29 JUMP JUMPDEST PUSH1 0x40 MLOAD DUP1 SWAP2 SUB SWAP1 KECCAK256 EQ PUSH2 0x1051 JUMPI PUSH1 0x40 MLOAD PUSH3 0x461BCD PUSH1 0xE5 SHL DUP2 MSTORE PUSH1 0x20 PUSH1 0x4 DUP3 ADD MSTORE PUSH1 0x21 PUSH1 0x24 DUP3 ADD MSTORE PUSH32 0x4E6F6E626C6F636B696E674C7A4170703A20696E76616C6964207061796C6F61 PUSH1 0x44 DUP3 ADD MSTORE PUSH1 0x19 PUSH1 0xFA SHL PUSH1 0x64 DUP3 ADD MSTORE PUSH1 0x84 ADD PUSH2 0x686 JUMP JUMPDEST PUSH2 0xFFFF DUP8 AND PUSH1 0x0 SWAP1 DUP2 MSTORE PUSH1 0x5 PUSH1 0x20 MSTORE PUSH1 0x40 DUP1 DUP3 KECCAK256 SWAP1 MLOAD PUSH2 0x1074 SWAP1 DUP10 SWAP1 DUP10 SWAP1 PUSH2 0x1F29 JUMP JUMPDEST SWAP1 DUP2 MSTORE PUSH1 0x40 DUP1 MLOAD PUSH1 0x20 SWAP3 DUP2 SWAP1 SUB DUP4 ADD DUP2 KECCAK256 PUSH1 0x1 PUSH1 0x1 PUSH1 0x40 SHL SUB DUP10 AND PUSH1 0x0 SWAP1 DUP2 MSTORE SWAP1 DUP5 MSTORE DUP3 SWAP1 KECCAK256 SWAP4 SWAP1 SWAP4 SSTORE PUSH1 0x1F DUP9 ADD DUP3 SWAP1 DIV DUP3 MUL DUP4 ADD DUP3 ADD SWAP1 MSTORE DUP7 DUP3 MSTORE PUSH2 0x110C SWAP2 DUP10 SWAP2 DUP10 SWAP1 DUP10 SWAP1 DUP2 SWAP1 DUP5 ADD DUP4 DUP3 DUP1 DUP3 DUP5 CALLDATACOPY PUSH1 0x0 SWAP3 ADD SWAP2 SWAP1 SWAP2 MSTORE POP POP PUSH1 0x40 DUP1 MLOAD PUSH1 0x20 PUSH1 0x1F DUP11 ADD DUP2 SWAP1 DIV DUP2 MUL DUP3 ADD DUP2 ADD SWAP1 SWAP3 MSTORE DUP9 DUP2 MSTORE DUP11 SWAP4 POP SWAP2 POP DUP9 SWAP1 DUP9 SWAP1 DUP2 SWAP1 DUP5 ADD DUP4 DUP3 DUP1 DUP3 DUP5 CALLDATACOPY PUSH1 0x0 SWAP3 ADD SWAP2 SWAP1 SWAP2 MSTORE POP PUSH2 0x1574 SWAP3 POP POP POP JUMP JUMPDEST PUSH32 0xC264D91F3ADC5588250E1551F547752CA0CFA8F6B530D243B9F9F4CAB10EA8E5 DUP8 DUP8 DUP8 DUP8 DUP6 PUSH1 0x40 MLOAD PUSH2 0x1143 SWAP6 SWAP5 SWAP4 SWAP3 SWAP2 SWAP1 PUSH2 0x2113 JUMP JUMPDEST PUSH1 0x40 MLOAD DUP1 SWAP2 SUB SWAP1 LOG1 POP POP POP POP POP POP POP JUMP JUMPDEST PUSH2 0x115C PUSH2 0x151A JUMP JUMPDEST PUSH1 0x0 DUP2 GT PUSH2 0x11A4 JUMPI PUSH1 0x40 MLOAD PUSH3 0x461BCD PUSH1 0xE5 SHL DUP2 MSTORE PUSH1 0x20 PUSH1 0x4 DUP3 ADD MSTORE PUSH1 0x15 PUSH1 0x24 DUP3 ADD MSTORE PUSH21 0x4C7A4170703A20696E76616C6964206D696E476173 PUSH1 0x58 SHL PUSH1 0x44 DUP3 ADD MSTORE PUSH1 0x64 ADD PUSH2 0x686 JUMP JUMPDEST PUSH2 0xFFFF DUP4 DUP2 AND PUSH1 0x0 DUP2 DUP2 MSTORE PUSH1 0x2 PUSH1 0x20 SWAP1 DUP2 MSTORE PUSH1 0x40 DUP1 DUP4 KECCAK256 SWAP5 DUP8 AND DUP1 DUP5 MSTORE SWAP5 DUP3 MSTORE SWAP2 DUP3 SWAP1 KECCAK256 DUP6 SWAP1 SSTORE DUP2 MLOAD SWAP3 DUP4 MSTORE DUP3 ADD SWAP3 SWAP1 SWAP3 MSTORE SWAP1 DUP2 ADD DUP3 SWAP1 MSTORE PUSH32 0x9D5C7C0B934DA8FEFA9C7760C98383778A12DFBFC0C3B3106518F43FB9508AC0 SWAP1 PUSH1 0x60 ADD PUSH2 0xE40 JUMP JUMPDEST PUSH2 0x120E PUSH2 0x151A JUMP JUMPDEST PUSH2 0xFFFF DUP4 AND PUSH1 0x0 SWAP1 DUP2 MSTORE PUSH1 0x1 PUSH1 0x20 MSTORE PUSH1 0x40 SWAP1 KECCAK256 PUSH2 0x122C DUP3 DUP5 DUP4 PUSH2 0x214E JUMP JUMPDEST POP PUSH32 0xFA41487AD5D6728F0B19276FA1EDDC16558578F5109FC39D2DC33C3230470DAB DUP4 DUP4 DUP4 PUSH1 0x40 MLOAD PUSH2 0xE40 SWAP4 SWAP3 SWAP2 SWAP1 PUSH2 0x2067 JUMP JUMPDEST PUSH1 0x0 SELFBALANCE GT PUSH2 0x12D8 JUMPI PUSH1 0x40 DUP1 MLOAD PUSH3 0x461BCD PUSH1 0xE5 SHL DUP2 MSTORE PUSH1 0x20 PUSH1 0x4 DUP3 ADD MSTORE PUSH1 0x24 DUP2 ADD SWAP2 SWAP1 SWAP2 MSTORE PUSH32 0x7468652062616C616E6365206F66207468697320636F6E747261637420697320 PUSH1 0x44 DUP3 ADD MSTORE PUSH32 0x302E20706C732073656E642067617320666F72206D6573736167652066656573 PUSH1 0x64 DUP3 ADD MSTORE PUSH1 0x84 ADD PUSH2 0x686 JUMP JUMPDEST PUSH32 0x48257DC961B6F792C2B78A080DACFED693B660960A702DE21CEE364E20270E2F PUSH2 0x1302 DUP3 PUSH2 0x220D JUMP JUMPDEST PUSH1 0x40 MLOAD DUP2 DUP2 MSTORE SWAP1 SWAP3 POP PUSH1 0x20 ADD PUSH1 0x40 MLOAD DUP1 SWAP2 SUB SWAP1 LOG1 PUSH1 0x0 DUP2 PUSH1 0x40 MLOAD PUSH1 0x20 ADD PUSH2 0x132B SWAP2 DUP2 MSTORE PUSH1 0x20 ADD SWAP1 JUMP JUMPDEST PUSH1 0x40 DUP1 MLOAD PUSH1 0x1F NOT DUP2 DUP5 SUB ADD DUP2 MSTORE DUP3 DUP3 MSTORE PUSH1 0x1 PUSH1 0xF0 SHL PUSH1 0x20 DUP5 ADD MSTORE PUSH3 0x55730 PUSH1 0x22 DUP1 DUP6 ADD DUP3 SWAP1 MSTORE DUP4 MLOAD DUP1 DUP7 SUB SWAP1 SWAP2 ADD DUP2 MSTORE PUSH1 0x42 SWAP1 SWAP5 ADD SWAP1 SWAP3 MSTORE SWAP3 POP PUSH1 0x1 SWAP2 PUSH2 0x83A DUP8 DUP6 ADDRESS PUSH1 0x0 DUP6 CALLVALUE PUSH2 0x16FB JUMP JUMPDEST PUSH2 0x137F PUSH2 0x151A JUMP JUMPDEST PUSH1 0x1 PUSH1 0x1 PUSH1 0xA0 SHL SUB DUP2 AND PUSH2 0x13E4 JUMPI PUSH1 0x40 MLOAD PUSH3 0x461BCD PUSH1 0xE5 SHL DUP2 MSTORE PUSH1 0x20 PUSH1 0x4 DUP3 ADD MSTORE PUSH1 0x26 PUSH1 0x24 DUP3 ADD MSTORE PUSH32 0x4F776E61626C653A206E6577206F776E657220697320746865207A65726F2061 PUSH1 0x44 DUP3 ADD MSTORE PUSH6 0x646472657373 PUSH1 0xD0 SHL PUSH1 0x64 DUP3 ADD MSTORE PUSH1 0x84 ADD PUSH2 0x686 JUMP JUMPDEST PUSH2 0x13ED DUP2 PUSH2 0x159E JUMP JUMPDEST POP JUMP JUMPDEST PUSH1 0x40 MLOAD PUSH4 0x3D7B2F6F PUSH1 0xE2 SHL DUP2 MSTORE PUSH2 0xFFFF DUP1 DUP7 AND PUSH1 0x4 DUP4 ADD MSTORE DUP5 AND PUSH1 0x24 DUP3 ADD MSTORE ADDRESS PUSH1 0x44 DUP3 ADD MSTORE PUSH1 0x64 DUP2 ADD DUP3 SWAP1 MSTORE PUSH1 0x60 SWAP1 PUSH32 0x0 PUSH1 0x1 PUSH1 0x1 PUSH1 0xA0 SHL SUB AND SWAP1 PUSH4 0xF5ECBDBC SWAP1 PUSH1 0x84 ADD PUSH1 0x0 PUSH1 0x40 MLOAD DUP1 DUP4 SUB DUP2 DUP7 GAS STATICCALL ISZERO DUP1 ISZERO PUSH2 0x1470 JUMPI RETURNDATASIZE PUSH1 0x0 DUP1 RETURNDATACOPY RETURNDATASIZE PUSH1 0x0 REVERT JUMPDEST POP POP POP POP PUSH1 0x40 MLOAD RETURNDATASIZE PUSH1 0x0 DUP3 RETURNDATACOPY PUSH1 0x1F RETURNDATASIZE SWAP1 DUP2 ADD PUSH1 0x1F NOT AND DUP3 ADD PUSH1 0x40 MSTORE PUSH2 0x1498 SWAP2 SWAP1 DUP2 ADD SWAP1 PUSH2 0x2226 JUMP JUMPDEST SWAP6 SWAP5 POP POP POP POP POP JUMP JUMPDEST PUSH1 0x0 DUP1 PUSH2 0x1504 GAS PUSH1 0x96 PUSH4 0x66AD5C8A PUSH1 0xE0 SHL DUP10 DUP10 DUP10 DUP10 PUSH1 0x40 MLOAD PUSH1 0x24 ADD PUSH2 0x14C9 SWAP5 SWAP4 SWAP3 SWAP2 SWAP1 PUSH2 0x2293 JUMP JUMPDEST PUSH1 0x40 DUP1 MLOAD PUSH1 0x1F NOT DUP2 DUP5 SUB ADD DUP2 MSTORE SWAP2 SWAP1 MSTORE PUSH1 0x20 DUP2 ADD DUP1 MLOAD PUSH1 0x1 PUSH1 0x1 PUSH1 0xE0 SHL SUB AND PUSH1 0x1 PUSH1 0x1 PUSH1 0xE0 SHL SUB NOT SWAP1 SWAP4 AND SWAP3 SWAP1 SWAP3 OR SWAP1 SWAP2 MSTORE ADDRESS SWAP3 SWAP2 SWAP1 PUSH2 0x18A0 JUMP JUMPDEST SWAP2 POP SWAP2 POP DUP2 PUSH2 0xBF8 JUMPI PUSH2 0xBF8 DUP7 DUP7 DUP7 DUP7 DUP6 PUSH2 0x192A JUMP JUMPDEST PUSH1 0x0 SLOAD PUSH1 0x1 PUSH1 0x1 PUSH1 0xA0 SHL SUB AND CALLER EQ PUSH2 0xC12 JUMPI PUSH1 0x40 MLOAD PUSH3 0x461BCD PUSH1 0xE5 SHL DUP2 MSTORE PUSH1 0x20 PUSH1 0x4 DUP3 ADD DUP2 SWAP1 MSTORE PUSH1 0x24 DUP3 ADD MSTORE PUSH32 0x4F776E61626C653A2063616C6C6572206973206E6F7420746865206F776E6572 PUSH1 0x44 DUP3 ADD MSTORE PUSH1 0x64 ADD PUSH2 0x686 JUMP JUMPDEST PUSH1 0x14 DUP4 ADD MLOAD DUP2 MLOAD PUSH1 0x0 SWAP1 PUSH2 0x1591 SWAP1 DUP5 ADD PUSH1 0x20 SWAP1 DUP2 ADD SWAP1 DUP6 ADD PUSH2 0x22D1 JUMP JUMPDEST SWAP1 POP PUSH2 0xBF8 DUP7 DUP4 DUP4 PUSH2 0x1260 JUMP JUMPDEST PUSH1 0x0 DUP1 SLOAD PUSH1 0x1 PUSH1 0x1 PUSH1 0xA0 SHL SUB DUP4 DUP2 AND PUSH1 0x1 PUSH1 0x1 PUSH1 0xA0 SHL SUB NOT DUP4 AND DUP2 OR DUP5 SSTORE PUSH1 0x40 MLOAD SWAP2 SWAP1 SWAP3 AND SWAP3 DUP4 SWAP2 PUSH32 0x8BE0079C531659141344CD1FD0A4F28419497F9722A3DAAFE3B4186F6B6457E0 SWAP2 SWAP1 LOG3 POP POP JUMP JUMPDEST PUSH1 0x60 DUP2 PUSH2 0x15FC DUP2 PUSH1 0x1F PUSH2 0x22EA JUMP JUMPDEST LT ISZERO PUSH2 0x163B JUMPI PUSH1 0x40 MLOAD PUSH3 0x461BCD PUSH1 0xE5 SHL DUP2 MSTORE PUSH1 0x20 PUSH1 0x4 DUP3 ADD MSTORE PUSH1 0xE PUSH1 0x24 DUP3 ADD MSTORE PUSH14 0x736C6963655F6F766572666C6F77 PUSH1 0x90 SHL PUSH1 0x44 DUP3 ADD MSTORE PUSH1 0x64 ADD PUSH2 0x686 JUMP JUMPDEST PUSH2 0x1645 DUP3 DUP5 PUSH2 0x22EA JUMP JUMPDEST DUP5 MLOAD LT ISZERO PUSH2 0x1689 JUMPI PUSH1 0x40 MLOAD PUSH3 0x461BCD PUSH1 0xE5 SHL DUP2 MSTORE PUSH1 0x20 PUSH1 0x4 DUP3 ADD MSTORE PUSH1 0x11 PUSH1 0x24 DUP3 ADD MSTORE PUSH17 0x736C6963655F6F75744F66426F756E6473 PUSH1 0x78 SHL PUSH1 0x44 DUP3 ADD MSTORE PUSH1 0x64 ADD PUSH2 0x686 JUMP JUMPDEST PUSH1 0x60 DUP3 ISZERO DUP1 ISZERO PUSH2 0x16A8 JUMPI PUSH1 0x40 MLOAD SWAP2 POP PUSH1 0x0 DUP3 MSTORE PUSH1 0x20 DUP3 ADD PUSH1 0x40 MSTORE PUSH2 0x16F2 JUMP JUMPDEST PUSH1 0x40 MLOAD SWAP2 POP PUSH1 0x1F DUP5 AND DUP1 ISZERO PUSH1 0x20 MUL DUP2 DUP5 ADD ADD DUP6 DUP2 ADD DUP8 DUP4 ISZERO PUSH1 0x20 MUL DUP5 DUP12 ADD ADD ADD JUMPDEST DUP2 DUP4 LT ISZERO PUSH2 0x16E1 JUMPI DUP1 MLOAD DUP4 MSTORE PUSH1 0x20 SWAP3 DUP4 ADD SWAP3 ADD PUSH2 0x16C9 JUMP JUMPDEST POP POP DUP6 DUP5 MSTORE PUSH1 0x1F ADD PUSH1 0x1F NOT AND PUSH1 0x40 MSTORE POP JUMPDEST POP SWAP5 SWAP4 POP POP POP POP JUMP JUMPDEST PUSH2 0xFFFF DUP7 AND PUSH1 0x0 SWAP1 DUP2 MSTORE PUSH1 0x1 PUSH1 0x20 MSTORE PUSH1 0x40 DUP2 KECCAK256 DUP1 SLOAD PUSH2 0x1719 SWAP1 PUSH2 0x1EEF JUMP JUMPDEST DUP1 PUSH1 0x1F ADD PUSH1 0x20 DUP1 SWAP2 DIV MUL PUSH1 0x20 ADD PUSH1 0x40 MLOAD SWAP1 DUP2 ADD PUSH1 0x40 MSTORE DUP1 SWAP3 SWAP2 SWAP1 DUP2 DUP2 MSTORE PUSH1 0x20 ADD DUP3 DUP1 SLOAD PUSH2 0x1745 SWAP1 PUSH2 0x1EEF JUMP JUMPDEST DUP1 ISZERO PUSH2 0x1792 JUMPI DUP1 PUSH1 0x1F LT PUSH2 0x1767 JUMPI PUSH2 0x100 DUP1 DUP4 SLOAD DIV MUL DUP4 MSTORE SWAP2 PUSH1 0x20 ADD SWAP2 PUSH2 0x1792 JUMP JUMPDEST DUP3 ADD SWAP2 SWAP1 PUSH1 0x0 MSTORE PUSH1 0x20 PUSH1 0x0 KECCAK256 SWAP1 JUMPDEST DUP2 SLOAD DUP2 MSTORE SWAP1 PUSH1 0x1 ADD SWAP1 PUSH1 0x20 ADD DUP1 DUP4 GT PUSH2 0x1775 JUMPI DUP3 SWAP1 SUB PUSH1 0x1F AND DUP3 ADD SWAP2 JUMPDEST POP POP POP POP POP SWAP1 POP DUP1 MLOAD PUSH1 0x0 SUB PUSH2 0x1803 JUMPI PUSH1 0x40 MLOAD PUSH3 0x461BCD PUSH1 0xE5 SHL DUP2 MSTORE PUSH1 0x20 PUSH1 0x4 DUP3 ADD MSTORE PUSH1 0x30 PUSH1 0x24 DUP3 ADD MSTORE PUSH32 0x4C7A4170703A2064657374696E6174696F6E20636861696E206973206E6F7420 PUSH1 0x44 DUP3 ADD MSTORE PUSH16 0x61207472757374656420736F75726365 PUSH1 0x80 SHL PUSH1 0x64 DUP3 ADD MSTORE PUSH1 0x84 ADD PUSH2 0x686 JUMP JUMPDEST PUSH2 0x180E DUP8 DUP8 MLOAD PUSH2 0x19C7 JUMP JUMPDEST PUSH1 0x40 MLOAD PUSH3 0xC58031 PUSH1 0xE8 SHL DUP2 MSTORE PUSH1 0x1 PUSH1 0x1 PUSH1 0xA0 SHL SUB PUSH32 0x0 AND SWAP1 PUSH4 0xC5803100 SWAP1 DUP5 SWAP1 PUSH2 0x1865 SWAP1 DUP12 SWAP1 DUP7 SWAP1 DUP13 SWAP1 DUP13 SWAP1 DUP13 SWAP1 DUP13 SWAP1 PUSH1 0x4 ADD PUSH2 0x22FD JUMP JUMPDEST PUSH1 0x0 PUSH1 0x40 MLOAD DUP1 DUP4 SUB DUP2 DUP6 DUP9 DUP1 EXTCODESIZE ISZERO DUP1 ISZERO PUSH2 0x187E JUMPI PUSH1 0x0 DUP1 REVERT JUMPDEST POP GAS CALL ISZERO DUP1 ISZERO PUSH2 0x1892 JUMPI RETURNDATASIZE PUSH1 0x0 DUP1 RETURNDATACOPY RETURNDATASIZE PUSH1 0x0 REVERT JUMPDEST POP POP POP POP POP POP POP POP POP POP POP POP JUMP JUMPDEST PUSH1 0x0 PUSH1 0x60 PUSH1 0x0 DUP1 PUSH1 0x0 DUP7 PUSH2 0xFFFF AND PUSH1 0x1 PUSH1 0x1 PUSH1 0x40 SHL SUB DUP2 GT ISZERO PUSH2 0x18C5 JUMPI PUSH2 0x18C5 PUSH2 0x1C27 JUMP JUMPDEST PUSH1 0x40 MLOAD SWAP1 DUP1 DUP3 MSTORE DUP1 PUSH1 0x1F ADD PUSH1 0x1F NOT AND PUSH1 0x20 ADD DUP3 ADD PUSH1 0x40 MSTORE DUP1 ISZERO PUSH2 0x18EF JUMPI PUSH1 0x20 DUP3 ADD DUP2 DUP1 CALLDATASIZE DUP4 CALLDATACOPY ADD SWAP1 POP JUMPDEST POP SWAP1 POP PUSH1 0x0 DUP1 DUP8 MLOAD PUSH1 0x20 DUP10 ADD PUSH1 0x0 DUP14 DUP14 CALL SWAP2 POP RETURNDATASIZE SWAP3 POP DUP7 DUP4 GT ISZERO PUSH2 0x1911 JUMPI DUP7 SWAP3 POP JUMPDEST DUP3 DUP2 MSTORE DUP3 PUSH1 0x0 PUSH1 0x20 DUP4 ADD RETURNDATACOPY SWAP1 SWAP9 SWAP1 SWAP8 POP SWAP6 POP POP POP POP POP POP JUMP JUMPDEST DUP2 DUP1 MLOAD SWAP1 PUSH1 0x20 ADD KECCAK256 PUSH1 0x5 PUSH1 0x0 DUP8 PUSH2 0xFFFF AND PUSH2 0xFFFF AND DUP2 MSTORE PUSH1 0x20 ADD SWAP1 DUP2 MSTORE PUSH1 0x20 ADD PUSH1 0x0 KECCAK256 DUP6 PUSH1 0x40 MLOAD PUSH2 0x195B SWAP2 SWAP1 PUSH2 0x2364 JUMP JUMPDEST SWAP1 DUP2 MSTORE PUSH1 0x40 DUP1 MLOAD SWAP2 DUP3 SWAP1 SUB PUSH1 0x20 SWAP1 DUP2 ADD DUP4 KECCAK256 PUSH1 0x1 PUSH1 0x1 PUSH1 0x40 SHL SUB DUP9 AND PUSH1 0x0 SWAP1 DUP2 MSTORE SWAP2 MSTORE KECCAK256 SWAP2 SWAP1 SWAP2 SSTORE PUSH32 0xE183F33DE2837795525B4792CA4CD60535BD77C53B7E7030060BFCF5734D6B0C SWAP1 PUSH2 0x19B8 SWAP1 DUP8 SWAP1 DUP8 SWAP1 DUP8 SWAP1 DUP8 SWAP1 DUP8 SWAP1 PUSH2 0x2380 JUMP JUMPDEST PUSH1 0x40 MLOAD DUP1 SWAP2 SUB SWAP1 LOG1 POP POP POP POP POP JUMP JUMPDEST PUSH2 0xFFFF DUP3 AND PUSH1 0x0 SWAP1 DUP2 MSTORE PUSH1 0x3 PUSH1 0x20 MSTORE PUSH1 0x40 DUP2 KECCAK256 SLOAD SWAP1 DUP2 SWAP1 SUB PUSH2 0x19E8 JUMPI POP PUSH2 0x2710 JUMPDEST DUP1 DUP3 GT ISZERO PUSH2 0x1A38 JUMPI PUSH1 0x40 MLOAD PUSH3 0x461BCD PUSH1 0xE5 SHL DUP2 MSTORE PUSH1 0x20 PUSH1 0x4 DUP3 ADD DUP2 SWAP1 MSTORE PUSH1 0x24 DUP3 ADD MSTORE PUSH32 0x4C7A4170703A207061796C6F61642073697A6520697320746F6F206C61726765 PUSH1 0x44 DUP3 ADD MSTORE PUSH1 0x64 ADD PUSH2 0x686 JUMP JUMPDEST POP POP POP JUMP JUMPDEST DUP1 CALLDATALOAD PUSH2 0xFFFF DUP2 AND DUP2 EQ PUSH2 0x1A4F JUMPI PUSH1 0x0 DUP1 REVERT JUMPDEST SWAP2 SWAP1 POP JUMP JUMPDEST PUSH1 0x0 DUP1 DUP4 PUSH1 0x1F DUP5 ADD SLT PUSH2 0x1A66 JUMPI PUSH1 0x0 DUP1 REVERT JUMPDEST POP DUP2 CALLDATALOAD PUSH1 0x1 PUSH1 0x1 PUSH1 0x40 SHL SUB DUP2 GT ISZERO PUSH2 0x1A7D JUMPI PUSH1 0x0 DUP1 REVERT JUMPDEST PUSH1 0x20 DUP4 ADD SWAP2 POP DUP4 PUSH1 0x20 DUP3 DUP6 ADD ADD GT ISZERO PUSH2 0x1A95 JUMPI PUSH1 0x0 DUP1 REVERT JUMPDEST SWAP3 POP SWAP3 SWAP1 POP JUMP JUMPDEST DUP1 CALLDATALOAD PUSH1 0x1 PUSH1 0x1 PUSH1 0x40 SHL SUB DUP2 AND DUP2 EQ PUSH2 0x1A4F JUMPI PUSH1 0x0 DUP1 REVERT JUMPDEST PUSH1 0x0 DUP1 PUSH1 0x0 DUP1 PUSH1 0x0 DUP1 PUSH1 0x80 DUP8 DUP10 SUB SLT ISZERO PUSH2 0x1ACC JUMPI PUSH1 0x0 DUP1 REVERT JUMPDEST PUSH2 0x1AD5 DUP8 PUSH2 0x1A3D JUMP JUMPDEST SWAP6 POP PUSH1 0x20 DUP8 ADD CALLDATALOAD PUSH1 0x1 PUSH1 0x1 PUSH1 0x40 SHL SUB DUP1 DUP3 GT ISZERO PUSH2 0x1AF1 JUMPI PUSH1 0x0 DUP1 REVERT JUMPDEST PUSH2 0x1AFD DUP11 DUP4 DUP12 ADD PUSH2 0x1A54 JUMP JUMPDEST SWAP1 SWAP8 POP SWAP6 POP DUP6 SWAP2 POP PUSH2 0x1B11 PUSH1 0x40 DUP11 ADD PUSH2 0x1A9C JUMP JUMPDEST SWAP5 POP PUSH1 0x60 DUP10 ADD CALLDATALOAD SWAP2 POP DUP1 DUP3 GT ISZERO PUSH2 0x1B27 JUMPI PUSH1 0x0 DUP1 REVERT JUMPDEST POP PUSH2 0x1B34 DUP10 DUP3 DUP11 ADD PUSH2 0x1A54 JUMP JUMPDEST SWAP8 SWAP11 SWAP7 SWAP10 POP SWAP5 SWAP8 POP SWAP3 SWAP6 SWAP4 SWAP5 SWAP3 POP POP POP JUMP JUMPDEST PUSH1 0x0 PUSH1 0x20 DUP3 DUP5 SUB SLT ISZERO PUSH2 0x1B58 JUMPI PUSH1 0x0 DUP1 REVERT JUMPDEST PUSH2 0xDBD DUP3 PUSH2 0x1A3D JUMP JUMPDEST PUSH1 0x0 DUP1 PUSH1 0x40 DUP4 DUP6 SUB SLT ISZERO PUSH2 0x1B74 JUMPI PUSH1 0x0 DUP1 REVERT JUMPDEST PUSH2 0x1B7D DUP4 PUSH2 0x1A3D JUMP JUMPDEST SWAP5 PUSH1 0x20 SWAP4 SWAP1 SWAP4 ADD CALLDATALOAD SWAP4 POP POP POP JUMP JUMPDEST DUP1 CALLDATALOAD PUSH1 0x1 PUSH1 0x1 PUSH1 0xA0 SHL SUB DUP2 AND DUP2 EQ PUSH2 0x1A4F JUMPI PUSH1 0x0 DUP1 REVERT JUMPDEST PUSH1 0x0 DUP1 PUSH1 0x40 DUP4 DUP6 SUB SLT ISZERO PUSH2 0x1BB5 JUMPI PUSH1 0x0 DUP1 REVERT JUMPDEST PUSH2 0x1BBE DUP4 PUSH2 0x1B8B JUMP JUMPDEST SWAP2 POP PUSH2 0x1BCC PUSH1 0x20 DUP5 ADD PUSH2 0x1A3D JUMP JUMPDEST SWAP1 POP SWAP3 POP SWAP3 SWAP1 POP JUMP JUMPDEST PUSH1 0x0 DUP1 PUSH1 0x0 PUSH1 0x40 DUP5 DUP7 SUB SLT ISZERO PUSH2 0x1BEA JUMPI PUSH1 0x0 DUP1 REVERT JUMPDEST PUSH2 0x1BF3 DUP5 PUSH2 0x1A3D JUMP JUMPDEST SWAP3 POP PUSH1 0x20 DUP5 ADD CALLDATALOAD PUSH1 0x1 PUSH1 0x1 PUSH1 0x40 SHL SUB DUP2 GT ISZERO PUSH2 0x1C0E JUMPI PUSH1 0x0 DUP1 REVERT JUMPDEST PUSH2 0x1C1A DUP7 DUP3 DUP8 ADD PUSH2 0x1A54 JUMP JUMPDEST SWAP5 SWAP8 SWAP1 SWAP7 POP SWAP4 SWAP5 POP POP POP POP JUMP JUMPDEST PUSH4 0x4E487B71 PUSH1 0xE0 SHL PUSH1 0x0 MSTORE PUSH1 0x41 PUSH1 0x4 MSTORE PUSH1 0x24 PUSH1 0x0 REVERT JUMPDEST PUSH1 0x40 MLOAD PUSH1 0x1F DUP3 ADD PUSH1 0x1F NOT AND DUP2 ADD PUSH1 0x1 PUSH1 0x1 PUSH1 0x40 SHL SUB DUP2 GT DUP3 DUP3 LT OR ISZERO PUSH2 0x1C65 JUMPI PUSH2 0x1C65 PUSH2 0x1C27 JUMP JUMPDEST PUSH1 0x40 MSTORE SWAP2 SWAP1 POP JUMP JUMPDEST PUSH1 0x0 PUSH1 0x1 PUSH1 0x1 PUSH1 0x40 SHL SUB DUP3 GT ISZERO PUSH2 0x1C86 JUMPI PUSH2 0x1C86 PUSH2 0x1C27 JUMP JUMPDEST POP PUSH1 0x1F ADD PUSH1 0x1F NOT AND PUSH1 0x20 ADD SWAP1 JUMP JUMPDEST PUSH1 0x0 DUP1 PUSH1 0x0 PUSH1 0x60 DUP5 DUP7 SUB SLT ISZERO PUSH2 0x1CA9 JUMPI PUSH1 0x0 DUP1 REVERT JUMPDEST PUSH2 0x1CB2 DUP5 PUSH2 0x1A3D JUMP JUMPDEST SWAP3 POP PUSH1 0x20 DUP5 ADD CALLDATALOAD PUSH1 0x1 PUSH1 0x1 PUSH1 0x40 SHL SUB DUP2 GT ISZERO PUSH2 0x1CCD JUMPI PUSH1 0x0 DUP1 REVERT JUMPDEST DUP5 ADD PUSH1 0x1F DUP2 ADD DUP7 SGT PUSH2 0x1CDE JUMPI PUSH1 0x0 DUP1 REVERT JUMPDEST DUP1 CALLDATALOAD PUSH2 0x1CF1 PUSH2 0x1CEC DUP3 PUSH2 0x1C6D JUMP JUMPDEST PUSH2 0x1C3D JUMP JUMPDEST DUP2 DUP2 MSTORE DUP8 PUSH1 0x20 DUP4 DUP6 ADD ADD GT ISZERO PUSH2 0x1D06 JUMPI PUSH1 0x0 DUP1 REVERT JUMPDEST DUP2 PUSH1 0x20 DUP5 ADD PUSH1 0x20 DUP4 ADD CALLDATACOPY PUSH1 0x0 PUSH1 0x20 DUP4 DUP4 ADD ADD MSTORE DUP1 SWAP5 POP POP POP POP PUSH2 0x1D2B PUSH1 0x40 DUP6 ADD PUSH2 0x1A9C JUMP JUMPDEST SWAP1 POP SWAP3 POP SWAP3 POP SWAP3 JUMP JUMPDEST PUSH1 0x0 JUMPDEST DUP4 DUP2 LT ISZERO PUSH2 0x1D4F JUMPI DUP2 DUP2 ADD MLOAD DUP4 DUP3 ADD MSTORE PUSH1 0x20 ADD PUSH2 0x1D37 JUMP JUMPDEST POP POP PUSH1 0x0 SWAP2 ADD MSTORE JUMP JUMPDEST PUSH1 0x0 DUP2 MLOAD DUP1 DUP5 MSTORE PUSH2 0x1D70 DUP2 PUSH1 0x20 DUP7 ADD PUSH1 0x20 DUP7 ADD PUSH2 0x1D34 JUMP JUMPDEST PUSH1 0x1F ADD PUSH1 0x1F NOT AND SWAP3 SWAP1 SWAP3 ADD PUSH1 0x20 ADD SWAP3 SWAP2 POP POP JUMP JUMPDEST PUSH1 0x20 DUP2 MSTORE PUSH1 0x0 PUSH2 0xDBD PUSH1 0x20 DUP4 ADD DUP5 PUSH2 0x1D58 JUMP JUMPDEST PUSH1 0x0 DUP1 PUSH1 0x40 DUP4 DUP6 SUB SLT ISZERO PUSH2 0x1DAA JUMPI PUSH1 0x0 DUP1 REVERT JUMPDEST PUSH2 0x1BBE DUP4 PUSH2 0x1A3D JUMP JUMPDEST PUSH1 0x0 PUSH1 0x20 DUP3 DUP5 SUB SLT ISZERO PUSH2 0x1DC5 JUMPI PUSH1 0x0 DUP1 REVERT JUMPDEST PUSH2 0xDBD DUP3 PUSH2 0x1B8B JUMP JUMPDEST PUSH1 0x0 DUP1 PUSH1 0x0 DUP1 PUSH1 0x0 PUSH1 0x80 DUP7 DUP9 SUB SLT ISZERO PUSH2 0x1DE6 JUMPI PUSH1 0x0 DUP1 REVERT JUMPDEST PUSH2 0x1DEF DUP7 PUSH2 0x1A3D JUMP JUMPDEST SWAP5 POP PUSH2 0x1DFD PUSH1 0x20 DUP8 ADD PUSH2 0x1A3D JUMP JUMPDEST SWAP4 POP PUSH1 0x40 DUP7 ADD CALLDATALOAD SWAP3 POP PUSH1 0x60 DUP7 ADD CALLDATALOAD PUSH1 0x1 PUSH1 0x1 PUSH1 0x40 SHL SUB DUP2 GT ISZERO PUSH2 0x1E1F JUMPI PUSH1 0x0 DUP1 REVERT JUMPDEST PUSH2 0x1E2B DUP9 DUP3 DUP10 ADD PUSH2 0x1A54 JUMP JUMPDEST SWAP7 SWAP10 SWAP6 SWAP9 POP SWAP4 SWAP7 POP SWAP3 SWAP5 SWAP4 SWAP3 POP POP POP JUMP JUMPDEST PUSH1 0x0 DUP1 PUSH1 0x0 PUSH1 0x60 DUP5 DUP7 SUB SLT ISZERO PUSH2 0x1E51 JUMPI PUSH1 0x0 DUP1 REVERT JUMPDEST PUSH2 0x1E5A DUP5 PUSH2 0x1A3D JUMP JUMPDEST SWAP3 POP PUSH2 0x1E68 PUSH1 0x20 DUP6 ADD PUSH2 0x1A3D JUMP JUMPDEST SWAP2 POP PUSH1 0x40 DUP5 ADD CALLDATALOAD SWAP1 POP SWAP3 POP SWAP3 POP SWAP3 JUMP JUMPDEST PUSH1 0x0 DUP1 PUSH1 0x0 PUSH1 0x60 DUP5 DUP7 SUB SLT ISZERO PUSH2 0x1E8D JUMPI PUSH1 0x0 DUP1 REVERT JUMPDEST PUSH2 0x1E96 DUP5 PUSH2 0x1A3D JUMP JUMPDEST SWAP3 POP PUSH2 0x1E68 PUSH1 0x20 DUP6 ADD PUSH2 0x1B8B JUMP JUMPDEST PUSH1 0x0 DUP1 PUSH1 0x0 DUP1 PUSH1 0x80 DUP6 DUP8 SUB SLT ISZERO PUSH2 0x1EBA JUMPI PUSH1 0x0 DUP1 REVERT JUMPDEST PUSH2 0x1EC3 DUP6 PUSH2 0x1A3D JUMP JUMPDEST SWAP4 POP PUSH2 0x1ED1 PUSH1 0x20 DUP7 ADD PUSH2 0x1A3D JUMP JUMPDEST SWAP3 POP PUSH2 0x1EDF PUSH1 0x40 DUP7 ADD PUSH2 0x1B8B JUMP JUMPDEST SWAP4 SWAP7 SWAP3 SWAP6 POP SWAP3 SWAP4 PUSH1 0x60 ADD CALLDATALOAD SWAP3 POP POP JUMP JUMPDEST PUSH1 0x1 DUP2 DUP2 SHR SWAP1 DUP3 AND DUP1 PUSH2 0x1F03 JUMPI PUSH1 0x7F DUP3 AND SWAP2 POP JUMPDEST PUSH1 0x20 DUP3 LT DUP2 SUB PUSH2 0x1F23 JUMPI PUSH4 0x4E487B71 PUSH1 0xE0 SHL PUSH1 0x0 MSTORE PUSH1 0x22 PUSH1 0x4 MSTORE PUSH1 0x24 PUSH1 0x0 REVERT JUMPDEST POP SWAP2 SWAP1 POP JUMP JUMPDEST DUP2 DUP4 DUP3 CALLDATACOPY PUSH1 0x0 SWAP2 ADD SWAP1 DUP2 MSTORE SWAP2 SWAP1 POP JUMP JUMPDEST PUSH1 0x1F DUP3 GT ISZERO PUSH2 0x1A38 JUMPI PUSH1 0x0 DUP2 DUP2 MSTORE PUSH1 0x20 DUP2 KECCAK256 PUSH1 0x1F DUP6 ADD PUSH1 0x5 SHR DUP2 ADD PUSH1 0x20 DUP7 LT ISZERO PUSH2 0x1F60 JUMPI POP DUP1 JUMPDEST PUSH1 0x1F DUP6 ADD PUSH1 0x5 SHR DUP3 ADD SWAP2 POP JUMPDEST DUP2 DUP2 LT ISZERO PUSH2 0xBF8 JUMPI DUP3 DUP2 SSTORE PUSH1 0x1 ADD PUSH2 0x1F6C JUMP JUMPDEST DUP2 MLOAD PUSH1 0x1 PUSH1 0x1 PUSH1 0x40 SHL SUB DUP2 GT ISZERO PUSH2 0x1F98 JUMPI PUSH2 0x1F98 PUSH2 0x1C27 JUMP JUMPDEST PUSH2 0x1FAC DUP2 PUSH2 0x1FA6 DUP5 SLOAD PUSH2 0x1EEF JUMP JUMPDEST DUP5 PUSH2 0x1F39 JUMP JUMPDEST PUSH1 0x20 DUP1 PUSH1 0x1F DUP4 GT PUSH1 0x1 DUP2 EQ PUSH2 0x1FE1 JUMPI PUSH1 0x0 DUP5 ISZERO PUSH2 0x1FC9 JUMPI POP DUP6 DUP4 ADD MLOAD JUMPDEST PUSH1 0x0 NOT PUSH1 0x3 DUP7 SWAP1 SHL SHR NOT AND PUSH1 0x1 DUP6 SWAP1 SHL OR DUP6 SSTORE PUSH2 0xBF8 JUMP JUMPDEST PUSH1 0x0 DUP6 DUP2 MSTORE PUSH1 0x20 DUP2 KECCAK256 PUSH1 0x1F NOT DUP7 AND SWAP2 JUMPDEST DUP3 DUP2 LT ISZERO PUSH2 0x2010 JUMPI DUP9 DUP7 ADD MLOAD DUP3 SSTORE SWAP5 DUP5 ADD SWAP5 PUSH1 0x1 SWAP1 SWAP2 ADD SWAP1 DUP5 ADD PUSH2 0x1FF1 JUMP JUMPDEST POP DUP6 DUP3 LT ISZERO PUSH2 0x202E JUMPI DUP8 DUP6 ADD MLOAD PUSH1 0x0 NOT PUSH1 0x3 DUP9 SWAP1 SHL PUSH1 0xF8 AND SHR NOT AND DUP2 SSTORE JUMPDEST POP POP POP POP POP PUSH1 0x1 SWAP1 DUP2 SHL ADD SWAP1 SSTORE POP JUMP JUMPDEST DUP2 DUP4 MSTORE DUP2 DUP2 PUSH1 0x20 DUP6 ADD CALLDATACOPY POP PUSH1 0x0 DUP3 DUP3 ADD PUSH1 0x20 SWAP1 DUP2 ADD SWAP2 SWAP1 SWAP2 MSTORE PUSH1 0x1F SWAP1 SWAP2 ADD PUSH1 0x1F NOT AND SWAP1 SWAP2 ADD ADD SWAP1 JUMP JUMPDEST PUSH2 0xFFFF DUP5 AND DUP2 MSTORE PUSH1 0x40 PUSH1 0x20 DUP3 ADD MSTORE PUSH1 0x0 PUSH2 0x1498 PUSH1 0x40 DUP4 ADD DUP5 DUP7 PUSH2 0x203E JUMP JUMPDEST PUSH4 0x4E487B71 PUSH1 0xE0 SHL PUSH1 0x0 MSTORE PUSH1 0x11 PUSH1 0x4 MSTORE PUSH1 0x24 PUSH1 0x0 REVERT JUMPDEST DUP2 DUP2 SUB DUP2 DUP2 GT ISZERO PUSH2 0x20AE JUMPI PUSH2 0x20AE PUSH2 0x2085 JUMP JUMPDEST SWAP3 SWAP2 POP POP JUMP JUMPDEST DUP3 DUP5 DUP3 CALLDATACOPY PUSH1 0x60 SWAP2 SWAP1 SWAP2 SHL PUSH12 0xFFFFFFFFFFFFFFFFFFFFFFFF NOT AND SWAP2 ADD SWAP1 DUP2 MSTORE PUSH1 0x14 ADD SWAP2 SWAP1 POP JUMP JUMPDEST PUSH1 0x0 PUSH2 0xFFFF DUP1 DUP9 AND DUP4 MSTORE DUP1 DUP8 AND PUSH1 0x20 DUP5 ADD MSTORE POP DUP5 PUSH1 0x40 DUP4 ADD MSTORE PUSH1 0x80 PUSH1 0x60 DUP4 ADD MSTORE PUSH2 0x2108 PUSH1 0x80 DUP4 ADD DUP5 DUP7 PUSH2 0x203E JUMP JUMPDEST SWAP8 SWAP7 POP POP POP POP POP POP POP JUMP JUMPDEST PUSH2 0xFFFF DUP7 AND DUP2 MSTORE PUSH1 0x80 PUSH1 0x20 DUP3 ADD MSTORE PUSH1 0x0 PUSH2 0x2131 PUSH1 0x80 DUP4 ADD DUP7 DUP9 PUSH2 0x203E JUMP JUMPDEST PUSH1 0x1 PUSH1 0x1 PUSH1 0x40 SHL SUB SWAP5 SWAP1 SWAP5 AND PUSH1 0x40 DUP4 ADD MSTORE POP PUSH1 0x60 ADD MSTORE SWAP4 SWAP3 POP POP POP JUMP JUMPDEST PUSH1 0x1 PUSH1 0x1 PUSH1 0x40 SHL SUB DUP4 GT ISZERO PUSH2 0x2165 JUMPI PUSH2 0x2165 PUSH2 0x1C27 JUMP JUMPDEST PUSH2 0x2179 DUP4 PUSH2 0x2173 DUP4 SLOAD PUSH2 0x1EEF JUMP JUMPDEST DUP4 PUSH2 0x1F39 JUMP JUMPDEST PUSH1 0x0 PUSH1 0x1F DUP5 GT PUSH1 0x1 DUP2 EQ PUSH2 0x21AD JUMPI PUSH1 0x0 DUP6 ISZERO PUSH2 0x2195 JUMPI POP DUP4 DUP3 ADD CALLDATALOAD JUMPDEST PUSH1 0x0 NOT PUSH1 0x3 DUP8 SWAP1 SHL SHR NOT AND PUSH1 0x1 DUP7 SWAP1 SHL OR DUP4 SSTORE PUSH2 0x8C5 JUMP JUMPDEST PUSH1 0x0 DUP4 DUP2 MSTORE PUSH1 0x20 SWAP1 KECCAK256 PUSH1 0x1F NOT DUP7 AND SWAP1 DUP4 JUMPDEST DUP3 DUP2 LT ISZERO PUSH2 0x21DE JUMPI DUP7 DUP6 ADD CALLDATALOAD DUP3 SSTORE PUSH1 0x20 SWAP5 DUP6 ADD SWAP5 PUSH1 0x1 SWAP1 SWAP3 ADD SWAP2 ADD PUSH2 0x21BE JUMP JUMPDEST POP DUP7 DUP3 LT ISZERO PUSH2 0x21FB JUMPI PUSH1 0x0 NOT PUSH1 0xF8 DUP9 PUSH1 0x3 SHL AND SHR NOT DUP5 DUP8 ADD CALLDATALOAD AND DUP2 SSTORE JUMPDEST POP POP PUSH1 0x1 DUP6 PUSH1 0x1 SHL ADD DUP4 SSTORE POP POP POP POP POP JUMP JUMPDEST PUSH1 0x0 PUSH1 0x1 DUP3 ADD PUSH2 0x221F JUMPI PUSH2 0x221F PUSH2 0x2085 JUMP JUMPDEST POP PUSH1 0x1 ADD SWAP1 JUMP JUMPDEST PUSH1 0x0 PUSH1 0x20 DUP3 DUP5 SUB SLT ISZERO PUSH2 0x2238 JUMPI PUSH1 0x0 DUP1 REVERT JUMPDEST DUP2 MLOAD PUSH1 0x1 PUSH1 0x1 PUSH1 0x40 SHL SUB DUP2 GT ISZERO PUSH2 0x224E JUMPI PUSH1 0x0 DUP1 REVERT JUMPDEST DUP3 ADD PUSH1 0x1F DUP2 ADD DUP5 SGT PUSH2 0x225F JUMPI PUSH1 0x0 DUP1 REVERT JUMPDEST DUP1 MLOAD PUSH2 0x226D PUSH2 0x1CEC DUP3 PUSH2 0x1C6D JUMP JUMPDEST DUP2 DUP2 MSTORE DUP6 PUSH1 0x20 DUP4 DUP6 ADD ADD GT ISZERO PUSH2 0x2282 JUMPI PUSH1 0x0 DUP1 REVERT JUMPDEST PUSH2 0x1498 DUP3 PUSH1 0x20 DUP4 ADD PUSH1 0x20 DUP7 ADD PUSH2 0x1D34 JUMP JUMPDEST PUSH2 0xFFFF DUP6 AND DUP2 MSTORE PUSH1 0x80 PUSH1 0x20 DUP3 ADD MSTORE PUSH1 0x0 PUSH2 0x22B0 PUSH1 0x80 DUP4 ADD DUP7 PUSH2 0x1D58 JUMP JUMPDEST PUSH1 0x1 PUSH1 0x1 PUSH1 0x40 SHL SUB DUP6 AND PUSH1 0x40 DUP5 ADD MSTORE DUP3 DUP2 SUB PUSH1 0x60 DUP5 ADD MSTORE PUSH2 0x2108 DUP2 DUP6 PUSH2 0x1D58 JUMP JUMPDEST PUSH1 0x0 PUSH1 0x20 DUP3 DUP5 SUB SLT ISZERO PUSH2 0x22E3 JUMPI PUSH1 0x0 DUP1 REVERT JUMPDEST POP MLOAD SWAP2 SWAP1 POP JUMP JUMPDEST DUP1 DUP3 ADD DUP1 DUP3 GT ISZERO PUSH2 0x20AE JUMPI PUSH2 0x20AE PUSH2 0x2085 JUMP JUMPDEST PUSH2 0xFFFF DUP8 AND DUP2 MSTORE PUSH1 0xC0 PUSH1 0x20 DUP3 ADD MSTORE PUSH1 0x0 PUSH2 0x231A PUSH1 0xC0 DUP4 ADD DUP9 PUSH2 0x1D58 JUMP JUMPDEST DUP3 DUP2 SUB PUSH1 0x40 DUP5 ADD MSTORE PUSH2 0x232C DUP2 DUP9 PUSH2 0x1D58 JUMP JUMPDEST PUSH1 0x1 PUSH1 0x1 PUSH1 0xA0 SHL SUB DUP8 DUP2 AND PUSH1 0x60 DUP7 ADD MSTORE DUP7 AND PUSH1 0x80 DUP6 ADD MSTORE DUP4 DUP2 SUB PUSH1 0xA0 DUP6 ADD MSTORE SWAP1 POP PUSH2 0x2357 DUP2 DUP6 PUSH2 0x1D58 JUMP JUMPDEST SWAP10 SWAP9 POP POP POP POP POP POP POP POP POP JUMP JUMPDEST PUSH1 0x0 DUP3 MLOAD PUSH2 0x2376 DUP2 DUP5 PUSH1 0x20 DUP8 ADD PUSH2 0x1D34 JUMP JUMPDEST SWAP2 SWAP1 SWAP2 ADD SWAP3 SWAP2 POP POP JUMP JUMPDEST PUSH2 0xFFFF DUP7 AND DUP2 MSTORE PUSH1 0xA0 PUSH1 0x20 DUP3 ADD MSTORE PUSH1 0x0 PUSH2 0x239D PUSH1 0xA0 DUP4 ADD DUP8 PUSH2 0x1D58 JUMP JUMPDEST PUSH1 0x1 PUSH1 0x1 PUSH1 0x40 SHL SUB DUP7 AND PUSH1 0x40 DUP5 ADD MSTORE DUP3 DUP2 SUB PUSH1 0x60 DUP5 ADD MSTORE PUSH2 0x23BE DUP2 DUP7 PUSH2 0x1D58 JUMP JUMPDEST SWAP1 POP DUP3 DUP2 SUB PUSH1 0x80 DUP5 ADD MSTORE PUSH2 0x23D2 DUP2 DUP6 PUSH2 0x1D58 JUMP JUMPDEST SWAP9 SWAP8 POP POP POP POP POP POP POP POP JUMP INVALID LOG2 PUSH5 0x6970667358 0x22 SLT KECCAK256 0xE7 0xFB MSTORE8 PUSH22 0x6FE8ABF3DECD4851DD3DE235504BB75909605A9CD202 0x28 AND 0x2E 0xBE 0xB9 0xE0 PUSH5 0x736F6C6343 STOP ADDMOD SLT STOP CALLER "
				},
				"gasEstimates": {
					"creation": {
						"codeDepositCost": "1847200",
						"executionCost": "infinite",
						"totalCost": "infinite"
					},
					"external": {
						"DEFAULT_PAYLOAD_SIZE_LIMIT()": "306",
						"failedMessages(uint16,bytes,uint64)": "infinite",
						"forceResumeReceive(uint16,bytes)": "infinite",
						"getConfig(uint16,uint16,address,uint256)": "infinite",
						"getTrustedRemoteAddress(uint16)": "infinite",
						"isTrustedRemote(uint16,bytes)": "infinite",
						"lzEndpoint()": "infinite",
						"lzReceive(uint16,bytes,uint64,bytes)": "infinite",
						"lzc()": "2392",
						"minDstGasLookup(uint16,uint16)": "infinite",
						"nonblockingLzReceive(uint16,bytes,uint64,bytes)": "infinite",
						"owner()": "2366",
						"payloadSizeLimitLookup(uint16)": "2553",
						"ping(uint16,address,uint256)": "infinite",
						"precrime()": "2405",
						"renounceOwnership()": "infinite",
						"retryMessage(uint16,bytes,uint64,bytes)": "infinite",
						"setConfig(uint16,uint16,uint256,bytes)": "infinite",
						"setMinDstGas(uint16,uint16,uint256)": "infinite",
						"setPayloadSizeLimit(uint16,uint256)": "24747",
						"setPrecrime(address)": "27877",
						"setReceiveVersion(uint16)": "infinite",
						"setSendVersion(uint16)": "infinite",
						"setSpoke(address,uint16)": "infinite",
						"setTrustedRemote(uint16,bytes)": "infinite",
						"setTrustedRemoteAddress(uint16,bytes)": "infinite",
						"spokes(uint16)": "2613",
						"transferOwnership(address)": "28421",
						"trustedRemoteLookup(uint16)": "infinite"
					},
					"internal": {
						"_nonblockingLzReceive(uint16,bytes memory,uint64,bytes memory)": "infinite"
					}
				},
				"methodIdentifiers": {
					"DEFAULT_PAYLOAD_SIZE_LIMIT()": "c4461834",
					"failedMessages(uint16,bytes,uint64)": "5b8c41e6",
					"forceResumeReceive(uint16,bytes)": "42d65a8d",
					"getConfig(uint16,uint16,address,uint256)": "f5ecbdbc",
					"getTrustedRemoteAddress(uint16)": "9f38369a",
					"isTrustedRemote(uint16,bytes)": "3d8b38f6",
					"lzEndpoint()": "b353aaa7",
					"lzReceive(uint16,bytes,uint64,bytes)": "001d3567",
					"lzc()": "30ff44b6",
					"minDstGasLookup(uint16,uint16)": "8cfd8f5c",
					"nonblockingLzReceive(uint16,bytes,uint64,bytes)": "66ad5c8a",
					"owner()": "8da5cb5b",
					"payloadSizeLimitLookup(uint16)": "3f1f4fa4",
					"ping(uint16,address,uint256)": "f2d566fc",
					"precrime()": "950c8a74",
					"renounceOwnership()": "715018a6",
					"retryMessage(uint16,bytes,uint64,bytes)": "d1deba1f",
					"setConfig(uint16,uint16,uint256,bytes)": "cbed8b9c",
					"setMinDstGas(uint16,uint16,uint256)": "df2a5b3b",
					"setPayloadSizeLimit(uint16,uint256)": "0df37483",
					"setPrecrime(address)": "baf3292d",
					"setReceiveVersion(uint16)": "10ddb137",
					"setSendVersion(uint16)": "07e0db17",
					"setSpoke(address,uint16)": "3057c9be",
					"setTrustedRemote(uint16,bytes)": "eb8d72b7",
					"setTrustedRemoteAddress(uint16,bytes)": "a6c3d165",
					"spokes(uint16)": "cfe27eba",
					"transferOwnership(address)": "f2fde38b",
					"trustedRemoteLookup(uint16)": "7533d788"
				}
			},
			"storageLayout": {
				"storage": [
					{
						"astId": 1150,
						"contract": "contracts/examples/PingPong.sol:PingPong",
						"label": "_owner",
						"offset": 0,
						"slot": "0",
						"type": "t_address"
					},
					{
						"astId": 378,
						"contract": "contracts/examples/PingPong.sol:PingPong",
						"label": "trustedRemoteLookup",
						"offset": 0,
						"slot": "1",
						"type": "t_mapping(t_uint16,t_bytes_storage)"
					},
					{
						"astId": 384,
						"contract": "contracts/examples/PingPong.sol:PingPong",
						"label": "minDstGasLookup",
						"offset": 0,
						"slot": "2",
						"type": "t_mapping(t_uint16,t_mapping(t_uint16,t_uint256))"
					},
					{
						"astId": 388,
						"contract": "contracts/examples/PingPong.sol:PingPong",
						"label": "payloadSizeLimitLookup",
						"offset": 0,
						"slot": "3",
						"type": "t_mapping(t_uint16,t_uint256)"
					},
					{
						"astId": 390,
						"contract": "contracts/examples/PingPong.sol:PingPong",
						"label": "precrime",
						"offset": 0,
						"slot": "4",
						"type": "t_address"
					},
					{
						"astId": 927,
						"contract": "contracts/examples/PingPong.sol:PingPong",
						"label": "failedMessages",
						"offset": 0,
						"slot": "5",
						"type": "t_mapping(t_uint16,t_mapping(t_bytes_memory_ptr,t_mapping(t_uint64,t_bytes32)))"
					},
					{
						"astId": 11,
						"contract": "contracts/examples/PingPong.sol:PingPong",
						"label": "lzc",
						"offset": 0,
						"slot": "6",
						"type": "t_uint16"
					},
					{
						"astId": 15,
						"contract": "contracts/examples/PingPong.sol:PingPong",
						"label": "spokes",
						"offset": 0,
						"slot": "7",
						"type": "t_mapping(t_uint16,t_address)"
					}
				],
				"types": {
					"t_address": {
						"encoding": "inplace",
						"label": "address",
						"numberOfBytes": "20"
					},
					"t_bytes32": {
						"encoding": "inplace",
						"label": "bytes32",
						"numberOfBytes": "32"
					},
					"t_bytes_memory_ptr": {
						"encoding": "bytes",
						"label": "bytes",
						"numberOfBytes": "32"
					},
					"t_bytes_storage": {
						"encoding": "bytes",
						"label": "bytes",
						"numberOfBytes": "32"
					},
					"t_mapping(t_bytes_memory_ptr,t_mapping(t_uint64,t_bytes32))": {
						"encoding": "mapping",
						"key": "t_bytes_memory_ptr",
						"label": "mapping(bytes => mapping(uint64 => bytes32))",
						"numberOfBytes": "32",
						"value": "t_mapping(t_uint64,t_bytes32)"
					},
					"t_mapping(t_uint16,t_address)": {
						"encoding": "mapping",
						"key": "t_uint16",
						"label": "mapping(uint16 => address)",
						"numberOfBytes": "32",
						"value": "t_address"
					},
					"t_mapping(t_uint16,t_bytes_storage)": {
						"encoding": "mapping",
						"key": "t_uint16",
						"label": "mapping(uint16 => bytes)",
						"numberOfBytes": "32",
						"value": "t_bytes_storage"
					},
					"t_mapping(t_uint16,t_mapping(t_bytes_memory_ptr,t_mapping(t_uint64,t_bytes32)))": {
						"encoding": "mapping",
						"key": "t_uint16",
						"label": "mapping(uint16 => mapping(bytes => mapping(uint64 => bytes32)))",
						"numberOfBytes": "32",
						"value": "t_mapping(t_bytes_memory_ptr,t_mapping(t_uint64,t_bytes32))"
					},
					"t_mapping(t_uint16,t_mapping(t_uint16,t_uint256))": {
						"encoding": "mapping",
						"key": "t_uint16",
						"label": "mapping(uint16 => mapping(uint16 => uint256))",
						"numberOfBytes": "32",
						"value": "t_mapping(t_uint16,t_uint256)"
					},
					"t_mapping(t_uint16,t_uint256)": {
						"encoding": "mapping",
						"key": "t_uint16",
						"label": "mapping(uint16 => uint256)",
						"numberOfBytes": "32",
						"value": "t_uint256"
					},
					"t_mapping(t_uint64,t_bytes32)": {
						"encoding": "mapping",
						"key": "t_uint64",
						"label": "mapping(uint64 => bytes32)",
						"numberOfBytes": "32",
						"value": "t_bytes32"
					},
					"t_uint16": {
						"encoding": "inplace",
						"label": "uint16",
						"numberOfBytes": "2"
					},
					"t_uint256": {
						"encoding": "inplace",
						"label": "uint256",
						"numberOfBytes": "32"
					},
					"t_uint64": {
						"encoding": "inplace",
						"label": "uint64",
						"numberOfBytes": "8"
					}
				}
			},
			"userdoc": {
				"kind": "user",
				"methods": {},
				"version": 1
			}
		}
	}
}