{
	"contracts/examples/OmniMessage.sol": {
		"OmniMessage": {
			"abi": [
				{
					"inputs": [
						{
							"internalType": "address",
							"name": "_lzEndpoint",
							"type": "address"
						},
						{
							"internalType": "uint16",
							"name": "dest_cid",
							"type": "uint16"
						}
					],
					"stateMutability": "nonpayable",
					"type": "constructor"
				},
				{
					"anonymous": false,
					"inputs": [
						{
							"indexed": false,
							"internalType": "uint256",
							"name": "balance",
							"type": "uint256"
						}
					],
					"name": "Balance",
					"type": "event"
				},
				{
					"anonymous": false,
					"inputs": [
						{
							"indexed": false,
							"internalType": "uint16",
							"name": "_srcChainId",
							"type": "uint16"
						},
						{
							"indexed": false,
							"internalType": "bytes",
							"name": "_srcAddress",
							"type": "bytes"
						},
						{
							"indexed": false,
							"internalType": "uint64",
							"name": "_nonce",
							"type": "uint64"
						},
						{
							"indexed": false,
							"internalType": "bytes",
							"name": "_payload",
							"type": "bytes"
						},
						{
							"indexed": false,
							"internalType": "bytes",
							"name": "_reason",
							"type": "bytes"
						}
					],
					"name": "MessageFailed",
					"type": "event"
				},
				{
					"anonymous": false,
					"inputs": [
						{
							"indexed": true,
							"internalType": "address",
							"name": "previousOwner",
							"type": "address"
						},
						{
							"indexed": true,
							"internalType": "address",
							"name": "newOwner",
							"type": "address"
						}
					],
					"name": "OwnershipTransferred",
					"type": "event"
				},
				{
					"anonymous": false,
					"inputs": [
						{
							"indexed": false,
							"internalType": "uint16",
							"name": "_srcChainId",
							"type": "uint16"
						},
						{
							"indexed": false,
							"internalType": "bytes",
							"name": "_srcAddress",
							"type": "bytes"
						},
						{
							"indexed": false,
							"internalType": "uint64",
							"name": "_nonce",
							"type": "uint64"
						},
						{
							"indexed": false,
							"internalType": "bytes32",
							"name": "_payloadHash",
							"type": "bytes32"
						}
					],
					"name": "RetryMessageSuccess",
					"type": "event"
				},
				{
					"anonymous": false,
					"inputs": [
						{
							"indexed": false,
							"internalType": "address",
							"name": "sender",
							"type": "address"
						}
					],
					"name": "SenderAddress",
					"type": "event"
				},
				{
					"anonymous": false,
					"inputs": [
						{
							"indexed": false,
							"internalType": "uint256",
							"name": "chain_id",
							"type": "uint256"
						}
					],
					"name": "SenderChainID",
					"type": "event"
				},
				{
					"anonymous": false,
					"inputs": [
						{
							"indexed": false,
							"internalType": "uint16",
							"name": "_dstChainId",
							"type": "uint16"
						},
						{
							"indexed": false,
							"internalType": "uint16",
							"name": "_type",
							"type": "uint16"
						},
						{
							"indexed": false,
							"internalType": "uint256",
							"name": "_minDstGas",
							"type": "uint256"
						}
					],
					"name": "SetMinDstGas",
					"type": "event"
				},
				{
					"anonymous": false,
					"inputs": [
						{
							"indexed": false,
							"internalType": "address",
							"name": "precrime",
							"type": "address"
						}
					],
					"name": "SetPrecrime",
					"type": "event"
				},
				{
					"anonymous": false,
					"inputs": [
						{
							"indexed": false,
							"internalType": "uint16",
							"name": "_remoteChainId",
							"type": "uint16"
						},
						{
							"indexed": false,
							"internalType": "bytes",
							"name": "_path",
							"type": "bytes"
						}
					],
					"name": "SetTrustedRemote",
					"type": "event"
				},
				{
					"anonymous": false,
					"inputs": [
						{
							"indexed": false,
							"internalType": "uint16",
							"name": "_remoteChainId",
							"type": "uint16"
						},
						{
							"indexed": false,
							"internalType": "bytes",
							"name": "_remoteAddress",
							"type": "bytes"
						}
					],
					"name": "SetTrustedRemoteAddress",
					"type": "event"
				},
				{
					"inputs": [],
					"name": "DEFAULT_PAYLOAD_SIZE_LIMIT",
					"outputs": [
						{
							"internalType": "uint256",
							"name": "",
							"type": "uint256"
						}
					],
					"stateMutability": "view",
					"type": "function"
				},
				{
					"inputs": [],
					"name": "canResolve",
					"outputs": [
						{
							"internalType": "bool",
							"name": "",
							"type": "bool"
						}
					],
					"stateMutability": "view",
					"type": "function"
				},
				{
					"inputs": [],
					"name": "counter",
					"outputs": [
						{
							"internalType": "uint256",
							"name": "",
							"type": "uint256"
						}
					],
					"stateMutability": "view",
					"type": "function"
				},
				{
					"inputs": [],
					"name": "data",
					"outputs": [
						{
							"internalType": "string",
							"name": "",
							"type": "string"
						}
					],
					"stateMutability": "view",
					"type": "function"
				},
				{
					"inputs": [],
					"name": "destChainId",
					"outputs": [
						{
							"internalType": "uint16",
							"name": "",
							"type": "uint16"
						}
					],
					"stateMutability": "view",
					"type": "function"
				},
				{
					"inputs": [
						{
							"internalType": "uint16",
							"name": "dstChainId",
							"type": "uint16"
						},
						{
							"internalType": "bytes",
							"name": "adapterParams",
							"type": "bytes"
						},
						{
							"internalType": "string",
							"name": "_message",
							"type": "string"
						}
					],
					"name": "estimateFees",
					"outputs": [
						{
							"internalType": "uint256",
							"name": "nativeFee",
							"type": "uint256"
						},
						{
							"internalType": "uint256",
							"name": "zroFee",
							"type": "uint256"
						}
					],
					"stateMutability": "view",
					"type": "function"
				},
				{
					"inputs": [
						{
							"internalType": "uint16",
							"name": "",
							"type": "uint16"
						},
						{
							"internalType": "bytes",
							"name": "",
							"type": "bytes"
						},
						{
							"internalType": "uint64",
							"name": "",
							"type": "uint64"
						}
					],
					"name": "failedMessages",
					"outputs": [
						{
							"internalType": "bytes32",
							"name": "",
							"type": "bytes32"
						}
					],
					"stateMutability": "view",
					"type": "function"
				},
				{
					"inputs": [
						{
							"internalType": "uint16",
							"name": "_srcChainId",
							"type": "uint16"
						},
						{
							"internalType": "bytes",
							"name": "_srcAddress",
							"type": "bytes"
						}
					],
					"name": "forceResumeReceive",
					"outputs": [],
					"stateMutability": "nonpayable",
					"type": "function"
				},
				{
					"inputs": [
						{
							"internalType": "uint16",
							"name": "_version",
							"type": "uint16"
						},
						{
							"internalType": "uint16",
							"name": "_chainId",
							"type": "uint16"
						},
						{
							"internalType": "address",
							"name": "",
							"type": "address"
						},
						{
							"internalType": "uint256",
							"name": "_configType",
							"type": "uint256"
						}
					],
					"name": "getConfig",
					"outputs": [
						{
							"internalType": "bytes",
							"name": "",
							"type": "bytes"
						}
					],
					"stateMutability": "view",
					"type": "function"
				},
				{
					"inputs": [
						{
							"internalType": "uint16",
							"name": "_remoteChainId",
							"type": "uint16"
						}
					],
					"name": "getTrustedRemoteAddress",
					"outputs": [
						{
							"internalType": "bytes",
							"name": "",
							"type": "bytes"
						}
					],
					"stateMutability": "view",
					"type": "function"
				},
				{
					"inputs": [],
					"name": "isAwaiting",
					"outputs": [
						{
							"internalType": "bool",
							"name": "",
							"type": "bool"
						}
					],
					"stateMutability": "view",
					"type": "function"
				},
				{
					"inputs": [
						{
							"internalType": "uint16",
							"name": "_srcChainId",
							"type": "uint16"
						},
						{
							"internalType": "bytes",
							"name": "_srcAddress",
							"type": "bytes"
						}
					],
					"name": "isTrustedRemote",
					"outputs": [
						{
							"internalType": "bool",
							"name": "",
							"type": "bool"
						}
					],
					"stateMutability": "view",
					"type": "function"
				},
				{
					"inputs": [],
					"name": "lzEndpoint",
					"outputs": [
						{
							"internalType": "contract ILayerZeroEndpoint",
							"name": "",
							"type": "address"
						}
					],
					"stateMutability": "view",
					"type": "function"
				},
				{
					"inputs": [],
					"name": "lzEndpointThis",
					"outputs": [
						{
							"internalType": "address",
							"name": "",
							"type": "address"
						}
					],
					"stateMutability": "view",
					"type": "function"
				},
				{
					"inputs": [
						{
							"internalType": "uint16",
							"name": "_srcChainId",
							"type": "uint16"
						},
						{
							"internalType": "bytes",
							"name": "_srcAddress",
							"type": "bytes"
						},
						{
							"internalType": "uint64",
							"name": "_nonce",
							"type": "uint64"
						},
						{
							"internalType": "bytes",
							"name": "_payload",
							"type": "bytes"
						}
					],
					"name": "lzReceive",
					"outputs": [],
					"stateMutability": "nonpayable",
					"type": "function"
				},
				{
					"inputs": [
						{
							"internalType": "uint16",
							"name": "",
							"type": "uint16"
						},
						{
							"internalType": "uint16",
							"name": "",
							"type": "uint16"
						}
					],
					"name": "minDstGasLookup",
					"outputs": [
						{
							"internalType": "uint256",
							"name": "",
							"type": "uint256"
						}
					],
					"stateMutability": "view",
					"type": "function"
				},
				{
					"inputs": [
						{
							"internalType": "uint16",
							"name": "_srcChainId",
							"type": "uint16"
						},
						{
							"internalType": "bytes",
							"name": "_srcAddress",
							"type": "bytes"
						},
						{
							"internalType": "uint64",
							"name": "_nonce",
							"type": "uint64"
						},
						{
							"internalType": "bytes",
							"name": "_payload",
							"type": "bytes"
						}
					],
					"name": "nonblockingLzReceive",
					"outputs": [],
					"stateMutability": "nonpayable",
					"type": "function"
				},
				{
					"inputs": [],
					"name": "owner",
					"outputs": [
						{
							"internalType": "address",
							"name": "",
							"type": "address"
						}
					],
					"stateMutability": "view",
					"type": "function"
				},
				{
					"inputs": [
						{
							"internalType": "uint16",
							"name": "",
							"type": "uint16"
						}
					],
					"name": "payloadSizeLimitLookup",
					"outputs": [
						{
							"internalType": "uint256",
							"name": "",
							"type": "uint256"
						}
					],
					"stateMutability": "view",
					"type": "function"
				},
				{
					"inputs": [],
					"name": "precrime",
					"outputs": [
						{
							"internalType": "address",
							"name": "",
							"type": "address"
						}
					],
					"stateMutability": "view",
					"type": "function"
				},
				{
					"inputs": [],
					"name": "renounceOwnership",
					"outputs": [],
					"stateMutability": "nonpayable",
					"type": "function"
				},
				{
					"inputs": [
						{
							"internalType": "uint16",
							"name": "_srcChainId",
							"type": "uint16"
						},
						{
							"internalType": "bytes",
							"name": "_srcAddress",
							"type": "bytes"
						},
						{
							"internalType": "uint64",
							"name": "_nonce",
							"type": "uint64"
						},
						{
							"internalType": "bytes",
							"name": "_payload",
							"type": "bytes"
						}
					],
					"name": "retryMessage",
					"outputs": [],
					"stateMutability": "payable",
					"type": "function"
				},
				{
					"inputs": [
						{
							"internalType": "string",
							"name": "_message",
							"type": "string"
						}
					],
					"name": "send",
					"outputs": [],
					"stateMutability": "payable",
					"type": "function"
				},
				{
					"inputs": [
						{
							"internalType": "uint16",
							"name": "_version",
							"type": "uint16"
						},
						{
							"internalType": "uint16",
							"name": "_chainId",
							"type": "uint16"
						},
						{
							"internalType": "uint256",
							"name": "_configType",
							"type": "uint256"
						},
						{
							"internalType": "bytes",
							"name": "_config",
							"type": "bytes"
						}
					],
					"name": "setConfig",
					"outputs": [],
					"stateMutability": "nonpayable",
					"type": "function"
				},
				{
					"inputs": [
						{
							"internalType": "uint16",
							"name": "_dstChainId",
							"type": "uint16"
						},
						{
							"internalType": "uint16",
							"name": "_packetType",
							"type": "uint16"
						},
						{
							"internalType": "uint256",
							"name": "_minGas",
							"type": "uint256"
						}
					],
					"name": "setMinDstGas",
					"outputs": [],
					"stateMutability": "nonpayable",
					"type": "function"
				},
				{
					"inputs": [
						{
							"internalType": "uint16",
							"name": "_dstChainId",
							"type": "uint16"
						},
						{
							"internalType": "uint256",
							"name": "_size",
							"type": "uint256"
						}
					],
					"name": "setPayloadSizeLimit",
					"outputs": [],
					"stateMutability": "nonpayable",
					"type": "function"
				},
				{
					"inputs": [
						{
							"internalType": "address",
							"name": "_precrime",
							"type": "address"
						}
					],
					"name": "setPrecrime",
					"outputs": [],
					"stateMutability": "nonpayable",
					"type": "function"
				},
				{
					"inputs": [
						{
							"internalType": "uint16",
							"name": "_version",
							"type": "uint16"
						}
					],
					"name": "setReceiveVersion",
					"outputs": [],
					"stateMutability": "nonpayable",
					"type": "function"
				},
				{
					"inputs": [
						{
							"internalType": "uint16",
							"name": "_version",
							"type": "uint16"
						}
					],
					"name": "setSendVersion",
					"outputs": [],
					"stateMutability": "nonpayable",
					"type": "function"
				},
				{
					"inputs": [
						{
							"internalType": "uint16",
							"name": "_remoteChainId",
							"type": "uint16"
						},
						{
							"internalType": "bytes",
							"name": "_path",
							"type": "bytes"
						}
					],
					"name": "setTrustedRemote",
					"outputs": [],
					"stateMutability": "nonpayable",
					"type": "function"
				},
				{
					"inputs": [
						{
							"internalType": "uint16",
							"name": "_remoteChainId",
							"type": "uint16"
						},
						{
							"internalType": "bytes",
							"name": "_remoteAddress",
							"type": "bytes"
						}
					],
					"name": "setTrustedRemoteAddress",
					"outputs": [],
					"stateMutability": "nonpayable",
					"type": "function"
				},
				{
					"inputs": [
						{
							"internalType": "address",
							"name": "newOwner",
							"type": "address"
						}
					],
					"name": "transferOwnership",
					"outputs": [],
					"stateMutability": "nonpayable",
					"type": "function"
				},
				{
					"inputs": [
						{
							"internalType": "address",
							"name": "_otherContract",
							"type": "address"
						}
					],
					"name": "trustAddress",
					"outputs": [],
					"stateMutability": "nonpayable",
					"type": "function"
				},
				{
					"inputs": [
						{
							"internalType": "uint16",
							"name": "",
							"type": "uint16"
						}
					],
					"name": "trustedRemoteLookup",
					"outputs": [
						{
							"internalType": "bytes",
							"name": "",
							"type": "bytes"
						}
					],
					"stateMutability": "view",
					"type": "function"
				},
				{
					"stateMutability": "payable",
					"type": "receive"
				}
			],
			"devdoc": {
				"kind": "dev",
				"methods": {
					"owner()": {
						"details": "Returns the address of the current owner."
					},
					"renounceOwnership()": {
						"details": "Leaves the contract without owner. It will not be possible to call `onlyOwner` functions. Can only be called by the current owner. NOTE: Renouncing ownership will leave the contract without an owner, thereby disabling any functionality that is only available to the owner."
					},
					"transferOwnership(address)": {
						"details": "Transfers ownership of the contract to a new account (`newOwner`). Can only be called by the current owner."
					}
				},
				"version": 1
			},
			"evm": {
				"assembly": "    /* \"contracts/examples/OmniMessage.sol\":423:466  string public data = \"Nothing received yet\" */\n  0xe0\n    /* \"contracts/examples/OmniMessage.sol\":267:5684  contract OmniMessage is NonblockingLzApp {... */\n  0x40\n    /* \"contracts/examples/OmniMessage.sol\":423:466  string public data = \"Nothing received yet\" */\n  mstore\n  0x14\n    /* \"contracts/examples/OmniMessage.sol\":267:5684  contract OmniMessage is NonblockingLzApp {... */\n  0xa0\n    /* \"contracts/examples/OmniMessage.sol\":423:466  string public data = \"Nothing received yet\" */\n  swap1\n  dup2\n  mstore\n  mstore(0xc0, 0x4e6f7468696e6720726563656976656420796574000000000000000000000000)\n  0x06\n  swap1\n  tag_1\n  swap1\n  dup3\n  tag_2\n  jump\t// in\ntag_1:\n  pop\n    /* \"contracts/examples/OmniMessage.sol\":801:1704  constructor(address _lzEndpoint, uint16 dest_cid) NonblockingLzApp(_lzEndpoint) {... */\n  callvalue\n  dup1\n  iszero\n  tag_3\n  jumpi\n  0x00\n  dup1\n  revert\ntag_3:\n  pop\n  mload(0x40)\n  sub(codesize, bytecodeSize)\n  dup1\n  bytecodeSize\n  dup4\n  codecopy\n  dup2\n  add\n  0x40\n  dup2\n  swap1\n  mstore\n  tag_4\n  swap2\n  tag_5\n  jump\t// in\ntag_4:\n    /* \"contracts/examples/OmniMessage.sol\":868:879  _lzEndpoint */\n  dup2\n  dup1\n    /* \"contracts/openzeppelin/contracts/access/Ownable.sol\":936:968  _transferOwnership(_msgSender()) */\n  tag_11\n    /* \"contracts/openzeppelin/contracts/utils/Context.sol\":719:729  msg.sender */\n  caller\n    /* \"contracts/openzeppelin/contracts/access/Ownable.sol\":936:954  _transferOwnership */\n  tag_14\n    /* \"contracts/openzeppelin/contracts/access/Ownable.sol\":936:968  _transferOwnership(_msgSender()) */\n  jump\t// in\ntag_11:\n  sub(shl(0xa0, 0x01), 0x01)\n    /* \"contracts/lzApp/LzApp.sol\":1201:1243  lzEndpoint = ILayerZeroEndpoint(_endpoint) */\n  swap1\n  dup2\n  and\n  0x80\n  mstore\n    /* \"contracts/examples/OmniMessage.sol\":1639:1650  destChainId */\n  0x07\n    /* \"contracts/examples/OmniMessage.sol\":1639:1661  destChainId = dest_cid */\n  dup1\n  sload\n    /* \"contracts/examples/OmniMessage.sol\":1671:1697  lzEndpointThis=_lzEndpoint */\n  swap5\n  swap1\n  swap2\n  and\n  0x010000\n  mul\n  not(sub(shl(0xb0, 0x01), 0x01))\n  swap1\n  swap5\n  and\n    /* \"contracts/examples/OmniMessage.sol\":1639:1661  destChainId = dest_cid */\n  0xffff\n  swap1\n  swap4\n  and\n    /* \"contracts/examples/OmniMessage.sol\":1671:1697  lzEndpointThis=_lzEndpoint */\n  swap3\n  swap1\n  swap3\n  or\n  swap3\n  swap1\n  swap3\n  or\n  swap1\n  sstore\n  pop\n    /* \"contracts/examples/OmniMessage.sol\":267:5684  contract OmniMessage is NonblockingLzApp {... */\n  jump(tag_26)\n    /* \"contracts/openzeppelin/contracts/access/Ownable.sol\":2426:2613  function _transferOwnership(address newOwner) internal virtual {... */\ntag_14:\n    /* \"contracts/openzeppelin/contracts/access/Ownable.sol\":2499:2515  address oldOwner */\n  0x00\n    /* \"contracts/openzeppelin/contracts/access/Ownable.sol\":2518:2524  _owner */\n  dup1\n  sload\n  sub(shl(0xa0, 0x01), 0x01)\n    /* \"contracts/openzeppelin/contracts/access/Ownable.sol\":2534:2551  _owner = newOwner */\n  dup4\n  dup2\n  and\n  not(sub(shl(0xa0, 0x01), 0x01))\n  dup4\n  and\n  dup2\n  or\n  dup5\n  sstore\n    /* \"contracts/openzeppelin/contracts/access/Ownable.sol\":2566:2606  OwnershipTransferred(oldOwner, newOwner) */\n  mload(0x40)\n    /* \"contracts/openzeppelin/contracts/access/Ownable.sol\":2518:2524  _owner */\n  swap2\n  swap1\n  swap3\n  and\n  swap3\n  dup4\n  swap2\n    /* \"contracts/openzeppelin/contracts/access/Ownable.sol\":2566:2606  OwnershipTransferred(oldOwner, newOwner) */\n  0x8be0079c531659141344cd1fd0a4f28419497f9722a3daafe3b4186f6b6457e0\n  swap2\n    /* \"contracts/openzeppelin/contracts/access/Ownable.sol\":2499:2515  address oldOwner */\n  swap1\n    /* \"contracts/openzeppelin/contracts/access/Ownable.sol\":2566:2606  OwnershipTransferred(oldOwner, newOwner) */\n  log3\n    /* \"contracts/openzeppelin/contracts/access/Ownable.sol\":2489:2613  {... */\n  pop\n    /* \"contracts/openzeppelin/contracts/access/Ownable.sol\":2426:2613  function _transferOwnership(address newOwner) internal virtual {... */\n  pop\n  jump\t// out\n    /* \"#utility.yul\":14:141   */\ntag_21:\n    /* \"#utility.yul\":75:85   */\n  0x4e487b71\n    /* \"#utility.yul\":70:73   */\n  0xe0\n    /* \"#utility.yul\":66:86   */\n  shl\n    /* \"#utility.yul\":63:64   */\n  0x00\n    /* \"#utility.yul\":56:87   */\n  mstore\n    /* \"#utility.yul\":106:110   */\n  0x41\n    /* \"#utility.yul\":103:104   */\n  0x04\n    /* \"#utility.yul\":96:111   */\n  mstore\n    /* \"#utility.yul\":130:134   */\n  0x24\n    /* \"#utility.yul\":127:128   */\n  0x00\n    /* \"#utility.yul\":120:135   */\n  revert\n    /* \"#utility.yul\":146:526   */\ntag_22:\n    /* \"#utility.yul\":225:226   */\n  0x01\n    /* \"#utility.yul\":221:233   */\n  dup2\n  dup2\n  shr\n  swap1\n    /* \"#utility.yul\":268:280   */\n  dup3\n  and\n  dup1\n    /* \"#utility.yul\":289:350   */\n  tag_29\n  jumpi\n    /* \"#utility.yul\":343:347   */\n  0x7f\n    /* \"#utility.yul\":335:341   */\n  dup3\n    /* \"#utility.yul\":331:348   */\n  and\n    /* \"#utility.yul\":321:348   */\n  swap2\n  pop\n    /* \"#utility.yul\":289:350   */\ntag_29:\n    /* \"#utility.yul\":396:398   */\n  0x20\n    /* \"#utility.yul\":388:394   */\n  dup3\n    /* \"#utility.yul\":385:399   */\n  lt\n    /* \"#utility.yul\":365:383   */\n  dup2\n    /* \"#utility.yul\":362:400   */\n  sub\n    /* \"#utility.yul\":359:520   */\n  tag_30\n  jumpi\n    /* \"#utility.yul\":442:452   */\n  0x4e487b71\n    /* \"#utility.yul\":437:440   */\n  0xe0\n    /* \"#utility.yul\":433:453   */\n  shl\n    /* \"#utility.yul\":430:431   */\n  0x00\n    /* \"#utility.yul\":423:454   */\n  mstore\n    /* \"#utility.yul\":477:481   */\n  0x22\n    /* \"#utility.yul\":474:475   */\n  0x04\n    /* \"#utility.yul\":467:482   */\n  mstore\n    /* \"#utility.yul\":505:509   */\n  0x24\n    /* \"#utility.yul\":502:503   */\n  0x00\n    /* \"#utility.yul\":495:510   */\n  revert\n    /* \"#utility.yul\":359:520   */\ntag_30:\n  pop\n    /* \"#utility.yul\":146:526   */\n  swap2\n  swap1\n  pop\n  jump\t// out\n    /* \"#utility.yul\":657:1202   */\ntag_24:\n    /* \"#utility.yul\":759:761   */\n  0x1f\n    /* \"#utility.yul\":754:757   */\n  dup3\n    /* \"#utility.yul\":751:762   */\n  gt\n    /* \"#utility.yul\":748:1196   */\n  iszero\n  tag_33\n  jumpi\n    /* \"#utility.yul\":795:796   */\n  0x00\n    /* \"#utility.yul\":820:825   */\n  dup2\n    /* \"#utility.yul\":816:818   */\n  dup2\n    /* \"#utility.yul\":809:826   */\n  mstore\n    /* \"#utility.yul\":865:869   */\n  0x20\n    /* \"#utility.yul\":861:863   */\n  dup2\n    /* \"#utility.yul\":851:870   */\n  keccak256\n    /* \"#utility.yul\":935:937   */\n  0x1f\n    /* \"#utility.yul\":923:933   */\n  dup6\n    /* \"#utility.yul\":919:938   */\n  add\n    /* \"#utility.yul\":916:917   */\n  0x05\n    /* \"#utility.yul\":912:939   */\n  shr\n    /* \"#utility.yul\":906:910   */\n  dup2\n    /* \"#utility.yul\":902:940   */\n  add\n    /* \"#utility.yul\":971:975   */\n  0x20\n    /* \"#utility.yul\":959:969   */\n  dup7\n    /* \"#utility.yul\":956:976   */\n  lt\n    /* \"#utility.yul\":953:1000   */\n  iszero\n  tag_34\n  jumpi\n  pop\n    /* \"#utility.yul\":994:998   */\n  dup1\n    /* \"#utility.yul\":953:1000   */\ntag_34:\n    /* \"#utility.yul\":1049:1051   */\n  0x1f\n    /* \"#utility.yul\":1044:1047   */\n  dup6\n    /* \"#utility.yul\":1040:1052   */\n  add\n    /* \"#utility.yul\":1037:1038   */\n  0x05\n    /* \"#utility.yul\":1033:1053   */\n  shr\n    /* \"#utility.yul\":1027:1031   */\n  dup3\n    /* \"#utility.yul\":1023:1054   */\n  add\n    /* \"#utility.yul\":1013:1054   */\n  swap2\n  pop\n    /* \"#utility.yul\":1104:1186   */\ntag_35:\n    /* \"#utility.yul\":1122:1124   */\n  dup2\n    /* \"#utility.yul\":1115:1120   */\n  dup2\n    /* \"#utility.yul\":1112:1125   */\n  lt\n    /* \"#utility.yul\":1104:1186   */\n  iszero\n  tag_37\n  jumpi\n    /* \"#utility.yul\":1167:1184   */\n  dup3\n  dup2\n  sstore\n    /* \"#utility.yul\":1148:1149   */\n  0x01\n    /* \"#utility.yul\":1137:1150   */\n  add\n    /* \"#utility.yul\":1104:1186   */\n  jump(tag_35)\ntag_37:\n    /* \"#utility.yul\":1108:1111   */\n  pop\n  pop\n  pop\n    /* \"#utility.yul\":748:1196   */\ntag_33:\n    /* \"#utility.yul\":657:1202   */\n  pop\n  pop\n  pop\n  jump\t// out\n    /* \"#utility.yul\":1378:2730   */\ntag_2:\n    /* \"#utility.yul\":1498:1508   */\n  dup2\n  mload\n  sub(shl(0x40, 0x01), 0x01)\n    /* \"#utility.yul\":1520:1550   */\n  dup2\n  gt\n    /* \"#utility.yul\":1517:1573   */\n  iszero\n  tag_41\n  jumpi\n    /* \"#utility.yul\":1553:1571   */\n  tag_41\n  tag_21\n  jump\t// in\ntag_41:\n    /* \"#utility.yul\":1582:1679   */\n  tag_42\n    /* \"#utility.yul\":1672:1678   */\n  dup2\n    /* \"#utility.yul\":1632:1670   */\n  tag_43\n    /* \"#utility.yul\":1664:1668   */\n  dup5\n    /* \"#utility.yul\":1658:1669   */\n  sload\n    /* \"#utility.yul\":1632:1670   */\n  tag_22\n  jump\t// in\ntag_43:\n    /* \"#utility.yul\":1626:1630   */\n  dup5\n    /* \"#utility.yul\":1582:1679   */\n  tag_24\n  jump\t// in\ntag_42:\n    /* \"#utility.yul\":1734:1738   */\n  0x20\n  dup1\n    /* \"#utility.yul\":1798:1800   */\n  0x1f\n    /* \"#utility.yul\":1787:1801   */\n  dup4\n  gt\n    /* \"#utility.yul\":1815:1816   */\n  0x01\n    /* \"#utility.yul\":1810:2473   */\n  dup2\n  eq\n  tag_45\n  jumpi\n    /* \"#utility.yul\":2517:2518   */\n  0x00\n    /* \"#utility.yul\":2534:2540   */\n  dup5\n    /* \"#utility.yul\":2531:2620   */\n  iszero\n  tag_46\n  jumpi\n  pop\n    /* \"#utility.yul\":2586:2605   */\n  dup6\n  dup4\n  add\n    /* \"#utility.yul\":2580:2606   */\n  mload\n    /* \"#utility.yul\":2531:2620   */\ntag_46:\n  not(0x00)\n    /* \"#utility.yul\":1335:1336   */\n  0x03\n    /* \"#utility.yul\":1331:1342   */\n  dup7\n  swap1\n  shl\n    /* \"#utility.yul\":1327:1351   */\n  shr\n    /* \"#utility.yul\":1323:1352   */\n  not\n    /* \"#utility.yul\":1313:1353   */\n  and\n    /* \"#utility.yul\":1359:1360   */\n  0x01\n    /* \"#utility.yul\":1355:1366   */\n  dup6\n  swap1\n  shl\n    /* \"#utility.yul\":1310:1367   */\n  or\n    /* \"#utility.yul\":2633:2714   */\n  dup6\n  sstore\n    /* \"#utility.yul\":1780:2724   */\n  jump(tag_37)\n    /* \"#utility.yul\":1810:2473   */\ntag_45:\n    /* \"#utility.yul\":604:605   */\n  0x00\n    /* \"#utility.yul\":597:611   */\n  dup6\n  dup2\n  mstore\n    /* \"#utility.yul\":641:645   */\n  0x20\n    /* \"#utility.yul\":628:646   */\n  dup2\n  keccak256\n  not(0x1f)\n    /* \"#utility.yul\":1846:1866   */\n  dup7\n  and\n  swap2\n    /* \"#utility.yul\":1964:2200   */\ntag_49:\n    /* \"#utility.yul\":1978:1985   */\n  dup3\n    /* \"#utility.yul\":1975:1976   */\n  dup2\n    /* \"#utility.yul\":1972:1986   */\n  lt\n    /* \"#utility.yul\":1964:2200   */\n  iszero\n  tag_51\n  jumpi\n    /* \"#utility.yul\":2067:2086   */\n  dup9\n  dup7\n  add\n    /* \"#utility.yul\":2061:2087   */\n  mload\n    /* \"#utility.yul\":2046:2088   */\n  dup3\n  sstore\n    /* \"#utility.yul\":2159:2186   */\n  swap5\n  dup5\n  add\n  swap5\n    /* \"#utility.yul\":2127:2128   */\n  0x01\n    /* \"#utility.yul\":2115:2129   */\n  swap1\n  swap2\n  add\n  swap1\n    /* \"#utility.yul\":1994:2013   */\n  dup5\n  add\n    /* \"#utility.yul\":1964:2200   */\n  jump(tag_49)\ntag_51:\n    /* \"#utility.yul\":1968:1971   */\n  pop\n    /* \"#utility.yul\":2228:2234   */\n  dup6\n    /* \"#utility.yul\":2219:2226   */\n  dup3\n    /* \"#utility.yul\":2216:2235   */\n  lt\n    /* \"#utility.yul\":2213:2414   */\n  iszero\n  tag_52\n  jumpi\n    /* \"#utility.yul\":2289:2308   */\n  dup8\n  dup6\n  add\n    /* \"#utility.yul\":2283:2309   */\n  mload\n  not(0x00)\n    /* \"#utility.yul\":2372:2373   */\n  0x03\n    /* \"#utility.yul\":2368:2382   */\n  dup9\n  swap1\n  shl\n    /* \"#utility.yul\":2384:2387   */\n  0xf8\n    /* \"#utility.yul\":2364:2388   */\n  and\n    /* \"#utility.yul\":2360:2397   */\n  shr\n    /* \"#utility.yul\":2356:2398   */\n  not\n    /* \"#utility.yul\":2341:2399   */\n  and\n    /* \"#utility.yul\":2326:2400   */\n  dup2\n  sstore\n    /* \"#utility.yul\":2213:2414   */\ntag_52:\n  pop\n  pop\n  pop\n  pop\n  pop\n    /* \"#utility.yul\":2460:2461   */\n  0x01\n    /* \"#utility.yul\":2444:2458   */\n  swap1\n  dup2\n  shl\n    /* \"#utility.yul\":2440:2462   */\n  add\n    /* \"#utility.yul\":2427:2463   */\n  swap1\n  sstore\n  pop\n    /* \"#utility.yul\":1378:2730   */\n  jump\t// out\n    /* \"#utility.yul\":2735:3186   */\ntag_5:\n    /* \"#utility.yul\":2813:2819   */\n  0x00\n    /* \"#utility.yul\":2821:2827   */\n  dup1\n    /* \"#utility.yul\":2874:2876   */\n  0x40\n    /* \"#utility.yul\":2862:2871   */\n  dup4\n    /* \"#utility.yul\":2853:2860   */\n  dup6\n    /* \"#utility.yul\":2849:2872   */\n  sub\n    /* \"#utility.yul\":2845:2877   */\n  slt\n    /* \"#utility.yul\":2842:2894   */\n  iszero\n  tag_54\n  jumpi\n    /* \"#utility.yul\":2890:2891   */\n  0x00\n    /* \"#utility.yul\":2887:2888   */\n  dup1\n    /* \"#utility.yul\":2880:2892   */\n  revert\n    /* \"#utility.yul\":2842:2894   */\ntag_54:\n    /* \"#utility.yul\":2916:2932   */\n  dup3\n  mload\n  sub(shl(0xa0, 0x01), 0x01)\n    /* \"#utility.yul\":2961:2992   */\n  dup2\n  and\n    /* \"#utility.yul\":2951:2993   */\n  dup2\n  eq\n    /* \"#utility.yul\":2941:3011   */\n  tag_55\n  jumpi\n    /* \"#utility.yul\":3007:3008   */\n  0x00\n    /* \"#utility.yul\":3004:3005   */\n  dup1\n    /* \"#utility.yul\":2997:3009   */\n  revert\n    /* \"#utility.yul\":2941:3011   */\ntag_55:\n    /* \"#utility.yul\":3080:3082   */\n  0x20\n    /* \"#utility.yul\":3065:3083   */\n  dup5\n  add\n    /* \"#utility.yul\":3059:3084   */\n  mload\n    /* \"#utility.yul\":3030:3035   */\n  swap1\n  swap3\n  pop\n    /* \"#utility.yul\":3128:3134   */\n  0xffff\n    /* \"#utility.yul\":3115:3135   */\n  dup2\n  and\n    /* \"#utility.yul\":3103:3136   */\n  dup2\n  eq\n    /* \"#utility.yul\":3093:3154   */\n  tag_56\n  jumpi\n    /* \"#utility.yul\":3150:3151   */\n  0x00\n    /* \"#utility.yul\":3147:3148   */\n  dup1\n    /* \"#utility.yul\":3140:3152   */\n  revert\n    /* \"#utility.yul\":3093:3154   */\ntag_56:\n    /* \"#utility.yul\":3173:3180   */\n  dup1\n    /* \"#utility.yul\":3163:3180   */\n  swap2\n  pop\n  pop\n    /* \"#utility.yul\":2735:3186   */\n  swap3\n  pop\n  swap3\n  swap1\n  pop\n  jump\t// out\ntag_26:\n    /* \"contracts/examples/OmniMessage.sol\":267:5684  contract OmniMessage is NonblockingLzApp {... */\n  mload(0x80)\n  codecopy(0x00, dataOffset(sub_0), dataSize(sub_0))\n  0x00\n  assignImmutable(\"0x46eb50c447c403e47cdd18c8674af108a4943ba3d8a10108852723fbe4a03cc6\")\n  return(0x00, dataSize(sub_0))\nstop\n\nsub_0: assembly {\n        /* \"contracts/examples/OmniMessage.sol\":267:5684  contract OmniMessage is NonblockingLzApp {... */\n      mstore(0x40, 0x80)\n      jumpi(tag_1, lt(calldatasize, 0x04))\n      shr(0xe0, calldataload(0x00))\n      dup1\n      0x8cfd8f5c\n      gt\n      tag_37\n      jumpi\n      dup1\n      0xc4461834\n      gt\n      tag_38\n      jumpi\n      dup1\n      0xded99430\n      gt\n      tag_39\n      jumpi\n      dup1\n      0xded99430\n      eq\n      tag_32\n      jumpi\n      dup1\n      0xdf2a5b3b\n      eq\n      tag_33\n      jumpi\n      dup1\n      0xeb8d72b7\n      eq\n      tag_34\n      jumpi\n      dup1\n      0xf2fde38b\n      eq\n      tag_35\n      jumpi\n      dup1\n      0xf5ecbdbc\n      eq\n      tag_36\n      jumpi\n      0x00\n      dup1\n      revert\n    tag_39:\n      dup1\n      0xc4461834\n      eq\n      tag_28\n      jumpi\n      dup1\n      0xc4af1c0b\n      eq\n      tag_29\n      jumpi\n      dup1\n      0xcbed8b9c\n      eq\n      tag_30\n      jumpi\n      dup1\n      0xd1deba1f\n      eq\n      tag_31\n      jumpi\n      0x00\n      dup1\n      revert\n    tag_38:\n      dup1\n      0xa6c3d165\n      gt\n      tag_40\n      jumpi\n      dup1\n      0xa6c3d165\n      eq\n      tag_24\n      jumpi\n      dup1\n      0xac3791e3\n      eq\n      tag_25\n      jumpi\n      dup1\n      0xb353aaa7\n      eq\n      tag_26\n      jumpi\n      dup1\n      0xbaf3292d\n      eq\n      tag_27\n      jumpi\n      0x00\n      dup1\n      revert\n    tag_40:\n      dup1\n      0x8cfd8f5c\n      eq\n      tag_20\n      jumpi\n      dup1\n      0x8da5cb5b\n      eq\n      tag_21\n      jumpi\n      dup1\n      0x950c8a74\n      eq\n      tag_22\n      jumpi\n      dup1\n      0x9f38369a\n      eq\n      tag_23\n      jumpi\n      0x00\n      dup1\n      revert\n    tag_37:\n      dup1\n      0x5b8c41e6\n      gt\n      tag_41\n      jumpi\n      dup1\n      0x66ad5c8a\n      gt\n      tag_42\n      jumpi\n      dup1\n      0x66ad5c8a\n      eq\n      tag_15\n      jumpi\n      dup1\n      0x696d39bb\n      eq\n      tag_16\n      jumpi\n      dup1\n      0x715018a6\n      eq\n      tag_17\n      jumpi\n      dup1\n      0x73d4a13a\n      eq\n      tag_18\n      jumpi\n      dup1\n      0x7533d788\n      eq\n      tag_19\n      jumpi\n      0x00\n      dup1\n      revert\n    tag_42:\n      dup1\n      0x5b8c41e6\n      eq\n      tag_11\n      jumpi\n      dup1\n      0x5cdf1649\n      eq\n      tag_12\n      jumpi\n      dup1\n      0x61bc221a\n      eq\n      tag_13\n      jumpi\n      dup1\n      0x66792ba1\n      eq\n      tag_14\n      jumpi\n      0x00\n      dup1\n      revert\n    tag_41:\n      dup1\n      0x3d8b38f6\n      gt\n      tag_43\n      jumpi\n      dup1\n      0x3d8b38f6\n      eq\n      tag_7\n      jumpi\n      dup1\n      0x3f1f4fa4\n      eq\n      tag_8\n      jumpi\n      dup1\n      0x42d65a8d\n      eq\n      tag_9\n      jumpi\n      dup1\n      0x58644101\n      eq\n      tag_10\n      jumpi\n      0x00\n      dup1\n      revert\n    tag_43:\n      dup1\n      0x1d3567\n      eq\n      tag_3\n      jumpi\n      dup1\n      0x07e0db17\n      eq\n      tag_4\n      jumpi\n      dup1\n      0x0df37483\n      eq\n      tag_5\n      jumpi\n      dup1\n      0x10ddb137\n      eq\n      tag_6\n      jumpi\n      0x00\n      dup1\n      revert\n    tag_1:\n      jumpi(tag_2, calldatasize)\n      stop\n    tag_2:\n      0x00\n      dup1\n      revert\n        /* \"contracts/lzApp/LzApp.sol\":1256:2009  function lzReceive(uint16 _srcChainId, bytes calldata _srcAddress, uint64 _nonce, bytes calldata _payload) public virtual override {... */\n    tag_3:\n      callvalue\n      dup1\n      iszero\n      tag_46\n      jumpi\n      0x00\n      dup1\n      revert\n    tag_46:\n      pop\n      tag_47\n      tag_48\n      calldatasize\n      0x04\n      tag_49\n      jump\t// in\n    tag_48:\n      tag_50\n      jump\t// in\n    tag_47:\n      stop\n        /* \"contracts/lzApp/LzApp.sol\":4501:4622  function setSendVersion(uint16 _version) external override onlyOwner {... */\n    tag_4:\n      callvalue\n      dup1\n      iszero\n      tag_51\n      jumpi\n      0x00\n      dup1\n      revert\n    tag_51:\n      pop\n      tag_47\n      tag_53\n      calldatasize\n      0x04\n      tag_54\n      jump\t// in\n    tag_53:\n      tag_55\n      jump\t// in\n        /* \"contracts/lzApp/LzApp.sol\":6384:6524  function setPayloadSizeLimit(uint16 _dstChainId, uint _size) external onlyOwner {... */\n    tag_5:\n      callvalue\n      dup1\n      iszero\n      tag_56\n      jumpi\n      0x00\n      dup1\n      revert\n    tag_56:\n      pop\n      tag_47\n      tag_58\n      calldatasize\n      0x04\n      tag_59\n      jump\t// in\n    tag_58:\n      tag_60\n      jump\t// in\n        /* \"contracts/lzApp/LzApp.sol\":4628:4755  function setReceiveVersion(uint16 _version) external override onlyOwner {... */\n    tag_6:\n      callvalue\n      dup1\n      iszero\n      tag_61\n      jumpi\n      0x00\n      dup1\n      revert\n    tag_61:\n      pop\n      tag_47\n      tag_63\n      calldatasize\n      0x04\n      tag_54\n      jump\t// in\n    tag_63:\n      tag_64\n      jump\t// in\n        /* \"contracts/lzApp/LzApp.sol\":6619:6866  function isTrustedRemote(uint16 _srcChainId, bytes calldata _srcAddress) external view returns (bool) {... */\n    tag_7:\n      callvalue\n      dup1\n      iszero\n      tag_65\n      jumpi\n      0x00\n      dup1\n      revert\n    tag_65:\n      pop\n      tag_66\n      tag_67\n      calldatasize\n      0x04\n      tag_68\n      jump\t// in\n    tag_67:\n      tag_69\n      jump\t// in\n    tag_66:\n      mload(0x40)\n        /* \"#utility.yul\":2670:2684   */\n      swap1\n      iszero\n        /* \"#utility.yul\":2663:2685   */\n      iszero\n        /* \"#utility.yul\":2645:2686   */\n      dup2\n      mstore\n        /* \"#utility.yul\":2633:2635   */\n      0x20\n        /* \"#utility.yul\":2618:2636   */\n      add\n        /* \"contracts/lzApp/LzApp.sol\":6619:6866  function isTrustedRemote(uint16 _srcChainId, bytes calldata _srcAddress) external view returns (bool) {... */\n    tag_70:\n      mload(0x40)\n      dup1\n      swap2\n      sub\n      swap1\n      return\n        /* \"contracts/lzApp/LzApp.sol\":810:863  mapping(uint16 => uint) public payloadSizeLimitLookup */\n    tag_8:\n      callvalue\n      dup1\n      iszero\n      tag_72\n      jumpi\n      0x00\n      dup1\n      revert\n    tag_72:\n      pop\n      tag_73\n      tag_74\n      calldatasize\n      0x04\n      tag_54\n      jump\t// in\n    tag_74:\n      mstore(0x20, 0x03)\n      0x00\n      swap1\n      dup2\n      mstore\n      0x40\n      swap1\n      keccak256\n      sload\n      dup2\n      jump\n    tag_73:\n      mload(0x40)\n        /* \"#utility.yul\":2843:2868   */\n      swap1\n      dup2\n      mstore\n        /* \"#utility.yul\":2831:2833   */\n      0x20\n        /* \"#utility.yul\":2816:2834   */\n      add\n        /* \"contracts/lzApp/LzApp.sol\":810:863  mapping(uint16 => uint) public payloadSizeLimitLookup */\n      tag_70\n        /* \"#utility.yul\":2697:2874   */\n      jump\n        /* \"contracts/lzApp/LzApp.sol\":4761:4937  function forceResumeReceive(uint16 _srcChainId, bytes calldata _srcAddress) external override onlyOwner {... */\n    tag_9:\n      callvalue\n      dup1\n      iszero\n      tag_78\n      jumpi\n      0x00\n      dup1\n      revert\n    tag_78:\n      pop\n      tag_47\n      tag_80\n      calldatasize\n      0x04\n      tag_68\n      jump\t// in\n    tag_80:\n      tag_81\n      jump\t// in\n        /* \"contracts/examples/OmniMessage.sol\":662:684  bool public isAwaiting */\n    tag_10:\n      callvalue\n      dup1\n      iszero\n      tag_82\n      jumpi\n      0x00\n      dup1\n      revert\n    tag_82:\n      pop\n      sload(0x07)\n      tag_66\n      swap1\n      shl(0xb0, 0x01)\n      swap1\n      div\n      0xff\n      and\n      dup2\n      jump\n        /* \"contracts/lzApp/NonblockingLzApp.sol\":617:702  mapping(uint16 => mapping(bytes => mapping(uint64 => bytes32))) public failedMessages */\n    tag_11:\n      callvalue\n      dup1\n      iszero\n      tag_86\n      jumpi\n      0x00\n      dup1\n      revert\n    tag_86:\n      pop\n      tag_73\n      tag_88\n      calldatasize\n      0x04\n      tag_89\n      jump\t// in\n    tag_88:\n      0x05\n      0x20\n      swap1\n      dup2\n      mstore\n      0x00\n      swap4\n      dup5\n      mstore\n      0x40\n      dup1\n      dup6\n      keccak256\n      dup5\n      mload\n      dup1\n      dup7\n      add\n      dup5\n      add\n      dup1\n      mload\n      swap3\n      dup2\n      mstore\n      swap1\n      dup5\n      add\n      swap6\n      dup5\n      add\n      swap6\n      swap1\n      swap6\n      keccak256\n      swap5\n      mstore\n      swap3\n      swap1\n      mstore\n      dup3\n      mstore\n      swap1\n      keccak256\n      sload\n      dup2\n      jump\n        /* \"contracts/examples/OmniMessage.sol\":4146:4311  function trustAddress(address _otherContract) public onlyOwner {... */\n    tag_12:\n      callvalue\n      dup1\n      iszero\n      tag_93\n      jumpi\n      0x00\n      dup1\n      revert\n    tag_93:\n      pop\n      tag_47\n      tag_95\n      calldatasize\n      0x04\n      tag_96\n      jump\t// in\n    tag_95:\n      tag_97\n      jump\t// in\n        /* \"contracts/examples/OmniMessage.sol\":690:709  uint public counter */\n    tag_13:\n      callvalue\n      dup1\n      iszero\n      tag_98\n      jumpi\n      0x00\n      dup1\n      revert\n    tag_98:\n      pop\n      tag_73\n      sload(0x08)\n      dup2\n      jump\n        /* \"contracts/examples/OmniMessage.sol\":3039:3879  function send(string memory _message) public payable {... */\n    tag_14:\n      tag_47\n      tag_103\n      calldatasize\n      0x04\n      tag_104\n      jump\t// in\n    tag_103:\n      tag_105\n      jump\t// in\n        /* \"contracts/lzApp/NonblockingLzApp.sol\":1820:2162  function nonblockingLzReceive(uint16 _srcChainId, bytes calldata _srcAddress, uint64 _nonce, bytes calldata _payload) public virtual {... */\n    tag_15:\n      callvalue\n      dup1\n      iszero\n      tag_106\n      jumpi\n      0x00\n      dup1\n      revert\n    tag_106:\n      pop\n      tag_47\n      tag_108\n      calldatasize\n      0x04\n      tag_49\n      jump\t// in\n    tag_108:\n      tag_109\n      jump\t// in\n        /* \"contracts/examples/OmniMessage.sol\":4987:5552  function estimateFees(uint16 dstChainId, bytes calldata adapterParams, string memory _message) public view returns (uint nativeFee, uint zroFee) {... */\n    tag_16:\n      callvalue\n      dup1\n      iszero\n      tag_110\n      jumpi\n      0x00\n      dup1\n      revert\n    tag_110:\n      pop\n      tag_111\n      tag_112\n      calldatasize\n      0x04\n      tag_113\n      jump\t// in\n    tag_112:\n      tag_114\n      jump\t// in\n    tag_111:\n      0x40\n      dup1\n      mload\n        /* \"#utility.yul\":6429:6454   */\n      swap3\n      dup4\n      mstore\n        /* \"#utility.yul\":6485:6487   */\n      0x20\n        /* \"#utility.yul\":6470:6488   */\n      dup4\n      add\n        /* \"#utility.yul\":6463:6497   */\n      swap2\n      swap1\n      swap2\n      mstore\n        /* \"#utility.yul\":6402:6420   */\n      add\n        /* \"contracts/examples/OmniMessage.sol\":4987:5552  function estimateFees(uint16 dstChainId, bytes calldata adapterParams, string memory _message) public view returns (uint nativeFee, uint zroFee) {... */\n      tag_70\n        /* \"#utility.yul\":6255:6503   */\n      jump\n        /* \"contracts/openzeppelin/contracts/access/Ownable.sol\":1824:1925  function renounceOwnership() public virtual onlyOwner {... */\n    tag_17:\n      callvalue\n      dup1\n      iszero\n      tag_117\n      jumpi\n      0x00\n      dup1\n      revert\n    tag_117:\n      pop\n      tag_47\n      tag_119\n      jump\t// in\n        /* \"contracts/examples/OmniMessage.sol\":423:466  string public data = \"Nothing received yet\" */\n    tag_18:\n      callvalue\n      dup1\n      iszero\n      tag_120\n      jumpi\n      0x00\n      dup1\n      revert\n    tag_120:\n      pop\n      tag_121\n      tag_122\n      jump\t// in\n    tag_121:\n      mload(0x40)\n      tag_70\n      swap2\n      swap1\n      tag_124\n      jump\t// in\n        /* \"contracts/lzApp/LzApp.sol\":682:733  mapping(uint16 => bytes) public trustedRemoteLookup */\n    tag_19:\n      callvalue\n      dup1\n      iszero\n      tag_125\n      jumpi\n      0x00\n      dup1\n      revert\n    tag_125:\n      pop\n      tag_121\n      tag_127\n      calldatasize\n      0x04\n      tag_54\n      jump\t// in\n    tag_127:\n      tag_128\n      jump\t// in\n        /* \"contracts/lzApp/LzApp.sol\":739:804  mapping(uint16 => mapping(uint16 => uint)) public minDstGasLookup */\n    tag_20:\n      callvalue\n      dup1\n      iszero\n      tag_131\n      jumpi\n      0x00\n      dup1\n      revert\n    tag_131:\n      pop\n      tag_73\n      tag_133\n      calldatasize\n      0x04\n      tag_134\n      jump\t// in\n    tag_133:\n      0x02\n      0x20\n      swap1\n      dup2\n      mstore\n      0x00\n      swap3\n      dup4\n      mstore\n      0x40\n      dup1\n      dup5\n      keccak256\n      swap1\n      swap2\n      mstore\n      swap1\n      dup3\n      mstore\n      swap1\n      keccak256\n      sload\n      dup2\n      jump\n        /* \"contracts/openzeppelin/contracts/access/Ownable.sol\":1201:1286  function owner() public view virtual returns (address) {... */\n    tag_21:\n      callvalue\n      dup1\n      iszero\n      tag_137\n      jumpi\n      0x00\n      dup1\n      revert\n    tag_137:\n      pop\n        /* \"contracts/openzeppelin/contracts/access/Ownable.sol\":1247:1254  address */\n      0x00\n        /* \"contracts/openzeppelin/contracts/access/Ownable.sol\":1273:1279  _owner */\n      sload\n      sub(shl(0xa0, 0x01), 0x01)\n      and\n        /* \"contracts/openzeppelin/contracts/access/Ownable.sol\":1201:1286  function owner() public view virtual returns (address) {... */\n    tag_138:\n      mload(0x40)\n      sub(shl(0xa0, 0x01), 0x01)\n        /* \"#utility.yul\":7912:7967   */\n      swap1\n      swap2\n      and\n        /* \"#utility.yul\":7894:7968   */\n      dup2\n      mstore\n        /* \"#utility.yul\":7882:7884   */\n      0x20\n        /* \"#utility.yul\":7867:7885   */\n      add\n        /* \"contracts/openzeppelin/contracts/access/Ownable.sol\":1201:1286  function owner() public view virtual returns (address) {... */\n      tag_70\n        /* \"#utility.yul\":7748:7974   */\n      jump\n        /* \"contracts/lzApp/LzApp.sol\":869:892  address public precrime */\n    tag_22:\n      callvalue\n      dup1\n      iszero\n      tag_142\n      jumpi\n      0x00\n      dup1\n      revert\n    tag_142:\n      pop\n      sload(0x04)\n      tag_138\n      swap1\n      sub(shl(0xa0, 0x01), 0x01)\n      and\n      dup2\n      jump\n        /* \"contracts/lzApp/LzApp.sol\":5574:5900  function getTrustedRemoteAddress(uint16 _remoteChainId) external view returns (bytes memory) {... */\n    tag_23:\n      callvalue\n      dup1\n      iszero\n      tag_146\n      jumpi\n      0x00\n      dup1\n      revert\n    tag_146:\n      pop\n      tag_121\n      tag_148\n      calldatasize\n      0x04\n      tag_54\n      jump\t// in\n    tag_148:\n      tag_149\n      jump\t// in\n        /* \"contracts/lzApp/LzApp.sol\":5290:5568  function setTrustedRemoteAddress(uint16 _remoteChainId, bytes calldata _remoteAddress) external onlyOwner {... */\n    tag_24:\n      callvalue\n      dup1\n      iszero\n      tag_151\n      jumpi\n      0x00\n      dup1\n      revert\n    tag_151:\n      pop\n      tag_47\n      tag_153\n      calldatasize\n      0x04\n      tag_68\n      jump\t// in\n    tag_153:\n      tag_154\n      jump\t// in\n        /* \"contracts/examples/OmniMessage.sol\":5597:5681  function canResolve() public view returns (bool) {... */\n    tag_25:\n      callvalue\n      dup1\n      iszero\n      tag_155\n      jumpi\n      0x00\n      dup1\n      revert\n    tag_155:\n      pop\n        /* \"contracts/examples/OmniMessage.sol\":5664:5674  isAwaiting */\n      sload(0x07)\n      shl(0xb0, 0x01)\n      swap1\n      div\n      0xff\n      and\n        /* \"contracts/examples/OmniMessage.sol\":5663:5674  !isAwaiting */\n      iszero\n        /* \"contracts/examples/OmniMessage.sol\":5597:5681  function canResolve() public view returns (bool) {... */\n      jump(tag_66)\n        /* \"contracts/lzApp/LzApp.sol\":630:676  ILayerZeroEndpoint public immutable lzEndpoint */\n    tag_26:\n      callvalue\n      dup1\n      iszero\n      tag_159\n      jumpi\n      0x00\n      dup1\n      revert\n    tag_159:\n      pop\n      tag_138\n      immutable(\"0x46eb50c447c403e47cdd18c8674af108a4943ba3d8a10108852723fbe4a03cc6\")\n      dup2\n      jump\n        /* \"contracts/lzApp/LzApp.sol\":5906:6039  function setPrecrime(address _precrime) external onlyOwner {... */\n    tag_27:\n      callvalue\n      dup1\n      iszero\n      tag_164\n      jumpi\n      0x00\n      dup1\n      revert\n    tag_164:\n      pop\n      tag_47\n      tag_166\n      calldatasize\n      0x04\n      tag_96\n      jump\t// in\n    tag_166:\n      tag_167\n      jump\t// in\n        /* \"contracts/lzApp/LzApp.sol\":568:623  uint constant public DEFAULT_PAYLOAD_SIZE_LIMIT = 10000 */\n    tag_28:\n      callvalue\n      dup1\n      iszero\n      tag_168\n      jumpi\n      0x00\n      dup1\n      revert\n    tag_168:\n      pop\n      tag_73\n        /* \"contracts/lzApp/LzApp.sol\":618:623  10000 */\n      0x2710\n        /* \"contracts/lzApp/LzApp.sol\":568:623  uint constant public DEFAULT_PAYLOAD_SIZE_LIMIT = 10000 */\n      dup2\n      jump\n        /* \"contracts/examples/OmniMessage.sol\":596:621  uint16 public destChainId */\n    tag_29:\n      callvalue\n      dup1\n      iszero\n      tag_172\n      jumpi\n      0x00\n      dup1\n      revert\n    tag_172:\n      pop\n      sload(0x07)\n      tag_173\n      swap1\n      0xffff\n      and\n      dup2\n      jump\n    tag_173:\n      mload(0x40)\n        /* \"#utility.yul\":8410:8416   */\n      0xffff\n        /* \"#utility.yul\":8398:8417   */\n      swap1\n      swap2\n      and\n        /* \"#utility.yul\":8380:8418   */\n      dup2\n      mstore\n        /* \"#utility.yul\":8368:8370   */\n      0x20\n        /* \"#utility.yul\":8353:8371   */\n      add\n        /* \"contracts/examples/OmniMessage.sol\":596:621  uint16 public destChainId */\n      tag_70\n        /* \"#utility.yul\":8236:8424   */\n      jump\n        /* \"contracts/lzApp/LzApp.sol\":4293:4495  function setConfig(uint16 _version, uint16 _chainId, uint _configType, bytes calldata _config) external override onlyOwner {... */\n    tag_30:\n      callvalue\n      dup1\n      iszero\n      tag_177\n      jumpi\n      0x00\n      dup1\n      revert\n    tag_177:\n      pop\n      tag_47\n      tag_179\n      calldatasize\n      0x04\n      tag_180\n      jump\t// in\n    tag_179:\n      tag_181\n      jump\t// in\n        /* \"contracts/lzApp/NonblockingLzApp.sol\":2343:3100  function retryMessage(uint16 _srcChainId, bytes calldata _srcAddress, uint64 _nonce, bytes calldata _payload) public payable virtual {... */\n    tag_31:\n      tag_47\n      tag_183\n      calldatasize\n      0x04\n      tag_49\n      jump\t// in\n    tag_183:\n      tag_184\n      jump\t// in\n        /* \"contracts/examples/OmniMessage.sol\":627:656  address public lzEndpointThis */\n    tag_32:\n      callvalue\n      dup1\n      iszero\n      tag_185\n      jumpi\n      0x00\n      dup1\n      revert\n    tag_185:\n      pop\n      sload(0x07)\n      tag_138\n      swap1\n      0x010000\n      swap1\n      div\n      sub(shl(0xa0, 0x01), 0x01)\n      and\n      dup2\n      jump\n        /* \"contracts/lzApp/LzApp.sol\":6045:6325  function setMinDstGas(uint16 _dstChainId, uint16 _packetType, uint _minGas) external onlyOwner {... */\n    tag_33:\n      callvalue\n      dup1\n      iszero\n      tag_189\n      jumpi\n      0x00\n      dup1\n      revert\n    tag_189:\n      pop\n      tag_47\n      tag_191\n      calldatasize\n      0x04\n      tag_192\n      jump\t// in\n    tag_191:\n      tag_193\n      jump\t// in\n        /* \"contracts/lzApp/LzApp.sol\":5080:5284  function setTrustedRemote(uint16 _remoteChainId, bytes calldata _path) external onlyOwner {... */\n    tag_34:\n      callvalue\n      dup1\n      iszero\n      tag_194\n      jumpi\n      0x00\n      dup1\n      revert\n    tag_194:\n      pop\n      tag_47\n      tag_196\n      calldatasize\n      0x04\n      tag_68\n      jump\t// in\n    tag_196:\n      tag_197\n      jump\t// in\n        /* \"contracts/openzeppelin/contracts/access/Ownable.sol\":2074:2272  function transferOwnership(address newOwner) public virtual onlyOwner {... */\n    tag_35:\n      callvalue\n      dup1\n      iszero\n      tag_198\n      jumpi\n      0x00\n      dup1\n      revert\n    tag_198:\n      pop\n      tag_47\n      tag_200\n      calldatasize\n      0x04\n      tag_96\n      jump\t// in\n    tag_200:\n      tag_201\n      jump\t// in\n        /* \"contracts/lzApp/LzApp.sol\":4025:4234  function getConfig(uint16 _version, uint16 _chainId, address, uint _configType) external view returns (bytes memory) {... */\n    tag_36:\n      callvalue\n      dup1\n      iszero\n      tag_202\n      jumpi\n      0x00\n      dup1\n      revert\n    tag_202:\n      pop\n      tag_121\n      tag_204\n      calldatasize\n      0x04\n      tag_205\n      jump\t// in\n    tag_204:\n      tag_206\n      jump\t// in\n        /* \"contracts/lzApp/LzApp.sol\":1256:2009  function lzReceive(uint16 _srcChainId, bytes calldata _srcAddress, uint64 _nonce, bytes calldata _payload) public virtual override {... */\n    tag_50:\n        /* \"contracts/openzeppelin/contracts/utils/Context.sol\":719:729  msg.sender */\n      caller\n        /* \"contracts/lzApp/LzApp.sol\":1494:1504  lzEndpoint */\n      immutable(\"0x46eb50c447c403e47cdd18c8674af108a4943ba3d8a10108852723fbe4a03cc6\")\n      sub(shl(0xa0, 0x01), 0x01)\n        /* \"contracts/lzApp/LzApp.sol\":1470:1505  _msgSender() == address(lzEndpoint) */\n      and\n      eq\n        /* \"contracts/lzApp/LzApp.sol\":1462:1540  require(_msgSender() == address(lzEndpoint), \"LzApp: invalid endpoint caller\") */\n      tag_211\n      jumpi\n      mload(0x40)\n      shl(0xe5, 0x461bcd)\n      dup2\n      mstore\n        /* \"#utility.yul\":9991:9993   */\n      0x20\n        /* \"contracts/lzApp/LzApp.sol\":1462:1540  require(_msgSender() == address(lzEndpoint), \"LzApp: invalid endpoint caller\") */\n      0x04\n      dup3\n      add\n        /* \"#utility.yul\":9973:9994   */\n      mstore\n        /* \"#utility.yul\":10030:10032   */\n      0x1e\n        /* \"#utility.yul\":10010:10028   */\n      0x24\n      dup3\n      add\n        /* \"#utility.yul\":10003:10033   */\n      mstore\n        /* \"#utility.yul\":10069:10101   */\n      0x4c7a4170703a20696e76616c696420656e64706f696e742063616c6c65720000\n        /* \"#utility.yul\":10049:10067   */\n      0x44\n      dup3\n      add\n        /* \"#utility.yul\":10042:10102   */\n      mstore\n        /* \"#utility.yul\":10119:10137   */\n      0x64\n      add\n        /* \"contracts/lzApp/LzApp.sol\":1462:1540  require(_msgSender() == address(lzEndpoint), \"LzApp: invalid endpoint caller\") */\n    tag_212:\n      mload(0x40)\n      dup1\n      swap2\n      sub\n      swap1\n      revert\n    tag_211:\n        /* \"contracts/lzApp/LzApp.sol\":1580:1612  trustedRemoteLookup[_srcChainId] */\n      0xffff\n      dup7\n      and\n        /* \"contracts/lzApp/LzApp.sol\":1551:1577  bytes memory trustedRemote */\n      0x00\n        /* \"contracts/lzApp/LzApp.sol\":1580:1612  trustedRemoteLookup[_srcChainId] */\n      swap1\n      dup2\n      mstore\n        /* \"contracts/lzApp/LzApp.sol\":1580:1599  trustedRemoteLookup */\n      0x01\n        /* \"contracts/lzApp/LzApp.sol\":1580:1612  trustedRemoteLookup[_srcChainId] */\n      0x20\n      mstore\n      0x40\n      dup2\n      keccak256\n        /* \"contracts/lzApp/LzApp.sol\":1551:1612  bytes memory trustedRemote = trustedRemoteLookup[_srcChainId] */\n      dup1\n      sload\n      tag_214\n      swap1\n      tag_215\n      jump\t// in\n    tag_214:\n      dup1\n      0x1f\n      add\n      0x20\n      dup1\n      swap2\n      div\n      mul\n      0x20\n      add\n      mload(0x40)\n      swap1\n      dup2\n      add\n      0x40\n      mstore\n      dup1\n      swap3\n      swap2\n      swap1\n      dup2\n      dup2\n      mstore\n      0x20\n      add\n      dup3\n      dup1\n      sload\n      tag_216\n      swap1\n      tag_215\n      jump\t// in\n    tag_216:\n      dup1\n      iszero\n      tag_217\n      jumpi\n      dup1\n      0x1f\n      lt\n      tag_218\n      jumpi\n      0x0100\n      dup1\n      dup4\n      sload\n      div\n      mul\n      dup4\n      mstore\n      swap2\n      0x20\n      add\n      swap2\n      jump(tag_217)\n    tag_218:\n      dup3\n      add\n      swap2\n      swap1\n      0x00\n      mstore\n      keccak256(0x00, 0x20)\n      swap1\n    tag_219:\n      dup2\n      sload\n      dup2\n      mstore\n      swap1\n      0x01\n      add\n      swap1\n      0x20\n      add\n      dup1\n      dup4\n      gt\n      tag_219\n      jumpi\n      dup3\n      swap1\n      sub\n      0x1f\n      and\n      dup3\n      add\n      swap2\n    tag_217:\n      pop\n      pop\n      pop\n      pop\n      pop\n      swap1\n      pop\n        /* \"contracts/lzApp/LzApp.sol\":1784:1797  trustedRemote */\n      dup1\n        /* \"contracts/lzApp/LzApp.sol\":1784:1804  trustedRemote.length */\n      mload\n        /* \"contracts/lzApp/LzApp.sol\":1762:1773  _srcAddress */\n      dup7\n      dup7\n        /* \"contracts/lzApp/LzApp.sol\":1762:1780  _srcAddress.length */\n      swap1\n      pop\n        /* \"contracts/lzApp/LzApp.sol\":1762:1804  _srcAddress.length == trustedRemote.length */\n      eq\n        /* \"contracts/lzApp/LzApp.sol\":1762:1832  _srcAddress.length == trustedRemote.length && trustedRemote.length > 0 */\n      dup1\n      iszero\n      tag_220\n      jumpi\n      pop\n        /* \"contracts/lzApp/LzApp.sol\":1831:1832  0 */\n      0x00\n        /* \"contracts/lzApp/LzApp.sol\":1808:1821  trustedRemote */\n      dup2\n        /* \"contracts/lzApp/LzApp.sol\":1808:1828  trustedRemote.length */\n      mload\n        /* \"contracts/lzApp/LzApp.sol\":1808:1832  trustedRemote.length > 0 */\n      gt\n        /* \"contracts/lzApp/LzApp.sol\":1762:1832  _srcAddress.length == trustedRemote.length && trustedRemote.length > 0 */\n    tag_220:\n        /* \"contracts/lzApp/LzApp.sol\":1762:1886  _srcAddress.length == trustedRemote.length && trustedRemote.length > 0 && keccak256(_srcAddress) == keccak256(trustedRemote) */\n      dup1\n      iszero\n      tag_221\n      jumpi\n      pop\n        /* \"contracts/lzApp/LzApp.sol\":1862:1886  keccak256(trustedRemote) */\n      dup1\n      mload\n      0x20\n      dup3\n      add\n      keccak256\n        /* \"contracts/lzApp/LzApp.sol\":1836:1858  keccak256(_srcAddress) */\n      mload(0x40)\n      tag_222\n      swap1\n        /* \"contracts/lzApp/LzApp.sol\":1846:1857  _srcAddress */\n      dup9\n      swap1\n      dup9\n      swap1\n        /* \"contracts/lzApp/LzApp.sol\":1836:1858  keccak256(_srcAddress) */\n      tag_223\n      jump\t// in\n    tag_222:\n      mload(0x40)\n      dup1\n      swap2\n      sub\n      swap1\n      keccak256\n        /* \"contracts/lzApp/LzApp.sol\":1836:1886  keccak256(_srcAddress) == keccak256(trustedRemote) */\n      eq\n        /* \"contracts/lzApp/LzApp.sol\":1762:1886  _srcAddress.length == trustedRemote.length && trustedRemote.length > 0 && keccak256(_srcAddress) == keccak256(trustedRemote) */\n    tag_221:\n        /* \"contracts/lzApp/LzApp.sol\":1754:1929  require(_srcAddress.length == trustedRemote.length && trustedRemote.length > 0 && keccak256(_srcAddress) == keccak256(trustedRemote), \"LzApp: invalid source sending contract\") */\n      tag_224\n      jumpi\n      mload(0x40)\n      shl(0xe5, 0x461bcd)\n      dup2\n      mstore\n        /* \"#utility.yul\":11011:11013   */\n      0x20\n        /* \"contracts/lzApp/LzApp.sol\":1754:1929  require(_srcAddress.length == trustedRemote.length && trustedRemote.length > 0 && keccak256(_srcAddress) == keccak256(trustedRemote), \"LzApp: invalid source sending contract\") */\n      0x04\n      dup3\n      add\n        /* \"#utility.yul\":10993:11014   */\n      mstore\n        /* \"#utility.yul\":11050:11052   */\n      0x26\n        /* \"#utility.yul\":11030:11048   */\n      0x24\n      dup3\n      add\n        /* \"#utility.yul\":11023:11053   */\n      mstore\n        /* \"#utility.yul\":11089:11123   */\n      0x4c7a4170703a20696e76616c696420736f757263652073656e64696e6720636f\n        /* \"#utility.yul\":11069:11087   */\n      0x44\n      dup3\n      add\n        /* \"#utility.yul\":11062:11124   */\n      mstore\n      shl(0xd2, 0x1b9d1c9858dd)\n        /* \"#utility.yul\":11140:11158   */\n      0x64\n      dup3\n      add\n        /* \"#utility.yul\":11133:11169   */\n      mstore\n        /* \"#utility.yul\":11186:11205   */\n      0x84\n      add\n        /* \"contracts/lzApp/LzApp.sol\":1754:1929  require(_srcAddress.length == trustedRemote.length && trustedRemote.length > 0 && keccak256(_srcAddress) == keccak256(trustedRemote), \"LzApp: invalid source sending contract\") */\n      tag_212\n        /* \"#utility.yul\":10809:11211   */\n      jump\n        /* \"contracts/lzApp/LzApp.sol\":1754:1929  require(_srcAddress.length == trustedRemote.length && trustedRemote.length > 0 && keccak256(_srcAddress) == keccak256(trustedRemote), \"LzApp: invalid source sending contract\") */\n    tag_224:\n        /* \"contracts/lzApp/LzApp.sol\":1940:2002  _blockingLzReceive(_srcChainId, _srcAddress, _nonce, _payload) */\n      tag_227\n        /* \"contracts/lzApp/LzApp.sol\":1959:1970  _srcChainId */\n      dup8\n        /* \"contracts/lzApp/LzApp.sol\":1972:1983  _srcAddress */\n      dup8\n      dup8\n        /* \"contracts/lzApp/LzApp.sol\":1940:2002  _blockingLzReceive(_srcChainId, _srcAddress, _nonce, _payload) */\n      dup1\n      dup1\n      0x1f\n      add\n      0x20\n      dup1\n      swap2\n      div\n      mul\n      0x20\n      add\n      mload(0x40)\n      swap1\n      dup2\n      add\n      0x40\n      mstore\n      dup1\n      swap4\n      swap3\n      swap2\n      swap1\n      dup2\n      dup2\n      mstore\n      0x20\n      add\n      dup4\n      dup4\n      dup1\n      dup3\n      dup5\n      calldatacopy\n      0x00\n      swap3\n      add\n      swap2\n      swap1\n      swap2\n      mstore\n      pop\n      pop\n      0x40\n      dup1\n      mload\n      0x20\n      0x1f\n      dup11\n      add\n      dup2\n      swap1\n      div\n      dup2\n      mul\n      dup3\n      add\n      dup2\n      add\n      swap1\n      swap3\n      mstore\n      dup9\n      dup2\n      mstore\n        /* \"contracts/lzApp/LzApp.sol\":1985:1991  _nonce */\n      dup11\n      swap4\n      pop\n        /* \"contracts/lzApp/LzApp.sol\":1940:2002  _blockingLzReceive(_srcChainId, _srcAddress, _nonce, _payload) */\n      swap2\n      pop\n        /* \"contracts/lzApp/LzApp.sol\":1993:2001  _payload */\n      dup9\n      swap1\n      dup9\n      swap1\n      dup2\n      swap1\n        /* \"contracts/lzApp/LzApp.sol\":1940:2002  _blockingLzReceive(_srcChainId, _srcAddress, _nonce, _payload) */\n      dup5\n      add\n        /* \"contracts/lzApp/LzApp.sol\":1993:2001  _payload */\n      dup4\n      dup3\n      dup1\n      dup3\n        /* \"contracts/lzApp/LzApp.sol\":1940:2002  _blockingLzReceive(_srcChainId, _srcAddress, _nonce, _payload) */\n      dup5\n      calldatacopy\n      0x00\n      swap3\n      add\n      swap2\n      swap1\n      swap2\n      mstore\n      pop\n        /* \"contracts/lzApp/LzApp.sol\":1940:1958  _blockingLzReceive */\n      tag_228\n      swap3\n      pop\n      pop\n      pop\n        /* \"contracts/lzApp/LzApp.sol\":1940:2002  _blockingLzReceive(_srcChainId, _srcAddress, _nonce, _payload) */\n      jump\t// in\n    tag_227:\n        /* \"contracts/lzApp/LzApp.sol\":1387:2009  {... */\n      pop\n        /* \"contracts/lzApp/LzApp.sol\":1256:2009  function lzReceive(uint16 _srcChainId, bytes calldata _srcAddress, uint64 _nonce, bytes calldata _payload) public virtual override {... */\n      pop\n      pop\n      pop\n      pop\n      pop\n      pop\n      jump\t// out\n        /* \"contracts/lzApp/LzApp.sol\":4501:4622  function setSendVersion(uint16 _version) external override onlyOwner {... */\n    tag_55:\n        /* \"contracts/openzeppelin/contracts/access/Ownable.sol\":1094:1107  _checkOwner() */\n      tag_230\n        /* \"contracts/openzeppelin/contracts/access/Ownable.sol\":1094:1105  _checkOwner */\n      tag_231\n        /* \"contracts/openzeppelin/contracts/access/Ownable.sol\":1094:1107  _checkOwner() */\n      jump\t// in\n    tag_230:\n        /* \"contracts/lzApp/LzApp.sol\":4580:4615  lzEndpoint.setSendVersion(_version) */\n      mload(0x40)\n      shl(0xe0, 0x07e0db17)\n      dup2\n      mstore\n        /* \"#utility.yul\":8410:8416   */\n      0xffff\n        /* \"#utility.yul\":8398:8417   */\n      dup3\n      and\n        /* \"contracts/lzApp/LzApp.sol\":4580:4615  lzEndpoint.setSendVersion(_version) */\n      0x04\n      dup3\n      add\n        /* \"#utility.yul\":8380:8418   */\n      mstore\n        /* \"contracts/lzApp/LzApp.sol\":4580:4590  lzEndpoint */\n      immutable(\"0x46eb50c447c403e47cdd18c8674af108a4943ba3d8a10108852723fbe4a03cc6\")\n      sub(shl(0xa0, 0x01), 0x01)\n        /* \"contracts/lzApp/LzApp.sol\":4580:4605  lzEndpoint.setSendVersion */\n      and\n      swap1\n      0x07e0db17\n      swap1\n        /* \"#utility.yul\":8353:8371   */\n      0x24\n      add\n        /* \"contracts/lzApp/LzApp.sol\":4580:4615  lzEndpoint.setSendVersion(_version) */\n    tag_233:\n      0x00\n      mload(0x40)\n      dup1\n      dup4\n      sub\n      dup2\n      0x00\n      dup8\n      dup1\n      extcodesize\n      iszero\n      dup1\n      iszero\n      tag_234\n      jumpi\n      0x00\n      dup1\n      revert\n    tag_234:\n      pop\n      gas\n      call\n      iszero\n      dup1\n      iszero\n      tag_236\n      jumpi\n      returndatasize\n      0x00\n      dup1\n      returndatacopy\n      revert(0x00, returndatasize)\n    tag_236:\n      pop\n      pop\n      pop\n      pop\n        /* \"contracts/lzApp/LzApp.sol\":4501:4622  function setSendVersion(uint16 _version) external override onlyOwner {... */\n      pop\n      jump\t// out\n        /* \"contracts/lzApp/LzApp.sol\":6384:6524  function setPayloadSizeLimit(uint16 _dstChainId, uint _size) external onlyOwner {... */\n    tag_60:\n        /* \"contracts/openzeppelin/contracts/access/Ownable.sol\":1094:1107  _checkOwner() */\n      tag_238\n        /* \"contracts/openzeppelin/contracts/access/Ownable.sol\":1094:1105  _checkOwner */\n      tag_231\n        /* \"contracts/openzeppelin/contracts/access/Ownable.sol\":1094:1107  _checkOwner() */\n      jump\t// in\n    tag_238:\n        /* \"contracts/lzApp/LzApp.sol\":6474:6509  payloadSizeLimitLookup[_dstChainId] */\n      0xffff\n      swap1\n      swap2\n      and\n      0x00\n      swap1\n      dup2\n      mstore\n        /* \"contracts/lzApp/LzApp.sol\":6474:6496  payloadSizeLimitLookup */\n      0x03\n        /* \"contracts/lzApp/LzApp.sol\":6474:6509  payloadSizeLimitLookup[_dstChainId] */\n      0x20\n      mstore\n      0x40\n      swap1\n      keccak256\n        /* \"contracts/lzApp/LzApp.sol\":6474:6517  payloadSizeLimitLookup[_dstChainId] = _size */\n      sstore\n        /* \"contracts/lzApp/LzApp.sol\":6384:6524  function setPayloadSizeLimit(uint16 _dstChainId, uint _size) external onlyOwner {... */\n      jump\t// out\n        /* \"contracts/lzApp/LzApp.sol\":4628:4755  function setReceiveVersion(uint16 _version) external override onlyOwner {... */\n    tag_64:\n        /* \"contracts/openzeppelin/contracts/access/Ownable.sol\":1094:1107  _checkOwner() */\n      tag_241\n        /* \"contracts/openzeppelin/contracts/access/Ownable.sol\":1094:1105  _checkOwner */\n      tag_231\n        /* \"contracts/openzeppelin/contracts/access/Ownable.sol\":1094:1107  _checkOwner() */\n      jump\t// in\n    tag_241:\n        /* \"contracts/lzApp/LzApp.sol\":4710:4748  lzEndpoint.setReceiveVersion(_version) */\n      mload(0x40)\n      shl(0xe0, 0x10ddb137)\n      dup2\n      mstore\n        /* \"#utility.yul\":8410:8416   */\n      0xffff\n        /* \"#utility.yul\":8398:8417   */\n      dup3\n      and\n        /* \"contracts/lzApp/LzApp.sol\":4710:4748  lzEndpoint.setReceiveVersion(_version) */\n      0x04\n      dup3\n      add\n        /* \"#utility.yul\":8380:8418   */\n      mstore\n        /* \"contracts/lzApp/LzApp.sol\":4710:4720  lzEndpoint */\n      immutable(\"0x46eb50c447c403e47cdd18c8674af108a4943ba3d8a10108852723fbe4a03cc6\")\n      sub(shl(0xa0, 0x01), 0x01)\n        /* \"contracts/lzApp/LzApp.sol\":4710:4738  lzEndpoint.setReceiveVersion */\n      and\n      swap1\n      0x10ddb137\n      swap1\n        /* \"#utility.yul\":8353:8371   */\n      0x24\n      add\n        /* \"contracts/lzApp/LzApp.sol\":4710:4748  lzEndpoint.setReceiveVersion(_version) */\n      tag_233\n        /* \"#utility.yul\":8236:8424   */\n      jump\n        /* \"contracts/lzApp/LzApp.sol\":6619:6866  function isTrustedRemote(uint16 _srcChainId, bytes calldata _srcAddress) external view returns (bool) {... */\n    tag_69:\n        /* \"contracts/lzApp/LzApp.sol\":6760:6792  trustedRemoteLookup[_srcChainId] */\n      0xffff\n      dup4\n      and\n        /* \"contracts/lzApp/LzApp.sol\":6715:6719  bool */\n      0x00\n        /* \"contracts/lzApp/LzApp.sol\":6760:6792  trustedRemoteLookup[_srcChainId] */\n      swap1\n      dup2\n      mstore\n        /* \"contracts/lzApp/LzApp.sol\":6760:6779  trustedRemoteLookup */\n      0x01\n        /* \"contracts/lzApp/LzApp.sol\":6760:6792  trustedRemoteLookup[_srcChainId] */\n      0x20\n      mstore\n      0x40\n      dup2\n      keccak256\n        /* \"contracts/lzApp/LzApp.sol\":6731:6792  bytes memory trustedSource = trustedRemoteLookup[_srcChainId] */\n      dup1\n      sload\n        /* \"contracts/lzApp/LzApp.sol\":6715:6719  bool */\n      dup3\n      swap2\n        /* \"contracts/lzApp/LzApp.sol\":6760:6792  trustedRemoteLookup[_srcChainId] */\n      swap1\n        /* \"contracts/lzApp/LzApp.sol\":6731:6792  bytes memory trustedSource = trustedRemoteLookup[_srcChainId] */\n      tag_248\n      swap1\n      tag_215\n      jump\t// in\n    tag_248:\n      dup1\n      0x1f\n      add\n      0x20\n      dup1\n      swap2\n      div\n      mul\n      0x20\n      add\n      mload(0x40)\n      swap1\n      dup2\n      add\n      0x40\n      mstore\n      dup1\n      swap3\n      swap2\n      swap1\n      dup2\n      dup2\n      mstore\n      0x20\n      add\n      dup3\n      dup1\n      sload\n      tag_249\n      swap1\n      tag_215\n      jump\t// in\n    tag_249:\n      dup1\n      iszero\n      tag_250\n      jumpi\n      dup1\n      0x1f\n      lt\n      tag_251\n      jumpi\n      0x0100\n      dup1\n      dup4\n      sload\n      div\n      mul\n      dup4\n      mstore\n      swap2\n      0x20\n      add\n      swap2\n      jump(tag_250)\n    tag_251:\n      dup3\n      add\n      swap2\n      swap1\n      0x00\n      mstore\n      keccak256(0x00, 0x20)\n      swap1\n    tag_252:\n      dup2\n      sload\n      dup2\n      mstore\n      swap1\n      0x01\n      add\n      swap1\n      0x20\n      add\n      dup1\n      dup4\n      gt\n      tag_252\n      jumpi\n      dup3\n      swap1\n      sub\n      0x1f\n      and\n      dup3\n      add\n      swap2\n    tag_250:\n      pop\n      pop\n      pop\n      pop\n      pop\n      swap1\n      pop\n        /* \"contracts/lzApp/LzApp.sol\":6847:6858  _srcAddress */\n      dup4\n      dup4\n        /* \"contracts/lzApp/LzApp.sol\":6837:6859  keccak256(_srcAddress) */\n      mload(0x40)\n      tag_253\n      swap3\n      swap2\n      swap1\n      tag_223\n      jump\t// in\n    tag_253:\n      mload(0x40)\n      dup1\n      swap2\n      sub\n      swap1\n      keccak256\n        /* \"contracts/lzApp/LzApp.sol\":6819:6832  trustedSource */\n      dup2\n        /* \"contracts/lzApp/LzApp.sol\":6809:6833  keccak256(trustedSource) */\n      dup1\n      mload\n      swap1\n      0x20\n      add\n      keccak256\n        /* \"contracts/lzApp/LzApp.sol\":6809:6859  keccak256(trustedSource) == keccak256(_srcAddress) */\n      eq\n        /* \"contracts/lzApp/LzApp.sol\":6802:6859  return keccak256(trustedSource) == keccak256(_srcAddress) */\n      swap2\n      pop\n      pop\n        /* \"contracts/lzApp/LzApp.sol\":6619:6866  function isTrustedRemote(uint16 _srcChainId, bytes calldata _srcAddress) external view returns (bool) {... */\n    tag_247:\n      swap4\n      swap3\n      pop\n      pop\n      pop\n      jump\t// out\n        /* \"contracts/lzApp/LzApp.sol\":4761:4937  function forceResumeReceive(uint16 _srcChainId, bytes calldata _srcAddress) external override onlyOwner {... */\n    tag_81:\n        /* \"contracts/openzeppelin/contracts/access/Ownable.sol\":1094:1107  _checkOwner() */\n      tag_255\n        /* \"contracts/openzeppelin/contracts/access/Ownable.sol\":1094:1105  _checkOwner */\n      tag_231\n        /* \"contracts/openzeppelin/contracts/access/Ownable.sol\":1094:1107  _checkOwner() */\n      jump\t// in\n    tag_255:\n        /* \"contracts/lzApp/LzApp.sol\":4875:4930  lzEndpoint.forceResumeReceive(_srcChainId, _srcAddress) */\n      mload(0x40)\n      shl(0xe0, 0x42d65a8d)\n      dup2\n      mstore\n      sub(shl(0xa0, 0x01), 0x01)\n        /* \"contracts/lzApp/LzApp.sol\":4875:4885  lzEndpoint */\n      immutable(\"0x46eb50c447c403e47cdd18c8674af108a4943ba3d8a10108852723fbe4a03cc6\")\n        /* \"contracts/lzApp/LzApp.sol\":4875:4904  lzEndpoint.forceResumeReceive */\n      and\n      swap1\n      0x42d65a8d\n      swap1\n        /* \"contracts/lzApp/LzApp.sol\":4875:4930  lzEndpoint.forceResumeReceive(_srcChainId, _srcAddress) */\n      tag_257\n      swap1\n        /* \"contracts/lzApp/LzApp.sol\":4905:4916  _srcChainId */\n      dup7\n      swap1\n        /* \"contracts/lzApp/LzApp.sol\":4918:4929  _srcAddress */\n      dup7\n      swap1\n      dup7\n      swap1\n        /* \"contracts/lzApp/LzApp.sol\":4875:4930  lzEndpoint.forceResumeReceive(_srcChainId, _srcAddress) */\n      0x04\n      add\n      tag_258\n      jump\t// in\n    tag_257:\n      0x00\n      mload(0x40)\n      dup1\n      dup4\n      sub\n      dup2\n      0x00\n      dup8\n      dup1\n      extcodesize\n      iszero\n      dup1\n      iszero\n      tag_259\n      jumpi\n      0x00\n      dup1\n      revert\n    tag_259:\n      pop\n      gas\n      call\n      iszero\n      dup1\n      iszero\n      tag_227\n      jumpi\n      returndatasize\n      0x00\n      dup1\n      returndatacopy\n      revert(0x00, returndatasize)\n        /* \"contracts/examples/OmniMessage.sol\":4146:4311  function trustAddress(address _otherContract) public onlyOwner {... */\n    tag_97:\n        /* \"contracts/openzeppelin/contracts/access/Ownable.sol\":1094:1107  _checkOwner() */\n      tag_263\n        /* \"contracts/openzeppelin/contracts/access/Ownable.sol\":1094:1105  _checkOwner */\n      tag_231\n        /* \"contracts/openzeppelin/contracts/access/Ownable.sol\":1094:1107  _checkOwner() */\n      jump\t// in\n    tag_263:\n        /* \"contracts/examples/OmniMessage.sol\":4254:4301  abi.encodePacked(_otherContract, address(this)) */\n      mload(0x40)\n      not(0xffffffffffffffffffffffff)\n        /* \"#utility.yul\":12045:12047   */\n      0x60\n        /* \"#utility.yul\":12041:12056   */\n      dup4\n      dup2\n      shl\n        /* \"#utility.yul\":12037:12061   */\n      dup3\n      and\n        /* \"contracts/examples/OmniMessage.sol\":4254:4301  abi.encodePacked(_otherContract, address(this)) */\n      0x20\n      dup5\n      add\n        /* \"#utility.yul\":12025:12062   */\n      mstore\n        /* \"contracts/examples/OmniMessage.sol\":4295:4299  this */\n      address\n        /* \"#utility.yul\":12096:12111   */\n      swap1\n      shl\n        /* \"#utility.yul\":12092:12116   */\n      and\n        /* \"#utility.yul\":12078:12090   */\n      0x34\n      dup3\n      add\n        /* \"#utility.yul\":12071:12117   */\n      mstore\n        /* \"#utility.yul\":12133:12145   */\n      0x48\n      add\n        /* \"contracts/examples/OmniMessage.sol\":4254:4301  abi.encodePacked(_otherContract, address(this)) */\n      0x40\n      dup1\n      mload\n      not(0x1f)\n      dup2\n      dup5\n      sub\n      add\n      dup2\n      mstore\n      swap2\n      dup2\n      mstore\n        /* \"contracts/examples/OmniMessage.sol\":4239:4250  destChainId */\n      and(0xffff, sload(0x07))\n        /* \"contracts/examples/OmniMessage.sol\":4219:4251  trustedRemoteLookup[destChainId] */\n      0x00\n      swap1\n      dup2\n      mstore\n        /* \"contracts/examples/OmniMessage.sol\":4219:4238  trustedRemoteLookup */\n      0x01\n        /* \"contracts/examples/OmniMessage.sol\":4254:4301  abi.encodePacked(_otherContract, address(this)) */\n      0x20\n        /* \"contracts/examples/OmniMessage.sol\":4219:4251  trustedRemoteLookup[destChainId] */\n      mstore\n      keccak256\n      swap1\n        /* \"contracts/examples/OmniMessage.sol\":4219:4301  trustedRemoteLookup[destChainId] = abi.encodePacked(_otherContract, address(this)) */\n      tag_267\n      swap1\n        /* \"contracts/examples/OmniMessage.sol\":4219:4251  trustedRemoteLookup[destChainId] */\n      dup3\n        /* \"contracts/examples/OmniMessage.sol\":4219:4301  trustedRemoteLookup[destChainId] = abi.encodePacked(_otherContract, address(this)) */\n      tag_268\n      jump\t// in\n    tag_267:\n      pop\n        /* \"contracts/examples/OmniMessage.sol\":4146:4311  function trustAddress(address _otherContract) public onlyOwner {... */\n      pop\n      jump\t// out\n        /* \"contracts/examples/OmniMessage.sol\":3039:3879  function send(string memory _message) public payable {... */\n    tag_105:\n        /* \"contracts/examples/OmniMessage.sol\":3111:3121  isAwaiting */\n      sload(0x07)\n      shl(0xb0, 0x01)\n      swap1\n      div\n      0xff\n      and\n        /* \"contracts/examples/OmniMessage.sol\":3110:3121  !isAwaiting */\n      iszero\n        /* \"contracts/examples/OmniMessage.sol\":3102:3145  require(!isAwaiting, \"awaiting lz message\") */\n      tag_270\n      jumpi\n      mload(0x40)\n      shl(0xe5, 0x461bcd)\n      dup2\n      mstore\n        /* \"#utility.yul\":14556:14558   */\n      0x20\n        /* \"contracts/examples/OmniMessage.sol\":3102:3145  require(!isAwaiting, \"awaiting lz message\") */\n      0x04\n      dup3\n      add\n        /* \"#utility.yul\":14538:14559   */\n      mstore\n        /* \"#utility.yul\":14595:14597   */\n      0x13\n        /* \"#utility.yul\":14575:14593   */\n      0x24\n      dup3\n      add\n        /* \"#utility.yul\":14568:14598   */\n      mstore\n      shl(0x68, 0x6177616974696e67206c7a206d657373616765)\n        /* \"#utility.yul\":14614:14632   */\n      0x44\n      dup3\n      add\n        /* \"#utility.yul\":14607:14656   */\n      mstore\n        /* \"#utility.yul\":14673:14691   */\n      0x64\n      add\n        /* \"contracts/examples/OmniMessage.sol\":3102:3145  require(!isAwaiting, \"awaiting lz message\") */\n      tag_212\n        /* \"#utility.yul\":14354:14697   */\n      jump\n        /* \"contracts/examples/OmniMessage.sol\":3102:3145  require(!isAwaiting, \"awaiting lz message\") */\n    tag_270:\n        /* \"contracts/examples/OmniMessage.sol\":3160:3190  Balance(address(this).balance) */\n      mload(0x40)\n        /* \"contracts/examples/OmniMessage.sol\":3168:3189  address(this).balance */\n      selfbalance\n        /* \"#utility.yul\":2843:2868   */\n      dup2\n      mstore\n        /* \"contracts/examples/OmniMessage.sol\":3160:3190  Balance(address(this).balance) */\n      0xe8d947d7ebdd7b8b8fa2ad2022c7591418ac32d8c29c5f8a8fc9de52ffa54092\n      swap1\n        /* \"#utility.yul\":2831:2833   */\n      0x20\n        /* \"#utility.yul\":2816:2834   */\n      add\n        /* \"contracts/examples/OmniMessage.sol\":3160:3190  Balance(address(this).balance) */\n      mload(0x40)\n      dup1\n      swap2\n      sub\n      swap1\n      log1\n        /* \"contracts/examples/OmniMessage.sol\":3290:3310  bytes memory payload */\n      0x00\n        /* \"contracts/examples/OmniMessage.sol\":3324:3332  _message */\n      dup2\n        /* \"contracts/examples/OmniMessage.sol\":3313:3333  abi.encode(_message) */\n      add(0x20, mload(0x40))\n      tag_274\n      swap2\n      swap1\n      tag_124\n      jump\t// in\n    tag_274:\n      0x40\n      dup1\n      mload\n      not(0x1f)\n      dup2\n      dup5\n      sub\n      add\n      dup2\n      mstore\n      swap1\n      dup3\n      swap1\n      mstore\n        /* \"contracts/examples/OmniMessage.sol\":3370:3374  this */\n      address\n        /* \"#utility.yul\":7894:7968   */\n      dup3\n      mstore\n        /* \"contracts/examples/OmniMessage.sol\":3313:3333  abi.encode(_message) */\n      swap2\n      pop\n        /* \"contracts/examples/OmniMessage.sol\":3348:3376  SenderAddress(payable(this)) */\n      0x1f9c75914c5f19dbd88fea3650adc0d96ce1acba5863d8a8cb9c5dbf194f8f68\n      swap1\n        /* \"contracts/examples/OmniMessage.sol\":3313:3333  abi.encode(_message) */\n      0x20\n        /* \"#utility.yul\":7867:7885   */\n      add\n        /* \"contracts/examples/OmniMessage.sol\":3348:3376  SenderAddress(payable(this)) */\n      mload(0x40)\n      dup1\n      swap2\n      sub\n      swap1\n      log1\n        /* \"contracts/examples/OmniMessage.sol\":3667:3720  abi.encodePacked(version, gasForDestinationLzReceive) */\n      mload(0x40)\n      shl(0xf0, 0x01)\n      0x20\n      dup3\n      add\n        /* \"#utility.yul\":15096:15147   */\n      mstore\n        /* \"contracts/examples/OmniMessage.sol\":3621:3628  3500000 */\n      0x3567e0\n        /* \"#utility.yul\":15163:15174   */\n      0x22\n      dup3\n      add\n        /* \"#utility.yul\":15156:15183   */\n      dup2\n      swap1\n      mstore\n        /* \"contracts/examples/OmniMessage.sol\":3576:3577  1 */\n      0x01\n      swap2\n        /* \"contracts/examples/OmniMessage.sol\":3559:3573  uint16 version */\n      0x00\n      swap1\n        /* \"#utility.yul\":15199:15211   */\n      0x42\n      add\n        /* \"contracts/examples/OmniMessage.sol\":3667:3720  abi.encodePacked(version, gasForDestinationLzReceive) */\n      0x40\n      dup1\n      mload\n      not(0x1f)\n      dup2\n      dup5\n      sub\n      add\n      dup2\n      mstore\n      swap2\n      swap1\n      mstore\n        /* \"contracts/examples/OmniMessage.sol\":3730:3740  isAwaiting */\n      0x07\n        /* \"contracts/examples/OmniMessage.sol\":3730:3745  isAwaiting=true */\n      dup1\n      sload\n      not(shl(0xb0, 0xff))\n      dup2\n      and\n      shl(0xb0, 0x01)\n      or\n      swap1\n      swap2\n      sstore\n        /* \"contracts/examples/OmniMessage.sol\":3667:3720  abi.encodePacked(version, gasForDestinationLzReceive) */\n      swap1\n      swap2\n      pop\n        /* \"contracts/examples/OmniMessage.sol\":3755:3851  _lzSend(destChainId, payload, payable(this), address(0x0), adapterParams, address(this).balance) */\n      tag_279\n      swap1\n        /* \"contracts/examples/OmniMessage.sol\":3763:3774  destChainId */\n      0xffff\n      and\n        /* \"contracts/examples/OmniMessage.sol\":3776:3783  payload */\n      dup6\n        /* \"contracts/examples/OmniMessage.sol\":3793:3797  this */\n      address\n        /* \"contracts/examples/OmniMessage.sol\":3730:3745  isAwaiting=true */\n      0x00\n        /* \"contracts/examples/OmniMessage.sol\":3667:3720  abi.encodePacked(version, gasForDestinationLzReceive) */\n      dup6\n        /* \"contracts/examples/OmniMessage.sol\":3829:3850  address(this).balance */\n      selfbalance\n        /* \"contracts/examples/OmniMessage.sol\":3755:3762  _lzSend */\n      tag_280\n        /* \"contracts/examples/OmniMessage.sol\":3755:3851  _lzSend(destChainId, payload, payable(this), address(0x0), adapterParams, address(this).balance) */\n      jump\t// in\n    tag_279:\n        /* \"contracts/examples/OmniMessage.sol\":3861:3868  counter */\n      0x08\n        /* \"contracts/examples/OmniMessage.sol\":3861:3870  counter++ */\n      dup1\n      sload\n      swap1\n        /* \"contracts/examples/OmniMessage.sol\":3861:3868  counter */\n      0x00\n        /* \"contracts/examples/OmniMessage.sol\":3861:3870  counter++ */\n      tag_281\n      dup4\n      tag_282\n      jump\t// in\n    tag_281:\n      swap2\n      swap1\n      pop\n      sstore\n      pop\n        /* \"contracts/examples/OmniMessage.sol\":3092:3879  {... */\n      pop\n      pop\n      pop\n      pop\n        /* \"contracts/examples/OmniMessage.sol\":3039:3879  function send(string memory _message) public payable {... */\n      pop\n      jump\t// out\n        /* \"contracts/lzApp/NonblockingLzApp.sol\":1820:2162  function nonblockingLzReceive(uint16 _srcChainId, bytes calldata _srcAddress, uint64 _nonce, bytes calldata _payload) public virtual {... */\n    tag_109:\n        /* \"contracts/openzeppelin/contracts/utils/Context.sol\":719:729  msg.sender */\n      caller\n        /* \"contracts/lzApp/NonblockingLzApp.sol\":2032:2036  this */\n      address\n        /* \"contracts/lzApp/NonblockingLzApp.sol\":2008:2037  _msgSender() == address(this) */\n      eq\n        /* \"contracts/lzApp/NonblockingLzApp.sol\":2000:2080  require(_msgSender() == address(this), \"NonblockingLzApp: caller must be LzApp\") */\n      tag_285\n      jumpi\n      mload(0x40)\n      shl(0xe5, 0x461bcd)\n      dup2\n      mstore\n        /* \"#utility.yul\":15696:15698   */\n      0x20\n        /* \"contracts/lzApp/NonblockingLzApp.sol\":2000:2080  require(_msgSender() == address(this), \"NonblockingLzApp: caller must be LzApp\") */\n      0x04\n      dup3\n      add\n        /* \"#utility.yul\":15678:15699   */\n      mstore\n        /* \"#utility.yul\":15735:15737   */\n      0x26\n        /* \"#utility.yul\":15715:15733   */\n      0x24\n      dup3\n      add\n        /* \"#utility.yul\":15708:15738   */\n      mstore\n        /* \"#utility.yul\":15774:15808   */\n      0x4e6f6e626c6f636b696e674c7a4170703a2063616c6c6572206d757374206265\n        /* \"#utility.yul\":15754:15772   */\n      0x44\n      dup3\n      add\n        /* \"#utility.yul\":15747:15809   */\n      mstore\n      shl(0xd4, 0x0204c7a41707)\n        /* \"#utility.yul\":15825:15843   */\n      0x64\n      dup3\n      add\n        /* \"#utility.yul\":15818:15854   */\n      mstore\n        /* \"#utility.yul\":15871:15890   */\n      0x84\n      add\n        /* \"contracts/lzApp/NonblockingLzApp.sol\":2000:2080  require(_msgSender() == address(this), \"NonblockingLzApp: caller must be LzApp\") */\n      tag_212\n        /* \"#utility.yul\":15494:15896   */\n      jump\n        /* \"contracts/lzApp/NonblockingLzApp.sol\":2000:2080  require(_msgSender() == address(this), \"NonblockingLzApp: caller must be LzApp\") */\n    tag_285:\n        /* \"contracts/lzApp/NonblockingLzApp.sol\":2090:2155  _nonblockingLzReceive(_srcChainId, _srcAddress, _nonce, _payload) */\n      tag_288\n        /* \"contracts/lzApp/NonblockingLzApp.sol\":2112:2123  _srcChainId */\n      dup7\n        /* \"contracts/lzApp/NonblockingLzApp.sol\":2125:2136  _srcAddress */\n      dup7\n      dup7\n        /* \"contracts/lzApp/NonblockingLzApp.sol\":2090:2155  _nonblockingLzReceive(_srcChainId, _srcAddress, _nonce, _payload) */\n      dup1\n      dup1\n      0x1f\n      add\n      0x20\n      dup1\n      swap2\n      div\n      mul\n      0x20\n      add\n      mload(0x40)\n      swap1\n      dup2\n      add\n      0x40\n      mstore\n      dup1\n      swap4\n      swap3\n      swap2\n      swap1\n      dup2\n      dup2\n      mstore\n      0x20\n      add\n      dup4\n      dup4\n      dup1\n      dup3\n      dup5\n      calldatacopy\n      0x00\n      swap3\n      add\n      swap2\n      swap1\n      swap2\n      mstore\n      pop\n      pop\n      0x40\n      dup1\n      mload\n      0x20\n      0x1f\n      dup10\n      add\n      dup2\n      swap1\n      div\n      dup2\n      mul\n      dup3\n      add\n      dup2\n      add\n      swap1\n      swap3\n      mstore\n      dup8\n      dup2\n      mstore\n        /* \"contracts/lzApp/NonblockingLzApp.sol\":2138:2144  _nonce */\n      dup10\n      swap4\n      pop\n        /* \"contracts/lzApp/NonblockingLzApp.sol\":2090:2155  _nonblockingLzReceive(_srcChainId, _srcAddress, _nonce, _payload) */\n      swap2\n      pop\n        /* \"contracts/lzApp/NonblockingLzApp.sol\":2146:2154  _payload */\n      dup8\n      swap1\n      dup8\n      swap1\n      dup2\n      swap1\n        /* \"contracts/lzApp/NonblockingLzApp.sol\":2090:2155  _nonblockingLzReceive(_srcChainId, _srcAddress, _nonce, _payload) */\n      dup5\n      add\n        /* \"contracts/lzApp/NonblockingLzApp.sol\":2146:2154  _payload */\n      dup4\n      dup3\n      dup1\n      dup3\n        /* \"contracts/lzApp/NonblockingLzApp.sol\":2090:2155  _nonblockingLzReceive(_srcChainId, _srcAddress, _nonce, _payload) */\n      dup5\n      calldatacopy\n      0x00\n      swap3\n      add\n      swap2\n      swap1\n      swap2\n      mstore\n      pop\n        /* \"contracts/lzApp/NonblockingLzApp.sol\":2090:2111  _nonblockingLzReceive */\n      tag_289\n      swap3\n      pop\n      pop\n      pop\n        /* \"contracts/lzApp/NonblockingLzApp.sol\":2090:2155  _nonblockingLzReceive(_srcChainId, _srcAddress, _nonce, _payload) */\n      jump\t// in\n    tag_288:\n        /* \"contracts/lzApp/NonblockingLzApp.sol\":1820:2162  function nonblockingLzReceive(uint16 _srcChainId, bytes calldata _srcAddress, uint64 _nonce, bytes calldata _payload) public virtual {... */\n      pop\n      pop\n      pop\n      pop\n      pop\n      pop\n      jump\t// out\n        /* \"contracts/examples/OmniMessage.sol\":4987:5552  function estimateFees(uint16 dstChainId, bytes calldata adapterParams, string memory _message) public view returns (uint nativeFee, uint zroFee) {... */\n    tag_114:\n        /* \"contracts/examples/OmniMessage.sol\":5103:5117  uint nativeFee */\n      0x00\n        /* \"contracts/examples/OmniMessage.sol\":5119:5130  uint zroFee */\n      dup1\n        /* \"contracts/examples/OmniMessage.sol\":5197:5217  bytes memory payload */\n      0x00\n        /* \"contracts/examples/OmniMessage.sol\":5231:5239  _message */\n      dup4\n        /* \"contracts/examples/OmniMessage.sol\":5220:5240  abi.encode(_message) */\n      add(0x20, mload(0x40))\n      tag_291\n      swap2\n      swap1\n      tag_124\n      jump\t// in\n    tag_291:\n      0x40\n      dup1\n      mload\n      not(0x1f)\n      dup2\n      dup5\n      sub\n      add\n      dup2\n      mstore\n      swap1\n      dup3\n      swap1\n      mstore\n      shl(0xe4, 0x040a7bb1)\n        /* \"contracts/examples/OmniMessage.sol\":5464:5545  lzEndpoint.estimateFees(dstChainId, address(this), payload, false, adapterParams) */\n      dup3\n      mstore\n        /* \"contracts/examples/OmniMessage.sol\":5220:5240  abi.encode(_message) */\n      swap2\n      pop\n      sub(shl(0xa0, 0x01), 0x01)\n        /* \"contracts/examples/OmniMessage.sol\":5464:5474  lzEndpoint */\n      immutable(\"0x46eb50c447c403e47cdd18c8674af108a4943ba3d8a10108852723fbe4a03cc6\")\n        /* \"contracts/examples/OmniMessage.sol\":5464:5487  lzEndpoint.estimateFees */\n      and\n      swap1\n      0x40a7bb10\n      swap1\n        /* \"contracts/examples/OmniMessage.sol\":5464:5545  lzEndpoint.estimateFees(dstChainId, address(this), payload, false, adapterParams) */\n      tag_292\n      swap1\n        /* \"contracts/examples/OmniMessage.sol\":5488:5498  dstChainId */\n      dup11\n      swap1\n        /* \"contracts/examples/OmniMessage.sol\":5508:5512  this */\n      address\n      swap1\n        /* \"contracts/examples/OmniMessage.sol\":5220:5240  abi.encode(_message) */\n      dup7\n      swap1\n        /* \"contracts/examples/OmniMessage.sol\":5524:5529  false */\n      0x00\n      swap1\n        /* \"contracts/examples/OmniMessage.sol\":5531:5544  adapterParams */\n      dup14\n      swap1\n      dup14\n      swap1\n        /* \"contracts/examples/OmniMessage.sol\":5464:5545  lzEndpoint.estimateFees(dstChainId, address(this), payload, false, adapterParams) */\n      0x04\n      add\n      tag_293\n      jump\t// in\n    tag_292:\n      0x40\n      dup1\n      mload\n      dup1\n      dup4\n      sub\n      dup2\n      dup7\n      gas\n      staticcall\n      iszero\n      dup1\n      iszero\n      tag_295\n      jumpi\n      returndatasize\n      0x00\n      dup1\n      returndatacopy\n      revert(0x00, returndatasize)\n    tag_295:\n      pop\n      pop\n      pop\n      pop\n      mload(0x40)\n      returndatasize\n      not(0x1f)\n      0x1f\n      dup3\n      add\n      and\n      dup3\n      add\n      dup1\n      0x40\n      mstore\n      pop\n      dup2\n      add\n      swap1\n      tag_296\n      swap2\n      swap1\n      tag_297\n      jump\t// in\n    tag_296:\n        /* \"contracts/examples/OmniMessage.sol\":5457:5545  return lzEndpoint.estimateFees(dstChainId, address(this), payload, false, adapterParams) */\n      swap3\n      pop\n      swap3\n      pop\n      pop\n        /* \"contracts/examples/OmniMessage.sol\":4987:5552  function estimateFees(uint16 dstChainId, bytes calldata adapterParams, string memory _message) public view returns (uint nativeFee, uint zroFee) {... */\n      swap5\n      pop\n      swap5\n      swap3\n      pop\n      pop\n      pop\n      jump\t// out\n        /* \"contracts/openzeppelin/contracts/access/Ownable.sol\":1824:1925  function renounceOwnership() public virtual onlyOwner {... */\n    tag_119:\n        /* \"contracts/openzeppelin/contracts/access/Ownable.sol\":1094:1107  _checkOwner() */\n      tag_299\n        /* \"contracts/openzeppelin/contracts/access/Ownable.sol\":1094:1105  _checkOwner */\n      tag_231\n        /* \"contracts/openzeppelin/contracts/access/Ownable.sol\":1094:1107  _checkOwner() */\n      jump\t// in\n    tag_299:\n        /* \"contracts/openzeppelin/contracts/access/Ownable.sol\":1888:1918  _transferOwnership(address(0)) */\n      tag_301\n        /* \"contracts/openzeppelin/contracts/access/Ownable.sol\":1915:1916  0 */\n      0x00\n        /* \"contracts/openzeppelin/contracts/access/Ownable.sol\":1888:1906  _transferOwnership */\n      tag_302\n        /* \"contracts/openzeppelin/contracts/access/Ownable.sol\":1888:1918  _transferOwnership(address(0)) */\n      jump\t// in\n    tag_301:\n        /* \"contracts/openzeppelin/contracts/access/Ownable.sol\":1824:1925  function renounceOwnership() public virtual onlyOwner {... */\n      jump\t// out\n        /* \"contracts/examples/OmniMessage.sol\":423:466  string public data = \"Nothing received yet\" */\n    tag_122:\n      0x06\n      dup1\n      sload\n      tag_303\n      swap1\n      tag_215\n      jump\t// in\n    tag_303:\n      dup1\n      0x1f\n      add\n      0x20\n      dup1\n      swap2\n      div\n      mul\n      0x20\n      add\n      mload(0x40)\n      swap1\n      dup2\n      add\n      0x40\n      mstore\n      dup1\n      swap3\n      swap2\n      swap1\n      dup2\n      dup2\n      mstore\n      0x20\n      add\n      dup3\n      dup1\n      sload\n      tag_304\n      swap1\n      tag_215\n      jump\t// in\n    tag_304:\n      dup1\n      iszero\n      tag_305\n      jumpi\n      dup1\n      0x1f\n      lt\n      tag_306\n      jumpi\n      0x0100\n      dup1\n      dup4\n      sload\n      div\n      mul\n      dup4\n      mstore\n      swap2\n      0x20\n      add\n      swap2\n      jump(tag_305)\n    tag_306:\n      dup3\n      add\n      swap2\n      swap1\n      0x00\n      mstore\n      keccak256(0x00, 0x20)\n      swap1\n    tag_307:\n      dup2\n      sload\n      dup2\n      mstore\n      swap1\n      0x01\n      add\n      swap1\n      0x20\n      add\n      dup1\n      dup4\n      gt\n      tag_307\n      jumpi\n      dup3\n      swap1\n      sub\n      0x1f\n      and\n      dup3\n      add\n      swap2\n    tag_305:\n      pop\n      pop\n      pop\n      pop\n      pop\n      dup2\n      jump\t// out\n        /* \"contracts/lzApp/LzApp.sol\":682:733  mapping(uint16 => bytes) public trustedRemoteLookup */\n    tag_128:\n      mstore(0x20, 0x01)\n      0x00\n      swap1\n      dup2\n      mstore\n      0x40\n      swap1\n      keccak256\n      dup1\n      sload\n      tag_303\n      swap1\n      tag_215\n      jump\t// in\n        /* \"contracts/lzApp/LzApp.sol\":5574:5900  function getTrustedRemoteAddress(uint16 _remoteChainId) external view returns (bytes memory) {... */\n    tag_149:\n        /* \"contracts/lzApp/LzApp.sol\":5697:5732  trustedRemoteLookup[_remoteChainId] */\n      0xffff\n      dup2\n      and\n        /* \"contracts/lzApp/LzApp.sol\":5677:5694  bytes memory path */\n      0x00\n        /* \"contracts/lzApp/LzApp.sol\":5697:5732  trustedRemoteLookup[_remoteChainId] */\n      swap1\n      dup2\n      mstore\n        /* \"contracts/lzApp/LzApp.sol\":5697:5716  trustedRemoteLookup */\n      0x01\n        /* \"contracts/lzApp/LzApp.sol\":5697:5732  trustedRemoteLookup[_remoteChainId] */\n      0x20\n      mstore\n      0x40\n      dup2\n      keccak256\n        /* \"contracts/lzApp/LzApp.sol\":5677:5732  bytes memory path = trustedRemoteLookup[_remoteChainId] */\n      dup1\n      sload\n        /* \"contracts/lzApp/LzApp.sol\":5653:5665  bytes memory */\n      0x60\n      swap3\n        /* \"contracts/lzApp/LzApp.sol\":5677:5694  bytes memory path */\n      swap2\n        /* \"contracts/lzApp/LzApp.sol\":5697:5732  trustedRemoteLookup[_remoteChainId] */\n      swap1\n        /* \"contracts/lzApp/LzApp.sol\":5677:5732  bytes memory path = trustedRemoteLookup[_remoteChainId] */\n      tag_315\n      swap1\n      tag_215\n      jump\t// in\n    tag_315:\n      dup1\n      0x1f\n      add\n      0x20\n      dup1\n      swap2\n      div\n      mul\n      0x20\n      add\n      mload(0x40)\n      swap1\n      dup2\n      add\n      0x40\n      mstore\n      dup1\n      swap3\n      swap2\n      swap1\n      dup2\n      dup2\n      mstore\n      0x20\n      add\n      dup3\n      dup1\n      sload\n      tag_316\n      swap1\n      tag_215\n      jump\t// in\n    tag_316:\n      dup1\n      iszero\n      tag_317\n      jumpi\n      dup1\n      0x1f\n      lt\n      tag_318\n      jumpi\n      0x0100\n      dup1\n      dup4\n      sload\n      div\n      mul\n      dup4\n      mstore\n      swap2\n      0x20\n      add\n      swap2\n      jump(tag_317)\n    tag_318:\n      dup3\n      add\n      swap2\n      swap1\n      0x00\n      mstore\n      keccak256(0x00, 0x20)\n      swap1\n    tag_319:\n      dup2\n      sload\n      dup2\n      mstore\n      swap1\n      0x01\n      add\n      swap1\n      0x20\n      add\n      dup1\n      dup4\n      gt\n      tag_319\n      jumpi\n      dup3\n      swap1\n      sub\n      0x1f\n      and\n      dup3\n      add\n      swap2\n    tag_317:\n      pop\n      pop\n      pop\n      pop\n      pop\n      swap1\n      pop\n        /* \"contracts/lzApp/LzApp.sol\":5750:5754  path */\n      dup1\n        /* \"contracts/lzApp/LzApp.sol\":5750:5761  path.length */\n      mload\n        /* \"contracts/lzApp/LzApp.sol\":5765:5766  0 */\n      0x00\n        /* \"contracts/lzApp/LzApp.sol\":5750:5766  path.length != 0 */\n      sub\n        /* \"contracts/lzApp/LzApp.sol\":5742:5800  require(path.length != 0, \"LzApp: no trusted path record\") */\n      tag_320\n      jumpi\n      mload(0x40)\n      shl(0xe5, 0x461bcd)\n      dup2\n      mstore\n        /* \"#utility.yul\":17049:17051   */\n      0x20\n        /* \"contracts/lzApp/LzApp.sol\":5742:5800  require(path.length != 0, \"LzApp: no trusted path record\") */\n      0x04\n      dup3\n      add\n        /* \"#utility.yul\":17031:17052   */\n      mstore\n        /* \"#utility.yul\":17088:17090   */\n      0x1d\n        /* \"#utility.yul\":17068:17086   */\n      0x24\n      dup3\n      add\n        /* \"#utility.yul\":17061:17091   */\n      mstore\n        /* \"#utility.yul\":17127:17158   */\n      0x4c7a4170703a206e6f20747275737465642070617468207265636f7264000000\n        /* \"#utility.yul\":17107:17125   */\n      0x44\n      dup3\n      add\n        /* \"#utility.yul\":17100:17159   */\n      mstore\n        /* \"#utility.yul\":17176:17194   */\n      0x64\n      add\n        /* \"contracts/lzApp/LzApp.sol\":5742:5800  require(path.length != 0, \"LzApp: no trusted path record\") */\n      tag_212\n        /* \"#utility.yul\":16847:17200   */\n      jump\n        /* \"contracts/lzApp/LzApp.sol\":5742:5800  require(path.length != 0, \"LzApp: no trusted path record\") */\n    tag_320:\n        /* \"contracts/lzApp/LzApp.sol\":5817:5848  path.slice(0, path.length - 20) */\n      tag_247\n        /* \"contracts/lzApp/LzApp.sol\":5828:5829  0 */\n      0x00\n        /* \"contracts/lzApp/LzApp.sol\":5845:5847  20 */\n      0x14\n        /* \"contracts/lzApp/LzApp.sol\":5831:5835  path */\n      dup4\n        /* \"contracts/lzApp/LzApp.sol\":5831:5842  path.length */\n      mload\n        /* \"contracts/lzApp/LzApp.sol\":5831:5847  path.length - 20 */\n      tag_324\n      swap2\n      swap1\n      tag_325\n      jump\t// in\n    tag_324:\n        /* \"contracts/lzApp/LzApp.sol\":5817:5821  path */\n      dup4\n      swap2\n        /* \"contracts/lzApp/LzApp.sol\":5817:5848  path.slice(0, path.length - 20) */\n      swap1\n        /* \"contracts/lzApp/LzApp.sol\":5817:5827  path.slice */\n      tag_326\n        /* \"contracts/lzApp/LzApp.sol\":5817:5848  path.slice(0, path.length - 20) */\n      jump\t// in\n        /* \"contracts/lzApp/LzApp.sol\":5290:5568  function setTrustedRemoteAddress(uint16 _remoteChainId, bytes calldata _remoteAddress) external onlyOwner {... */\n    tag_154:\n        /* \"contracts/openzeppelin/contracts/access/Ownable.sol\":1094:1107  _checkOwner() */\n      tag_328\n        /* \"contracts/openzeppelin/contracts/access/Ownable.sol\":1094:1105  _checkOwner */\n      tag_231\n        /* \"contracts/openzeppelin/contracts/access/Ownable.sol\":1094:1107  _checkOwner() */\n      jump\t// in\n    tag_328:\n        /* \"contracts/lzApp/LzApp.sol\":5461:5475  _remoteAddress */\n      dup2\n      dup2\n        /* \"contracts/lzApp/LzApp.sol\":5485:5489  this */\n      address\n        /* \"contracts/lzApp/LzApp.sol\":5444:5491  abi.encodePacked(_remoteAddress, address(this)) */\n      add(0x20, mload(0x40))\n      tag_330\n      swap4\n      swap3\n      swap2\n      swap1\n      tag_331\n      jump\t// in\n    tag_330:\n      0x40\n      dup1\n      mload\n      not(0x1f)\n      dup2\n      dup5\n      sub\n      add\n      dup2\n      mstore\n      swap2\n      dup2\n      mstore\n        /* \"contracts/lzApp/LzApp.sol\":5406:5441  trustedRemoteLookup[_remoteChainId] */\n      0xffff\n      dup6\n      and\n      0x00\n      swap1\n      dup2\n      mstore\n        /* \"contracts/lzApp/LzApp.sol\":5406:5425  trustedRemoteLookup */\n      0x01\n        /* \"contracts/lzApp/LzApp.sol\":5444:5491  abi.encodePacked(_remoteAddress, address(this)) */\n      0x20\n        /* \"contracts/lzApp/LzApp.sol\":5406:5441  trustedRemoteLookup[_remoteChainId] */\n      mstore\n      keccak256\n      swap1\n        /* \"contracts/lzApp/LzApp.sol\":5406:5491  trustedRemoteLookup[_remoteChainId] = abi.encodePacked(_remoteAddress, address(this)) */\n      tag_332\n      swap1\n        /* \"contracts/lzApp/LzApp.sol\":5406:5441  trustedRemoteLookup[_remoteChainId] */\n      dup3\n        /* \"contracts/lzApp/LzApp.sol\":5406:5491  trustedRemoteLookup[_remoteChainId] = abi.encodePacked(_remoteAddress, address(this)) */\n      tag_268\n      jump\t// in\n    tag_332:\n      pop\n        /* \"contracts/lzApp/LzApp.sol\":5506:5561  SetTrustedRemoteAddress(_remoteChainId, _remoteAddress) */\n      0x8c0400cfe2d1199b1a725c78960bcc2a344d869b80590d0f2bd005db15a572ce\n        /* \"contracts/lzApp/LzApp.sol\":5530:5544  _remoteChainId */\n      dup4\n        /* \"contracts/lzApp/LzApp.sol\":5546:5560  _remoteAddress */\n      dup4\n      dup4\n        /* \"contracts/lzApp/LzApp.sol\":5506:5561  SetTrustedRemoteAddress(_remoteChainId, _remoteAddress) */\n      mload(0x40)\n      tag_333\n      swap4\n      swap3\n      swap2\n      swap1\n      tag_258\n      jump\t// in\n    tag_333:\n      mload(0x40)\n      dup1\n      swap2\n      sub\n      swap1\n      log1\n        /* \"contracts/lzApp/LzApp.sol\":5290:5568  function setTrustedRemoteAddress(uint16 _remoteChainId, bytes calldata _remoteAddress) external onlyOwner {... */\n      pop\n      pop\n      pop\n      jump\t// out\n        /* \"contracts/lzApp/LzApp.sol\":5906:6039  function setPrecrime(address _precrime) external onlyOwner {... */\n    tag_167:\n        /* \"contracts/openzeppelin/contracts/access/Ownable.sol\":1094:1107  _checkOwner() */\n      tag_336\n        /* \"contracts/openzeppelin/contracts/access/Ownable.sol\":1094:1105  _checkOwner */\n      tag_231\n        /* \"contracts/openzeppelin/contracts/access/Ownable.sol\":1094:1107  _checkOwner() */\n      jump\t// in\n    tag_336:\n        /* \"contracts/lzApp/LzApp.sol\":5975:5983  precrime */\n      0x04\n        /* \"contracts/lzApp/LzApp.sol\":5975:5995  precrime = _precrime */\n      dup1\n      sload\n      not(sub(shl(0xa0, 0x01), 0x01))\n      and\n      sub(shl(0xa0, 0x01), 0x01)\n      dup4\n      and\n      swap1\n      dup2\n      or\n      swap1\n      swap2\n      sstore\n        /* \"contracts/lzApp/LzApp.sol\":6010:6032  SetPrecrime(_precrime) */\n      mload(0x40)\n        /* \"#utility.yul\":7894:7968   */\n      swap1\n      dup2\n      mstore\n        /* \"contracts/lzApp/LzApp.sol\":6010:6032  SetPrecrime(_precrime) */\n      0x5db758e995a17ec1ad84bdef7e8c3293a0bd6179bcce400dff5d4c3d87db726b\n      swap1\n        /* \"#utility.yul\":7882:7884   */\n      0x20\n        /* \"#utility.yul\":7867:7885   */\n      add\n        /* \"contracts/lzApp/LzApp.sol\":6010:6032  SetPrecrime(_precrime) */\n      mload(0x40)\n      dup1\n      swap2\n      sub\n      swap1\n      log1\n        /* \"contracts/lzApp/LzApp.sol\":5906:6039  function setPrecrime(address _precrime) external onlyOwner {... */\n      pop\n      jump\t// out\n        /* \"contracts/lzApp/LzApp.sol\":4293:4495  function setConfig(uint16 _version, uint16 _chainId, uint _configType, bytes calldata _config) external override onlyOwner {... */\n    tag_181:\n        /* \"contracts/openzeppelin/contracts/access/Ownable.sol\":1094:1107  _checkOwner() */\n      tag_340\n        /* \"contracts/openzeppelin/contracts/access/Ownable.sol\":1094:1105  _checkOwner */\n      tag_231\n        /* \"contracts/openzeppelin/contracts/access/Ownable.sol\":1094:1107  _checkOwner() */\n      jump\t// in\n    tag_340:\n        /* \"contracts/lzApp/LzApp.sol\":4426:4488  lzEndpoint.setConfig(_version, _chainId, _configType, _config) */\n      mload(0x40)\n      shl(0xe2, 0x32fb62e7)\n      dup2\n      mstore\n      sub(shl(0xa0, 0x01), 0x01)\n        /* \"contracts/lzApp/LzApp.sol\":4426:4436  lzEndpoint */\n      immutable(\"0x46eb50c447c403e47cdd18c8674af108a4943ba3d8a10108852723fbe4a03cc6\")\n        /* \"contracts/lzApp/LzApp.sol\":4426:4446  lzEndpoint.setConfig */\n      and\n      swap1\n      0xcbed8b9c\n      swap1\n        /* \"contracts/lzApp/LzApp.sol\":4426:4488  lzEndpoint.setConfig(_version, _chainId, _configType, _config) */\n      tag_342\n      swap1\n        /* \"contracts/lzApp/LzApp.sol\":4447:4455  _version */\n      dup9\n      swap1\n        /* \"contracts/lzApp/LzApp.sol\":4457:4465  _chainId */\n      dup9\n      swap1\n        /* \"contracts/lzApp/LzApp.sol\":4467:4478  _configType */\n      dup9\n      swap1\n        /* \"contracts/lzApp/LzApp.sol\":4480:4487  _config */\n      dup9\n      swap1\n      dup9\n      swap1\n        /* \"contracts/lzApp/LzApp.sol\":4426:4488  lzEndpoint.setConfig(_version, _chainId, _configType, _config) */\n      0x04\n      add\n      tag_343\n      jump\t// in\n    tag_342:\n      0x00\n      mload(0x40)\n      dup1\n      dup4\n      sub\n      dup2\n      0x00\n      dup8\n      dup1\n      extcodesize\n      iszero\n      dup1\n      iszero\n      tag_344\n      jumpi\n      0x00\n      dup1\n      revert\n    tag_344:\n      pop\n      gas\n      call\n      iszero\n      dup1\n      iszero\n      tag_346\n      jumpi\n      returndatasize\n      0x00\n      dup1\n      returndatacopy\n      revert(0x00, returndatasize)\n    tag_346:\n      pop\n      pop\n      pop\n      pop\n        /* \"contracts/lzApp/LzApp.sol\":4293:4495  function setConfig(uint16 _version, uint16 _chainId, uint _configType, bytes calldata _config) external override onlyOwner {... */\n      pop\n      pop\n      pop\n      pop\n      pop\n      jump\t// out\n        /* \"contracts/lzApp/NonblockingLzApp.sol\":2343:3100  function retryMessage(uint16 _srcChainId, bytes calldata _srcAddress, uint64 _nonce, bytes calldata _payload) public payable virtual {... */\n    tag_184:\n        /* \"contracts/lzApp/NonblockingLzApp.sol\":2552:2579  failedMessages[_srcChainId] */\n      0xffff\n      dup7\n      and\n        /* \"contracts/lzApp/NonblockingLzApp.sol\":2530:2549  bytes32 payloadHash */\n      0x00\n        /* \"contracts/lzApp/NonblockingLzApp.sol\":2552:2579  failedMessages[_srcChainId] */\n      swap1\n      dup2\n      mstore\n        /* \"contracts/lzApp/NonblockingLzApp.sol\":2552:2566  failedMessages */\n      0x05\n        /* \"contracts/lzApp/NonblockingLzApp.sol\":2552:2579  failedMessages[_srcChainId] */\n      0x20\n      mstore\n      0x40\n      dup1\n      dup3\n      keccak256\n        /* \"contracts/lzApp/NonblockingLzApp.sol\":2552:2592  failedMessages[_srcChainId][_srcAddress] */\n      swap1\n      mload\n      tag_348\n      swap1\n        /* \"contracts/lzApp/NonblockingLzApp.sol\":2580:2591  _srcAddress */\n      dup9\n      swap1\n      dup9\n      swap1\n        /* \"contracts/lzApp/NonblockingLzApp.sol\":2552:2592  failedMessages[_srcChainId][_srcAddress] */\n      tag_223\n      jump\t// in\n    tag_348:\n      swap1\n      dup2\n      mstore\n      0x40\n      dup1\n      mload\n      0x20\n      swap3\n      dup2\n      swap1\n      sub\n      dup4\n      add\n      swap1\n      keccak256\n      sub(shl(0x40, 0x01), 0x01)\n        /* \"contracts/lzApp/NonblockingLzApp.sol\":2552:2600  failedMessages[_srcChainId][_srcAddress][_nonce] */\n      dup8\n      and\n      0x00\n      swap1\n      dup2\n      mstore\n      swap3\n      mstore\n      swap1\n      keccak256\n      sload\n      swap1\n      pop\n      dup1\n        /* \"contracts/lzApp/NonblockingLzApp.sol\":2610:2683  require(payloadHash != bytes32(0), \"NonblockingLzApp: no stored message\") */\n      tag_349\n      jumpi\n      mload(0x40)\n      shl(0xe5, 0x461bcd)\n      dup2\n      mstore\n        /* \"#utility.yul\":18408:18410   */\n      0x20\n        /* \"contracts/lzApp/NonblockingLzApp.sol\":2610:2683  require(payloadHash != bytes32(0), \"NonblockingLzApp: no stored message\") */\n      0x04\n      dup3\n      add\n        /* \"#utility.yul\":18390:18411   */\n      mstore\n        /* \"#utility.yul\":18447:18449   */\n      0x23\n        /* \"#utility.yul\":18427:18445   */\n      0x24\n      dup3\n      add\n        /* \"#utility.yul\":18420:18450   */\n      mstore\n        /* \"#utility.yul\":18486:18520   */\n      0x4e6f6e626c6f636b696e674c7a4170703a206e6f2073746f726564206d657373\n        /* \"#utility.yul\":18466:18484   */\n      0x44\n      dup3\n      add\n        /* \"#utility.yul\":18459:18521   */\n      mstore\n      shl(0xe8, 0x616765)\n        /* \"#utility.yul\":18537:18555   */\n      0x64\n      dup3\n      add\n        /* \"#utility.yul\":18530:18563   */\n      mstore\n        /* \"#utility.yul\":18580:18599   */\n      0x84\n      add\n        /* \"contracts/lzApp/NonblockingLzApp.sol\":2610:2683  require(payloadHash != bytes32(0), \"NonblockingLzApp: no stored message\") */\n      tag_212\n        /* \"#utility.yul\":18206:18605   */\n      jump\n        /* \"contracts/lzApp/NonblockingLzApp.sol\":2610:2683  require(payloadHash != bytes32(0), \"NonblockingLzApp: no stored message\") */\n    tag_349:\n        /* \"contracts/lzApp/NonblockingLzApp.sol\":2724:2735  payloadHash */\n      dup1\n        /* \"contracts/lzApp/NonblockingLzApp.sol\":2711:2719  _payload */\n      dup4\n      dup4\n        /* \"contracts/lzApp/NonblockingLzApp.sol\":2701:2720  keccak256(_payload) */\n      mload(0x40)\n      tag_352\n      swap3\n      swap2\n      swap1\n      tag_223\n      jump\t// in\n    tag_352:\n      mload(0x40)\n      dup1\n      swap2\n      sub\n      swap1\n      keccak256\n        /* \"contracts/lzApp/NonblockingLzApp.sol\":2701:2735  keccak256(_payload) == payloadHash */\n      eq\n        /* \"contracts/lzApp/NonblockingLzApp.sol\":2693:2773  require(keccak256(_payload) == payloadHash, \"NonblockingLzApp: invalid payload\") */\n      tag_353\n      jumpi\n      mload(0x40)\n      shl(0xe5, 0x461bcd)\n      dup2\n      mstore\n        /* \"#utility.yul\":18812:18814   */\n      0x20\n        /* \"contracts/lzApp/NonblockingLzApp.sol\":2693:2773  require(keccak256(_payload) == payloadHash, \"NonblockingLzApp: invalid payload\") */\n      0x04\n      dup3\n      add\n        /* \"#utility.yul\":18794:18815   */\n      mstore\n        /* \"#utility.yul\":18851:18853   */\n      0x21\n        /* \"#utility.yul\":18831:18849   */\n      0x24\n      dup3\n      add\n        /* \"#utility.yul\":18824:18854   */\n      mstore\n        /* \"#utility.yul\":18890:18924   */\n      0x4e6f6e626c6f636b696e674c7a4170703a20696e76616c6964207061796c6f61\n        /* \"#utility.yul\":18870:18888   */\n      0x44\n      dup3\n      add\n        /* \"#utility.yul\":18863:18925   */\n      mstore\n      shl(0xfa, 0x19)\n        /* \"#utility.yul\":18941:18959   */\n      0x64\n      dup3\n      add\n        /* \"#utility.yul\":18934:18965   */\n      mstore\n        /* \"#utility.yul\":18982:19001   */\n      0x84\n      add\n        /* \"contracts/lzApp/NonblockingLzApp.sol\":2693:2773  require(keccak256(_payload) == payloadHash, \"NonblockingLzApp: invalid payload\") */\n      tag_212\n        /* \"#utility.yul\":18610:19007   */\n      jump\n        /* \"contracts/lzApp/NonblockingLzApp.sol\":2693:2773  require(keccak256(_payload) == payloadHash, \"NonblockingLzApp: invalid payload\") */\n    tag_353:\n        /* \"contracts/lzApp/NonblockingLzApp.sol\":2819:2846  failedMessages[_srcChainId] */\n      0xffff\n      dup8\n      and\n        /* \"contracts/lzApp/NonblockingLzApp.sol\":2878:2879  0 */\n      0x00\n        /* \"contracts/lzApp/NonblockingLzApp.sol\":2819:2846  failedMessages[_srcChainId] */\n      swap1\n      dup2\n      mstore\n        /* \"contracts/lzApp/NonblockingLzApp.sol\":2819:2833  failedMessages */\n      0x05\n        /* \"contracts/lzApp/NonblockingLzApp.sol\":2819:2846  failedMessages[_srcChainId] */\n      0x20\n      mstore\n      0x40\n      dup1\n      dup3\n      keccak256\n        /* \"contracts/lzApp/NonblockingLzApp.sol\":2819:2859  failedMessages[_srcChainId][_srcAddress] */\n      swap1\n      mload\n      tag_356\n      swap1\n        /* \"contracts/lzApp/NonblockingLzApp.sol\":2847:2858  _srcAddress */\n      dup10\n      swap1\n      dup10\n      swap1\n        /* \"contracts/lzApp/NonblockingLzApp.sol\":2819:2859  failedMessages[_srcChainId][_srcAddress] */\n      tag_223\n      jump\t// in\n    tag_356:\n      swap1\n      dup2\n      mstore\n      0x40\n      dup1\n      mload\n      0x20\n      swap3\n      dup2\n      swap1\n      sub\n      dup4\n      add\n      dup2\n      keccak256\n      sub(shl(0x40, 0x01), 0x01)\n        /* \"contracts/lzApp/NonblockingLzApp.sol\":2819:2867  failedMessages[_srcChainId][_srcAddress][_nonce] */\n      dup10\n      and\n      0x00\n      swap1\n      dup2\n      mstore\n      swap1\n      dup5\n      mstore\n      dup3\n      swap1\n      keccak256\n        /* \"contracts/lzApp/NonblockingLzApp.sol\":2819:2880  failedMessages[_srcChainId][_srcAddress][_nonce] = bytes32(0) */\n      swap4\n      swap1\n      swap4\n      sstore\n        /* \"contracts/lzApp/NonblockingLzApp.sol\":2947:3012  _nonblockingLzReceive(_srcChainId, _srcAddress, _nonce, _payload) */\n      0x1f\n      dup9\n      add\n      dup3\n      swap1\n      div\n      dup3\n      mul\n      dup4\n      add\n      dup3\n      add\n      swap1\n      mstore\n      dup7\n      dup3\n      mstore\n      tag_357\n      swap2\n        /* \"contracts/lzApp/NonblockingLzApp.sol\":2969:2980  _srcChainId */\n      dup10\n      swap2\n        /* \"contracts/lzApp/NonblockingLzApp.sol\":2982:2993  _srcAddress */\n      dup10\n      swap1\n        /* \"contracts/lzApp/NonblockingLzApp.sol\":2947:3012  _nonblockingLzReceive(_srcChainId, _srcAddress, _nonce, _payload) */\n      dup10\n      swap1\n      dup2\n      swap1\n      dup5\n      add\n        /* \"contracts/lzApp/NonblockingLzApp.sol\":2982:2993  _srcAddress */\n      dup4\n        /* \"contracts/lzApp/NonblockingLzApp.sol\":2947:3012  _nonblockingLzReceive(_srcChainId, _srcAddress, _nonce, _payload) */\n      dup3\n      dup1\n        /* \"contracts/lzApp/NonblockingLzApp.sol\":2982:2993  _srcAddress */\n      dup3\n        /* \"contracts/lzApp/NonblockingLzApp.sol\":2947:3012  _nonblockingLzReceive(_srcChainId, _srcAddress, _nonce, _payload) */\n      dup5\n      calldatacopy\n      0x00\n      swap3\n      add\n      swap2\n      swap1\n      swap2\n      mstore\n      pop\n      pop\n      0x40\n      dup1\n      mload\n      0x20\n      0x1f\n      dup11\n      add\n      dup2\n      swap1\n      div\n      dup2\n      mul\n      dup3\n      add\n      dup2\n      add\n      swap1\n      swap3\n      mstore\n      dup9\n      dup2\n      mstore\n        /* \"contracts/lzApp/NonblockingLzApp.sol\":2995:3001  _nonce */\n      dup11\n      swap4\n      pop\n        /* \"contracts/lzApp/NonblockingLzApp.sol\":2947:3012  _nonblockingLzReceive(_srcChainId, _srcAddress, _nonce, _payload) */\n      swap2\n      pop\n        /* \"contracts/lzApp/NonblockingLzApp.sol\":3003:3011  _payload */\n      dup9\n      swap1\n      dup9\n      swap1\n      dup2\n      swap1\n        /* \"contracts/lzApp/NonblockingLzApp.sol\":2947:3012  _nonblockingLzReceive(_srcChainId, _srcAddress, _nonce, _payload) */\n      dup5\n      add\n        /* \"contracts/lzApp/NonblockingLzApp.sol\":3003:3011  _payload */\n      dup4\n      dup3\n      dup1\n      dup3\n        /* \"contracts/lzApp/NonblockingLzApp.sol\":2947:3012  _nonblockingLzReceive(_srcChainId, _srcAddress, _nonce, _payload) */\n      dup5\n      calldatacopy\n      0x00\n      swap3\n      add\n      swap2\n      swap1\n      swap2\n      mstore\n      pop\n        /* \"contracts/lzApp/NonblockingLzApp.sol\":2947:2968  _nonblockingLzReceive */\n      tag_289\n      swap3\n      pop\n      pop\n      pop\n        /* \"contracts/lzApp/NonblockingLzApp.sol\":2947:3012  _nonblockingLzReceive(_srcChainId, _srcAddress, _nonce, _payload) */\n      jump\t// in\n    tag_357:\n        /* \"contracts/lzApp/NonblockingLzApp.sol\":3027:3093  RetryMessageSuccess(_srcChainId, _srcAddress, _nonce, payloadHash) */\n      0xc264d91f3adc5588250e1551f547752ca0cfa8f6b530d243b9f9f4cab10ea8e5\n        /* \"contracts/lzApp/NonblockingLzApp.sol\":3047:3058  _srcChainId */\n      dup8\n        /* \"contracts/lzApp/NonblockingLzApp.sol\":3060:3071  _srcAddress */\n      dup8\n      dup8\n        /* \"contracts/lzApp/NonblockingLzApp.sol\":3073:3079  _nonce */\n      dup8\n        /* \"contracts/lzApp/NonblockingLzApp.sol\":3081:3092  payloadHash */\n      dup6\n        /* \"contracts/lzApp/NonblockingLzApp.sol\":3027:3093  RetryMessageSuccess(_srcChainId, _srcAddress, _nonce, payloadHash) */\n      mload(0x40)\n      tag_358\n      swap6\n      swap5\n      swap4\n      swap3\n      swap2\n      swap1\n      tag_359\n      jump\t// in\n    tag_358:\n      mload(0x40)\n      dup1\n      swap2\n      sub\n      swap1\n      log1\n        /* \"contracts/lzApp/NonblockingLzApp.sol\":2476:3100  {... */\n      pop\n        /* \"contracts/lzApp/NonblockingLzApp.sol\":2343:3100  function retryMessage(uint16 _srcChainId, bytes calldata _srcAddress, uint64 _nonce, bytes calldata _payload) public payable virtual {... */\n      pop\n      pop\n      pop\n      pop\n      pop\n      pop\n      jump\t// out\n        /* \"contracts/lzApp/LzApp.sol\":6045:6325  function setMinDstGas(uint16 _dstChainId, uint16 _packetType, uint _minGas) external onlyOwner {... */\n    tag_193:\n        /* \"contracts/openzeppelin/contracts/access/Ownable.sol\":1094:1107  _checkOwner() */\n      tag_361\n        /* \"contracts/openzeppelin/contracts/access/Ownable.sol\":1094:1105  _checkOwner */\n      tag_231\n        /* \"contracts/openzeppelin/contracts/access/Ownable.sol\":1094:1107  _checkOwner() */\n      jump\t// in\n    tag_361:\n        /* \"contracts/lzApp/LzApp.sol\":6168:6169  0 */\n      0x00\n        /* \"contracts/lzApp/LzApp.sol\":6158:6165  _minGas */\n      dup2\n        /* \"contracts/lzApp/LzApp.sol\":6158:6169  _minGas > 0 */\n      gt\n        /* \"contracts/lzApp/LzApp.sol\":6150:6195  require(_minGas > 0, \"LzApp: invalid minGas\") */\n      tag_363\n      jumpi\n      mload(0x40)\n      shl(0xe5, 0x461bcd)\n      dup2\n      mstore\n        /* \"#utility.yul\":19712:19714   */\n      0x20\n        /* \"contracts/lzApp/LzApp.sol\":6150:6195  require(_minGas > 0, \"LzApp: invalid minGas\") */\n      0x04\n      dup3\n      add\n        /* \"#utility.yul\":19694:19715   */\n      mstore\n        /* \"#utility.yul\":19751:19753   */\n      0x15\n        /* \"#utility.yul\":19731:19749   */\n      0x24\n      dup3\n      add\n        /* \"#utility.yul\":19724:19754   */\n      mstore\n        /* \"#utility.yul\":19790:19813   */\n      0x4c7a4170703a20696e76616c6964206d696e4761730000000000000000000000\n        /* \"#utility.yul\":19770:19788   */\n      0x44\n      dup3\n      add\n        /* \"#utility.yul\":19763:19814   */\n      mstore\n        /* \"#utility.yul\":19831:19849   */\n      0x64\n      add\n        /* \"contracts/lzApp/LzApp.sol\":6150:6195  require(_minGas > 0, \"LzApp: invalid minGas\") */\n      tag_212\n        /* \"#utility.yul\":19510:19855   */\n      jump\n        /* \"contracts/lzApp/LzApp.sol\":6150:6195  require(_minGas > 0, \"LzApp: invalid minGas\") */\n    tag_363:\n        /* \"contracts/lzApp/LzApp.sol\":6205:6233  minDstGasLookup[_dstChainId] */\n      0xffff\n      dup4\n      dup2\n      and\n      0x00\n      dup2\n      dup2\n      mstore\n        /* \"contracts/lzApp/LzApp.sol\":6205:6220  minDstGasLookup */\n      0x02\n        /* \"contracts/lzApp/LzApp.sol\":6205:6233  minDstGasLookup[_dstChainId] */\n      0x20\n      swap1\n      dup2\n      mstore\n      0x40\n      dup1\n      dup4\n      keccak256\n        /* \"contracts/lzApp/LzApp.sol\":6205:6246  minDstGasLookup[_dstChainId][_packetType] */\n      swap5\n      dup8\n      and\n      dup1\n      dup5\n      mstore\n      swap5\n      dup3\n      mstore\n      swap2\n      dup3\n      swap1\n      keccak256\n        /* \"contracts/lzApp/LzApp.sol\":6205:6256  minDstGasLookup[_dstChainId][_packetType] = _minGas */\n      dup6\n      swap1\n      sstore\n        /* \"contracts/lzApp/LzApp.sol\":6271:6318  SetMinDstGas(_dstChainId, _packetType, _minGas) */\n      dup2\n      mload\n        /* \"#utility.yul\":20083:20117   */\n      swap3\n      dup4\n      mstore\n        /* \"#utility.yul\":20133:20151   */\n      dup3\n      add\n        /* \"#utility.yul\":20126:20169   */\n      swap3\n      swap1\n      swap3\n      mstore\n        /* \"#utility.yul\":20185:20203   */\n      swap1\n      dup2\n      add\n        /* \"#utility.yul\":20178:20212   */\n      dup3\n      swap1\n      mstore\n        /* \"contracts/lzApp/LzApp.sol\":6271:6318  SetMinDstGas(_dstChainId, _packetType, _minGas) */\n      0x9d5c7c0b934da8fefa9c7760c98383778a12dfbfc0c3b3106518f43fb9508ac0\n      swap1\n        /* \"#utility.yul\":20046:20048   */\n      0x60\n        /* \"#utility.yul\":20031:20049   */\n      add\n        /* \"contracts/lzApp/LzApp.sol\":6271:6318  SetMinDstGas(_dstChainId, _packetType, _minGas) */\n      tag_333\n        /* \"#utility.yul\":19860:20218   */\n      jump\n        /* \"contracts/lzApp/LzApp.sol\":5080:5284  function setTrustedRemote(uint16 _remoteChainId, bytes calldata _path) external onlyOwner {... */\n    tag_197:\n        /* \"contracts/openzeppelin/contracts/access/Ownable.sol\":1094:1107  _checkOwner() */\n      tag_369\n        /* \"contracts/openzeppelin/contracts/access/Ownable.sol\":1094:1105  _checkOwner */\n      tag_231\n        /* \"contracts/openzeppelin/contracts/access/Ownable.sol\":1094:1107  _checkOwner() */\n      jump\t// in\n    tag_369:\n        /* \"contracts/lzApp/LzApp.sol\":5180:5215  trustedRemoteLookup[_remoteChainId] */\n      0xffff\n      dup4\n      and\n      0x00\n      swap1\n      dup2\n      mstore\n        /* \"contracts/lzApp/LzApp.sol\":5180:5199  trustedRemoteLookup */\n      0x01\n        /* \"contracts/lzApp/LzApp.sol\":5180:5215  trustedRemoteLookup[_remoteChainId] */\n      0x20\n      mstore\n      0x40\n      swap1\n      keccak256\n        /* \"contracts/lzApp/LzApp.sol\":5180:5223  trustedRemoteLookup[_remoteChainId] = _path */\n      tag_371\n        /* \"contracts/lzApp/LzApp.sol\":5218:5223  _path */\n      dup3\n      dup5\n        /* \"contracts/lzApp/LzApp.sol\":5180:5215  trustedRemoteLookup[_remoteChainId] */\n      dup4\n        /* \"contracts/lzApp/LzApp.sol\":5180:5223  trustedRemoteLookup[_remoteChainId] = _path */\n      tag_372\n      jump\t// in\n    tag_371:\n      pop\n        /* \"contracts/lzApp/LzApp.sol\":5238:5277  SetTrustedRemote(_remoteChainId, _path) */\n      0xfa41487ad5d6728f0b19276fa1eddc16558578f5109fc39d2dc33c3230470dab\n        /* \"contracts/lzApp/LzApp.sol\":5255:5269  _remoteChainId */\n      dup4\n        /* \"contracts/lzApp/LzApp.sol\":5271:5276  _path */\n      dup4\n      dup4\n        /* \"contracts/lzApp/LzApp.sol\":5238:5277  SetTrustedRemote(_remoteChainId, _path) */\n      mload(0x40)\n      tag_333\n      swap4\n      swap3\n      swap2\n      swap1\n      tag_258\n      jump\t// in\n        /* \"contracts/openzeppelin/contracts/access/Ownable.sol\":2074:2272  function transferOwnership(address newOwner) public virtual onlyOwner {... */\n    tag_201:\n        /* \"contracts/openzeppelin/contracts/access/Ownable.sol\":1094:1107  _checkOwner() */\n      tag_375\n        /* \"contracts/openzeppelin/contracts/access/Ownable.sol\":1094:1105  _checkOwner */\n      tag_231\n        /* \"contracts/openzeppelin/contracts/access/Ownable.sol\":1094:1107  _checkOwner() */\n      jump\t// in\n    tag_375:\n      sub(shl(0xa0, 0x01), 0x01)\n        /* \"contracts/openzeppelin/contracts/access/Ownable.sol\":2162:2184  newOwner != address(0) */\n      dup2\n      and\n        /* \"contracts/openzeppelin/contracts/access/Ownable.sol\":2154:2227  require(newOwner != address(0), \"Ownable: new owner is the zero address\") */\n      tag_377\n      jumpi\n      mload(0x40)\n      shl(0xe5, 0x461bcd)\n      dup2\n      mstore\n        /* \"#utility.yul\":21632:21634   */\n      0x20\n        /* \"contracts/openzeppelin/contracts/access/Ownable.sol\":2154:2227  require(newOwner != address(0), \"Ownable: new owner is the zero address\") */\n      0x04\n      dup3\n      add\n        /* \"#utility.yul\":21614:21635   */\n      mstore\n        /* \"#utility.yul\":21671:21673   */\n      0x26\n        /* \"#utility.yul\":21651:21669   */\n      0x24\n      dup3\n      add\n        /* \"#utility.yul\":21644:21674   */\n      mstore\n        /* \"#utility.yul\":21710:21744   */\n      0x4f776e61626c653a206e6577206f776e657220697320746865207a65726f2061\n        /* \"#utility.yul\":21690:21708   */\n      0x44\n      dup3\n      add\n        /* \"#utility.yul\":21683:21745   */\n      mstore\n      shl(0xd0, 0x646472657373)\n        /* \"#utility.yul\":21761:21779   */\n      0x64\n      dup3\n      add\n        /* \"#utility.yul\":21754:21790   */\n      mstore\n        /* \"#utility.yul\":21807:21826   */\n      0x84\n      add\n        /* \"contracts/openzeppelin/contracts/access/Ownable.sol\":2154:2227  require(newOwner != address(0), \"Ownable: new owner is the zero address\") */\n      tag_212\n        /* \"#utility.yul\":21430:21832   */\n      jump\n        /* \"contracts/openzeppelin/contracts/access/Ownable.sol\":2154:2227  require(newOwner != address(0), \"Ownable: new owner is the zero address\") */\n    tag_377:\n        /* \"contracts/openzeppelin/contracts/access/Ownable.sol\":2237:2265  _transferOwnership(newOwner) */\n      tag_380\n        /* \"contracts/openzeppelin/contracts/access/Ownable.sol\":2256:2264  newOwner */\n      dup2\n        /* \"contracts/openzeppelin/contracts/access/Ownable.sol\":2237:2255  _transferOwnership */\n      tag_302\n        /* \"contracts/openzeppelin/contracts/access/Ownable.sol\":2237:2265  _transferOwnership(newOwner) */\n      jump\t// in\n    tag_380:\n        /* \"contracts/openzeppelin/contracts/access/Ownable.sol\":2074:2272  function transferOwnership(address newOwner) public virtual onlyOwner {... */\n      pop\n      jump\t// out\n        /* \"contracts/lzApp/LzApp.sol\":4025:4234  function getConfig(uint16 _version, uint16 _chainId, address, uint _configType) external view returns (bytes memory) {... */\n    tag_206:\n        /* \"contracts/lzApp/LzApp.sol\":4159:4227  lzEndpoint.getConfig(_version, _chainId, address(this), _configType) */\n      mload(0x40)\n      shl(0xe2, 0x3d7b2f6f)\n      dup2\n      mstore\n        /* \"#utility.yul\":22074:22080   */\n      0xffff\n        /* \"#utility.yul\":22107:22122   */\n      dup1\n      dup7\n      and\n        /* \"contracts/lzApp/LzApp.sol\":4159:4227  lzEndpoint.getConfig(_version, _chainId, address(this), _configType) */\n      0x04\n      dup4\n      add\n        /* \"#utility.yul\":22089:22123   */\n      mstore\n        /* \"#utility.yul\":22159:22174   */\n      dup5\n      and\n        /* \"#utility.yul\":22139:22157   */\n      0x24\n      dup3\n      add\n        /* \"#utility.yul\":22132:22175   */\n      mstore\n        /* \"contracts/lzApp/LzApp.sol\":4208:4212  this */\n      address\n        /* \"#utility.yul\":22191:22209   */\n      0x44\n      dup3\n      add\n        /* \"#utility.yul\":22184:22267   */\n      mstore\n        /* \"#utility.yul\":22283:22301   */\n      0x64\n      dup2\n      add\n        /* \"#utility.yul\":22276:22310   */\n      dup3\n      swap1\n      mstore\n        /* \"contracts/lzApp/LzApp.sol\":4128:4140  bytes memory */\n      0x60\n      swap1\n        /* \"contracts/lzApp/LzApp.sol\":4159:4169  lzEndpoint */\n      immutable(\"0x46eb50c447c403e47cdd18c8674af108a4943ba3d8a10108852723fbe4a03cc6\")\n      sub(shl(0xa0, 0x01), 0x01)\n        /* \"contracts/lzApp/LzApp.sol\":4159:4179  lzEndpoint.getConfig */\n      and\n      swap1\n      0xf5ecbdbc\n      swap1\n        /* \"#utility.yul\":22036:22055   */\n      0x84\n      add\n        /* \"contracts/lzApp/LzApp.sol\":4159:4227  lzEndpoint.getConfig(_version, _chainId, address(this), _configType) */\n      0x00\n      mload(0x40)\n      dup1\n      dup4\n      sub\n      dup2\n      dup7\n      gas\n      staticcall\n      iszero\n      dup1\n      iszero\n      tag_385\n      jumpi\n      returndatasize\n      0x00\n      dup1\n      returndatacopy\n      revert(0x00, returndatasize)\n    tag_385:\n      pop\n      pop\n      pop\n      pop\n      mload(0x40)\n      returndatasize\n      0x00\n      dup3\n      returndatacopy\n      0x1f\n      returndatasize\n      swap1\n      dup2\n      add\n      not(0x1f)\n      and\n      dup3\n      add\n      0x40\n      mstore\n      tag_386\n      swap2\n      swap1\n      dup2\n      add\n      swap1\n      tag_387\n      jump\t// in\n    tag_386:\n        /* \"contracts/lzApp/LzApp.sol\":4152:4227  return lzEndpoint.getConfig(_version, _chainId, address(this), _configType) */\n      swap6\n        /* \"contracts/lzApp/LzApp.sol\":4025:4234  function getConfig(uint16 _version, uint16 _chainId, address, uint _configType) external view returns (bytes memory) {... */\n      swap5\n      pop\n      pop\n      pop\n      pop\n      pop\n      jump\t// out\n        /* \"contracts/lzApp/NonblockingLzApp.sol\":980:1488  function _blockingLzReceive(uint16 _srcChainId, bytes memory _srcAddress, uint64 _nonce, bytes memory _payload) internal virtual override {... */\n    tag_228:\n        /* \"contracts/lzApp/NonblockingLzApp.sol\":1129:1141  bool success */\n      0x00\n        /* \"contracts/lzApp/NonblockingLzApp.sol\":1143:1162  bytes memory reason */\n      dup1\n        /* \"contracts/lzApp/NonblockingLzApp.sol\":1166:1319  address(this).excessivelySafeCall(gasleft(), 150, abi.encodeWithSelector(this.nonblockingLzReceive.selector, _srcChainId, _srcAddress, _nonce, _payload)) */\n      tag_390\n        /* \"contracts/lzApp/NonblockingLzApp.sol\":1200:1209  gasleft() */\n      gas\n        /* \"contracts/lzApp/NonblockingLzApp.sol\":1211:1214  150 */\n      0x96\n        /* \"contracts/lzApp/NonblockingLzApp.sol\":1239:1273  this.nonblockingLzReceive.selector */\n      shl(0xe0, 0x66ad5c8a)\n        /* \"contracts/lzApp/NonblockingLzApp.sol\":1275:1286  _srcChainId */\n      dup10\n        /* \"contracts/lzApp/NonblockingLzApp.sol\":1288:1299  _srcAddress */\n      dup10\n        /* \"contracts/lzApp/NonblockingLzApp.sol\":1301:1307  _nonce */\n      dup10\n        /* \"contracts/lzApp/NonblockingLzApp.sol\":1309:1317  _payload */\n      dup10\n        /* \"contracts/lzApp/NonblockingLzApp.sol\":1216:1318  abi.encodeWithSelector(this.nonblockingLzReceive.selector, _srcChainId, _srcAddress, _nonce, _payload) */\n      add(0x24, mload(0x40))\n      tag_391\n      swap5\n      swap4\n      swap3\n      swap2\n      swap1\n      tag_392\n      jump\t// in\n    tag_391:\n      0x40\n      dup1\n      mload\n      not(0x1f)\n      dup2\n      dup5\n      sub\n      add\n      dup2\n      mstore\n      swap2\n      swap1\n      mstore\n      0x20\n      dup2\n      add\n      dup1\n      mload\n      sub(shl(0xe0, 0x01), 0x01)\n      and\n      not(sub(shl(0xe0, 0x01), 0x01))\n      swap1\n      swap4\n      and\n      swap3\n      swap1\n      swap3\n      or\n      swap1\n      swap2\n      mstore\n        /* \"contracts/lzApp/NonblockingLzApp.sol\":1174:1178  this */\n      address\n      swap3\n        /* \"contracts/lzApp/NonblockingLzApp.sol\":1166:1319  address(this).excessivelySafeCall(gasleft(), 150, abi.encodeWithSelector(this.nonblockingLzReceive.selector, _srcChainId, _srcAddress, _nonce, _payload)) */\n      swap2\n      swap1\n        /* \"contracts/lzApp/NonblockingLzApp.sol\":1166:1199  address(this).excessivelySafeCall */\n      tag_393\n        /* \"contracts/lzApp/NonblockingLzApp.sol\":1166:1319  address(this).excessivelySafeCall(gasleft(), 150, abi.encodeWithSelector(this.nonblockingLzReceive.selector, _srcChainId, _srcAddress, _nonce, _payload)) */\n      jump\t// in\n    tag_390:\n        /* \"contracts/lzApp/NonblockingLzApp.sol\":1128:1319  (bool success, bytes memory reason) = address(this).excessivelySafeCall(gasleft(), 150, abi.encodeWithSelector(this.nonblockingLzReceive.selector, _srcChainId, _srcAddress, _nonce, _payload)) */\n      swap2\n      pop\n      swap2\n      pop\n        /* \"contracts/lzApp/NonblockingLzApp.sol\":1377:1384  success */\n      dup2\n        /* \"contracts/lzApp/NonblockingLzApp.sol\":1372:1482  if (!success) {... */\n      tag_288\n      jumpi\n        /* \"contracts/lzApp/NonblockingLzApp.sol\":1400:1471  _storeFailedMessage(_srcChainId, _srcAddress, _nonce, _payload, reason) */\n      tag_288\n        /* \"contracts/lzApp/NonblockingLzApp.sol\":1420:1431  _srcChainId */\n      dup7\n        /* \"contracts/lzApp/NonblockingLzApp.sol\":1433:1444  _srcAddress */\n      dup7\n        /* \"contracts/lzApp/NonblockingLzApp.sol\":1446:1452  _nonce */\n      dup7\n        /* \"contracts/lzApp/NonblockingLzApp.sol\":1454:1462  _payload */\n      dup7\n        /* \"contracts/lzApp/NonblockingLzApp.sol\":1464:1470  reason */\n      dup6\n        /* \"contracts/lzApp/NonblockingLzApp.sol\":1400:1419  _storeFailedMessage */\n      tag_396\n        /* \"contracts/lzApp/NonblockingLzApp.sol\":1400:1471  _storeFailedMessage(_srcChainId, _srcAddress, _nonce, _payload, reason) */\n      jump\t// in\n        /* \"contracts/openzeppelin/contracts/access/Ownable.sol\":1359:1489  function _checkOwner() internal view virtual {... */\n    tag_231:\n        /* \"contracts/openzeppelin/contracts/access/Ownable.sol\":1247:1254  address */\n      0x00\n        /* \"contracts/openzeppelin/contracts/access/Ownable.sol\":1273:1279  _owner */\n      sload\n      sub(shl(0xa0, 0x01), 0x01)\n      and\n        /* \"contracts/openzeppelin/contracts/utils/Context.sol\":719:729  msg.sender */\n      caller\n        /* \"contracts/openzeppelin/contracts/access/Ownable.sol\":1422:1445  owner() == _msgSender() */\n      eq\n        /* \"contracts/openzeppelin/contracts/access/Ownable.sol\":1414:1482  require(owner() == _msgSender(), \"Ownable: caller is not the owner\") */\n      tag_301\n      jumpi\n      mload(0x40)\n      shl(0xe5, 0x461bcd)\n      dup2\n      mstore\n        /* \"#utility.yul\":23872:23874   */\n      0x20\n        /* \"contracts/openzeppelin/contracts/access/Ownable.sol\":1414:1482  require(owner() == _msgSender(), \"Ownable: caller is not the owner\") */\n      0x04\n      dup3\n      add\n        /* \"#utility.yul\":23854:23875   */\n      dup2\n      swap1\n      mstore\n        /* \"#utility.yul\":23891:23909   */\n      0x24\n      dup3\n      add\n        /* \"#utility.yul\":23884:23914   */\n      mstore\n        /* \"#utility.yul\":23950:23984   */\n      0x4f776e61626c653a2063616c6c6572206973206e6f7420746865206f776e6572\n        /* \"#utility.yul\":23930:23948   */\n      0x44\n      dup3\n      add\n        /* \"#utility.yul\":23923:23985   */\n      mstore\n        /* \"#utility.yul\":24002:24020   */\n      0x64\n      add\n        /* \"contracts/openzeppelin/contracts/access/Ownable.sol\":1414:1482  require(owner() == _msgSender(), \"Ownable: caller is not the owner\") */\n      tag_212\n        /* \"#utility.yul\":23670:24026   */\n      jump\n        /* \"contracts/lzApp/LzApp.sol\":2293:2841  function _lzSend(uint16 _dstChainId, bytes memory _payload, address payable _refundAddress, address _zroPaymentAddress, bytes memory _adapterParams, uint _nativeFee) internal virtual {... */\n    tag_280:\n        /* \"contracts/lzApp/LzApp.sol\":2515:2547  trustedRemoteLookup[_dstChainId] */\n      0xffff\n      dup7\n      and\n        /* \"contracts/lzApp/LzApp.sol\":2486:2512  bytes memory trustedRemote */\n      0x00\n        /* \"contracts/lzApp/LzApp.sol\":2515:2547  trustedRemoteLookup[_dstChainId] */\n      swap1\n      dup2\n      mstore\n        /* \"contracts/lzApp/LzApp.sol\":2515:2534  trustedRemoteLookup */\n      0x01\n        /* \"contracts/lzApp/LzApp.sol\":2515:2547  trustedRemoteLookup[_dstChainId] */\n      0x20\n      mstore\n      0x40\n      dup2\n      keccak256\n        /* \"contracts/lzApp/LzApp.sol\":2486:2547  bytes memory trustedRemote = trustedRemoteLookup[_dstChainId] */\n      dup1\n      sload\n      tag_404\n      swap1\n      tag_215\n      jump\t// in\n    tag_404:\n      dup1\n      0x1f\n      add\n      0x20\n      dup1\n      swap2\n      div\n      mul\n      0x20\n      add\n      mload(0x40)\n      swap1\n      dup2\n      add\n      0x40\n      mstore\n      dup1\n      swap3\n      swap2\n      swap1\n      dup2\n      dup2\n      mstore\n      0x20\n      add\n      dup3\n      dup1\n      sload\n      tag_405\n      swap1\n      tag_215\n      jump\t// in\n    tag_405:\n      dup1\n      iszero\n      tag_406\n      jumpi\n      dup1\n      0x1f\n      lt\n      tag_407\n      jumpi\n      0x0100\n      dup1\n      dup4\n      sload\n      div\n      mul\n      dup4\n      mstore\n      swap2\n      0x20\n      add\n      swap2\n      jump(tag_406)\n    tag_407:\n      dup3\n      add\n      swap2\n      swap1\n      0x00\n      mstore\n      keccak256(0x00, 0x20)\n      swap1\n    tag_408:\n      dup2\n      sload\n      dup2\n      mstore\n      swap1\n      0x01\n      add\n      swap1\n      0x20\n      add\n      dup1\n      dup4\n      gt\n      tag_408\n      jumpi\n      dup3\n      swap1\n      sub\n      0x1f\n      and\n      dup3\n      add\n      swap2\n    tag_406:\n      pop\n      pop\n      pop\n      pop\n      pop\n      swap1\n      pop\n        /* \"contracts/lzApp/LzApp.sol\":2565:2578  trustedRemote */\n      dup1\n        /* \"contracts/lzApp/LzApp.sol\":2565:2585  trustedRemote.length */\n      mload\n        /* \"contracts/lzApp/LzApp.sol\":2589:2590  0 */\n      0x00\n        /* \"contracts/lzApp/LzApp.sol\":2565:2590  trustedRemote.length != 0 */\n      sub\n        /* \"contracts/lzApp/LzApp.sol\":2557:2643  require(trustedRemote.length != 0, \"LzApp: destination chain is not a trusted source\") */\n      tag_409\n      jumpi\n      mload(0x40)\n      shl(0xe5, 0x461bcd)\n      dup2\n      mstore\n        /* \"#utility.yul\":24233:24235   */\n      0x20\n        /* \"contracts/lzApp/LzApp.sol\":2557:2643  require(trustedRemote.length != 0, \"LzApp: destination chain is not a trusted source\") */\n      0x04\n      dup3\n      add\n        /* \"#utility.yul\":24215:24236   */\n      mstore\n        /* \"#utility.yul\":24272:24274   */\n      0x30\n        /* \"#utility.yul\":24252:24270   */\n      0x24\n      dup3\n      add\n        /* \"#utility.yul\":24245:24275   */\n      mstore\n        /* \"#utility.yul\":24311:24345   */\n      0x4c7a4170703a2064657374696e6174696f6e20636861696e206973206e6f7420\n        /* \"#utility.yul\":24291:24309   */\n      0x44\n      dup3\n      add\n        /* \"#utility.yul\":24284:24346   */\n      mstore\n      shl(0x80, 0x61207472757374656420736f75726365)\n        /* \"#utility.yul\":24362:24380   */\n      0x64\n      dup3\n      add\n        /* \"#utility.yul\":24355:24401   */\n      mstore\n        /* \"#utility.yul\":24418:24437   */\n      0x84\n      add\n        /* \"contracts/lzApp/LzApp.sol\":2557:2643  require(trustedRemote.length != 0, \"LzApp: destination chain is not a trusted source\") */\n      tag_212\n        /* \"#utility.yul\":24031:24443   */\n      jump\n        /* \"contracts/lzApp/LzApp.sol\":2557:2643  require(trustedRemote.length != 0, \"LzApp: destination chain is not a trusted source\") */\n    tag_409:\n        /* \"contracts/lzApp/LzApp.sol\":2653:2700  _checkPayloadSize(_dstChainId, _payload.length) */\n      tag_412\n        /* \"contracts/lzApp/LzApp.sol\":2671:2682  _dstChainId */\n      dup8\n        /* \"contracts/lzApp/LzApp.sol\":2684:2692  _payload */\n      dup8\n        /* \"contracts/lzApp/LzApp.sol\":2684:2699  _payload.length */\n      mload\n        /* \"contracts/lzApp/LzApp.sol\":2653:2670  _checkPayloadSize */\n      tag_413\n        /* \"contracts/lzApp/LzApp.sol\":2653:2700  _checkPayloadSize(_dstChainId, _payload.length) */\n      jump\t// in\n    tag_412:\n        /* \"contracts/lzApp/LzApp.sol\":2710:2834  lzEndpoint.send{value: _nativeFee}(_dstChainId, trustedRemote, _payload, _refundAddress, _zroPaymentAddress, _adapterParams) */\n      mload(0x40)\n      shl(0xe8, 0xc58031)\n      dup2\n      mstore\n      sub(shl(0xa0, 0x01), 0x01)\n        /* \"contracts/lzApp/LzApp.sol\":2710:2720  lzEndpoint */\n      immutable(\"0x46eb50c447c403e47cdd18c8674af108a4943ba3d8a10108852723fbe4a03cc6\")\n        /* \"contracts/lzApp/LzApp.sol\":2710:2725  lzEndpoint.send */\n      and\n      swap1\n      0xc5803100\n      swap1\n        /* \"contracts/lzApp/LzApp.sol\":2733:2743  _nativeFee */\n      dup5\n      swap1\n        /* \"contracts/lzApp/LzApp.sol\":2710:2834  lzEndpoint.send{value: _nativeFee}(_dstChainId, trustedRemote, _payload, _refundAddress, _zroPaymentAddress, _adapterParams) */\n      tag_414\n      swap1\n        /* \"contracts/lzApp/LzApp.sol\":2745:2756  _dstChainId */\n      dup12\n      swap1\n        /* \"contracts/lzApp/LzApp.sol\":2758:2771  trustedRemote */\n      dup7\n      swap1\n        /* \"contracts/lzApp/LzApp.sol\":2773:2781  _payload */\n      dup13\n      swap1\n        /* \"contracts/lzApp/LzApp.sol\":2783:2797  _refundAddress */\n      dup13\n      swap1\n        /* \"contracts/lzApp/LzApp.sol\":2799:2817  _zroPaymentAddress */\n      dup13\n      swap1\n        /* \"contracts/lzApp/LzApp.sol\":2819:2833  _adapterParams */\n      dup13\n      swap1\n        /* \"contracts/lzApp/LzApp.sol\":2710:2834  lzEndpoint.send{value: _nativeFee}(_dstChainId, trustedRemote, _payload, _refundAddress, _zroPaymentAddress, _adapterParams) */\n      0x04\n      add\n      tag_415\n      jump\t// in\n    tag_414:\n      0x00\n      mload(0x40)\n      dup1\n      dup4\n      sub\n      dup2\n      dup6\n      dup9\n      dup1\n      extcodesize\n      iszero\n      dup1\n      iszero\n      tag_416\n      jumpi\n      0x00\n      dup1\n      revert\n    tag_416:\n      pop\n      gas\n      call\n      iszero\n      dup1\n      iszero\n      tag_418\n      jumpi\n      returndatasize\n      0x00\n      dup1\n      returndatacopy\n      revert(0x00, returndatasize)\n    tag_418:\n      pop\n      pop\n      pop\n      pop\n      pop\n        /* \"contracts/lzApp/LzApp.sol\":2476:2841  {... */\n      pop\n        /* \"contracts/lzApp/LzApp.sol\":2293:2841  function _lzSend(uint16 _dstChainId, bytes memory _payload, address payable _refundAddress, address _zroPaymentAddress, bytes memory _adapterParams, uint _nativeFee) internal virtual {... */\n      pop\n      pop\n      pop\n      pop\n      pop\n      pop\n      jump\t// out\n        /* \"contracts/examples/OmniMessage.sol\":1941:2876  function _nonblockingLzReceive(uint16, bytes memory, uint64, bytes memory _payload) internal override {... */\n    tag_289:\n        /* \"contracts/examples/OmniMessage.sol\":2179:2187  _payload */\n      dup1\n        /* \"contracts/examples/OmniMessage.sol\":2168:2198  abi.decode(_payload, (string)) */\n      dup1\n      0x20\n      add\n      swap1\n      mload\n      dup2\n      add\n      swap1\n      tag_420\n      swap2\n      swap1\n      tag_387\n      jump\t// in\n    tag_420:\n        /* \"contracts/examples/OmniMessage.sol\":2161:2165  data */\n      0x06\n      swap1\n        /* \"contracts/examples/OmniMessage.sol\":2161:2198  data = abi.decode(_payload, (string)) */\n      tag_422\n      swap1\n        /* \"contracts/examples/OmniMessage.sol\":2161:2165  data */\n      dup3\n        /* \"contracts/examples/OmniMessage.sol\":2161:2198  data = abi.decode(_payload, (string)) */\n      tag_268\n      jump\t// in\n    tag_422:\n      pop\n        /* \"contracts/examples/OmniMessage.sol\":2212:2240  SenderAddress(payable(this)) */\n      mload(0x40)\n        /* \"contracts/examples/OmniMessage.sol\":2234:2238  this */\n      address\n        /* \"#utility.yul\":7894:7968   */\n      dup2\n      mstore\n        /* \"contracts/examples/OmniMessage.sol\":2212:2240  SenderAddress(payable(this)) */\n      0x1f9c75914c5f19dbd88fea3650adc0d96ce1acba5863d8a8cb9c5dbf194f8f68\n      swap1\n        /* \"#utility.yul\":7882:7884   */\n      0x20\n        /* \"#utility.yul\":7867:7885   */\n      add\n        /* \"contracts/examples/OmniMessage.sol\":2212:2240  SenderAddress(payable(this)) */\n      mload(0x40)\n      dup1\n      swap2\n      sub\n      swap1\n      log1\n        /* \"contracts/examples/OmniMessage.sol\":2268:2279  destChainId */\n      sload(0x07)\n        /* \"contracts/examples/OmniMessage.sol\":2254:2280  SenderChainID(destChainId) */\n      mload(0x40)\n        /* \"contracts/examples/OmniMessage.sol\":2268:2279  destChainId */\n      0xffff\n      swap1\n      swap2\n      and\n        /* \"#utility.yul\":8380:8418   */\n      dup2\n      mstore\n        /* \"contracts/examples/OmniMessage.sol\":2254:2280  SenderChainID(destChainId) */\n      0xf944a0b4d5e7e9c3aba164318fe6c3fccde3d2ab58373b1e3c465581db7fd823\n      swap1\n        /* \"#utility.yul\":8368:8370   */\n      0x20\n        /* \"#utility.yul\":8353:8371   */\n      add\n        /* \"contracts/examples/OmniMessage.sol\":2254:2280  SenderChainID(destChainId) */\n      mload(0x40)\n      dup1\n      swap2\n      sub\n      swap1\n      log1\n        /* \"contracts/examples/OmniMessage.sol\":2297:2319  string memory _message */\n      0x00\n        /* \"contracts/examples/OmniMessage.sol\":2297:2331  string memory _message=\"RESPONDED\" */\n      mload(0x40)\n      dup1\n      0x40\n      add\n      0x40\n      mstore\n      dup1\n      0x09\n      dup2\n      mstore\n      0x20\n      add\n      shl(0xba, 0x149154d413d3911151)\n      dup2\n      mstore\n      pop\n      swap1\n      pop\n        /* \"contracts/examples/OmniMessage.sol\":2340:2360  bytes memory payload */\n      0x00\n        /* \"contracts/examples/OmniMessage.sol\":2374:2382  _message */\n      dup2\n        /* \"contracts/examples/OmniMessage.sol\":2363:2383  abi.encode(_message) */\n      add(0x20, mload(0x40))\n      tag_427\n      swap2\n      swap1\n      tag_124\n      jump\t// in\n    tag_427:\n      0x40\n      dup1\n      mload\n      dup1\n      dup4\n      sub\n      not(0x1f)\n      add\n      dup2\n      mstore\n      swap2\n      swap1\n      mstore\n        /* \"contracts/examples/OmniMessage.sol\":2405:2415  isAwaiting */\n      sload(0x07)\n        /* \"contracts/examples/OmniMessage.sol\":2363:2383  abi.encode(_message) */\n      swap1\n      swap2\n      pop\n      shl(0xb0, 0x01)\n        /* \"contracts/examples/OmniMessage.sol\":2405:2415  isAwaiting */\n      swap1\n      div\n      0xff\n      and\n        /* \"contracts/examples/OmniMessage.sol\":2400:2834  if (!isAwaiting){... */\n      tag_428\n      jumpi\n        /* \"contracts/examples/OmniMessage.sol\":2622:2675  abi.encodePacked(version, gasForDestinationLzReceive) */\n      mload(0x40)\n      shl(0xf0, 0x01)\n      0x20\n      dup3\n      add\n        /* \"#utility.yul\":15096:15147   */\n      mstore\n        /* \"contracts/examples/OmniMessage.sol\":2572:2579  3500000 */\n      0x3567e0\n        /* \"#utility.yul\":15163:15174   */\n      0x22\n      dup3\n      add\n        /* \"#utility.yul\":15156:15183   */\n      dup2\n      swap1\n      mstore\n        /* \"contracts/examples/OmniMessage.sol\":2523:2524  1 */\n      0x01\n      swap2\n        /* \"contracts/examples/OmniMessage.sol\":2506:2520  uint16 version */\n      0x00\n      swap1\n        /* \"#utility.yul\":15199:15211   */\n      0x42\n      add\n        /* \"contracts/examples/OmniMessage.sol\":2622:2675  abi.encodePacked(version, gasForDestinationLzReceive) */\n      0x40\n      dup1\n      mload\n      not(0x1f)\n      dup2\n      dup5\n      sub\n      add\n      dup2\n      mstore\n      swap2\n      swap1\n      mstore\n        /* \"contracts/examples/OmniMessage.sol\":2710:2721  destChainId */\n      sload(0x07)\n        /* \"contracts/examples/OmniMessage.sol\":2622:2675  abi.encodePacked(version, gasForDestinationLzReceive) */\n      swap1\n      swap2\n      pop\n        /* \"contracts/examples/OmniMessage.sol\":2702:2798  _lzSend(destChainId, payload, payable(this), address(0x0), adapterParams, address(this).balance) */\n      tag_430\n      swap1\n        /* \"contracts/examples/OmniMessage.sol\":2710:2721  destChainId */\n      0xffff\n      and\n        /* \"contracts/examples/OmniMessage.sol\":2723:2730  payload */\n      dup6\n        /* \"contracts/examples/OmniMessage.sol\":2740:2744  this */\n      address\n        /* \"contracts/examples/OmniMessage.sol\":2710:2721  destChainId */\n      0x00\n        /* \"contracts/examples/OmniMessage.sol\":2622:2675  abi.encodePacked(version, gasForDestinationLzReceive) */\n      dup6\n        /* \"contracts/examples/OmniMessage.sol\":2776:2797  address(this).balance */\n      selfbalance\n        /* \"contracts/examples/OmniMessage.sol\":2702:2709  _lzSend */\n      tag_280\n        /* \"contracts/examples/OmniMessage.sol\":2702:2798  _lzSend(destChainId, payload, payable(this), address(0x0), adapterParams, address(this).balance) */\n      jump\t// in\n    tag_430:\n        /* \"contracts/examples/OmniMessage.sol\":2812:2819  counter */\n      0x08\n        /* \"contracts/examples/OmniMessage.sol\":2812:2821  counter++ */\n      dup1\n      sload\n      swap1\n        /* \"contracts/examples/OmniMessage.sol\":2812:2819  counter */\n      0x00\n        /* \"contracts/examples/OmniMessage.sol\":2812:2821  counter++ */\n      tag_431\n      dup4\n      tag_282\n      jump\t// in\n    tag_431:\n      swap2\n      swap1\n      pop\n      sstore\n      pop\n        /* \"contracts/examples/OmniMessage.sol\":2416:2834  {... */\n      pop\n      pop\n      pop\n        /* \"contracts/examples/OmniMessage.sol\":2400:2834  if (!isAwaiting){... */\n    tag_428:\n      pop\n      pop\n        /* \"contracts/examples/OmniMessage.sol\":2852:2862  isAwaiting */\n      0x07\n        /* \"contracts/examples/OmniMessage.sol\":2852:2868  isAwaiting=false */\n      dup1\n      sload\n      not(shl(0xb0, 0xff))\n      and\n      swap1\n      sstore\n      pop\n      pop\n      pop\n      pop\n        /* \"contracts/examples/OmniMessage.sol\":1941:2876  function _nonblockingLzReceive(uint16, bytes memory, uint64, bytes memory _payload) internal override {... */\n      jump\t// out\n        /* \"contracts/openzeppelin/contracts/access/Ownable.sol\":2426:2613  function _transferOwnership(address newOwner) internal virtual {... */\n    tag_302:\n        /* \"contracts/openzeppelin/contracts/access/Ownable.sol\":2499:2515  address oldOwner */\n      0x00\n        /* \"contracts/openzeppelin/contracts/access/Ownable.sol\":2518:2524  _owner */\n      dup1\n      sload\n      sub(shl(0xa0, 0x01), 0x01)\n        /* \"contracts/openzeppelin/contracts/access/Ownable.sol\":2534:2551  _owner = newOwner */\n      dup4\n      dup2\n      and\n      not(sub(shl(0xa0, 0x01), 0x01))\n      dup4\n      and\n      dup2\n      or\n      dup5\n      sstore\n        /* \"contracts/openzeppelin/contracts/access/Ownable.sol\":2566:2606  OwnershipTransferred(oldOwner, newOwner) */\n      mload(0x40)\n        /* \"contracts/openzeppelin/contracts/access/Ownable.sol\":2518:2524  _owner */\n      swap2\n      swap1\n      swap3\n      and\n      swap3\n      dup4\n      swap2\n        /* \"contracts/openzeppelin/contracts/access/Ownable.sol\":2566:2606  OwnershipTransferred(oldOwner, newOwner) */\n      0x8be0079c531659141344cd1fd0a4f28419497f9722a3daafe3b4186f6b6457e0\n      swap2\n        /* \"contracts/openzeppelin/contracts/access/Ownable.sol\":2499:2515  address oldOwner */\n      swap1\n        /* \"contracts/openzeppelin/contracts/access/Ownable.sol\":2566:2606  OwnershipTransferred(oldOwner, newOwner) */\n      log3\n        /* \"contracts/openzeppelin/contracts/access/Ownable.sol\":2489:2613  {... */\n      pop\n        /* \"contracts/openzeppelin/contracts/access/Ownable.sol\":2426:2613  function _transferOwnership(address newOwner) internal virtual {... */\n      pop\n      jump\t// out\n        /* \"contracts/util/BytesLib.sol\":8865:11577  function slice(... */\n    tag_326:\n        /* \"contracts/util/BytesLib.sol\":8999:9011  bytes memory */\n      0x60\n        /* \"contracts/util/BytesLib.sol\":9051:9058  _length */\n      dup2\n        /* \"contracts/util/BytesLib.sol\":9035:9047  _length + 31 */\n      tag_434\n        /* \"contracts/util/BytesLib.sol\":9051:9058  _length */\n      dup2\n        /* \"contracts/util/BytesLib.sol\":9045:9047  31 */\n      0x1f\n        /* \"contracts/util/BytesLib.sol\":9035:9047  _length + 31 */\n      tag_435\n      jump\t// in\n    tag_434:\n        /* \"contracts/util/BytesLib.sol\":9035:9058  _length + 31 >= _length */\n      lt\n      iszero\n        /* \"contracts/util/BytesLib.sol\":9027:9077  require(_length + 31 >= _length, \"slice_overflow\") */\n      tag_436\n      jumpi\n      mload(0x40)\n      shl(0xe5, 0x461bcd)\n      dup2\n      mstore\n        /* \"#utility.yul\":27660:27662   */\n      0x20\n        /* \"contracts/util/BytesLib.sol\":9027:9077  require(_length + 31 >= _length, \"slice_overflow\") */\n      0x04\n      dup3\n      add\n        /* \"#utility.yul\":27642:27663   */\n      mstore\n        /* \"#utility.yul\":27699:27701   */\n      0x0e\n        /* \"#utility.yul\":27679:27697   */\n      0x24\n      dup3\n      add\n        /* \"#utility.yul\":27672:27702   */\n      mstore\n      shl(0x90, 0x736c6963655f6f766572666c6f77)\n        /* \"#utility.yul\":27718:27736   */\n      0x44\n      dup3\n      add\n        /* \"#utility.yul\":27711:27755   */\n      mstore\n        /* \"#utility.yul\":27772:27790   */\n      0x64\n      add\n        /* \"contracts/util/BytesLib.sol\":9027:9077  require(_length + 31 >= _length, \"slice_overflow\") */\n      tag_212\n        /* \"#utility.yul\":27458:27796   */\n      jump\n        /* \"contracts/util/BytesLib.sol\":9027:9077  require(_length + 31 >= _length, \"slice_overflow\") */\n    tag_436:\n        /* \"contracts/util/BytesLib.sol\":9112:9128  _start + _length */\n      tag_439\n        /* \"contracts/util/BytesLib.sol\":9121:9128  _length */\n      dup3\n        /* \"contracts/util/BytesLib.sol\":9112:9118  _start */\n      dup5\n        /* \"contracts/util/BytesLib.sol\":9112:9128  _start + _length */\n      tag_435\n      jump\t// in\n    tag_439:\n        /* \"contracts/util/BytesLib.sol\":9095:9101  _bytes */\n      dup5\n        /* \"contracts/util/BytesLib.sol\":9095:9108  _bytes.length */\n      mload\n        /* \"contracts/util/BytesLib.sol\":9095:9128  _bytes.length >= _start + _length */\n      lt\n      iszero\n        /* \"contracts/util/BytesLib.sol\":9087:9150  require(_bytes.length >= _start + _length, \"slice_outOfBounds\") */\n      tag_440\n      jumpi\n      mload(0x40)\n      shl(0xe5, 0x461bcd)\n      dup2\n      mstore\n        /* \"#utility.yul\":28003:28005   */\n      0x20\n        /* \"contracts/util/BytesLib.sol\":9087:9150  require(_bytes.length >= _start + _length, \"slice_outOfBounds\") */\n      0x04\n      dup3\n      add\n        /* \"#utility.yul\":27985:28006   */\n      mstore\n        /* \"#utility.yul\":28042:28044   */\n      0x11\n        /* \"#utility.yul\":28022:28040   */\n      0x24\n      dup3\n      add\n        /* \"#utility.yul\":28015:28045   */\n      mstore\n      shl(0x78, 0x736c6963655f6f75744f66426f756e6473)\n        /* \"#utility.yul\":28061:28079   */\n      0x44\n      dup3\n      add\n        /* \"#utility.yul\":28054:28101   */\n      mstore\n        /* \"#utility.yul\":28118:28136   */\n      0x64\n      add\n        /* \"contracts/util/BytesLib.sol\":9087:9150  require(_bytes.length >= _start + _length, \"slice_outOfBounds\") */\n      tag_212\n        /* \"#utility.yul\":27801:28142   */\n      jump\n        /* \"contracts/util/BytesLib.sol\":9087:9150  require(_bytes.length >= _start + _length, \"slice_outOfBounds\") */\n    tag_440:\n        /* \"contracts/util/BytesLib.sol\":9161:9183  bytes memory tempBytes */\n      0x60\n        /* \"contracts/util/BytesLib.sol\":9224:9239  iszero(_length) */\n      dup3\n      iszero\n        /* \"contracts/util/BytesLib.sol\":9252:11147  case 0 {... */\n      dup1\n      iszero\n      tag_444\n      jumpi\n        /* \"contracts/util/BytesLib.sol\":11288:11292  0x40 */\n      0x40\n        /* \"contracts/util/BytesLib.sol\":11282:11293  mload(0x40) */\n      mload\n        /* \"contracts/util/BytesLib.sol\":11269:11293  tempBytes := mload(0x40) */\n      swap2\n      pop\n        /* \"contracts/util/BytesLib.sol\":11466:11467  0 */\n      0x00\n        /* \"contracts/util/BytesLib.sol\":11455:11464  tempBytes */\n      dup3\n        /* \"contracts/util/BytesLib.sol\":11448:11468  mstore(tempBytes, 0) */\n      mstore\n        /* \"contracts/util/BytesLib.sol\":11514:11518  0x20 */\n      0x20\n        /* \"contracts/util/BytesLib.sol\":11503:11512  tempBytes */\n      dup3\n        /* \"contracts/util/BytesLib.sol\":11499:11519  add(tempBytes, 0x20) */\n      add\n        /* \"contracts/util/BytesLib.sol\":11493:11497  0x40 */\n      0x40\n        /* \"contracts/util/BytesLib.sol\":11486:11520  mstore(0x40, add(tempBytes, 0x20)) */\n      mstore\n        /* \"contracts/util/BytesLib.sol\":9217:11534  switch iszero(_length)... */\n      jump(tag_443)\n        /* \"contracts/util/BytesLib.sol\":9252:11147  case 0 {... */\n    tag_444:\n        /* \"contracts/util/BytesLib.sol\":9426:9430  0x40 */\n      0x40\n        /* \"contracts/util/BytesLib.sol\":9420:9431  mload(0x40) */\n      mload\n        /* \"contracts/util/BytesLib.sol\":9407:9431  tempBytes := mload(0x40) */\n      swap2\n      pop\n        /* \"contracts/util/BytesLib.sol\":10053:10055  31 */\n      0x1f\n        /* \"contracts/util/BytesLib.sol\":10044:10051  _length */\n      dup5\n        /* \"contracts/util/BytesLib.sol\":10040:10056  and(_length, 31) */\n      and\n        /* \"contracts/util/BytesLib.sol\":10419:10428  lengthmod */\n      dup1\n        /* \"contracts/util/BytesLib.sol\":10412:10429  iszero(lengthmod) */\n      iszero\n        /* \"contracts/util/BytesLib.sol\":10406:10410  0x20 */\n      0x20\n        /* \"contracts/util/BytesLib.sol\":10402:10430  mul(0x20, iszero(lengthmod)) */\n      mul\n        /* \"contracts/util/BytesLib.sol\":10390:10399  lengthmod */\n      dup2\n        /* \"contracts/util/BytesLib.sol\":10379:10388  tempBytes */\n      dup5\n        /* \"contracts/util/BytesLib.sol\":10375:10400  add(tempBytes, lengthmod) */\n      add\n        /* \"contracts/util/BytesLib.sol\":10371:10431  add(add(tempBytes, lengthmod), mul(0x20, iszero(lengthmod))) */\n      add\n        /* \"contracts/util/BytesLib.sol\":10467:10474  _length */\n      dup6\n        /* \"contracts/util/BytesLib.sol\":10463:10465  mc */\n      dup2\n        /* \"contracts/util/BytesLib.sol\":10459:10475  add(mc, _length) */\n      add\n        /* \"contracts/util/BytesLib.sol\":10711:10717  _start */\n      dup8\n        /* \"contracts/util/BytesLib.sol\":10697:10706  lengthmod */\n      dup4\n        /* \"contracts/util/BytesLib.sol\":10690:10707  iszero(lengthmod) */\n      iszero\n        /* \"contracts/util/BytesLib.sol\":10684:10688  0x20 */\n      0x20\n        /* \"contracts/util/BytesLib.sol\":10680:10708  mul(0x20, iszero(lengthmod)) */\n      mul\n        /* \"contracts/util/BytesLib.sol\":10668:10677  lengthmod */\n      dup5\n        /* \"contracts/util/BytesLib.sol\":10660:10666  _bytes */\n      dup12\n        /* \"contracts/util/BytesLib.sol\":10656:10678  add(_bytes, lengthmod) */\n      add\n        /* \"contracts/util/BytesLib.sol\":10652:10709  add(add(_bytes, lengthmod), mul(0x20, iszero(lengthmod))) */\n      add\n        /* \"contracts/util/BytesLib.sol\":10648:10718  add(add(add(_bytes, lengthmod), mul(0x20, iszero(lengthmod))), _start) */\n      add\n        /* \"contracts/util/BytesLib.sol\":10493:10910  for {... */\n    tag_445:\n        /* \"contracts/util/BytesLib.sol\":10744:10747  end */\n      dup2\n        /* \"contracts/util/BytesLib.sol\":10740:10742  mc */\n      dup4\n        /* \"contracts/util/BytesLib.sol\":10737:10748  lt(mc, end) */\n      lt\n        /* \"contracts/util/BytesLib.sol\":10493:10910  for {... */\n      iszero\n      tag_447\n      jumpi\n        /* \"contracts/util/BytesLib.sol\":10882:10891  mload(cc) */\n      dup1\n      mload\n        /* \"contracts/util/BytesLib.sol\":10871:10892  mstore(mc, mload(cc)) */\n      dup4\n      mstore\n        /* \"contracts/util/BytesLib.sol\":10785:10789  0x20 */\n      0x20\n        /* \"contracts/util/BytesLib.sol\":10777:10790  add(mc, 0x20) */\n      swap3\n      dup4\n      add\n      swap3\n        /* \"contracts/util/BytesLib.sol\":10817:10830  add(cc, 0x20) */\n      add\n        /* \"contracts/util/BytesLib.sol\":10493:10910  for {... */\n      jump(tag_445)\n    tag_447:\n      pop\n      pop\n        /* \"contracts/util/BytesLib.sol\":10928:10954  mstore(tempBytes, _length) */\n      dup6\n      dup5\n      mstore\n        /* \"contracts/util/BytesLib.sol\":11128:11130  31 */\n      0x1f\n        /* \"contracts/util/BytesLib.sol\":11111:11122  add(mc, 31) */\n      add\n      not(0x1f)\n        /* \"contracts/util/BytesLib.sol\":11107:11132  and(add(mc, 31), not(31)) */\n      and\n        /* \"contracts/util/BytesLib.sol\":11101:11105  0x40 */\n      0x40\n        /* \"contracts/util/BytesLib.sol\":11094:11133  mstore(0x40, and(add(mc, 31), not(31))) */\n      mstore\n      pop\n        /* \"contracts/util/BytesLib.sol\":9217:11534  switch iszero(_length)... */\n    tag_443:\n      pop\n        /* \"contracts/util/BytesLib.sol\":11561:11570  tempBytes */\n      swap5\n        /* \"contracts/util/BytesLib.sol\":8865:11577  function slice(... */\n      swap4\n      pop\n      pop\n      pop\n      pop\n      jump\t// out\n        /* \"contracts/util/ExcessivelySafeCall.sol\":1118:2358  function excessivelySafeCall(... */\n    tag_393:\n        /* \"contracts/util/ExcessivelySafeCall.sol\":1275:1279  bool */\n      0x00\n        /* \"contracts/util/ExcessivelySafeCall.sol\":1281:1293  bytes memory */\n      0x60\n        /* \"contracts/util/ExcessivelySafeCall.sol\":1341:1356  uint256 _toCopy */\n      0x00\n        /* \"contracts/util/ExcessivelySafeCall.sol\":1366:1379  bool _success */\n      dup1\n        /* \"contracts/util/ExcessivelySafeCall.sol\":1389:1413  bytes memory _returnData */\n      0x00\n        /* \"contracts/util/ExcessivelySafeCall.sol\":1426:1434  _maxCopy */\n      dup7\n        /* \"contracts/util/ExcessivelySafeCall.sol\":1416:1435  new bytes(_maxCopy) */\n      0xffff\n      and\n      sub(shl(0x40, 0x01), 0x01)\n      dup2\n      gt\n      iszero\n      tag_450\n      jumpi\n      tag_450\n      tag_451\n      jump\t// in\n    tag_450:\n      mload(0x40)\n      swap1\n      dup1\n      dup3\n      mstore\n      dup1\n      0x1f\n      add\n      not(0x1f)\n      and\n      0x20\n      add\n      dup3\n      add\n      0x40\n      mstore\n      dup1\n      iszero\n      tag_452\n      jumpi\n      0x20\n      dup3\n      add\n      dup2\n      dup1\n      calldatasize\n      dup4\n      calldatacopy\n      add\n      swap1\n      pop\n    tag_452:\n      pop\n        /* \"contracts/util/ExcessivelySafeCall.sol\":1389:1435  bytes memory _returnData = new bytes(_maxCopy) */\n      swap1\n      pop\n        /* \"contracts/util/ExcessivelySafeCall.sol\":1904:1905  0 */\n      0x00\n        /* \"contracts/util/ExcessivelySafeCall.sol\":1879:1880  0 */\n      dup1\n        /* \"contracts/util/ExcessivelySafeCall.sol\":1846:1855  _calldata */\n      dup8\n        /* \"contracts/util/ExcessivelySafeCall.sol\":1840:1856  mload(_calldata) */\n      mload\n        /* \"contracts/util/ExcessivelySafeCall.sol\":1812:1816  0x20 */\n      0x20\n        /* \"contracts/util/ExcessivelySafeCall.sol\":1801:1810  _calldata */\n      dup10\n        /* \"contracts/util/ExcessivelySafeCall.sol\":1797:1817  add(_calldata, 0x20) */\n      add\n        /* \"contracts/util/ExcessivelySafeCall.sol\":1767:1768  0 */\n      0x00\n        /* \"contracts/util/ExcessivelySafeCall.sol\":1733:1740  _target */\n      dup14\n        /* \"contracts/util/ExcessivelySafeCall.sol\":1708:1712  _gas */\n      dup14\n        /* \"contracts/util/ExcessivelySafeCall.sol\":1690:1929  call(... */\n      call\n        /* \"contracts/util/ExcessivelySafeCall.sol\":1678:1929  _success := call(... */\n      swap2\n      pop\n        /* \"contracts/util/ExcessivelySafeCall.sol\":1992:2008  returndatasize() */\n      returndatasize\n        /* \"contracts/util/ExcessivelySafeCall.sol\":1981:2008  _toCopy := returndatasize() */\n      swap3\n      pop\n        /* \"contracts/util/ExcessivelySafeCall.sol\":2036:2044  _maxCopy */\n      dup7\n        /* \"contracts/util/ExcessivelySafeCall.sol\":2027:2034  _toCopy */\n      dup4\n        /* \"contracts/util/ExcessivelySafeCall.sol\":2024:2045  gt(_toCopy, _maxCopy) */\n      gt\n        /* \"contracts/util/ExcessivelySafeCall.sol\":2021:2097  if gt(_toCopy, _maxCopy) {... */\n      iszero\n      tag_453\n      jumpi\n        /* \"contracts/util/ExcessivelySafeCall.sol\":2075:2083  _maxCopy */\n      dup7\n        /* \"contracts/util/ExcessivelySafeCall.sol\":2064:2083  _toCopy := _maxCopy */\n      swap3\n      pop\n        /* \"contracts/util/ExcessivelySafeCall.sol\":2021:2097  if gt(_toCopy, _maxCopy) {... */\n    tag_453:\n        /* \"contracts/util/ExcessivelySafeCall.sol\":2178:2185  _toCopy */\n      dup3\n        /* \"contracts/util/ExcessivelySafeCall.sol\":2165:2176  _returnData */\n      dup2\n        /* \"contracts/util/ExcessivelySafeCall.sol\":2158:2186  mstore(_returnData, _toCopy) */\n      mstore\n        /* \"contracts/util/ExcessivelySafeCall.sol\":2294:2301  _toCopy */\n      dup3\n        /* \"contracts/util/ExcessivelySafeCall.sol\":2291:2292  0 */\n      0x00\n        /* \"contracts/util/ExcessivelySafeCall.sol\":2284:2288  0x20 */\n      0x20\n        /* \"contracts/util/ExcessivelySafeCall.sol\":2271:2282  _returnData */\n      dup4\n        /* \"contracts/util/ExcessivelySafeCall.sol\":2267:2289  add(_returnData, 0x20) */\n      add\n        /* \"contracts/util/ExcessivelySafeCall.sol\":2252:2302  returndatacopy(add(_returnData, 0x20), 0, _toCopy) */\n      returndatacopy\n        /* \"contracts/util/ExcessivelySafeCall.sol\":2329:2337  _success */\n      swap1\n      swap9\n      swap1\n      swap8\n      pop\n        /* \"contracts/util/ExcessivelySafeCall.sol\":1118:2358  function excessivelySafeCall(... */\n      swap6\n      pop\n      pop\n      pop\n      pop\n      pop\n      pop\n      jump\t// out\n        /* \"contracts/lzApp/NonblockingLzApp.sol\":1494:1814  function _storeFailedMessage(uint16 _srcChainId, bytes memory _srcAddress, uint64 _nonce, bytes memory _payload, bytes memory _reason) internal virtual {... */\n    tag_396:\n        /* \"contracts/lzApp/NonblockingLzApp.sol\":1717:1725  _payload */\n      dup2\n        /* \"contracts/lzApp/NonblockingLzApp.sol\":1707:1726  keccak256(_payload) */\n      dup1\n      mload\n      swap1\n      0x20\n      add\n      keccak256\n        /* \"contracts/lzApp/NonblockingLzApp.sol\":1656:1670  failedMessages */\n      0x05\n        /* \"contracts/lzApp/NonblockingLzApp.sol\":1656:1683  failedMessages[_srcChainId] */\n      0x00\n        /* \"contracts/lzApp/NonblockingLzApp.sol\":1671:1682  _srcChainId */\n      dup8\n        /* \"contracts/lzApp/NonblockingLzApp.sol\":1656:1683  failedMessages[_srcChainId] */\n      0xffff\n      and\n      0xffff\n      and\n      dup2\n      mstore\n      0x20\n      add\n      swap1\n      dup2\n      mstore\n      0x20\n      add\n      0x00\n      keccak256\n        /* \"contracts/lzApp/NonblockingLzApp.sol\":1684:1695  _srcAddress */\n      dup6\n        /* \"contracts/lzApp/NonblockingLzApp.sol\":1656:1696  failedMessages[_srcChainId][_srcAddress] */\n      mload(0x40)\n      tag_455\n      swap2\n      swap1\n      tag_456\n      jump\t// in\n    tag_455:\n      swap1\n      dup2\n      mstore\n      0x40\n      dup1\n      mload\n      swap2\n      dup3\n      swap1\n      sub\n      0x20\n      swap1\n      dup2\n      add\n      dup4\n      keccak256\n      sub(shl(0x40, 0x01), 0x01)\n        /* \"contracts/lzApp/NonblockingLzApp.sol\":1656:1704  failedMessages[_srcChainId][_srcAddress][_nonce] */\n      dup9\n      and\n      0x00\n      swap1\n      dup2\n      mstore\n      swap2\n      mstore\n      keccak256\n        /* \"contracts/lzApp/NonblockingLzApp.sol\":1656:1726  failedMessages[_srcChainId][_srcAddress][_nonce] = keccak256(_payload) */\n      swap2\n      swap1\n      swap2\n      sstore\n        /* \"contracts/lzApp/NonblockingLzApp.sol\":1741:1807  MessageFailed(_srcChainId, _srcAddress, _nonce, _payload, _reason) */\n      0xe183f33de2837795525b4792ca4cd60535bd77c53b7e7030060bfcf5734d6b0c\n      swap1\n      tag_457\n      swap1\n        /* \"contracts/lzApp/NonblockingLzApp.sol\":1755:1766  _srcChainId */\n      dup8\n      swap1\n        /* \"contracts/lzApp/NonblockingLzApp.sol\":1768:1779  _srcAddress */\n      dup8\n      swap1\n        /* \"contracts/lzApp/NonblockingLzApp.sol\":1697:1703  _nonce */\n      dup8\n      swap1\n        /* \"contracts/lzApp/NonblockingLzApp.sol\":1789:1797  _payload */\n      dup8\n      swap1\n        /* \"contracts/lzApp/NonblockingLzApp.sol\":1799:1806  _reason */\n      dup8\n      swap1\n        /* \"contracts/lzApp/NonblockingLzApp.sol\":1741:1807  MessageFailed(_srcChainId, _srcAddress, _nonce, _payload, _reason) */\n      tag_458\n      jump\t// in\n    tag_457:\n      mload(0x40)\n      dup1\n      swap2\n      sub\n      swap1\n      log1\n        /* \"contracts/lzApp/NonblockingLzApp.sol\":1494:1814  function _storeFailedMessage(uint16 _srcChainId, bytes memory _srcAddress, uint64 _nonce, bytes memory _payload, bytes memory _reason) internal virtual {... */\n      pop\n      pop\n      pop\n      pop\n      pop\n      jump\t// out\n        /* \"contracts/lzApp/LzApp.sol\":3540:3923  function _checkPayloadSize(uint16 _dstChainId, uint _payloadSize) internal view virtual {... */\n    tag_413:\n        /* \"contracts/lzApp/LzApp.sol\":3662:3697  payloadSizeLimitLookup[_dstChainId] */\n      0xffff\n      dup3\n      and\n        /* \"contracts/lzApp/LzApp.sol\":3638:3659  uint payloadSizeLimit */\n      0x00\n        /* \"contracts/lzApp/LzApp.sol\":3662:3697  payloadSizeLimitLookup[_dstChainId] */\n      swap1\n      dup2\n      mstore\n        /* \"contracts/lzApp/LzApp.sol\":3662:3684  payloadSizeLimitLookup */\n      0x03\n        /* \"contracts/lzApp/LzApp.sol\":3662:3697  payloadSizeLimitLookup[_dstChainId] */\n      0x20\n      mstore\n      0x40\n      dup2\n      keccak256\n      sload\n      swap1\n        /* \"contracts/lzApp/LzApp.sol\":3711:3732  payloadSizeLimit == 0 */\n      dup2\n      swap1\n      sub\n        /* \"contracts/lzApp/LzApp.sol\":3707:3830  if (payloadSizeLimit == 0) { // use default if not set... */\n      tag_460\n      jumpi\n      pop\n        /* \"contracts/lzApp/LzApp.sol\":618:623  10000 */\n      0x2710\n        /* \"contracts/lzApp/LzApp.sol\":3707:3830  if (payloadSizeLimit == 0) { // use default if not set... */\n    tag_460:\n        /* \"contracts/lzApp/LzApp.sol\":3863:3879  payloadSizeLimit */\n      dup1\n        /* \"contracts/lzApp/LzApp.sol\":3847:3859  _payloadSize */\n      dup3\n        /* \"contracts/lzApp/LzApp.sol\":3847:3879  _payloadSize <= payloadSizeLimit */\n      gt\n      iszero\n        /* \"contracts/lzApp/LzApp.sol\":3839:3916  require(_payloadSize <= payloadSizeLimit, \"LzApp: payload size is too large\") */\n      tag_461\n      jumpi\n      mload(0x40)\n      shl(0xe5, 0x461bcd)\n      dup2\n      mstore\n        /* \"#utility.yul\":29365:29367   */\n      0x20\n        /* \"contracts/lzApp/LzApp.sol\":3839:3916  require(_payloadSize <= payloadSizeLimit, \"LzApp: payload size is too large\") */\n      0x04\n      dup3\n      add\n        /* \"#utility.yul\":29347:29368   */\n      dup2\n      swap1\n      mstore\n        /* \"#utility.yul\":29384:29402   */\n      0x24\n      dup3\n      add\n        /* \"#utility.yul\":29377:29407   */\n      mstore\n        /* \"#utility.yul\":29443:29477   */\n      0x4c7a4170703a207061796c6f61642073697a6520697320746f6f206c61726765\n        /* \"#utility.yul\":29423:29441   */\n      0x44\n      dup3\n      add\n        /* \"#utility.yul\":29416:29478   */\n      mstore\n        /* \"#utility.yul\":29495:29513   */\n      0x64\n      add\n        /* \"contracts/lzApp/LzApp.sol\":3839:3916  require(_payloadSize <= payloadSizeLimit, \"LzApp: payload size is too large\") */\n      tag_212\n        /* \"#utility.yul\":29163:29519   */\n      jump\n        /* \"contracts/lzApp/LzApp.sol\":3839:3916  require(_payloadSize <= payloadSizeLimit, \"LzApp: payload size is too large\") */\n    tag_461:\n        /* \"contracts/lzApp/LzApp.sol\":3628:3923  {... */\n      pop\n        /* \"contracts/lzApp/LzApp.sol\":3540:3923  function _checkPayloadSize(uint16 _dstChainId, uint _payloadSize) internal view virtual {... */\n      pop\n      pop\n      jump\t// out\n        /* \"#utility.yul\":14:173   */\n    tag_464:\n        /* \"#utility.yul\":81:101   */\n      dup1\n      calldataload\n        /* \"#utility.yul\":141:147   */\n      0xffff\n        /* \"#utility.yul\":130:148   */\n      dup2\n      and\n        /* \"#utility.yul\":120:149   */\n      dup2\n      eq\n        /* \"#utility.yul\":110:167   */\n      tag_482\n      jumpi\n        /* \"#utility.yul\":163:164   */\n      0x00\n        /* \"#utility.yul\":160:161   */\n      dup1\n        /* \"#utility.yul\":153:165   */\n      revert\n        /* \"#utility.yul\":110:167   */\n    tag_482:\n        /* \"#utility.yul\":14:173   */\n      swap2\n      swap1\n      pop\n      jump\t// out\n        /* \"#utility.yul\":178:525   */\n    tag_465:\n        /* \"#utility.yul\":229:237   */\n      0x00\n        /* \"#utility.yul\":239:245   */\n      dup1\n        /* \"#utility.yul\":293:296   */\n      dup4\n        /* \"#utility.yul\":286:290   */\n      0x1f\n        /* \"#utility.yul\":278:284   */\n      dup5\n        /* \"#utility.yul\":274:291   */\n      add\n        /* \"#utility.yul\":270:297   */\n      slt\n        /* \"#utility.yul\":260:315   */\n      tag_484\n      jumpi\n        /* \"#utility.yul\":311:312   */\n      0x00\n        /* \"#utility.yul\":308:309   */\n      dup1\n        /* \"#utility.yul\":301:313   */\n      revert\n        /* \"#utility.yul\":260:315   */\n    tag_484:\n      pop\n        /* \"#utility.yul\":334:354   */\n      dup2\n      calldataload\n      sub(shl(0x40, 0x01), 0x01)\n        /* \"#utility.yul\":366:396   */\n      dup2\n      gt\n        /* \"#utility.yul\":363:413   */\n      iszero\n      tag_485\n      jumpi\n        /* \"#utility.yul\":409:410   */\n      0x00\n        /* \"#utility.yul\":406:407   */\n      dup1\n        /* \"#utility.yul\":399:411   */\n      revert\n        /* \"#utility.yul\":363:413   */\n    tag_485:\n        /* \"#utility.yul\":446:450   */\n      0x20\n        /* \"#utility.yul\":438:444   */\n      dup4\n        /* \"#utility.yul\":434:451   */\n      add\n        /* \"#utility.yul\":422:451   */\n      swap2\n      pop\n        /* \"#utility.yul\":498:501   */\n      dup4\n        /* \"#utility.yul\":491:495   */\n      0x20\n        /* \"#utility.yul\":482:488   */\n      dup3\n        /* \"#utility.yul\":474:480   */\n      dup6\n        /* \"#utility.yul\":470:489   */\n      add\n        /* \"#utility.yul\":466:496   */\n      add\n        /* \"#utility.yul\":463:502   */\n      gt\n        /* \"#utility.yul\":460:519   */\n      iszero\n      tag_486\n      jumpi\n        /* \"#utility.yul\":515:516   */\n      0x00\n        /* \"#utility.yul\":512:513   */\n      dup1\n        /* \"#utility.yul\":505:517   */\n      revert\n        /* \"#utility.yul\":460:519   */\n    tag_486:\n        /* \"#utility.yul\":178:525   */\n      swap3\n      pop\n      swap3\n      swap1\n      pop\n      jump\t// out\n        /* \"#utility.yul\":530:701   */\n    tag_466:\n        /* \"#utility.yul\":597:617   */\n      dup1\n      calldataload\n      sub(shl(0x40, 0x01), 0x01)\n        /* \"#utility.yul\":646:676   */\n      dup2\n      and\n        /* \"#utility.yul\":636:677   */\n      dup2\n      eq\n        /* \"#utility.yul\":626:695   */\n      tag_482\n      jumpi\n        /* \"#utility.yul\":691:692   */\n      0x00\n        /* \"#utility.yul\":688:689   */\n      dup1\n        /* \"#utility.yul\":681:693   */\n      revert\n        /* \"#utility.yul\":706:1568   */\n    tag_49:\n        /* \"#utility.yul\":812:818   */\n      0x00\n        /* \"#utility.yul\":820:826   */\n      dup1\n        /* \"#utility.yul\":828:834   */\n      0x00\n        /* \"#utility.yul\":836:842   */\n      dup1\n        /* \"#utility.yul\":844:850   */\n      0x00\n        /* \"#utility.yul\":852:858   */\n      dup1\n        /* \"#utility.yul\":905:908   */\n      0x80\n        /* \"#utility.yul\":893:902   */\n      dup8\n        /* \"#utility.yul\":884:891   */\n      dup10\n        /* \"#utility.yul\":880:903   */\n      sub\n        /* \"#utility.yul\":876:909   */\n      slt\n        /* \"#utility.yul\":873:926   */\n      iszero\n      tag_490\n      jumpi\n        /* \"#utility.yul\":922:923   */\n      0x00\n        /* \"#utility.yul\":919:920   */\n      dup1\n        /* \"#utility.yul\":912:924   */\n      revert\n        /* \"#utility.yul\":873:926   */\n    tag_490:\n        /* \"#utility.yul\":945:973   */\n      tag_491\n        /* \"#utility.yul\":963:972   */\n      dup8\n        /* \"#utility.yul\":945:973   */\n      tag_464\n      jump\t// in\n    tag_491:\n        /* \"#utility.yul\":935:973   */\n      swap6\n      pop\n        /* \"#utility.yul\":1024:1026   */\n      0x20\n        /* \"#utility.yul\":1013:1022   */\n      dup8\n        /* \"#utility.yul\":1009:1027   */\n      add\n        /* \"#utility.yul\":996:1028   */\n      calldataload\n      sub(shl(0x40, 0x01), 0x01)\n        /* \"#utility.yul\":1088:1090   */\n      dup1\n        /* \"#utility.yul\":1080:1086   */\n      dup3\n        /* \"#utility.yul\":1077:1091   */\n      gt\n        /* \"#utility.yul\":1074:1108   */\n      iszero\n      tag_492\n      jumpi\n        /* \"#utility.yul\":1104:1105   */\n      0x00\n        /* \"#utility.yul\":1101:1102   */\n      dup1\n        /* \"#utility.yul\":1094:1106   */\n      revert\n        /* \"#utility.yul\":1074:1108   */\n    tag_492:\n        /* \"#utility.yul\":1143:1201   */\n      tag_493\n        /* \"#utility.yul\":1193:1200   */\n      dup11\n        /* \"#utility.yul\":1184:1190   */\n      dup4\n        /* \"#utility.yul\":1173:1182   */\n      dup12\n        /* \"#utility.yul\":1169:1191   */\n      add\n        /* \"#utility.yul\":1143:1201   */\n      tag_465\n      jump\t// in\n    tag_493:\n        /* \"#utility.yul\":1220:1228   */\n      swap1\n      swap8\n      pop\n        /* \"#utility.yul\":1117:1201   */\n      swap6\n      pop\n      dup6\n      swap2\n      pop\n        /* \"#utility.yul\":1274:1311   */\n      tag_494\n        /* \"#utility.yul\":1307:1309   */\n      0x40\n        /* \"#utility.yul\":1292:1310   */\n      dup11\n      add\n        /* \"#utility.yul\":1274:1311   */\n      tag_466\n      jump\t// in\n    tag_494:\n        /* \"#utility.yul\":1264:1311   */\n      swap5\n      pop\n        /* \"#utility.yul\":1364:1366   */\n      0x60\n        /* \"#utility.yul\":1353:1362   */\n      dup10\n        /* \"#utility.yul\":1349:1367   */\n      add\n        /* \"#utility.yul\":1336:1368   */\n      calldataload\n        /* \"#utility.yul\":1320:1368   */\n      swap2\n      pop\n        /* \"#utility.yul\":1393:1395   */\n      dup1\n        /* \"#utility.yul\":1383:1391   */\n      dup3\n        /* \"#utility.yul\":1380:1396   */\n      gt\n        /* \"#utility.yul\":1377:1413   */\n      iszero\n      tag_495\n      jumpi\n        /* \"#utility.yul\":1409:1410   */\n      0x00\n        /* \"#utility.yul\":1406:1407   */\n      dup1\n        /* \"#utility.yul\":1399:1411   */\n      revert\n        /* \"#utility.yul\":1377:1413   */\n    tag_495:\n      pop\n        /* \"#utility.yul\":1448:1508   */\n      tag_496\n        /* \"#utility.yul\":1500:1507   */\n      dup10\n        /* \"#utility.yul\":1489:1497   */\n      dup3\n        /* \"#utility.yul\":1478:1487   */\n      dup11\n        /* \"#utility.yul\":1474:1498   */\n      add\n        /* \"#utility.yul\":1448:1508   */\n      tag_465\n      jump\t// in\n    tag_496:\n        /* \"#utility.yul\":706:1568   */\n      swap8\n      swap11\n      swap7\n      swap10\n      pop\n      swap5\n      swap8\n      pop\n      swap3\n      swap6\n        /* \"#utility.yul\":1527:1535   */\n      swap4\n      swap5\n        /* \"#utility.yul\":706:1568   */\n      swap3\n      pop\n      pop\n      pop\n      jump\t// out\n        /* \"#utility.yul\":1573:1757   */\n    tag_54:\n        /* \"#utility.yul\":1631:1637   */\n      0x00\n        /* \"#utility.yul\":1684:1686   */\n      0x20\n        /* \"#utility.yul\":1672:1681   */\n      dup3\n        /* \"#utility.yul\":1663:1670   */\n      dup5\n        /* \"#utility.yul\":1659:1682   */\n      sub\n        /* \"#utility.yul\":1655:1687   */\n      slt\n        /* \"#utility.yul\":1652:1704   */\n      iszero\n      tag_498\n      jumpi\n        /* \"#utility.yul\":1700:1701   */\n      0x00\n        /* \"#utility.yul\":1697:1698   */\n      dup1\n        /* \"#utility.yul\":1690:1702   */\n      revert\n        /* \"#utility.yul\":1652:1704   */\n    tag_498:\n        /* \"#utility.yul\":1723:1751   */\n      tag_247\n        /* \"#utility.yul\":1741:1750   */\n      dup3\n        /* \"#utility.yul\":1723:1751   */\n      tag_464\n      jump\t// in\n        /* \"#utility.yul\":1762:2014   */\n    tag_59:\n        /* \"#utility.yul\":1829:1835   */\n      0x00\n        /* \"#utility.yul\":1837:1843   */\n      dup1\n        /* \"#utility.yul\":1890:1892   */\n      0x40\n        /* \"#utility.yul\":1878:1887   */\n      dup4\n        /* \"#utility.yul\":1869:1876   */\n      dup6\n        /* \"#utility.yul\":1865:1888   */\n      sub\n        /* \"#utility.yul\":1861:1893   */\n      slt\n        /* \"#utility.yul\":1858:1910   */\n      iszero\n      tag_501\n      jumpi\n        /* \"#utility.yul\":1906:1907   */\n      0x00\n        /* \"#utility.yul\":1903:1904   */\n      dup1\n        /* \"#utility.yul\":1896:1908   */\n      revert\n        /* \"#utility.yul\":1858:1910   */\n    tag_501:\n        /* \"#utility.yul\":1929:1957   */\n      tag_502\n        /* \"#utility.yul\":1947:1956   */\n      dup4\n        /* \"#utility.yul\":1929:1957   */\n      tag_464\n      jump\t// in\n    tag_502:\n        /* \"#utility.yul\":1919:1957   */\n      swap5\n        /* \"#utility.yul\":2004:2006   */\n      0x20\n        /* \"#utility.yul\":1989:2007   */\n      swap4\n      swap1\n      swap4\n      add\n        /* \"#utility.yul\":1976:2008   */\n      calldataload\n      swap4\n      pop\n      pop\n      pop\n        /* \"#utility.yul\":1762:2014   */\n      jump\t// out\n        /* \"#utility.yul\":2019:2500   */\n    tag_68:\n        /* \"#utility.yul\":2097:2103   */\n      0x00\n        /* \"#utility.yul\":2105:2111   */\n      dup1\n        /* \"#utility.yul\":2113:2119   */\n      0x00\n        /* \"#utility.yul\":2166:2168   */\n      0x40\n        /* \"#utility.yul\":2154:2163   */\n      dup5\n        /* \"#utility.yul\":2145:2152   */\n      dup7\n        /* \"#utility.yul\":2141:2164   */\n      sub\n        /* \"#utility.yul\":2137:2169   */\n      slt\n        /* \"#utility.yul\":2134:2186   */\n      iszero\n      tag_504\n      jumpi\n        /* \"#utility.yul\":2182:2183   */\n      0x00\n        /* \"#utility.yul\":2179:2180   */\n      dup1\n        /* \"#utility.yul\":2172:2184   */\n      revert\n        /* \"#utility.yul\":2134:2186   */\n    tag_504:\n        /* \"#utility.yul\":2205:2233   */\n      tag_505\n        /* \"#utility.yul\":2223:2232   */\n      dup5\n        /* \"#utility.yul\":2205:2233   */\n      tag_464\n      jump\t// in\n    tag_505:\n        /* \"#utility.yul\":2195:2233   */\n      swap3\n      pop\n        /* \"#utility.yul\":2284:2286   */\n      0x20\n        /* \"#utility.yul\":2273:2282   */\n      dup5\n        /* \"#utility.yul\":2269:2287   */\n      add\n        /* \"#utility.yul\":2256:2288   */\n      calldataload\n      sub(shl(0x40, 0x01), 0x01)\n        /* \"#utility.yul\":2303:2309   */\n      dup2\n        /* \"#utility.yul\":2300:2330   */\n      gt\n        /* \"#utility.yul\":2297:2347   */\n      iszero\n      tag_506\n      jumpi\n        /* \"#utility.yul\":2343:2344   */\n      0x00\n        /* \"#utility.yul\":2340:2341   */\n      dup1\n        /* \"#utility.yul\":2333:2345   */\n      revert\n        /* \"#utility.yul\":2297:2347   */\n    tag_506:\n        /* \"#utility.yul\":2382:2440   */\n      tag_507\n        /* \"#utility.yul\":2432:2439   */\n      dup7\n        /* \"#utility.yul\":2423:2429   */\n      dup3\n        /* \"#utility.yul\":2412:2421   */\n      dup8\n        /* \"#utility.yul\":2408:2430   */\n      add\n        /* \"#utility.yul\":2382:2440   */\n      tag_465\n      jump\t// in\n    tag_507:\n        /* \"#utility.yul\":2019:2500   */\n      swap5\n      swap8\n        /* \"#utility.yul\":2459:2467   */\n      swap1\n      swap7\n      pop\n        /* \"#utility.yul\":2356:2440   */\n      swap4\n      swap5\n      pop\n      pop\n      pop\n      pop\n        /* \"#utility.yul\":2019:2500   */\n      jump\t// out\n        /* \"#utility.yul\":2879:3006   */\n    tag_451:\n        /* \"#utility.yul\":2940:2950   */\n      0x4e487b71\n        /* \"#utility.yul\":2935:2938   */\n      0xe0\n        /* \"#utility.yul\":2931:2951   */\n      shl\n        /* \"#utility.yul\":2928:2929   */\n      0x00\n        /* \"#utility.yul\":2921:2952   */\n      mstore\n        /* \"#utility.yul\":2971:2975   */\n      0x41\n        /* \"#utility.yul\":2968:2969   */\n      0x04\n        /* \"#utility.yul\":2961:2976   */\n      mstore\n        /* \"#utility.yul\":2995:2999   */\n      0x24\n        /* \"#utility.yul\":2992:2993   */\n      0x00\n        /* \"#utility.yul\":2985:3000   */\n      revert\n        /* \"#utility.yul\":3011:3286   */\n    tag_467:\n        /* \"#utility.yul\":3082:3084   */\n      0x40\n        /* \"#utility.yul\":3076:3085   */\n      mload\n        /* \"#utility.yul\":3147:3149   */\n      0x1f\n        /* \"#utility.yul\":3128:3141   */\n      dup3\n      add\n      not(0x1f)\n        /* \"#utility.yul\":3124:3151   */\n      and\n        /* \"#utility.yul\":3112:3152   */\n      dup2\n      add\n      sub(shl(0x40, 0x01), 0x01)\n        /* \"#utility.yul\":3167:3201   */\n      dup2\n      gt\n        /* \"#utility.yul\":3203:3225   */\n      dup3\n      dup3\n      lt\n        /* \"#utility.yul\":3164:3226   */\n      or\n        /* \"#utility.yul\":3161:3249   */\n      iszero\n      tag_513\n      jumpi\n        /* \"#utility.yul\":3229:3247   */\n      tag_513\n      tag_451\n      jump\t// in\n    tag_513:\n        /* \"#utility.yul\":3265:3267   */\n      0x40\n        /* \"#utility.yul\":3258:3280   */\n      mstore\n        /* \"#utility.yul\":3011:3286   */\n      swap2\n      swap1\n      pop\n      jump\t// out\n        /* \"#utility.yul\":3291:3477   */\n    tag_468:\n        /* \"#utility.yul\":3339:3343   */\n      0x00\n      sub(shl(0x40, 0x01), 0x01)\n        /* \"#utility.yul\":3364:3370   */\n      dup3\n        /* \"#utility.yul\":3361:3391   */\n      gt\n        /* \"#utility.yul\":3358:3414   */\n      iszero\n      tag_516\n      jumpi\n        /* \"#utility.yul\":3394:3412   */\n      tag_516\n      tag_451\n      jump\t// in\n    tag_516:\n      pop\n        /* \"#utility.yul\":3460:3462   */\n      0x1f\n        /* \"#utility.yul\":3439:3454   */\n      add\n      not(0x1f)\n        /* \"#utility.yul\":3435:3464   */\n      and\n        /* \"#utility.yul\":3466:3470   */\n      0x20\n        /* \"#utility.yul\":3431:3471   */\n      add\n      swap1\n        /* \"#utility.yul\":3291:3477   */\n      jump\t// out\n        /* \"#utility.yul\":3482:3818   */\n    tag_469:\n        /* \"#utility.yul\":3546:3551   */\n      0x00\n        /* \"#utility.yul\":3575:3627   */\n      tag_518\n        /* \"#utility.yul\":3591:3626   */\n      tag_519\n        /* \"#utility.yul\":3619:3625   */\n      dup5\n        /* \"#utility.yul\":3591:3626   */\n      tag_468\n      jump\t// in\n    tag_519:\n        /* \"#utility.yul\":3575:3627   */\n      tag_467\n      jump\t// in\n    tag_518:\n        /* \"#utility.yul\":3566:3627   */\n      swap1\n      pop\n        /* \"#utility.yul\":3650:3656   */\n      dup3\n        /* \"#utility.yul\":3643:3648   */\n      dup2\n        /* \"#utility.yul\":3636:3657   */\n      mstore\n        /* \"#utility.yul\":3690:3693   */\n      dup4\n        /* \"#utility.yul\":3681:3687   */\n      dup4\n        /* \"#utility.yul\":3676:3679   */\n      dup4\n        /* \"#utility.yul\":3672:3688   */\n      add\n        /* \"#utility.yul\":3669:3694   */\n      gt\n        /* \"#utility.yul\":3666:3711   */\n      iszero\n      tag_520\n      jumpi\n        /* \"#utility.yul\":3707:3708   */\n      0x00\n        /* \"#utility.yul\":3704:3705   */\n      dup1\n        /* \"#utility.yul\":3697:3709   */\n      revert\n        /* \"#utility.yul\":3666:3711   */\n    tag_520:\n        /* \"#utility.yul\":3756:3762   */\n      dup3\n        /* \"#utility.yul\":3751:3754   */\n      dup3\n        /* \"#utility.yul\":3744:3748   */\n      0x20\n        /* \"#utility.yul\":3737:3742   */\n      dup4\n        /* \"#utility.yul\":3733:3749   */\n      add\n        /* \"#utility.yul\":3720:3763   */\n      calldatacopy\n        /* \"#utility.yul\":3810:3811   */\n      0x00\n        /* \"#utility.yul\":3803:3807   */\n      0x20\n        /* \"#utility.yul\":3794:3800   */\n      dup5\n        /* \"#utility.yul\":3787:3792   */\n      dup4\n        /* \"#utility.yul\":3783:3801   */\n      add\n        /* \"#utility.yul\":3779:3808   */\n      add\n        /* \"#utility.yul\":3772:3812   */\n      mstore\n        /* \"#utility.yul\":3482:3818   */\n      swap4\n      swap3\n      pop\n      pop\n      pop\n      jump\t// out\n        /* \"#utility.yul\":3823:4416   */\n    tag_89:\n        /* \"#utility.yul\":3907:3913   */\n      0x00\n        /* \"#utility.yul\":3915:3921   */\n      dup1\n        /* \"#utility.yul\":3923:3929   */\n      0x00\n        /* \"#utility.yul\":3976:3978   */\n      0x60\n        /* \"#utility.yul\":3964:3973   */\n      dup5\n        /* \"#utility.yul\":3955:3962   */\n      dup7\n        /* \"#utility.yul\":3951:3974   */\n      sub\n        /* \"#utility.yul\":3947:3979   */\n      slt\n        /* \"#utility.yul\":3944:3996   */\n      iszero\n      tag_522\n      jumpi\n        /* \"#utility.yul\":3992:3993   */\n      0x00\n        /* \"#utility.yul\":3989:3990   */\n      dup1\n        /* \"#utility.yul\":3982:3994   */\n      revert\n        /* \"#utility.yul\":3944:3996   */\n    tag_522:\n        /* \"#utility.yul\":4015:4043   */\n      tag_523\n        /* \"#utility.yul\":4033:4042   */\n      dup5\n        /* \"#utility.yul\":4015:4043   */\n      tag_464\n      jump\t// in\n    tag_523:\n        /* \"#utility.yul\":4005:4043   */\n      swap3\n      pop\n        /* \"#utility.yul\":4094:4096   */\n      0x20\n        /* \"#utility.yul\":4083:4092   */\n      dup5\n        /* \"#utility.yul\":4079:4097   */\n      add\n        /* \"#utility.yul\":4066:4098   */\n      calldataload\n      sub(shl(0x40, 0x01), 0x01)\n        /* \"#utility.yul\":4113:4119   */\n      dup2\n        /* \"#utility.yul\":4110:4140   */\n      gt\n        /* \"#utility.yul\":4107:4157   */\n      iszero\n      tag_524\n      jumpi\n        /* \"#utility.yul\":4153:4154   */\n      0x00\n        /* \"#utility.yul\":4150:4151   */\n      dup1\n        /* \"#utility.yul\":4143:4155   */\n      revert\n        /* \"#utility.yul\":4107:4157   */\n    tag_524:\n        /* \"#utility.yul\":4176:4198   */\n      dup5\n      add\n        /* \"#utility.yul\":4229:4233   */\n      0x1f\n        /* \"#utility.yul\":4221:4234   */\n      dup2\n      add\n        /* \"#utility.yul\":4217:4244   */\n      dup7\n      sgt\n        /* \"#utility.yul\":4207:4262   */\n      tag_525\n      jumpi\n        /* \"#utility.yul\":4258:4259   */\n      0x00\n        /* \"#utility.yul\":4255:4256   */\n      dup1\n        /* \"#utility.yul\":4248:4260   */\n      revert\n        /* \"#utility.yul\":4207:4262   */\n    tag_525:\n        /* \"#utility.yul\":4281:4354   */\n      tag_526\n        /* \"#utility.yul\":4346:4353   */\n      dup7\n        /* \"#utility.yul\":4341:4343   */\n      dup3\n        /* \"#utility.yul\":4328:4344   */\n      calldataload\n        /* \"#utility.yul\":4323:4325   */\n      0x20\n        /* \"#utility.yul\":4319:4321   */\n      dup5\n        /* \"#utility.yul\":4315:4326   */\n      add\n        /* \"#utility.yul\":4281:4354   */\n      tag_469\n      jump\t// in\n    tag_526:\n        /* \"#utility.yul\":4271:4354   */\n      swap3\n      pop\n      pop\n        /* \"#utility.yul\":4373:4410   */\n      tag_527\n        /* \"#utility.yul\":4406:4408   */\n      0x40\n        /* \"#utility.yul\":4395:4404   */\n      dup6\n        /* \"#utility.yul\":4391:4409   */\n      add\n        /* \"#utility.yul\":4373:4410   */\n      tag_466\n      jump\t// in\n    tag_527:\n        /* \"#utility.yul\":4363:4410   */\n      swap1\n      pop\n        /* \"#utility.yul\":3823:4416   */\n      swap3\n      pop\n      swap3\n      pop\n      swap3\n      jump\t// out\n        /* \"#utility.yul\":4603:4799   */\n    tag_470:\n        /* \"#utility.yul\":4671:4691   */\n      dup1\n      calldataload\n      sub(shl(0xa0, 0x01), 0x01)\n        /* \"#utility.yul\":4720:4774   */\n      dup2\n      and\n        /* \"#utility.yul\":4710:4775   */\n      dup2\n      eq\n        /* \"#utility.yul\":4700:4793   */\n      tag_482\n      jumpi\n        /* \"#utility.yul\":4789:4790   */\n      0x00\n        /* \"#utility.yul\":4786:4787   */\n      dup1\n        /* \"#utility.yul\":4779:4791   */\n      revert\n        /* \"#utility.yul\":4804:4990   */\n    tag_96:\n        /* \"#utility.yul\":4863:4869   */\n      0x00\n        /* \"#utility.yul\":4916:4918   */\n      0x20\n        /* \"#utility.yul\":4904:4913   */\n      dup3\n        /* \"#utility.yul\":4895:4902   */\n      dup5\n        /* \"#utility.yul\":4891:4914   */\n      sub\n        /* \"#utility.yul\":4887:4919   */\n      slt\n        /* \"#utility.yul\":4884:4936   */\n      iszero\n      tag_532\n      jumpi\n        /* \"#utility.yul\":4932:4933   */\n      0x00\n        /* \"#utility.yul\":4929:4930   */\n      dup1\n        /* \"#utility.yul\":4922:4934   */\n      revert\n        /* \"#utility.yul\":4884:4936   */\n    tag_532:\n        /* \"#utility.yul\":4955:4984   */\n      tag_247\n        /* \"#utility.yul\":4974:4983   */\n      dup3\n        /* \"#utility.yul\":4955:4984   */\n      tag_470\n      jump\t// in\n        /* \"#utility.yul\":4995:5216   */\n    tag_471:\n        /* \"#utility.yul\":5038:5043   */\n      0x00\n        /* \"#utility.yul\":5091:5094   */\n      dup3\n        /* \"#utility.yul\":5084:5088   */\n      0x1f\n        /* \"#utility.yul\":5076:5082   */\n      dup4\n        /* \"#utility.yul\":5072:5089   */\n      add\n        /* \"#utility.yul\":5068:5095   */\n      slt\n        /* \"#utility.yul\":5058:5113   */\n      tag_535\n      jumpi\n        /* \"#utility.yul\":5109:5110   */\n      0x00\n        /* \"#utility.yul\":5106:5107   */\n      dup1\n        /* \"#utility.yul\":5099:5111   */\n      revert\n        /* \"#utility.yul\":5058:5113   */\n    tag_535:\n        /* \"#utility.yul\":5131:5210   */\n      tag_247\n        /* \"#utility.yul\":5206:5209   */\n      dup4\n        /* \"#utility.yul\":5197:5203   */\n      dup4\n        /* \"#utility.yul\":5184:5204   */\n      calldataload\n        /* \"#utility.yul\":5177:5181   */\n      0x20\n        /* \"#utility.yul\":5169:5175   */\n      dup6\n        /* \"#utility.yul\":5165:5182   */\n      add\n        /* \"#utility.yul\":5131:5210   */\n      tag_469\n      jump\t// in\n        /* \"#utility.yul\":5221:5543   */\n    tag_104:\n        /* \"#utility.yul\":5290:5296   */\n      0x00\n        /* \"#utility.yul\":5343:5345   */\n      0x20\n        /* \"#utility.yul\":5331:5340   */\n      dup3\n        /* \"#utility.yul\":5322:5329   */\n      dup5\n        /* \"#utility.yul\":5318:5341   */\n      sub\n        /* \"#utility.yul\":5314:5346   */\n      slt\n        /* \"#utility.yul\":5311:5363   */\n      iszero\n      tag_538\n      jumpi\n        /* \"#utility.yul\":5359:5360   */\n      0x00\n        /* \"#utility.yul\":5356:5357   */\n      dup1\n        /* \"#utility.yul\":5349:5361   */\n      revert\n        /* \"#utility.yul\":5311:5363   */\n    tag_538:\n        /* \"#utility.yul\":5399:5408   */\n      dup2\n        /* \"#utility.yul\":5386:5409   */\n      calldataload\n      sub(shl(0x40, 0x01), 0x01)\n        /* \"#utility.yul\":5424:5430   */\n      dup2\n        /* \"#utility.yul\":5421:5451   */\n      gt\n        /* \"#utility.yul\":5418:5468   */\n      iszero\n      tag_539\n      jumpi\n        /* \"#utility.yul\":5464:5465   */\n      0x00\n        /* \"#utility.yul\":5461:5462   */\n      dup1\n        /* \"#utility.yul\":5454:5466   */\n      revert\n        /* \"#utility.yul\":5418:5468   */\n    tag_539:\n        /* \"#utility.yul\":5487:5537   */\n      tag_540\n        /* \"#utility.yul\":5529:5536   */\n      dup5\n        /* \"#utility.yul\":5520:5526   */\n      dup3\n        /* \"#utility.yul\":5509:5518   */\n      dup6\n        /* \"#utility.yul\":5505:5527   */\n      add\n        /* \"#utility.yul\":5487:5537   */\n      tag_471\n      jump\t// in\n    tag_540:\n        /* \"#utility.yul\":5477:5537   */\n      swap5\n        /* \"#utility.yul\":5221:5543   */\n      swap4\n      pop\n      pop\n      pop\n      pop\n      jump\t// out\n        /* \"#utility.yul\":5548:6250   */\n    tag_113:\n        /* \"#utility.yul\":5645:5651   */\n      0x00\n        /* \"#utility.yul\":5653:5659   */\n      dup1\n        /* \"#utility.yul\":5661:5667   */\n      0x00\n        /* \"#utility.yul\":5669:5675   */\n      dup1\n        /* \"#utility.yul\":5722:5724   */\n      0x60\n        /* \"#utility.yul\":5710:5719   */\n      dup6\n        /* \"#utility.yul\":5701:5708   */\n      dup8\n        /* \"#utility.yul\":5697:5720   */\n      sub\n        /* \"#utility.yul\":5693:5725   */\n      slt\n        /* \"#utility.yul\":5690:5742   */\n      iszero\n      tag_542\n      jumpi\n        /* \"#utility.yul\":5738:5739   */\n      0x00\n        /* \"#utility.yul\":5735:5736   */\n      dup1\n        /* \"#utility.yul\":5728:5740   */\n      revert\n        /* \"#utility.yul\":5690:5742   */\n    tag_542:\n        /* \"#utility.yul\":5761:5789   */\n      tag_543\n        /* \"#utility.yul\":5779:5788   */\n      dup6\n        /* \"#utility.yul\":5761:5789   */\n      tag_464\n      jump\t// in\n    tag_543:\n        /* \"#utility.yul\":5751:5789   */\n      swap4\n      pop\n        /* \"#utility.yul\":5840:5842   */\n      0x20\n        /* \"#utility.yul\":5829:5838   */\n      dup6\n        /* \"#utility.yul\":5825:5843   */\n      add\n        /* \"#utility.yul\":5812:5844   */\n      calldataload\n      sub(shl(0x40, 0x01), 0x01)\n        /* \"#utility.yul\":5904:5906   */\n      dup1\n        /* \"#utility.yul\":5896:5902   */\n      dup3\n        /* \"#utility.yul\":5893:5907   */\n      gt\n        /* \"#utility.yul\":5890:5924   */\n      iszero\n      tag_544\n      jumpi\n        /* \"#utility.yul\":5920:5921   */\n      0x00\n        /* \"#utility.yul\":5917:5918   */\n      dup1\n        /* \"#utility.yul\":5910:5922   */\n      revert\n        /* \"#utility.yul\":5890:5924   */\n    tag_544:\n        /* \"#utility.yul\":5959:6017   */\n      tag_545\n        /* \"#utility.yul\":6009:6016   */\n      dup9\n        /* \"#utility.yul\":6000:6006   */\n      dup4\n        /* \"#utility.yul\":5989:5998   */\n      dup10\n        /* \"#utility.yul\":5985:6007   */\n      add\n        /* \"#utility.yul\":5959:6017   */\n      tag_465\n      jump\t// in\n    tag_545:\n        /* \"#utility.yul\":6036:6044   */\n      swap1\n      swap6\n      pop\n        /* \"#utility.yul\":5933:6017   */\n      swap4\n      pop\n        /* \"#utility.yul\":6124:6126   */\n      0x40\n        /* \"#utility.yul\":6109:6127   */\n      dup8\n      add\n        /* \"#utility.yul\":6096:6128   */\n      calldataload\n      swap2\n      pop\n        /* \"#utility.yul\":6140:6156   */\n      dup1\n      dup3\n      gt\n        /* \"#utility.yul\":6137:6173   */\n      iszero\n      tag_546\n      jumpi\n        /* \"#utility.yul\":6169:6170   */\n      0x00\n        /* \"#utility.yul\":6166:6167   */\n      dup1\n        /* \"#utility.yul\":6159:6171   */\n      revert\n        /* \"#utility.yul\":6137:6173   */\n    tag_546:\n      pop\n        /* \"#utility.yul\":6192:6244   */\n      tag_547\n        /* \"#utility.yul\":6236:6243   */\n      dup8\n        /* \"#utility.yul\":6225:6233   */\n      dup3\n        /* \"#utility.yul\":6214:6223   */\n      dup9\n        /* \"#utility.yul\":6210:6234   */\n      add\n        /* \"#utility.yul\":6192:6244   */\n      tag_471\n      jump\t// in\n    tag_547:\n        /* \"#utility.yul\":6182:6244   */\n      swap2\n      pop\n      pop\n        /* \"#utility.yul\":5548:6250   */\n      swap3\n      swap6\n      swap2\n      swap5\n      pop\n      swap3\n      pop\n      jump\t// out\n        /* \"#utility.yul\":6508:6758   */\n    tag_472:\n        /* \"#utility.yul\":6593:6594   */\n      0x00\n        /* \"#utility.yul\":6603:6716   */\n    tag_550:\n        /* \"#utility.yul\":6617:6623   */\n      dup4\n        /* \"#utility.yul\":6614:6615   */\n      dup2\n        /* \"#utility.yul\":6611:6624   */\n      lt\n        /* \"#utility.yul\":6603:6716   */\n      iszero\n      tag_552\n      jumpi\n        /* \"#utility.yul\":6693:6704   */\n      dup2\n      dup2\n      add\n        /* \"#utility.yul\":6687:6705   */\n      mload\n        /* \"#utility.yul\":6674:6685   */\n      dup4\n      dup3\n      add\n        /* \"#utility.yul\":6667:6706   */\n      mstore\n        /* \"#utility.yul\":6639:6641   */\n      0x20\n        /* \"#utility.yul\":6632:6642   */\n      add\n        /* \"#utility.yul\":6603:6716   */\n      jump(tag_550)\n    tag_552:\n      pop\n      pop\n        /* \"#utility.yul\":6750:6751   */\n      0x00\n        /* \"#utility.yul\":6732:6748   */\n      swap2\n      add\n        /* \"#utility.yul\":6725:6752   */\n      mstore\n        /* \"#utility.yul\":6508:6758   */\n      jump\t// out\n        /* \"#utility.yul\":6763:7034   */\n    tag_473:\n        /* \"#utility.yul\":6805:6808   */\n      0x00\n        /* \"#utility.yul\":6843:6848   */\n      dup2\n        /* \"#utility.yul\":6837:6849   */\n      mload\n        /* \"#utility.yul\":6870:6876   */\n      dup1\n        /* \"#utility.yul\":6865:6868   */\n      dup5\n        /* \"#utility.yul\":6858:6877   */\n      mstore\n        /* \"#utility.yul\":6886:6962   */\n      tag_554\n        /* \"#utility.yul\":6955:6961   */\n      dup2\n        /* \"#utility.yul\":6948:6952   */\n      0x20\n        /* \"#utility.yul\":6943:6946   */\n      dup7\n        /* \"#utility.yul\":6939:6953   */\n      add\n        /* \"#utility.yul\":6932:6936   */\n      0x20\n        /* \"#utility.yul\":6925:6930   */\n      dup7\n        /* \"#utility.yul\":6921:6937   */\n      add\n        /* \"#utility.yul\":6886:6962   */\n      tag_472\n      jump\t// in\n    tag_554:\n        /* \"#utility.yul\":7016:7018   */\n      0x1f\n        /* \"#utility.yul\":6995:7010   */\n      add\n      not(0x1f)\n        /* \"#utility.yul\":6991:7020   */\n      and\n        /* \"#utility.yul\":6982:7021   */\n      swap3\n      swap1\n      swap3\n      add\n        /* \"#utility.yul\":7023:7027   */\n      0x20\n        /* \"#utility.yul\":6978:7028   */\n      add\n      swap3\n        /* \"#utility.yul\":6763:7034   */\n      swap2\n      pop\n      pop\n      jump\t// out\n        /* \"#utility.yul\":7039:7259   */\n    tag_124:\n        /* \"#utility.yul\":7188:7190   */\n      0x20\n        /* \"#utility.yul\":7177:7186   */\n      dup2\n        /* \"#utility.yul\":7170:7191   */\n      mstore\n        /* \"#utility.yul\":7151:7155   */\n      0x00\n        /* \"#utility.yul\":7208:7253   */\n      tag_247\n        /* \"#utility.yul\":7249:7251   */\n      0x20\n        /* \"#utility.yul\":7238:7247   */\n      dup4\n        /* \"#utility.yul\":7234:7252   */\n      add\n        /* \"#utility.yul\":7226:7232   */\n      dup5\n        /* \"#utility.yul\":7208:7253   */\n      tag_473\n      jump\t// in\n        /* \"#utility.yul\":7487:7743   */\n    tag_134:\n        /* \"#utility.yul\":7553:7559   */\n      0x00\n        /* \"#utility.yul\":7561:7567   */\n      dup1\n        /* \"#utility.yul\":7614:7616   */\n      0x40\n        /* \"#utility.yul\":7602:7611   */\n      dup4\n        /* \"#utility.yul\":7593:7600   */\n      dup6\n        /* \"#utility.yul\":7589:7612   */\n      sub\n        /* \"#utility.yul\":7585:7617   */\n      slt\n        /* \"#utility.yul\":7582:7634   */\n      iszero\n      tag_560\n      jumpi\n        /* \"#utility.yul\":7630:7631   */\n      0x00\n        /* \"#utility.yul\":7627:7628   */\n      dup1\n        /* \"#utility.yul\":7620:7632   */\n      revert\n        /* \"#utility.yul\":7582:7634   */\n    tag_560:\n        /* \"#utility.yul\":7653:7681   */\n      tag_561\n        /* \"#utility.yul\":7671:7680   */\n      dup4\n        /* \"#utility.yul\":7653:7681   */\n      tag_464\n      jump\t// in\n    tag_561:\n        /* \"#utility.yul\":7643:7681   */\n      swap2\n      pop\n        /* \"#utility.yul\":7700:7737   */\n      tag_562\n        /* \"#utility.yul\":7733:7735   */\n      0x20\n        /* \"#utility.yul\":7722:7731   */\n      dup5\n        /* \"#utility.yul\":7718:7736   */\n      add\n        /* \"#utility.yul\":7700:7737   */\n      tag_464\n      jump\t// in\n    tag_562:\n        /* \"#utility.yul\":7690:7737   */\n      swap1\n      pop\n        /* \"#utility.yul\":7487:7743   */\n      swap3\n      pop\n      swap3\n      swap1\n      pop\n      jump\t// out\n        /* \"#utility.yul\":8429:9051   */\n    tag_180:\n        /* \"#utility.yul\":8524:8530   */\n      0x00\n        /* \"#utility.yul\":8532:8538   */\n      dup1\n        /* \"#utility.yul\":8540:8546   */\n      0x00\n        /* \"#utility.yul\":8548:8554   */\n      dup1\n        /* \"#utility.yul\":8556:8562   */\n      0x00\n        /* \"#utility.yul\":8609:8612   */\n      0x80\n        /* \"#utility.yul\":8597:8606   */\n      dup7\n        /* \"#utility.yul\":8588:8595   */\n      dup9\n        /* \"#utility.yul\":8584:8607   */\n      sub\n        /* \"#utility.yul\":8580:8613   */\n      slt\n        /* \"#utility.yul\":8577:8630   */\n      iszero\n      tag_567\n      jumpi\n        /* \"#utility.yul\":8626:8627   */\n      0x00\n        /* \"#utility.yul\":8623:8624   */\n      dup1\n        /* \"#utility.yul\":8616:8628   */\n      revert\n        /* \"#utility.yul\":8577:8630   */\n    tag_567:\n        /* \"#utility.yul\":8649:8677   */\n      tag_568\n        /* \"#utility.yul\":8667:8676   */\n      dup7\n        /* \"#utility.yul\":8649:8677   */\n      tag_464\n      jump\t// in\n    tag_568:\n        /* \"#utility.yul\":8639:8677   */\n      swap5\n      pop\n        /* \"#utility.yul\":8696:8733   */\n      tag_569\n        /* \"#utility.yul\":8729:8731   */\n      0x20\n        /* \"#utility.yul\":8718:8727   */\n      dup8\n        /* \"#utility.yul\":8714:8732   */\n      add\n        /* \"#utility.yul\":8696:8733   */\n      tag_464\n      jump\t// in\n    tag_569:\n        /* \"#utility.yul\":8686:8733   */\n      swap4\n      pop\n        /* \"#utility.yul\":8780:8782   */\n      0x40\n        /* \"#utility.yul\":8769:8778   */\n      dup7\n        /* \"#utility.yul\":8765:8783   */\n      add\n        /* \"#utility.yul\":8752:8784   */\n      calldataload\n        /* \"#utility.yul\":8742:8784   */\n      swap3\n      pop\n        /* \"#utility.yul\":8835:8837   */\n      0x60\n        /* \"#utility.yul\":8824:8833   */\n      dup7\n        /* \"#utility.yul\":8820:8838   */\n      add\n        /* \"#utility.yul\":8807:8839   */\n      calldataload\n      sub(shl(0x40, 0x01), 0x01)\n        /* \"#utility.yul\":8854:8860   */\n      dup2\n        /* \"#utility.yul\":8851:8881   */\n      gt\n        /* \"#utility.yul\":8848:8898   */\n      iszero\n      tag_570\n      jumpi\n        /* \"#utility.yul\":8894:8895   */\n      0x00\n        /* \"#utility.yul\":8891:8892   */\n      dup1\n        /* \"#utility.yul\":8884:8896   */\n      revert\n        /* \"#utility.yul\":8848:8898   */\n    tag_570:\n        /* \"#utility.yul\":8933:8991   */\n      tag_571\n        /* \"#utility.yul\":8983:8990   */\n      dup9\n        /* \"#utility.yul\":8974:8980   */\n      dup3\n        /* \"#utility.yul\":8963:8972   */\n      dup10\n        /* \"#utility.yul\":8959:8981   */\n      add\n        /* \"#utility.yul\":8933:8991   */\n      tag_465\n      jump\t// in\n    tag_571:\n        /* \"#utility.yul\":8429:9051   */\n      swap7\n      swap10\n      swap6\n      swap9\n      pop\n      swap4\n      swap7\n      pop\n        /* \"#utility.yul\":9010:9018   */\n      swap3\n      swap5\n        /* \"#utility.yul\":8907:8991   */\n      swap4\n        /* \"#utility.yul\":8429:9051   */\n      swap3\n      pop\n      pop\n      pop\n      jump\t// out\n        /* \"#utility.yul\":9056:9380   */\n    tag_192:\n        /* \"#utility.yul\":9131:9137   */\n      0x00\n        /* \"#utility.yul\":9139:9145   */\n      dup1\n        /* \"#utility.yul\":9147:9153   */\n      0x00\n        /* \"#utility.yul\":9200:9202   */\n      0x60\n        /* \"#utility.yul\":9188:9197   */\n      dup5\n        /* \"#utility.yul\":9179:9186   */\n      dup7\n        /* \"#utility.yul\":9175:9198   */\n      sub\n        /* \"#utility.yul\":9171:9203   */\n      slt\n        /* \"#utility.yul\":9168:9220   */\n      iszero\n      tag_573\n      jumpi\n        /* \"#utility.yul\":9216:9217   */\n      0x00\n        /* \"#utility.yul\":9213:9214   */\n      dup1\n        /* \"#utility.yul\":9206:9218   */\n      revert\n        /* \"#utility.yul\":9168:9220   */\n    tag_573:\n        /* \"#utility.yul\":9239:9267   */\n      tag_574\n        /* \"#utility.yul\":9257:9266   */\n      dup5\n        /* \"#utility.yul\":9239:9267   */\n      tag_464\n      jump\t// in\n    tag_574:\n        /* \"#utility.yul\":9229:9267   */\n      swap3\n      pop\n        /* \"#utility.yul\":9286:9323   */\n      tag_575\n        /* \"#utility.yul\":9319:9321   */\n      0x20\n        /* \"#utility.yul\":9308:9317   */\n      dup6\n        /* \"#utility.yul\":9304:9322   */\n      add\n        /* \"#utility.yul\":9286:9323   */\n      tag_464\n      jump\t// in\n    tag_575:\n        /* \"#utility.yul\":9276:9323   */\n      swap2\n      pop\n        /* \"#utility.yul\":9370:9372   */\n      0x40\n        /* \"#utility.yul\":9359:9368   */\n      dup5\n        /* \"#utility.yul\":9355:9373   */\n      add\n        /* \"#utility.yul\":9342:9374   */\n      calldataload\n        /* \"#utility.yul\":9332:9374   */\n      swap1\n      pop\n        /* \"#utility.yul\":9056:9380   */\n      swap3\n      pop\n      swap3\n      pop\n      swap3\n      jump\t// out\n        /* \"#utility.yul\":9385:9784   */\n    tag_205:\n        /* \"#utility.yul\":9469:9475   */\n      0x00\n        /* \"#utility.yul\":9477:9483   */\n      dup1\n        /* \"#utility.yul\":9485:9491   */\n      0x00\n        /* \"#utility.yul\":9493:9499   */\n      dup1\n        /* \"#utility.yul\":9546:9549   */\n      0x80\n        /* \"#utility.yul\":9534:9543   */\n      dup6\n        /* \"#utility.yul\":9525:9532   */\n      dup8\n        /* \"#utility.yul\":9521:9544   */\n      sub\n        /* \"#utility.yul\":9517:9550   */\n      slt\n        /* \"#utility.yul\":9514:9567   */\n      iszero\n      tag_577\n      jumpi\n        /* \"#utility.yul\":9563:9564   */\n      0x00\n        /* \"#utility.yul\":9560:9561   */\n      dup1\n        /* \"#utility.yul\":9553:9565   */\n      revert\n        /* \"#utility.yul\":9514:9567   */\n    tag_577:\n        /* \"#utility.yul\":9586:9614   */\n      tag_578\n        /* \"#utility.yul\":9604:9613   */\n      dup6\n        /* \"#utility.yul\":9586:9614   */\n      tag_464\n      jump\t// in\n    tag_578:\n        /* \"#utility.yul\":9576:9614   */\n      swap4\n      pop\n        /* \"#utility.yul\":9633:9670   */\n      tag_579\n        /* \"#utility.yul\":9666:9668   */\n      0x20\n        /* \"#utility.yul\":9655:9664   */\n      dup7\n        /* \"#utility.yul\":9651:9669   */\n      add\n        /* \"#utility.yul\":9633:9670   */\n      tag_464\n      jump\t// in\n    tag_579:\n        /* \"#utility.yul\":9623:9670   */\n      swap3\n      pop\n        /* \"#utility.yul\":9689:9727   */\n      tag_580\n        /* \"#utility.yul\":9723:9725   */\n      0x40\n        /* \"#utility.yul\":9712:9721   */\n      dup7\n        /* \"#utility.yul\":9708:9726   */\n      add\n        /* \"#utility.yul\":9689:9727   */\n      tag_470\n      jump\t// in\n    tag_580:\n        /* \"#utility.yul\":9385:9784   */\n      swap4\n      swap7\n      swap3\n      swap6\n      pop\n        /* \"#utility.yul\":9679:9727   */\n      swap3\n      swap4\n        /* \"#utility.yul\":9774:9776   */\n      0x60\n        /* \"#utility.yul\":9759:9777   */\n      add\n        /* \"#utility.yul\":9746:9778   */\n      calldataload\n      swap3\n      pop\n      pop\n        /* \"#utility.yul\":9385:9784   */\n      jump\t// out\n        /* \"#utility.yul\":10148:10528   */\n    tag_215:\n        /* \"#utility.yul\":10227:10228   */\n      0x01\n        /* \"#utility.yul\":10223:10235   */\n      dup2\n      dup2\n      shr\n      swap1\n        /* \"#utility.yul\":10270:10282   */\n      dup3\n      and\n      dup1\n        /* \"#utility.yul\":10291:10352   */\n      tag_583\n      jumpi\n        /* \"#utility.yul\":10345:10349   */\n      0x7f\n        /* \"#utility.yul\":10337:10343   */\n      dup3\n        /* \"#utility.yul\":10333:10350   */\n      and\n        /* \"#utility.yul\":10323:10350   */\n      swap2\n      pop\n        /* \"#utility.yul\":10291:10352   */\n    tag_583:\n        /* \"#utility.yul\":10398:10400   */\n      0x20\n        /* \"#utility.yul\":10390:10396   */\n      dup3\n        /* \"#utility.yul\":10387:10401   */\n      lt\n        /* \"#utility.yul\":10367:10385   */\n      dup2\n        /* \"#utility.yul\":10364:10402   */\n      sub\n        /* \"#utility.yul\":10361:10522   */\n      tag_584\n      jumpi\n        /* \"#utility.yul\":10444:10454   */\n      0x4e487b71\n        /* \"#utility.yul\":10439:10442   */\n      0xe0\n        /* \"#utility.yul\":10435:10455   */\n      shl\n        /* \"#utility.yul\":10432:10433   */\n      0x00\n        /* \"#utility.yul\":10425:10456   */\n      mstore\n        /* \"#utility.yul\":10479:10483   */\n      0x22\n        /* \"#utility.yul\":10476:10477   */\n      0x04\n        /* \"#utility.yul\":10469:10484   */\n      mstore\n        /* \"#utility.yul\":10507:10511   */\n      0x24\n        /* \"#utility.yul\":10504:10505   */\n      0x00\n        /* \"#utility.yul\":10497:10512   */\n      revert\n        /* \"#utility.yul\":10361:10522   */\n    tag_584:\n      pop\n        /* \"#utility.yul\":10148:10528   */\n      swap2\n      swap1\n      pop\n      jump\t// out\n        /* \"#utility.yul\":10533:10804   */\n    tag_223:\n        /* \"#utility.yul\":10716:10722   */\n      dup2\n        /* \"#utility.yul\":10708:10714   */\n      dup4\n        /* \"#utility.yul\":10703:10706   */\n      dup3\n        /* \"#utility.yul\":10690:10723   */\n      calldatacopy\n        /* \"#utility.yul\":10672:10675   */\n      0x00\n        /* \"#utility.yul\":10742:10758   */\n      swap2\n      add\n        /* \"#utility.yul\":10767:10780   */\n      swap1\n      dup2\n      mstore\n        /* \"#utility.yul\":10742:10758   */\n      swap2\n        /* \"#utility.yul\":10533:10804   */\n      swap1\n      pop\n      jump\t// out\n        /* \"#utility.yul\":11216:11482   */\n    tag_474:\n        /* \"#utility.yul\":11304:11310   */\n      dup2\n        /* \"#utility.yul\":11299:11302   */\n      dup4\n        /* \"#utility.yul\":11292:11311   */\n      mstore\n        /* \"#utility.yul\":11356:11362   */\n      dup2\n        /* \"#utility.yul\":11349:11354   */\n      dup2\n        /* \"#utility.yul\":11342:11346   */\n      0x20\n        /* \"#utility.yul\":11337:11340   */\n      dup6\n        /* \"#utility.yul\":11333:11347   */\n      add\n        /* \"#utility.yul\":11320:11363   */\n      calldatacopy\n      pop\n        /* \"#utility.yul\":11408:11409   */\n      0x00\n        /* \"#utility.yul\":11383:11399   */\n      dup3\n      dup3\n      add\n        /* \"#utility.yul\":11401:11405   */\n      0x20\n        /* \"#utility.yul\":11379:11406   */\n      swap1\n      dup2\n      add\n        /* \"#utility.yul\":11372:11410   */\n      swap2\n      swap1\n      swap2\n      mstore\n        /* \"#utility.yul\":11464:11466   */\n      0x1f\n        /* \"#utility.yul\":11443:11458   */\n      swap1\n      swap2\n      add\n      not(0x1f)\n        /* \"#utility.yul\":11439:11468   */\n      and\n        /* \"#utility.yul\":11430:11469   */\n      swap1\n      swap2\n      add\n        /* \"#utility.yul\":11426:11476   */\n      add\n      swap1\n        /* \"#utility.yul\":11216:11482   */\n      jump\t// out\n        /* \"#utility.yul\":11487:11813   */\n    tag_258:\n        /* \"#utility.yul\":11682:11688   */\n      0xffff\n        /* \"#utility.yul\":11674:11680   */\n      dup5\n        /* \"#utility.yul\":11670:11689   */\n      and\n        /* \"#utility.yul\":11659:11668   */\n      dup2\n        /* \"#utility.yul\":11652:11690   */\n      mstore\n        /* \"#utility.yul\":11726:11728   */\n      0x40\n        /* \"#utility.yul\":11721:11723   */\n      0x20\n        /* \"#utility.yul\":11710:11719   */\n      dup3\n        /* \"#utility.yul\":11706:11724   */\n      add\n        /* \"#utility.yul\":11699:11729   */\n      mstore\n        /* \"#utility.yul\":11633:11637   */\n      0x00\n        /* \"#utility.yul\":11746:11807   */\n      tag_386\n        /* \"#utility.yul\":11803:11805   */\n      0x40\n        /* \"#utility.yul\":11792:11801   */\n      dup4\n        /* \"#utility.yul\":11788:11806   */\n      add\n        /* \"#utility.yul\":11780:11786   */\n      dup5\n        /* \"#utility.yul\":11772:11778   */\n      dup7\n        /* \"#utility.yul\":11746:11807   */\n      tag_474\n      jump\t// in\n        /* \"#utility.yul\":12281:12825   */\n    tag_476:\n        /* \"#utility.yul\":12382:12384   */\n      0x1f\n        /* \"#utility.yul\":12377:12380   */\n      dup3\n        /* \"#utility.yul\":12374:12385   */\n      gt\n        /* \"#utility.yul\":12371:12819   */\n      iszero\n      tag_461\n      jumpi\n        /* \"#utility.yul\":12418:12419   */\n      0x00\n        /* \"#utility.yul\":12443:12448   */\n      dup2\n        /* \"#utility.yul\":12439:12441   */\n      dup2\n        /* \"#utility.yul\":12432:12449   */\n      mstore\n        /* \"#utility.yul\":12488:12492   */\n      0x20\n        /* \"#utility.yul\":12484:12486   */\n      dup2\n        /* \"#utility.yul\":12474:12493   */\n      keccak256\n        /* \"#utility.yul\":12558:12560   */\n      0x1f\n        /* \"#utility.yul\":12546:12556   */\n      dup6\n        /* \"#utility.yul\":12542:12561   */\n      add\n        /* \"#utility.yul\":12539:12540   */\n      0x05\n        /* \"#utility.yul\":12535:12562   */\n      shr\n        /* \"#utility.yul\":12529:12533   */\n      dup2\n        /* \"#utility.yul\":12525:12563   */\n      add\n        /* \"#utility.yul\":12594:12598   */\n      0x20\n        /* \"#utility.yul\":12582:12592   */\n      dup7\n        /* \"#utility.yul\":12579:12599   */\n      lt\n        /* \"#utility.yul\":12576:12623   */\n      iszero\n      tag_594\n      jumpi\n      pop\n        /* \"#utility.yul\":12617:12621   */\n      dup1\n        /* \"#utility.yul\":12576:12623   */\n    tag_594:\n        /* \"#utility.yul\":12672:12674   */\n      0x1f\n        /* \"#utility.yul\":12667:12670   */\n      dup6\n        /* \"#utility.yul\":12663:12675   */\n      add\n        /* \"#utility.yul\":12660:12661   */\n      0x05\n        /* \"#utility.yul\":12656:12676   */\n      shr\n        /* \"#utility.yul\":12650:12654   */\n      dup3\n        /* \"#utility.yul\":12646:12677   */\n      add\n        /* \"#utility.yul\":12636:12677   */\n      swap2\n      pop\n        /* \"#utility.yul\":12727:12809   */\n    tag_595:\n        /* \"#utility.yul\":12745:12747   */\n      dup2\n        /* \"#utility.yul\":12738:12743   */\n      dup2\n        /* \"#utility.yul\":12735:12748   */\n      lt\n        /* \"#utility.yul\":12727:12809   */\n      iszero\n      tag_288\n      jumpi\n        /* \"#utility.yul\":12790:12807   */\n      dup3\n      dup2\n      sstore\n        /* \"#utility.yul\":12771:12772   */\n      0x01\n        /* \"#utility.yul\":12760:12773   */\n      add\n        /* \"#utility.yul\":12727:12809   */\n      jump(tag_595)\n        /* \"#utility.yul\":13001:14349   */\n    tag_268:\n        /* \"#utility.yul\":13125:13128   */\n      dup2\n        /* \"#utility.yul\":13119:13129   */\n      mload\n      sub(shl(0x40, 0x01), 0x01)\n        /* \"#utility.yul\":13144:13150   */\n      dup2\n        /* \"#utility.yul\":13141:13171   */\n      gt\n        /* \"#utility.yul\":13138:13194   */\n      iszero\n      tag_601\n      jumpi\n        /* \"#utility.yul\":13174:13192   */\n      tag_601\n      tag_451\n      jump\t// in\n    tag_601:\n        /* \"#utility.yul\":13203:13299   */\n      tag_602\n        /* \"#utility.yul\":13292:13298   */\n      dup2\n        /* \"#utility.yul\":13252:13290   */\n      tag_603\n        /* \"#utility.yul\":13284:13288   */\n      dup5\n        /* \"#utility.yul\":13278:13289   */\n      sload\n        /* \"#utility.yul\":13252:13290   */\n      tag_215\n      jump\t// in\n    tag_603:\n        /* \"#utility.yul\":13246:13250   */\n      dup5\n        /* \"#utility.yul\":13203:13299   */\n      tag_476\n      jump\t// in\n    tag_602:\n        /* \"#utility.yul\":13354:13358   */\n      0x20\n      dup1\n        /* \"#utility.yul\":13418:13420   */\n      0x1f\n        /* \"#utility.yul\":13407:13421   */\n      dup4\n      gt\n        /* \"#utility.yul\":13435:13436   */\n      0x01\n        /* \"#utility.yul\":13430:14092   */\n      dup2\n      eq\n      tag_605\n      jumpi\n        /* \"#utility.yul\":14136:14137   */\n      0x00\n        /* \"#utility.yul\":14153:14159   */\n      dup5\n        /* \"#utility.yul\":14150:14239   */\n      iszero\n      tag_606\n      jumpi\n      pop\n        /* \"#utility.yul\":14205:14224   */\n      dup6\n      dup4\n      add\n        /* \"#utility.yul\":14199:14225   */\n      mload\n        /* \"#utility.yul\":14150:14239   */\n    tag_606:\n      not(0x00)\n        /* \"#utility.yul\":12958:12959   */\n      0x03\n        /* \"#utility.yul\":12954:12965   */\n      dup7\n      swap1\n      shl\n        /* \"#utility.yul\":12950:12974   */\n      shr\n        /* \"#utility.yul\":12946:12975   */\n      not\n        /* \"#utility.yul\":12936:12976   */\n      and\n        /* \"#utility.yul\":12982:12983   */\n      0x01\n        /* \"#utility.yul\":12978:12989   */\n      dup6\n      swap1\n      shl\n        /* \"#utility.yul\":12933:12990   */\n      or\n        /* \"#utility.yul\":14252:14333   */\n      dup6\n      sstore\n        /* \"#utility.yul\":13400:14343   */\n      jump(tag_288)\n        /* \"#utility.yul\":13430:14092   */\n    tag_605:\n        /* \"#utility.yul\":12228:12229   */\n      0x00\n        /* \"#utility.yul\":12221:12235   */\n      dup6\n      dup2\n      mstore\n        /* \"#utility.yul\":12265:12269   */\n      0x20\n        /* \"#utility.yul\":12252:12270   */\n      dup2\n      keccak256\n      not(0x1f)\n        /* \"#utility.yul\":13466:13486   */\n      dup7\n      and\n      swap2\n        /* \"#utility.yul\":13583:13819   */\n    tag_609:\n        /* \"#utility.yul\":13597:13604   */\n      dup3\n        /* \"#utility.yul\":13594:13595   */\n      dup2\n        /* \"#utility.yul\":13591:13605   */\n      lt\n        /* \"#utility.yul\":13583:13819   */\n      iszero\n      tag_611\n      jumpi\n        /* \"#utility.yul\":13686:13705   */\n      dup9\n      dup7\n      add\n        /* \"#utility.yul\":13680:13706   */\n      mload\n        /* \"#utility.yul\":13665:13707   */\n      dup3\n      sstore\n        /* \"#utility.yul\":13778:13805   */\n      swap5\n      dup5\n      add\n      swap5\n        /* \"#utility.yul\":13746:13747   */\n      0x01\n        /* \"#utility.yul\":13734:13748   */\n      swap1\n      swap2\n      add\n      swap1\n        /* \"#utility.yul\":13613:13632   */\n      dup5\n      add\n        /* \"#utility.yul\":13583:13819   */\n      jump(tag_609)\n    tag_611:\n        /* \"#utility.yul\":13587:13590   */\n      pop\n        /* \"#utility.yul\":13847:13853   */\n      dup6\n        /* \"#utility.yul\":13838:13845   */\n      dup3\n        /* \"#utility.yul\":13835:13854   */\n      lt\n        /* \"#utility.yul\":13832:14033   */\n      iszero\n      tag_612\n      jumpi\n        /* \"#utility.yul\":13908:13927   */\n      dup8\n      dup6\n      add\n        /* \"#utility.yul\":13902:13928   */\n      mload\n      not(0x00)\n        /* \"#utility.yul\":13991:13992   */\n      0x03\n        /* \"#utility.yul\":13987:14001   */\n      dup9\n      swap1\n      shl\n        /* \"#utility.yul\":14003:14006   */\n      0xf8\n        /* \"#utility.yul\":13983:14007   */\n      and\n        /* \"#utility.yul\":13979:14016   */\n      shr\n        /* \"#utility.yul\":13975:14017   */\n      not\n        /* \"#utility.yul\":13960:14018   */\n      and\n        /* \"#utility.yul\":13945:14019   */\n      dup2\n      sstore\n        /* \"#utility.yul\":13832:14033   */\n    tag_612:\n      pop\n      pop\n      pop\n      pop\n      pop\n        /* \"#utility.yul\":14079:14080   */\n      0x01\n        /* \"#utility.yul\":14063:14077   */\n      swap1\n      dup2\n      shl\n        /* \"#utility.yul\":14059:14081   */\n      add\n        /* \"#utility.yul\":14046:14082   */\n      swap1\n      sstore\n      pop\n        /* \"#utility.yul\":13001:14349   */\n      jump\t// out\n        /* \"#utility.yul\":15222:15349   */\n    tag_478:\n        /* \"#utility.yul\":15283:15293   */\n      0x4e487b71\n        /* \"#utility.yul\":15278:15281   */\n      0xe0\n        /* \"#utility.yul\":15274:15294   */\n      shl\n        /* \"#utility.yul\":15271:15272   */\n      0x00\n        /* \"#utility.yul\":15264:15295   */\n      mstore\n        /* \"#utility.yul\":15314:15318   */\n      0x11\n        /* \"#utility.yul\":15311:15312   */\n      0x04\n        /* \"#utility.yul\":15304:15319   */\n      mstore\n        /* \"#utility.yul\":15338:15342   */\n      0x24\n        /* \"#utility.yul\":15335:15336   */\n      0x00\n        /* \"#utility.yul\":15328:15343   */\n      revert\n        /* \"#utility.yul\":15354:15489   */\n    tag_282:\n        /* \"#utility.yul\":15393:15396   */\n      0x00\n        /* \"#utility.yul\":15414:15431   */\n      0x01\n      dup3\n      add\n        /* \"#utility.yul\":15411:15454   */\n      tag_619\n      jumpi\n        /* \"#utility.yul\":15434:15452   */\n      tag_619\n      tag_478\n      jump\t// in\n    tag_619:\n      pop\n        /* \"#utility.yul\":15481:15482   */\n      0x01\n        /* \"#utility.yul\":15470:15483   */\n      add\n      swap1\n        /* \"#utility.yul\":15354:15489   */\n      jump\t// out\n        /* \"#utility.yul\":15901:16592   */\n    tag_293:\n        /* \"#utility.yul\":16192:16198   */\n      0xffff\n        /* \"#utility.yul\":16184:16190   */\n      dup8\n        /* \"#utility.yul\":16180:16199   */\n      and\n        /* \"#utility.yul\":16169:16178   */\n      dup2\n        /* \"#utility.yul\":16162:16200   */\n      mstore\n      sub(shl(0xa0, 0x01), 0x01)\n        /* \"#utility.yul\":16240:16246   */\n      dup7\n        /* \"#utility.yul\":16236:16291   */\n      and\n        /* \"#utility.yul\":16231:16233   */\n      0x20\n        /* \"#utility.yul\":16220:16229   */\n      dup3\n        /* \"#utility.yul\":16216:16234   */\n      add\n        /* \"#utility.yul\":16209:16292   */\n      mstore\n        /* \"#utility.yul\":16328:16331   */\n      0xa0\n        /* \"#utility.yul\":16323:16325   */\n      0x40\n        /* \"#utility.yul\":16312:16321   */\n      dup3\n        /* \"#utility.yul\":16308:16326   */\n      add\n        /* \"#utility.yul\":16301:16332   */\n      mstore\n        /* \"#utility.yul\":16143:16147   */\n      0x00\n        /* \"#utility.yul\":16355:16401   */\n      tag_622\n        /* \"#utility.yul\":16396:16399   */\n      0xa0\n        /* \"#utility.yul\":16385:16394   */\n      dup4\n        /* \"#utility.yul\":16381:16400   */\n      add\n        /* \"#utility.yul\":16373:16379   */\n      dup8\n        /* \"#utility.yul\":16355:16401   */\n      tag_473\n      jump\t// in\n    tag_622:\n        /* \"#utility.yul\":16451:16457   */\n      dup6\n        /* \"#utility.yul\":16444:16458   */\n      iszero\n        /* \"#utility.yul\":16437:16459   */\n      iszero\n        /* \"#utility.yul\":16432:16434   */\n      0x60\n        /* \"#utility.yul\":16421:16430   */\n      dup5\n        /* \"#utility.yul\":16417:16435   */\n      add\n        /* \"#utility.yul\":16410:16460   */\n      mstore\n        /* \"#utility.yul\":16509:16518   */\n      dup3\n        /* \"#utility.yul\":16501:16507   */\n      dup2\n        /* \"#utility.yul\":16497:16519   */\n      sub\n        /* \"#utility.yul\":16491:16494   */\n      0x80\n        /* \"#utility.yul\":16480:16489   */\n      dup5\n        /* \"#utility.yul\":16476:16495   */\n      add\n        /* \"#utility.yul\":16469:16520   */\n      mstore\n        /* \"#utility.yul\":16537:16586   */\n      tag_623\n        /* \"#utility.yul\":16579:16585   */\n      dup2\n        /* \"#utility.yul\":16571:16577   */\n      dup6\n        /* \"#utility.yul\":16563:16569   */\n      dup8\n        /* \"#utility.yul\":16537:16586   */\n      tag_474\n      jump\t// in\n    tag_623:\n        /* \"#utility.yul\":16529:16586   */\n      swap10\n        /* \"#utility.yul\":15901:16592   */\n      swap9\n      pop\n      pop\n      pop\n      pop\n      pop\n      pop\n      pop\n      pop\n      pop\n      jump\t// out\n        /* \"#utility.yul\":16597:16842   */\n    tag_297:\n        /* \"#utility.yul\":16676:16682   */\n      0x00\n        /* \"#utility.yul\":16684:16690   */\n      dup1\n        /* \"#utility.yul\":16737:16739   */\n      0x40\n        /* \"#utility.yul\":16725:16734   */\n      dup4\n        /* \"#utility.yul\":16716:16723   */\n      dup6\n        /* \"#utility.yul\":16712:16735   */\n      sub\n        /* \"#utility.yul\":16708:16740   */\n      slt\n        /* \"#utility.yul\":16705:16757   */\n      iszero\n      tag_625\n      jumpi\n        /* \"#utility.yul\":16753:16754   */\n      0x00\n        /* \"#utility.yul\":16750:16751   */\n      dup1\n        /* \"#utility.yul\":16743:16755   */\n      revert\n        /* \"#utility.yul\":16705:16757   */\n    tag_625:\n      pop\n      pop\n        /* \"#utility.yul\":16776:16792   */\n      dup1\n      mload\n        /* \"#utility.yul\":16832:16834   */\n      0x20\n        /* \"#utility.yul\":16817:16835   */\n      swap1\n      swap2\n      add\n        /* \"#utility.yul\":16811:16836   */\n      mload\n        /* \"#utility.yul\":16776:16792   */\n      swap1\n      swap3\n        /* \"#utility.yul\":16811:16836   */\n      swap1\n      swap2\n      pop\n        /* \"#utility.yul\":16597:16842   */\n      jump\t// out\n        /* \"#utility.yul\":17205:17333   */\n    tag_325:\n        /* \"#utility.yul\":17272:17281   */\n      dup2\n      dup2\n      sub\n        /* \"#utility.yul\":17293:17304   */\n      dup2\n      dup2\n      gt\n        /* \"#utility.yul\":17290:17327   */\n      iszero\n      tag_629\n      jumpi\n        /* \"#utility.yul\":17307:17325   */\n      tag_629\n      tag_478\n      jump\t// in\n    tag_629:\n        /* \"#utility.yul\":17205:17333   */\n      swap3\n      swap2\n      pop\n      pop\n      jump\t// out\n        /* \"#utility.yul\":17338:17698   */\n    tag_331:\n        /* \"#utility.yul\":17549:17555   */\n      dup3\n        /* \"#utility.yul\":17541:17547   */\n      dup5\n        /* \"#utility.yul\":17536:17539   */\n      dup3\n        /* \"#utility.yul\":17523:17556   */\n      calldatacopy\n        /* \"#utility.yul\":17619:17621   */\n      0x60\n        /* \"#utility.yul\":17615:17630   */\n      swap2\n      swap1\n      swap2\n      shl\n      not(0xffffffffffffffffffffffff)\n        /* \"#utility.yul\":17611:17664   */\n      and\n        /* \"#utility.yul\":17575:17591   */\n      swap2\n      add\n        /* \"#utility.yul\":17600:17665   */\n      swap1\n      dup2\n      mstore\n        /* \"#utility.yul\":17689:17691   */\n      0x14\n        /* \"#utility.yul\":17681:17692   */\n      add\n      swap2\n        /* \"#utility.yul\":17338:17698   */\n      swap1\n      pop\n      jump\t// out\n        /* \"#utility.yul\":17703:18201   */\n    tag_343:\n        /* \"#utility.yul\":17903:17907   */\n      0x00\n        /* \"#utility.yul\":17932:17938   */\n      0xffff\n        /* \"#utility.yul\":17977:17979   */\n      dup1\n        /* \"#utility.yul\":17969:17975   */\n      dup9\n        /* \"#utility.yul\":17965:17980   */\n      and\n        /* \"#utility.yul\":17954:17963   */\n      dup4\n        /* \"#utility.yul\":17947:17981   */\n      mstore\n        /* \"#utility.yul\":18029:18031   */\n      dup1\n        /* \"#utility.yul\":18021:18027   */\n      dup8\n        /* \"#utility.yul\":18017:18032   */\n      and\n        /* \"#utility.yul\":18012:18014   */\n      0x20\n        /* \"#utility.yul\":18001:18010   */\n      dup5\n        /* \"#utility.yul\":17997:18015   */\n      add\n        /* \"#utility.yul\":17990:18033   */\n      mstore\n      pop\n        /* \"#utility.yul\":18069:18075   */\n      dup5\n        /* \"#utility.yul\":18064:18066   */\n      0x40\n        /* \"#utility.yul\":18053:18062   */\n      dup4\n        /* \"#utility.yul\":18049:18067   */\n      add\n        /* \"#utility.yul\":18042:18076   */\n      mstore\n        /* \"#utility.yul\":18112:18115   */\n      0x80\n        /* \"#utility.yul\":18107:18109   */\n      0x60\n        /* \"#utility.yul\":18096:18105   */\n      dup4\n        /* \"#utility.yul\":18092:18110   */\n      add\n        /* \"#utility.yul\":18085:18116   */\n      mstore\n        /* \"#utility.yul\":18133:18195   */\n      tag_632\n        /* \"#utility.yul\":18190:18193   */\n      0x80\n        /* \"#utility.yul\":18179:18188   */\n      dup4\n        /* \"#utility.yul\":18175:18194   */\n      add\n        /* \"#utility.yul\":18167:18173   */\n      dup5\n        /* \"#utility.yul\":18159:18165   */\n      dup7\n        /* \"#utility.yul\":18133:18195   */\n      tag_474\n      jump\t// in\n    tag_632:\n        /* \"#utility.yul\":18125:18195   */\n      swap8\n        /* \"#utility.yul\":17703:18201   */\n      swap7\n      pop\n      pop\n      pop\n      pop\n      pop\n      pop\n      pop\n      jump\t// out\n        /* \"#utility.yul\":19012:19505   */\n    tag_359:\n        /* \"#utility.yul\":19261:19267   */\n      0xffff\n        /* \"#utility.yul\":19253:19259   */\n      dup7\n        /* \"#utility.yul\":19249:19268   */\n      and\n        /* \"#utility.yul\":19238:19247   */\n      dup2\n        /* \"#utility.yul\":19231:19269   */\n      mstore\n        /* \"#utility.yul\":19305:19308   */\n      0x80\n        /* \"#utility.yul\":19300:19302   */\n      0x20\n        /* \"#utility.yul\":19289:19298   */\n      dup3\n        /* \"#utility.yul\":19285:19303   */\n      add\n        /* \"#utility.yul\":19278:19309   */\n      mstore\n        /* \"#utility.yul\":19212:19216   */\n      0x00\n        /* \"#utility.yul\":19326:19388   */\n      tag_636\n        /* \"#utility.yul\":19383:19386   */\n      0x80\n        /* \"#utility.yul\":19372:19381   */\n      dup4\n        /* \"#utility.yul\":19368:19387   */\n      add\n        /* \"#utility.yul\":19360:19366   */\n      dup7\n        /* \"#utility.yul\":19352:19358   */\n      dup9\n        /* \"#utility.yul\":19326:19388   */\n      tag_474\n      jump\t// in\n    tag_636:\n      sub(shl(0x40, 0x01), 0x01)\n        /* \"#utility.yul\":19424:19455   */\n      swap5\n      swap1\n      swap5\n      and\n        /* \"#utility.yul\":19419:19421   */\n      0x40\n        /* \"#utility.yul\":19404:19422   */\n      dup4\n      add\n        /* \"#utility.yul\":19397:19456   */\n      mstore\n      pop\n        /* \"#utility.yul\":19487:19489   */\n      0x60\n        /* \"#utility.yul\":19472:19490   */\n      add\n        /* \"#utility.yul\":19465:19499   */\n      mstore\n        /* \"#utility.yul\":19318:19388   */\n      swap4\n        /* \"#utility.yul\":19012:19505   */\n      swap3\n      pop\n      pop\n      pop\n      jump\t// out\n        /* \"#utility.yul\":20223:21425   */\n    tag_372:\n      sub(shl(0x40, 0x01), 0x01)\n        /* \"#utility.yul\":20340:20343   */\n      dup4\n        /* \"#utility.yul\":20337:20364   */\n      gt\n        /* \"#utility.yul\":20334:20387   */\n      iszero\n      tag_641\n      jumpi\n        /* \"#utility.yul\":20367:20385   */\n      tag_641\n      tag_451\n      jump\t// in\n    tag_641:\n        /* \"#utility.yul\":20396:20489   */\n      tag_642\n        /* \"#utility.yul\":20485:20488   */\n      dup4\n        /* \"#utility.yul\":20445:20483   */\n      tag_643\n        /* \"#utility.yul\":20477:20481   */\n      dup4\n        /* \"#utility.yul\":20471:20482   */\n      sload\n        /* \"#utility.yul\":20445:20483   */\n      tag_215\n      jump\t// in\n    tag_643:\n        /* \"#utility.yul\":20439:20443   */\n      dup4\n        /* \"#utility.yul\":20396:20489   */\n      tag_476\n      jump\t// in\n    tag_642:\n        /* \"#utility.yul\":20515:20516   */\n      0x00\n        /* \"#utility.yul\":20540:20542   */\n      0x1f\n        /* \"#utility.yul\":20535:20538   */\n      dup5\n        /* \"#utility.yul\":20532:20543   */\n      gt\n        /* \"#utility.yul\":20557:20558   */\n      0x01\n        /* \"#utility.yul\":20552:21167   */\n      dup2\n      eq\n      tag_645\n      jumpi\n        /* \"#utility.yul\":21211:21212   */\n      0x00\n        /* \"#utility.yul\":21228:21231   */\n      dup6\n        /* \"#utility.yul\":21225:21318   */\n      iszero\n      tag_646\n      jumpi\n      pop\n        /* \"#utility.yul\":21284:21303   */\n      dup4\n      dup3\n      add\n        /* \"#utility.yul\":21271:21304   */\n      calldataload\n        /* \"#utility.yul\":21225:21318   */\n    tag_646:\n      not(0x00)\n        /* \"#utility.yul\":12958:12959   */\n      0x03\n        /* \"#utility.yul\":12954:12965   */\n      dup8\n      swap1\n      shl\n        /* \"#utility.yul\":12950:12974   */\n      shr\n        /* \"#utility.yul\":12946:12975   */\n      not\n        /* \"#utility.yul\":12936:12976   */\n      and\n        /* \"#utility.yul\":12982:12983   */\n      0x01\n        /* \"#utility.yul\":12978:12989   */\n      dup7\n      swap1\n      shl\n        /* \"#utility.yul\":12933:12990   */\n      or\n        /* \"#utility.yul\":21331:21409   */\n      dup4\n      sstore\n        /* \"#utility.yul\":20525:21419   */\n      jump(tag_236)\n        /* \"#utility.yul\":20552:21167   */\n    tag_645:\n        /* \"#utility.yul\":12228:12229   */\n      0x00\n        /* \"#utility.yul\":12221:12235   */\n      dup4\n      dup2\n      mstore\n        /* \"#utility.yul\":12265:12269   */\n      0x20\n        /* \"#utility.yul\":12252:12270   */\n      swap1\n      keccak256\n      not(0x1f)\n        /* \"#utility.yul\":20588:20605   */\n      dup7\n      and\n      swap1\n        /* \"#utility.yul\":20688:20697   */\n      dup4\n        /* \"#utility.yul\":20710:20939   */\n    tag_649:\n        /* \"#utility.yul\":20724:20731   */\n      dup3\n        /* \"#utility.yul\":20721:20722   */\n      dup2\n        /* \"#utility.yul\":20718:20732   */\n      lt\n        /* \"#utility.yul\":20710:20939   */\n      iszero\n      tag_651\n      jumpi\n        /* \"#utility.yul\":20813:20832   */\n      dup7\n      dup6\n      add\n        /* \"#utility.yul\":20800:20833   */\n      calldataload\n        /* \"#utility.yul\":20785:20834   */\n      dup3\n      sstore\n        /* \"#utility.yul\":20920:20924   */\n      0x20\n        /* \"#utility.yul\":20905:20925   */\n      swap5\n      dup6\n      add\n      swap5\n        /* \"#utility.yul\":20873:20874   */\n      0x01\n        /* \"#utility.yul\":20861:20875   */\n      swap1\n      swap3\n      add\n      swap2\n        /* \"#utility.yul\":20740:20752   */\n      add\n        /* \"#utility.yul\":20710:20939   */\n      jump(tag_649)\n    tag_651:\n        /* \"#utility.yul\":20714:20717   */\n      pop\n        /* \"#utility.yul\":20967:20970   */\n      dup7\n        /* \"#utility.yul\":20958:20965   */\n      dup3\n        /* \"#utility.yul\":20955:20971   */\n      lt\n        /* \"#utility.yul\":20952:21111   */\n      iszero\n      tag_652\n      jumpi\n        /* \"#utility.yul\":21091:21092   */\n      0x00\n        /* \"#utility.yul\":21087:21093   */\n      not\n        /* \"#utility.yul\":21081:21084   */\n      0xf8\n        /* \"#utility.yul\":21075:21078   */\n      dup9\n        /* \"#utility.yul\":21072:21073   */\n      0x03\n        /* \"#utility.yul\":21068:21079   */\n      shl\n        /* \"#utility.yul\":21064:21085   */\n      and\n        /* \"#utility.yul\":21060:21094   */\n      shr\n        /* \"#utility.yul\":21056:21095   */\n      not\n        /* \"#utility.yul\":21043:21052   */\n      dup5\n        /* \"#utility.yul\":21038:21041   */\n      dup8\n        /* \"#utility.yul\":21034:21053   */\n      add\n        /* \"#utility.yul\":21021:21054   */\n      calldataload\n        /* \"#utility.yul\":21017:21096   */\n      and\n        /* \"#utility.yul\":21009:21015   */\n      dup2\n        /* \"#utility.yul\":21002:21097   */\n      sstore\n        /* \"#utility.yul\":20952:21111   */\n    tag_652:\n      pop\n      pop\n        /* \"#utility.yul\":21154:21155   */\n      0x01\n        /* \"#utility.yul\":21148:21151   */\n      dup6\n        /* \"#utility.yul\":21145:21146   */\n      0x01\n        /* \"#utility.yul\":21141:21152   */\n      shl\n        /* \"#utility.yul\":21137:21156   */\n      add\n        /* \"#utility.yul\":21131:21135   */\n      dup4\n        /* \"#utility.yul\":21124:21157   */\n      sstore\n        /* \"#utility.yul\":20525:21419   */\n      pop\n      pop\n        /* \"#utility.yul\":20223:21425   */\n      pop\n      pop\n      pop\n      jump\t// out\n        /* \"#utility.yul\":22321:22641   */\n    tag_479:\n        /* \"#utility.yul\":22396:22401   */\n      0x00\n        /* \"#utility.yul\":22425:22477   */\n      tag_656\n        /* \"#utility.yul\":22441:22476   */\n      tag_519\n        /* \"#utility.yul\":22469:22475   */\n      dup5\n        /* \"#utility.yul\":22441:22476   */\n      tag_468\n      jump\t// in\n        /* \"#utility.yul\":22425:22477   */\n    tag_656:\n        /* \"#utility.yul\":22416:22477   */\n      swap1\n      pop\n        /* \"#utility.yul\":22500:22506   */\n      dup3\n        /* \"#utility.yul\":22493:22498   */\n      dup2\n        /* \"#utility.yul\":22486:22507   */\n      mstore\n        /* \"#utility.yul\":22540:22543   */\n      dup4\n        /* \"#utility.yul\":22531:22537   */\n      dup4\n        /* \"#utility.yul\":22526:22529   */\n      dup4\n        /* \"#utility.yul\":22522:22538   */\n      add\n        /* \"#utility.yul\":22519:22544   */\n      gt\n        /* \"#utility.yul\":22516:22561   */\n      iszero\n      tag_658\n      jumpi\n        /* \"#utility.yul\":22557:22558   */\n      0x00\n        /* \"#utility.yul\":22554:22555   */\n      dup1\n        /* \"#utility.yul\":22547:22559   */\n      revert\n        /* \"#utility.yul\":22516:22561   */\n    tag_658:\n        /* \"#utility.yul\":22570:22635   */\n      tag_247\n        /* \"#utility.yul\":22628:22634   */\n      dup4\n        /* \"#utility.yul\":22621:22625   */\n      0x20\n        /* \"#utility.yul\":22614:22619   */\n      dup4\n        /* \"#utility.yul\":22610:22626   */\n      add\n        /* \"#utility.yul\":22605:22608   */\n      dup5\n        /* \"#utility.yul\":22570:22635   */\n      tag_472\n      jump\t// in\n        /* \"#utility.yul\":22646:23103   */\n    tag_387:\n        /* \"#utility.yul\":22725:22731   */\n      0x00\n        /* \"#utility.yul\":22778:22780   */\n      0x20\n        /* \"#utility.yul\":22766:22775   */\n      dup3\n        /* \"#utility.yul\":22757:22764   */\n      dup5\n        /* \"#utility.yul\":22753:22776   */\n      sub\n        /* \"#utility.yul\":22749:22781   */\n      slt\n        /* \"#utility.yul\":22746:22798   */\n      iszero\n      tag_661\n      jumpi\n        /* \"#utility.yul\":22794:22795   */\n      0x00\n        /* \"#utility.yul\":22791:22792   */\n      dup1\n        /* \"#utility.yul\":22784:22796   */\n      revert\n        /* \"#utility.yul\":22746:22798   */\n    tag_661:\n        /* \"#utility.yul\":22827:22836   */\n      dup2\n        /* \"#utility.yul\":22821:22837   */\n      mload\n      sub(shl(0x40, 0x01), 0x01)\n        /* \"#utility.yul\":22852:22858   */\n      dup2\n        /* \"#utility.yul\":22849:22879   */\n      gt\n        /* \"#utility.yul\":22846:22896   */\n      iszero\n      tag_662\n      jumpi\n        /* \"#utility.yul\":22892:22893   */\n      0x00\n        /* \"#utility.yul\":22889:22890   */\n      dup1\n        /* \"#utility.yul\":22882:22894   */\n      revert\n        /* \"#utility.yul\":22846:22896   */\n    tag_662:\n        /* \"#utility.yul\":22915:22937   */\n      dup3\n      add\n        /* \"#utility.yul\":22968:22972   */\n      0x1f\n        /* \"#utility.yul\":22960:22973   */\n      dup2\n      add\n        /* \"#utility.yul\":22956:22983   */\n      dup5\n      sgt\n        /* \"#utility.yul\":22946:23001   */\n      tag_663\n      jumpi\n        /* \"#utility.yul\":22997:22998   */\n      0x00\n        /* \"#utility.yul\":22994:22995   */\n      dup1\n        /* \"#utility.yul\":22987:22999   */\n      revert\n        /* \"#utility.yul\":22946:23001   */\n    tag_663:\n        /* \"#utility.yul\":23020:23097   */\n      tag_540\n        /* \"#utility.yul\":23089:23096   */\n      dup5\n        /* \"#utility.yul\":23084:23086   */\n      dup3\n        /* \"#utility.yul\":23078:23087   */\n      mload\n        /* \"#utility.yul\":23073:23075   */\n      0x20\n        /* \"#utility.yul\":23069:23071   */\n      dup5\n        /* \"#utility.yul\":23065:23076   */\n      add\n        /* \"#utility.yul\":23020:23097   */\n      tag_479\n      jump\t// in\n        /* \"#utility.yul\":23108:23665   */\n    tag_392:\n        /* \"#utility.yul\":23365:23371   */\n      0xffff\n        /* \"#utility.yul\":23357:23363   */\n      dup6\n        /* \"#utility.yul\":23353:23372   */\n      and\n        /* \"#utility.yul\":23342:23351   */\n      dup2\n        /* \"#utility.yul\":23335:23373   */\n      mstore\n        /* \"#utility.yul\":23409:23412   */\n      0x80\n        /* \"#utility.yul\":23404:23406   */\n      0x20\n        /* \"#utility.yul\":23393:23402   */\n      dup3\n        /* \"#utility.yul\":23389:23407   */\n      add\n        /* \"#utility.yul\":23382:23413   */\n      mstore\n        /* \"#utility.yul\":23316:23320   */\n      0x00\n        /* \"#utility.yul\":23436:23482   */\n      tag_666\n        /* \"#utility.yul\":23477:23480   */\n      0x80\n        /* \"#utility.yul\":23466:23475   */\n      dup4\n        /* \"#utility.yul\":23462:23481   */\n      add\n        /* \"#utility.yul\":23454:23460   */\n      dup7\n        /* \"#utility.yul\":23436:23482   */\n      tag_473\n      jump\t// in\n    tag_666:\n      sub(shl(0x40, 0x01), 0x01)\n        /* \"#utility.yul\":23522:23528   */\n      dup6\n        /* \"#utility.yul\":23518:23549   */\n      and\n        /* \"#utility.yul\":23513:23515   */\n      0x40\n        /* \"#utility.yul\":23502:23511   */\n      dup5\n        /* \"#utility.yul\":23498:23516   */\n      add\n        /* \"#utility.yul\":23491:23550   */\n      mstore\n        /* \"#utility.yul\":23598:23607   */\n      dup3\n        /* \"#utility.yul\":23590:23596   */\n      dup2\n        /* \"#utility.yul\":23586:23608   */\n      sub\n        /* \"#utility.yul\":23581:23583   */\n      0x60\n        /* \"#utility.yul\":23570:23579   */\n      dup5\n        /* \"#utility.yul\":23566:23584   */\n      add\n        /* \"#utility.yul\":23559:23609   */\n      mstore\n        /* \"#utility.yul\":23626:23659   */\n      tag_632\n        /* \"#utility.yul\":23652:23658   */\n      dup2\n        /* \"#utility.yul\":23644:23650   */\n      dup6\n        /* \"#utility.yul\":23626:23659   */\n      tag_473\n      jump\t// in\n        /* \"#utility.yul\":24448:25311   */\n    tag_415:\n        /* \"#utility.yul\":24797:24803   */\n      0xffff\n        /* \"#utility.yul\":24789:24795   */\n      dup8\n        /* \"#utility.yul\":24785:24804   */\n      and\n        /* \"#utility.yul\":24774:24783   */\n      dup2\n        /* \"#utility.yul\":24767:24805   */\n      mstore\n        /* \"#utility.yul\":24841:24844   */\n      0xc0\n        /* \"#utility.yul\":24836:24838   */\n      0x20\n        /* \"#utility.yul\":24825:24834   */\n      dup3\n        /* \"#utility.yul\":24821:24839   */\n      add\n        /* \"#utility.yul\":24814:24845   */\n      mstore\n        /* \"#utility.yul\":24748:24752   */\n      0x00\n        /* \"#utility.yul\":24868:24914   */\n      tag_671\n        /* \"#utility.yul\":24909:24912   */\n      0xc0\n        /* \"#utility.yul\":24898:24907   */\n      dup4\n        /* \"#utility.yul\":24894:24913   */\n      add\n        /* \"#utility.yul\":24886:24892   */\n      dup9\n        /* \"#utility.yul\":24868:24914   */\n      tag_473\n      jump\t// in\n    tag_671:\n        /* \"#utility.yul\":24962:24971   */\n      dup3\n        /* \"#utility.yul\":24954:24960   */\n      dup2\n        /* \"#utility.yul\":24950:24972   */\n      sub\n        /* \"#utility.yul\":24945:24947   */\n      0x40\n        /* \"#utility.yul\":24934:24943   */\n      dup5\n        /* \"#utility.yul\":24930:24948   */\n      add\n        /* \"#utility.yul\":24923:24973   */\n      mstore\n        /* \"#utility.yul\":24996:25029   */\n      tag_672\n        /* \"#utility.yul\":25022:25028   */\n      dup2\n        /* \"#utility.yul\":25014:25020   */\n      dup9\n        /* \"#utility.yul\":24996:25029   */\n      tag_473\n      jump\t// in\n    tag_672:\n      sub(shl(0xa0, 0x01), 0x01)\n        /* \"#utility.yul\":25126:25141   */\n      dup8\n      dup2\n      and\n        /* \"#utility.yul\":25121:25123   */\n      0x60\n        /* \"#utility.yul\":25106:25124   */\n      dup7\n      add\n        /* \"#utility.yul\":25099:25142   */\n      mstore\n        /* \"#utility.yul\":25179:25194   */\n      dup7\n      and\n        /* \"#utility.yul\":25173:25176   */\n      0x80\n        /* \"#utility.yul\":25158:25177   */\n      dup6\n      add\n        /* \"#utility.yul\":25151:25195   */\n      mstore\n        /* \"#utility.yul\":25232:25254   */\n      dup4\n      dup2\n      sub\n        /* \"#utility.yul\":25226:25229   */\n      0xa0\n        /* \"#utility.yul\":25211:25230   */\n      dup6\n      add\n        /* \"#utility.yul\":25204:25255   */\n      mstore\n        /* \"#utility.yul\":24982:25029   */\n      swap1\n      pop\n        /* \"#utility.yul\":25272:25305   */\n      tag_623\n        /* \"#utility.yul\":24982:25029   */\n      dup2\n        /* \"#utility.yul\":25290:25296   */\n      dup6\n        /* \"#utility.yul\":25272:25305   */\n      tag_473\n      jump\t// in\n        /* \"#utility.yul\":27328:27453   */\n    tag_435:\n        /* \"#utility.yul\":27393:27402   */\n      dup1\n      dup3\n      add\n        /* \"#utility.yul\":27414:27424   */\n      dup1\n      dup3\n      gt\n        /* \"#utility.yul\":27411:27447   */\n      iszero\n      tag_629\n      jumpi\n        /* \"#utility.yul\":27427:27445   */\n      tag_629\n      tag_478\n      jump\t// in\n        /* \"#utility.yul\":28147:28434   */\n    tag_456:\n        /* \"#utility.yul\":28276:28279   */\n      0x00\n        /* \"#utility.yul\":28314:28320   */\n      dup3\n        /* \"#utility.yul\":28308:28321   */\n      mload\n        /* \"#utility.yul\":28330:28396   */\n      tag_700\n        /* \"#utility.yul\":28389:28395   */\n      dup2\n        /* \"#utility.yul\":28384:28387   */\n      dup5\n        /* \"#utility.yul\":28377:28381   */\n      0x20\n        /* \"#utility.yul\":28369:28375   */\n      dup8\n        /* \"#utility.yul\":28365:28382   */\n      add\n        /* \"#utility.yul\":28330:28396   */\n      tag_472\n      jump\t// in\n    tag_700:\n        /* \"#utility.yul\":28412:28428   */\n      swap2\n      swap1\n      swap2\n      add\n      swap3\n        /* \"#utility.yul\":28147:28434   */\n      swap2\n      pop\n      pop\n      jump\t// out\n        /* \"#utility.yul\":28439:29158   */\n    tag_458:\n        /* \"#utility.yul\":28742:28748   */\n      0xffff\n        /* \"#utility.yul\":28734:28740   */\n      dup7\n        /* \"#utility.yul\":28730:28749   */\n      and\n        /* \"#utility.yul\":28719:28728   */\n      dup2\n        /* \"#utility.yul\":28712:28750   */\n      mstore\n        /* \"#utility.yul\":28786:28789   */\n      0xa0\n        /* \"#utility.yul\":28781:28783   */\n      0x20\n        /* \"#utility.yul\":28770:28779   */\n      dup3\n        /* \"#utility.yul\":28766:28784   */\n      add\n        /* \"#utility.yul\":28759:28790   */\n      mstore\n        /* \"#utility.yul\":28693:28697   */\n      0x00\n        /* \"#utility.yul\":28813:28859   */\n      tag_702\n        /* \"#utility.yul\":28854:28857   */\n      0xa0\n        /* \"#utility.yul\":28843:28852   */\n      dup4\n        /* \"#utility.yul\":28839:28858   */\n      add\n        /* \"#utility.yul\":28831:28837   */\n      dup8\n        /* \"#utility.yul\":28813:28859   */\n      tag_473\n      jump\t// in\n    tag_702:\n      sub(shl(0x40, 0x01), 0x01)\n        /* \"#utility.yul\":28899:28905   */\n      dup7\n        /* \"#utility.yul\":28895:28926   */\n      and\n        /* \"#utility.yul\":28890:28892   */\n      0x40\n        /* \"#utility.yul\":28879:28888   */\n      dup5\n        /* \"#utility.yul\":28875:28893   */\n      add\n        /* \"#utility.yul\":28868:28927   */\n      mstore\n        /* \"#utility.yul\":28975:28984   */\n      dup3\n        /* \"#utility.yul\":28967:28973   */\n      dup2\n        /* \"#utility.yul\":28963:28985   */\n      sub\n        /* \"#utility.yul\":28958:28960   */\n      0x60\n        /* \"#utility.yul\":28947:28956   */\n      dup5\n        /* \"#utility.yul\":28943:28961   */\n      add\n        /* \"#utility.yul\":28936:28986   */\n      mstore\n        /* \"#utility.yul\":29009:29042   */\n      tag_703\n        /* \"#utility.yul\":29035:29041   */\n      dup2\n        /* \"#utility.yul\":29027:29033   */\n      dup7\n        /* \"#utility.yul\":29009:29042   */\n      tag_473\n      jump\t// in\n    tag_703:\n        /* \"#utility.yul\":28995:29042   */\n      swap1\n      pop\n        /* \"#utility.yul\":29091:29100   */\n      dup3\n        /* \"#utility.yul\":29083:29089   */\n      dup2\n        /* \"#utility.yul\":29079:29101   */\n      sub\n        /* \"#utility.yul\":29073:29076   */\n      0x80\n        /* \"#utility.yul\":29062:29071   */\n      dup5\n        /* \"#utility.yul\":29058:29077   */\n      add\n        /* \"#utility.yul\":29051:29102   */\n      mstore\n        /* \"#utility.yul\":29119:29152   */\n      tag_704\n        /* \"#utility.yul\":29145:29151   */\n      dup2\n        /* \"#utility.yul\":29137:29143   */\n      dup6\n        /* \"#utility.yul\":29119:29152   */\n      tag_473\n      jump\t// in\n    tag_704:\n        /* \"#utility.yul\":29111:29152   */\n      swap9\n        /* \"#utility.yul\":28439:29158   */\n      swap8\n      pop\n      pop\n      pop\n      pop\n      pop\n      pop\n      pop\n      pop\n      jump\t// out\n\n    auxdata: 0xa2646970667358221220b99e60c6bef9d1f879622adb2bfd49ab2b8b8a461a438c3148f7eb18c380b4a364736f6c63430008120033\n}\n",
				"bytecode": {
					"linkReferences": {},
					"object": "60e0604052601460a09081527f4e6f7468696e672072656365697665642079657400000000000000000000000060c0526006906200003e9082620001af565b503480156200004c57600080fd5b5060405162002b1638038062002b168339810160408190526200006f916200027b565b81806200007c33620000ba565b6001600160a01b03908116608052600780549490911662010000026001600160b01b031990941661ffff9093169290921792909217905550620002cb565b600080546001600160a01b038381166001600160a01b0319831681178455604051919092169283917f8be0079c531659141344cd1fd0a4f28419497f9722a3daafe3b4186f6b6457e09190a35050565b634e487b7160e01b600052604160045260246000fd5b600181811c908216806200013557607f821691505b6020821081036200015657634e487b7160e01b600052602260045260246000fd5b50919050565b601f821115620001aa57600081815260208120601f850160051c81016020861015620001855750805b601f850160051c820191505b81811015620001a65782815560010162000191565b5050505b505050565b81516001600160401b03811115620001cb57620001cb6200010a565b620001e381620001dc845462000120565b846200015c565b602080601f8311600181146200021b5760008415620002025750858301515b600019600386901b1c1916600185901b178555620001a6565b600085815260208120601f198616915b828110156200024c578886015182559484019460019091019084016200022b565b50858210156200026b5787850151600019600388901b60f8161c191681555b5050505050600190811b01905550565b600080604083850312156200028f57600080fd5b82516001600160a01b0381168114620002a757600080fd5b602084015190925061ffff81168114620002c057600080fd5b809150509250929050565b6080516127f76200031f6000396000818161057b015281816106dd0152818161092c015281816109d401528181610af701528181610e2a01528181611186015281816115d0015261184c01526127f76000f3fe6080604052600436106101fc5760003560e01c80638cfd8f5c1161010d578063c4461834116100a0578063ded994301161006f578063ded9943014610634578063df2a5b3b1461065a578063eb8d72b71461067a578063f2fde38b1461069a578063f5ecbdbc146106ba57600080fd5b8063c4461834146105bd578063c4af1c0b146105d3578063cbed8b9c14610601578063d1deba1f1461062157600080fd5b8063a6c3d165116100dc578063a6c3d16514610529578063ac3791e314610549578063b353aaa714610569578063baf3292d1461059d57600080fd5b80638cfd8f5c1461047f5780638da5cb5b146104b7578063950c8a74146104e95780639f38369a1461050957600080fd5b80635b8c41e61161019057806366ad5c8a1161015f57806366ad5c8a146103d3578063696d39bb146103f3578063715018a61461042857806373d4a13a1461043d5780637533d7881461045f57600080fd5b80635b8c41e61461033b5780635cdf16491461038a57806361bc221a146103aa57806366792ba1146103c057600080fd5b80633d8b38f6116101cc5780633d8b38f61461028a5780633f1f4fa4146102bf57806342d65a8d146102fa578063586441011461031a57600080fd5b80621d35671461020857806307e0db171461022a5780630df374831461024a57806310ddb1371461026a57600080fd5b3661020357005b600080fd5b34801561021457600080fd5b50610228610223366004611d9d565b6106da565b005b34801561023657600080fd5b50610228610245366004611e30565b61090b565b34801561025657600080fd5b50610228610265366004611e4b565b610994565b34801561027657600080fd5b50610228610285366004611e30565b6109b3565b34801561029657600080fd5b506102aa6102a5366004611e75565b610a0b565b60405190151581526020015b60405180910390f35b3480156102cb57600080fd5b506102ec6102da366004611e30565b60036020526000908152604090205481565b6040519081526020016102b6565b34801561030657600080fd5b50610228610315366004611e75565b610ad8565b34801561032657600080fd5b506007546102aa90600160b01b900460ff1681565b34801561034757600080fd5b506102ec610356366004611f72565b6005602090815260009384526040808520845180860184018051928152908401958401959095209452929052825290205481565b34801561039657600080fd5b506102286103a5366004611ffa565b610b5e565b3480156103b657600080fd5b506102ec60085481565b6102286103ce366004612035565b610bc0565b3480156103df57600080fd5b506102286103ee366004611d9d565b610d11565b3480156103ff57600080fd5b5061041361040e366004612071565b610ded565b604080519283526020830191909152016102b6565b34801561043457600080fd5b50610228610eb8565b34801561044957600080fd5b50610452610ecc565b6040516102b6919061213a565b34801561046b57600080fd5b5061045261047a366004611e30565b610f5a565b34801561048b57600080fd5b506102ec61049a36600461214d565b600260209081526000928352604080842090915290825290205481565b3480156104c357600080fd5b506000546001600160a01b03165b6040516001600160a01b0390911681526020016102b6565b3480156104f557600080fd5b506004546104d1906001600160a01b031681565b34801561051557600080fd5b50610452610524366004611e30565b610f73565b34801561053557600080fd5b50610228610544366004611e75565b611082565b34801561055557600080fd5b50600754600160b01b900460ff16156102aa565b34801561057557600080fd5b506104d17f000000000000000000000000000000000000000000000000000000000000000081565b3480156105a957600080fd5b506102286105b8366004611ffa565b61110b565b3480156105c957600080fd5b506102ec61271081565b3480156105df57600080fd5b506007546105ee9061ffff1681565b60405161ffff90911681526020016102b6565b34801561060d57600080fd5b5061022861061c366004612180565b611167565b61022861062f366004611d9d565b6111fc565b34801561064057600080fd5b506007546104d1906201000090046001600160a01b031681565b34801561066657600080fd5b506102286106753660046121ee565b611412565b34801561068657600080fd5b50610228610695366004611e75565b6114cc565b3480156106a657600080fd5b506102286106b5366004611ffa565b611526565b3480156106c657600080fd5b506104526106d536600461222a565b61159f565b337f00000000000000000000000000000000000000000000000000000000000000006001600160a01b0316146107575760405162461bcd60e51b815260206004820152601e60248201527f4c7a4170703a20696e76616c696420656e64706f696e742063616c6c6572000060448201526064015b60405180910390fd5b61ffff86166000908152600160205260408120805461077590612275565b80601f01602080910402602001604051908101604052809291908181526020018280546107a190612275565b80156107ee5780601f106107c3576101008083540402835291602001916107ee565b820191906000526020600020905b8154815290600101906020018083116107d157829003601f168201915b50505050509050805186869050148015610809575060008151115b801561083157508051602082012060405161082790889088906122af565b6040518091039020145b61088c5760405162461bcd60e51b815260206004820152602660248201527f4c7a4170703a20696e76616c696420736f757263652073656e64696e6720636f6044820152651b9d1c9858dd60d21b606482015260840161074e565b6109028787878080601f01602080910402602001604051908101604052809392919081815260200183838082843760009201919091525050604080516020601f8a018190048102820181019092528881528a93509150889088908190840183828082843760009201919091525061165092505050565b50505050505050565b6109136116c9565b6040516307e0db1760e01b815261ffff821660048201527f00000000000000000000000000000000000000000000000000000000000000006001600160a01b0316906307e0db17906024015b600060405180830381600087803b15801561097957600080fd5b505af115801561098d573d6000803e3d6000fd5b5050505050565b61099c6116c9565b61ffff909116600090815260036020526040902055565b6109bb6116c9565b6040516310ddb13760e01b815261ffff821660048201527f00000000000000000000000000000000000000000000000000000000000000006001600160a01b0316906310ddb1379060240161095f565b61ffff831660009081526001602052604081208054829190610a2c90612275565b80601f0160208091040260200160405190810160405280929190818152602001828054610a5890612275565b8015610aa55780601f10610a7a57610100808354040283529160200191610aa5565b820191906000526020600020905b815481529060010190602001808311610a8857829003601f168201915b505050505090508383604051610abc9291906122af565b60405180910390208180519060200120149150505b9392505050565b610ae06116c9565b6040516342d65a8d60e01b81526001600160a01b037f000000000000000000000000000000000000000000000000000000000000000016906342d65a8d90610b30908690869086906004016122e8565b600060405180830381600087803b158015610b4a57600080fd5b505af1158015610902573d6000803e3d6000fd5b610b666116c9565b6040516bffffffffffffffffffffffff19606083811b8216602084015230901b16603482015260480160408051601f1981840301815291815260075461ffff16600090815260016020522090610bbc908261234c565b5050565b600754600160b01b900460ff1615610c105760405162461bcd60e51b81526020600482015260136024820152726177616974696e67206c7a206d65737361676560681b604482015260640161074e565b6040514781527fe8d947d7ebdd7b8b8fa2ad2022c7591418ac32d8c29c5f8a8fc9de52ffa540929060200160405180910390a1600081604051602001610c56919061213a565b60408051601f198184030181529082905230825291507f1f9c75914c5f19dbd88fea3650adc0d96ce1acba5863d8a8cb9c5dbf194f8f689060200160405180910390a1604051600160f01b6020820152623567e06022820181905260019160009060420160408051601f198184030181529190526007805460ff60b01b198116600160b01b17909155909150610cf59061ffff16853060008547611723565b60088054906000610d0583612421565b91905055505050505050565b333014610d6f5760405162461bcd60e51b815260206004820152602660248201527f4e6f6e626c6f636b696e674c7a4170703a2063616c6c6572206d7573742062656044820152650204c7a4170760d41b606482015260840161074e565b610de58686868080601f01602080910402602001604051908101604052809392919081815260200183838082843760009201919091525050604080516020601f8901819004810282018101909252878152899350915087908790819084018382808284376000920191909152506118c892505050565b505050505050565b600080600083604051602001610e03919061213a565b60408051601f198184030181529082905263040a7bb160e41b825291506001600160a01b037f000000000000000000000000000000000000000000000000000000000000000016906340a7bb1090610e6a908a90309086906000908d908d9060040161243a565b6040805180830381865afa158015610e86573d6000803e3d6000fd5b505050506040513d601f19601f82011682018060405250810190610eaa919061248e565b925092505094509492505050565b610ec06116c9565b610eca6000611a2d565b565b60068054610ed990612275565b80601f0160208091040260200160405190810160405280929190818152602001828054610f0590612275565b8015610f525780601f10610f2757610100808354040283529160200191610f52565b820191906000526020600020905b815481529060010190602001808311610f3557829003601f168201915b505050505081565b60016020526000908152604090208054610ed990612275565b61ffff8116600090815260016020526040812080546060929190610f9690612275565b80601f0160208091040260200160405190810160405280929190818152602001828054610fc290612275565b801561100f5780601f10610fe45761010080835404028352916020019161100f565b820191906000526020600020905b815481529060010190602001808311610ff257829003601f168201915b5050505050905080516000036110675760405162461bcd60e51b815260206004820152601d60248201527f4c7a4170703a206e6f20747275737465642070617468207265636f7264000000604482015260640161074e565b610ad160006014835161107a91906124b2565b839190611a7d565b61108a6116c9565b81813060405160200161109f939291906124cb565b60408051601f1981840301815291815261ffff85166000908152600160205220906110ca908261234c565b507f8c0400cfe2d1199b1a725c78960bcc2a344d869b80590d0f2bd005db15a572ce8383836040516110fe939291906122e8565b60405180910390a1505050565b6111136116c9565b600480546001600160a01b0319166001600160a01b0383169081179091556040519081527f5db758e995a17ec1ad84bdef7e8c3293a0bd6179bcce400dff5d4c3d87db726b9060200160405180910390a150565b61116f6116c9565b6040516332fb62e760e21b81526001600160a01b037f0000000000000000000000000000000000000000000000000000000000000000169063cbed8b9c906111c390889088908890889088906004016124f1565b600060405180830381600087803b1580156111dd57600080fd5b505af11580156111f1573d6000803e3d6000fd5b505050505050505050565b61ffff8616600090815260056020526040808220905161121f90889088906122af565b90815260408051602092819003830190206001600160401b0387166000908152925290205490508061129f5760405162461bcd60e51b815260206004820152602360248201527f4e6f6e626c6f636b696e674c7a4170703a206e6f2073746f726564206d65737360448201526261676560e81b606482015260840161074e565b8083836040516112b09291906122af565b60405180910390201461130f5760405162461bcd60e51b815260206004820152602160248201527f4e6f6e626c6f636b696e674c7a4170703a20696e76616c6964207061796c6f616044820152601960fa1b606482015260840161074e565b61ffff8716600090815260056020526040808220905161133290899089906122af565b90815260408051602092819003830181206001600160401b038916600090815290845282902093909355601f880182900482028301820190528682526113ca918991899089908190840183828082843760009201919091525050604080516020601f8a018190048102820181019092528881528a9350915088908890819084018382808284376000920191909152506118c892505050565b7fc264d91f3adc5588250e1551f547752ca0cfa8f6b530d243b9f9f4cab10ea8e5878787878560405161140195949392919061252a565b60405180910390a150505050505050565b61141a6116c9565b6000811161146a5760405162461bcd60e51b815260206004820152601560248201527f4c7a4170703a20696e76616c6964206d696e4761730000000000000000000000604482015260640161074e565b61ffff83811660008181526002602090815260408083209487168084529482529182902085905581519283528201929092529081018290527f9d5c7c0b934da8fefa9c7760c98383778a12dfbfc0c3b3106518f43fb9508ac0906060016110fe565b6114d46116c9565b61ffff831660009081526001602052604090206114f2828483612565565b507ffa41487ad5d6728f0b19276fa1eddc16558578f5109fc39d2dc33c3230470dab8383836040516110fe939291906122e8565b61152e6116c9565b6001600160a01b0381166115935760405162461bcd60e51b815260206004820152602660248201527f4f776e61626c653a206e6577206f776e657220697320746865207a65726f206160448201526564647265737360d01b606482015260840161074e565b61159c81611a2d565b50565b604051633d7b2f6f60e21b815261ffff808616600483015284166024820152306044820152606481018290526060907f00000000000000000000000000000000000000000000000000000000000000006001600160a01b03169063f5ecbdbc90608401600060405180830381865afa15801561161f573d6000803e3d6000fd5b505050506040513d6000823e601f3d908101601f191682016040526116479190810190612654565b95945050505050565b6000806116b35a60966366ad5c8a60e01b89898989604051602401611678949392919061269c565b60408051601f198184030181529190526020810180516001600160e01b03166001600160e01b03199093169290921790915230929190611b8a565b9150915081610de557610de58686868685611c14565b6000546001600160a01b03163314610eca5760405162461bcd60e51b815260206004820181905260248201527f4f776e61626c653a2063616c6c6572206973206e6f7420746865206f776e6572604482015260640161074e565b61ffff86166000908152600160205260408120805461174190612275565b80601f016020809104026020016040519081016040528092919081815260200182805461176d90612275565b80156117ba5780601f1061178f576101008083540402835291602001916117ba565b820191906000526020600020905b81548152906001019060200180831161179d57829003601f168201915b50505050509050805160000361182b5760405162461bcd60e51b815260206004820152603060248201527f4c7a4170703a2064657374696e6174696f6e20636861696e206973206e6f742060448201526f61207472757374656420736f7572636560801b606482015260840161074e565b611836878751611cb1565b60405162c5803160e81b81526001600160a01b037f0000000000000000000000000000000000000000000000000000000000000000169063c580310090849061188d908b9086908c908c908c908c906004016126da565b6000604051808303818588803b1580156118a657600080fd5b505af11580156118ba573d6000803e3d6000fd5b505050505050505050505050565b808060200190518101906118dc9190612654565b6006906118e9908261234c565b506040513081527f1f9c75914c5f19dbd88fea3650adc0d96ce1acba5863d8a8cb9c5dbf194f8f689060200160405180910390a160075460405161ffff90911681527ff944a0b4d5e7e9c3aba164318fe6c3fccde3d2ab58373b1e3c465581db7fd8239060200160405180910390a1600060405180604001604052806009815260200168149154d413d391115160ba1b8152509050600081604051602001611991919061213a565b60408051808303601f19018152919052600754909150600160b01b900460ff16611a1857604051600160f01b6020820152623567e06022820181905260019160009060420160408051601f198184030181529190526007549091506119ff9061ffff16853060008547611723565b60088054906000611a0f83612421565b91905055505050505b50506007805460ff60b01b1916905550505050565b600080546001600160a01b038381166001600160a01b0319831681178455604051919092169283917f8be0079c531659141344cd1fd0a4f28419497f9722a3daafe3b4186f6b6457e09190a35050565b606081611a8b81601f612734565b1015611aca5760405162461bcd60e51b815260206004820152600e60248201526d736c6963655f6f766572666c6f7760901b604482015260640161074e565b611ad48284612734565b84511015611b185760405162461bcd60e51b8152602060048201526011602482015270736c6963655f6f75744f66426f756e647360781b604482015260640161074e565b606082158015611b375760405191506000825260208201604052611b81565b6040519150601f8416801560200281840101858101878315602002848b0101015b81831015611b70578051835260209283019201611b58565b5050858452601f01601f1916604052505b50949350505050565b6000606060008060008661ffff166001600160401b03811115611baf57611baf611ec7565b6040519080825280601f01601f191660200182016040528015611bd9576020820181803683370190505b50905060008087516020890160008d8df191503d925086831115611bfb578692505b828152826000602083013e909890975095505050505050565b8180519060200120600560008761ffff1661ffff16815260200190815260200160002085604051611c459190612747565b9081526040805191829003602090810183206001600160401b0388166000908152915220919091557fe183f33de2837795525b4792ca4cd60535bd77c53b7e7030060bfcf5734d6b0c90611ca29087908790879087908790612763565b60405180910390a15050505050565b61ffff821660009081526003602052604081205490819003611cd257506127105b80821115611d225760405162461bcd60e51b815260206004820181905260248201527f4c7a4170703a207061796c6f61642073697a6520697320746f6f206c61726765604482015260640161074e565b505050565b803561ffff81168114611d3957600080fd5b919050565b60008083601f840112611d5057600080fd5b5081356001600160401b03811115611d6757600080fd5b602083019150836020828501011115611d7f57600080fd5b9250929050565b80356001600160401b0381168114611d3957600080fd5b60008060008060008060808789031215611db657600080fd5b611dbf87611d27565b955060208701356001600160401b0380821115611ddb57600080fd5b611de78a838b01611d3e565b9097509550859150611dfb60408a01611d86565b94506060890135915080821115611e1157600080fd5b50611e1e89828a01611d3e565b979a9699509497509295939492505050565b600060208284031215611e4257600080fd5b610ad182611d27565b60008060408385031215611e5e57600080fd5b611e6783611d27565b946020939093013593505050565b600080600060408486031215611e8a57600080fd5b611e9384611d27565b925060208401356001600160401b03811115611eae57600080fd5b611eba86828701611d3e565b9497909650939450505050565b634e487b7160e01b600052604160045260246000fd5b604051601f8201601f191681016001600160401b0381118282101715611f0557611f05611ec7565b604052919050565b60006001600160401b03821115611f2657611f26611ec7565b50601f01601f191660200190565b6000611f47611f4284611f0d565b611edd565b9050828152838383011115611f5b57600080fd5b828260208301376000602084830101529392505050565b600080600060608486031215611f8757600080fd5b611f9084611d27565b925060208401356001600160401b03811115611fab57600080fd5b8401601f81018613611fbc57600080fd5b611fcb86823560208401611f34565b925050611fda60408501611d86565b90509250925092565b80356001600160a01b0381168114611d3957600080fd5b60006020828403121561200c57600080fd5b610ad182611fe3565b600082601f83011261202657600080fd5b610ad183833560208501611f34565b60006020828403121561204757600080fd5b81356001600160401b0381111561205d57600080fd5b61206984828501612015565b949350505050565b6000806000806060858703121561208757600080fd5b61209085611d27565b935060208501356001600160401b03808211156120ac57600080fd5b6120b888838901611d3e565b909550935060408701359150808211156120d157600080fd5b506120de87828801612015565b91505092959194509250565b60005b838110156121055781810151838201526020016120ed565b50506000910152565b600081518084526121268160208601602086016120ea565b601f01601f19169290920160200192915050565b602081526000610ad1602083018461210e565b6000806040838503121561216057600080fd5b61216983611d27565b915061217760208401611d27565b90509250929050565b60008060008060006080868803121561219857600080fd5b6121a186611d27565b94506121af60208701611d27565b93506040860135925060608601356001600160401b038111156121d157600080fd5b6121dd88828901611d3e565b969995985093965092949392505050565b60008060006060848603121561220357600080fd5b61220c84611d27565b925061221a60208501611d27565b9150604084013590509250925092565b6000806000806080858703121561224057600080fd5b61224985611d27565b935061225760208601611d27565b925061226560408601611fe3565b9396929550929360600135925050565b600181811c9082168061228957607f821691505b6020821081036122a957634e487b7160e01b600052602260045260246000fd5b50919050565b8183823760009101908152919050565b81835281816020850137506000828201602090810191909152601f909101601f19169091010190565b61ffff841681526040602082015260006116476040830184866122bf565b601f821115611d2257600081815260208120601f850160051c8101602086101561232d5750805b601f850160051c820191505b81811015610de557828155600101612339565b81516001600160401b0381111561236557612365611ec7565b612379816123738454612275565b84612306565b602080601f8311600181146123ae57600084156123965750858301515b600019600386901b1c1916600185901b178555610de5565b600085815260208120601f198616915b828110156123dd578886015182559484019460019091019084016123be565b50858210156123fb5787850151600019600388901b60f8161c191681555b5050505050600190811b01905550565b634e487b7160e01b600052601160045260246000fd5b6000600182016124335761243361240b565b5060010190565b61ffff871681526001600160a01b038616602082015260a06040820152600061246660a083018761210e565b851515606084015282810360808401526124818185876122bf565b9998505050505050505050565b600080604083850312156124a157600080fd5b505080516020909101519092909150565b818103818111156124c5576124c561240b565b92915050565b8284823760609190911b6bffffffffffffffffffffffff19169101908152601401919050565b600061ffff80881683528087166020840152508460408301526080606083015261251f6080830184866122bf565b979650505050505050565b61ffff861681526080602082015260006125486080830186886122bf565b6001600160401b0394909416604083015250606001529392505050565b6001600160401b0383111561257c5761257c611ec7565b6125908361258a8354612275565b83612306565b6000601f8411600181146125c457600085156125ac5750838201355b600019600387901b1c1916600186901b17835561098d565b600083815260209020601f19861690835b828110156125f557868501358255602094850194600190920191016125d5565b50868210156126125760001960f88860031b161c19848701351681555b505060018560011b0183555050505050565b6000612632611f4284611f0d565b905082815283838301111561264657600080fd5b610ad18360208301846120ea565b60006020828403121561266657600080fd5b81516001600160401b0381111561267c57600080fd5b8201601f8101841361268d57600080fd5b61206984825160208401612624565b61ffff851681526080602082015260006126b9608083018661210e565b6001600160401b0385166040840152828103606084015261251f818561210e565b61ffff8716815260c0602082015260006126f760c083018861210e565b8281036040840152612709818861210e565b6001600160a01b0387811660608601528616608085015283810360a08501529050612481818561210e565b808201808211156124c5576124c561240b565b600082516127598184602087016120ea565b9190910192915050565b61ffff8616815260a06020820152600061278060a083018761210e565b6001600160401b038616604084015282810360608401526127a1818661210e565b905082810360808401526127b5818561210e565b9897505050505050505056fea2646970667358221220b99e60c6bef9d1f879622adb2bfd49ab2b8b8a461a438c3148f7eb18c380b4a364736f6c63430008120033",
					"opcodes": "PUSH1 0xE0 PUSH1 0x40 MSTORE PUSH1 0x14 PUSH1 0xA0 SWAP1 DUP2 MSTORE PUSH32 0x4E6F7468696E6720726563656976656420796574000000000000000000000000 PUSH1 0xC0 MSTORE PUSH1 0x6 SWAP1 PUSH3 0x3E SWAP1 DUP3 PUSH3 0x1AF JUMP JUMPDEST POP CALLVALUE DUP1 ISZERO PUSH3 0x4C JUMPI PUSH1 0x0 DUP1 REVERT JUMPDEST POP PUSH1 0x40 MLOAD PUSH3 0x2B16 CODESIZE SUB DUP1 PUSH3 0x2B16 DUP4 CODECOPY DUP2 ADD PUSH1 0x40 DUP2 SWAP1 MSTORE PUSH3 0x6F SWAP2 PUSH3 0x27B JUMP JUMPDEST DUP2 DUP1 PUSH3 0x7C CALLER PUSH3 0xBA JUMP JUMPDEST PUSH1 0x1 PUSH1 0x1 PUSH1 0xA0 SHL SUB SWAP1 DUP2 AND PUSH1 0x80 MSTORE PUSH1 0x7 DUP1 SLOAD SWAP5 SWAP1 SWAP2 AND PUSH3 0x10000 MUL PUSH1 0x1 PUSH1 0x1 PUSH1 0xB0 SHL SUB NOT SWAP1 SWAP5 AND PUSH2 0xFFFF SWAP1 SWAP4 AND SWAP3 SWAP1 SWAP3 OR SWAP3 SWAP1 SWAP3 OR SWAP1 SSTORE POP PUSH3 0x2CB JUMP JUMPDEST PUSH1 0x0 DUP1 SLOAD PUSH1 0x1 PUSH1 0x1 PUSH1 0xA0 SHL SUB DUP4 DUP2 AND PUSH1 0x1 PUSH1 0x1 PUSH1 0xA0 SHL SUB NOT DUP4 AND DUP2 OR DUP5 SSTORE PUSH1 0x40 MLOAD SWAP2 SWAP1 SWAP3 AND SWAP3 DUP4 SWAP2 PUSH32 0x8BE0079C531659141344CD1FD0A4F28419497F9722A3DAAFE3B4186F6B6457E0 SWAP2 SWAP1 LOG3 POP POP JUMP JUMPDEST PUSH4 0x4E487B71 PUSH1 0xE0 SHL PUSH1 0x0 MSTORE PUSH1 0x41 PUSH1 0x4 MSTORE PUSH1 0x24 PUSH1 0x0 REVERT JUMPDEST PUSH1 0x1 DUP2 DUP2 SHR SWAP1 DUP3 AND DUP1 PUSH3 0x135 JUMPI PUSH1 0x7F DUP3 AND SWAP2 POP JUMPDEST PUSH1 0x20 DUP3 LT DUP2 SUB PUSH3 0x156 JUMPI PUSH4 0x4E487B71 PUSH1 0xE0 SHL PUSH1 0x0 MSTORE PUSH1 0x22 PUSH1 0x4 MSTORE PUSH1 0x24 PUSH1 0x0 REVERT JUMPDEST POP SWAP2 SWAP1 POP JUMP JUMPDEST PUSH1 0x1F DUP3 GT ISZERO PUSH3 0x1AA JUMPI PUSH1 0x0 DUP2 DUP2 MSTORE PUSH1 0x20 DUP2 KECCAK256 PUSH1 0x1F DUP6 ADD PUSH1 0x5 SHR DUP2 ADD PUSH1 0x20 DUP7 LT ISZERO PUSH3 0x185 JUMPI POP DUP1 JUMPDEST PUSH1 0x1F DUP6 ADD PUSH1 0x5 SHR DUP3 ADD SWAP2 POP JUMPDEST DUP2 DUP2 LT ISZERO PUSH3 0x1A6 JUMPI DUP3 DUP2 SSTORE PUSH1 0x1 ADD PUSH3 0x191 JUMP JUMPDEST POP POP POP JUMPDEST POP POP POP JUMP JUMPDEST DUP2 MLOAD PUSH1 0x1 PUSH1 0x1 PUSH1 0x40 SHL SUB DUP2 GT ISZERO PUSH3 0x1CB JUMPI PUSH3 0x1CB PUSH3 0x10A JUMP JUMPDEST PUSH3 0x1E3 DUP2 PUSH3 0x1DC DUP5 SLOAD PUSH3 0x120 JUMP JUMPDEST DUP5 PUSH3 0x15C JUMP JUMPDEST PUSH1 0x20 DUP1 PUSH1 0x1F DUP4 GT PUSH1 0x1 DUP2 EQ PUSH3 0x21B JUMPI PUSH1 0x0 DUP5 ISZERO PUSH3 0x202 JUMPI POP DUP6 DUP4 ADD MLOAD JUMPDEST PUSH1 0x0 NOT PUSH1 0x3 DUP7 SWAP1 SHL SHR NOT AND PUSH1 0x1 DUP6 SWAP1 SHL OR DUP6 SSTORE PUSH3 0x1A6 JUMP JUMPDEST PUSH1 0x0 DUP6 DUP2 MSTORE PUSH1 0x20 DUP2 KECCAK256 PUSH1 0x1F NOT DUP7 AND SWAP2 JUMPDEST DUP3 DUP2 LT ISZERO PUSH3 0x24C JUMPI DUP9 DUP7 ADD MLOAD DUP3 SSTORE SWAP5 DUP5 ADD SWAP5 PUSH1 0x1 SWAP1 SWAP2 ADD SWAP1 DUP5 ADD PUSH3 0x22B JUMP JUMPDEST POP DUP6 DUP3 LT ISZERO PUSH3 0x26B JUMPI DUP8 DUP6 ADD MLOAD PUSH1 0x0 NOT PUSH1 0x3 DUP9 SWAP1 SHL PUSH1 0xF8 AND SHR NOT AND DUP2 SSTORE JUMPDEST POP POP POP POP POP PUSH1 0x1 SWAP1 DUP2 SHL ADD SWAP1 SSTORE POP JUMP JUMPDEST PUSH1 0x0 DUP1 PUSH1 0x40 DUP4 DUP6 SUB SLT ISZERO PUSH3 0x28F JUMPI PUSH1 0x0 DUP1 REVERT JUMPDEST DUP3 MLOAD PUSH1 0x1 PUSH1 0x1 PUSH1 0xA0 SHL SUB DUP2 AND DUP2 EQ PUSH3 0x2A7 JUMPI PUSH1 0x0 DUP1 REVERT JUMPDEST PUSH1 0x20 DUP5 ADD MLOAD SWAP1 SWAP3 POP PUSH2 0xFFFF DUP2 AND DUP2 EQ PUSH3 0x2C0 JUMPI PUSH1 0x0 DUP1 REVERT JUMPDEST DUP1 SWAP2 POP POP SWAP3 POP SWAP3 SWAP1 POP JUMP JUMPDEST PUSH1 0x80 MLOAD PUSH2 0x27F7 PUSH3 0x31F PUSH1 0x0 CODECOPY PUSH1 0x0 DUP2 DUP2 PUSH2 0x57B ADD MSTORE DUP2 DUP2 PUSH2 0x6DD ADD MSTORE DUP2 DUP2 PUSH2 0x92C ADD MSTORE DUP2 DUP2 PUSH2 0x9D4 ADD MSTORE DUP2 DUP2 PUSH2 0xAF7 ADD MSTORE DUP2 DUP2 PUSH2 0xE2A ADD MSTORE DUP2 DUP2 PUSH2 0x1186 ADD MSTORE DUP2 DUP2 PUSH2 0x15D0 ADD MSTORE PUSH2 0x184C ADD MSTORE PUSH2 0x27F7 PUSH1 0x0 RETURN INVALID PUSH1 0x80 PUSH1 0x40 MSTORE PUSH1 0x4 CALLDATASIZE LT PUSH2 0x1FC JUMPI PUSH1 0x0 CALLDATALOAD PUSH1 0xE0 SHR DUP1 PUSH4 0x8CFD8F5C GT PUSH2 0x10D JUMPI DUP1 PUSH4 0xC4461834 GT PUSH2 0xA0 JUMPI DUP1 PUSH4 0xDED99430 GT PUSH2 0x6F JUMPI DUP1 PUSH4 0xDED99430 EQ PUSH2 0x634 JUMPI DUP1 PUSH4 0xDF2A5B3B EQ PUSH2 0x65A JUMPI DUP1 PUSH4 0xEB8D72B7 EQ PUSH2 0x67A JUMPI DUP1 PUSH4 0xF2FDE38B EQ PUSH2 0x69A JUMPI DUP1 PUSH4 0xF5ECBDBC EQ PUSH2 0x6BA JUMPI PUSH1 0x0 DUP1 REVERT JUMPDEST DUP1 PUSH4 0xC4461834 EQ PUSH2 0x5BD JUMPI DUP1 PUSH4 0xC4AF1C0B EQ PUSH2 0x5D3 JUMPI DUP1 PUSH4 0xCBED8B9C EQ PUSH2 0x601 JUMPI DUP1 PUSH4 0xD1DEBA1F EQ PUSH2 0x621 JUMPI PUSH1 0x0 DUP1 REVERT JUMPDEST DUP1 PUSH4 0xA6C3D165 GT PUSH2 0xDC JUMPI DUP1 PUSH4 0xA6C3D165 EQ PUSH2 0x529 JUMPI DUP1 PUSH4 0xAC3791E3 EQ PUSH2 0x549 JUMPI DUP1 PUSH4 0xB353AAA7 EQ PUSH2 0x569 JUMPI DUP1 PUSH4 0xBAF3292D EQ PUSH2 0x59D JUMPI PUSH1 0x0 DUP1 REVERT JUMPDEST DUP1 PUSH4 0x8CFD8F5C EQ PUSH2 0x47F JUMPI DUP1 PUSH4 0x8DA5CB5B EQ PUSH2 0x4B7 JUMPI DUP1 PUSH4 0x950C8A74 EQ PUSH2 0x4E9 JUMPI DUP1 PUSH4 0x9F38369A EQ PUSH2 0x509 JUMPI PUSH1 0x0 DUP1 REVERT JUMPDEST DUP1 PUSH4 0x5B8C41E6 GT PUSH2 0x190 JUMPI DUP1 PUSH4 0x66AD5C8A GT PUSH2 0x15F JUMPI DUP1 PUSH4 0x66AD5C8A EQ PUSH2 0x3D3 JUMPI DUP1 PUSH4 0x696D39BB EQ PUSH2 0x3F3 JUMPI DUP1 PUSH4 0x715018A6 EQ PUSH2 0x428 JUMPI DUP1 PUSH4 0x73D4A13A EQ PUSH2 0x43D JUMPI DUP1 PUSH4 0x7533D788 EQ PUSH2 0x45F JUMPI PUSH1 0x0 DUP1 REVERT JUMPDEST DUP1 PUSH4 0x5B8C41E6 EQ PUSH2 0x33B JUMPI DUP1 PUSH4 0x5CDF1649 EQ PUSH2 0x38A JUMPI DUP1 PUSH4 0x61BC221A EQ PUSH2 0x3AA JUMPI DUP1 PUSH4 0x66792BA1 EQ PUSH2 0x3C0 JUMPI PUSH1 0x0 DUP1 REVERT JUMPDEST DUP1 PUSH4 0x3D8B38F6 GT PUSH2 0x1CC JUMPI DUP1 PUSH4 0x3D8B38F6 EQ PUSH2 0x28A JUMPI DUP1 PUSH4 0x3F1F4FA4 EQ PUSH2 0x2BF JUMPI DUP1 PUSH4 0x42D65A8D EQ PUSH2 0x2FA JUMPI DUP1 PUSH4 0x58644101 EQ PUSH2 0x31A JUMPI PUSH1 0x0 DUP1 REVERT JUMPDEST DUP1 PUSH3 0x1D3567 EQ PUSH2 0x208 JUMPI DUP1 PUSH4 0x7E0DB17 EQ PUSH2 0x22A JUMPI DUP1 PUSH4 0xDF37483 EQ PUSH2 0x24A JUMPI DUP1 PUSH4 0x10DDB137 EQ PUSH2 0x26A JUMPI PUSH1 0x0 DUP1 REVERT JUMPDEST CALLDATASIZE PUSH2 0x203 JUMPI STOP JUMPDEST PUSH1 0x0 DUP1 REVERT JUMPDEST CALLVALUE DUP1 ISZERO PUSH2 0x214 JUMPI PUSH1 0x0 DUP1 REVERT JUMPDEST POP PUSH2 0x228 PUSH2 0x223 CALLDATASIZE PUSH1 0x4 PUSH2 0x1D9D JUMP JUMPDEST PUSH2 0x6DA JUMP JUMPDEST STOP JUMPDEST CALLVALUE DUP1 ISZERO PUSH2 0x236 JUMPI PUSH1 0x0 DUP1 REVERT JUMPDEST POP PUSH2 0x228 PUSH2 0x245 CALLDATASIZE PUSH1 0x4 PUSH2 0x1E30 JUMP JUMPDEST PUSH2 0x90B JUMP JUMPDEST CALLVALUE DUP1 ISZERO PUSH2 0x256 JUMPI PUSH1 0x0 DUP1 REVERT JUMPDEST POP PUSH2 0x228 PUSH2 0x265 CALLDATASIZE PUSH1 0x4 PUSH2 0x1E4B JUMP JUMPDEST PUSH2 0x994 JUMP JUMPDEST CALLVALUE DUP1 ISZERO PUSH2 0x276 JUMPI PUSH1 0x0 DUP1 REVERT JUMPDEST POP PUSH2 0x228 PUSH2 0x285 CALLDATASIZE PUSH1 0x4 PUSH2 0x1E30 JUMP JUMPDEST PUSH2 0x9B3 JUMP JUMPDEST CALLVALUE DUP1 ISZERO PUSH2 0x296 JUMPI PUSH1 0x0 DUP1 REVERT JUMPDEST POP PUSH2 0x2AA PUSH2 0x2A5 CALLDATASIZE PUSH1 0x4 PUSH2 0x1E75 JUMP JUMPDEST PUSH2 0xA0B JUMP JUMPDEST PUSH1 0x40 MLOAD SWAP1 ISZERO ISZERO DUP2 MSTORE PUSH1 0x20 ADD JUMPDEST PUSH1 0x40 MLOAD DUP1 SWAP2 SUB SWAP1 RETURN JUMPDEST CALLVALUE DUP1 ISZERO PUSH2 0x2CB JUMPI PUSH1 0x0 DUP1 REVERT JUMPDEST POP PUSH2 0x2EC PUSH2 0x2DA CALLDATASIZE PUSH1 0x4 PUSH2 0x1E30 JUMP JUMPDEST PUSH1 0x3 PUSH1 0x20 MSTORE PUSH1 0x0 SWAP1 DUP2 MSTORE PUSH1 0x40 SWAP1 KECCAK256 SLOAD DUP2 JUMP JUMPDEST PUSH1 0x40 MLOAD SWAP1 DUP2 MSTORE PUSH1 0x20 ADD PUSH2 0x2B6 JUMP JUMPDEST CALLVALUE DUP1 ISZERO PUSH2 0x306 JUMPI PUSH1 0x0 DUP1 REVERT JUMPDEST POP PUSH2 0x228 PUSH2 0x315 CALLDATASIZE PUSH1 0x4 PUSH2 0x1E75 JUMP JUMPDEST PUSH2 0xAD8 JUMP JUMPDEST CALLVALUE DUP1 ISZERO PUSH2 0x326 JUMPI PUSH1 0x0 DUP1 REVERT JUMPDEST POP PUSH1 0x7 SLOAD PUSH2 0x2AA SWAP1 PUSH1 0x1 PUSH1 0xB0 SHL SWAP1 DIV PUSH1 0xFF AND DUP2 JUMP JUMPDEST CALLVALUE DUP1 ISZERO PUSH2 0x347 JUMPI PUSH1 0x0 DUP1 REVERT JUMPDEST POP PUSH2 0x2EC PUSH2 0x356 CALLDATASIZE PUSH1 0x4 PUSH2 0x1F72 JUMP JUMPDEST PUSH1 0x5 PUSH1 0x20 SWAP1 DUP2 MSTORE PUSH1 0x0 SWAP4 DUP5 MSTORE PUSH1 0x40 DUP1 DUP6 KECCAK256 DUP5 MLOAD DUP1 DUP7 ADD DUP5 ADD DUP1 MLOAD SWAP3 DUP2 MSTORE SWAP1 DUP5 ADD SWAP6 DUP5 ADD SWAP6 SWAP1 SWAP6 KECCAK256 SWAP5 MSTORE SWAP3 SWAP1 MSTORE DUP3 MSTORE SWAP1 KECCAK256 SLOAD DUP2 JUMP JUMPDEST CALLVALUE DUP1 ISZERO PUSH2 0x396 JUMPI PUSH1 0x0 DUP1 REVERT JUMPDEST POP PUSH2 0x228 PUSH2 0x3A5 CALLDATASIZE PUSH1 0x4 PUSH2 0x1FFA JUMP JUMPDEST PUSH2 0xB5E JUMP JUMPDEST CALLVALUE DUP1 ISZERO PUSH2 0x3B6 JUMPI PUSH1 0x0 DUP1 REVERT JUMPDEST POP PUSH2 0x2EC PUSH1 0x8 SLOAD DUP2 JUMP JUMPDEST PUSH2 0x228 PUSH2 0x3CE CALLDATASIZE PUSH1 0x4 PUSH2 0x2035 JUMP JUMPDEST PUSH2 0xBC0 JUMP JUMPDEST CALLVALUE DUP1 ISZERO PUSH2 0x3DF JUMPI PUSH1 0x0 DUP1 REVERT JUMPDEST POP PUSH2 0x228 PUSH2 0x3EE CALLDATASIZE PUSH1 0x4 PUSH2 0x1D9D JUMP JUMPDEST PUSH2 0xD11 JUMP JUMPDEST CALLVALUE DUP1 ISZERO PUSH2 0x3FF JUMPI PUSH1 0x0 DUP1 REVERT JUMPDEST POP PUSH2 0x413 PUSH2 0x40E CALLDATASIZE PUSH1 0x4 PUSH2 0x2071 JUMP JUMPDEST PUSH2 0xDED JUMP JUMPDEST PUSH1 0x40 DUP1 MLOAD SWAP3 DUP4 MSTORE PUSH1 0x20 DUP4 ADD SWAP2 SWAP1 SWAP2 MSTORE ADD PUSH2 0x2B6 JUMP JUMPDEST CALLVALUE DUP1 ISZERO PUSH2 0x434 JUMPI PUSH1 0x0 DUP1 REVERT JUMPDEST POP PUSH2 0x228 PUSH2 0xEB8 JUMP JUMPDEST CALLVALUE DUP1 ISZERO PUSH2 0x449 JUMPI PUSH1 0x0 DUP1 REVERT JUMPDEST POP PUSH2 0x452 PUSH2 0xECC JUMP JUMPDEST PUSH1 0x40 MLOAD PUSH2 0x2B6 SWAP2 SWAP1 PUSH2 0x213A JUMP JUMPDEST CALLVALUE DUP1 ISZERO PUSH2 0x46B JUMPI PUSH1 0x0 DUP1 REVERT JUMPDEST POP PUSH2 0x452 PUSH2 0x47A CALLDATASIZE PUSH1 0x4 PUSH2 0x1E30 JUMP JUMPDEST PUSH2 0xF5A JUMP JUMPDEST CALLVALUE DUP1 ISZERO PUSH2 0x48B JUMPI PUSH1 0x0 DUP1 REVERT JUMPDEST POP PUSH2 0x2EC PUSH2 0x49A CALLDATASIZE PUSH1 0x4 PUSH2 0x214D JUMP JUMPDEST PUSH1 0x2 PUSH1 0x20 SWAP1 DUP2 MSTORE PUSH1 0x0 SWAP3 DUP4 MSTORE PUSH1 0x40 DUP1 DUP5 KECCAK256 SWAP1 SWAP2 MSTORE SWAP1 DUP3 MSTORE SWAP1 KECCAK256 SLOAD DUP2 JUMP JUMPDEST CALLVALUE DUP1 ISZERO PUSH2 0x4C3 JUMPI PUSH1 0x0 DUP1 REVERT JUMPDEST POP PUSH1 0x0 SLOAD PUSH1 0x1 PUSH1 0x1 PUSH1 0xA0 SHL SUB AND JUMPDEST PUSH1 0x40 MLOAD PUSH1 0x1 PUSH1 0x1 PUSH1 0xA0 SHL SUB SWAP1 SWAP2 AND DUP2 MSTORE PUSH1 0x20 ADD PUSH2 0x2B6 JUMP JUMPDEST CALLVALUE DUP1 ISZERO PUSH2 0x4F5 JUMPI PUSH1 0x0 DUP1 REVERT JUMPDEST POP PUSH1 0x4 SLOAD PUSH2 0x4D1 SWAP1 PUSH1 0x1 PUSH1 0x1 PUSH1 0xA0 SHL SUB AND DUP2 JUMP JUMPDEST CALLVALUE DUP1 ISZERO PUSH2 0x515 JUMPI PUSH1 0x0 DUP1 REVERT JUMPDEST POP PUSH2 0x452 PUSH2 0x524 CALLDATASIZE PUSH1 0x4 PUSH2 0x1E30 JUMP JUMPDEST PUSH2 0xF73 JUMP JUMPDEST CALLVALUE DUP1 ISZERO PUSH2 0x535 JUMPI PUSH1 0x0 DUP1 REVERT JUMPDEST POP PUSH2 0x228 PUSH2 0x544 CALLDATASIZE PUSH1 0x4 PUSH2 0x1E75 JUMP JUMPDEST PUSH2 0x1082 JUMP JUMPDEST CALLVALUE DUP1 ISZERO PUSH2 0x555 JUMPI PUSH1 0x0 DUP1 REVERT JUMPDEST POP PUSH1 0x7 SLOAD PUSH1 0x1 PUSH1 0xB0 SHL SWAP1 DIV PUSH1 0xFF AND ISZERO PUSH2 0x2AA JUMP JUMPDEST CALLVALUE DUP1 ISZERO PUSH2 0x575 JUMPI PUSH1 0x0 DUP1 REVERT JUMPDEST POP PUSH2 0x4D1 PUSH32 0x0 DUP2 JUMP JUMPDEST CALLVALUE DUP1 ISZERO PUSH2 0x5A9 JUMPI PUSH1 0x0 DUP1 REVERT JUMPDEST POP PUSH2 0x228 PUSH2 0x5B8 CALLDATASIZE PUSH1 0x4 PUSH2 0x1FFA JUMP JUMPDEST PUSH2 0x110B JUMP JUMPDEST CALLVALUE DUP1 ISZERO PUSH2 0x5C9 JUMPI PUSH1 0x0 DUP1 REVERT JUMPDEST POP PUSH2 0x2EC PUSH2 0x2710 DUP2 JUMP JUMPDEST CALLVALUE DUP1 ISZERO PUSH2 0x5DF JUMPI PUSH1 0x0 DUP1 REVERT JUMPDEST POP PUSH1 0x7 SLOAD PUSH2 0x5EE SWAP1 PUSH2 0xFFFF AND DUP2 JUMP JUMPDEST PUSH1 0x40 MLOAD PUSH2 0xFFFF SWAP1 SWAP2 AND DUP2 MSTORE PUSH1 0x20 ADD PUSH2 0x2B6 JUMP JUMPDEST CALLVALUE DUP1 ISZERO PUSH2 0x60D JUMPI PUSH1 0x0 DUP1 REVERT JUMPDEST POP PUSH2 0x228 PUSH2 0x61C CALLDATASIZE PUSH1 0x4 PUSH2 0x2180 JUMP JUMPDEST PUSH2 0x1167 JUMP JUMPDEST PUSH2 0x228 PUSH2 0x62F CALLDATASIZE PUSH1 0x4 PUSH2 0x1D9D JUMP JUMPDEST PUSH2 0x11FC JUMP JUMPDEST CALLVALUE DUP1 ISZERO PUSH2 0x640 JUMPI PUSH1 0x0 DUP1 REVERT JUMPDEST POP PUSH1 0x7 SLOAD PUSH2 0x4D1 SWAP1 PUSH3 0x10000 SWAP1 DIV PUSH1 0x1 PUSH1 0x1 PUSH1 0xA0 SHL SUB AND DUP2 JUMP JUMPDEST CALLVALUE DUP1 ISZERO PUSH2 0x666 JUMPI PUSH1 0x0 DUP1 REVERT JUMPDEST POP PUSH2 0x228 PUSH2 0x675 CALLDATASIZE PUSH1 0x4 PUSH2 0x21EE JUMP JUMPDEST PUSH2 0x1412 JUMP JUMPDEST CALLVALUE DUP1 ISZERO PUSH2 0x686 JUMPI PUSH1 0x0 DUP1 REVERT JUMPDEST POP PUSH2 0x228 PUSH2 0x695 CALLDATASIZE PUSH1 0x4 PUSH2 0x1E75 JUMP JUMPDEST PUSH2 0x14CC JUMP JUMPDEST CALLVALUE DUP1 ISZERO PUSH2 0x6A6 JUMPI PUSH1 0x0 DUP1 REVERT JUMPDEST POP PUSH2 0x228 PUSH2 0x6B5 CALLDATASIZE PUSH1 0x4 PUSH2 0x1FFA JUMP JUMPDEST PUSH2 0x1526 JUMP JUMPDEST CALLVALUE DUP1 ISZERO PUSH2 0x6C6 JUMPI PUSH1 0x0 DUP1 REVERT JUMPDEST POP PUSH2 0x452 PUSH2 0x6D5 CALLDATASIZE PUSH1 0x4 PUSH2 0x222A JUMP JUMPDEST PUSH2 0x159F JUMP JUMPDEST CALLER PUSH32 0x0 PUSH1 0x1 PUSH1 0x1 PUSH1 0xA0 SHL SUB AND EQ PUSH2 0x757 JUMPI PUSH1 0x40 MLOAD PUSH3 0x461BCD PUSH1 0xE5 SHL DUP2 MSTORE PUSH1 0x20 PUSH1 0x4 DUP3 ADD MSTORE PUSH1 0x1E PUSH1 0x24 DUP3 ADD MSTORE PUSH32 0x4C7A4170703A20696E76616C696420656E64706F696E742063616C6C65720000 PUSH1 0x44 DUP3 ADD MSTORE PUSH1 0x64 ADD JUMPDEST PUSH1 0x40 MLOAD DUP1 SWAP2 SUB SWAP1 REVERT JUMPDEST PUSH2 0xFFFF DUP7 AND PUSH1 0x0 SWAP1 DUP2 MSTORE PUSH1 0x1 PUSH1 0x20 MSTORE PUSH1 0x40 DUP2 KECCAK256 DUP1 SLOAD PUSH2 0x775 SWAP1 PUSH2 0x2275 JUMP JUMPDEST DUP1 PUSH1 0x1F ADD PUSH1 0x20 DUP1 SWAP2 DIV MUL PUSH1 0x20 ADD PUSH1 0x40 MLOAD SWAP1 DUP2 ADD PUSH1 0x40 MSTORE DUP1 SWAP3 SWAP2 SWAP1 DUP2 DUP2 MSTORE PUSH1 0x20 ADD DUP3 DUP1 SLOAD PUSH2 0x7A1 SWAP1 PUSH2 0x2275 JUMP JUMPDEST DUP1 ISZERO PUSH2 0x7EE JUMPI DUP1 PUSH1 0x1F LT PUSH2 0x7C3 JUMPI PUSH2 0x100 DUP1 DUP4 SLOAD DIV MUL DUP4 MSTORE SWAP2 PUSH1 0x20 ADD SWAP2 PUSH2 0x7EE JUMP JUMPDEST DUP3 ADD SWAP2 SWAP1 PUSH1 0x0 MSTORE PUSH1 0x20 PUSH1 0x0 KECCAK256 SWAP1 JUMPDEST DUP2 SLOAD DUP2 MSTORE SWAP1 PUSH1 0x1 ADD SWAP1 PUSH1 0x20 ADD DUP1 DUP4 GT PUSH2 0x7D1 JUMPI DUP3 SWAP1 SUB PUSH1 0x1F AND DUP3 ADD SWAP2 JUMPDEST POP POP POP POP POP SWAP1 POP DUP1 MLOAD DUP7 DUP7 SWAP1 POP EQ DUP1 ISZERO PUSH2 0x809 JUMPI POP PUSH1 0x0 DUP2 MLOAD GT JUMPDEST DUP1 ISZERO PUSH2 0x831 JUMPI POP DUP1 MLOAD PUSH1 0x20 DUP3 ADD KECCAK256 PUSH1 0x40 MLOAD PUSH2 0x827 SWAP1 DUP9 SWAP1 DUP9 SWAP1 PUSH2 0x22AF JUMP JUMPDEST PUSH1 0x40 MLOAD DUP1 SWAP2 SUB SWAP1 KECCAK256 EQ JUMPDEST PUSH2 0x88C JUMPI PUSH1 0x40 MLOAD PUSH3 0x461BCD PUSH1 0xE5 SHL DUP2 MSTORE PUSH1 0x20 PUSH1 0x4 DUP3 ADD MSTORE PUSH1 0x26 PUSH1 0x24 DUP3 ADD MSTORE PUSH32 0x4C7A4170703A20696E76616C696420736F757263652073656E64696E6720636F PUSH1 0x44 DUP3 ADD MSTORE PUSH6 0x1B9D1C9858DD PUSH1 0xD2 SHL PUSH1 0x64 DUP3 ADD MSTORE PUSH1 0x84 ADD PUSH2 0x74E JUMP JUMPDEST PUSH2 0x902 DUP8 DUP8 DUP8 DUP1 DUP1 PUSH1 0x1F ADD PUSH1 0x20 DUP1 SWAP2 DIV MUL PUSH1 0x20 ADD PUSH1 0x40 MLOAD SWAP1 DUP2 ADD PUSH1 0x40 MSTORE DUP1 SWAP4 SWAP3 SWAP2 SWAP1 DUP2 DUP2 MSTORE PUSH1 0x20 ADD DUP4 DUP4 DUP1 DUP3 DUP5 CALLDATACOPY PUSH1 0x0 SWAP3 ADD SWAP2 SWAP1 SWAP2 MSTORE POP POP PUSH1 0x40 DUP1 MLOAD PUSH1 0x20 PUSH1 0x1F DUP11 ADD DUP2 SWAP1 DIV DUP2 MUL DUP3 ADD DUP2 ADD SWAP1 SWAP3 MSTORE DUP9 DUP2 MSTORE DUP11 SWAP4 POP SWAP2 POP DUP9 SWAP1 DUP9 SWAP1 DUP2 SWAP1 DUP5 ADD DUP4 DUP3 DUP1 DUP3 DUP5 CALLDATACOPY PUSH1 0x0 SWAP3 ADD SWAP2 SWAP1 SWAP2 MSTORE POP PUSH2 0x1650 SWAP3 POP POP POP JUMP JUMPDEST POP POP POP POP POP POP POP JUMP JUMPDEST PUSH2 0x913 PUSH2 0x16C9 JUMP JUMPDEST PUSH1 0x40 MLOAD PUSH4 0x7E0DB17 PUSH1 0xE0 SHL DUP2 MSTORE PUSH2 0xFFFF DUP3 AND PUSH1 0x4 DUP3 ADD MSTORE PUSH32 0x0 PUSH1 0x1 PUSH1 0x1 PUSH1 0xA0 SHL SUB AND SWAP1 PUSH4 0x7E0DB17 SWAP1 PUSH1 0x24 ADD JUMPDEST PUSH1 0x0 PUSH1 0x40 MLOAD DUP1 DUP4 SUB DUP2 PUSH1 0x0 DUP8 DUP1 EXTCODESIZE ISZERO DUP1 ISZERO PUSH2 0x979 JUMPI PUSH1 0x0 DUP1 REVERT JUMPDEST POP GAS CALL ISZERO DUP1 ISZERO PUSH2 0x98D JUMPI RETURNDATASIZE PUSH1 0x0 DUP1 RETURNDATACOPY RETURNDATASIZE PUSH1 0x0 REVERT JUMPDEST POP POP POP POP POP JUMP JUMPDEST PUSH2 0x99C PUSH2 0x16C9 JUMP JUMPDEST PUSH2 0xFFFF SWAP1 SWAP2 AND PUSH1 0x0 SWAP1 DUP2 MSTORE PUSH1 0x3 PUSH1 0x20 MSTORE PUSH1 0x40 SWAP1 KECCAK256 SSTORE JUMP JUMPDEST PUSH2 0x9BB PUSH2 0x16C9 JUMP JUMPDEST PUSH1 0x40 MLOAD PUSH4 0x10DDB137 PUSH1 0xE0 SHL DUP2 MSTORE PUSH2 0xFFFF DUP3 AND PUSH1 0x4 DUP3 ADD MSTORE PUSH32 0x0 PUSH1 0x1 PUSH1 0x1 PUSH1 0xA0 SHL SUB AND SWAP1 PUSH4 0x10DDB137 SWAP1 PUSH1 0x24 ADD PUSH2 0x95F JUMP JUMPDEST PUSH2 0xFFFF DUP4 AND PUSH1 0x0 SWAP1 DUP2 MSTORE PUSH1 0x1 PUSH1 0x20 MSTORE PUSH1 0x40 DUP2 KECCAK256 DUP1 SLOAD DUP3 SWAP2 SWAP1 PUSH2 0xA2C SWAP1 PUSH2 0x2275 JUMP JUMPDEST DUP1 PUSH1 0x1F ADD PUSH1 0x20 DUP1 SWAP2 DIV MUL PUSH1 0x20 ADD PUSH1 0x40 MLOAD SWAP1 DUP2 ADD PUSH1 0x40 MSTORE DUP1 SWAP3 SWAP2 SWAP1 DUP2 DUP2 MSTORE PUSH1 0x20 ADD DUP3 DUP1 SLOAD PUSH2 0xA58 SWAP1 PUSH2 0x2275 JUMP JUMPDEST DUP1 ISZERO PUSH2 0xAA5 JUMPI DUP1 PUSH1 0x1F LT PUSH2 0xA7A JUMPI PUSH2 0x100 DUP1 DUP4 SLOAD DIV MUL DUP4 MSTORE SWAP2 PUSH1 0x20 ADD SWAP2 PUSH2 0xAA5 JUMP JUMPDEST DUP3 ADD SWAP2 SWAP1 PUSH1 0x0 MSTORE PUSH1 0x20 PUSH1 0x0 KECCAK256 SWAP1 JUMPDEST DUP2 SLOAD DUP2 MSTORE SWAP1 PUSH1 0x1 ADD SWAP1 PUSH1 0x20 ADD DUP1 DUP4 GT PUSH2 0xA88 JUMPI DUP3 SWAP1 SUB PUSH1 0x1F AND DUP3 ADD SWAP2 JUMPDEST POP POP POP POP POP SWAP1 POP DUP4 DUP4 PUSH1 0x40 MLOAD PUSH2 0xABC SWAP3 SWAP2 SWAP1 PUSH2 0x22AF JUMP JUMPDEST PUSH1 0x40 MLOAD DUP1 SWAP2 SUB SWAP1 KECCAK256 DUP2 DUP1 MLOAD SWAP1 PUSH1 0x20 ADD KECCAK256 EQ SWAP2 POP POP JUMPDEST SWAP4 SWAP3 POP POP POP JUMP JUMPDEST PUSH2 0xAE0 PUSH2 0x16C9 JUMP JUMPDEST PUSH1 0x40 MLOAD PUSH4 0x42D65A8D PUSH1 0xE0 SHL DUP2 MSTORE PUSH1 0x1 PUSH1 0x1 PUSH1 0xA0 SHL SUB PUSH32 0x0 AND SWAP1 PUSH4 0x42D65A8D SWAP1 PUSH2 0xB30 SWAP1 DUP7 SWAP1 DUP7 SWAP1 DUP7 SWAP1 PUSH1 0x4 ADD PUSH2 0x22E8 JUMP JUMPDEST PUSH1 0x0 PUSH1 0x40 MLOAD DUP1 DUP4 SUB DUP2 PUSH1 0x0 DUP8 DUP1 EXTCODESIZE ISZERO DUP1 ISZERO PUSH2 0xB4A JUMPI PUSH1 0x0 DUP1 REVERT JUMPDEST POP GAS CALL ISZERO DUP1 ISZERO PUSH2 0x902 JUMPI RETURNDATASIZE PUSH1 0x0 DUP1 RETURNDATACOPY RETURNDATASIZE PUSH1 0x0 REVERT JUMPDEST PUSH2 0xB66 PUSH2 0x16C9 JUMP JUMPDEST PUSH1 0x40 MLOAD PUSH12 0xFFFFFFFFFFFFFFFFFFFFFFFF NOT PUSH1 0x60 DUP4 DUP2 SHL DUP3 AND PUSH1 0x20 DUP5 ADD MSTORE ADDRESS SWAP1 SHL AND PUSH1 0x34 DUP3 ADD MSTORE PUSH1 0x48 ADD PUSH1 0x40 DUP1 MLOAD PUSH1 0x1F NOT DUP2 DUP5 SUB ADD DUP2 MSTORE SWAP2 DUP2 MSTORE PUSH1 0x7 SLOAD PUSH2 0xFFFF AND PUSH1 0x0 SWAP1 DUP2 MSTORE PUSH1 0x1 PUSH1 0x20 MSTORE KECCAK256 SWAP1 PUSH2 0xBBC SWAP1 DUP3 PUSH2 0x234C JUMP JUMPDEST POP POP JUMP JUMPDEST PUSH1 0x7 SLOAD PUSH1 0x1 PUSH1 0xB0 SHL SWAP1 DIV PUSH1 0xFF AND ISZERO PUSH2 0xC10 JUMPI PUSH1 0x40 MLOAD PUSH3 0x461BCD PUSH1 0xE5 SHL DUP2 MSTORE PUSH1 0x20 PUSH1 0x4 DUP3 ADD MSTORE PUSH1 0x13 PUSH1 0x24 DUP3 ADD MSTORE PUSH19 0x6177616974696E67206C7A206D657373616765 PUSH1 0x68 SHL PUSH1 0x44 DUP3 ADD MSTORE PUSH1 0x64 ADD PUSH2 0x74E JUMP JUMPDEST PUSH1 0x40 MLOAD SELFBALANCE DUP2 MSTORE PUSH32 0xE8D947D7EBDD7B8B8FA2AD2022C7591418AC32D8C29C5F8A8FC9DE52FFA54092 SWAP1 PUSH1 0x20 ADD PUSH1 0x40 MLOAD DUP1 SWAP2 SUB SWAP1 LOG1 PUSH1 0x0 DUP2 PUSH1 0x40 MLOAD PUSH1 0x20 ADD PUSH2 0xC56 SWAP2 SWAP1 PUSH2 0x213A JUMP JUMPDEST PUSH1 0x40 DUP1 MLOAD PUSH1 0x1F NOT DUP2 DUP5 SUB ADD DUP2 MSTORE SWAP1 DUP3 SWAP1 MSTORE ADDRESS DUP3 MSTORE SWAP2 POP PUSH32 0x1F9C75914C5F19DBD88FEA3650ADC0D96CE1ACBA5863D8A8CB9C5DBF194F8F68 SWAP1 PUSH1 0x20 ADD PUSH1 0x40 MLOAD DUP1 SWAP2 SUB SWAP1 LOG1 PUSH1 0x40 MLOAD PUSH1 0x1 PUSH1 0xF0 SHL PUSH1 0x20 DUP3 ADD MSTORE PUSH3 0x3567E0 PUSH1 0x22 DUP3 ADD DUP2 SWAP1 MSTORE PUSH1 0x1 SWAP2 PUSH1 0x0 SWAP1 PUSH1 0x42 ADD PUSH1 0x40 DUP1 MLOAD PUSH1 0x1F NOT DUP2 DUP5 SUB ADD DUP2 MSTORE SWAP2 SWAP1 MSTORE PUSH1 0x7 DUP1 SLOAD PUSH1 0xFF PUSH1 0xB0 SHL NOT DUP2 AND PUSH1 0x1 PUSH1 0xB0 SHL OR SWAP1 SWAP2 SSTORE SWAP1 SWAP2 POP PUSH2 0xCF5 SWAP1 PUSH2 0xFFFF AND DUP6 ADDRESS PUSH1 0x0 DUP6 SELFBALANCE PUSH2 0x1723 JUMP JUMPDEST PUSH1 0x8 DUP1 SLOAD SWAP1 PUSH1 0x0 PUSH2 0xD05 DUP4 PUSH2 0x2421 JUMP JUMPDEST SWAP2 SWAP1 POP SSTORE POP POP POP POP POP POP JUMP JUMPDEST CALLER ADDRESS EQ PUSH2 0xD6F JUMPI PUSH1 0x40 MLOAD PUSH3 0x461BCD PUSH1 0xE5 SHL DUP2 MSTORE PUSH1 0x20 PUSH1 0x4 DUP3 ADD MSTORE PUSH1 0x26 PUSH1 0x24 DUP3 ADD MSTORE PUSH32 0x4E6F6E626C6F636B696E674C7A4170703A2063616C6C6572206D757374206265 PUSH1 0x44 DUP3 ADD MSTORE PUSH6 0x204C7A41707 PUSH1 0xD4 SHL PUSH1 0x64 DUP3 ADD MSTORE PUSH1 0x84 ADD PUSH2 0x74E JUMP JUMPDEST PUSH2 0xDE5 DUP7 DUP7 DUP7 DUP1 DUP1 PUSH1 0x1F ADD PUSH1 0x20 DUP1 SWAP2 DIV MUL PUSH1 0x20 ADD PUSH1 0x40 MLOAD SWAP1 DUP2 ADD PUSH1 0x40 MSTORE DUP1 SWAP4 SWAP3 SWAP2 SWAP1 DUP2 DUP2 MSTORE PUSH1 0x20 ADD DUP4 DUP4 DUP1 DUP3 DUP5 CALLDATACOPY PUSH1 0x0 SWAP3 ADD SWAP2 SWAP1 SWAP2 MSTORE POP POP PUSH1 0x40 DUP1 MLOAD PUSH1 0x20 PUSH1 0x1F DUP10 ADD DUP2 SWAP1 DIV DUP2 MUL DUP3 ADD DUP2 ADD SWAP1 SWAP3 MSTORE DUP8 DUP2 MSTORE DUP10 SWAP4 POP SWAP2 POP DUP8 SWAP1 DUP8 SWAP1 DUP2 SWAP1 DUP5 ADD DUP4 DUP3 DUP1 DUP3 DUP5 CALLDATACOPY PUSH1 0x0 SWAP3 ADD SWAP2 SWAP1 SWAP2 MSTORE POP PUSH2 0x18C8 SWAP3 POP POP POP JUMP JUMPDEST POP POP POP POP POP POP JUMP JUMPDEST PUSH1 0x0 DUP1 PUSH1 0x0 DUP4 PUSH1 0x40 MLOAD PUSH1 0x20 ADD PUSH2 0xE03 SWAP2 SWAP1 PUSH2 0x213A JUMP JUMPDEST PUSH1 0x40 DUP1 MLOAD PUSH1 0x1F NOT DUP2 DUP5 SUB ADD DUP2 MSTORE SWAP1 DUP3 SWAP1 MSTORE PUSH4 0x40A7BB1 PUSH1 0xE4 SHL DUP3 MSTORE SWAP2 POP PUSH1 0x1 PUSH1 0x1 PUSH1 0xA0 SHL SUB PUSH32 0x0 AND SWAP1 PUSH4 0x40A7BB10 SWAP1 PUSH2 0xE6A SWAP1 DUP11 SWAP1 ADDRESS SWAP1 DUP7 SWAP1 PUSH1 0x0 SWAP1 DUP14 SWAP1 DUP14 SWAP1 PUSH1 0x4 ADD PUSH2 0x243A JUMP JUMPDEST PUSH1 0x40 DUP1 MLOAD DUP1 DUP4 SUB DUP2 DUP7 GAS STATICCALL ISZERO DUP1 ISZERO PUSH2 0xE86 JUMPI RETURNDATASIZE PUSH1 0x0 DUP1 RETURNDATACOPY RETURNDATASIZE PUSH1 0x0 REVERT JUMPDEST POP POP POP POP PUSH1 0x40 MLOAD RETURNDATASIZE PUSH1 0x1F NOT PUSH1 0x1F DUP3 ADD AND DUP3 ADD DUP1 PUSH1 0x40 MSTORE POP DUP2 ADD SWAP1 PUSH2 0xEAA SWAP2 SWAP1 PUSH2 0x248E JUMP JUMPDEST SWAP3 POP SWAP3 POP POP SWAP5 POP SWAP5 SWAP3 POP POP POP JUMP JUMPDEST PUSH2 0xEC0 PUSH2 0x16C9 JUMP JUMPDEST PUSH2 0xECA PUSH1 0x0 PUSH2 0x1A2D JUMP JUMPDEST JUMP JUMPDEST PUSH1 0x6 DUP1 SLOAD PUSH2 0xED9 SWAP1 PUSH2 0x2275 JUMP JUMPDEST DUP1 PUSH1 0x1F ADD PUSH1 0x20 DUP1 SWAP2 DIV MUL PUSH1 0x20 ADD PUSH1 0x40 MLOAD SWAP1 DUP2 ADD PUSH1 0x40 MSTORE DUP1 SWAP3 SWAP2 SWAP1 DUP2 DUP2 MSTORE PUSH1 0x20 ADD DUP3 DUP1 SLOAD PUSH2 0xF05 SWAP1 PUSH2 0x2275 JUMP JUMPDEST DUP1 ISZERO PUSH2 0xF52 JUMPI DUP1 PUSH1 0x1F LT PUSH2 0xF27 JUMPI PUSH2 0x100 DUP1 DUP4 SLOAD DIV MUL DUP4 MSTORE SWAP2 PUSH1 0x20 ADD SWAP2 PUSH2 0xF52 JUMP JUMPDEST DUP3 ADD SWAP2 SWAP1 PUSH1 0x0 MSTORE PUSH1 0x20 PUSH1 0x0 KECCAK256 SWAP1 JUMPDEST DUP2 SLOAD DUP2 MSTORE SWAP1 PUSH1 0x1 ADD SWAP1 PUSH1 0x20 ADD DUP1 DUP4 GT PUSH2 0xF35 JUMPI DUP3 SWAP1 SUB PUSH1 0x1F AND DUP3 ADD SWAP2 JUMPDEST POP POP POP POP POP DUP2 JUMP JUMPDEST PUSH1 0x1 PUSH1 0x20 MSTORE PUSH1 0x0 SWAP1 DUP2 MSTORE PUSH1 0x40 SWAP1 KECCAK256 DUP1 SLOAD PUSH2 0xED9 SWAP1 PUSH2 0x2275 JUMP JUMPDEST PUSH2 0xFFFF DUP2 AND PUSH1 0x0 SWAP1 DUP2 MSTORE PUSH1 0x1 PUSH1 0x20 MSTORE PUSH1 0x40 DUP2 KECCAK256 DUP1 SLOAD PUSH1 0x60 SWAP3 SWAP2 SWAP1 PUSH2 0xF96 SWAP1 PUSH2 0x2275 JUMP JUMPDEST DUP1 PUSH1 0x1F ADD PUSH1 0x20 DUP1 SWAP2 DIV MUL PUSH1 0x20 ADD PUSH1 0x40 MLOAD SWAP1 DUP2 ADD PUSH1 0x40 MSTORE DUP1 SWAP3 SWAP2 SWAP1 DUP2 DUP2 MSTORE PUSH1 0x20 ADD DUP3 DUP1 SLOAD PUSH2 0xFC2 SWAP1 PUSH2 0x2275 JUMP JUMPDEST DUP1 ISZERO PUSH2 0x100F JUMPI DUP1 PUSH1 0x1F LT PUSH2 0xFE4 JUMPI PUSH2 0x100 DUP1 DUP4 SLOAD DIV MUL DUP4 MSTORE SWAP2 PUSH1 0x20 ADD SWAP2 PUSH2 0x100F JUMP JUMPDEST DUP3 ADD SWAP2 SWAP1 PUSH1 0x0 MSTORE PUSH1 0x20 PUSH1 0x0 KECCAK256 SWAP1 JUMPDEST DUP2 SLOAD DUP2 MSTORE SWAP1 PUSH1 0x1 ADD SWAP1 PUSH1 0x20 ADD DUP1 DUP4 GT PUSH2 0xFF2 JUMPI DUP3 SWAP1 SUB PUSH1 0x1F AND DUP3 ADD SWAP2 JUMPDEST POP POP POP POP POP SWAP1 POP DUP1 MLOAD PUSH1 0x0 SUB PUSH2 0x1067 JUMPI PUSH1 0x40 MLOAD PUSH3 0x461BCD PUSH1 0xE5 SHL DUP2 MSTORE PUSH1 0x20 PUSH1 0x4 DUP3 ADD MSTORE PUSH1 0x1D PUSH1 0x24 DUP3 ADD MSTORE PUSH32 0x4C7A4170703A206E6F20747275737465642070617468207265636F7264000000 PUSH1 0x44 DUP3 ADD MSTORE PUSH1 0x64 ADD PUSH2 0x74E JUMP JUMPDEST PUSH2 0xAD1 PUSH1 0x0 PUSH1 0x14 DUP4 MLOAD PUSH2 0x107A SWAP2 SWAP1 PUSH2 0x24B2 JUMP JUMPDEST DUP4 SWAP2 SWAP1 PUSH2 0x1A7D JUMP JUMPDEST PUSH2 0x108A PUSH2 0x16C9 JUMP JUMPDEST DUP2 DUP2 ADDRESS PUSH1 0x40 MLOAD PUSH1 0x20 ADD PUSH2 0x109F SWAP4 SWAP3 SWAP2 SWAP1 PUSH2 0x24CB JUMP JUMPDEST PUSH1 0x40 DUP1 MLOAD PUSH1 0x1F NOT DUP2 DUP5 SUB ADD DUP2 MSTORE SWAP2 DUP2 MSTORE PUSH2 0xFFFF DUP6 AND PUSH1 0x0 SWAP1 DUP2 MSTORE PUSH1 0x1 PUSH1 0x20 MSTORE KECCAK256 SWAP1 PUSH2 0x10CA SWAP1 DUP3 PUSH2 0x234C JUMP JUMPDEST POP PUSH32 0x8C0400CFE2D1199B1A725C78960BCC2A344D869B80590D0F2BD005DB15A572CE DUP4 DUP4 DUP4 PUSH1 0x40 MLOAD PUSH2 0x10FE SWAP4 SWAP3 SWAP2 SWAP1 PUSH2 0x22E8 JUMP JUMPDEST PUSH1 0x40 MLOAD DUP1 SWAP2 SUB SWAP1 LOG1 POP POP POP JUMP JUMPDEST PUSH2 0x1113 PUSH2 0x16C9 JUMP JUMPDEST PUSH1 0x4 DUP1 SLOAD PUSH1 0x1 PUSH1 0x1 PUSH1 0xA0 SHL SUB NOT AND PUSH1 0x1 PUSH1 0x1 PUSH1 0xA0 SHL SUB DUP4 AND SWAP1 DUP2 OR SWAP1 SWAP2 SSTORE PUSH1 0x40 MLOAD SWAP1 DUP2 MSTORE PUSH32 0x5DB758E995A17EC1AD84BDEF7E8C3293A0BD6179BCCE400DFF5D4C3D87DB726B SWAP1 PUSH1 0x20 ADD PUSH1 0x40 MLOAD DUP1 SWAP2 SUB SWAP1 LOG1 POP JUMP JUMPDEST PUSH2 0x116F PUSH2 0x16C9 JUMP JUMPDEST PUSH1 0x40 MLOAD PUSH4 0x32FB62E7 PUSH1 0xE2 SHL DUP2 MSTORE PUSH1 0x1 PUSH1 0x1 PUSH1 0xA0 SHL SUB PUSH32 0x0 AND SWAP1 PUSH4 0xCBED8B9C SWAP1 PUSH2 0x11C3 SWAP1 DUP9 SWAP1 DUP9 SWAP1 DUP9 SWAP1 DUP9 SWAP1 DUP9 SWAP1 PUSH1 0x4 ADD PUSH2 0x24F1 JUMP JUMPDEST PUSH1 0x0 PUSH1 0x40 MLOAD DUP1 DUP4 SUB DUP2 PUSH1 0x0 DUP8 DUP1 EXTCODESIZE ISZERO DUP1 ISZERO PUSH2 0x11DD JUMPI PUSH1 0x0 DUP1 REVERT JUMPDEST POP GAS CALL ISZERO DUP1 ISZERO PUSH2 0x11F1 JUMPI RETURNDATASIZE PUSH1 0x0 DUP1 RETURNDATACOPY RETURNDATASIZE PUSH1 0x0 REVERT JUMPDEST POP POP POP POP POP POP POP POP POP JUMP JUMPDEST PUSH2 0xFFFF DUP7 AND PUSH1 0x0 SWAP1 DUP2 MSTORE PUSH1 0x5 PUSH1 0x20 MSTORE PUSH1 0x40 DUP1 DUP3 KECCAK256 SWAP1 MLOAD PUSH2 0x121F SWAP1 DUP9 SWAP1 DUP9 SWAP1 PUSH2 0x22AF JUMP JUMPDEST SWAP1 DUP2 MSTORE PUSH1 0x40 DUP1 MLOAD PUSH1 0x20 SWAP3 DUP2 SWAP1 SUB DUP4 ADD SWAP1 KECCAK256 PUSH1 0x1 PUSH1 0x1 PUSH1 0x40 SHL SUB DUP8 AND PUSH1 0x0 SWAP1 DUP2 MSTORE SWAP3 MSTORE SWAP1 KECCAK256 SLOAD SWAP1 POP DUP1 PUSH2 0x129F JUMPI PUSH1 0x40 MLOAD PUSH3 0x461BCD PUSH1 0xE5 SHL DUP2 MSTORE PUSH1 0x20 PUSH1 0x4 DUP3 ADD MSTORE PUSH1 0x23 PUSH1 0x24 DUP3 ADD MSTORE PUSH32 0x4E6F6E626C6F636B696E674C7A4170703A206E6F2073746F726564206D657373 PUSH1 0x44 DUP3 ADD MSTORE PUSH3 0x616765 PUSH1 0xE8 SHL PUSH1 0x64 DUP3 ADD MSTORE PUSH1 0x84 ADD PUSH2 0x74E JUMP JUMPDEST DUP1 DUP4 DUP4 PUSH1 0x40 MLOAD PUSH2 0x12B0 SWAP3 SWAP2 SWAP1 PUSH2 0x22AF JUMP JUMPDEST PUSH1 0x40 MLOAD DUP1 SWAP2 SUB SWAP1 KECCAK256 EQ PUSH2 0x130F JUMPI PUSH1 0x40 MLOAD PUSH3 0x461BCD PUSH1 0xE5 SHL DUP2 MSTORE PUSH1 0x20 PUSH1 0x4 DUP3 ADD MSTORE PUSH1 0x21 PUSH1 0x24 DUP3 ADD MSTORE PUSH32 0x4E6F6E626C6F636B696E674C7A4170703A20696E76616C6964207061796C6F61 PUSH1 0x44 DUP3 ADD MSTORE PUSH1 0x19 PUSH1 0xFA SHL PUSH1 0x64 DUP3 ADD MSTORE PUSH1 0x84 ADD PUSH2 0x74E JUMP JUMPDEST PUSH2 0xFFFF DUP8 AND PUSH1 0x0 SWAP1 DUP2 MSTORE PUSH1 0x5 PUSH1 0x20 MSTORE PUSH1 0x40 DUP1 DUP3 KECCAK256 SWAP1 MLOAD PUSH2 0x1332 SWAP1 DUP10 SWAP1 DUP10 SWAP1 PUSH2 0x22AF JUMP JUMPDEST SWAP1 DUP2 MSTORE PUSH1 0x40 DUP1 MLOAD PUSH1 0x20 SWAP3 DUP2 SWAP1 SUB DUP4 ADD DUP2 KECCAK256 PUSH1 0x1 PUSH1 0x1 PUSH1 0x40 SHL SUB DUP10 AND PUSH1 0x0 SWAP1 DUP2 MSTORE SWAP1 DUP5 MSTORE DUP3 SWAP1 KECCAK256 SWAP4 SWAP1 SWAP4 SSTORE PUSH1 0x1F DUP9 ADD DUP3 SWAP1 DIV DUP3 MUL DUP4 ADD DUP3 ADD SWAP1 MSTORE DUP7 DUP3 MSTORE PUSH2 0x13CA SWAP2 DUP10 SWAP2 DUP10 SWAP1 DUP10 SWAP1 DUP2 SWAP1 DUP5 ADD DUP4 DUP3 DUP1 DUP3 DUP5 CALLDATACOPY PUSH1 0x0 SWAP3 ADD SWAP2 SWAP1 SWAP2 MSTORE POP POP PUSH1 0x40 DUP1 MLOAD PUSH1 0x20 PUSH1 0x1F DUP11 ADD DUP2 SWAP1 DIV DUP2 MUL DUP3 ADD DUP2 ADD SWAP1 SWAP3 MSTORE DUP9 DUP2 MSTORE DUP11 SWAP4 POP SWAP2 POP DUP9 SWAP1 DUP9 SWAP1 DUP2 SWAP1 DUP5 ADD DUP4 DUP3 DUP1 DUP3 DUP5 CALLDATACOPY PUSH1 0x0 SWAP3 ADD SWAP2 SWAP1 SWAP2 MSTORE POP PUSH2 0x18C8 SWAP3 POP POP POP JUMP JUMPDEST PUSH32 0xC264D91F3ADC5588250E1551F547752CA0CFA8F6B530D243B9F9F4CAB10EA8E5 DUP8 DUP8 DUP8 DUP8 DUP6 PUSH1 0x40 MLOAD PUSH2 0x1401 SWAP6 SWAP5 SWAP4 SWAP3 SWAP2 SWAP1 PUSH2 0x252A JUMP JUMPDEST PUSH1 0x40 MLOAD DUP1 SWAP2 SUB SWAP1 LOG1 POP POP POP POP POP POP POP JUMP JUMPDEST PUSH2 0x141A PUSH2 0x16C9 JUMP JUMPDEST PUSH1 0x0 DUP2 GT PUSH2 0x146A JUMPI PUSH1 0x40 MLOAD PUSH3 0x461BCD PUSH1 0xE5 SHL DUP2 MSTORE PUSH1 0x20 PUSH1 0x4 DUP3 ADD MSTORE PUSH1 0x15 PUSH1 0x24 DUP3 ADD MSTORE PUSH32 0x4C7A4170703A20696E76616C6964206D696E4761730000000000000000000000 PUSH1 0x44 DUP3 ADD MSTORE PUSH1 0x64 ADD PUSH2 0x74E JUMP JUMPDEST PUSH2 0xFFFF DUP4 DUP2 AND PUSH1 0x0 DUP2 DUP2 MSTORE PUSH1 0x2 PUSH1 0x20 SWAP1 DUP2 MSTORE PUSH1 0x40 DUP1 DUP4 KECCAK256 SWAP5 DUP8 AND DUP1 DUP5 MSTORE SWAP5 DUP3 MSTORE SWAP2 DUP3 SWAP1 KECCAK256 DUP6 SWAP1 SSTORE DUP2 MLOAD SWAP3 DUP4 MSTORE DUP3 ADD SWAP3 SWAP1 SWAP3 MSTORE SWAP1 DUP2 ADD DUP3 SWAP1 MSTORE PUSH32 0x9D5C7C0B934DA8FEFA9C7760C98383778A12DFBFC0C3B3106518F43FB9508AC0 SWAP1 PUSH1 0x60 ADD PUSH2 0x10FE JUMP JUMPDEST PUSH2 0x14D4 PUSH2 0x16C9 JUMP JUMPDEST PUSH2 0xFFFF DUP4 AND PUSH1 0x0 SWAP1 DUP2 MSTORE PUSH1 0x1 PUSH1 0x20 MSTORE PUSH1 0x40 SWAP1 KECCAK256 PUSH2 0x14F2 DUP3 DUP5 DUP4 PUSH2 0x2565 JUMP JUMPDEST POP PUSH32 0xFA41487AD5D6728F0B19276FA1EDDC16558578F5109FC39D2DC33C3230470DAB DUP4 DUP4 DUP4 PUSH1 0x40 MLOAD PUSH2 0x10FE SWAP4 SWAP3 SWAP2 SWAP1 PUSH2 0x22E8 JUMP JUMPDEST PUSH2 0x152E PUSH2 0x16C9 JUMP JUMPDEST PUSH1 0x1 PUSH1 0x1 PUSH1 0xA0 SHL SUB DUP2 AND PUSH2 0x1593 JUMPI PUSH1 0x40 MLOAD PUSH3 0x461BCD PUSH1 0xE5 SHL DUP2 MSTORE PUSH1 0x20 PUSH1 0x4 DUP3 ADD MSTORE PUSH1 0x26 PUSH1 0x24 DUP3 ADD MSTORE PUSH32 0x4F776E61626C653A206E6577206F776E657220697320746865207A65726F2061 PUSH1 0x44 DUP3 ADD MSTORE PUSH6 0x646472657373 PUSH1 0xD0 SHL PUSH1 0x64 DUP3 ADD MSTORE PUSH1 0x84 ADD PUSH2 0x74E JUMP JUMPDEST PUSH2 0x159C DUP2 PUSH2 0x1A2D JUMP JUMPDEST POP JUMP JUMPDEST PUSH1 0x40 MLOAD PUSH4 0x3D7B2F6F PUSH1 0xE2 SHL DUP2 MSTORE PUSH2 0xFFFF DUP1 DUP7 AND PUSH1 0x4 DUP4 ADD MSTORE DUP5 AND PUSH1 0x24 DUP3 ADD MSTORE ADDRESS PUSH1 0x44 DUP3 ADD MSTORE PUSH1 0x64 DUP2 ADD DUP3 SWAP1 MSTORE PUSH1 0x60 SWAP1 PUSH32 0x0 PUSH1 0x1 PUSH1 0x1 PUSH1 0xA0 SHL SUB AND SWAP1 PUSH4 0xF5ECBDBC SWAP1 PUSH1 0x84 ADD PUSH1 0x0 PUSH1 0x40 MLOAD DUP1 DUP4 SUB DUP2 DUP7 GAS STATICCALL ISZERO DUP1 ISZERO PUSH2 0x161F JUMPI RETURNDATASIZE PUSH1 0x0 DUP1 RETURNDATACOPY RETURNDATASIZE PUSH1 0x0 REVERT JUMPDEST POP POP POP POP PUSH1 0x40 MLOAD RETURNDATASIZE PUSH1 0x0 DUP3 RETURNDATACOPY PUSH1 0x1F RETURNDATASIZE SWAP1 DUP2 ADD PUSH1 0x1F NOT AND DUP3 ADD PUSH1 0x40 MSTORE PUSH2 0x1647 SWAP2 SWAP1 DUP2 ADD SWAP1 PUSH2 0x2654 JUMP JUMPDEST SWAP6 SWAP5 POP POP POP POP POP JUMP JUMPDEST PUSH1 0x0 DUP1 PUSH2 0x16B3 GAS PUSH1 0x96 PUSH4 0x66AD5C8A PUSH1 0xE0 SHL DUP10 DUP10 DUP10 DUP10 PUSH1 0x40 MLOAD PUSH1 0x24 ADD PUSH2 0x1678 SWAP5 SWAP4 SWAP3 SWAP2 SWAP1 PUSH2 0x269C JUMP JUMPDEST PUSH1 0x40 DUP1 MLOAD PUSH1 0x1F NOT DUP2 DUP5 SUB ADD DUP2 MSTORE SWAP2 SWAP1 MSTORE PUSH1 0x20 DUP2 ADD DUP1 MLOAD PUSH1 0x1 PUSH1 0x1 PUSH1 0xE0 SHL SUB AND PUSH1 0x1 PUSH1 0x1 PUSH1 0xE0 SHL SUB NOT SWAP1 SWAP4 AND SWAP3 SWAP1 SWAP3 OR SWAP1 SWAP2 MSTORE ADDRESS SWAP3 SWAP2 SWAP1 PUSH2 0x1B8A JUMP JUMPDEST SWAP2 POP SWAP2 POP DUP2 PUSH2 0xDE5 JUMPI PUSH2 0xDE5 DUP7 DUP7 DUP7 DUP7 DUP6 PUSH2 0x1C14 JUMP JUMPDEST PUSH1 0x0 SLOAD PUSH1 0x1 PUSH1 0x1 PUSH1 0xA0 SHL SUB AND CALLER EQ PUSH2 0xECA JUMPI PUSH1 0x40 MLOAD PUSH3 0x461BCD PUSH1 0xE5 SHL DUP2 MSTORE PUSH1 0x20 PUSH1 0x4 DUP3 ADD DUP2 SWAP1 MSTORE PUSH1 0x24 DUP3 ADD MSTORE PUSH32 0x4F776E61626C653A2063616C6C6572206973206E6F7420746865206F776E6572 PUSH1 0x44 DUP3 ADD MSTORE PUSH1 0x64 ADD PUSH2 0x74E JUMP JUMPDEST PUSH2 0xFFFF DUP7 AND PUSH1 0x0 SWAP1 DUP2 MSTORE PUSH1 0x1 PUSH1 0x20 MSTORE PUSH1 0x40 DUP2 KECCAK256 DUP1 SLOAD PUSH2 0x1741 SWAP1 PUSH2 0x2275 JUMP JUMPDEST DUP1 PUSH1 0x1F ADD PUSH1 0x20 DUP1 SWAP2 DIV MUL PUSH1 0x20 ADD PUSH1 0x40 MLOAD SWAP1 DUP2 ADD PUSH1 0x40 MSTORE DUP1 SWAP3 SWAP2 SWAP1 DUP2 DUP2 MSTORE PUSH1 0x20 ADD DUP3 DUP1 SLOAD PUSH2 0x176D SWAP1 PUSH2 0x2275 JUMP JUMPDEST DUP1 ISZERO PUSH2 0x17BA JUMPI DUP1 PUSH1 0x1F LT PUSH2 0x178F JUMPI PUSH2 0x100 DUP1 DUP4 SLOAD DIV MUL DUP4 MSTORE SWAP2 PUSH1 0x20 ADD SWAP2 PUSH2 0x17BA JUMP JUMPDEST DUP3 ADD SWAP2 SWAP1 PUSH1 0x0 MSTORE PUSH1 0x20 PUSH1 0x0 KECCAK256 SWAP1 JUMPDEST DUP2 SLOAD DUP2 MSTORE SWAP1 PUSH1 0x1 ADD SWAP1 PUSH1 0x20 ADD DUP1 DUP4 GT PUSH2 0x179D JUMPI DUP3 SWAP1 SUB PUSH1 0x1F AND DUP3 ADD SWAP2 JUMPDEST POP POP POP POP POP SWAP1 POP DUP1 MLOAD PUSH1 0x0 SUB PUSH2 0x182B JUMPI PUSH1 0x40 MLOAD PUSH3 0x461BCD PUSH1 0xE5 SHL DUP2 MSTORE PUSH1 0x20 PUSH1 0x4 DUP3 ADD MSTORE PUSH1 0x30 PUSH1 0x24 DUP3 ADD MSTORE PUSH32 0x4C7A4170703A2064657374696E6174696F6E20636861696E206973206E6F7420 PUSH1 0x44 DUP3 ADD MSTORE PUSH16 0x61207472757374656420736F75726365 PUSH1 0x80 SHL PUSH1 0x64 DUP3 ADD MSTORE PUSH1 0x84 ADD PUSH2 0x74E JUMP JUMPDEST PUSH2 0x1836 DUP8 DUP8 MLOAD PUSH2 0x1CB1 JUMP JUMPDEST PUSH1 0x40 MLOAD PUSH3 0xC58031 PUSH1 0xE8 SHL DUP2 MSTORE PUSH1 0x1 PUSH1 0x1 PUSH1 0xA0 SHL SUB PUSH32 0x0 AND SWAP1 PUSH4 0xC5803100 SWAP1 DUP5 SWAP1 PUSH2 0x188D SWAP1 DUP12 SWAP1 DUP7 SWAP1 DUP13 SWAP1 DUP13 SWAP1 DUP13 SWAP1 DUP13 SWAP1 PUSH1 0x4 ADD PUSH2 0x26DA JUMP JUMPDEST PUSH1 0x0 PUSH1 0x40 MLOAD DUP1 DUP4 SUB DUP2 DUP6 DUP9 DUP1 EXTCODESIZE ISZERO DUP1 ISZERO PUSH2 0x18A6 JUMPI PUSH1 0x0 DUP1 REVERT JUMPDEST POP GAS CALL ISZERO DUP1 ISZERO PUSH2 0x18BA JUMPI RETURNDATASIZE PUSH1 0x0 DUP1 RETURNDATACOPY RETURNDATASIZE PUSH1 0x0 REVERT JUMPDEST POP POP POP POP POP POP POP POP POP POP POP POP JUMP JUMPDEST DUP1 DUP1 PUSH1 0x20 ADD SWAP1 MLOAD DUP2 ADD SWAP1 PUSH2 0x18DC SWAP2 SWAP1 PUSH2 0x2654 JUMP JUMPDEST PUSH1 0x6 SWAP1 PUSH2 0x18E9 SWAP1 DUP3 PUSH2 0x234C JUMP JUMPDEST POP PUSH1 0x40 MLOAD ADDRESS DUP2 MSTORE PUSH32 0x1F9C75914C5F19DBD88FEA3650ADC0D96CE1ACBA5863D8A8CB9C5DBF194F8F68 SWAP1 PUSH1 0x20 ADD PUSH1 0x40 MLOAD DUP1 SWAP2 SUB SWAP1 LOG1 PUSH1 0x7 SLOAD PUSH1 0x40 MLOAD PUSH2 0xFFFF SWAP1 SWAP2 AND DUP2 MSTORE PUSH32 0xF944A0B4D5E7E9C3ABA164318FE6C3FCCDE3D2AB58373B1E3C465581DB7FD823 SWAP1 PUSH1 0x20 ADD PUSH1 0x40 MLOAD DUP1 SWAP2 SUB SWAP1 LOG1 PUSH1 0x0 PUSH1 0x40 MLOAD DUP1 PUSH1 0x40 ADD PUSH1 0x40 MSTORE DUP1 PUSH1 0x9 DUP2 MSTORE PUSH1 0x20 ADD PUSH9 0x149154D413D3911151 PUSH1 0xBA SHL DUP2 MSTORE POP SWAP1 POP PUSH1 0x0 DUP2 PUSH1 0x40 MLOAD PUSH1 0x20 ADD PUSH2 0x1991 SWAP2 SWAP1 PUSH2 0x213A JUMP JUMPDEST PUSH1 0x40 DUP1 MLOAD DUP1 DUP4 SUB PUSH1 0x1F NOT ADD DUP2 MSTORE SWAP2 SWAP1 MSTORE PUSH1 0x7 SLOAD SWAP1 SWAP2 POP PUSH1 0x1 PUSH1 0xB0 SHL SWAP1 DIV PUSH1 0xFF AND PUSH2 0x1A18 JUMPI PUSH1 0x40 MLOAD PUSH1 0x1 PUSH1 0xF0 SHL PUSH1 0x20 DUP3 ADD MSTORE PUSH3 0x3567E0 PUSH1 0x22 DUP3 ADD DUP2 SWAP1 MSTORE PUSH1 0x1 SWAP2 PUSH1 0x0 SWAP1 PUSH1 0x42 ADD PUSH1 0x40 DUP1 MLOAD PUSH1 0x1F NOT DUP2 DUP5 SUB ADD DUP2 MSTORE SWAP2 SWAP1 MSTORE PUSH1 0x7 SLOAD SWAP1 SWAP2 POP PUSH2 0x19FF SWAP1 PUSH2 0xFFFF AND DUP6 ADDRESS PUSH1 0x0 DUP6 SELFBALANCE PUSH2 0x1723 JUMP JUMPDEST PUSH1 0x8 DUP1 SLOAD SWAP1 PUSH1 0x0 PUSH2 0x1A0F DUP4 PUSH2 0x2421 JUMP JUMPDEST SWAP2 SWAP1 POP SSTORE POP POP POP POP JUMPDEST POP POP PUSH1 0x7 DUP1 SLOAD PUSH1 0xFF PUSH1 0xB0 SHL NOT AND SWAP1 SSTORE POP POP POP POP JUMP JUMPDEST PUSH1 0x0 DUP1 SLOAD PUSH1 0x1 PUSH1 0x1 PUSH1 0xA0 SHL SUB DUP4 DUP2 AND PUSH1 0x1 PUSH1 0x1 PUSH1 0xA0 SHL SUB NOT DUP4 AND DUP2 OR DUP5 SSTORE PUSH1 0x40 MLOAD SWAP2 SWAP1 SWAP3 AND SWAP3 DUP4 SWAP2 PUSH32 0x8BE0079C531659141344CD1FD0A4F28419497F9722A3DAAFE3B4186F6B6457E0 SWAP2 SWAP1 LOG3 POP POP JUMP JUMPDEST PUSH1 0x60 DUP2 PUSH2 0x1A8B DUP2 PUSH1 0x1F PUSH2 0x2734 JUMP JUMPDEST LT ISZERO PUSH2 0x1ACA JUMPI PUSH1 0x40 MLOAD PUSH3 0x461BCD PUSH1 0xE5 SHL DUP2 MSTORE PUSH1 0x20 PUSH1 0x4 DUP3 ADD MSTORE PUSH1 0xE PUSH1 0x24 DUP3 ADD MSTORE PUSH14 0x736C6963655F6F766572666C6F77 PUSH1 0x90 SHL PUSH1 0x44 DUP3 ADD MSTORE PUSH1 0x64 ADD PUSH2 0x74E JUMP JUMPDEST PUSH2 0x1AD4 DUP3 DUP5 PUSH2 0x2734 JUMP JUMPDEST DUP5 MLOAD LT ISZERO PUSH2 0x1B18 JUMPI PUSH1 0x40 MLOAD PUSH3 0x461BCD PUSH1 0xE5 SHL DUP2 MSTORE PUSH1 0x20 PUSH1 0x4 DUP3 ADD MSTORE PUSH1 0x11 PUSH1 0x24 DUP3 ADD MSTORE PUSH17 0x736C6963655F6F75744F66426F756E6473 PUSH1 0x78 SHL PUSH1 0x44 DUP3 ADD MSTORE PUSH1 0x64 ADD PUSH2 0x74E JUMP JUMPDEST PUSH1 0x60 DUP3 ISZERO DUP1 ISZERO PUSH2 0x1B37 JUMPI PUSH1 0x40 MLOAD SWAP2 POP PUSH1 0x0 DUP3 MSTORE PUSH1 0x20 DUP3 ADD PUSH1 0x40 MSTORE PUSH2 0x1B81 JUMP JUMPDEST PUSH1 0x40 MLOAD SWAP2 POP PUSH1 0x1F DUP5 AND DUP1 ISZERO PUSH1 0x20 MUL DUP2 DUP5 ADD ADD DUP6 DUP2 ADD DUP8 DUP4 ISZERO PUSH1 0x20 MUL DUP5 DUP12 ADD ADD ADD JUMPDEST DUP2 DUP4 LT ISZERO PUSH2 0x1B70 JUMPI DUP1 MLOAD DUP4 MSTORE PUSH1 0x20 SWAP3 DUP4 ADD SWAP3 ADD PUSH2 0x1B58 JUMP JUMPDEST POP POP DUP6 DUP5 MSTORE PUSH1 0x1F ADD PUSH1 0x1F NOT AND PUSH1 0x40 MSTORE POP JUMPDEST POP SWAP5 SWAP4 POP POP POP POP JUMP JUMPDEST PUSH1 0x0 PUSH1 0x60 PUSH1 0x0 DUP1 PUSH1 0x0 DUP7 PUSH2 0xFFFF AND PUSH1 0x1 PUSH1 0x1 PUSH1 0x40 SHL SUB DUP2 GT ISZERO PUSH2 0x1BAF JUMPI PUSH2 0x1BAF PUSH2 0x1EC7 JUMP JUMPDEST PUSH1 0x40 MLOAD SWAP1 DUP1 DUP3 MSTORE DUP1 PUSH1 0x1F ADD PUSH1 0x1F NOT AND PUSH1 0x20 ADD DUP3 ADD PUSH1 0x40 MSTORE DUP1 ISZERO PUSH2 0x1BD9 JUMPI PUSH1 0x20 DUP3 ADD DUP2 DUP1 CALLDATASIZE DUP4 CALLDATACOPY ADD SWAP1 POP JUMPDEST POP SWAP1 POP PUSH1 0x0 DUP1 DUP8 MLOAD PUSH1 0x20 DUP10 ADD PUSH1 0x0 DUP14 DUP14 CALL SWAP2 POP RETURNDATASIZE SWAP3 POP DUP7 DUP4 GT ISZERO PUSH2 0x1BFB JUMPI DUP7 SWAP3 POP JUMPDEST DUP3 DUP2 MSTORE DUP3 PUSH1 0x0 PUSH1 0x20 DUP4 ADD RETURNDATACOPY SWAP1 SWAP9 SWAP1 SWAP8 POP SWAP6 POP POP POP POP POP POP JUMP JUMPDEST DUP2 DUP1 MLOAD SWAP1 PUSH1 0x20 ADD KECCAK256 PUSH1 0x5 PUSH1 0x0 DUP8 PUSH2 0xFFFF AND PUSH2 0xFFFF AND DUP2 MSTORE PUSH1 0x20 ADD SWAP1 DUP2 MSTORE PUSH1 0x20 ADD PUSH1 0x0 KECCAK256 DUP6 PUSH1 0x40 MLOAD PUSH2 0x1C45 SWAP2 SWAP1 PUSH2 0x2747 JUMP JUMPDEST SWAP1 DUP2 MSTORE PUSH1 0x40 DUP1 MLOAD SWAP2 DUP3 SWAP1 SUB PUSH1 0x20 SWAP1 DUP2 ADD DUP4 KECCAK256 PUSH1 0x1 PUSH1 0x1 PUSH1 0x40 SHL SUB DUP9 AND PUSH1 0x0 SWAP1 DUP2 MSTORE SWAP2 MSTORE KECCAK256 SWAP2 SWAP1 SWAP2 SSTORE PUSH32 0xE183F33DE2837795525B4792CA4CD60535BD77C53B7E7030060BFCF5734D6B0C SWAP1 PUSH2 0x1CA2 SWAP1 DUP8 SWAP1 DUP8 SWAP1 DUP8 SWAP1 DUP8 SWAP1 DUP8 SWAP1 PUSH2 0x2763 JUMP JUMPDEST PUSH1 0x40 MLOAD DUP1 SWAP2 SUB SWAP1 LOG1 POP POP POP POP POP JUMP JUMPDEST PUSH2 0xFFFF DUP3 AND PUSH1 0x0 SWAP1 DUP2 MSTORE PUSH1 0x3 PUSH1 0x20 MSTORE PUSH1 0x40 DUP2 KECCAK256 SLOAD SWAP1 DUP2 SWAP1 SUB PUSH2 0x1CD2 JUMPI POP PUSH2 0x2710 JUMPDEST DUP1 DUP3 GT ISZERO PUSH2 0x1D22 JUMPI PUSH1 0x40 MLOAD PUSH3 0x461BCD PUSH1 0xE5 SHL DUP2 MSTORE PUSH1 0x20 PUSH1 0x4 DUP3 ADD DUP2 SWAP1 MSTORE PUSH1 0x24 DUP3 ADD MSTORE PUSH32 0x4C7A4170703A207061796C6F61642073697A6520697320746F6F206C61726765 PUSH1 0x44 DUP3 ADD MSTORE PUSH1 0x64 ADD PUSH2 0x74E JUMP JUMPDEST POP POP POP JUMP JUMPDEST DUP1 CALLDATALOAD PUSH2 0xFFFF DUP2 AND DUP2 EQ PUSH2 0x1D39 JUMPI PUSH1 0x0 DUP1 REVERT JUMPDEST SWAP2 SWAP1 POP JUMP JUMPDEST PUSH1 0x0 DUP1 DUP4 PUSH1 0x1F DUP5 ADD SLT PUSH2 0x1D50 JUMPI PUSH1 0x0 DUP1 REVERT JUMPDEST POP DUP2 CALLDATALOAD PUSH1 0x1 PUSH1 0x1 PUSH1 0x40 SHL SUB DUP2 GT ISZERO PUSH2 0x1D67 JUMPI PUSH1 0x0 DUP1 REVERT JUMPDEST PUSH1 0x20 DUP4 ADD SWAP2 POP DUP4 PUSH1 0x20 DUP3 DUP6 ADD ADD GT ISZERO PUSH2 0x1D7F JUMPI PUSH1 0x0 DUP1 REVERT JUMPDEST SWAP3 POP SWAP3 SWAP1 POP JUMP JUMPDEST DUP1 CALLDATALOAD PUSH1 0x1 PUSH1 0x1 PUSH1 0x40 SHL SUB DUP2 AND DUP2 EQ PUSH2 0x1D39 JUMPI PUSH1 0x0 DUP1 REVERT JUMPDEST PUSH1 0x0 DUP1 PUSH1 0x0 DUP1 PUSH1 0x0 DUP1 PUSH1 0x80 DUP8 DUP10 SUB SLT ISZERO PUSH2 0x1DB6 JUMPI PUSH1 0x0 DUP1 REVERT JUMPDEST PUSH2 0x1DBF DUP8 PUSH2 0x1D27 JUMP JUMPDEST SWAP6 POP PUSH1 0x20 DUP8 ADD CALLDATALOAD PUSH1 0x1 PUSH1 0x1 PUSH1 0x40 SHL SUB DUP1 DUP3 GT ISZERO PUSH2 0x1DDB JUMPI PUSH1 0x0 DUP1 REVERT JUMPDEST PUSH2 0x1DE7 DUP11 DUP4 DUP12 ADD PUSH2 0x1D3E JUMP JUMPDEST SWAP1 SWAP8 POP SWAP6 POP DUP6 SWAP2 POP PUSH2 0x1DFB PUSH1 0x40 DUP11 ADD PUSH2 0x1D86 JUMP JUMPDEST SWAP5 POP PUSH1 0x60 DUP10 ADD CALLDATALOAD SWAP2 POP DUP1 DUP3 GT ISZERO PUSH2 0x1E11 JUMPI PUSH1 0x0 DUP1 REVERT JUMPDEST POP PUSH2 0x1E1E DUP10 DUP3 DUP11 ADD PUSH2 0x1D3E JUMP JUMPDEST SWAP8 SWAP11 SWAP7 SWAP10 POP SWAP5 SWAP8 POP SWAP3 SWAP6 SWAP4 SWAP5 SWAP3 POP POP POP JUMP JUMPDEST PUSH1 0x0 PUSH1 0x20 DUP3 DUP5 SUB SLT ISZERO PUSH2 0x1E42 JUMPI PUSH1 0x0 DUP1 REVERT JUMPDEST PUSH2 0xAD1 DUP3 PUSH2 0x1D27 JUMP JUMPDEST PUSH1 0x0 DUP1 PUSH1 0x40 DUP4 DUP6 SUB SLT ISZERO PUSH2 0x1E5E JUMPI PUSH1 0x0 DUP1 REVERT JUMPDEST PUSH2 0x1E67 DUP4 PUSH2 0x1D27 JUMP JUMPDEST SWAP5 PUSH1 0x20 SWAP4 SWAP1 SWAP4 ADD CALLDATALOAD SWAP4 POP POP POP JUMP JUMPDEST PUSH1 0x0 DUP1 PUSH1 0x0 PUSH1 0x40 DUP5 DUP7 SUB SLT ISZERO PUSH2 0x1E8A JUMPI PUSH1 0x0 DUP1 REVERT JUMPDEST PUSH2 0x1E93 DUP5 PUSH2 0x1D27 JUMP JUMPDEST SWAP3 POP PUSH1 0x20 DUP5 ADD CALLDATALOAD PUSH1 0x1 PUSH1 0x1 PUSH1 0x40 SHL SUB DUP2 GT ISZERO PUSH2 0x1EAE JUMPI PUSH1 0x0 DUP1 REVERT JUMPDEST PUSH2 0x1EBA DUP7 DUP3 DUP8 ADD PUSH2 0x1D3E JUMP JUMPDEST SWAP5 SWAP8 SWAP1 SWAP7 POP SWAP4 SWAP5 POP POP POP POP JUMP JUMPDEST PUSH4 0x4E487B71 PUSH1 0xE0 SHL PUSH1 0x0 MSTORE PUSH1 0x41 PUSH1 0x4 MSTORE PUSH1 0x24 PUSH1 0x0 REVERT JUMPDEST PUSH1 0x40 MLOAD PUSH1 0x1F DUP3 ADD PUSH1 0x1F NOT AND DUP2 ADD PUSH1 0x1 PUSH1 0x1 PUSH1 0x40 SHL SUB DUP2 GT DUP3 DUP3 LT OR ISZERO PUSH2 0x1F05 JUMPI PUSH2 0x1F05 PUSH2 0x1EC7 JUMP JUMPDEST PUSH1 0x40 MSTORE SWAP2 SWAP1 POP JUMP JUMPDEST PUSH1 0x0 PUSH1 0x1 PUSH1 0x1 PUSH1 0x40 SHL SUB DUP3 GT ISZERO PUSH2 0x1F26 JUMPI PUSH2 0x1F26 PUSH2 0x1EC7 JUMP JUMPDEST POP PUSH1 0x1F ADD PUSH1 0x1F NOT AND PUSH1 0x20 ADD SWAP1 JUMP JUMPDEST PUSH1 0x0 PUSH2 0x1F47 PUSH2 0x1F42 DUP5 PUSH2 0x1F0D JUMP JUMPDEST PUSH2 0x1EDD JUMP JUMPDEST SWAP1 POP DUP3 DUP2 MSTORE DUP4 DUP4 DUP4 ADD GT ISZERO PUSH2 0x1F5B JUMPI PUSH1 0x0 DUP1 REVERT JUMPDEST DUP3 DUP3 PUSH1 0x20 DUP4 ADD CALLDATACOPY PUSH1 0x0 PUSH1 0x20 DUP5 DUP4 ADD ADD MSTORE SWAP4 SWAP3 POP POP POP JUMP JUMPDEST PUSH1 0x0 DUP1 PUSH1 0x0 PUSH1 0x60 DUP5 DUP7 SUB SLT ISZERO PUSH2 0x1F87 JUMPI PUSH1 0x0 DUP1 REVERT JUMPDEST PUSH2 0x1F90 DUP5 PUSH2 0x1D27 JUMP JUMPDEST SWAP3 POP PUSH1 0x20 DUP5 ADD CALLDATALOAD PUSH1 0x1 PUSH1 0x1 PUSH1 0x40 SHL SUB DUP2 GT ISZERO PUSH2 0x1FAB JUMPI PUSH1 0x0 DUP1 REVERT JUMPDEST DUP5 ADD PUSH1 0x1F DUP2 ADD DUP7 SGT PUSH2 0x1FBC JUMPI PUSH1 0x0 DUP1 REVERT JUMPDEST PUSH2 0x1FCB DUP7 DUP3 CALLDATALOAD PUSH1 0x20 DUP5 ADD PUSH2 0x1F34 JUMP JUMPDEST SWAP3 POP POP PUSH2 0x1FDA PUSH1 0x40 DUP6 ADD PUSH2 0x1D86 JUMP JUMPDEST SWAP1 POP SWAP3 POP SWAP3 POP SWAP3 JUMP JUMPDEST DUP1 CALLDATALOAD PUSH1 0x1 PUSH1 0x1 PUSH1 0xA0 SHL SUB DUP2 AND DUP2 EQ PUSH2 0x1D39 JUMPI PUSH1 0x0 DUP1 REVERT JUMPDEST PUSH1 0x0 PUSH1 0x20 DUP3 DUP5 SUB SLT ISZERO PUSH2 0x200C JUMPI PUSH1 0x0 DUP1 REVERT JUMPDEST PUSH2 0xAD1 DUP3 PUSH2 0x1FE3 JUMP JUMPDEST PUSH1 0x0 DUP3 PUSH1 0x1F DUP4 ADD SLT PUSH2 0x2026 JUMPI PUSH1 0x0 DUP1 REVERT JUMPDEST PUSH2 0xAD1 DUP4 DUP4 CALLDATALOAD PUSH1 0x20 DUP6 ADD PUSH2 0x1F34 JUMP JUMPDEST PUSH1 0x0 PUSH1 0x20 DUP3 DUP5 SUB SLT ISZERO PUSH2 0x2047 JUMPI PUSH1 0x0 DUP1 REVERT JUMPDEST DUP2 CALLDATALOAD PUSH1 0x1 PUSH1 0x1 PUSH1 0x40 SHL SUB DUP2 GT ISZERO PUSH2 0x205D JUMPI PUSH1 0x0 DUP1 REVERT JUMPDEST PUSH2 0x2069 DUP5 DUP3 DUP6 ADD PUSH2 0x2015 JUMP JUMPDEST SWAP5 SWAP4 POP POP POP POP JUMP JUMPDEST PUSH1 0x0 DUP1 PUSH1 0x0 DUP1 PUSH1 0x60 DUP6 DUP8 SUB SLT ISZERO PUSH2 0x2087 JUMPI PUSH1 0x0 DUP1 REVERT JUMPDEST PUSH2 0x2090 DUP6 PUSH2 0x1D27 JUMP JUMPDEST SWAP4 POP PUSH1 0x20 DUP6 ADD CALLDATALOAD PUSH1 0x1 PUSH1 0x1 PUSH1 0x40 SHL SUB DUP1 DUP3 GT ISZERO PUSH2 0x20AC JUMPI PUSH1 0x0 DUP1 REVERT JUMPDEST PUSH2 0x20B8 DUP9 DUP4 DUP10 ADD PUSH2 0x1D3E JUMP JUMPDEST SWAP1 SWAP6 POP SWAP4 POP PUSH1 0x40 DUP8 ADD CALLDATALOAD SWAP2 POP DUP1 DUP3 GT ISZERO PUSH2 0x20D1 JUMPI PUSH1 0x0 DUP1 REVERT JUMPDEST POP PUSH2 0x20DE DUP8 DUP3 DUP9 ADD PUSH2 0x2015 JUMP JUMPDEST SWAP2 POP POP SWAP3 SWAP6 SWAP2 SWAP5 POP SWAP3 POP JUMP JUMPDEST PUSH1 0x0 JUMPDEST DUP4 DUP2 LT ISZERO PUSH2 0x2105 JUMPI DUP2 DUP2 ADD MLOAD DUP4 DUP3 ADD MSTORE PUSH1 0x20 ADD PUSH2 0x20ED JUMP JUMPDEST POP POP PUSH1 0x0 SWAP2 ADD MSTORE JUMP JUMPDEST PUSH1 0x0 DUP2 MLOAD DUP1 DUP5 MSTORE PUSH2 0x2126 DUP2 PUSH1 0x20 DUP7 ADD PUSH1 0x20 DUP7 ADD PUSH2 0x20EA JUMP JUMPDEST PUSH1 0x1F ADD PUSH1 0x1F NOT AND SWAP3 SWAP1 SWAP3 ADD PUSH1 0x20 ADD SWAP3 SWAP2 POP POP JUMP JUMPDEST PUSH1 0x20 DUP2 MSTORE PUSH1 0x0 PUSH2 0xAD1 PUSH1 0x20 DUP4 ADD DUP5 PUSH2 0x210E JUMP JUMPDEST PUSH1 0x0 DUP1 PUSH1 0x40 DUP4 DUP6 SUB SLT ISZERO PUSH2 0x2160 JUMPI PUSH1 0x0 DUP1 REVERT JUMPDEST PUSH2 0x2169 DUP4 PUSH2 0x1D27 JUMP JUMPDEST SWAP2 POP PUSH2 0x2177 PUSH1 0x20 DUP5 ADD PUSH2 0x1D27 JUMP JUMPDEST SWAP1 POP SWAP3 POP SWAP3 SWAP1 POP JUMP JUMPDEST PUSH1 0x0 DUP1 PUSH1 0x0 DUP1 PUSH1 0x0 PUSH1 0x80 DUP7 DUP9 SUB SLT ISZERO PUSH2 0x2198 JUMPI PUSH1 0x0 DUP1 REVERT JUMPDEST PUSH2 0x21A1 DUP7 PUSH2 0x1D27 JUMP JUMPDEST SWAP5 POP PUSH2 0x21AF PUSH1 0x20 DUP8 ADD PUSH2 0x1D27 JUMP JUMPDEST SWAP4 POP PUSH1 0x40 DUP7 ADD CALLDATALOAD SWAP3 POP PUSH1 0x60 DUP7 ADD CALLDATALOAD PUSH1 0x1 PUSH1 0x1 PUSH1 0x40 SHL SUB DUP2 GT ISZERO PUSH2 0x21D1 JUMPI PUSH1 0x0 DUP1 REVERT JUMPDEST PUSH2 0x21DD DUP9 DUP3 DUP10 ADD PUSH2 0x1D3E JUMP JUMPDEST SWAP7 SWAP10 SWAP6 SWAP9 POP SWAP4 SWAP7 POP SWAP3 SWAP5 SWAP4 SWAP3 POP POP POP JUMP JUMPDEST PUSH1 0x0 DUP1 PUSH1 0x0 PUSH1 0x60 DUP5 DUP7 SUB SLT ISZERO PUSH2 0x2203 JUMPI PUSH1 0x0 DUP1 REVERT JUMPDEST PUSH2 0x220C DUP5 PUSH2 0x1D27 JUMP JUMPDEST SWAP3 POP PUSH2 0x221A PUSH1 0x20 DUP6 ADD PUSH2 0x1D27 JUMP JUMPDEST SWAP2 POP PUSH1 0x40 DUP5 ADD CALLDATALOAD SWAP1 POP SWAP3 POP SWAP3 POP SWAP3 JUMP JUMPDEST PUSH1 0x0 DUP1 PUSH1 0x0 DUP1 PUSH1 0x80 DUP6 DUP8 SUB SLT ISZERO PUSH2 0x2240 JUMPI PUSH1 0x0 DUP1 REVERT JUMPDEST PUSH2 0x2249 DUP6 PUSH2 0x1D27 JUMP JUMPDEST SWAP4 POP PUSH2 0x2257 PUSH1 0x20 DUP7 ADD PUSH2 0x1D27 JUMP JUMPDEST SWAP3 POP PUSH2 0x2265 PUSH1 0x40 DUP7 ADD PUSH2 0x1FE3 JUMP JUMPDEST SWAP4 SWAP7 SWAP3 SWAP6 POP SWAP3 SWAP4 PUSH1 0x60 ADD CALLDATALOAD SWAP3 POP POP JUMP JUMPDEST PUSH1 0x1 DUP2 DUP2 SHR SWAP1 DUP3 AND DUP1 PUSH2 0x2289 JUMPI PUSH1 0x7F DUP3 AND SWAP2 POP JUMPDEST PUSH1 0x20 DUP3 LT DUP2 SUB PUSH2 0x22A9 JUMPI PUSH4 0x4E487B71 PUSH1 0xE0 SHL PUSH1 0x0 MSTORE PUSH1 0x22 PUSH1 0x4 MSTORE PUSH1 0x24 PUSH1 0x0 REVERT JUMPDEST POP SWAP2 SWAP1 POP JUMP JUMPDEST DUP2 DUP4 DUP3 CALLDATACOPY PUSH1 0x0 SWAP2 ADD SWAP1 DUP2 MSTORE SWAP2 SWAP1 POP JUMP JUMPDEST DUP2 DUP4 MSTORE DUP2 DUP2 PUSH1 0x20 DUP6 ADD CALLDATACOPY POP PUSH1 0x0 DUP3 DUP3 ADD PUSH1 0x20 SWAP1 DUP2 ADD SWAP2 SWAP1 SWAP2 MSTORE PUSH1 0x1F SWAP1 SWAP2 ADD PUSH1 0x1F NOT AND SWAP1 SWAP2 ADD ADD SWAP1 JUMP JUMPDEST PUSH2 0xFFFF DUP5 AND DUP2 MSTORE PUSH1 0x40 PUSH1 0x20 DUP3 ADD MSTORE PUSH1 0x0 PUSH2 0x1647 PUSH1 0x40 DUP4 ADD DUP5 DUP7 PUSH2 0x22BF JUMP JUMPDEST PUSH1 0x1F DUP3 GT ISZERO PUSH2 0x1D22 JUMPI PUSH1 0x0 DUP2 DUP2 MSTORE PUSH1 0x20 DUP2 KECCAK256 PUSH1 0x1F DUP6 ADD PUSH1 0x5 SHR DUP2 ADD PUSH1 0x20 DUP7 LT ISZERO PUSH2 0x232D JUMPI POP DUP1 JUMPDEST PUSH1 0x1F DUP6 ADD PUSH1 0x5 SHR DUP3 ADD SWAP2 POP JUMPDEST DUP2 DUP2 LT ISZERO PUSH2 0xDE5 JUMPI DUP3 DUP2 SSTORE PUSH1 0x1 ADD PUSH2 0x2339 JUMP JUMPDEST DUP2 MLOAD PUSH1 0x1 PUSH1 0x1 PUSH1 0x40 SHL SUB DUP2 GT ISZERO PUSH2 0x2365 JUMPI PUSH2 0x2365 PUSH2 0x1EC7 JUMP JUMPDEST PUSH2 0x2379 DUP2 PUSH2 0x2373 DUP5 SLOAD PUSH2 0x2275 JUMP JUMPDEST DUP5 PUSH2 0x2306 JUMP JUMPDEST PUSH1 0x20 DUP1 PUSH1 0x1F DUP4 GT PUSH1 0x1 DUP2 EQ PUSH2 0x23AE JUMPI PUSH1 0x0 DUP5 ISZERO PUSH2 0x2396 JUMPI POP DUP6 DUP4 ADD MLOAD JUMPDEST PUSH1 0x0 NOT PUSH1 0x3 DUP7 SWAP1 SHL SHR NOT AND PUSH1 0x1 DUP6 SWAP1 SHL OR DUP6 SSTORE PUSH2 0xDE5 JUMP JUMPDEST PUSH1 0x0 DUP6 DUP2 MSTORE PUSH1 0x20 DUP2 KECCAK256 PUSH1 0x1F NOT DUP7 AND SWAP2 JUMPDEST DUP3 DUP2 LT ISZERO PUSH2 0x23DD JUMPI DUP9 DUP7 ADD MLOAD DUP3 SSTORE SWAP5 DUP5 ADD SWAP5 PUSH1 0x1 SWAP1 SWAP2 ADD SWAP1 DUP5 ADD PUSH2 0x23BE JUMP JUMPDEST POP DUP6 DUP3 LT ISZERO PUSH2 0x23FB JUMPI DUP8 DUP6 ADD MLOAD PUSH1 0x0 NOT PUSH1 0x3 DUP9 SWAP1 SHL PUSH1 0xF8 AND SHR NOT AND DUP2 SSTORE JUMPDEST POP POP POP POP POP PUSH1 0x1 SWAP1 DUP2 SHL ADD SWAP1 SSTORE POP JUMP JUMPDEST PUSH4 0x4E487B71 PUSH1 0xE0 SHL PUSH1 0x0 MSTORE PUSH1 0x11 PUSH1 0x4 MSTORE PUSH1 0x24 PUSH1 0x0 REVERT JUMPDEST PUSH1 0x0 PUSH1 0x1 DUP3 ADD PUSH2 0x2433 JUMPI PUSH2 0x2433 PUSH2 0x240B JUMP JUMPDEST POP PUSH1 0x1 ADD SWAP1 JUMP JUMPDEST PUSH2 0xFFFF DUP8 AND DUP2 MSTORE PUSH1 0x1 PUSH1 0x1 PUSH1 0xA0 SHL SUB DUP7 AND PUSH1 0x20 DUP3 ADD MSTORE PUSH1 0xA0 PUSH1 0x40 DUP3 ADD MSTORE PUSH1 0x0 PUSH2 0x2466 PUSH1 0xA0 DUP4 ADD DUP8 PUSH2 0x210E JUMP JUMPDEST DUP6 ISZERO ISZERO PUSH1 0x60 DUP5 ADD MSTORE DUP3 DUP2 SUB PUSH1 0x80 DUP5 ADD MSTORE PUSH2 0x2481 DUP2 DUP6 DUP8 PUSH2 0x22BF JUMP JUMPDEST SWAP10 SWAP9 POP POP POP POP POP POP POP POP POP JUMP JUMPDEST PUSH1 0x0 DUP1 PUSH1 0x40 DUP4 DUP6 SUB SLT ISZERO PUSH2 0x24A1 JUMPI PUSH1 0x0 DUP1 REVERT JUMPDEST POP POP DUP1 MLOAD PUSH1 0x20 SWAP1 SWAP2 ADD MLOAD SWAP1 SWAP3 SWAP1 SWAP2 POP JUMP JUMPDEST DUP2 DUP2 SUB DUP2 DUP2 GT ISZERO PUSH2 0x24C5 JUMPI PUSH2 0x24C5 PUSH2 0x240B JUMP JUMPDEST SWAP3 SWAP2 POP POP JUMP JUMPDEST DUP3 DUP5 DUP3 CALLDATACOPY PUSH1 0x60 SWAP2 SWAP1 SWAP2 SHL PUSH12 0xFFFFFFFFFFFFFFFFFFFFFFFF NOT AND SWAP2 ADD SWAP1 DUP2 MSTORE PUSH1 0x14 ADD SWAP2 SWAP1 POP JUMP JUMPDEST PUSH1 0x0 PUSH2 0xFFFF DUP1 DUP9 AND DUP4 MSTORE DUP1 DUP8 AND PUSH1 0x20 DUP5 ADD MSTORE POP DUP5 PUSH1 0x40 DUP4 ADD MSTORE PUSH1 0x80 PUSH1 0x60 DUP4 ADD MSTORE PUSH2 0x251F PUSH1 0x80 DUP4 ADD DUP5 DUP7 PUSH2 0x22BF JUMP JUMPDEST SWAP8 SWAP7 POP POP POP POP POP POP POP JUMP JUMPDEST PUSH2 0xFFFF DUP7 AND DUP2 MSTORE PUSH1 0x80 PUSH1 0x20 DUP3 ADD MSTORE PUSH1 0x0 PUSH2 0x2548 PUSH1 0x80 DUP4 ADD DUP7 DUP9 PUSH2 0x22BF JUMP JUMPDEST PUSH1 0x1 PUSH1 0x1 PUSH1 0x40 SHL SUB SWAP5 SWAP1 SWAP5 AND PUSH1 0x40 DUP4 ADD MSTORE POP PUSH1 0x60 ADD MSTORE SWAP4 SWAP3 POP POP POP JUMP JUMPDEST PUSH1 0x1 PUSH1 0x1 PUSH1 0x40 SHL SUB DUP4 GT ISZERO PUSH2 0x257C JUMPI PUSH2 0x257C PUSH2 0x1EC7 JUMP JUMPDEST PUSH2 0x2590 DUP4 PUSH2 0x258A DUP4 SLOAD PUSH2 0x2275 JUMP JUMPDEST DUP4 PUSH2 0x2306 JUMP JUMPDEST PUSH1 0x0 PUSH1 0x1F DUP5 GT PUSH1 0x1 DUP2 EQ PUSH2 0x25C4 JUMPI PUSH1 0x0 DUP6 ISZERO PUSH2 0x25AC JUMPI POP DUP4 DUP3 ADD CALLDATALOAD JUMPDEST PUSH1 0x0 NOT PUSH1 0x3 DUP8 SWAP1 SHL SHR NOT AND PUSH1 0x1 DUP7 SWAP1 SHL OR DUP4 SSTORE PUSH2 0x98D JUMP JUMPDEST PUSH1 0x0 DUP4 DUP2 MSTORE PUSH1 0x20 SWAP1 KECCAK256 PUSH1 0x1F NOT DUP7 AND SWAP1 DUP4 JUMPDEST DUP3 DUP2 LT ISZERO PUSH2 0x25F5 JUMPI DUP7 DUP6 ADD CALLDATALOAD DUP3 SSTORE PUSH1 0x20 SWAP5 DUP6 ADD SWAP5 PUSH1 0x1 SWAP1 SWAP3 ADD SWAP2 ADD PUSH2 0x25D5 JUMP JUMPDEST POP DUP7 DUP3 LT ISZERO PUSH2 0x2612 JUMPI PUSH1 0x0 NOT PUSH1 0xF8 DUP9 PUSH1 0x3 SHL AND SHR NOT DUP5 DUP8 ADD CALLDATALOAD AND DUP2 SSTORE JUMPDEST POP POP PUSH1 0x1 DUP6 PUSH1 0x1 SHL ADD DUP4 SSTORE POP POP POP POP POP JUMP JUMPDEST PUSH1 0x0 PUSH2 0x2632 PUSH2 0x1F42 DUP5 PUSH2 0x1F0D JUMP JUMPDEST SWAP1 POP DUP3 DUP2 MSTORE DUP4 DUP4 DUP4 ADD GT ISZERO PUSH2 0x2646 JUMPI PUSH1 0x0 DUP1 REVERT JUMPDEST PUSH2 0xAD1 DUP4 PUSH1 0x20 DUP4 ADD DUP5 PUSH2 0x20EA JUMP JUMPDEST PUSH1 0x0 PUSH1 0x20 DUP3 DUP5 SUB SLT ISZERO PUSH2 0x2666 JUMPI PUSH1 0x0 DUP1 REVERT JUMPDEST DUP2 MLOAD PUSH1 0x1 PUSH1 0x1 PUSH1 0x40 SHL SUB DUP2 GT ISZERO PUSH2 0x267C JUMPI PUSH1 0x0 DUP1 REVERT JUMPDEST DUP3 ADD PUSH1 0x1F DUP2 ADD DUP5 SGT PUSH2 0x268D JUMPI PUSH1 0x0 DUP1 REVERT JUMPDEST PUSH2 0x2069 DUP5 DUP3 MLOAD PUSH1 0x20 DUP5 ADD PUSH2 0x2624 JUMP JUMPDEST PUSH2 0xFFFF DUP6 AND DUP2 MSTORE PUSH1 0x80 PUSH1 0x20 DUP3 ADD MSTORE PUSH1 0x0 PUSH2 0x26B9 PUSH1 0x80 DUP4 ADD DUP7 PUSH2 0x210E JUMP JUMPDEST PUSH1 0x1 PUSH1 0x1 PUSH1 0x40 SHL SUB DUP6 AND PUSH1 0x40 DUP5 ADD MSTORE DUP3 DUP2 SUB PUSH1 0x60 DUP5 ADD MSTORE PUSH2 0x251F DUP2 DUP6 PUSH2 0x210E JUMP JUMPDEST PUSH2 0xFFFF DUP8 AND DUP2 MSTORE PUSH1 0xC0 PUSH1 0x20 DUP3 ADD MSTORE PUSH1 0x0 PUSH2 0x26F7 PUSH1 0xC0 DUP4 ADD DUP9 PUSH2 0x210E JUMP JUMPDEST DUP3 DUP2 SUB PUSH1 0x40 DUP5 ADD MSTORE PUSH2 0x2709 DUP2 DUP9 PUSH2 0x210E JUMP JUMPDEST PUSH1 0x1 PUSH1 0x1 PUSH1 0xA0 SHL SUB DUP8 DUP2 AND PUSH1 0x60 DUP7 ADD MSTORE DUP7 AND PUSH1 0x80 DUP6 ADD MSTORE DUP4 DUP2 SUB PUSH1 0xA0 DUP6 ADD MSTORE SWAP1 POP PUSH2 0x2481 DUP2 DUP6 PUSH2 0x210E JUMP JUMPDEST DUP1 DUP3 ADD DUP1 DUP3 GT ISZERO PUSH2 0x24C5 JUMPI PUSH2 0x24C5 PUSH2 0x240B JUMP JUMPDEST PUSH1 0x0 DUP3 MLOAD PUSH2 0x2759 DUP2 DUP5 PUSH1 0x20 DUP8 ADD PUSH2 0x20EA JUMP JUMPDEST SWAP2 SWAP1 SWAP2 ADD SWAP3 SWAP2 POP POP JUMP JUMPDEST PUSH2 0xFFFF DUP7 AND DUP2 MSTORE PUSH1 0xA0 PUSH1 0x20 DUP3 ADD MSTORE PUSH1 0x0 PUSH2 0x2780 PUSH1 0xA0 DUP4 ADD DUP8 PUSH2 0x210E JUMP JUMPDEST PUSH1 0x1 PUSH1 0x1 PUSH1 0x40 SHL SUB DUP7 AND PUSH1 0x40 DUP5 ADD MSTORE DUP3 DUP2 SUB PUSH1 0x60 DUP5 ADD MSTORE PUSH2 0x27A1 DUP2 DUP7 PUSH2 0x210E JUMP JUMPDEST SWAP1 POP DUP3 DUP2 SUB PUSH1 0x80 DUP5 ADD MSTORE PUSH2 0x27B5 DUP2 DUP6 PUSH2 0x210E JUMP JUMPDEST SWAP9 SWAP8 POP POP POP POP POP POP POP POP JUMP INVALID LOG2 PUSH5 0x6970667358 0x22 SLT KECCAK256 0xB9 SWAP15 PUSH1 0xC6 0xBE 0xF9 0xD1 0xF8 PUSH26 0x622ADB2BFD49AB2B8B8A461A438C3148F7EB18C380B4A364736F PUSH13 0x63430008120033000000000000 "
				},
				"gasEstimates": {
					"creation": {
						"codeDepositCost": "2046200",
						"executionCost": "infinite",
						"totalCost": "infinite"
					},
					"external": {
						"DEFAULT_PAYLOAD_SIZE_LIMIT()": "240",
						"canResolve()": "2380",
						"counter()": "2385",
						"data()": "infinite",
						"destChainId()": "2380",
						"estimateFees(uint16,bytes,string)": "infinite",
						"failedMessages(uint16,bytes,uint64)": "infinite",
						"forceResumeReceive(uint16,bytes)": "infinite",
						"getConfig(uint16,uint16,address,uint256)": "infinite",
						"getTrustedRemoteAddress(uint16)": "infinite",
						"isAwaiting()": "2428",
						"isTrustedRemote(uint16,bytes)": "infinite",
						"lzEndpoint()": "infinite",
						"lzEndpointThis()": "2392",
						"lzReceive(uint16,bytes,uint64,bytes)": "infinite",
						"minDstGasLookup(uint16,uint16)": "infinite",
						"nonblockingLzReceive(uint16,bytes,uint64,bytes)": "infinite",
						"owner()": "2388",
						"payloadSizeLimitLookup(uint16)": "2575",
						"precrime()": "2427",
						"renounceOwnership()": "infinite",
						"retryMessage(uint16,bytes,uint64,bytes)": "infinite",
						"send(string)": "infinite",
						"setConfig(uint16,uint16,uint256,bytes)": "infinite",
						"setMinDstGas(uint16,uint16,uint256)": "infinite",
						"setPayloadSizeLimit(uint16,uint256)": "24747",
						"setPrecrime(address)": "27899",
						"setReceiveVersion(uint16)": "infinite",
						"setSendVersion(uint16)": "infinite",
						"setTrustedRemote(uint16,bytes)": "infinite",
						"setTrustedRemoteAddress(uint16,bytes)": "infinite",
						"transferOwnership(address)": "28443",
						"trustAddress(address)": "infinite",
						"trustedRemoteLookup(uint16)": "infinite"
					},
					"internal": {
						"_nonblockingLzReceive(uint16,bytes memory,uint64,bytes memory)": "infinite"
					}
				},
				"methodIdentifiers": {
					"DEFAULT_PAYLOAD_SIZE_LIMIT()": "c4461834",
					"canResolve()": "ac3791e3",
					"counter()": "61bc221a",
					"data()": "73d4a13a",
					"destChainId()": "c4af1c0b",
					"estimateFees(uint16,bytes,string)": "696d39bb",
					"failedMessages(uint16,bytes,uint64)": "5b8c41e6",
					"forceResumeReceive(uint16,bytes)": "42d65a8d",
					"getConfig(uint16,uint16,address,uint256)": "f5ecbdbc",
					"getTrustedRemoteAddress(uint16)": "9f38369a",
					"isAwaiting()": "58644101",
					"isTrustedRemote(uint16,bytes)": "3d8b38f6",
					"lzEndpoint()": "b353aaa7",
					"lzEndpointThis()": "ded99430",
					"lzReceive(uint16,bytes,uint64,bytes)": "001d3567",
					"minDstGasLookup(uint16,uint16)": "8cfd8f5c",
					"nonblockingLzReceive(uint16,bytes,uint64,bytes)": "66ad5c8a",
					"owner()": "8da5cb5b",
					"payloadSizeLimitLookup(uint16)": "3f1f4fa4",
					"precrime()": "950c8a74",
					"renounceOwnership()": "715018a6",
					"retryMessage(uint16,bytes,uint64,bytes)": "d1deba1f",
					"send(string)": "66792ba1",
					"setConfig(uint16,uint16,uint256,bytes)": "cbed8b9c",
					"setMinDstGas(uint16,uint16,uint256)": "df2a5b3b",
					"setPayloadSizeLimit(uint16,uint256)": "0df37483",
					"setPrecrime(address)": "baf3292d",
					"setReceiveVersion(uint16)": "10ddb137",
					"setSendVersion(uint16)": "07e0db17",
					"setTrustedRemote(uint16,bytes)": "eb8d72b7",
					"setTrustedRemoteAddress(uint16,bytes)": "a6c3d165",
					"transferOwnership(address)": "f2fde38b",
					"trustAddress(address)": "5cdf1649",
					"trustedRemoteLookup(uint16)": "7533d788"
				}
			},
			"storageLayout": {
				"storage": [
					{
						"astId": 1269,
						"contract": "contracts/examples/OmniMessage.sol:OmniMessage",
						"label": "_owner",
						"offset": 0,
						"slot": "0",
						"type": "t_address"
					},
					{
						"astId": 497,
						"contract": "contracts/examples/OmniMessage.sol:OmniMessage",
						"label": "trustedRemoteLookup",
						"offset": 0,
						"slot": "1",
						"type": "t_mapping(t_uint16,t_bytes_storage)"
					},
					{
						"astId": 503,
						"contract": "contracts/examples/OmniMessage.sol:OmniMessage",
						"label": "minDstGasLookup",
						"offset": 0,
						"slot": "2",
						"type": "t_mapping(t_uint16,t_mapping(t_uint16,t_uint256))"
					},
					{
						"astId": 507,
						"contract": "contracts/examples/OmniMessage.sol:OmniMessage",
						"label": "payloadSizeLimitLookup",
						"offset": 0,
						"slot": "3",
						"type": "t_mapping(t_uint16,t_uint256)"
					},
					{
						"astId": 509,
						"contract": "contracts/examples/OmniMessage.sol:OmniMessage",
						"label": "precrime",
						"offset": 0,
						"slot": "4",
						"type": "t_address"
					},
					{
						"astId": 1046,
						"contract": "contracts/examples/OmniMessage.sol:OmniMessage",
						"label": "failedMessages",
						"offset": 0,
						"slot": "5",
						"type": "t_mapping(t_uint16,t_mapping(t_bytes_memory_ptr,t_mapping(t_uint64,t_bytes32)))"
					},
					{
						"astId": 7,
						"contract": "contracts/examples/OmniMessage.sol:OmniMessage",
						"label": "data",
						"offset": 0,
						"slot": "6",
						"type": "t_string_storage"
					},
					{
						"astId": 9,
						"contract": "contracts/examples/OmniMessage.sol:OmniMessage",
						"label": "destChainId",
						"offset": 0,
						"slot": "7",
						"type": "t_uint16"
					},
					{
						"astId": 11,
						"contract": "contracts/examples/OmniMessage.sol:OmniMessage",
						"label": "lzEndpointThis",
						"offset": 2,
						"slot": "7",
						"type": "t_address"
					},
					{
						"astId": 13,
						"contract": "contracts/examples/OmniMessage.sol:OmniMessage",
						"label": "isAwaiting",
						"offset": 22,
						"slot": "7",
						"type": "t_bool"
					},
					{
						"astId": 15,
						"contract": "contracts/examples/OmniMessage.sol:OmniMessage",
						"label": "counter",
						"offset": 0,
						"slot": "8",
						"type": "t_uint256"
					}
				],
				"types": {
					"t_address": {
						"encoding": "inplace",
						"label": "address",
						"numberOfBytes": "20"
					},
					"t_bool": {
						"encoding": "inplace",
						"label": "bool",
						"numberOfBytes": "1"
					},
					"t_bytes32": {
						"encoding": "inplace",
						"label": "bytes32",
						"numberOfBytes": "32"
					},
					"t_bytes_memory_ptr": {
						"encoding": "bytes",
						"label": "bytes",
						"numberOfBytes": "32"
					},
					"t_bytes_storage": {
						"encoding": "bytes",
						"label": "bytes",
						"numberOfBytes": "32"
					},
					"t_mapping(t_bytes_memory_ptr,t_mapping(t_uint64,t_bytes32))": {
						"encoding": "mapping",
						"key": "t_bytes_memory_ptr",
						"label": "mapping(bytes => mapping(uint64 => bytes32))",
						"numberOfBytes": "32",
						"value": "t_mapping(t_uint64,t_bytes32)"
					},
					"t_mapping(t_uint16,t_bytes_storage)": {
						"encoding": "mapping",
						"key": "t_uint16",
						"label": "mapping(uint16 => bytes)",
						"numberOfBytes": "32",
						"value": "t_bytes_storage"
					},
					"t_mapping(t_uint16,t_mapping(t_bytes_memory_ptr,t_mapping(t_uint64,t_bytes32)))": {
						"encoding": "mapping",
						"key": "t_uint16",
						"label": "mapping(uint16 => mapping(bytes => mapping(uint64 => bytes32)))",
						"numberOfBytes": "32",
						"value": "t_mapping(t_bytes_memory_ptr,t_mapping(t_uint64,t_bytes32))"
					},
					"t_mapping(t_uint16,t_mapping(t_uint16,t_uint256))": {
						"encoding": "mapping",
						"key": "t_uint16",
						"label": "mapping(uint16 => mapping(uint16 => uint256))",
						"numberOfBytes": "32",
						"value": "t_mapping(t_uint16,t_uint256)"
					},
					"t_mapping(t_uint16,t_uint256)": {
						"encoding": "mapping",
						"key": "t_uint16",
						"label": "mapping(uint16 => uint256)",
						"numberOfBytes": "32",
						"value": "t_uint256"
					},
					"t_mapping(t_uint64,t_bytes32)": {
						"encoding": "mapping",
						"key": "t_uint64",
						"label": "mapping(uint64 => bytes32)",
						"numberOfBytes": "32",
						"value": "t_bytes32"
					},
					"t_string_storage": {
						"encoding": "bytes",
						"label": "string",
						"numberOfBytes": "32"
					},
					"t_uint16": {
						"encoding": "inplace",
						"label": "uint16",
						"numberOfBytes": "2"
					},
					"t_uint256": {
						"encoding": "inplace",
						"label": "uint256",
						"numberOfBytes": "32"
					},
					"t_uint64": {
						"encoding": "inplace",
						"label": "uint64",
						"numberOfBytes": "8"
					}
				}
			},
			"userdoc": {
				"kind": "user",
				"methods": {},
				"version": 1
			}
		}
	}
}